{
	"FundMe/contracts/FundMe.sol": {
		"FundMe": {
			"abi": [
				{
					"inputs": [],
					"stateMutability": "nonpayable",
					"type": "constructor"
				},
				{
					"inputs": [
						{
							"internalType": "int256",
							"name": "value",
							"type": "int256"
						}
					],
					"name": "SafeCastOverflowedIntToUint",
					"type": "error"
				},
				{
					"inputs": [
						{
							"internalType": "address",
							"name": "",
							"type": "address"
						}
					],
					"name": "addressIsActiveFunder",
					"outputs": [
						{
							"internalType": "bool",
							"name": "",
							"type": "bool"
						}
					],
					"stateMutability": "view",
					"type": "function"
				},
				{
					"inputs": [
						{
							"internalType": "address",
							"name": "",
							"type": "address"
						}
					],
					"name": "addressToAvailableAmount",
					"outputs": [
						{
							"internalType": "uint256",
							"name": "",
							"type": "uint256"
						}
					],
					"stateMutability": "view",
					"type": "function"
				},
				{
					"inputs": [
						{
							"internalType": "address",
							"name": "",
							"type": "address"
						}
					],
					"name": "addressToIndexInFundersArray",
					"outputs": [
						{
							"internalType": "uint256",
							"name": "",
							"type": "uint256"
						}
					],
					"stateMutability": "view",
					"type": "function"
				},
				{
					"inputs": [
						{
							"internalType": "uint256",
							"name": "_newMinimumUsd",
							"type": "uint256"
						}
					],
					"name": "changeMinimumUsd",
					"outputs": [],
					"stateMutability": "nonpayable",
					"type": "function"
				},
				{
					"inputs": [],
					"name": "fund",
					"outputs": [],
					"stateMutability": "payable",
					"type": "function"
				},
				{
					"inputs": [
						{
							"internalType": "uint256",
							"name": "",
							"type": "uint256"
						}
					],
					"name": "funders",
					"outputs": [
						{
							"internalType": "address",
							"name": "",
							"type": "address"
						}
					],
					"stateMutability": "view",
					"type": "function"
				},
				{
					"inputs": [
						{
							"internalType": "uint256",
							"name": "_price",
							"type": "uint256"
						},
						{
							"internalType": "uint256",
							"name": "_amountInWEI",
							"type": "uint256"
						}
					],
					"name": "getConversionRate",
					"outputs": [
						{
							"internalType": "uint256",
							"name": "",
							"type": "uint256"
						}
					],
					"stateMutability": "pure",
					"type": "function"
				},
				{
					"inputs": [],
					"name": "getPrice",
					"outputs": [
						{
							"internalType": "uint256",
							"name": "",
							"type": "uint256"
						}
					],
					"stateMutability": "view",
					"type": "function"
				},
				{
					"inputs": [],
					"name": "i_owner",
					"outputs": [
						{
							"internalType": "address",
							"name": "",
							"type": "address"
						}
					],
					"stateMutability": "view",
					"type": "function"
				},
				{
					"inputs": [],
					"name": "minimumUsd",
					"outputs": [
						{
							"internalType": "uint256",
							"name": "",
							"type": "uint256"
						}
					],
					"stateMutability": "view",
					"type": "function"
				},
				{
					"inputs": [],
					"name": "ownerWithdrawFunds",
					"outputs": [],
					"stateMutability": "nonpayable",
					"type": "function"
				},
				{
					"inputs": [
						{
							"internalType": "uint256",
							"name": "_amount",
							"type": "uint256"
						}
					],
					"name": "partialWithdraw",
					"outputs": [],
					"stateMutability": "nonpayable",
					"type": "function"
				},
				{
					"inputs": [],
					"name": "totalWithdraw",
					"outputs": [],
					"stateMutability": "nonpayable",
					"type": "function"
				},
				{
					"stateMutability": "payable",
					"type": "receive"
				}
			],
			"devdoc": {
				"errors": {
					"SafeCastOverflowedIntToUint(int256)": [
						{
							"details": "An int value doesn't fit in an uint of `bits` size."
						}
					]
				},
				"kind": "dev",
				"methods": {},
				"version": 1
			},
			"evm": {
				"assembly": "    /* \"FundMe/contracts/FundMe.sol\":265:6125  contract FundMe {... */\n  mstore(0x40, 0xa0)\n    /* \"FundMe/contracts/FundMe.sol\":1270:1443  constructor() {... */\n  callvalue\n  dup1\n  iszero\n  tag_1\n  jumpi\n  0x00\n  dup1\n  revert\ntag_1:\n  pop\n    /* \"FundMe/contracts/FundMe.sol\":1304:1314  msg.sender */\n  caller\n    /* \"FundMe/contracts/FundMe.sol\":1294:1314  i_owner = msg.sender */\n  0xffffffffffffffffffffffffffffffffffffffff\n  and\n  0x80\n  dup2\n  0xffffffffffffffffffffffffffffffffffffffff\n  and\n  dup2\n  mstore\n  pop\n  pop\n    /* \"FundMe/contracts/FundMe.sol\":1431:1436  5*1e8 */\n  0x1dcd6500\n    /* \"FundMe/contracts/FundMe.sol\":1418:1428  minimumUsd */\n  0x01\n    /* \"FundMe/contracts/FundMe.sol\":1418:1436  minimumUsd = 5*1e8 */\n  dup2\n  swap1\n  sstore\n  pop\n    /* \"FundMe/contracts/FundMe.sol\":265:6125  contract FundMe {... */\n  mload(0x80)\n  codecopy(0x00, dataOffset(sub_0), dataSize(sub_0))\n  0x00\n  assignImmutable(\"0xe921da22f871c25c63f06c1365385cbb26397f64f79055cdbab32187a9377d16\")\n  return(0x00, dataSize(sub_0))\nstop\n\nsub_0: assembly {\n        /* \"FundMe/contracts/FundMe.sol\":265:6125  contract FundMe {... */\n      mstore(0x40, 0x80)\n      jumpi(tag_1, lt(calldatasize, 0x04))\n      shr(0xe0, calldataload(0x00))\n      dup1\n      0x98d5fdca\n      gt\n      tag_16\n      jumpi\n      dup1\n      0xd78a29d2\n      gt\n      tag_17\n      jumpi\n      dup1\n      0xd78a29d2\n      eq\n      tag_12\n      jumpi\n      dup1\n      0xdba6335f\n      eq\n      tag_13\n      jumpi\n      dup1\n      0xdc0d3dff\n      eq\n      tag_14\n      jumpi\n      dup1\n      0xf8024578\n      eq\n      tag_15\n      jumpi\n      jump(tag_2)\n    tag_17:\n      dup1\n      0x98d5fdca\n      eq\n      tag_9\n      jumpi\n      dup1\n      0xb60d4288\n      eq\n      tag_10\n      jumpi\n      dup1\n      0xcc3b589e\n      eq\n      tag_11\n      jumpi\n      jump(tag_2)\n    tag_16:\n      dup1\n      0x034855c7\n      eq\n      tag_3\n      jumpi\n      dup1\n      0x098de820\n      eq\n      tag_4\n      jumpi\n      dup1\n      0x3e9f607c\n      eq\n      tag_5\n      jumpi\n      dup1\n      0x455fd623\n      eq\n      tag_6\n      jumpi\n      dup1\n      0x5eb8d90b\n      eq\n      tag_7\n      jumpi\n      dup1\n      0x71d2ee6c\n      eq\n      tag_8\n      jumpi\n      jump(tag_2)\n    tag_1:\n      jumpi(tag_2, calldatasize)\n        /* \"FundMe/contracts/FundMe.sol\":1599:1605  fund() */\n      tag_20\n        /* \"FundMe/contracts/FundMe.sol\":1599:1603  fund */\n      tag_21\n        /* \"FundMe/contracts/FundMe.sol\":1599:1605  fund() */\n      jump\t// in\n    tag_20:\n        /* \"FundMe/contracts/FundMe.sol\":265:6125  contract FundMe {... */\n      stop\n    tag_2:\n      0x00\n      dup1\n      revert\n        /* \"FundMe/contracts/FundMe.sol\":592:652  mapping (address => uint256) public addressToAvailableAmount */\n    tag_3:\n      callvalue\n      dup1\n      iszero\n      tag_22\n      jumpi\n      0x00\n      dup1\n      revert\n    tag_22:\n      pop\n      tag_23\n      0x04\n      dup1\n      calldatasize\n      sub\n      dup2\n      add\n      swap1\n      tag_24\n      swap2\n      swap1\n      tag_25\n      jump\t// in\n    tag_24:\n      tag_26\n      jump\t// in\n    tag_23:\n      mload(0x40)\n      tag_27\n      swap2\n      swap1\n      tag_28\n      jump\t// in\n    tag_27:\n      mload(0x40)\n      dup1\n      swap2\n      sub\n      swap1\n      return\n        /* \"FundMe/contracts/FundMe.sol\":400:425  uint256 public minimumUsd */\n    tag_4:\n      callvalue\n      dup1\n      iszero\n      tag_29\n      jumpi\n      0x00\n      dup1\n      revert\n    tag_29:\n      pop\n      tag_30\n      tag_31\n      jump\t// in\n    tag_30:\n      mload(0x40)\n      tag_32\n      swap2\n      swap1\n      tag_28\n      jump\t// in\n    tag_32:\n      mload(0x40)\n      dup1\n      swap2\n      sub\n      swap1\n      return\n        /* \"FundMe/contracts/FundMe.sol\":5975:6122  function getConversionRate(uint256 _price, uint256 _amountInWEI) public pure returns (uint256) {... */\n    tag_5:\n      callvalue\n      dup1\n      iszero\n      tag_33\n      jumpi\n      0x00\n      dup1\n      revert\n    tag_33:\n      pop\n      tag_34\n      0x04\n      dup1\n      calldatasize\n      sub\n      dup2\n      add\n      swap1\n      tag_35\n      swap2\n      swap1\n      tag_36\n      jump\t// in\n    tag_35:\n      tag_37\n      jump\t// in\n    tag_34:\n      mload(0x40)\n      tag_38\n      swap2\n      swap1\n      tag_28\n      jump\t// in\n    tag_38:\n      mload(0x40)\n      dup1\n      swap2\n      sub\n      swap1\n      return\n        /* \"FundMe/contracts/FundMe.sol\":3504:3877  function totalWithdraw() public noReentrant {... */\n    tag_6:\n      callvalue\n      dup1\n      iszero\n      tag_39\n      jumpi\n      0x00\n      dup1\n      revert\n    tag_39:\n      pop\n      tag_40\n      tag_41\n      jump\t// in\n    tag_40:\n      stop\n        /* \"FundMe/contracts/FundMe.sol\":3883:4106  function ownerWithdrawFunds() onlyOwner public {... */\n    tag_7:\n      callvalue\n      dup1\n      iszero\n      tag_42\n      jumpi\n      0x00\n      dup1\n      revert\n    tag_42:\n      pop\n      tag_43\n      tag_44\n      jump\t// in\n    tag_43:\n      stop\n        /* \"FundMe/contracts/FundMe.sol\":2863:3403  function partialWithdraw(uint256 _amount) public noReentrant {... */\n    tag_8:\n      callvalue\n      dup1\n      iszero\n      tag_45\n      jumpi\n      0x00\n      dup1\n      revert\n    tag_45:\n      pop\n      tag_46\n      0x04\n      dup1\n      calldatasize\n      sub\n      dup2\n      add\n      swap1\n      tag_47\n      swap2\n      swap1\n      tag_48\n      jump\t// in\n    tag_47:\n      tag_49\n      jump\t// in\n    tag_46:\n      stop\n        /* \"FundMe/contracts/FundMe.sol\":5606:5871  function getPrice() public view returns (uint256) {... */\n    tag_9:\n      callvalue\n      dup1\n      iszero\n      tag_50\n      jumpi\n      0x00\n      dup1\n      revert\n    tag_50:\n      pop\n      tag_51\n      tag_52\n      jump\t// in\n    tag_51:\n      mload(0x40)\n      tag_53\n      swap2\n      swap1\n      tag_28\n      jump\t// in\n    tag_53:\n      mload(0x40)\n      dup1\n      swap2\n      sub\n      swap1\n      return\n        /* \"FundMe/contracts/FundMe.sol\":2261:2760  function fund() public payable {... */\n    tag_10:\n      tag_54\n      tag_21\n      jump\t// in\n    tag_54:\n      stop\n        /* \"FundMe/contracts/FundMe.sol\":462:526  mapping (address => uint256) public addressToIndexInFundersArray */\n    tag_11:\n      callvalue\n      dup1\n      iszero\n      tag_55\n      jumpi\n      0x00\n      dup1\n      revert\n    tag_55:\n      pop\n      tag_56\n      0x04\n      dup1\n      calldatasize\n      sub\n      dup2\n      add\n      swap1\n      tag_57\n      swap2\n      swap1\n      tag_25\n      jump\t// in\n    tag_57:\n      tag_58\n      jump\t// in\n    tag_56:\n      mload(0x40)\n      tag_59\n      swap2\n      swap1\n      tag_28\n      jump\t// in\n    tag_59:\n      mload(0x40)\n      dup1\n      swap2\n      sub\n      swap1\n      return\n        /* \"FundMe/contracts/FundMe.sol\":1711:1979  function changeMinimumUsd(uint256 _newMinimumUsd) onlyOwner public {... */\n    tag_12:\n      callvalue\n      dup1\n      iszero\n      tag_60\n      jumpi\n      0x00\n      dup1\n      revert\n    tag_60:\n      pop\n      tag_61\n      0x04\n      dup1\n      calldatasize\n      sub\n      dup2\n      add\n      swap1\n      tag_62\n      swap2\n      swap1\n      tag_48\n      jump\t// in\n    tag_62:\n      tag_63\n      jump\t// in\n    tag_61:\n      stop\n        /* \"FundMe/contracts/FundMe.sol\":313:345  address public immutable i_owner */\n    tag_13:\n      callvalue\n      dup1\n      iszero\n      tag_64\n      jumpi\n      0x00\n      dup1\n      revert\n    tag_64:\n      pop\n      tag_65\n      tag_66\n      jump\t// in\n    tag_65:\n      mload(0x40)\n      tag_67\n      swap2\n      swap1\n      tag_68\n      jump\t// in\n    tag_67:\n      mload(0x40)\n      dup1\n      swap2\n      sub\n      swap1\n      return\n        /* \"FundMe/contracts/FundMe.sol\":432:456  address[] public funders */\n    tag_14:\n      callvalue\n      dup1\n      iszero\n      tag_69\n      jumpi\n      0x00\n      dup1\n      revert\n    tag_69:\n      pop\n      tag_70\n      0x04\n      dup1\n      calldatasize\n      sub\n      dup2\n      add\n      swap1\n      tag_71\n      swap2\n      swap1\n      tag_48\n      jump\t// in\n    tag_71:\n      tag_72\n      jump\t// in\n    tag_70:\n      mload(0x40)\n      tag_73\n      swap2\n      swap1\n      tag_68\n      jump\t// in\n    tag_73:\n      mload(0x40)\n      dup1\n      swap2\n      sub\n      swap1\n      return\n        /* \"FundMe/contracts/FundMe.sol\":532:586  mapping (address => bool) public addressIsActiveFunder */\n    tag_15:\n      callvalue\n      dup1\n      iszero\n      tag_74\n      jumpi\n      0x00\n      dup1\n      revert\n    tag_74:\n      pop\n      tag_75\n      0x04\n      dup1\n      calldatasize\n      sub\n      dup2\n      add\n      swap1\n      tag_76\n      swap2\n      swap1\n      tag_25\n      jump\t// in\n    tag_76:\n      tag_77\n      jump\t// in\n    tag_75:\n      mload(0x40)\n      tag_78\n      swap2\n      swap1\n      tag_79\n      jump\t// in\n    tag_78:\n      mload(0x40)\n      dup1\n      swap2\n      sub\n      swap1\n      return\n        /* \"FundMe/contracts/FundMe.sol\":2261:2760  function fund() public payable {... */\n    tag_21:\n        /* \"FundMe/contracts/FundMe.sol\":2302:2315  uint256 price */\n      0x00\n        /* \"FundMe/contracts/FundMe.sol\":2318:2328  getPrice() */\n      tag_81\n        /* \"FundMe/contracts/FundMe.sol\":2318:2326  getPrice */\n      tag_52\n        /* \"FundMe/contracts/FundMe.sol\":2318:2328  getPrice() */\n      jump\t// in\n    tag_81:\n        /* \"FundMe/contracts/FundMe.sol\":2302:2328  uint256 price = getPrice() */\n      swap1\n      pop\n        /* \"FundMe/contracts/FundMe.sol\":2338:2360  uint256 conversionRate */\n      0x00\n        /* \"FundMe/contracts/FundMe.sol\":2363:2398  getConversionRate(price, msg.value) */\n      tag_82\n        /* \"FundMe/contracts/FundMe.sol\":2381:2386  price */\n      dup3\n        /* \"FundMe/contracts/FundMe.sol\":2388:2397  msg.value */\n      callvalue\n        /* \"FundMe/contracts/FundMe.sol\":2363:2380  getConversionRate */\n      tag_37\n        /* \"FundMe/contracts/FundMe.sol\":2363:2398  getConversionRate(price, msg.value) */\n      jump\t// in\n    tag_82:\n        /* \"FundMe/contracts/FundMe.sol\":2338:2398  uint256 conversionRate = getConversionRate(price, msg.value) */\n      swap1\n      pop\n        /* \"FundMe/contracts/FundMe.sol\":2434:2444  minimumUsd */\n      sload(0x01)\n        /* \"FundMe/contracts/FundMe.sol\":2416:2430  conversionRate */\n      dup2\n        /* \"FundMe/contracts/FundMe.sol\":2416:2444  conversionRate >= minimumUsd */\n      lt\n      iszero\n        /* \"FundMe/contracts/FundMe.sol\":2408:2471  require(conversionRate >= minimumUsd, \"didn't send enough USD\") */\n      tag_83\n      jumpi\n      mload(0x40)\n      0x08c379a000000000000000000000000000000000000000000000000000000000\n      dup2\n      mstore\n      0x04\n      add\n      tag_84\n      swap1\n      tag_85\n      jump\t// in\n    tag_84:\n      mload(0x40)\n      dup1\n      swap2\n      sub\n      swap1\n      revert\n    tag_83:\n        /* \"FundMe/contracts/FundMe.sol\":2486:2507  addressIsActiveFunder */\n      0x04\n        /* \"FundMe/contracts/FundMe.sol\":2486:2519  addressIsActiveFunder[msg.sender] */\n      0x00\n        /* \"FundMe/contracts/FundMe.sol\":2508:2518  msg.sender */\n      caller\n        /* \"FundMe/contracts/FundMe.sol\":2486:2519  addressIsActiveFunder[msg.sender] */\n      0xffffffffffffffffffffffffffffffffffffffff\n      and\n      0xffffffffffffffffffffffffffffffffffffffff\n      and\n      dup2\n      mstore\n      0x20\n      add\n      swap1\n      dup2\n      mstore\n      0x20\n      add\n      0x00\n      keccak256\n      0x00\n      swap1\n      sload\n      swap1\n      0x0100\n      exp\n      swap1\n      div\n      0xff\n      and\n        /* \"FundMe/contracts/FundMe.sol\":2481:2695  if (!addressIsActiveFunder[msg.sender]) {... */\n      tag_86\n      jumpi\n        /* \"FundMe/contracts/FundMe.sol\":2578:2585  funders */\n      0x02\n        /* \"FundMe/contracts/FundMe.sol\":2578:2592  funders.length */\n      dup1\n      sload\n      swap1\n      pop\n        /* \"FundMe/contracts/FundMe.sol\":2535:2563  addressToIndexInFundersArray */\n      0x03\n        /* \"FundMe/contracts/FundMe.sol\":2535:2575  addressToIndexInFundersArray[msg.sender] */\n      0x00\n        /* \"FundMe/contracts/FundMe.sol\":2564:2574  msg.sender */\n      caller\n        /* \"FundMe/contracts/FundMe.sol\":2535:2575  addressToIndexInFundersArray[msg.sender] */\n      0xffffffffffffffffffffffffffffffffffffffff\n      and\n      0xffffffffffffffffffffffffffffffffffffffff\n      and\n      dup2\n      mstore\n      0x20\n      add\n      swap1\n      dup2\n      mstore\n      0x20\n      add\n      0x00\n      keccak256\n        /* \"FundMe/contracts/FundMe.sol\":2535:2592  addressToIndexInFundersArray[msg.sender] = funders.length */\n      dup2\n      swap1\n      sstore\n      pop\n        /* \"FundMe/contracts/FundMe.sol\":2606:2613  funders */\n      0x02\n        /* \"FundMe/contracts/FundMe.sol\":2619:2629  msg.sender */\n      caller\n        /* \"FundMe/contracts/FundMe.sol\":2606:2630  funders.push(msg.sender) */\n      swap1\n      dup1\n      0x01\n      dup2\n      sload\n      add\n      dup1\n      dup3\n      sstore\n      dup1\n      swap2\n      pop\n      pop\n      0x01\n      swap1\n      sub\n      swap1\n      0x00\n      mstore\n      keccak256(0x00, 0x20)\n      add\n      0x00\n      swap1\n      swap2\n      swap1\n      swap2\n      swap1\n      swap2\n      0x0100\n      exp\n      dup2\n      sload\n      dup2\n      0xffffffffffffffffffffffffffffffffffffffff\n      mul\n      not\n      and\n      swap1\n      dup4\n      0xffffffffffffffffffffffffffffffffffffffff\n      and\n      mul\n      or\n      swap1\n      sstore\n      pop\n        /* \"FundMe/contracts/FundMe.sol\":2680:2684  true */\n      0x01\n        /* \"FundMe/contracts/FundMe.sol\":2644:2665  addressIsActiveFunder */\n      0x04\n        /* \"FundMe/contracts/FundMe.sol\":2644:2677  addressIsActiveFunder[msg.sender] */\n      0x00\n        /* \"FundMe/contracts/FundMe.sol\":2666:2676  msg.sender */\n      caller\n        /* \"FundMe/contracts/FundMe.sol\":2644:2677  addressIsActiveFunder[msg.sender] */\n      0xffffffffffffffffffffffffffffffffffffffff\n      and\n      0xffffffffffffffffffffffffffffffffffffffff\n      and\n      dup2\n      mstore\n      0x20\n      add\n      swap1\n      dup2\n      mstore\n      0x20\n      add\n      0x00\n      keccak256\n      0x00\n        /* \"FundMe/contracts/FundMe.sol\":2644:2684  addressIsActiveFunder[msg.sender] = true */\n      0x0100\n      exp\n      dup2\n      sload\n      dup2\n      0xff\n      mul\n      not\n      and\n      swap1\n      dup4\n      iszero\n      iszero\n      mul\n      or\n      swap1\n      sstore\n      pop\n        /* \"FundMe/contracts/FundMe.sol\":2481:2695  if (!addressIsActiveFunder[msg.sender]) {... */\n    tag_86:\n        /* \"FundMe/contracts/FundMe.sol\":2744:2753  msg.value */\n      callvalue\n        /* \"FundMe/contracts/FundMe.sol\":2704:2728  addressToAvailableAmount */\n      0x05\n        /* \"FundMe/contracts/FundMe.sol\":2704:2740  addressToAvailableAmount[msg.sender] */\n      0x00\n        /* \"FundMe/contracts/FundMe.sol\":2729:2739  msg.sender */\n      caller\n        /* \"FundMe/contracts/FundMe.sol\":2704:2740  addressToAvailableAmount[msg.sender] */\n      0xffffffffffffffffffffffffffffffffffffffff\n      and\n      0xffffffffffffffffffffffffffffffffffffffff\n      and\n      dup2\n      mstore\n      0x20\n      add\n      swap1\n      dup2\n      mstore\n      0x20\n      add\n      0x00\n      keccak256\n      0x00\n        /* \"FundMe/contracts/FundMe.sol\":2704:2753  addressToAvailableAmount[msg.sender] += msg.value */\n      dup3\n      dup3\n      sload\n      tag_88\n      swap2\n      swap1\n      tag_89\n      jump\t// in\n    tag_88:\n      swap3\n      pop\n      pop\n      dup2\n      swap1\n      sstore\n      pop\n        /* \"FundMe/contracts/FundMe.sol\":2292:2760  {... */\n      pop\n      pop\n        /* \"FundMe/contracts/FundMe.sol\":2261:2760  function fund() public payable {... */\n      jump\t// out\n        /* \"FundMe/contracts/FundMe.sol\":592:652  mapping (address => uint256) public addressToAvailableAmount */\n    tag_26:\n      mstore(0x20, 0x05)\n      dup1\n      0x00\n      mstore\n      keccak256(0x00, 0x40)\n      0x00\n      swap2\n      pop\n      swap1\n      pop\n      sload\n      dup2\n      jump\t// out\n        /* \"FundMe/contracts/FundMe.sol\":400:425  uint256 public minimumUsd */\n    tag_31:\n      sload(0x01)\n      dup2\n      jump\t// out\n        /* \"FundMe/contracts/FundMe.sol\":5975:6122  function getConversionRate(uint256 _price, uint256 _amountInWEI) public pure returns (uint256) {... */\n    tag_37:\n        /* \"FundMe/contracts/FundMe.sol\":6061:6068  uint256 */\n      0x00\n        /* \"FundMe/contracts/FundMe.sol\":6111:6115  1e18 */\n      0x0de0b6b3a7640000\n        /* \"FundMe/contracts/FundMe.sol\":6097:6109  _amountInWEI */\n      dup3\n        /* \"FundMe/contracts/FundMe.sol\":6088:6094  _price */\n      dup5\n        /* \"FundMe/contracts/FundMe.sol\":6088:6109  _price * _amountInWEI */\n      tag_91\n      swap2\n      swap1\n      tag_92\n      jump\t// in\n    tag_91:\n        /* \"FundMe/contracts/FundMe.sol\":6087:6115  (_price * _amountInWEI)/1e18 */\n      tag_93\n      swap2\n      swap1\n      tag_94\n      jump\t// in\n    tag_93:\n        /* \"FundMe/contracts/FundMe.sol\":6080:6115  return (_price * _amountInWEI)/1e18 */\n      swap1\n      pop\n        /* \"FundMe/contracts/FundMe.sol\":5975:6122  function getConversionRate(uint256 _price, uint256 _amountInWEI) public pure returns (uint256) {... */\n      swap3\n      swap2\n      pop\n      pop\n      jump\t// out\n        /* \"FundMe/contracts/FundMe.sol\":3504:3877  function totalWithdraw() public noReentrant {... */\n    tag_41:\n        /* \"FundMe/contracts/FundMe.sol\":890:895  false */\n      0x00\n        /* \"FundMe/contracts/FundMe.sol\":880:895  locked == false */\n      iszero\n      iszero\n        /* \"FundMe/contracts/FundMe.sol\":880:886  locked */\n      0x00\n      dup1\n      sload\n      swap1\n      0x0100\n      exp\n      swap1\n      div\n      0xff\n      and\n        /* \"FundMe/contracts/FundMe.sol\":880:895  locked == false */\n      iszero\n      iszero\n      eq\n        /* \"FundMe/contracts/FundMe.sol\":871:941  require (locked == false, \"No re-entrancy allowed, please try again.\") */\n      tag_96\n      jumpi\n      mload(0x40)\n      0x08c379a000000000000000000000000000000000000000000000000000000000\n      dup2\n      mstore\n      0x04\n      add\n      tag_97\n      swap1\n      tag_98\n      jump\t// in\n    tag_97:\n      mload(0x40)\n      dup1\n      swap2\n      sub\n      swap1\n      revert\n    tag_96:\n        /* \"FundMe/contracts/FundMe.sol\":1067:1071  true */\n      0x01\n        /* \"FundMe/contracts/FundMe.sol\":1058:1064  locked */\n      0x00\n      dup1\n        /* \"FundMe/contracts/FundMe.sol\":1058:1071  locked = true */\n      0x0100\n      exp\n      dup2\n      sload\n      dup2\n      0xff\n      mul\n      not\n      and\n      swap1\n      dup4\n      iszero\n      iszero\n      mul\n      or\n      swap1\n      sstore\n      pop\n        /* \"FundMe/contracts/FundMe.sol\":3558:3573  uint256 balance */\n      0x00\n        /* \"FundMe/contracts/FundMe.sol\":3576:3600  addressToAvailableAmount */\n      0x05\n        /* \"FundMe/contracts/FundMe.sol\":3576:3612  addressToAvailableAmount[msg.sender] */\n      0x00\n        /* \"FundMe/contracts/FundMe.sol\":3601:3611  msg.sender */\n      caller\n        /* \"FundMe/contracts/FundMe.sol\":3576:3612  addressToAvailableAmount[msg.sender] */\n      0xffffffffffffffffffffffffffffffffffffffff\n      and\n      0xffffffffffffffffffffffffffffffffffffffff\n      and\n      dup2\n      mstore\n      0x20\n      add\n      swap1\n      dup2\n      mstore\n      0x20\n      add\n      0x00\n      keccak256\n      sload\n        /* \"FundMe/contracts/FundMe.sol\":3558:3612  uint256 balance = addressToAvailableAmount[msg.sender] */\n      swap1\n      pop\n        /* \"FundMe/contracts/FundMe.sol\":3640:3641  0 */\n      0x00\n        /* \"FundMe/contracts/FundMe.sol\":3630:3637  balance */\n      dup2\n        /* \"FundMe/contracts/FundMe.sol\":3630:3641  balance > 0 */\n      gt\n        /* \"FundMe/contracts/FundMe.sol\":3622:3666  require(balance > 0, \"Insufficient balance\") */\n      tag_100\n      jumpi\n      mload(0x40)\n      0x08c379a000000000000000000000000000000000000000000000000000000000\n      dup2\n      mstore\n      0x04\n      add\n      tag_101\n      swap1\n      tag_102\n      jump\t// in\n    tag_101:\n      mload(0x40)\n      dup1\n      swap2\n      sub\n      swap1\n      revert\n    tag_100:\n        /* \"FundMe/contracts/FundMe.sol\":3715:3716  0 */\n      0x00\n        /* \"FundMe/contracts/FundMe.sol\":3676:3700  addressToAvailableAmount */\n      0x05\n        /* \"FundMe/contracts/FundMe.sol\":3676:3712  addressToAvailableAmount[msg.sender] */\n      0x00\n        /* \"FundMe/contracts/FundMe.sol\":3701:3711  msg.sender */\n      caller\n        /* \"FundMe/contracts/FundMe.sol\":3676:3712  addressToAvailableAmount[msg.sender] */\n      0xffffffffffffffffffffffffffffffffffffffff\n      and\n      0xffffffffffffffffffffffffffffffffffffffff\n      and\n      dup2\n      mstore\n      0x20\n      add\n      swap1\n      dup2\n      mstore\n      0x20\n      add\n      0x00\n      keccak256\n        /* \"FundMe/contracts/FundMe.sol\":3676:3716  addressToAvailableAmount[msg.sender] = 0 */\n      dup2\n      swap1\n      sstore\n      pop\n        /* \"FundMe/contracts/FundMe.sol\":3727:3739  bool success */\n      0x00\n        /* \"FundMe/contracts/FundMe.sol\":3745:3755  msg.sender */\n      caller\n        /* \"FundMe/contracts/FundMe.sol\":3745:3760  msg.sender.call */\n      0xffffffffffffffffffffffffffffffffffffffff\n      and\n        /* \"FundMe/contracts/FundMe.sol\":3768:3775  balance */\n      dup3\n        /* \"FundMe/contracts/FundMe.sol\":3745:3780  msg.sender.call{value: balance}(\"\") */\n      mload(0x40)\n      tag_103\n      swap1\n      tag_104\n      jump\t// in\n    tag_103:\n      0x00\n      mload(0x40)\n      dup1\n      dup4\n      sub\n      dup2\n      dup6\n      dup8\n      gas\n      call\n      swap3\n      pop\n      pop\n      pop\n      returndatasize\n      dup1\n      0x00\n      dup2\n      eq\n      tag_107\n      jumpi\n      mload(0x40)\n      swap2\n      pop\n      and(add(returndatasize, 0x3f), not(0x1f))\n      dup3\n      add\n      0x40\n      mstore\n      returndatasize\n      dup3\n      mstore\n      returndatasize\n      0x00\n      0x20\n      dup5\n      add\n      returndatacopy\n      jump(tag_106)\n    tag_107:\n      0x60\n      swap2\n      pop\n    tag_106:\n      pop\n        /* \"FundMe/contracts/FundMe.sol\":3726:3780  (bool success, ) = msg.sender.call{value: balance}(\"\") */\n      pop\n      swap1\n      pop\n        /* \"FundMe/contracts/FundMe.sol\":3809:3813  true */\n      0x01\n        /* \"FundMe/contracts/FundMe.sol\":3798:3813  success == true */\n      iszero\n      iszero\n        /* \"FundMe/contracts/FundMe.sol\":3798:3805  success */\n      dup2\n        /* \"FundMe/contracts/FundMe.sol\":3798:3813  success == true */\n      iszero\n      iszero\n      eq\n        /* \"FundMe/contracts/FundMe.sol\":3790:3834  require(success == true, \"Transfer failed.\") */\n      tag_108\n      jumpi\n      mload(0x40)\n      0x08c379a000000000000000000000000000000000000000000000000000000000\n      dup2\n      mstore\n      0x04\n      add\n      tag_109\n      swap1\n      tag_110\n      jump\t// in\n    tag_109:\n      mload(0x40)\n      dup1\n      swap2\n      sub\n      swap1\n      revert\n    tag_108:\n        /* \"FundMe/contracts/FundMe.sol\":3844:3870  cleanAfterUserWithdrawal() */\n      tag_111\n        /* \"FundMe/contracts/FundMe.sol\":3844:3868  cleanAfterUserWithdrawal */\n      tag_112\n        /* \"FundMe/contracts/FundMe.sol\":3844:3870  cleanAfterUserWithdrawal() */\n      jump\t// in\n    tag_111:\n        /* \"FundMe/contracts/FundMe.sol\":3548:3877  {... */\n      pop\n      pop\n        /* \"FundMe/contracts/FundMe.sol\":1252:1257  false */\n      0x00\n        /* \"FundMe/contracts/FundMe.sol\":1243:1249  locked */\n      dup1\n      0x00\n        /* \"FundMe/contracts/FundMe.sol\":1243:1257  locked = false */\n      0x0100\n      exp\n      dup2\n      sload\n      dup2\n      0xff\n      mul\n      not\n      and\n      swap1\n      dup4\n      iszero\n      iszero\n      mul\n      or\n      swap1\n      sstore\n      pop\n        /* \"FundMe/contracts/FundMe.sol\":3504:3877  function totalWithdraw() public noReentrant {... */\n      jump\t// out\n        /* \"FundMe/contracts/FundMe.sol\":3883:4106  function ownerWithdrawFunds() onlyOwner public {... */\n    tag_44:\n        /* \"FundMe/contracts/FundMe.sol\":713:720  i_owner */\n      immutable(\"0xe921da22f871c25c63f06c1365385cbb26397f64f79055cdbab32187a9377d16\")\n        /* \"FundMe/contracts/FundMe.sol\":699:720  msg.sender == i_owner */\n      0xffffffffffffffffffffffffffffffffffffffff\n      and\n        /* \"FundMe/contracts/FundMe.sol\":699:709  msg.sender */\n      caller\n        /* \"FundMe/contracts/FundMe.sol\":699:720  msg.sender == i_owner */\n      0xffffffffffffffffffffffffffffffffffffffff\n      and\n      eq\n        /* \"FundMe/contracts/FundMe.sol\":690:762  require (msg.sender == i_owner, \"Only owner can execute this function.\") */\n      tag_114\n      jumpi\n      mload(0x40)\n      0x08c379a000000000000000000000000000000000000000000000000000000000\n      dup2\n      mstore\n      0x04\n      add\n      tag_115\n      swap1\n      tag_116\n      jump\t// in\n    tag_115:\n      mload(0x40)\n      dup1\n      swap2\n      sub\n      swap1\n      revert\n    tag_114:\n        /* \"FundMe/contracts/FundMe.sol\":3941:3953  bool success */\n      0x00\n        /* \"FundMe/contracts/FundMe.sol\":3959:3969  msg.sender */\n      caller\n        /* \"FundMe/contracts/FundMe.sol\":3959:3974  msg.sender.call */\n      0xffffffffffffffffffffffffffffffffffffffff\n      and\n        /* \"FundMe/contracts/FundMe.sol\":3982:4003  address(this).balance */\n      selfbalance\n        /* \"FundMe/contracts/FundMe.sol\":3959:4008  msg.sender.call{value: address(this).balance}(\"\") */\n      mload(0x40)\n      tag_118\n      swap1\n      tag_104\n      jump\t// in\n    tag_118:\n      0x00\n      mload(0x40)\n      dup1\n      dup4\n      sub\n      dup2\n      dup6\n      dup8\n      gas\n      call\n      swap3\n      pop\n      pop\n      pop\n      returndatasize\n      dup1\n      0x00\n      dup2\n      eq\n      tag_121\n      jumpi\n      mload(0x40)\n      swap2\n      pop\n      and(add(returndatasize, 0x3f), not(0x1f))\n      dup3\n      add\n      0x40\n      mstore\n      returndatasize\n      dup3\n      mstore\n      returndatasize\n      0x00\n      0x20\n      dup5\n      add\n      returndatacopy\n      jump(tag_120)\n    tag_121:\n      0x60\n      swap2\n      pop\n    tag_120:\n      pop\n        /* \"FundMe/contracts/FundMe.sol\":3940:4008  (bool success, ) = msg.sender.call{value: address(this).balance}(\"\") */\n      pop\n      swap1\n      pop\n        /* \"FundMe/contracts/FundMe.sol\":4037:4041  true */\n      0x01\n        /* \"FundMe/contracts/FundMe.sol\":4026:4041  success == true */\n      iszero\n      iszero\n        /* \"FundMe/contracts/FundMe.sol\":4026:4033  success */\n      dup2\n        /* \"FundMe/contracts/FundMe.sol\":4026:4041  success == true */\n      iszero\n      iszero\n      eq\n        /* \"FundMe/contracts/FundMe.sol\":4018:4062  require(success == true, \"Transfer failed.\") */\n      tag_122\n      jumpi\n      mload(0x40)\n      0x08c379a000000000000000000000000000000000000000000000000000000000\n      dup2\n      mstore\n      0x04\n      add\n      tag_123\n      swap1\n      tag_110\n      jump\t// in\n    tag_123:\n      mload(0x40)\n      dup1\n      swap2\n      sub\n      swap1\n      revert\n    tag_122:\n        /* \"FundMe/contracts/FundMe.sol\":4072:4099  cleanAfterOwnerWithdrawal() */\n      tag_124\n        /* \"FundMe/contracts/FundMe.sol\":4072:4097  cleanAfterOwnerWithdrawal */\n      tag_125\n        /* \"FundMe/contracts/FundMe.sol\":4072:4099  cleanAfterOwnerWithdrawal() */\n      jump\t// in\n    tag_124:\n        /* \"FundMe/contracts/FundMe.sol\":3930:4106  {... */\n      pop\n        /* \"FundMe/contracts/FundMe.sol\":3883:4106  function ownerWithdrawFunds() onlyOwner public {... */\n      jump\t// out\n        /* \"FundMe/contracts/FundMe.sol\":2863:3403  function partialWithdraw(uint256 _amount) public noReentrant {... */\n    tag_49:\n        /* \"FundMe/contracts/FundMe.sol\":890:895  false */\n      0x00\n        /* \"FundMe/contracts/FundMe.sol\":880:895  locked == false */\n      iszero\n      iszero\n        /* \"FundMe/contracts/FundMe.sol\":880:886  locked */\n      0x00\n      dup1\n      sload\n      swap1\n      0x0100\n      exp\n      swap1\n      div\n      0xff\n      and\n        /* \"FundMe/contracts/FundMe.sol\":880:895  locked == false */\n      iszero\n      iszero\n      eq\n        /* \"FundMe/contracts/FundMe.sol\":871:941  require (locked == false, \"No re-entrancy allowed, please try again.\") */\n      tag_127\n      jumpi\n      mload(0x40)\n      0x08c379a000000000000000000000000000000000000000000000000000000000\n      dup2\n      mstore\n      0x04\n      add\n      tag_128\n      swap1\n      tag_98\n      jump\t// in\n    tag_128:\n      mload(0x40)\n      dup1\n      swap2\n      sub\n      swap1\n      revert\n    tag_127:\n        /* \"FundMe/contracts/FundMe.sol\":1067:1071  true */\n      0x01\n        /* \"FundMe/contracts/FundMe.sol\":1058:1064  locked */\n      0x00\n      dup1\n        /* \"FundMe/contracts/FundMe.sol\":1058:1071  locked = true */\n      0x0100\n      exp\n      dup2\n      sload\n      dup2\n      0xff\n      mul\n      not\n      and\n      swap1\n      dup4\n      iszero\n      iszero\n      mul\n      or\n      swap1\n      sstore\n      pop\n        /* \"FundMe/contracts/FundMe.sol\":2979:2983  true */\n      0x01\n        /* \"FundMe/contracts/FundMe.sol\":2942:2983  addressIsActiveFunder[msg.sender] == true */\n      iszero\n      iszero\n        /* \"FundMe/contracts/FundMe.sol\":2942:2963  addressIsActiveFunder */\n      0x04\n        /* \"FundMe/contracts/FundMe.sol\":2942:2975  addressIsActiveFunder[msg.sender] */\n      0x00\n        /* \"FundMe/contracts/FundMe.sol\":2964:2974  msg.sender */\n      caller\n        /* \"FundMe/contracts/FundMe.sol\":2942:2975  addressIsActiveFunder[msg.sender] */\n      0xffffffffffffffffffffffffffffffffffffffff\n      and\n      0xffffffffffffffffffffffffffffffffffffffff\n      and\n      dup2\n      mstore\n      0x20\n      add\n      swap1\n      dup2\n      mstore\n      0x20\n      add\n      0x00\n      keccak256\n      0x00\n      swap1\n      sload\n      swap1\n      0x0100\n      exp\n      swap1\n      div\n      0xff\n      and\n        /* \"FundMe/contracts/FundMe.sol\":2942:2983  addressIsActiveFunder[msg.sender] == true */\n      iszero\n      iszero\n      eq\n        /* \"FundMe/contracts/FundMe.sol\":2934:3019  require(addressIsActiveFunder[msg.sender] == true, \"Wallet address is not a funder.\") */\n      tag_130\n      jumpi\n      mload(0x40)\n      0x08c379a000000000000000000000000000000000000000000000000000000000\n      dup2\n      mstore\n      0x04\n      add\n      tag_131\n      swap1\n      tag_132\n      jump\t// in\n    tag_131:\n      mload(0x40)\n      dup1\n      swap2\n      sub\n      swap1\n      revert\n    tag_130:\n        /* \"FundMe/contracts/FundMe.sol\":3069:3076  _amount */\n      dup1\n        /* \"FundMe/contracts/FundMe.sol\":3029:3053  addressToAvailableAmount */\n      0x05\n        /* \"FundMe/contracts/FundMe.sol\":3029:3065  addressToAvailableAmount[msg.sender] */\n      0x00\n        /* \"FundMe/contracts/FundMe.sol\":3054:3064  msg.sender */\n      caller\n        /* \"FundMe/contracts/FundMe.sol\":3029:3065  addressToAvailableAmount[msg.sender] */\n      0xffffffffffffffffffffffffffffffffffffffff\n      and\n      0xffffffffffffffffffffffffffffffffffffffff\n      and\n      dup2\n      mstore\n      0x20\n      add\n      swap1\n      dup2\n      mstore\n      0x20\n      add\n      0x00\n      keccak256\n      0x00\n        /* \"FundMe/contracts/FundMe.sol\":3029:3076  addressToAvailableAmount[msg.sender] -= _amount */\n      dup3\n      dup3\n      sload\n      tag_133\n      swap2\n      swap1\n      tag_134\n      jump\t// in\n    tag_133:\n      swap3\n      pop\n      pop\n      dup2\n      swap1\n      sstore\n      pop\n        /* \"FundMe/contracts/FundMe.sol\":3087:3099  bool success */\n      0x00\n        /* \"FundMe/contracts/FundMe.sol\":3105:3115  msg.sender */\n      caller\n        /* \"FundMe/contracts/FundMe.sol\":3105:3120  msg.sender.call */\n      0xffffffffffffffffffffffffffffffffffffffff\n      and\n        /* \"FundMe/contracts/FundMe.sol\":3128:3135  _amount */\n      dup3\n        /* \"FundMe/contracts/FundMe.sol\":3105:3140  msg.sender.call{value: _amount}(\"\") */\n      mload(0x40)\n      tag_135\n      swap1\n      tag_104\n      jump\t// in\n    tag_135:\n      0x00\n      mload(0x40)\n      dup1\n      dup4\n      sub\n      dup2\n      dup6\n      dup8\n      gas\n      call\n      swap3\n      pop\n      pop\n      pop\n      returndatasize\n      dup1\n      0x00\n      dup2\n      eq\n      tag_138\n      jumpi\n      mload(0x40)\n      swap2\n      pop\n      and(add(returndatasize, 0x3f), not(0x1f))\n      dup3\n      add\n      0x40\n      mstore\n      returndatasize\n      dup3\n      mstore\n      returndatasize\n      0x00\n      0x20\n      dup5\n      add\n      returndatacopy\n      jump(tag_137)\n    tag_138:\n      0x60\n      swap2\n      pop\n    tag_137:\n      pop\n        /* \"FundMe/contracts/FundMe.sol\":3086:3140  (bool success, ) = msg.sender.call{value: _amount}(\"\") */\n      pop\n      swap1\n      pop\n        /* \"FundMe/contracts/FundMe.sol\":3169:3173  true */\n      0x01\n        /* \"FundMe/contracts/FundMe.sol\":3158:3173  success == true */\n      iszero\n      iszero\n        /* \"FundMe/contracts/FundMe.sol\":3158:3165  success */\n      dup2\n        /* \"FundMe/contracts/FundMe.sol\":3158:3173  success == true */\n      iszero\n      iszero\n      eq\n        /* \"FundMe/contracts/FundMe.sol\":3150:3194  require(success == true, \"Transfer failed.\") */\n      tag_139\n      jumpi\n      mload(0x40)\n      0x08c379a000000000000000000000000000000000000000000000000000000000\n      dup2\n      mstore\n      0x04\n      add\n      tag_140\n      swap1\n      tag_110\n      jump\t// in\n    tag_140:\n      mload(0x40)\n      dup1\n      swap2\n      sub\n      swap1\n      revert\n    tag_139:\n        /* \"FundMe/contracts/FundMe.sol\":3344:3345  0 */\n      0x00\n        /* \"FundMe/contracts/FundMe.sol\":3304:3328  addressToAvailableAmount */\n      0x05\n        /* \"FundMe/contracts/FundMe.sol\":3304:3340  addressToAvailableAmount[msg.sender] */\n      0x00\n        /* \"FundMe/contracts/FundMe.sol\":3329:3339  msg.sender */\n      caller\n        /* \"FundMe/contracts/FundMe.sol\":3304:3340  addressToAvailableAmount[msg.sender] */\n      0xffffffffffffffffffffffffffffffffffffffff\n      and\n      0xffffffffffffffffffffffffffffffffffffffff\n      and\n      dup2\n      mstore\n      0x20\n      add\n      swap1\n      dup2\n      mstore\n      0x20\n      add\n      0x00\n      keccak256\n      sload\n        /* \"FundMe/contracts/FundMe.sol\":3304:3345  addressToAvailableAmount[msg.sender] <= 0 */\n      gt\n        /* \"FundMe/contracts/FundMe.sol\":3300:3397  if (addressToAvailableAmount[msg.sender] <= 0){... */\n      tag_141\n      jumpi\n        /* \"FundMe/contracts/FundMe.sol\":3360:3386  cleanAfterUserWithdrawal() */\n      tag_142\n        /* \"FundMe/contracts/FundMe.sol\":3360:3384  cleanAfterUserWithdrawal */\n      tag_112\n        /* \"FundMe/contracts/FundMe.sol\":3360:3386  cleanAfterUserWithdrawal() */\n      jump\t// in\n    tag_142:\n        /* \"FundMe/contracts/FundMe.sol\":3300:3397  if (addressToAvailableAmount[msg.sender] <= 0){... */\n    tag_141:\n        /* \"FundMe/contracts/FundMe.sol\":2924:3403  {... */\n      pop\n        /* \"FundMe/contracts/FundMe.sol\":1252:1257  false */\n      0x00\n        /* \"FundMe/contracts/FundMe.sol\":1243:1249  locked */\n      dup1\n      0x00\n        /* \"FundMe/contracts/FundMe.sol\":1243:1257  locked = false */\n      0x0100\n      exp\n      dup2\n      sload\n      dup2\n      0xff\n      mul\n      not\n      and\n      swap1\n      dup4\n      iszero\n      iszero\n      mul\n      or\n      swap1\n      sstore\n      pop\n        /* \"FundMe/contracts/FundMe.sol\":2863:3403  function partialWithdraw(uint256 _amount) public noReentrant {... */\n      pop\n      jump\t// out\n        /* \"FundMe/contracts/FundMe.sol\":5606:5871  function getPrice() public view returns (uint256) {... */\n    tag_52:\n        /* \"FundMe/contracts/FundMe.sol\":5647:5654  uint256 */\n      0x00\n        /* \"FundMe/contracts/FundMe.sol\":5668:5680  int256 price */\n      dup1\n        /* \"FundMe/contracts/FundMe.sol\":5710:5752  0x694AA1769357215DE4FAC081bf1f309aDC325306 */\n      0x694aa1769357215de4fac081bf1f309adc325306\n        /* \"FundMe/contracts/FundMe.sol\":5688:5769  AggregatorV3Interface(0x694AA1769357215DE4FAC081bf1f309aDC325306).latestRoundData */\n      0xffffffffffffffffffffffffffffffffffffffff\n      and\n      0xfeaf968c\n        /* \"FundMe/contracts/FundMe.sol\":5688:5771  AggregatorV3Interface(0x694AA1769357215DE4FAC081bf1f309aDC325306).latestRoundData() */\n      mload(0x40)\n      dup2\n      0xffffffff\n      and\n      0xe0\n      shl\n      dup2\n      mstore\n      0x04\n      add\n      0xa0\n      mload(0x40)\n      dup1\n      dup4\n      sub\n      dup2\n      dup7\n      gas\n      staticcall\n      iszero\n      dup1\n      iszero\n      tag_145\n      jumpi\n      returndatasize\n      0x00\n      dup1\n      returndatacopy\n      revert(0x00, returndatasize)\n    tag_145:\n      pop\n      pop\n      pop\n      pop\n      mload(0x40)\n      returndatasize\n      not(0x1f)\n      0x1f\n      dup3\n      add\n      and\n      dup3\n      add\n      dup1\n      0x40\n      mstore\n      pop\n      dup2\n      add\n      swap1\n      tag_146\n      swap2\n      swap1\n      tag_147\n      jump\t// in\n    tag_146:\n        /* \"FundMe/contracts/FundMe.sol\":5666:5771  (,int256 price ,,,) = AggregatorV3Interface(0x694AA1769357215DE4FAC081bf1f309aDC325306).latestRoundData() */\n      pop\n      pop\n      pop\n      swap2\n      pop\n      pop\n        /* \"FundMe/contracts/FundMe.sol\":5797:5798  0 */\n      0x00\n        /* \"FundMe/contracts/FundMe.sol\":5789:5794  price */\n      dup2\n        /* \"FundMe/contracts/FundMe.sol\":5789:5798  price > 0 */\n      sgt\n        /* \"FundMe/contracts/FundMe.sol\":5781:5830  require(price > 0, \"Negative price not allowed.\") */\n      tag_148\n      jumpi\n      mload(0x40)\n      0x08c379a000000000000000000000000000000000000000000000000000000000\n      dup2\n      mstore\n      0x04\n      add\n      tag_149\n      swap1\n      tag_150\n      jump\t// in\n    tag_149:\n      mload(0x40)\n      dup1\n      swap2\n      sub\n      swap1\n      revert\n    tag_148:\n        /* \"FundMe/contracts/FundMe.sol\":5847:5864  price.toUint256() */\n      tag_151\n        /* \"FundMe/contracts/FundMe.sol\":5847:5852  price */\n      dup2\n        /* \"FundMe/contracts/FundMe.sol\":5847:5862  price.toUint256 */\n      tag_152\n        /* \"FundMe/contracts/FundMe.sol\":5847:5864  price.toUint256() */\n      jump\t// in\n    tag_151:\n        /* \"FundMe/contracts/FundMe.sol\":5840:5864  return price.toUint256() */\n      swap2\n      pop\n      pop\n        /* \"FundMe/contracts/FundMe.sol\":5606:5871  function getPrice() public view returns (uint256) {... */\n      swap1\n      jump\t// out\n        /* \"FundMe/contracts/FundMe.sol\":462:526  mapping (address => uint256) public addressToIndexInFundersArray */\n    tag_58:\n      mstore(0x20, 0x03)\n      dup1\n      0x00\n      mstore\n      keccak256(0x00, 0x40)\n      0x00\n      swap2\n      pop\n      swap1\n      pop\n      sload\n      dup2\n      jump\t// out\n        /* \"FundMe/contracts/FundMe.sol\":1711:1979  function changeMinimumUsd(uint256 _newMinimumUsd) onlyOwner public {... */\n    tag_63:\n        /* \"FundMe/contracts/FundMe.sol\":713:720  i_owner */\n      immutable(\"0xe921da22f871c25c63f06c1365385cbb26397f64f79055cdbab32187a9377d16\")\n        /* \"FundMe/contracts/FundMe.sol\":699:720  msg.sender == i_owner */\n      0xffffffffffffffffffffffffffffffffffffffff\n      and\n        /* \"FundMe/contracts/FundMe.sol\":699:709  msg.sender */\n      caller\n        /* \"FundMe/contracts/FundMe.sol\":699:720  msg.sender == i_owner */\n      0xffffffffffffffffffffffffffffffffffffffff\n      and\n      eq\n        /* \"FundMe/contracts/FundMe.sol\":690:762  require (msg.sender == i_owner, \"Only owner can execute this function.\") */\n      tag_154\n      jumpi\n      mload(0x40)\n      0x08c379a000000000000000000000000000000000000000000000000000000000\n      dup2\n      mstore\n      0x04\n      add\n      tag_155\n      swap1\n      tag_116\n      jump\t// in\n    tag_155:\n      mload(0x40)\n      dup1\n      swap2\n      sub\n      swap1\n      revert\n    tag_154:\n        /* \"FundMe/contracts/FundMe.sol\":1788:1809  uint256 newMinimumUsd */\n      0x00\n        /* \"FundMe/contracts/FundMe.sol\":1827:1830  1e8 */\n      0x05f5e100\n        /* \"FundMe/contracts/FundMe.sol\":1812:1826  _newMinimumUsd */\n      dup3\n        /* \"FundMe/contracts/FundMe.sol\":1812:1830  _newMinimumUsd*1e8 */\n      tag_157\n      swap2\n      swap1\n      tag_92\n      jump\t// in\n    tag_157:\n        /* \"FundMe/contracts/FundMe.sol\":1788:1830  uint256 newMinimumUsd = _newMinimumUsd*1e8 */\n      swap1\n      pop\n        /* \"FundMe/contracts/FundMe.sol\":1865:1875  minimumUsd */\n      sload(0x01)\n        /* \"FundMe/contracts/FundMe.sol\":1848:1861  newMinimumUsd */\n      dup2\n        /* \"FundMe/contracts/FundMe.sol\":1848:1875  newMinimumUsd != minimumUsd */\n      sub\n        /* \"FundMe/contracts/FundMe.sol\":1840:1936  require(newMinimumUsd != minimumUsd, \"Cannot change the value of minimumUsd to the same value.\") */\n      tag_158\n      jumpi\n      mload(0x40)\n      0x08c379a000000000000000000000000000000000000000000000000000000000\n      dup2\n      mstore\n      0x04\n      add\n      tag_159\n      swap1\n      tag_160\n      jump\t// in\n    tag_159:\n      mload(0x40)\n      dup1\n      swap2\n      sub\n      swap1\n      revert\n    tag_158:\n        /* \"FundMe/contracts/FundMe.sol\":1959:1972  newMinimumUsd */\n      dup1\n        /* \"FundMe/contracts/FundMe.sol\":1946:1956  minimumUsd */\n      0x01\n        /* \"FundMe/contracts/FundMe.sol\":1946:1972  minimumUsd = newMinimumUsd */\n      dup2\n      swap1\n      sstore\n      pop\n        /* \"FundMe/contracts/FundMe.sol\":1778:1979  {... */\n      pop\n        /* \"FundMe/contracts/FundMe.sol\":1711:1979  function changeMinimumUsd(uint256 _newMinimumUsd) onlyOwner public {... */\n      pop\n      jump\t// out\n        /* \"FundMe/contracts/FundMe.sol\":313:345  address public immutable i_owner */\n    tag_66:\n      immutable(\"0xe921da22f871c25c63f06c1365385cbb26397f64f79055cdbab32187a9377d16\")\n      dup2\n      jump\t// out\n        /* \"FundMe/contracts/FundMe.sol\":432:456  address[] public funders */\n    tag_72:\n      0x02\n      dup2\n      dup2\n      sload\n      dup2\n      lt\n      tag_161\n      jumpi\n      0x00\n      dup1\n      revert\n    tag_161:\n      swap1\n      0x00\n      mstore\n      keccak256(0x00, 0x20)\n      add\n      0x00\n      swap2\n      pop\n      sload\n      swap1\n      0x0100\n      exp\n      swap1\n      div\n      0xffffffffffffffffffffffffffffffffffffffff\n      and\n      dup2\n      jump\t// out\n        /* \"FundMe/contracts/FundMe.sol\":532:586  mapping (address => bool) public addressIsActiveFunder */\n    tag_77:\n      mstore(0x20, 0x04)\n      dup1\n      0x00\n      mstore\n      keccak256(0x00, 0x40)\n      0x00\n      swap2\n      pop\n      sload\n      swap1\n      0x0100\n      exp\n      swap1\n      div\n      0xff\n      and\n      dup2\n      jump\t// out\n        /* \"FundMe/contracts/FundMe.sol\":4749:5489  function cleanAfterUserWithdrawal() internal {... */\n    tag_112:\n        /* \"FundMe/contracts/FundMe.sol\":4804:4829  address lastFunderAddress */\n      0x00\n        /* \"FundMe/contracts/FundMe.sol\":4832:4839  funders */\n      0x02\n        /* \"FundMe/contracts/FundMe.sol\":4857:4858  1 */\n      0x01\n        /* \"FundMe/contracts/FundMe.sol\":4840:4847  funders */\n      0x02\n        /* \"FundMe/contracts/FundMe.sol\":4840:4854  funders.length */\n      dup1\n      sload\n      swap1\n      pop\n        /* \"FundMe/contracts/FundMe.sol\":4840:4858  funders.length - 1 */\n      tag_164\n      swap2\n      swap1\n      tag_134\n      jump\t// in\n    tag_164:\n        /* \"FundMe/contracts/FundMe.sol\":4832:4859  funders[funders.length - 1] */\n      dup2\n      sload\n      dup2\n      lt\n      tag_165\n      jumpi\n      tag_166\n      tag_167\n      jump\t// in\n    tag_166:\n    tag_165:\n      swap1\n      0x00\n      mstore\n      keccak256(0x00, 0x20)\n      add\n      0x00\n      swap1\n      sload\n      swap1\n      0x0100\n      exp\n      swap1\n      div\n      0xffffffffffffffffffffffffffffffffffffffff\n      and\n        /* \"FundMe/contracts/FundMe.sol\":4804:4859  address lastFunderAddress = funders[funders.length - 1] */\n      swap1\n      pop\n        /* \"FundMe/contracts/FundMe.sol\":4869:4895  uint256 currentFunderIndex */\n      0x00\n        /* \"FundMe/contracts/FundMe.sol\":4898:4926  addressToIndexInFundersArray */\n      0x03\n        /* \"FundMe/contracts/FundMe.sol\":4898:4938  addressToIndexInFundersArray[msg.sender] */\n      0x00\n        /* \"FundMe/contracts/FundMe.sol\":4927:4937  msg.sender */\n      caller\n        /* \"FundMe/contracts/FundMe.sol\":4898:4938  addressToIndexInFundersArray[msg.sender] */\n      0xffffffffffffffffffffffffffffffffffffffff\n      and\n      0xffffffffffffffffffffffffffffffffffffffff\n      and\n      dup2\n      mstore\n      0x20\n      add\n      swap1\n      dup2\n      mstore\n      0x20\n      add\n      0x00\n      keccak256\n      sload\n        /* \"FundMe/contracts/FundMe.sol\":4869:4938  uint256 currentFunderIndex = addressToIndexInFundersArray[msg.sender] */\n      swap1\n      pop\n        /* \"FundMe/contracts/FundMe.sol\":5136:5137  1 */\n      0x01\n        /* \"FundMe/contracts/FundMe.sol\":5119:5126  funders */\n      0x02\n        /* \"FundMe/contracts/FundMe.sol\":5119:5133  funders.length */\n      dup1\n      sload\n      swap1\n      pop\n        /* \"FundMe/contracts/FundMe.sol\":5119:5137  funders.length - 1 */\n      tag_169\n      swap2\n      swap1\n      tag_134\n      jump\t// in\n    tag_169:\n        /* \"FundMe/contracts/FundMe.sol\":5075:5103  addressToIndexInFundersArray */\n      0x03\n        /* \"FundMe/contracts/FundMe.sol\":5075:5115  addressToIndexInFundersArray[msg.sender] */\n      0x00\n        /* \"FundMe/contracts/FundMe.sol\":5104:5114  msg.sender */\n      caller\n        /* \"FundMe/contracts/FundMe.sol\":5075:5115  addressToIndexInFundersArray[msg.sender] */\n      0xffffffffffffffffffffffffffffffffffffffff\n      and\n      0xffffffffffffffffffffffffffffffffffffffff\n      and\n      dup2\n      mstore\n      0x20\n      add\n      swap1\n      dup2\n      mstore\n      0x20\n      add\n      0x00\n      keccak256\n      sload\n        /* \"FundMe/contracts/FundMe.sol\":5075:5137  addressToIndexInFundersArray[msg.sender] != funders.length - 1 */\n      eq\n        /* \"FundMe/contracts/FundMe.sol\":5071:5310  if (addressToIndexInFundersArray[msg.sender] != funders.length - 1){... */\n      tag_170\n      jumpi\n        /* \"FundMe/contracts/FundMe.sol\":5182:5199  lastFunderAddress */\n      dup2\n        /* \"FundMe/contracts/FundMe.sol\":5152:5159  funders */\n      0x02\n        /* \"FundMe/contracts/FundMe.sol\":5160:5178  currentFunderIndex */\n      dup3\n        /* \"FundMe/contracts/FundMe.sol\":5152:5179  funders[currentFunderIndex] */\n      dup2\n      sload\n      dup2\n      lt\n      tag_171\n      jumpi\n      tag_172\n      tag_167\n      jump\t// in\n    tag_172:\n    tag_171:\n      swap1\n      0x00\n      mstore\n      keccak256(0x00, 0x20)\n      add\n      0x00\n        /* \"FundMe/contracts/FundMe.sol\":5152:5199  funders[currentFunderIndex] = lastFunderAddress */\n      0x0100\n      exp\n      dup2\n      sload\n      dup2\n      0xffffffffffffffffffffffffffffffffffffffff\n      mul\n      not\n      and\n      swap1\n      dup4\n      0xffffffffffffffffffffffffffffffffffffffff\n      and\n      mul\n      or\n      swap1\n      sstore\n      pop\n        /* \"FundMe/contracts/FundMe.sol\":5281:5299  currentFunderIndex */\n      dup1\n        /* \"FundMe/contracts/FundMe.sol\":5231:5259  addressToIndexInFundersArray */\n      0x03\n        /* \"FundMe/contracts/FundMe.sol\":5231:5278  addressToIndexInFundersArray[lastFunderAddress] */\n      0x00\n        /* \"FundMe/contracts/FundMe.sol\":5260:5277  lastFunderAddress */\n      dup5\n        /* \"FundMe/contracts/FundMe.sol\":5231:5278  addressToIndexInFundersArray[lastFunderAddress] */\n      0xffffffffffffffffffffffffffffffffffffffff\n      and\n      0xffffffffffffffffffffffffffffffffffffffff\n      and\n      dup2\n      mstore\n      0x20\n      add\n      swap1\n      dup2\n      mstore\n      0x20\n      add\n      0x00\n      keccak256\n        /* \"FundMe/contracts/FundMe.sol\":5231:5299  addressToIndexInFundersArray[lastFunderAddress] = currentFunderIndex */\n      dup2\n      swap1\n      sstore\n      pop\n        /* \"FundMe/contracts/FundMe.sol\":5071:5310  if (addressToIndexInFundersArray[msg.sender] != funders.length - 1){... */\n    tag_170:\n        /* \"FundMe/contracts/FundMe.sol\":5333:5340  funders */\n      0x02\n        /* \"FundMe/contracts/FundMe.sol\":5333:5346  funders.pop() */\n      dup1\n      sload\n      dup1\n      tag_174\n      jumpi\n      tag_175\n      tag_176\n      jump\t// in\n    tag_175:\n    tag_174:\n      0x01\n      swap1\n      sub\n      dup2\n      dup2\n      swap1\n      0x00\n      mstore\n      keccak256(0x00, 0x20)\n      add\n      exp(0x0100, 0x00)\n      dup2\n      sload\n      swap1\n      0xffffffffffffffffffffffffffffffffffffffff\n      mul\n      not\n      and\n      swap1\n      sstore\n      swap1\n      sstore\n        /* \"FundMe/contracts/FundMe.sol\":5377:5405  addressToIndexInFundersArray */\n      0x03\n        /* \"FundMe/contracts/FundMe.sol\":5377:5417  addressToIndexInFundersArray[msg.sender] */\n      0x00\n        /* \"FundMe/contracts/FundMe.sol\":5406:5416  msg.sender */\n      caller\n        /* \"FundMe/contracts/FundMe.sol\":5377:5417  addressToIndexInFundersArray[msg.sender] */\n      0xffffffffffffffffffffffffffffffffffffffff\n      and\n      0xffffffffffffffffffffffffffffffffffffffff\n      and\n      dup2\n      mstore\n      0x20\n      add\n      swap1\n      dup2\n      mstore\n      0x20\n      add\n      0x00\n      keccak256\n        /* \"FundMe/contracts/FundMe.sol\":5370:5417  delete addressToIndexInFundersArray[msg.sender] */\n      0x00\n      swap1\n      sstore\n        /* \"FundMe/contracts/FundMe.sol\":5477:5482  false */\n      0x00\n        /* \"FundMe/contracts/FundMe.sol\":5441:5462  addressIsActiveFunder */\n      0x04\n        /* \"FundMe/contracts/FundMe.sol\":5441:5474  addressIsActiveFunder[msg.sender] */\n      0x00\n        /* \"FundMe/contracts/FundMe.sol\":5463:5473  msg.sender */\n      caller\n        /* \"FundMe/contracts/FundMe.sol\":5441:5474  addressIsActiveFunder[msg.sender] */\n      0xffffffffffffffffffffffffffffffffffffffff\n      and\n      0xffffffffffffffffffffffffffffffffffffffff\n      and\n      dup2\n      mstore\n      0x20\n      add\n      swap1\n      dup2\n      mstore\n      0x20\n      add\n      0x00\n      keccak256\n      0x00\n        /* \"FundMe/contracts/FundMe.sol\":5441:5482  addressIsActiveFunder[msg.sender] = false */\n      0x0100\n      exp\n      dup2\n      sload\n      dup2\n      0xff\n      mul\n      not\n      and\n      swap1\n      dup4\n      iszero\n      iszero\n      mul\n      or\n      swap1\n      sstore\n      pop\n        /* \"FundMe/contracts/FundMe.sol\":4794:5489  {... */\n      pop\n      pop\n        /* \"FundMe/contracts/FundMe.sol\":4749:5489  function cleanAfterUserWithdrawal() internal {... */\n      jump\t// out\n        /* \"FundMe/contracts/FundMe.sol\":4202:4611  function cleanAfterOwnerWithdrawal() internal {... */\n    tag_125:\n        /* \"FundMe/contracts/FundMe.sol\":4263:4272  uint256 i */\n      0x00\n        /* \"FundMe/contracts/FundMe.sol\":4258:4459  for (uint256 i = 0; i < funders.length; i++){... */\n    tag_179:\n        /* \"FundMe/contracts/FundMe.sol\":4282:4289  funders */\n      0x02\n        /* \"FundMe/contracts/FundMe.sol\":4282:4296  funders.length */\n      dup1\n      sload\n      swap1\n      pop\n        /* \"FundMe/contracts/FundMe.sol\":4278:4279  i */\n      dup2\n        /* \"FundMe/contracts/FundMe.sol\":4278:4296  i < funders.length */\n      lt\n        /* \"FundMe/contracts/FundMe.sol\":4258:4459  for (uint256 i = 0; i < funders.length; i++){... */\n      iszero\n      tag_180\n      jumpi\n        /* \"FundMe/contracts/FundMe.sol\":4316:4330  address funder */\n      0x00\n        /* \"FundMe/contracts/FundMe.sol\":4333:4340  funders */\n      0x02\n        /* \"FundMe/contracts/FundMe.sol\":4341:4342  i */\n      dup3\n        /* \"FundMe/contracts/FundMe.sol\":4333:4343  funders[i] */\n      dup2\n      sload\n      dup2\n      lt\n      tag_182\n      jumpi\n      tag_183\n      tag_167\n      jump\t// in\n    tag_183:\n    tag_182:\n      swap1\n      0x00\n      mstore\n      keccak256(0x00, 0x20)\n      add\n      0x00\n      swap1\n      sload\n      swap1\n      0x0100\n      exp\n      swap1\n      div\n      0xffffffffffffffffffffffffffffffffffffffff\n      and\n        /* \"FundMe/contracts/FundMe.sol\":4316:4343  address funder = funders[i] */\n      swap1\n      pop\n        /* \"FundMe/contracts/FundMe.sol\":4396:4397  0 */\n      0x00\n        /* \"FundMe/contracts/FundMe.sol\":4357:4385  addressToIndexInFundersArray */\n      0x03\n        /* \"FundMe/contracts/FundMe.sol\":4357:4393  addressToIndexInFundersArray[funder] */\n      0x00\n        /* \"FundMe/contracts/FundMe.sol\":4386:4392  funder */\n      dup4\n        /* \"FundMe/contracts/FundMe.sol\":4357:4393  addressToIndexInFundersArray[funder] */\n      0xffffffffffffffffffffffffffffffffffffffff\n      and\n      0xffffffffffffffffffffffffffffffffffffffff\n      and\n      dup2\n      mstore\n      0x20\n      add\n      swap1\n      dup2\n      mstore\n      0x20\n      add\n      0x00\n      keccak256\n        /* \"FundMe/contracts/FundMe.sol\":4357:4397  addressToIndexInFundersArray[funder] = 0 */\n      dup2\n      swap1\n      sstore\n      pop\n        /* \"FundMe/contracts/FundMe.sol\":4443:4448  false */\n      0x00\n        /* \"FundMe/contracts/FundMe.sol\":4411:4432  addressIsActiveFunder */\n      0x04\n        /* \"FundMe/contracts/FundMe.sol\":4411:4440  addressIsActiveFunder[funder] */\n      0x00\n        /* \"FundMe/contracts/FundMe.sol\":4433:4439  funder */\n      dup4\n        /* \"FundMe/contracts/FundMe.sol\":4411:4440  addressIsActiveFunder[funder] */\n      0xffffffffffffffffffffffffffffffffffffffff\n      and\n      0xffffffffffffffffffffffffffffffffffffffff\n      and\n      dup2\n      mstore\n      0x20\n      add\n      swap1\n      dup2\n      mstore\n      0x20\n      add\n      0x00\n      keccak256\n      0x00\n        /* \"FundMe/contracts/FundMe.sol\":4411:4448  addressIsActiveFunder[funder] = false */\n      0x0100\n      exp\n      dup2\n      sload\n      dup2\n      0xff\n      mul\n      not\n      and\n      swap1\n      dup4\n      iszero\n      iszero\n      mul\n      or\n      swap1\n      sstore\n      pop\n        /* \"FundMe/contracts/FundMe.sol\":4302:4459  {... */\n      pop\n        /* \"FundMe/contracts/FundMe.sol\":4298:4301  i++ */\n      dup1\n      dup1\n      0x01\n      add\n      swap2\n      pop\n      pop\n        /* \"FundMe/contracts/FundMe.sol\":4258:4459  for (uint256 i = 0; i < funders.length; i++){... */\n      jump(tag_179)\n    tag_180:\n      pop\n        /* \"FundMe/contracts/FundMe.sol\":4597:4604  funders */\n      0x02\n      0x00\n        /* \"FundMe/contracts/FundMe.sol\":4590:4604  delete funders */\n      tag_185\n      swap2\n      swap1\n      tag_186\n      jump\t// in\n    tag_185:\n        /* \"FundMe/contracts/FundMe.sol\":4202:4611  function cleanAfterOwnerWithdrawal() internal {... */\n      jump\t// out\n        /* \"FundMe/contracts/SafeCast.sol\":17171:17364  function toUint256(int256 value) internal pure returns (uint256) {... */\n    tag_152:\n        /* \"FundMe/contracts/SafeCast.sol\":17227:17234  uint256 */\n      0x00\n        /* \"FundMe/contracts/SafeCast.sol\":17258:17259  0 */\n      dup1\n        /* \"FundMe/contracts/SafeCast.sol\":17250:17255  value */\n      dup3\n        /* \"FundMe/contracts/SafeCast.sol\":17250:17259  value < 0 */\n      slt\n        /* \"FundMe/contracts/SafeCast.sol\":17246:17327  if (value < 0) {... */\n      iszero\n      tag_188\n      jumpi\n        /* \"FundMe/contracts/SafeCast.sol\":17310:17315  value */\n      dup2\n        /* \"FundMe/contracts/SafeCast.sol\":17282:17316  SafeCastOverflowedIntToUint(value) */\n      mload(0x40)\n      0xa8ce443200000000000000000000000000000000000000000000000000000000\n      dup2\n      mstore\n      0x04\n      add\n      tag_189\n      swap2\n      swap1\n      tag_190\n      jump\t// in\n    tag_189:\n      mload(0x40)\n      dup1\n      swap2\n      sub\n      swap1\n      revert\n        /* \"FundMe/contracts/SafeCast.sol\":17246:17327  if (value < 0) {... */\n    tag_188:\n        /* \"FundMe/contracts/SafeCast.sol\":17351:17356  value */\n      dup2\n        /* \"FundMe/contracts/SafeCast.sol\":17336:17357  return uint256(value) */\n      swap1\n      pop\n        /* \"FundMe/contracts/SafeCast.sol\":17171:17364  function toUint256(int256 value) internal pure returns (uint256) {... */\n      swap2\n      swap1\n      pop\n      jump\t// out\n    tag_186:\n      pop\n      dup1\n      sload\n      0x00\n      dup3\n      sstore\n      swap1\n      0x00\n      mstore\n      keccak256(0x00, 0x20)\n      swap1\n      dup2\n      add\n      swap1\n      tag_192\n      swap2\n      swap1\n      tag_193\n      jump\t// in\n    tag_192:\n      pop\n      jump\t// out\n    tag_193:\n    tag_194:\n      dup1\n      dup3\n      gt\n      iszero\n      tag_195\n      jumpi\n      0x00\n      dup2\n      0x00\n      swap1\n      sstore\n      pop\n      0x01\n      add\n      jump(tag_194)\n    tag_195:\n      pop\n      swap1\n      jump\t// out\n        /* \"#utility.yul\":88:205   */\n    tag_197:\n        /* \"#utility.yul\":197:198   */\n      0x00\n        /* \"#utility.yul\":194:195   */\n      dup1\n        /* \"#utility.yul\":187:199   */\n      revert\n        /* \"#utility.yul\":334:460   */\n    tag_199:\n        /* \"#utility.yul\":371:378   */\n      0x00\n        /* \"#utility.yul\":411:453   */\n      0xffffffffffffffffffffffffffffffffffffffff\n        /* \"#utility.yul\":404:409   */\n      dup3\n        /* \"#utility.yul\":400:454   */\n      and\n        /* \"#utility.yul\":389:454   */\n      swap1\n      pop\n        /* \"#utility.yul\":334:460   */\n      swap2\n      swap1\n      pop\n      jump\t// out\n        /* \"#utility.yul\":466:562   */\n    tag_200:\n        /* \"#utility.yul\":503:510   */\n      0x00\n        /* \"#utility.yul\":532:556   */\n      tag_246\n        /* \"#utility.yul\":550:555   */\n      dup3\n        /* \"#utility.yul\":532:556   */\n      tag_199\n      jump\t// in\n    tag_246:\n        /* \"#utility.yul\":521:556   */\n      swap1\n      pop\n        /* \"#utility.yul\":466:562   */\n      swap2\n      swap1\n      pop\n      jump\t// out\n        /* \"#utility.yul\":568:690   */\n    tag_201:\n        /* \"#utility.yul\":641:665   */\n      tag_248\n        /* \"#utility.yul\":659:664   */\n      dup2\n        /* \"#utility.yul\":641:665   */\n      tag_200\n      jump\t// in\n    tag_248:\n        /* \"#utility.yul\":634:639   */\n      dup2\n        /* \"#utility.yul\":631:666   */\n      eq\n        /* \"#utility.yul\":621:684   */\n      tag_249\n      jumpi\n        /* \"#utility.yul\":680:681   */\n      0x00\n        /* \"#utility.yul\":677:678   */\n      dup1\n        /* \"#utility.yul\":670:682   */\n      revert\n        /* \"#utility.yul\":621:684   */\n    tag_249:\n        /* \"#utility.yul\":568:690   */\n      pop\n      jump\t// out\n        /* \"#utility.yul\":696:835   */\n    tag_202:\n        /* \"#utility.yul\":742:747   */\n      0x00\n        /* \"#utility.yul\":780:786   */\n      dup2\n        /* \"#utility.yul\":767:787   */\n      calldataload\n        /* \"#utility.yul\":758:787   */\n      swap1\n      pop\n        /* \"#utility.yul\":796:829   */\n      tag_251\n        /* \"#utility.yul\":823:828   */\n      dup2\n        /* \"#utility.yul\":796:829   */\n      tag_201\n      jump\t// in\n    tag_251:\n        /* \"#utility.yul\":696:835   */\n      swap3\n      swap2\n      pop\n      pop\n      jump\t// out\n        /* \"#utility.yul\":841:1170   */\n    tag_25:\n        /* \"#utility.yul\":900:906   */\n      0x00\n        /* \"#utility.yul\":949:951   */\n      0x20\n        /* \"#utility.yul\":937:946   */\n      dup3\n        /* \"#utility.yul\":928:935   */\n      dup5\n        /* \"#utility.yul\":924:947   */\n      sub\n        /* \"#utility.yul\":920:952   */\n      slt\n        /* \"#utility.yul\":917:1036   */\n      iszero\n      tag_253\n      jumpi\n        /* \"#utility.yul\":955:1034   */\n      tag_254\n      tag_197\n      jump\t// in\n    tag_254:\n        /* \"#utility.yul\":917:1036   */\n    tag_253:\n        /* \"#utility.yul\":1075:1076   */\n      0x00\n        /* \"#utility.yul\":1100:1153   */\n      tag_255\n        /* \"#utility.yul\":1145:1152   */\n      dup5\n        /* \"#utility.yul\":1136:1142   */\n      dup3\n        /* \"#utility.yul\":1125:1134   */\n      dup6\n        /* \"#utility.yul\":1121:1143   */\n      add\n        /* \"#utility.yul\":1100:1153   */\n      tag_202\n      jump\t// in\n    tag_255:\n        /* \"#utility.yul\":1090:1153   */\n      swap2\n      pop\n        /* \"#utility.yul\":1046:1163   */\n      pop\n        /* \"#utility.yul\":841:1170   */\n      swap3\n      swap2\n      pop\n      pop\n      jump\t// out\n        /* \"#utility.yul\":1176:1253   */\n    tag_203:\n        /* \"#utility.yul\":1213:1220   */\n      0x00\n        /* \"#utility.yul\":1242:1247   */\n      dup2\n        /* \"#utility.yul\":1231:1247   */\n      swap1\n      pop\n        /* \"#utility.yul\":1176:1253   */\n      swap2\n      swap1\n      pop\n      jump\t// out\n        /* \"#utility.yul\":1259:1377   */\n    tag_204:\n        /* \"#utility.yul\":1346:1370   */\n      tag_258\n        /* \"#utility.yul\":1364:1369   */\n      dup2\n        /* \"#utility.yul\":1346:1370   */\n      tag_203\n      jump\t// in\n    tag_258:\n        /* \"#utility.yul\":1341:1344   */\n      dup3\n        /* \"#utility.yul\":1334:1371   */\n      mstore\n        /* \"#utility.yul\":1259:1377   */\n      pop\n      pop\n      jump\t// out\n        /* \"#utility.yul\":1383:1605   */\n    tag_28:\n        /* \"#utility.yul\":1476:1480   */\n      0x00\n        /* \"#utility.yul\":1514:1516   */\n      0x20\n        /* \"#utility.yul\":1503:1512   */\n      dup3\n        /* \"#utility.yul\":1499:1517   */\n      add\n        /* \"#utility.yul\":1491:1517   */\n      swap1\n      pop\n        /* \"#utility.yul\":1527:1598   */\n      tag_260\n        /* \"#utility.yul\":1595:1596   */\n      0x00\n        /* \"#utility.yul\":1584:1593   */\n      dup4\n        /* \"#utility.yul\":1580:1597   */\n      add\n        /* \"#utility.yul\":1571:1577   */\n      dup5\n        /* \"#utility.yul\":1527:1598   */\n      tag_204\n      jump\t// in\n    tag_260:\n        /* \"#utility.yul\":1383:1605   */\n      swap3\n      swap2\n      pop\n      pop\n      jump\t// out\n        /* \"#utility.yul\":1611:1733   */\n    tag_205:\n        /* \"#utility.yul\":1684:1708   */\n      tag_262\n        /* \"#utility.yul\":1702:1707   */\n      dup2\n        /* \"#utility.yul\":1684:1708   */\n      tag_203\n      jump\t// in\n    tag_262:\n        /* \"#utility.yul\":1677:1682   */\n      dup2\n        /* \"#utility.yul\":1674:1709   */\n      eq\n        /* \"#utility.yul\":1664:1727   */\n      tag_263\n      jumpi\n        /* \"#utility.yul\":1723:1724   */\n      0x00\n        /* \"#utility.yul\":1720:1721   */\n      dup1\n        /* \"#utility.yul\":1713:1725   */\n      revert\n        /* \"#utility.yul\":1664:1727   */\n    tag_263:\n        /* \"#utility.yul\":1611:1733   */\n      pop\n      jump\t// out\n        /* \"#utility.yul\":1739:1878   */\n    tag_206:\n        /* \"#utility.yul\":1785:1790   */\n      0x00\n        /* \"#utility.yul\":1823:1829   */\n      dup2\n        /* \"#utility.yul\":1810:1830   */\n      calldataload\n        /* \"#utility.yul\":1801:1830   */\n      swap1\n      pop\n        /* \"#utility.yul\":1839:1872   */\n      tag_265\n        /* \"#utility.yul\":1866:1871   */\n      dup2\n        /* \"#utility.yul\":1839:1872   */\n      tag_205\n      jump\t// in\n    tag_265:\n        /* \"#utility.yul\":1739:1878   */\n      swap3\n      swap2\n      pop\n      pop\n      jump\t// out\n        /* \"#utility.yul\":1884:2358   */\n    tag_36:\n        /* \"#utility.yul\":1952:1958   */\n      0x00\n        /* \"#utility.yul\":1960:1966   */\n      dup1\n        /* \"#utility.yul\":2009:2011   */\n      0x40\n        /* \"#utility.yul\":1997:2006   */\n      dup4\n        /* \"#utility.yul\":1988:1995   */\n      dup6\n        /* \"#utility.yul\":1984:2007   */\n      sub\n        /* \"#utility.yul\":1980:2012   */\n      slt\n        /* \"#utility.yul\":1977:2096   */\n      iszero\n      tag_267\n      jumpi\n        /* \"#utility.yul\":2015:2094   */\n      tag_268\n      tag_197\n      jump\t// in\n    tag_268:\n        /* \"#utility.yul\":1977:2096   */\n    tag_267:\n        /* \"#utility.yul\":2135:2136   */\n      0x00\n        /* \"#utility.yul\":2160:2213   */\n      tag_269\n        /* \"#utility.yul\":2205:2212   */\n      dup6\n        /* \"#utility.yul\":2196:2202   */\n      dup3\n        /* \"#utility.yul\":2185:2194   */\n      dup7\n        /* \"#utility.yul\":2181:2203   */\n      add\n        /* \"#utility.yul\":2160:2213   */\n      tag_206\n      jump\t// in\n    tag_269:\n        /* \"#utility.yul\":2150:2213   */\n      swap3\n      pop\n        /* \"#utility.yul\":2106:2223   */\n      pop\n        /* \"#utility.yul\":2262:2264   */\n      0x20\n        /* \"#utility.yul\":2288:2341   */\n      tag_270\n        /* \"#utility.yul\":2333:2340   */\n      dup6\n        /* \"#utility.yul\":2324:2330   */\n      dup3\n        /* \"#utility.yul\":2313:2322   */\n      dup7\n        /* \"#utility.yul\":2309:2331   */\n      add\n        /* \"#utility.yul\":2288:2341   */\n      tag_206\n      jump\t// in\n    tag_270:\n        /* \"#utility.yul\":2278:2341   */\n      swap2\n      pop\n        /* \"#utility.yul\":2233:2351   */\n      pop\n        /* \"#utility.yul\":1884:2358   */\n      swap3\n      pop\n      swap3\n      swap1\n      pop\n      jump\t// out\n        /* \"#utility.yul\":2364:2693   */\n    tag_48:\n        /* \"#utility.yul\":2423:2429   */\n      0x00\n        /* \"#utility.yul\":2472:2474   */\n      0x20\n        /* \"#utility.yul\":2460:2469   */\n      dup3\n        /* \"#utility.yul\":2451:2458   */\n      dup5\n        /* \"#utility.yul\":2447:2470   */\n      sub\n        /* \"#utility.yul\":2443:2475   */\n      slt\n        /* \"#utility.yul\":2440:2559   */\n      iszero\n      tag_272\n      jumpi\n        /* \"#utility.yul\":2478:2557   */\n      tag_273\n      tag_197\n      jump\t// in\n    tag_273:\n        /* \"#utility.yul\":2440:2559   */\n    tag_272:\n        /* \"#utility.yul\":2598:2599   */\n      0x00\n        /* \"#utility.yul\":2623:2676   */\n      tag_274\n        /* \"#utility.yul\":2668:2675   */\n      dup5\n        /* \"#utility.yul\":2659:2665   */\n      dup3\n        /* \"#utility.yul\":2648:2657   */\n      dup6\n        /* \"#utility.yul\":2644:2666   */\n      add\n        /* \"#utility.yul\":2623:2676   */\n      tag_206\n      jump\t// in\n    tag_274:\n        /* \"#utility.yul\":2613:2676   */\n      swap2\n      pop\n        /* \"#utility.yul\":2569:2686   */\n      pop\n        /* \"#utility.yul\":2364:2693   */\n      swap3\n      swap2\n      pop\n      pop\n      jump\t// out\n        /* \"#utility.yul\":2699:2817   */\n    tag_207:\n        /* \"#utility.yul\":2786:2810   */\n      tag_276\n        /* \"#utility.yul\":2804:2809   */\n      dup2\n        /* \"#utility.yul\":2786:2810   */\n      tag_200\n      jump\t// in\n    tag_276:\n        /* \"#utility.yul\":2781:2784   */\n      dup3\n        /* \"#utility.yul\":2774:2811   */\n      mstore\n        /* \"#utility.yul\":2699:2817   */\n      pop\n      pop\n      jump\t// out\n        /* \"#utility.yul\":2823:3045   */\n    tag_68:\n        /* \"#utility.yul\":2916:2920   */\n      0x00\n        /* \"#utility.yul\":2954:2956   */\n      0x20\n        /* \"#utility.yul\":2943:2952   */\n      dup3\n        /* \"#utility.yul\":2939:2957   */\n      add\n        /* \"#utility.yul\":2931:2957   */\n      swap1\n      pop\n        /* \"#utility.yul\":2967:3038   */\n      tag_278\n        /* \"#utility.yul\":3035:3036   */\n      0x00\n        /* \"#utility.yul\":3024:3033   */\n      dup4\n        /* \"#utility.yul\":3020:3037   */\n      add\n        /* \"#utility.yul\":3011:3017   */\n      dup5\n        /* \"#utility.yul\":2967:3038   */\n      tag_207\n      jump\t// in\n    tag_278:\n        /* \"#utility.yul\":2823:3045   */\n      swap3\n      swap2\n      pop\n      pop\n      jump\t// out\n        /* \"#utility.yul\":3051:3141   */\n    tag_208:\n        /* \"#utility.yul\":3085:3092   */\n      0x00\n        /* \"#utility.yul\":3128:3133   */\n      dup2\n        /* \"#utility.yul\":3121:3134   */\n      iszero\n        /* \"#utility.yul\":3114:3135   */\n      iszero\n        /* \"#utility.yul\":3103:3135   */\n      swap1\n      pop\n        /* \"#utility.yul\":3051:3141   */\n      swap2\n      swap1\n      pop\n      jump\t// out\n        /* \"#utility.yul\":3147:3256   */\n    tag_209:\n        /* \"#utility.yul\":3228:3249   */\n      tag_281\n        /* \"#utility.yul\":3243:3248   */\n      dup2\n        /* \"#utility.yul\":3228:3249   */\n      tag_208\n      jump\t// in\n    tag_281:\n        /* \"#utility.yul\":3223:3226   */\n      dup3\n        /* \"#utility.yul\":3216:3250   */\n      mstore\n        /* \"#utility.yul\":3147:3256   */\n      pop\n      pop\n      jump\t// out\n        /* \"#utility.yul\":3262:3472   */\n    tag_79:\n        /* \"#utility.yul\":3349:3353   */\n      0x00\n        /* \"#utility.yul\":3387:3389   */\n      0x20\n        /* \"#utility.yul\":3376:3385   */\n      dup3\n        /* \"#utility.yul\":3372:3390   */\n      add\n        /* \"#utility.yul\":3364:3390   */\n      swap1\n      pop\n        /* \"#utility.yul\":3400:3465   */\n      tag_283\n        /* \"#utility.yul\":3462:3463   */\n      0x00\n        /* \"#utility.yul\":3451:3460   */\n      dup4\n        /* \"#utility.yul\":3447:3464   */\n      add\n        /* \"#utility.yul\":3438:3444   */\n      dup5\n        /* \"#utility.yul\":3400:3465   */\n      tag_209\n      jump\t// in\n    tag_283:\n        /* \"#utility.yul\":3262:3472   */\n      swap3\n      swap2\n      pop\n      pop\n      jump\t// out\n        /* \"#utility.yul\":3478:3647   */\n    tag_210:\n        /* \"#utility.yul\":3562:3573   */\n      0x00\n        /* \"#utility.yul\":3596:3602   */\n      dup3\n        /* \"#utility.yul\":3591:3594   */\n      dup3\n        /* \"#utility.yul\":3584:3603   */\n      mstore\n        /* \"#utility.yul\":3636:3640   */\n      0x20\n        /* \"#utility.yul\":3631:3634   */\n      dup3\n        /* \"#utility.yul\":3627:3641   */\n      add\n        /* \"#utility.yul\":3612:3641   */\n      swap1\n      pop\n        /* \"#utility.yul\":3478:3647   */\n      swap3\n      swap2\n      pop\n      pop\n      jump\t// out\n        /* \"#utility.yul\":3653:3825   */\n    tag_211:\n        /* \"#utility.yul\":3793:3817   */\n      0x6469646e27742073656e6420656e6f7567682055534400000000000000000000\n        /* \"#utility.yul\":3789:3790   */\n      0x00\n        /* \"#utility.yul\":3781:3787   */\n      dup3\n        /* \"#utility.yul\":3777:3791   */\n      add\n        /* \"#utility.yul\":3770:3818   */\n      mstore\n        /* \"#utility.yul\":3653:3825   */\n      pop\n      jump\t// out\n        /* \"#utility.yul\":3831:4197   */\n    tag_212:\n        /* \"#utility.yul\":3973:3976   */\n      0x00\n        /* \"#utility.yul\":3994:4061   */\n      tag_287\n        /* \"#utility.yul\":4058:4060   */\n      0x16\n        /* \"#utility.yul\":4053:4056   */\n      dup4\n        /* \"#utility.yul\":3994:4061   */\n      tag_210\n      jump\t// in\n    tag_287:\n        /* \"#utility.yul\":3987:4061   */\n      swap2\n      pop\n        /* \"#utility.yul\":4070:4163   */\n      tag_288\n        /* \"#utility.yul\":4159:4162   */\n      dup3\n        /* \"#utility.yul\":4070:4163   */\n      tag_211\n      jump\t// in\n    tag_288:\n        /* \"#utility.yul\":4188:4190   */\n      0x20\n        /* \"#utility.yul\":4183:4186   */\n      dup3\n        /* \"#utility.yul\":4179:4191   */\n      add\n        /* \"#utility.yul\":4172:4191   */\n      swap1\n      pop\n        /* \"#utility.yul\":3831:4197   */\n      swap2\n      swap1\n      pop\n      jump\t// out\n        /* \"#utility.yul\":4203:4622   */\n    tag_85:\n        /* \"#utility.yul\":4369:4373   */\n      0x00\n        /* \"#utility.yul\":4407:4409   */\n      0x20\n        /* \"#utility.yul\":4396:4405   */\n      dup3\n        /* \"#utility.yul\":4392:4410   */\n      add\n        /* \"#utility.yul\":4384:4410   */\n      swap1\n      pop\n        /* \"#utility.yul\":4456:4465   */\n      dup2\n        /* \"#utility.yul\":4450:4454   */\n      dup2\n        /* \"#utility.yul\":4446:4466   */\n      sub\n        /* \"#utility.yul\":4442:4443   */\n      0x00\n        /* \"#utility.yul\":4431:4440   */\n      dup4\n        /* \"#utility.yul\":4427:4444   */\n      add\n        /* \"#utility.yul\":4420:4467   */\n      mstore\n        /* \"#utility.yul\":4484:4615   */\n      tag_290\n        /* \"#utility.yul\":4610:4614   */\n      dup2\n        /* \"#utility.yul\":4484:4615   */\n      tag_212\n      jump\t// in\n    tag_290:\n        /* \"#utility.yul\":4476:4615   */\n      swap1\n      pop\n        /* \"#utility.yul\":4203:4622   */\n      swap2\n      swap1\n      pop\n      jump\t// out\n        /* \"#utility.yul\":4628:4808   */\n    tag_213:\n        /* \"#utility.yul\":4676:4753   */\n      0x4e487b7100000000000000000000000000000000000000000000000000000000\n        /* \"#utility.yul\":4673:4674   */\n      0x00\n        /* \"#utility.yul\":4666:4754   */\n      mstore\n        /* \"#utility.yul\":4773:4777   */\n      0x11\n        /* \"#utility.yul\":4770:4771   */\n      0x04\n        /* \"#utility.yul\":4763:4778   */\n      mstore\n        /* \"#utility.yul\":4797:4801   */\n      0x24\n        /* \"#utility.yul\":4794:4795   */\n      0x00\n        /* \"#utility.yul\":4787:4802   */\n      revert\n        /* \"#utility.yul\":4814:5005   */\n    tag_89:\n        /* \"#utility.yul\":4854:4857   */\n      0x00\n        /* \"#utility.yul\":4873:4893   */\n      tag_293\n        /* \"#utility.yul\":4891:4892   */\n      dup3\n        /* \"#utility.yul\":4873:4893   */\n      tag_203\n      jump\t// in\n    tag_293:\n        /* \"#utility.yul\":4868:4893   */\n      swap2\n      pop\n        /* \"#utility.yul\":4907:4927   */\n      tag_294\n        /* \"#utility.yul\":4925:4926   */\n      dup4\n        /* \"#utility.yul\":4907:4927   */\n      tag_203\n      jump\t// in\n    tag_294:\n        /* \"#utility.yul\":4902:4927   */\n      swap3\n      pop\n        /* \"#utility.yul\":4950:4951   */\n      dup3\n        /* \"#utility.yul\":4947:4948   */\n      dup3\n        /* \"#utility.yul\":4943:4952   */\n      add\n        /* \"#utility.yul\":4936:4952   */\n      swap1\n      pop\n        /* \"#utility.yul\":4971:4974   */\n      dup1\n        /* \"#utility.yul\":4968:4969   */\n      dup3\n        /* \"#utility.yul\":4965:4975   */\n      gt\n        /* \"#utility.yul\":4962:4998   */\n      iszero\n      tag_295\n      jumpi\n        /* \"#utility.yul\":4978:4996   */\n      tag_296\n      tag_213\n      jump\t// in\n    tag_296:\n        /* \"#utility.yul\":4962:4998   */\n    tag_295:\n        /* \"#utility.yul\":4814:5005   */\n      swap3\n      swap2\n      pop\n      pop\n      jump\t// out\n        /* \"#utility.yul\":5011:5421   */\n    tag_92:\n        /* \"#utility.yul\":5051:5058   */\n      0x00\n        /* \"#utility.yul\":5074:5094   */\n      tag_298\n        /* \"#utility.yul\":5092:5093   */\n      dup3\n        /* \"#utility.yul\":5074:5094   */\n      tag_203\n      jump\t// in\n    tag_298:\n        /* \"#utility.yul\":5069:5094   */\n      swap2\n      pop\n        /* \"#utility.yul\":5108:5128   */\n      tag_299\n        /* \"#utility.yul\":5126:5127   */\n      dup4\n        /* \"#utility.yul\":5108:5128   */\n      tag_203\n      jump\t// in\n    tag_299:\n        /* \"#utility.yul\":5103:5128   */\n      swap3\n      pop\n        /* \"#utility.yul\":5163:5164   */\n      dup3\n        /* \"#utility.yul\":5160:5161   */\n      dup3\n        /* \"#utility.yul\":5156:5165   */\n      mul\n        /* \"#utility.yul\":5185:5215   */\n      tag_300\n        /* \"#utility.yul\":5203:5214   */\n      dup2\n        /* \"#utility.yul\":5185:5215   */\n      tag_203\n      jump\t// in\n    tag_300:\n        /* \"#utility.yul\":5174:5215   */\n      swap2\n      pop\n        /* \"#utility.yul\":5364:5365   */\n      dup3\n        /* \"#utility.yul\":5355:5362   */\n      dup3\n        /* \"#utility.yul\":5351:5366   */\n      div\n        /* \"#utility.yul\":5348:5349   */\n      dup5\n        /* \"#utility.yul\":5345:5367   */\n      eq\n        /* \"#utility.yul\":5325:5326   */\n      dup4\n        /* \"#utility.yul\":5318:5327   */\n      iszero\n        /* \"#utility.yul\":5298:5381   */\n      or\n        /* \"#utility.yul\":5275:5414   */\n      tag_301\n      jumpi\n        /* \"#utility.yul\":5394:5412   */\n      tag_302\n      tag_213\n      jump\t// in\n    tag_302:\n        /* \"#utility.yul\":5275:5414   */\n    tag_301:\n        /* \"#utility.yul\":5059:5421   */\n      pop\n        /* \"#utility.yul\":5011:5421   */\n      swap3\n      swap2\n      pop\n      pop\n      jump\t// out\n        /* \"#utility.yul\":5427:5607   */\n    tag_214:\n        /* \"#utility.yul\":5475:5552   */\n      0x4e487b7100000000000000000000000000000000000000000000000000000000\n        /* \"#utility.yul\":5472:5473   */\n      0x00\n        /* \"#utility.yul\":5465:5553   */\n      mstore\n        /* \"#utility.yul\":5572:5576   */\n      0x12\n        /* \"#utility.yul\":5569:5570   */\n      0x04\n        /* \"#utility.yul\":5562:5577   */\n      mstore\n        /* \"#utility.yul\":5596:5600   */\n      0x24\n        /* \"#utility.yul\":5593:5594   */\n      0x00\n        /* \"#utility.yul\":5586:5601   */\n      revert\n        /* \"#utility.yul\":5613:5798   */\n    tag_94:\n        /* \"#utility.yul\":5653:5654   */\n      0x00\n        /* \"#utility.yul\":5670:5690   */\n      tag_305\n        /* \"#utility.yul\":5688:5689   */\n      dup3\n        /* \"#utility.yul\":5670:5690   */\n      tag_203\n      jump\t// in\n    tag_305:\n        /* \"#utility.yul\":5665:5690   */\n      swap2\n      pop\n        /* \"#utility.yul\":5704:5724   */\n      tag_306\n        /* \"#utility.yul\":5722:5723   */\n      dup4\n        /* \"#utility.yul\":5704:5724   */\n      tag_203\n      jump\t// in\n    tag_306:\n        /* \"#utility.yul\":5699:5724   */\n      swap3\n      pop\n        /* \"#utility.yul\":5743:5744   */\n      dup3\n        /* \"#utility.yul\":5733:5768   */\n      tag_307\n      jumpi\n        /* \"#utility.yul\":5748:5766   */\n      tag_308\n      tag_214\n      jump\t// in\n    tag_308:\n        /* \"#utility.yul\":5733:5768   */\n    tag_307:\n        /* \"#utility.yul\":5790:5791   */\n      dup3\n        /* \"#utility.yul\":5787:5788   */\n      dup3\n        /* \"#utility.yul\":5783:5792   */\n      div\n        /* \"#utility.yul\":5778:5792   */\n      swap1\n      pop\n        /* \"#utility.yul\":5613:5798   */\n      swap3\n      swap2\n      pop\n      pop\n      jump\t// out\n        /* \"#utility.yul\":5804:6032   */\n    tag_215:\n        /* \"#utility.yul\":5944:5978   */\n      0x4e6f2072652d656e7472616e637920616c6c6f7765642c20706c656173652074\n        /* \"#utility.yul\":5940:5941   */\n      0x00\n        /* \"#utility.yul\":5932:5938   */\n      dup3\n        /* \"#utility.yul\":5928:5942   */\n      add\n        /* \"#utility.yul\":5921:5979   */\n      mstore\n        /* \"#utility.yul\":6013:6024   */\n      0x727920616761696e2e0000000000000000000000000000000000000000000000\n        /* \"#utility.yul\":6008:6010   */\n      0x20\n        /* \"#utility.yul\":6000:6006   */\n      dup3\n        /* \"#utility.yul\":5996:6011   */\n      add\n        /* \"#utility.yul\":5989:6025   */\n      mstore\n        /* \"#utility.yul\":5804:6032   */\n      pop\n      jump\t// out\n        /* \"#utility.yul\":6038:6404   */\n    tag_216:\n        /* \"#utility.yul\":6180:6183   */\n      0x00\n        /* \"#utility.yul\":6201:6268   */\n      tag_311\n        /* \"#utility.yul\":6265:6267   */\n      0x29\n        /* \"#utility.yul\":6260:6263   */\n      dup4\n        /* \"#utility.yul\":6201:6268   */\n      tag_210\n      jump\t// in\n    tag_311:\n        /* \"#utility.yul\":6194:6268   */\n      swap2\n      pop\n        /* \"#utility.yul\":6277:6370   */\n      tag_312\n        /* \"#utility.yul\":6366:6369   */\n      dup3\n        /* \"#utility.yul\":6277:6370   */\n      tag_215\n      jump\t// in\n    tag_312:\n        /* \"#utility.yul\":6395:6397   */\n      0x40\n        /* \"#utility.yul\":6390:6393   */\n      dup3\n        /* \"#utility.yul\":6386:6398   */\n      add\n        /* \"#utility.yul\":6379:6398   */\n      swap1\n      pop\n        /* \"#utility.yul\":6038:6404   */\n      swap2\n      swap1\n      pop\n      jump\t// out\n        /* \"#utility.yul\":6410:6829   */\n    tag_98:\n        /* \"#utility.yul\":6576:6580   */\n      0x00\n        /* \"#utility.yul\":6614:6616   */\n      0x20\n        /* \"#utility.yul\":6603:6612   */\n      dup3\n        /* \"#utility.yul\":6599:6617   */\n      add\n        /* \"#utility.yul\":6591:6617   */\n      swap1\n      pop\n        /* \"#utility.yul\":6663:6672   */\n      dup2\n        /* \"#utility.yul\":6657:6661   */\n      dup2\n        /* \"#utility.yul\":6653:6673   */\n      sub\n        /* \"#utility.yul\":6649:6650   */\n      0x00\n        /* \"#utility.yul\":6638:6647   */\n      dup4\n        /* \"#utility.yul\":6634:6651   */\n      add\n        /* \"#utility.yul\":6627:6674   */\n      mstore\n        /* \"#utility.yul\":6691:6822   */\n      tag_314\n        /* \"#utility.yul\":6817:6821   */\n      dup2\n        /* \"#utility.yul\":6691:6822   */\n      tag_216\n      jump\t// in\n    tag_314:\n        /* \"#utility.yul\":6683:6822   */\n      swap1\n      pop\n        /* \"#utility.yul\":6410:6829   */\n      swap2\n      swap1\n      pop\n      jump\t// out\n        /* \"#utility.yul\":6835:7005   */\n    tag_217:\n        /* \"#utility.yul\":6975:6997   */\n      0x496e73756666696369656e742062616c616e6365000000000000000000000000\n        /* \"#utility.yul\":6971:6972   */\n      0x00\n        /* \"#utility.yul\":6963:6969   */\n      dup3\n        /* \"#utility.yul\":6959:6973   */\n      add\n        /* \"#utility.yul\":6952:6998   */\n      mstore\n        /* \"#utility.yul\":6835:7005   */\n      pop\n      jump\t// out\n        /* \"#utility.yul\":7011:7377   */\n    tag_218:\n        /* \"#utility.yul\":7153:7156   */\n      0x00\n        /* \"#utility.yul\":7174:7241   */\n      tag_317\n        /* \"#utility.yul\":7238:7240   */\n      0x14\n        /* \"#utility.yul\":7233:7236   */\n      dup4\n        /* \"#utility.yul\":7174:7241   */\n      tag_210\n      jump\t// in\n    tag_317:\n        /* \"#utility.yul\":7167:7241   */\n      swap2\n      pop\n        /* \"#utility.yul\":7250:7343   */\n      tag_318\n        /* \"#utility.yul\":7339:7342   */\n      dup3\n        /* \"#utility.yul\":7250:7343   */\n      tag_217\n      jump\t// in\n    tag_318:\n        /* \"#utility.yul\":7368:7370   */\n      0x20\n        /* \"#utility.yul\":7363:7366   */\n      dup3\n        /* \"#utility.yul\":7359:7371   */\n      add\n        /* \"#utility.yul\":7352:7371   */\n      swap1\n      pop\n        /* \"#utility.yul\":7011:7377   */\n      swap2\n      swap1\n      pop\n      jump\t// out\n        /* \"#utility.yul\":7383:7802   */\n    tag_102:\n        /* \"#utility.yul\":7549:7553   */\n      0x00\n        /* \"#utility.yul\":7587:7589   */\n      0x20\n        /* \"#utility.yul\":7576:7585   */\n      dup3\n        /* \"#utility.yul\":7572:7590   */\n      add\n        /* \"#utility.yul\":7564:7590   */\n      swap1\n      pop\n        /* \"#utility.yul\":7636:7645   */\n      dup2\n        /* \"#utility.yul\":7630:7634   */\n      dup2\n        /* \"#utility.yul\":7626:7646   */\n      sub\n        /* \"#utility.yul\":7622:7623   */\n      0x00\n        /* \"#utility.yul\":7611:7620   */\n      dup4\n        /* \"#utility.yul\":7607:7624   */\n      add\n        /* \"#utility.yul\":7600:7647   */\n      mstore\n        /* \"#utility.yul\":7664:7795   */\n      tag_320\n        /* \"#utility.yul\":7790:7794   */\n      dup2\n        /* \"#utility.yul\":7664:7795   */\n      tag_218\n      jump\t// in\n    tag_320:\n        /* \"#utility.yul\":7656:7795   */\n      swap1\n      pop\n        /* \"#utility.yul\":7383:7802   */\n      swap2\n      swap1\n      pop\n      jump\t// out\n        /* \"#utility.yul\":7808:7955   */\n    tag_219:\n        /* \"#utility.yul\":7909:7920   */\n      0x00\n        /* \"#utility.yul\":7946:7949   */\n      dup2\n        /* \"#utility.yul\":7931:7949   */\n      swap1\n      pop\n        /* \"#utility.yul\":7808:7955   */\n      swap3\n      swap2\n      pop\n      pop\n      jump\t// out\n        /* \"#utility.yul\":7961:8075   */\n    tag_220:\n      pop\n      jump\t// out\n        /* \"#utility.yul\":8081:8479   */\n    tag_221:\n        /* \"#utility.yul\":8240:8243   */\n      0x00\n        /* \"#utility.yul\":8261:8344   */\n      tag_324\n        /* \"#utility.yul\":8342:8343   */\n      0x00\n        /* \"#utility.yul\":8337:8340   */\n      dup4\n        /* \"#utility.yul\":8261:8344   */\n      tag_219\n      jump\t// in\n    tag_324:\n        /* \"#utility.yul\":8254:8344   */\n      swap2\n      pop\n        /* \"#utility.yul\":8353:8446   */\n      tag_325\n        /* \"#utility.yul\":8442:8445   */\n      dup3\n        /* \"#utility.yul\":8353:8446   */\n      tag_220\n      jump\t// in\n    tag_325:\n        /* \"#utility.yul\":8471:8472   */\n      0x00\n        /* \"#utility.yul\":8466:8469   */\n      dup3\n        /* \"#utility.yul\":8462:8473   */\n      add\n        /* \"#utility.yul\":8455:8473   */\n      swap1\n      pop\n        /* \"#utility.yul\":8081:8479   */\n      swap2\n      swap1\n      pop\n      jump\t// out\n        /* \"#utility.yul\":8485:8864   */\n    tag_104:\n        /* \"#utility.yul\":8669:8672   */\n      0x00\n        /* \"#utility.yul\":8691:8838   */\n      tag_327\n        /* \"#utility.yul\":8834:8837   */\n      dup3\n        /* \"#utility.yul\":8691:8838   */\n      tag_221\n      jump\t// in\n    tag_327:\n        /* \"#utility.yul\":8684:8838   */\n      swap2\n      pop\n        /* \"#utility.yul\":8855:8858   */\n      dup2\n        /* \"#utility.yul\":8848:8858   */\n      swap1\n      pop\n        /* \"#utility.yul\":8485:8864   */\n      swap2\n      swap1\n      pop\n      jump\t// out\n        /* \"#utility.yul\":8870:9036   */\n    tag_222:\n        /* \"#utility.yul\":9010:9028   */\n      0x5472616e73666572206661696c65642e00000000000000000000000000000000\n        /* \"#utility.yul\":9006:9007   */\n      0x00\n        /* \"#utility.yul\":8998:9004   */\n      dup3\n        /* \"#utility.yul\":8994:9008   */\n      add\n        /* \"#utility.yul\":8987:9029   */\n      mstore\n        /* \"#utility.yul\":8870:9036   */\n      pop\n      jump\t// out\n        /* \"#utility.yul\":9042:9408   */\n    tag_223:\n        /* \"#utility.yul\":9184:9187   */\n      0x00\n        /* \"#utility.yul\":9205:9272   */\n      tag_330\n        /* \"#utility.yul\":9269:9271   */\n      0x10\n        /* \"#utility.yul\":9264:9267   */\n      dup4\n        /* \"#utility.yul\":9205:9272   */\n      tag_210\n      jump\t// in\n    tag_330:\n        /* \"#utility.yul\":9198:9272   */\n      swap2\n      pop\n        /* \"#utility.yul\":9281:9374   */\n      tag_331\n        /* \"#utility.yul\":9370:9373   */\n      dup3\n        /* \"#utility.yul\":9281:9374   */\n      tag_222\n      jump\t// in\n    tag_331:\n        /* \"#utility.yul\":9399:9401   */\n      0x20\n        /* \"#utility.yul\":9394:9397   */\n      dup3\n        /* \"#utility.yul\":9390:9402   */\n      add\n        /* \"#utility.yul\":9383:9402   */\n      swap1\n      pop\n        /* \"#utility.yul\":9042:9408   */\n      swap2\n      swap1\n      pop\n      jump\t// out\n        /* \"#utility.yul\":9414:9833   */\n    tag_110:\n        /* \"#utility.yul\":9580:9584   */\n      0x00\n        /* \"#utility.yul\":9618:9620   */\n      0x20\n        /* \"#utility.yul\":9607:9616   */\n      dup3\n        /* \"#utility.yul\":9603:9621   */\n      add\n        /* \"#utility.yul\":9595:9621   */\n      swap1\n      pop\n        /* \"#utility.yul\":9667:9676   */\n      dup2\n        /* \"#utility.yul\":9661:9665   */\n      dup2\n        /* \"#utility.yul\":9657:9677   */\n      sub\n        /* \"#utility.yul\":9653:9654   */\n      0x00\n        /* \"#utility.yul\":9642:9651   */\n      dup4\n        /* \"#utility.yul\":9638:9655   */\n      add\n        /* \"#utility.yul\":9631:9678   */\n      mstore\n        /* \"#utility.yul\":9695:9826   */\n      tag_333\n        /* \"#utility.yul\":9821:9825   */\n      dup2\n        /* \"#utility.yul\":9695:9826   */\n      tag_223\n      jump\t// in\n    tag_333:\n        /* \"#utility.yul\":9687:9826   */\n      swap1\n      pop\n        /* \"#utility.yul\":9414:9833   */\n      swap2\n      swap1\n      pop\n      jump\t// out\n        /* \"#utility.yul\":9839:10063   */\n    tag_224:\n        /* \"#utility.yul\":9979:10013   */\n      0x4f6e6c79206f776e65722063616e206578656375746520746869732066756e63\n        /* \"#utility.yul\":9975:9976   */\n      0x00\n        /* \"#utility.yul\":9967:9973   */\n      dup3\n        /* \"#utility.yul\":9963:9977   */\n      add\n        /* \"#utility.yul\":9956:10014   */\n      mstore\n        /* \"#utility.yul\":10048:10055   */\n      0x74696f6e2e000000000000000000000000000000000000000000000000000000\n        /* \"#utility.yul\":10043:10045   */\n      0x20\n        /* \"#utility.yul\":10035:10041   */\n      dup3\n        /* \"#utility.yul\":10031:10046   */\n      add\n        /* \"#utility.yul\":10024:10056   */\n      mstore\n        /* \"#utility.yul\":9839:10063   */\n      pop\n      jump\t// out\n        /* \"#utility.yul\":10069:10435   */\n    tag_225:\n        /* \"#utility.yul\":10211:10214   */\n      0x00\n        /* \"#utility.yul\":10232:10299   */\n      tag_336\n        /* \"#utility.yul\":10296:10298   */\n      0x25\n        /* \"#utility.yul\":10291:10294   */\n      dup4\n        /* \"#utility.yul\":10232:10299   */\n      tag_210\n      jump\t// in\n    tag_336:\n        /* \"#utility.yul\":10225:10299   */\n      swap2\n      pop\n        /* \"#utility.yul\":10308:10401   */\n      tag_337\n        /* \"#utility.yul\":10397:10400   */\n      dup3\n        /* \"#utility.yul\":10308:10401   */\n      tag_224\n      jump\t// in\n    tag_337:\n        /* \"#utility.yul\":10426:10428   */\n      0x40\n        /* \"#utility.yul\":10421:10424   */\n      dup3\n        /* \"#utility.yul\":10417:10429   */\n      add\n        /* \"#utility.yul\":10410:10429   */\n      swap1\n      pop\n        /* \"#utility.yul\":10069:10435   */\n      swap2\n      swap1\n      pop\n      jump\t// out\n        /* \"#utility.yul\":10441:10860   */\n    tag_116:\n        /* \"#utility.yul\":10607:10611   */\n      0x00\n        /* \"#utility.yul\":10645:10647   */\n      0x20\n        /* \"#utility.yul\":10634:10643   */\n      dup3\n        /* \"#utility.yul\":10630:10648   */\n      add\n        /* \"#utility.yul\":10622:10648   */\n      swap1\n      pop\n        /* \"#utility.yul\":10694:10703   */\n      dup2\n        /* \"#utility.yul\":10688:10692   */\n      dup2\n        /* \"#utility.yul\":10684:10704   */\n      sub\n        /* \"#utility.yul\":10680:10681   */\n      0x00\n        /* \"#utility.yul\":10669:10678   */\n      dup4\n        /* \"#utility.yul\":10665:10682   */\n      add\n        /* \"#utility.yul\":10658:10705   */\n      mstore\n        /* \"#utility.yul\":10722:10853   */\n      tag_339\n        /* \"#utility.yul\":10848:10852   */\n      dup2\n        /* \"#utility.yul\":10722:10853   */\n      tag_225\n      jump\t// in\n    tag_339:\n        /* \"#utility.yul\":10714:10853   */\n      swap1\n      pop\n        /* \"#utility.yul\":10441:10860   */\n      swap2\n      swap1\n      pop\n      jump\t// out\n        /* \"#utility.yul\":10866:11047   */\n    tag_226:\n        /* \"#utility.yul\":11006:11039   */\n      0x57616c6c65742061646472657373206973206e6f7420612066756e6465722e00\n        /* \"#utility.yul\":11002:11003   */\n      0x00\n        /* \"#utility.yul\":10994:11000   */\n      dup3\n        /* \"#utility.yul\":10990:11004   */\n      add\n        /* \"#utility.yul\":10983:11040   */\n      mstore\n        /* \"#utility.yul\":10866:11047   */\n      pop\n      jump\t// out\n        /* \"#utility.yul\":11053:11419   */\n    tag_227:\n        /* \"#utility.yul\":11195:11198   */\n      0x00\n        /* \"#utility.yul\":11216:11283   */\n      tag_342\n        /* \"#utility.yul\":11280:11282   */\n      0x1f\n        /* \"#utility.yul\":11275:11278   */\n      dup4\n        /* \"#utility.yul\":11216:11283   */\n      tag_210\n      jump\t// in\n    tag_342:\n        /* \"#utility.yul\":11209:11283   */\n      swap2\n      pop\n        /* \"#utility.yul\":11292:11385   */\n      tag_343\n        /* \"#utility.yul\":11381:11384   */\n      dup3\n        /* \"#utility.yul\":11292:11385   */\n      tag_226\n      jump\t// in\n    tag_343:\n        /* \"#utility.yul\":11410:11412   */\n      0x20\n        /* \"#utility.yul\":11405:11408   */\n      dup3\n        /* \"#utility.yul\":11401:11413   */\n      add\n        /* \"#utility.yul\":11394:11413   */\n      swap1\n      pop\n        /* \"#utility.yul\":11053:11419   */\n      swap2\n      swap1\n      pop\n      jump\t// out\n        /* \"#utility.yul\":11425:11844   */\n    tag_132:\n        /* \"#utility.yul\":11591:11595   */\n      0x00\n        /* \"#utility.yul\":11629:11631   */\n      0x20\n        /* \"#utility.yul\":11618:11627   */\n      dup3\n        /* \"#utility.yul\":11614:11632   */\n      add\n        /* \"#utility.yul\":11606:11632   */\n      swap1\n      pop\n        /* \"#utility.yul\":11678:11687   */\n      dup2\n        /* \"#utility.yul\":11672:11676   */\n      dup2\n        /* \"#utility.yul\":11668:11688   */\n      sub\n        /* \"#utility.yul\":11664:11665   */\n      0x00\n        /* \"#utility.yul\":11653:11662   */\n      dup4\n        /* \"#utility.yul\":11649:11666   */\n      add\n        /* \"#utility.yul\":11642:11689   */\n      mstore\n        /* \"#utility.yul\":11706:11837   */\n      tag_345\n        /* \"#utility.yul\":11832:11836   */\n      dup2\n        /* \"#utility.yul\":11706:11837   */\n      tag_227\n      jump\t// in\n    tag_345:\n        /* \"#utility.yul\":11698:11837   */\n      swap1\n      pop\n        /* \"#utility.yul\":11425:11844   */\n      swap2\n      swap1\n      pop\n      jump\t// out\n        /* \"#utility.yul\":11850:12044   */\n    tag_134:\n        /* \"#utility.yul\":11890:11894   */\n      0x00\n        /* \"#utility.yul\":11910:11930   */\n      tag_347\n        /* \"#utility.yul\":11928:11929   */\n      dup3\n        /* \"#utility.yul\":11910:11930   */\n      tag_203\n      jump\t// in\n    tag_347:\n        /* \"#utility.yul\":11905:11930   */\n      swap2\n      pop\n        /* \"#utility.yul\":11944:11964   */\n      tag_348\n        /* \"#utility.yul\":11962:11963   */\n      dup4\n        /* \"#utility.yul\":11944:11964   */\n      tag_203\n      jump\t// in\n    tag_348:\n        /* \"#utility.yul\":11939:11964   */\n      swap3\n      pop\n        /* \"#utility.yul\":11988:11989   */\n      dup3\n        /* \"#utility.yul\":11985:11986   */\n      dup3\n        /* \"#utility.yul\":11981:11990   */\n      sub\n        /* \"#utility.yul\":11973:11990   */\n      swap1\n      pop\n        /* \"#utility.yul\":12012:12013   */\n      dup2\n        /* \"#utility.yul\":12006:12010   */\n      dup2\n        /* \"#utility.yul\":12003:12014   */\n      gt\n        /* \"#utility.yul\":12000:12037   */\n      iszero\n      tag_349\n      jumpi\n        /* \"#utility.yul\":12017:12035   */\n      tag_350\n      tag_213\n      jump\t// in\n    tag_350:\n        /* \"#utility.yul\":12000:12037   */\n    tag_349:\n        /* \"#utility.yul\":11850:12044   */\n      swap3\n      swap2\n      pop\n      pop\n      jump\t// out\n        /* \"#utility.yul\":12050:12155   */\n    tag_228:\n        /* \"#utility.yul\":12086:12093   */\n      0x00\n        /* \"#utility.yul\":12126:12148   */\n      0xffffffffffffffffffff\n        /* \"#utility.yul\":12119:12124   */\n      dup3\n        /* \"#utility.yul\":12115:12149   */\n      and\n        /* \"#utility.yul\":12104:12149   */\n      swap1\n      pop\n        /* \"#utility.yul\":12050:12155   */\n      swap2\n      swap1\n      pop\n      jump\t// out\n        /* \"#utility.yul\":12161:12281   */\n    tag_229:\n        /* \"#utility.yul\":12233:12256   */\n      tag_353\n        /* \"#utility.yul\":12250:12255   */\n      dup2\n        /* \"#utility.yul\":12233:12256   */\n      tag_228\n      jump\t// in\n    tag_353:\n        /* \"#utility.yul\":12226:12231   */\n      dup2\n        /* \"#utility.yul\":12223:12257   */\n      eq\n        /* \"#utility.yul\":12213:12275   */\n      tag_354\n      jumpi\n        /* \"#utility.yul\":12271:12272   */\n      0x00\n        /* \"#utility.yul\":12268:12269   */\n      dup1\n        /* \"#utility.yul\":12261:12273   */\n      revert\n        /* \"#utility.yul\":12213:12275   */\n    tag_354:\n        /* \"#utility.yul\":12161:12281   */\n      pop\n      jump\t// out\n        /* \"#utility.yul\":12287:12428   */\n    tag_230:\n        /* \"#utility.yul\":12343:12348   */\n      0x00\n        /* \"#utility.yul\":12374:12380   */\n      dup2\n        /* \"#utility.yul\":12368:12381   */\n      mload\n        /* \"#utility.yul\":12359:12381   */\n      swap1\n      pop\n        /* \"#utility.yul\":12390:12422   */\n      tag_356\n        /* \"#utility.yul\":12416:12421   */\n      dup2\n        /* \"#utility.yul\":12390:12422   */\n      tag_229\n      jump\t// in\n    tag_356:\n        /* \"#utility.yul\":12287:12428   */\n      swap3\n      swap2\n      pop\n      pop\n      jump\t// out\n        /* \"#utility.yul\":12434:12510   */\n    tag_231:\n        /* \"#utility.yul\":12470:12477   */\n      0x00\n        /* \"#utility.yul\":12499:12504   */\n      dup2\n        /* \"#utility.yul\":12488:12504   */\n      swap1\n      pop\n        /* \"#utility.yul\":12434:12510   */\n      swap2\n      swap1\n      pop\n      jump\t// out\n        /* \"#utility.yul\":12516:12636   */\n    tag_232:\n        /* \"#utility.yul\":12588:12611   */\n      tag_359\n        /* \"#utility.yul\":12605:12610   */\n      dup2\n        /* \"#utility.yul\":12588:12611   */\n      tag_231\n      jump\t// in\n    tag_359:\n        /* \"#utility.yul\":12581:12586   */\n      dup2\n        /* \"#utility.yul\":12578:12612   */\n      eq\n        /* \"#utility.yul\":12568:12630   */\n      tag_360\n      jumpi\n        /* \"#utility.yul\":12626:12627   */\n      0x00\n        /* \"#utility.yul\":12623:12624   */\n      dup1\n        /* \"#utility.yul\":12616:12628   */\n      revert\n        /* \"#utility.yul\":12568:12630   */\n    tag_360:\n        /* \"#utility.yul\":12516:12636   */\n      pop\n      jump\t// out\n        /* \"#utility.yul\":12642:12783   */\n    tag_233:\n        /* \"#utility.yul\":12698:12703   */\n      0x00\n        /* \"#utility.yul\":12729:12735   */\n      dup2\n        /* \"#utility.yul\":12723:12736   */\n      mload\n        /* \"#utility.yul\":12714:12736   */\n      swap1\n      pop\n        /* \"#utility.yul\":12745:12777   */\n      tag_362\n        /* \"#utility.yul\":12771:12776   */\n      dup2\n        /* \"#utility.yul\":12745:12777   */\n      tag_232\n      jump\t// in\n    tag_362:\n        /* \"#utility.yul\":12642:12783   */\n      swap3\n      swap2\n      pop\n      pop\n      jump\t// out\n        /* \"#utility.yul\":12789:12932   */\n    tag_234:\n        /* \"#utility.yul\":12846:12851   */\n      0x00\n        /* \"#utility.yul\":12877:12883   */\n      dup2\n        /* \"#utility.yul\":12871:12884   */\n      mload\n        /* \"#utility.yul\":12862:12884   */\n      swap1\n      pop\n        /* \"#utility.yul\":12893:12926   */\n      tag_364\n        /* \"#utility.yul\":12920:12925   */\n      dup2\n        /* \"#utility.yul\":12893:12926   */\n      tag_205\n      jump\t// in\n    tag_364:\n        /* \"#utility.yul\":12789:12932   */\n      swap3\n      swap2\n      pop\n      pop\n      jump\t// out\n        /* \"#utility.yul\":12938:13909   */\n    tag_147:\n        /* \"#utility.yul\":13041:13047   */\n      0x00\n        /* \"#utility.yul\":13049:13055   */\n      dup1\n        /* \"#utility.yul\":13057:13063   */\n      0x00\n        /* \"#utility.yul\":13065:13071   */\n      dup1\n        /* \"#utility.yul\":13073:13079   */\n      0x00\n        /* \"#utility.yul\":13122:13125   */\n      0xa0\n        /* \"#utility.yul\":13110:13119   */\n      dup7\n        /* \"#utility.yul\":13101:13108   */\n      dup9\n        /* \"#utility.yul\":13097:13120   */\n      sub\n        /* \"#utility.yul\":13093:13126   */\n      slt\n        /* \"#utility.yul\":13090:13210   */\n      iszero\n      tag_366\n      jumpi\n        /* \"#utility.yul\":13129:13208   */\n      tag_367\n      tag_197\n      jump\t// in\n    tag_367:\n        /* \"#utility.yul\":13090:13210   */\n    tag_366:\n        /* \"#utility.yul\":13249:13250   */\n      0x00\n        /* \"#utility.yul\":13274:13337   */\n      tag_368\n        /* \"#utility.yul\":13329:13336   */\n      dup9\n        /* \"#utility.yul\":13320:13326   */\n      dup3\n        /* \"#utility.yul\":13309:13318   */\n      dup10\n        /* \"#utility.yul\":13305:13327   */\n      add\n        /* \"#utility.yul\":13274:13337   */\n      tag_230\n      jump\t// in\n    tag_368:\n        /* \"#utility.yul\":13264:13337   */\n      swap6\n      pop\n        /* \"#utility.yul\":13220:13347   */\n      pop\n        /* \"#utility.yul\":13386:13388   */\n      0x20\n        /* \"#utility.yul\":13412:13475   */\n      tag_369\n        /* \"#utility.yul\":13467:13474   */\n      dup9\n        /* \"#utility.yul\":13458:13464   */\n      dup3\n        /* \"#utility.yul\":13447:13456   */\n      dup10\n        /* \"#utility.yul\":13443:13465   */\n      add\n        /* \"#utility.yul\":13412:13475   */\n      tag_233\n      jump\t// in\n    tag_369:\n        /* \"#utility.yul\":13402:13475   */\n      swap5\n      pop\n        /* \"#utility.yul\":13357:13485   */\n      pop\n        /* \"#utility.yul\":13524:13526   */\n      0x40\n        /* \"#utility.yul\":13550:13614   */\n      tag_370\n        /* \"#utility.yul\":13606:13613   */\n      dup9\n        /* \"#utility.yul\":13597:13603   */\n      dup3\n        /* \"#utility.yul\":13586:13595   */\n      dup10\n        /* \"#utility.yul\":13582:13604   */\n      add\n        /* \"#utility.yul\":13550:13614   */\n      tag_234\n      jump\t// in\n    tag_370:\n        /* \"#utility.yul\":13540:13614   */\n      swap4\n      pop\n        /* \"#utility.yul\":13495:13624   */\n      pop\n        /* \"#utility.yul\":13663:13665   */\n      0x60\n        /* \"#utility.yul\":13689:13753   */\n      tag_371\n        /* \"#utility.yul\":13745:13752   */\n      dup9\n        /* \"#utility.yul\":13736:13742   */\n      dup3\n        /* \"#utility.yul\":13725:13734   */\n      dup10\n        /* \"#utility.yul\":13721:13743   */\n      add\n        /* \"#utility.yul\":13689:13753   */\n      tag_234\n      jump\t// in\n    tag_371:\n        /* \"#utility.yul\":13679:13753   */\n      swap3\n      pop\n        /* \"#utility.yul\":13634:13763   */\n      pop\n        /* \"#utility.yul\":13802:13805   */\n      0x80\n        /* \"#utility.yul\":13829:13892   */\n      tag_372\n        /* \"#utility.yul\":13884:13891   */\n      dup9\n        /* \"#utility.yul\":13875:13881   */\n      dup3\n        /* \"#utility.yul\":13864:13873   */\n      dup10\n        /* \"#utility.yul\":13860:13882   */\n      add\n        /* \"#utility.yul\":13829:13892   */\n      tag_230\n      jump\t// in\n    tag_372:\n        /* \"#utility.yul\":13819:13892   */\n      swap2\n      pop\n        /* \"#utility.yul\":13773:13902   */\n      pop\n        /* \"#utility.yul\":12938:13909   */\n      swap3\n      swap6\n      pop\n      swap3\n      swap6\n      swap1\n      swap4\n      pop\n      jump\t// out\n        /* \"#utility.yul\":13915:14092   */\n    tag_235:\n        /* \"#utility.yul\":14055:14084   */\n      0x4e65676174697665207072696365206e6f7420616c6c6f7765642e0000000000\n        /* \"#utility.yul\":14051:14052   */\n      0x00\n        /* \"#utility.yul\":14043:14049   */\n      dup3\n        /* \"#utility.yul\":14039:14053   */\n      add\n        /* \"#utility.yul\":14032:14085   */\n      mstore\n        /* \"#utility.yul\":13915:14092   */\n      pop\n      jump\t// out\n        /* \"#utility.yul\":14098:14464   */\n    tag_236:\n        /* \"#utility.yul\":14240:14243   */\n      0x00\n        /* \"#utility.yul\":14261:14328   */\n      tag_375\n        /* \"#utility.yul\":14325:14327   */\n      0x1b\n        /* \"#utility.yul\":14320:14323   */\n      dup4\n        /* \"#utility.yul\":14261:14328   */\n      tag_210\n      jump\t// in\n    tag_375:\n        /* \"#utility.yul\":14254:14328   */\n      swap2\n      pop\n        /* \"#utility.yul\":14337:14430   */\n      tag_376\n        /* \"#utility.yul\":14426:14429   */\n      dup3\n        /* \"#utility.yul\":14337:14430   */\n      tag_235\n      jump\t// in\n    tag_376:\n        /* \"#utility.yul\":14455:14457   */\n      0x20\n        /* \"#utility.yul\":14450:14453   */\n      dup3\n        /* \"#utility.yul\":14446:14458   */\n      add\n        /* \"#utility.yul\":14439:14458   */\n      swap1\n      pop\n        /* \"#utility.yul\":14098:14464   */\n      swap2\n      swap1\n      pop\n      jump\t// out\n        /* \"#utility.yul\":14470:14889   */\n    tag_150:\n        /* \"#utility.yul\":14636:14640   */\n      0x00\n        /* \"#utility.yul\":14674:14676   */\n      0x20\n        /* \"#utility.yul\":14663:14672   */\n      dup3\n        /* \"#utility.yul\":14659:14677   */\n      add\n        /* \"#utility.yul\":14651:14677   */\n      swap1\n      pop\n        /* \"#utility.yul\":14723:14732   */\n      dup2\n        /* \"#utility.yul\":14717:14721   */\n      dup2\n        /* \"#utility.yul\":14713:14733   */\n      sub\n        /* \"#utility.yul\":14709:14710   */\n      0x00\n        /* \"#utility.yul\":14698:14707   */\n      dup4\n        /* \"#utility.yul\":14694:14711   */\n      add\n        /* \"#utility.yul\":14687:14734   */\n      mstore\n        /* \"#utility.yul\":14751:14882   */\n      tag_378\n        /* \"#utility.yul\":14877:14881   */\n      dup2\n        /* \"#utility.yul\":14751:14882   */\n      tag_236\n      jump\t// in\n    tag_378:\n        /* \"#utility.yul\":14743:14882   */\n      swap1\n      pop\n        /* \"#utility.yul\":14470:14889   */\n      swap2\n      swap1\n      pop\n      jump\t// out\n        /* \"#utility.yul\":14895:15138   */\n    tag_237:\n        /* \"#utility.yul\":15035:15069   */\n      0x43616e6e6f74206368616e6765207468652076616c7565206f66206d696e696d\n        /* \"#utility.yul\":15031:15032   */\n      0x00\n        /* \"#utility.yul\":15023:15029   */\n      dup3\n        /* \"#utility.yul\":15019:15033   */\n      add\n        /* \"#utility.yul\":15012:15070   */\n      mstore\n        /* \"#utility.yul\":15104:15130   */\n      0x756d55736420746f207468652073616d652076616c75652e0000000000000000\n        /* \"#utility.yul\":15099:15101   */\n      0x20\n        /* \"#utility.yul\":15091:15097   */\n      dup3\n        /* \"#utility.yul\":15087:15102   */\n      add\n        /* \"#utility.yul\":15080:15131   */\n      mstore\n        /* \"#utility.yul\":14895:15138   */\n      pop\n      jump\t// out\n        /* \"#utility.yul\":15144:15510   */\n    tag_238:\n        /* \"#utility.yul\":15286:15289   */\n      0x00\n        /* \"#utility.yul\":15307:15374   */\n      tag_381\n        /* \"#utility.yul\":15371:15373   */\n      0x38\n        /* \"#utility.yul\":15366:15369   */\n      dup4\n        /* \"#utility.yul\":15307:15374   */\n      tag_210\n      jump\t// in\n    tag_381:\n        /* \"#utility.yul\":15300:15374   */\n      swap2\n      pop\n        /* \"#utility.yul\":15383:15476   */\n      tag_382\n        /* \"#utility.yul\":15472:15475   */\n      dup3\n        /* \"#utility.yul\":15383:15476   */\n      tag_237\n      jump\t// in\n    tag_382:\n        /* \"#utility.yul\":15501:15503   */\n      0x40\n        /* \"#utility.yul\":15496:15499   */\n      dup3\n        /* \"#utility.yul\":15492:15504   */\n      add\n        /* \"#utility.yul\":15485:15504   */\n      swap1\n      pop\n        /* \"#utility.yul\":15144:15510   */\n      swap2\n      swap1\n      pop\n      jump\t// out\n        /* \"#utility.yul\":15516:15935   */\n    tag_160:\n        /* \"#utility.yul\":15682:15686   */\n      0x00\n        /* \"#utility.yul\":15720:15722   */\n      0x20\n        /* \"#utility.yul\":15709:15718   */\n      dup3\n        /* \"#utility.yul\":15705:15723   */\n      add\n        /* \"#utility.yul\":15697:15723   */\n      swap1\n      pop\n        /* \"#utility.yul\":15769:15778   */\n      dup2\n        /* \"#utility.yul\":15763:15767   */\n      dup2\n        /* \"#utility.yul\":15759:15779   */\n      sub\n        /* \"#utility.yul\":15755:15756   */\n      0x00\n        /* \"#utility.yul\":15744:15753   */\n      dup4\n        /* \"#utility.yul\":15740:15757   */\n      add\n        /* \"#utility.yul\":15733:15780   */\n      mstore\n        /* \"#utility.yul\":15797:15928   */\n      tag_384\n        /* \"#utility.yul\":15923:15927   */\n      dup2\n        /* \"#utility.yul\":15797:15928   */\n      tag_238\n      jump\t// in\n    tag_384:\n        /* \"#utility.yul\":15789:15928   */\n      swap1\n      pop\n        /* \"#utility.yul\":15516:15935   */\n      swap2\n      swap1\n      pop\n      jump\t// out\n        /* \"#utility.yul\":15941:16121   */\n    tag_167:\n        /* \"#utility.yul\":15989:16066   */\n      0x4e487b7100000000000000000000000000000000000000000000000000000000\n        /* \"#utility.yul\":15986:15987   */\n      0x00\n        /* \"#utility.yul\":15979:16067   */\n      mstore\n        /* \"#utility.yul\":16086:16090   */\n      0x32\n        /* \"#utility.yul\":16083:16084   */\n      0x04\n        /* \"#utility.yul\":16076:16091   */\n      mstore\n        /* \"#utility.yul\":16110:16114   */\n      0x24\n        /* \"#utility.yul\":16107:16108   */\n      0x00\n        /* \"#utility.yul\":16100:16115   */\n      revert\n        /* \"#utility.yul\":16127:16307   */\n    tag_176:\n        /* \"#utility.yul\":16175:16252   */\n      0x4e487b7100000000000000000000000000000000000000000000000000000000\n        /* \"#utility.yul\":16172:16173   */\n      0x00\n        /* \"#utility.yul\":16165:16253   */\n      mstore\n        /* \"#utility.yul\":16272:16276   */\n      0x31\n        /* \"#utility.yul\":16269:16270   */\n      0x04\n        /* \"#utility.yul\":16262:16277   */\n      mstore\n        /* \"#utility.yul\":16296:16300   */\n      0x24\n        /* \"#utility.yul\":16293:16294   */\n      0x00\n        /* \"#utility.yul\":16286:16301   */\n      revert\n        /* \"#utility.yul\":16313:16428   */\n    tag_239:\n        /* \"#utility.yul\":16398:16421   */\n      tag_388\n        /* \"#utility.yul\":16415:16420   */\n      dup2\n        /* \"#utility.yul\":16398:16421   */\n      tag_231\n      jump\t// in\n    tag_388:\n        /* \"#utility.yul\":16393:16396   */\n      dup3\n        /* \"#utility.yul\":16386:16422   */\n      mstore\n        /* \"#utility.yul\":16313:16428   */\n      pop\n      pop\n      jump\t// out\n        /* \"#utility.yul\":16434:16652   */\n    tag_190:\n        /* \"#utility.yul\":16525:16529   */\n      0x00\n        /* \"#utility.yul\":16563:16565   */\n      0x20\n        /* \"#utility.yul\":16552:16561   */\n      dup3\n        /* \"#utility.yul\":16548:16566   */\n      add\n        /* \"#utility.yul\":16540:16566   */\n      swap1\n      pop\n        /* \"#utility.yul\":16576:16645   */\n      tag_390\n        /* \"#utility.yul\":16642:16643   */\n      0x00\n        /* \"#utility.yul\":16631:16640   */\n      dup4\n        /* \"#utility.yul\":16627:16644   */\n      add\n        /* \"#utility.yul\":16618:16624   */\n      dup5\n        /* \"#utility.yul\":16576:16645   */\n      tag_239\n      jump\t// in\n    tag_390:\n        /* \"#utility.yul\":16434:16652   */\n      swap3\n      swap2\n      pop\n      pop\n      jump\t// out\n\n    auxdata: 0xa26469706673582212203ec2706001008e71d0411ccb279b167b7b73e9709fab575e6d644a3d57ecd3da64736f6c634300081a0033\n}\n",
				"bytecode": {
					"linkReferences": {},
					"object": "60a0604052348015600e575f80fd5b503373ffffffffffffffffffffffffffffffffffffffff1660808173ffffffffffffffffffffffffffffffffffffffff1681525050631dcd65006001819055506080516119cf6100745f395f818161074f01528181610bec0152610cdc01526119cf5ff3fe6080604052600436106100c5575f3560e01c806398d5fdca1161007e578063d78a29d211610058578063d78a29d21461023e578063dba6335f14610266578063dc0d3dff14610290578063f8024578146102cc576100d4565b806398d5fdca146101ce578063b60d4288146101f8578063cc3b589e14610202576100d4565b8063034855c7146100d8578063098de820146101145780633e9f607c1461013e578063455fd6231461017a5780635eb8d90b1461019057806371d2ee6c146101a6576100d4565b366100d4576100d2610308565b005b5f80fd5b3480156100e3575f80fd5b506100fe60048036038101906100f9919061119c565b610507565b60405161010b91906111df565b60405180910390f35b34801561011f575f80fd5b5061012861051c565b60405161013591906111df565b60405180910390f35b348015610149575f80fd5b50610164600480360381019061015f9190611222565b610522565b60405161017191906111df565b60405180910390f35b348015610185575f80fd5b5061018e61054a565b005b34801561019b575f80fd5b506101a461074d565b005b3480156101b1575f80fd5b506101cc60048036038101906101c79190611260565b610895565b005b3480156101d9575f80fd5b506101e2610afb565b6040516101ef91906111df565b60405180910390f35b610200610308565b005b34801561020d575f80fd5b506102286004803603810190610223919061119c565b610bd5565b60405161023591906111df565b60405180910390f35b348015610249575f80fd5b50610264600480360381019061025f9190611260565b610bea565b005b348015610271575f80fd5b5061027a610cda565b604051610287919061129a565b60405180910390f35b34801561029b575f80fd5b506102b660048036038101906102b19190611260565b610cfe565b6040516102c3919061129a565b60405180910390f35b3480156102d7575f80fd5b506102f260048036038101906102ed919061119c565b610d39565b6040516102ff91906112cd565b60405180910390f35b5f610311610afb565b90505f61031e8234610522565b9050600154811015610365576040517f08c379a000000000000000000000000000000000000000000000000000000000815260040161035c90611340565b60405180910390fd5b60045f3373ffffffffffffffffffffffffffffffffffffffff1673ffffffffffffffffffffffffffffffffffffffff1681526020019081526020015f205f9054906101000a900460ff166104b05760028054905060035f3373ffffffffffffffffffffffffffffffffffffffff1673ffffffffffffffffffffffffffffffffffffffff1681526020019081526020015f2081905550600233908060018154018082558091505060019003905f5260205f20015f9091909190916101000a81548173ffffffffffffffffffffffffffffffffffffffff021916908373ffffffffffffffffffffffffffffffffffffffff160217905550600160045f3373ffffffffffffffffffffffffffffffffffffffff1673ffffffffffffffffffffffffffffffffffffffff1681526020019081526020015f205f6101000a81548160ff0219169083151502179055505b3460055f3373ffffffffffffffffffffffffffffffffffffffff1673ffffffffffffffffffffffffffffffffffffffff1681526020019081526020015f205f8282546104fc919061138b565b925050819055505050565b6005602052805f5260405f205f915090505481565b60015481565b5f670de0b6b3a7640000828461053891906113be565b610542919061142c565b905092915050565b5f15155f8054906101000a900460ff1615151461059c576040517f08c379a0000000000000000000000000000000000000000000000000000000008152600401610593906114cc565b60405180910390fd5b60015f806101000a81548160ff0219169083151502179055505f60055f3373ffffffffffffffffffffffffffffffffffffffff1673ffffffffffffffffffffffffffffffffffffffff1681526020019081526020015f205490505f8111610638576040517f08c379a000000000000000000000000000000000000000000000000000000000815260040161062f90611534565b60405180910390fd5b5f60055f3373ffffffffffffffffffffffffffffffffffffffff1673ffffffffffffffffffffffffffffffffffffffff1681526020019081526020015f20819055505f3373ffffffffffffffffffffffffffffffffffffffff168260405161069f9061157f565b5f6040518083038185875af1925050503d805f81146106d9576040519150601f19603f3d011682016040523d82523d5f602084013e6106de565b606091505b505090506001151581151514610729576040517f08c379a0000000000000000000000000000000000000000000000000000000008152600401610720906115dd565b60405180910390fd5b610731610d56565b50505f805f6101000a81548160ff021916908315150217905550565b7f000000000000000000000000000000000000000000000000000000000000000073ffffffffffffffffffffffffffffffffffffffff163373ffffffffffffffffffffffffffffffffffffffff16146107db576040517f08c379a00000000000000000000000000000000000000000000000000000000081526004016107d29061166b565b60405180910390fd5b5f3373ffffffffffffffffffffffffffffffffffffffff16476040516108009061157f565b5f6040518083038185875af1925050503d805f811461083a576040519150601f19603f3d011682016040523d82523d5f602084013e61083f565b606091505b50509050600115158115151461088a576040517f08c379a0000000000000000000000000000000000000000000000000000000008152600401610881906115dd565b60405180910390fd5b610892610fb5565b50565b5f15155f8054906101000a900460ff161515146108e7576040517f08c379a00000000000000000000000000000000000000000000000000000000081526004016108de906114cc565b60405180910390fd5b60015f806101000a81548160ff0219169083151502179055506001151560045f3373ffffffffffffffffffffffffffffffffffffffff1673ffffffffffffffffffffffffffffffffffffffff1681526020019081526020015f205f9054906101000a900460ff16151514610990576040517f08c379a0000000000000000000000000000000000000000000000000000000008152600401610987906116d3565b60405180910390fd5b8060055f3373ffffffffffffffffffffffffffffffffffffffff1673ffffffffffffffffffffffffffffffffffffffff1681526020019081526020015f205f8282546109dc91906116f1565b925050819055505f3373ffffffffffffffffffffffffffffffffffffffff1682604051610a089061157f565b5f6040518083038185875af1925050503d805f8114610a42576040519150601f19603f3d011682016040523d82523d5f602084013e610a47565b606091505b505090506001151581151514610a92576040517f08c379a0000000000000000000000000000000000000000000000000000000008152600401610a89906115dd565b60405180910390fd5b5f60055f3373ffffffffffffffffffffffffffffffffffffffff1673ffffffffffffffffffffffffffffffffffffffff1681526020019081526020015f205411610adf57610ade610d56565b5b505f805f6101000a81548160ff02191690831515021790555050565b5f8073694aa1769357215de4fac081bf1f309adc32530673ffffffffffffffffffffffffffffffffffffffff1663feaf968c6040518163ffffffff1660e01b815260040160a060405180830381865afa158015610b5a573d5f803e3d5ffd5b505050506040513d601f19601f82011682018060405250810190610b7e91906117aa565b5050509150505f8113610bc6576040517f08c379a0000000000000000000000000000000000000000000000000000000008152600401610bbd9061186b565b60405180910390fd5b610bcf816110b7565b91505090565b6003602052805f5260405f205f915090505481565b7f000000000000000000000000000000000000000000000000000000000000000073ffffffffffffffffffffffffffffffffffffffff163373ffffffffffffffffffffffffffffffffffffffff1614610c78576040517f08c379a0000000000000000000000000000000000000000000000000000000008152600401610c6f9061166b565b60405180910390fd5b5f6305f5e10082610c8991906113be565b90506001548103610ccf576040517f08c379a0000000000000000000000000000000000000000000000000000000008152600401610cc6906118f9565b60405180910390fd5b806001819055505050565b7f000000000000000000000000000000000000000000000000000000000000000081565b60028181548110610d0d575f80fd5b905f5260205f20015f915054906101000a900473ffffffffffffffffffffffffffffffffffffffff1681565b6004602052805f5260405f205f915054906101000a900460ff1681565b5f60026001600280549050610d6b91906116f1565b81548110610d7c57610d7b611917565b5b905f5260205f20015f9054906101000a900473ffffffffffffffffffffffffffffffffffffffff1690505f60035f3373ffffffffffffffffffffffffffffffffffffffff1673ffffffffffffffffffffffffffffffffffffffff1681526020019081526020015f205490506001600280549050610df991906116f1565b60035f3373ffffffffffffffffffffffffffffffffffffffff1673ffffffffffffffffffffffffffffffffffffffff1681526020019081526020015f205414610ed9578160028281548110610e5157610e50611917565b5b905f5260205f20015f6101000a81548173ffffffffffffffffffffffffffffffffffffffff021916908373ffffffffffffffffffffffffffffffffffffffff1602179055508060035f8473ffffffffffffffffffffffffffffffffffffffff1673ffffffffffffffffffffffffffffffffffffffff1681526020019081526020015f20819055505b6002805480610eeb57610eea611944565b5b600190038181905f5260205f20015f6101000a81549073ffffffffffffffffffffffffffffffffffffffff0219169055905560035f3373ffffffffffffffffffffffffffffffffffffffff1673ffffffffffffffffffffffffffffffffffffffff1681526020019081526020015f205f90555f60045f3373ffffffffffffffffffffffffffffffffffffffff1673ffffffffffffffffffffffffffffffffffffffff1681526020019081526020015f205f6101000a81548160ff0219169083151502179055505050565b5f5b6002805490508110156110a7575f60028281548110610fd957610fd8611917565b5b905f5260205f20015f9054906101000a900473ffffffffffffffffffffffffffffffffffffffff1690505f60035f8373ffffffffffffffffffffffffffffffffffffffff1673ffffffffffffffffffffffffffffffffffffffff1681526020019081526020015f20819055505f60045f8373ffffffffffffffffffffffffffffffffffffffff1673ffffffffffffffffffffffffffffffffffffffff1681526020019081526020015f205f6101000a81548160ff021916908315150217905550508080600101915050610fb7565b5060025f6110b59190611105565b565b5f808212156110fd57816040517fa8ce44320000000000000000000000000000000000000000000000000000000081526004016110f49190611980565b60405180910390fd5b819050919050565b5080545f8255905f5260205f20908101906111209190611123565b50565b5b8082111561113a575f815f905550600101611124565b5090565b5f80fd5b5f73ffffffffffffffffffffffffffffffffffffffff82169050919050565b5f61116b82611142565b9050919050565b61117b81611161565b8114611185575f80fd5b50565b5f8135905061119681611172565b92915050565b5f602082840312156111b1576111b061113e565b5b5f6111be84828501611188565b91505092915050565b5f819050919050565b6111d9816111c7565b82525050565b5f6020820190506111f25f8301846111d0565b92915050565b611201816111c7565b811461120b575f80fd5b50565b5f8135905061121c816111f8565b92915050565b5f80604083850312156112385761123761113e565b5b5f6112458582860161120e565b92505060206112568582860161120e565b9150509250929050565b5f602082840312156112755761127461113e565b5b5f6112828482850161120e565b91505092915050565b61129481611161565b82525050565b5f6020820190506112ad5f83018461128b565b92915050565b5f8115159050919050565b6112c7816112b3565b82525050565b5f6020820190506112e05f8301846112be565b92915050565b5f82825260208201905092915050565b7f6469646e27742073656e6420656e6f75676820555344000000000000000000005f82015250565b5f61132a6016836112e6565b9150611335826112f6565b602082019050919050565b5f6020820190508181035f8301526113578161131e565b9050919050565b7f4e487b71000000000000000000000000000000000000000000000000000000005f52601160045260245ffd5b5f611395826111c7565b91506113a0836111c7565b92508282019050808211156113b8576113b761135e565b5b92915050565b5f6113c8826111c7565b91506113d3836111c7565b92508282026113e1816111c7565b915082820484148315176113f8576113f761135e565b5b5092915050565b7f4e487b71000000000000000000000000000000000000000000000000000000005f52601260045260245ffd5b5f611436826111c7565b9150611441836111c7565b925082611451576114506113ff565b5b828204905092915050565b7f4e6f2072652d656e7472616e637920616c6c6f7765642c20706c6561736520745f8201527f727920616761696e2e0000000000000000000000000000000000000000000000602082015250565b5f6114b66029836112e6565b91506114c18261145c565b604082019050919050565b5f6020820190508181035f8301526114e3816114aa565b9050919050565b7f496e73756666696369656e742062616c616e63650000000000000000000000005f82015250565b5f61151e6014836112e6565b9150611529826114ea565b602082019050919050565b5f6020820190508181035f83015261154b81611512565b9050919050565b5f81905092915050565b50565b5f61156a5f83611552565b91506115758261155c565b5f82019050919050565b5f6115898261155f565b9150819050919050565b7f5472616e73666572206661696c65642e000000000000000000000000000000005f82015250565b5f6115c76010836112e6565b91506115d282611593565b602082019050919050565b5f6020820190508181035f8301526115f4816115bb565b9050919050565b7f4f6e6c79206f776e65722063616e206578656375746520746869732066756e635f8201527f74696f6e2e000000000000000000000000000000000000000000000000000000602082015250565b5f6116556025836112e6565b9150611660826115fb565b604082019050919050565b5f6020820190508181035f83015261168281611649565b9050919050565b7f57616c6c65742061646472657373206973206e6f7420612066756e6465722e005f82015250565b5f6116bd601f836112e6565b91506116c882611689565b602082019050919050565b5f6020820190508181035f8301526116ea816116b1565b9050919050565b5f6116fb826111c7565b9150611706836111c7565b925082820390508181111561171e5761171d61135e565b5b92915050565b5f69ffffffffffffffffffff82169050919050565b61174281611724565b811461174c575f80fd5b50565b5f8151905061175d81611739565b92915050565b5f819050919050565b61177581611763565b811461177f575f80fd5b50565b5f815190506117908161176c565b92915050565b5f815190506117a4816111f8565b92915050565b5f805f805f60a086880312156117c3576117c261113e565b5b5f6117d08882890161174f565b95505060206117e188828901611782565b94505060406117f288828901611796565b935050606061180388828901611796565b92505060806118148882890161174f565b9150509295509295909350565b7f4e65676174697665207072696365206e6f7420616c6c6f7765642e00000000005f82015250565b5f611855601b836112e6565b915061186082611821565b602082019050919050565b5f6020820190508181035f83015261188281611849565b9050919050565b7f43616e6e6f74206368616e6765207468652076616c7565206f66206d696e696d5f8201527f756d55736420746f207468652073616d652076616c75652e0000000000000000602082015250565b5f6118e36038836112e6565b91506118ee82611889565b604082019050919050565b5f6020820190508181035f830152611910816118d7565b9050919050565b7f4e487b71000000000000000000000000000000000000000000000000000000005f52603260045260245ffd5b7f4e487b71000000000000000000000000000000000000000000000000000000005f52603160045260245ffd5b61197a81611763565b82525050565b5f6020820190506119935f830184611971565b9291505056fea26469706673582212203ec2706001008e71d0411ccb279b167b7b73e9709fab575e6d644a3d57ecd3da64736f6c634300081a0033",
					"opcodes": "PUSH1 0xA0 PUSH1 0x40 MSTORE CALLVALUE DUP1 ISZERO PUSH1 0xE JUMPI PUSH0 DUP1 REVERT JUMPDEST POP CALLER PUSH20 0xFFFFFFFFFFFFFFFFFFFFFFFFFFFFFFFFFFFFFFFF AND PUSH1 0x80 DUP2 PUSH20 0xFFFFFFFFFFFFFFFFFFFFFFFFFFFFFFFFFFFFFFFF AND DUP2 MSTORE POP POP PUSH4 0x1DCD6500 PUSH1 0x1 DUP2 SWAP1 SSTORE POP PUSH1 0x80 MLOAD PUSH2 0x19CF PUSH2 0x74 PUSH0 CODECOPY PUSH0 DUP2 DUP2 PUSH2 0x74F ADD MSTORE DUP2 DUP2 PUSH2 0xBEC ADD MSTORE PUSH2 0xCDC ADD MSTORE PUSH2 0x19CF PUSH0 RETURN INVALID PUSH1 0x80 PUSH1 0x40 MSTORE PUSH1 0x4 CALLDATASIZE LT PUSH2 0xC5 JUMPI PUSH0 CALLDATALOAD PUSH1 0xE0 SHR DUP1 PUSH4 0x98D5FDCA GT PUSH2 0x7E JUMPI DUP1 PUSH4 0xD78A29D2 GT PUSH2 0x58 JUMPI DUP1 PUSH4 0xD78A29D2 EQ PUSH2 0x23E JUMPI DUP1 PUSH4 0xDBA6335F EQ PUSH2 0x266 JUMPI DUP1 PUSH4 0xDC0D3DFF EQ PUSH2 0x290 JUMPI DUP1 PUSH4 0xF8024578 EQ PUSH2 0x2CC JUMPI PUSH2 0xD4 JUMP JUMPDEST DUP1 PUSH4 0x98D5FDCA EQ PUSH2 0x1CE JUMPI DUP1 PUSH4 0xB60D4288 EQ PUSH2 0x1F8 JUMPI DUP1 PUSH4 0xCC3B589E EQ PUSH2 0x202 JUMPI PUSH2 0xD4 JUMP JUMPDEST DUP1 PUSH4 0x34855C7 EQ PUSH2 0xD8 JUMPI DUP1 PUSH4 0x98DE820 EQ PUSH2 0x114 JUMPI DUP1 PUSH4 0x3E9F607C EQ PUSH2 0x13E JUMPI DUP1 PUSH4 0x455FD623 EQ PUSH2 0x17A JUMPI DUP1 PUSH4 0x5EB8D90B EQ PUSH2 0x190 JUMPI DUP1 PUSH4 0x71D2EE6C EQ PUSH2 0x1A6 JUMPI PUSH2 0xD4 JUMP JUMPDEST CALLDATASIZE PUSH2 0xD4 JUMPI PUSH2 0xD2 PUSH2 0x308 JUMP JUMPDEST STOP JUMPDEST PUSH0 DUP1 REVERT JUMPDEST CALLVALUE DUP1 ISZERO PUSH2 0xE3 JUMPI PUSH0 DUP1 REVERT JUMPDEST POP PUSH2 0xFE PUSH1 0x4 DUP1 CALLDATASIZE SUB DUP2 ADD SWAP1 PUSH2 0xF9 SWAP2 SWAP1 PUSH2 0x119C JUMP JUMPDEST PUSH2 0x507 JUMP JUMPDEST PUSH1 0x40 MLOAD PUSH2 0x10B SWAP2 SWAP1 PUSH2 0x11DF JUMP JUMPDEST PUSH1 0x40 MLOAD DUP1 SWAP2 SUB SWAP1 RETURN JUMPDEST CALLVALUE DUP1 ISZERO PUSH2 0x11F JUMPI PUSH0 DUP1 REVERT JUMPDEST POP PUSH2 0x128 PUSH2 0x51C JUMP JUMPDEST PUSH1 0x40 MLOAD PUSH2 0x135 SWAP2 SWAP1 PUSH2 0x11DF JUMP JUMPDEST PUSH1 0x40 MLOAD DUP1 SWAP2 SUB SWAP1 RETURN JUMPDEST CALLVALUE DUP1 ISZERO PUSH2 0x149 JUMPI PUSH0 DUP1 REVERT JUMPDEST POP PUSH2 0x164 PUSH1 0x4 DUP1 CALLDATASIZE SUB DUP2 ADD SWAP1 PUSH2 0x15F SWAP2 SWAP1 PUSH2 0x1222 JUMP JUMPDEST PUSH2 0x522 JUMP JUMPDEST PUSH1 0x40 MLOAD PUSH2 0x171 SWAP2 SWAP1 PUSH2 0x11DF JUMP JUMPDEST PUSH1 0x40 MLOAD DUP1 SWAP2 SUB SWAP1 RETURN JUMPDEST CALLVALUE DUP1 ISZERO PUSH2 0x185 JUMPI PUSH0 DUP1 REVERT JUMPDEST POP PUSH2 0x18E PUSH2 0x54A JUMP JUMPDEST STOP JUMPDEST CALLVALUE DUP1 ISZERO PUSH2 0x19B JUMPI PUSH0 DUP1 REVERT JUMPDEST POP PUSH2 0x1A4 PUSH2 0x74D JUMP JUMPDEST STOP JUMPDEST CALLVALUE DUP1 ISZERO PUSH2 0x1B1 JUMPI PUSH0 DUP1 REVERT JUMPDEST POP PUSH2 0x1CC PUSH1 0x4 DUP1 CALLDATASIZE SUB DUP2 ADD SWAP1 PUSH2 0x1C7 SWAP2 SWAP1 PUSH2 0x1260 JUMP JUMPDEST PUSH2 0x895 JUMP JUMPDEST STOP JUMPDEST CALLVALUE DUP1 ISZERO PUSH2 0x1D9 JUMPI PUSH0 DUP1 REVERT JUMPDEST POP PUSH2 0x1E2 PUSH2 0xAFB JUMP JUMPDEST PUSH1 0x40 MLOAD PUSH2 0x1EF SWAP2 SWAP1 PUSH2 0x11DF JUMP JUMPDEST PUSH1 0x40 MLOAD DUP1 SWAP2 SUB SWAP1 RETURN JUMPDEST PUSH2 0x200 PUSH2 0x308 JUMP JUMPDEST STOP JUMPDEST CALLVALUE DUP1 ISZERO PUSH2 0x20D JUMPI PUSH0 DUP1 REVERT JUMPDEST POP PUSH2 0x228 PUSH1 0x4 DUP1 CALLDATASIZE SUB DUP2 ADD SWAP1 PUSH2 0x223 SWAP2 SWAP1 PUSH2 0x119C JUMP JUMPDEST PUSH2 0xBD5 JUMP JUMPDEST PUSH1 0x40 MLOAD PUSH2 0x235 SWAP2 SWAP1 PUSH2 0x11DF JUMP JUMPDEST PUSH1 0x40 MLOAD DUP1 SWAP2 SUB SWAP1 RETURN JUMPDEST CALLVALUE DUP1 ISZERO PUSH2 0x249 JUMPI PUSH0 DUP1 REVERT JUMPDEST POP PUSH2 0x264 PUSH1 0x4 DUP1 CALLDATASIZE SUB DUP2 ADD SWAP1 PUSH2 0x25F SWAP2 SWAP1 PUSH2 0x1260 JUMP JUMPDEST PUSH2 0xBEA JUMP JUMPDEST STOP JUMPDEST CALLVALUE DUP1 ISZERO PUSH2 0x271 JUMPI PUSH0 DUP1 REVERT JUMPDEST POP PUSH2 0x27A PUSH2 0xCDA JUMP JUMPDEST PUSH1 0x40 MLOAD PUSH2 0x287 SWAP2 SWAP1 PUSH2 0x129A JUMP JUMPDEST PUSH1 0x40 MLOAD DUP1 SWAP2 SUB SWAP1 RETURN JUMPDEST CALLVALUE DUP1 ISZERO PUSH2 0x29B JUMPI PUSH0 DUP1 REVERT JUMPDEST POP PUSH2 0x2B6 PUSH1 0x4 DUP1 CALLDATASIZE SUB DUP2 ADD SWAP1 PUSH2 0x2B1 SWAP2 SWAP1 PUSH2 0x1260 JUMP JUMPDEST PUSH2 0xCFE JUMP JUMPDEST PUSH1 0x40 MLOAD PUSH2 0x2C3 SWAP2 SWAP1 PUSH2 0x129A JUMP JUMPDEST PUSH1 0x40 MLOAD DUP1 SWAP2 SUB SWAP1 RETURN JUMPDEST CALLVALUE DUP1 ISZERO PUSH2 0x2D7 JUMPI PUSH0 DUP1 REVERT JUMPDEST POP PUSH2 0x2F2 PUSH1 0x4 DUP1 CALLDATASIZE SUB DUP2 ADD SWAP1 PUSH2 0x2ED SWAP2 SWAP1 PUSH2 0x119C JUMP JUMPDEST PUSH2 0xD39 JUMP JUMPDEST PUSH1 0x40 MLOAD PUSH2 0x2FF SWAP2 SWAP1 PUSH2 0x12CD JUMP JUMPDEST PUSH1 0x40 MLOAD DUP1 SWAP2 SUB SWAP1 RETURN JUMPDEST PUSH0 PUSH2 0x311 PUSH2 0xAFB JUMP JUMPDEST SWAP1 POP PUSH0 PUSH2 0x31E DUP3 CALLVALUE PUSH2 0x522 JUMP JUMPDEST SWAP1 POP PUSH1 0x1 SLOAD DUP2 LT ISZERO PUSH2 0x365 JUMPI PUSH1 0x40 MLOAD PUSH32 0x8C379A000000000000000000000000000000000000000000000000000000000 DUP2 MSTORE PUSH1 0x4 ADD PUSH2 0x35C SWAP1 PUSH2 0x1340 JUMP JUMPDEST PUSH1 0x40 MLOAD DUP1 SWAP2 SUB SWAP1 REVERT JUMPDEST PUSH1 0x4 PUSH0 CALLER PUSH20 0xFFFFFFFFFFFFFFFFFFFFFFFFFFFFFFFFFFFFFFFF AND PUSH20 0xFFFFFFFFFFFFFFFFFFFFFFFFFFFFFFFFFFFFFFFF AND DUP2 MSTORE PUSH1 0x20 ADD SWAP1 DUP2 MSTORE PUSH1 0x20 ADD PUSH0 KECCAK256 PUSH0 SWAP1 SLOAD SWAP1 PUSH2 0x100 EXP SWAP1 DIV PUSH1 0xFF AND PUSH2 0x4B0 JUMPI PUSH1 0x2 DUP1 SLOAD SWAP1 POP PUSH1 0x3 PUSH0 CALLER PUSH20 0xFFFFFFFFFFFFFFFFFFFFFFFFFFFFFFFFFFFFFFFF AND PUSH20 0xFFFFFFFFFFFFFFFFFFFFFFFFFFFFFFFFFFFFFFFF AND DUP2 MSTORE PUSH1 0x20 ADD SWAP1 DUP2 MSTORE PUSH1 0x20 ADD PUSH0 KECCAK256 DUP2 SWAP1 SSTORE POP PUSH1 0x2 CALLER SWAP1 DUP1 PUSH1 0x1 DUP2 SLOAD ADD DUP1 DUP3 SSTORE DUP1 SWAP2 POP POP PUSH1 0x1 SWAP1 SUB SWAP1 PUSH0 MSTORE PUSH1 0x20 PUSH0 KECCAK256 ADD PUSH0 SWAP1 SWAP2 SWAP1 SWAP2 SWAP1 SWAP2 PUSH2 0x100 EXP DUP2 SLOAD DUP2 PUSH20 0xFFFFFFFFFFFFFFFFFFFFFFFFFFFFFFFFFFFFFFFF MUL NOT AND SWAP1 DUP4 PUSH20 0xFFFFFFFFFFFFFFFFFFFFFFFFFFFFFFFFFFFFFFFF AND MUL OR SWAP1 SSTORE POP PUSH1 0x1 PUSH1 0x4 PUSH0 CALLER PUSH20 0xFFFFFFFFFFFFFFFFFFFFFFFFFFFFFFFFFFFFFFFF AND PUSH20 0xFFFFFFFFFFFFFFFFFFFFFFFFFFFFFFFFFFFFFFFF AND DUP2 MSTORE PUSH1 0x20 ADD SWAP1 DUP2 MSTORE PUSH1 0x20 ADD PUSH0 KECCAK256 PUSH0 PUSH2 0x100 EXP DUP2 SLOAD DUP2 PUSH1 0xFF MUL NOT AND SWAP1 DUP4 ISZERO ISZERO MUL OR SWAP1 SSTORE POP JUMPDEST CALLVALUE PUSH1 0x5 PUSH0 CALLER PUSH20 0xFFFFFFFFFFFFFFFFFFFFFFFFFFFFFFFFFFFFFFFF AND PUSH20 0xFFFFFFFFFFFFFFFFFFFFFFFFFFFFFFFFFFFFFFFF AND DUP2 MSTORE PUSH1 0x20 ADD SWAP1 DUP2 MSTORE PUSH1 0x20 ADD PUSH0 KECCAK256 PUSH0 DUP3 DUP3 SLOAD PUSH2 0x4FC SWAP2 SWAP1 PUSH2 0x138B JUMP JUMPDEST SWAP3 POP POP DUP2 SWAP1 SSTORE POP POP POP JUMP JUMPDEST PUSH1 0x5 PUSH1 0x20 MSTORE DUP1 PUSH0 MSTORE PUSH1 0x40 PUSH0 KECCAK256 PUSH0 SWAP2 POP SWAP1 POP SLOAD DUP2 JUMP JUMPDEST PUSH1 0x1 SLOAD DUP2 JUMP JUMPDEST PUSH0 PUSH8 0xDE0B6B3A7640000 DUP3 DUP5 PUSH2 0x538 SWAP2 SWAP1 PUSH2 0x13BE JUMP JUMPDEST PUSH2 0x542 SWAP2 SWAP1 PUSH2 0x142C JUMP JUMPDEST SWAP1 POP SWAP3 SWAP2 POP POP JUMP JUMPDEST PUSH0 ISZERO ISZERO PUSH0 DUP1 SLOAD SWAP1 PUSH2 0x100 EXP SWAP1 DIV PUSH1 0xFF AND ISZERO ISZERO EQ PUSH2 0x59C JUMPI PUSH1 0x40 MLOAD PUSH32 0x8C379A000000000000000000000000000000000000000000000000000000000 DUP2 MSTORE PUSH1 0x4 ADD PUSH2 0x593 SWAP1 PUSH2 0x14CC JUMP JUMPDEST PUSH1 0x40 MLOAD DUP1 SWAP2 SUB SWAP1 REVERT JUMPDEST PUSH1 0x1 PUSH0 DUP1 PUSH2 0x100 EXP DUP2 SLOAD DUP2 PUSH1 0xFF MUL NOT AND SWAP1 DUP4 ISZERO ISZERO MUL OR SWAP1 SSTORE POP PUSH0 PUSH1 0x5 PUSH0 CALLER PUSH20 0xFFFFFFFFFFFFFFFFFFFFFFFFFFFFFFFFFFFFFFFF AND PUSH20 0xFFFFFFFFFFFFFFFFFFFFFFFFFFFFFFFFFFFFFFFF AND DUP2 MSTORE PUSH1 0x20 ADD SWAP1 DUP2 MSTORE PUSH1 0x20 ADD PUSH0 KECCAK256 SLOAD SWAP1 POP PUSH0 DUP2 GT PUSH2 0x638 JUMPI PUSH1 0x40 MLOAD PUSH32 0x8C379A000000000000000000000000000000000000000000000000000000000 DUP2 MSTORE PUSH1 0x4 ADD PUSH2 0x62F SWAP1 PUSH2 0x1534 JUMP JUMPDEST PUSH1 0x40 MLOAD DUP1 SWAP2 SUB SWAP1 REVERT JUMPDEST PUSH0 PUSH1 0x5 PUSH0 CALLER PUSH20 0xFFFFFFFFFFFFFFFFFFFFFFFFFFFFFFFFFFFFFFFF AND PUSH20 0xFFFFFFFFFFFFFFFFFFFFFFFFFFFFFFFFFFFFFFFF AND DUP2 MSTORE PUSH1 0x20 ADD SWAP1 DUP2 MSTORE PUSH1 0x20 ADD PUSH0 KECCAK256 DUP2 SWAP1 SSTORE POP PUSH0 CALLER PUSH20 0xFFFFFFFFFFFFFFFFFFFFFFFFFFFFFFFFFFFFFFFF AND DUP3 PUSH1 0x40 MLOAD PUSH2 0x69F SWAP1 PUSH2 0x157F JUMP JUMPDEST PUSH0 PUSH1 0x40 MLOAD DUP1 DUP4 SUB DUP2 DUP6 DUP8 GAS CALL SWAP3 POP POP POP RETURNDATASIZE DUP1 PUSH0 DUP2 EQ PUSH2 0x6D9 JUMPI PUSH1 0x40 MLOAD SWAP2 POP PUSH1 0x1F NOT PUSH1 0x3F RETURNDATASIZE ADD AND DUP3 ADD PUSH1 0x40 MSTORE RETURNDATASIZE DUP3 MSTORE RETURNDATASIZE PUSH0 PUSH1 0x20 DUP5 ADD RETURNDATACOPY PUSH2 0x6DE JUMP JUMPDEST PUSH1 0x60 SWAP2 POP JUMPDEST POP POP SWAP1 POP PUSH1 0x1 ISZERO ISZERO DUP2 ISZERO ISZERO EQ PUSH2 0x729 JUMPI PUSH1 0x40 MLOAD PUSH32 0x8C379A000000000000000000000000000000000000000000000000000000000 DUP2 MSTORE PUSH1 0x4 ADD PUSH2 0x720 SWAP1 PUSH2 0x15DD JUMP JUMPDEST PUSH1 0x40 MLOAD DUP1 SWAP2 SUB SWAP1 REVERT JUMPDEST PUSH2 0x731 PUSH2 0xD56 JUMP JUMPDEST POP POP PUSH0 DUP1 PUSH0 PUSH2 0x100 EXP DUP2 SLOAD DUP2 PUSH1 0xFF MUL NOT AND SWAP1 DUP4 ISZERO ISZERO MUL OR SWAP1 SSTORE POP JUMP JUMPDEST PUSH32 0x0 PUSH20 0xFFFFFFFFFFFFFFFFFFFFFFFFFFFFFFFFFFFFFFFF AND CALLER PUSH20 0xFFFFFFFFFFFFFFFFFFFFFFFFFFFFFFFFFFFFFFFF AND EQ PUSH2 0x7DB JUMPI PUSH1 0x40 MLOAD PUSH32 0x8C379A000000000000000000000000000000000000000000000000000000000 DUP2 MSTORE PUSH1 0x4 ADD PUSH2 0x7D2 SWAP1 PUSH2 0x166B JUMP JUMPDEST PUSH1 0x40 MLOAD DUP1 SWAP2 SUB SWAP1 REVERT JUMPDEST PUSH0 CALLER PUSH20 0xFFFFFFFFFFFFFFFFFFFFFFFFFFFFFFFFFFFFFFFF AND SELFBALANCE PUSH1 0x40 MLOAD PUSH2 0x800 SWAP1 PUSH2 0x157F JUMP JUMPDEST PUSH0 PUSH1 0x40 MLOAD DUP1 DUP4 SUB DUP2 DUP6 DUP8 GAS CALL SWAP3 POP POP POP RETURNDATASIZE DUP1 PUSH0 DUP2 EQ PUSH2 0x83A JUMPI PUSH1 0x40 MLOAD SWAP2 POP PUSH1 0x1F NOT PUSH1 0x3F RETURNDATASIZE ADD AND DUP3 ADD PUSH1 0x40 MSTORE RETURNDATASIZE DUP3 MSTORE RETURNDATASIZE PUSH0 PUSH1 0x20 DUP5 ADD RETURNDATACOPY PUSH2 0x83F JUMP JUMPDEST PUSH1 0x60 SWAP2 POP JUMPDEST POP POP SWAP1 POP PUSH1 0x1 ISZERO ISZERO DUP2 ISZERO ISZERO EQ PUSH2 0x88A JUMPI PUSH1 0x40 MLOAD PUSH32 0x8C379A000000000000000000000000000000000000000000000000000000000 DUP2 MSTORE PUSH1 0x4 ADD PUSH2 0x881 SWAP1 PUSH2 0x15DD JUMP JUMPDEST PUSH1 0x40 MLOAD DUP1 SWAP2 SUB SWAP1 REVERT JUMPDEST PUSH2 0x892 PUSH2 0xFB5 JUMP JUMPDEST POP JUMP JUMPDEST PUSH0 ISZERO ISZERO PUSH0 DUP1 SLOAD SWAP1 PUSH2 0x100 EXP SWAP1 DIV PUSH1 0xFF AND ISZERO ISZERO EQ PUSH2 0x8E7 JUMPI PUSH1 0x40 MLOAD PUSH32 0x8C379A000000000000000000000000000000000000000000000000000000000 DUP2 MSTORE PUSH1 0x4 ADD PUSH2 0x8DE SWAP1 PUSH2 0x14CC JUMP JUMPDEST PUSH1 0x40 MLOAD DUP1 SWAP2 SUB SWAP1 REVERT JUMPDEST PUSH1 0x1 PUSH0 DUP1 PUSH2 0x100 EXP DUP2 SLOAD DUP2 PUSH1 0xFF MUL NOT AND SWAP1 DUP4 ISZERO ISZERO MUL OR SWAP1 SSTORE POP PUSH1 0x1 ISZERO ISZERO PUSH1 0x4 PUSH0 CALLER PUSH20 0xFFFFFFFFFFFFFFFFFFFFFFFFFFFFFFFFFFFFFFFF AND PUSH20 0xFFFFFFFFFFFFFFFFFFFFFFFFFFFFFFFFFFFFFFFF AND DUP2 MSTORE PUSH1 0x20 ADD SWAP1 DUP2 MSTORE PUSH1 0x20 ADD PUSH0 KECCAK256 PUSH0 SWAP1 SLOAD SWAP1 PUSH2 0x100 EXP SWAP1 DIV PUSH1 0xFF AND ISZERO ISZERO EQ PUSH2 0x990 JUMPI PUSH1 0x40 MLOAD PUSH32 0x8C379A000000000000000000000000000000000000000000000000000000000 DUP2 MSTORE PUSH1 0x4 ADD PUSH2 0x987 SWAP1 PUSH2 0x16D3 JUMP JUMPDEST PUSH1 0x40 MLOAD DUP1 SWAP2 SUB SWAP1 REVERT JUMPDEST DUP1 PUSH1 0x5 PUSH0 CALLER PUSH20 0xFFFFFFFFFFFFFFFFFFFFFFFFFFFFFFFFFFFFFFFF AND PUSH20 0xFFFFFFFFFFFFFFFFFFFFFFFFFFFFFFFFFFFFFFFF AND DUP2 MSTORE PUSH1 0x20 ADD SWAP1 DUP2 MSTORE PUSH1 0x20 ADD PUSH0 KECCAK256 PUSH0 DUP3 DUP3 SLOAD PUSH2 0x9DC SWAP2 SWAP1 PUSH2 0x16F1 JUMP JUMPDEST SWAP3 POP POP DUP2 SWAP1 SSTORE POP PUSH0 CALLER PUSH20 0xFFFFFFFFFFFFFFFFFFFFFFFFFFFFFFFFFFFFFFFF AND DUP3 PUSH1 0x40 MLOAD PUSH2 0xA08 SWAP1 PUSH2 0x157F JUMP JUMPDEST PUSH0 PUSH1 0x40 MLOAD DUP1 DUP4 SUB DUP2 DUP6 DUP8 GAS CALL SWAP3 POP POP POP RETURNDATASIZE DUP1 PUSH0 DUP2 EQ PUSH2 0xA42 JUMPI PUSH1 0x40 MLOAD SWAP2 POP PUSH1 0x1F NOT PUSH1 0x3F RETURNDATASIZE ADD AND DUP3 ADD PUSH1 0x40 MSTORE RETURNDATASIZE DUP3 MSTORE RETURNDATASIZE PUSH0 PUSH1 0x20 DUP5 ADD RETURNDATACOPY PUSH2 0xA47 JUMP JUMPDEST PUSH1 0x60 SWAP2 POP JUMPDEST POP POP SWAP1 POP PUSH1 0x1 ISZERO ISZERO DUP2 ISZERO ISZERO EQ PUSH2 0xA92 JUMPI PUSH1 0x40 MLOAD PUSH32 0x8C379A000000000000000000000000000000000000000000000000000000000 DUP2 MSTORE PUSH1 0x4 ADD PUSH2 0xA89 SWAP1 PUSH2 0x15DD JUMP JUMPDEST PUSH1 0x40 MLOAD DUP1 SWAP2 SUB SWAP1 REVERT JUMPDEST PUSH0 PUSH1 0x5 PUSH0 CALLER PUSH20 0xFFFFFFFFFFFFFFFFFFFFFFFFFFFFFFFFFFFFFFFF AND PUSH20 0xFFFFFFFFFFFFFFFFFFFFFFFFFFFFFFFFFFFFFFFF AND DUP2 MSTORE PUSH1 0x20 ADD SWAP1 DUP2 MSTORE PUSH1 0x20 ADD PUSH0 KECCAK256 SLOAD GT PUSH2 0xADF JUMPI PUSH2 0xADE PUSH2 0xD56 JUMP JUMPDEST JUMPDEST POP PUSH0 DUP1 PUSH0 PUSH2 0x100 EXP DUP2 SLOAD DUP2 PUSH1 0xFF MUL NOT AND SWAP1 DUP4 ISZERO ISZERO MUL OR SWAP1 SSTORE POP POP JUMP JUMPDEST PUSH0 DUP1 PUSH20 0x694AA1769357215DE4FAC081BF1F309ADC325306 PUSH20 0xFFFFFFFFFFFFFFFFFFFFFFFFFFFFFFFFFFFFFFFF AND PUSH4 0xFEAF968C PUSH1 0x40 MLOAD DUP2 PUSH4 0xFFFFFFFF AND PUSH1 0xE0 SHL DUP2 MSTORE PUSH1 0x4 ADD PUSH1 0xA0 PUSH1 0x40 MLOAD DUP1 DUP4 SUB DUP2 DUP7 GAS STATICCALL ISZERO DUP1 ISZERO PUSH2 0xB5A JUMPI RETURNDATASIZE PUSH0 DUP1 RETURNDATACOPY RETURNDATASIZE PUSH0 REVERT JUMPDEST POP POP POP POP PUSH1 0x40 MLOAD RETURNDATASIZE PUSH1 0x1F NOT PUSH1 0x1F DUP3 ADD AND DUP3 ADD DUP1 PUSH1 0x40 MSTORE POP DUP2 ADD SWAP1 PUSH2 0xB7E SWAP2 SWAP1 PUSH2 0x17AA JUMP JUMPDEST POP POP POP SWAP2 POP POP PUSH0 DUP2 SGT PUSH2 0xBC6 JUMPI PUSH1 0x40 MLOAD PUSH32 0x8C379A000000000000000000000000000000000000000000000000000000000 DUP2 MSTORE PUSH1 0x4 ADD PUSH2 0xBBD SWAP1 PUSH2 0x186B JUMP JUMPDEST PUSH1 0x40 MLOAD DUP1 SWAP2 SUB SWAP1 REVERT JUMPDEST PUSH2 0xBCF DUP2 PUSH2 0x10B7 JUMP JUMPDEST SWAP2 POP POP SWAP1 JUMP JUMPDEST PUSH1 0x3 PUSH1 0x20 MSTORE DUP1 PUSH0 MSTORE PUSH1 0x40 PUSH0 KECCAK256 PUSH0 SWAP2 POP SWAP1 POP SLOAD DUP2 JUMP JUMPDEST PUSH32 0x0 PUSH20 0xFFFFFFFFFFFFFFFFFFFFFFFFFFFFFFFFFFFFFFFF AND CALLER PUSH20 0xFFFFFFFFFFFFFFFFFFFFFFFFFFFFFFFFFFFFFFFF AND EQ PUSH2 0xC78 JUMPI PUSH1 0x40 MLOAD PUSH32 0x8C379A000000000000000000000000000000000000000000000000000000000 DUP2 MSTORE PUSH1 0x4 ADD PUSH2 0xC6F SWAP1 PUSH2 0x166B JUMP JUMPDEST PUSH1 0x40 MLOAD DUP1 SWAP2 SUB SWAP1 REVERT JUMPDEST PUSH0 PUSH4 0x5F5E100 DUP3 PUSH2 0xC89 SWAP2 SWAP1 PUSH2 0x13BE JUMP JUMPDEST SWAP1 POP PUSH1 0x1 SLOAD DUP2 SUB PUSH2 0xCCF JUMPI PUSH1 0x40 MLOAD PUSH32 0x8C379A000000000000000000000000000000000000000000000000000000000 DUP2 MSTORE PUSH1 0x4 ADD PUSH2 0xCC6 SWAP1 PUSH2 0x18F9 JUMP JUMPDEST PUSH1 0x40 MLOAD DUP1 SWAP2 SUB SWAP1 REVERT JUMPDEST DUP1 PUSH1 0x1 DUP2 SWAP1 SSTORE POP POP POP JUMP JUMPDEST PUSH32 0x0 DUP2 JUMP JUMPDEST PUSH1 0x2 DUP2 DUP2 SLOAD DUP2 LT PUSH2 0xD0D JUMPI PUSH0 DUP1 REVERT JUMPDEST SWAP1 PUSH0 MSTORE PUSH1 0x20 PUSH0 KECCAK256 ADD PUSH0 SWAP2 POP SLOAD SWAP1 PUSH2 0x100 EXP SWAP1 DIV PUSH20 0xFFFFFFFFFFFFFFFFFFFFFFFFFFFFFFFFFFFFFFFF AND DUP2 JUMP JUMPDEST PUSH1 0x4 PUSH1 0x20 MSTORE DUP1 PUSH0 MSTORE PUSH1 0x40 PUSH0 KECCAK256 PUSH0 SWAP2 POP SLOAD SWAP1 PUSH2 0x100 EXP SWAP1 DIV PUSH1 0xFF AND DUP2 JUMP JUMPDEST PUSH0 PUSH1 0x2 PUSH1 0x1 PUSH1 0x2 DUP1 SLOAD SWAP1 POP PUSH2 0xD6B SWAP2 SWAP1 PUSH2 0x16F1 JUMP JUMPDEST DUP2 SLOAD DUP2 LT PUSH2 0xD7C JUMPI PUSH2 0xD7B PUSH2 0x1917 JUMP JUMPDEST JUMPDEST SWAP1 PUSH0 MSTORE PUSH1 0x20 PUSH0 KECCAK256 ADD PUSH0 SWAP1 SLOAD SWAP1 PUSH2 0x100 EXP SWAP1 DIV PUSH20 0xFFFFFFFFFFFFFFFFFFFFFFFFFFFFFFFFFFFFFFFF AND SWAP1 POP PUSH0 PUSH1 0x3 PUSH0 CALLER PUSH20 0xFFFFFFFFFFFFFFFFFFFFFFFFFFFFFFFFFFFFFFFF AND PUSH20 0xFFFFFFFFFFFFFFFFFFFFFFFFFFFFFFFFFFFFFFFF AND DUP2 MSTORE PUSH1 0x20 ADD SWAP1 DUP2 MSTORE PUSH1 0x20 ADD PUSH0 KECCAK256 SLOAD SWAP1 POP PUSH1 0x1 PUSH1 0x2 DUP1 SLOAD SWAP1 POP PUSH2 0xDF9 SWAP2 SWAP1 PUSH2 0x16F1 JUMP JUMPDEST PUSH1 0x3 PUSH0 CALLER PUSH20 0xFFFFFFFFFFFFFFFFFFFFFFFFFFFFFFFFFFFFFFFF AND PUSH20 0xFFFFFFFFFFFFFFFFFFFFFFFFFFFFFFFFFFFFFFFF AND DUP2 MSTORE PUSH1 0x20 ADD SWAP1 DUP2 MSTORE PUSH1 0x20 ADD PUSH0 KECCAK256 SLOAD EQ PUSH2 0xED9 JUMPI DUP2 PUSH1 0x2 DUP3 DUP2 SLOAD DUP2 LT PUSH2 0xE51 JUMPI PUSH2 0xE50 PUSH2 0x1917 JUMP JUMPDEST JUMPDEST SWAP1 PUSH0 MSTORE PUSH1 0x20 PUSH0 KECCAK256 ADD PUSH0 PUSH2 0x100 EXP DUP2 SLOAD DUP2 PUSH20 0xFFFFFFFFFFFFFFFFFFFFFFFFFFFFFFFFFFFFFFFF MUL NOT AND SWAP1 DUP4 PUSH20 0xFFFFFFFFFFFFFFFFFFFFFFFFFFFFFFFFFFFFFFFF AND MUL OR SWAP1 SSTORE POP DUP1 PUSH1 0x3 PUSH0 DUP5 PUSH20 0xFFFFFFFFFFFFFFFFFFFFFFFFFFFFFFFFFFFFFFFF AND PUSH20 0xFFFFFFFFFFFFFFFFFFFFFFFFFFFFFFFFFFFFFFFF AND DUP2 MSTORE PUSH1 0x20 ADD SWAP1 DUP2 MSTORE PUSH1 0x20 ADD PUSH0 KECCAK256 DUP2 SWAP1 SSTORE POP JUMPDEST PUSH1 0x2 DUP1 SLOAD DUP1 PUSH2 0xEEB JUMPI PUSH2 0xEEA PUSH2 0x1944 JUMP JUMPDEST JUMPDEST PUSH1 0x1 SWAP1 SUB DUP2 DUP2 SWAP1 PUSH0 MSTORE PUSH1 0x20 PUSH0 KECCAK256 ADD PUSH0 PUSH2 0x100 EXP DUP2 SLOAD SWAP1 PUSH20 0xFFFFFFFFFFFFFFFFFFFFFFFFFFFFFFFFFFFFFFFF MUL NOT AND SWAP1 SSTORE SWAP1 SSTORE PUSH1 0x3 PUSH0 CALLER PUSH20 0xFFFFFFFFFFFFFFFFFFFFFFFFFFFFFFFFFFFFFFFF AND PUSH20 0xFFFFFFFFFFFFFFFFFFFFFFFFFFFFFFFFFFFFFFFF AND DUP2 MSTORE PUSH1 0x20 ADD SWAP1 DUP2 MSTORE PUSH1 0x20 ADD PUSH0 KECCAK256 PUSH0 SWAP1 SSTORE PUSH0 PUSH1 0x4 PUSH0 CALLER PUSH20 0xFFFFFFFFFFFFFFFFFFFFFFFFFFFFFFFFFFFFFFFF AND PUSH20 0xFFFFFFFFFFFFFFFFFFFFFFFFFFFFFFFFFFFFFFFF AND DUP2 MSTORE PUSH1 0x20 ADD SWAP1 DUP2 MSTORE PUSH1 0x20 ADD PUSH0 KECCAK256 PUSH0 PUSH2 0x100 EXP DUP2 SLOAD DUP2 PUSH1 0xFF MUL NOT AND SWAP1 DUP4 ISZERO ISZERO MUL OR SWAP1 SSTORE POP POP POP JUMP JUMPDEST PUSH0 JUMPDEST PUSH1 0x2 DUP1 SLOAD SWAP1 POP DUP2 LT ISZERO PUSH2 0x10A7 JUMPI PUSH0 PUSH1 0x2 DUP3 DUP2 SLOAD DUP2 LT PUSH2 0xFD9 JUMPI PUSH2 0xFD8 PUSH2 0x1917 JUMP JUMPDEST JUMPDEST SWAP1 PUSH0 MSTORE PUSH1 0x20 PUSH0 KECCAK256 ADD PUSH0 SWAP1 SLOAD SWAP1 PUSH2 0x100 EXP SWAP1 DIV PUSH20 0xFFFFFFFFFFFFFFFFFFFFFFFFFFFFFFFFFFFFFFFF AND SWAP1 POP PUSH0 PUSH1 0x3 PUSH0 DUP4 PUSH20 0xFFFFFFFFFFFFFFFFFFFFFFFFFFFFFFFFFFFFFFFF AND PUSH20 0xFFFFFFFFFFFFFFFFFFFFFFFFFFFFFFFFFFFFFFFF AND DUP2 MSTORE PUSH1 0x20 ADD SWAP1 DUP2 MSTORE PUSH1 0x20 ADD PUSH0 KECCAK256 DUP2 SWAP1 SSTORE POP PUSH0 PUSH1 0x4 PUSH0 DUP4 PUSH20 0xFFFFFFFFFFFFFFFFFFFFFFFFFFFFFFFFFFFFFFFF AND PUSH20 0xFFFFFFFFFFFFFFFFFFFFFFFFFFFFFFFFFFFFFFFF AND DUP2 MSTORE PUSH1 0x20 ADD SWAP1 DUP2 MSTORE PUSH1 0x20 ADD PUSH0 KECCAK256 PUSH0 PUSH2 0x100 EXP DUP2 SLOAD DUP2 PUSH1 0xFF MUL NOT AND SWAP1 DUP4 ISZERO ISZERO MUL OR SWAP1 SSTORE POP POP DUP1 DUP1 PUSH1 0x1 ADD SWAP2 POP POP PUSH2 0xFB7 JUMP JUMPDEST POP PUSH1 0x2 PUSH0 PUSH2 0x10B5 SWAP2 SWAP1 PUSH2 0x1105 JUMP JUMPDEST JUMP JUMPDEST PUSH0 DUP1 DUP3 SLT ISZERO PUSH2 0x10FD JUMPI DUP2 PUSH1 0x40 MLOAD PUSH32 0xA8CE443200000000000000000000000000000000000000000000000000000000 DUP2 MSTORE PUSH1 0x4 ADD PUSH2 0x10F4 SWAP2 SWAP1 PUSH2 0x1980 JUMP JUMPDEST PUSH1 0x40 MLOAD DUP1 SWAP2 SUB SWAP1 REVERT JUMPDEST DUP2 SWAP1 POP SWAP2 SWAP1 POP JUMP JUMPDEST POP DUP1 SLOAD PUSH0 DUP3 SSTORE SWAP1 PUSH0 MSTORE PUSH1 0x20 PUSH0 KECCAK256 SWAP1 DUP2 ADD SWAP1 PUSH2 0x1120 SWAP2 SWAP1 PUSH2 0x1123 JUMP JUMPDEST POP JUMP JUMPDEST JUMPDEST DUP1 DUP3 GT ISZERO PUSH2 0x113A JUMPI PUSH0 DUP2 PUSH0 SWAP1 SSTORE POP PUSH1 0x1 ADD PUSH2 0x1124 JUMP JUMPDEST POP SWAP1 JUMP JUMPDEST PUSH0 DUP1 REVERT JUMPDEST PUSH0 PUSH20 0xFFFFFFFFFFFFFFFFFFFFFFFFFFFFFFFFFFFFFFFF DUP3 AND SWAP1 POP SWAP2 SWAP1 POP JUMP JUMPDEST PUSH0 PUSH2 0x116B DUP3 PUSH2 0x1142 JUMP JUMPDEST SWAP1 POP SWAP2 SWAP1 POP JUMP JUMPDEST PUSH2 0x117B DUP2 PUSH2 0x1161 JUMP JUMPDEST DUP2 EQ PUSH2 0x1185 JUMPI PUSH0 DUP1 REVERT JUMPDEST POP JUMP JUMPDEST PUSH0 DUP2 CALLDATALOAD SWAP1 POP PUSH2 0x1196 DUP2 PUSH2 0x1172 JUMP JUMPDEST SWAP3 SWAP2 POP POP JUMP JUMPDEST PUSH0 PUSH1 0x20 DUP3 DUP5 SUB SLT ISZERO PUSH2 0x11B1 JUMPI PUSH2 0x11B0 PUSH2 0x113E JUMP JUMPDEST JUMPDEST PUSH0 PUSH2 0x11BE DUP5 DUP3 DUP6 ADD PUSH2 0x1188 JUMP JUMPDEST SWAP2 POP POP SWAP3 SWAP2 POP POP JUMP JUMPDEST PUSH0 DUP2 SWAP1 POP SWAP2 SWAP1 POP JUMP JUMPDEST PUSH2 0x11D9 DUP2 PUSH2 0x11C7 JUMP JUMPDEST DUP3 MSTORE POP POP JUMP JUMPDEST PUSH0 PUSH1 0x20 DUP3 ADD SWAP1 POP PUSH2 0x11F2 PUSH0 DUP4 ADD DUP5 PUSH2 0x11D0 JUMP JUMPDEST SWAP3 SWAP2 POP POP JUMP JUMPDEST PUSH2 0x1201 DUP2 PUSH2 0x11C7 JUMP JUMPDEST DUP2 EQ PUSH2 0x120B JUMPI PUSH0 DUP1 REVERT JUMPDEST POP JUMP JUMPDEST PUSH0 DUP2 CALLDATALOAD SWAP1 POP PUSH2 0x121C DUP2 PUSH2 0x11F8 JUMP JUMPDEST SWAP3 SWAP2 POP POP JUMP JUMPDEST PUSH0 DUP1 PUSH1 0x40 DUP4 DUP6 SUB SLT ISZERO PUSH2 0x1238 JUMPI PUSH2 0x1237 PUSH2 0x113E JUMP JUMPDEST JUMPDEST PUSH0 PUSH2 0x1245 DUP6 DUP3 DUP7 ADD PUSH2 0x120E JUMP JUMPDEST SWAP3 POP POP PUSH1 0x20 PUSH2 0x1256 DUP6 DUP3 DUP7 ADD PUSH2 0x120E JUMP JUMPDEST SWAP2 POP POP SWAP3 POP SWAP3 SWAP1 POP JUMP JUMPDEST PUSH0 PUSH1 0x20 DUP3 DUP5 SUB SLT ISZERO PUSH2 0x1275 JUMPI PUSH2 0x1274 PUSH2 0x113E JUMP JUMPDEST JUMPDEST PUSH0 PUSH2 0x1282 DUP5 DUP3 DUP6 ADD PUSH2 0x120E JUMP JUMPDEST SWAP2 POP POP SWAP3 SWAP2 POP POP JUMP JUMPDEST PUSH2 0x1294 DUP2 PUSH2 0x1161 JUMP JUMPDEST DUP3 MSTORE POP POP JUMP JUMPDEST PUSH0 PUSH1 0x20 DUP3 ADD SWAP1 POP PUSH2 0x12AD PUSH0 DUP4 ADD DUP5 PUSH2 0x128B JUMP JUMPDEST SWAP3 SWAP2 POP POP JUMP JUMPDEST PUSH0 DUP2 ISZERO ISZERO SWAP1 POP SWAP2 SWAP1 POP JUMP JUMPDEST PUSH2 0x12C7 DUP2 PUSH2 0x12B3 JUMP JUMPDEST DUP3 MSTORE POP POP JUMP JUMPDEST PUSH0 PUSH1 0x20 DUP3 ADD SWAP1 POP PUSH2 0x12E0 PUSH0 DUP4 ADD DUP5 PUSH2 0x12BE JUMP JUMPDEST SWAP3 SWAP2 POP POP JUMP JUMPDEST PUSH0 DUP3 DUP3 MSTORE PUSH1 0x20 DUP3 ADD SWAP1 POP SWAP3 SWAP2 POP POP JUMP JUMPDEST PUSH32 0x6469646E27742073656E6420656E6F7567682055534400000000000000000000 PUSH0 DUP3 ADD MSTORE POP JUMP JUMPDEST PUSH0 PUSH2 0x132A PUSH1 0x16 DUP4 PUSH2 0x12E6 JUMP JUMPDEST SWAP2 POP PUSH2 0x1335 DUP3 PUSH2 0x12F6 JUMP JUMPDEST PUSH1 0x20 DUP3 ADD SWAP1 POP SWAP2 SWAP1 POP JUMP JUMPDEST PUSH0 PUSH1 0x20 DUP3 ADD SWAP1 POP DUP2 DUP2 SUB PUSH0 DUP4 ADD MSTORE PUSH2 0x1357 DUP2 PUSH2 0x131E JUMP JUMPDEST SWAP1 POP SWAP2 SWAP1 POP JUMP JUMPDEST PUSH32 0x4E487B7100000000000000000000000000000000000000000000000000000000 PUSH0 MSTORE PUSH1 0x11 PUSH1 0x4 MSTORE PUSH1 0x24 PUSH0 REVERT JUMPDEST PUSH0 PUSH2 0x1395 DUP3 PUSH2 0x11C7 JUMP JUMPDEST SWAP2 POP PUSH2 0x13A0 DUP4 PUSH2 0x11C7 JUMP JUMPDEST SWAP3 POP DUP3 DUP3 ADD SWAP1 POP DUP1 DUP3 GT ISZERO PUSH2 0x13B8 JUMPI PUSH2 0x13B7 PUSH2 0x135E JUMP JUMPDEST JUMPDEST SWAP3 SWAP2 POP POP JUMP JUMPDEST PUSH0 PUSH2 0x13C8 DUP3 PUSH2 0x11C7 JUMP JUMPDEST SWAP2 POP PUSH2 0x13D3 DUP4 PUSH2 0x11C7 JUMP JUMPDEST SWAP3 POP DUP3 DUP3 MUL PUSH2 0x13E1 DUP2 PUSH2 0x11C7 JUMP JUMPDEST SWAP2 POP DUP3 DUP3 DIV DUP5 EQ DUP4 ISZERO OR PUSH2 0x13F8 JUMPI PUSH2 0x13F7 PUSH2 0x135E JUMP JUMPDEST JUMPDEST POP SWAP3 SWAP2 POP POP JUMP JUMPDEST PUSH32 0x4E487B7100000000000000000000000000000000000000000000000000000000 PUSH0 MSTORE PUSH1 0x12 PUSH1 0x4 MSTORE PUSH1 0x24 PUSH0 REVERT JUMPDEST PUSH0 PUSH2 0x1436 DUP3 PUSH2 0x11C7 JUMP JUMPDEST SWAP2 POP PUSH2 0x1441 DUP4 PUSH2 0x11C7 JUMP JUMPDEST SWAP3 POP DUP3 PUSH2 0x1451 JUMPI PUSH2 0x1450 PUSH2 0x13FF JUMP JUMPDEST JUMPDEST DUP3 DUP3 DIV SWAP1 POP SWAP3 SWAP2 POP POP JUMP JUMPDEST PUSH32 0x4E6F2072652D656E7472616E637920616C6C6F7765642C20706C656173652074 PUSH0 DUP3 ADD MSTORE PUSH32 0x727920616761696E2E0000000000000000000000000000000000000000000000 PUSH1 0x20 DUP3 ADD MSTORE POP JUMP JUMPDEST PUSH0 PUSH2 0x14B6 PUSH1 0x29 DUP4 PUSH2 0x12E6 JUMP JUMPDEST SWAP2 POP PUSH2 0x14C1 DUP3 PUSH2 0x145C JUMP JUMPDEST PUSH1 0x40 DUP3 ADD SWAP1 POP SWAP2 SWAP1 POP JUMP JUMPDEST PUSH0 PUSH1 0x20 DUP3 ADD SWAP1 POP DUP2 DUP2 SUB PUSH0 DUP4 ADD MSTORE PUSH2 0x14E3 DUP2 PUSH2 0x14AA JUMP JUMPDEST SWAP1 POP SWAP2 SWAP1 POP JUMP JUMPDEST PUSH32 0x496E73756666696369656E742062616C616E6365000000000000000000000000 PUSH0 DUP3 ADD MSTORE POP JUMP JUMPDEST PUSH0 PUSH2 0x151E PUSH1 0x14 DUP4 PUSH2 0x12E6 JUMP JUMPDEST SWAP2 POP PUSH2 0x1529 DUP3 PUSH2 0x14EA JUMP JUMPDEST PUSH1 0x20 DUP3 ADD SWAP1 POP SWAP2 SWAP1 POP JUMP JUMPDEST PUSH0 PUSH1 0x20 DUP3 ADD SWAP1 POP DUP2 DUP2 SUB PUSH0 DUP4 ADD MSTORE PUSH2 0x154B DUP2 PUSH2 0x1512 JUMP JUMPDEST SWAP1 POP SWAP2 SWAP1 POP JUMP JUMPDEST PUSH0 DUP2 SWAP1 POP SWAP3 SWAP2 POP POP JUMP JUMPDEST POP JUMP JUMPDEST PUSH0 PUSH2 0x156A PUSH0 DUP4 PUSH2 0x1552 JUMP JUMPDEST SWAP2 POP PUSH2 0x1575 DUP3 PUSH2 0x155C JUMP JUMPDEST PUSH0 DUP3 ADD SWAP1 POP SWAP2 SWAP1 POP JUMP JUMPDEST PUSH0 PUSH2 0x1589 DUP3 PUSH2 0x155F JUMP JUMPDEST SWAP2 POP DUP2 SWAP1 POP SWAP2 SWAP1 POP JUMP JUMPDEST PUSH32 0x5472616E73666572206661696C65642E00000000000000000000000000000000 PUSH0 DUP3 ADD MSTORE POP JUMP JUMPDEST PUSH0 PUSH2 0x15C7 PUSH1 0x10 DUP4 PUSH2 0x12E6 JUMP JUMPDEST SWAP2 POP PUSH2 0x15D2 DUP3 PUSH2 0x1593 JUMP JUMPDEST PUSH1 0x20 DUP3 ADD SWAP1 POP SWAP2 SWAP1 POP JUMP JUMPDEST PUSH0 PUSH1 0x20 DUP3 ADD SWAP1 POP DUP2 DUP2 SUB PUSH0 DUP4 ADD MSTORE PUSH2 0x15F4 DUP2 PUSH2 0x15BB JUMP JUMPDEST SWAP1 POP SWAP2 SWAP1 POP JUMP JUMPDEST PUSH32 0x4F6E6C79206F776E65722063616E206578656375746520746869732066756E63 PUSH0 DUP3 ADD MSTORE PUSH32 0x74696F6E2E000000000000000000000000000000000000000000000000000000 PUSH1 0x20 DUP3 ADD MSTORE POP JUMP JUMPDEST PUSH0 PUSH2 0x1655 PUSH1 0x25 DUP4 PUSH2 0x12E6 JUMP JUMPDEST SWAP2 POP PUSH2 0x1660 DUP3 PUSH2 0x15FB JUMP JUMPDEST PUSH1 0x40 DUP3 ADD SWAP1 POP SWAP2 SWAP1 POP JUMP JUMPDEST PUSH0 PUSH1 0x20 DUP3 ADD SWAP1 POP DUP2 DUP2 SUB PUSH0 DUP4 ADD MSTORE PUSH2 0x1682 DUP2 PUSH2 0x1649 JUMP JUMPDEST SWAP1 POP SWAP2 SWAP1 POP JUMP JUMPDEST PUSH32 0x57616C6C65742061646472657373206973206E6F7420612066756E6465722E00 PUSH0 DUP3 ADD MSTORE POP JUMP JUMPDEST PUSH0 PUSH2 0x16BD PUSH1 0x1F DUP4 PUSH2 0x12E6 JUMP JUMPDEST SWAP2 POP PUSH2 0x16C8 DUP3 PUSH2 0x1689 JUMP JUMPDEST PUSH1 0x20 DUP3 ADD SWAP1 POP SWAP2 SWAP1 POP JUMP JUMPDEST PUSH0 PUSH1 0x20 DUP3 ADD SWAP1 POP DUP2 DUP2 SUB PUSH0 DUP4 ADD MSTORE PUSH2 0x16EA DUP2 PUSH2 0x16B1 JUMP JUMPDEST SWAP1 POP SWAP2 SWAP1 POP JUMP JUMPDEST PUSH0 PUSH2 0x16FB DUP3 PUSH2 0x11C7 JUMP JUMPDEST SWAP2 POP PUSH2 0x1706 DUP4 PUSH2 0x11C7 JUMP JUMPDEST SWAP3 POP DUP3 DUP3 SUB SWAP1 POP DUP2 DUP2 GT ISZERO PUSH2 0x171E JUMPI PUSH2 0x171D PUSH2 0x135E JUMP JUMPDEST JUMPDEST SWAP3 SWAP2 POP POP JUMP JUMPDEST PUSH0 PUSH10 0xFFFFFFFFFFFFFFFFFFFF DUP3 AND SWAP1 POP SWAP2 SWAP1 POP JUMP JUMPDEST PUSH2 0x1742 DUP2 PUSH2 0x1724 JUMP JUMPDEST DUP2 EQ PUSH2 0x174C JUMPI PUSH0 DUP1 REVERT JUMPDEST POP JUMP JUMPDEST PUSH0 DUP2 MLOAD SWAP1 POP PUSH2 0x175D DUP2 PUSH2 0x1739 JUMP JUMPDEST SWAP3 SWAP2 POP POP JUMP JUMPDEST PUSH0 DUP2 SWAP1 POP SWAP2 SWAP1 POP JUMP JUMPDEST PUSH2 0x1775 DUP2 PUSH2 0x1763 JUMP JUMPDEST DUP2 EQ PUSH2 0x177F JUMPI PUSH0 DUP1 REVERT JUMPDEST POP JUMP JUMPDEST PUSH0 DUP2 MLOAD SWAP1 POP PUSH2 0x1790 DUP2 PUSH2 0x176C JUMP JUMPDEST SWAP3 SWAP2 POP POP JUMP JUMPDEST PUSH0 DUP2 MLOAD SWAP1 POP PUSH2 0x17A4 DUP2 PUSH2 0x11F8 JUMP JUMPDEST SWAP3 SWAP2 POP POP JUMP JUMPDEST PUSH0 DUP1 PUSH0 DUP1 PUSH0 PUSH1 0xA0 DUP7 DUP9 SUB SLT ISZERO PUSH2 0x17C3 JUMPI PUSH2 0x17C2 PUSH2 0x113E JUMP JUMPDEST JUMPDEST PUSH0 PUSH2 0x17D0 DUP9 DUP3 DUP10 ADD PUSH2 0x174F JUMP JUMPDEST SWAP6 POP POP PUSH1 0x20 PUSH2 0x17E1 DUP9 DUP3 DUP10 ADD PUSH2 0x1782 JUMP JUMPDEST SWAP5 POP POP PUSH1 0x40 PUSH2 0x17F2 DUP9 DUP3 DUP10 ADD PUSH2 0x1796 JUMP JUMPDEST SWAP4 POP POP PUSH1 0x60 PUSH2 0x1803 DUP9 DUP3 DUP10 ADD PUSH2 0x1796 JUMP JUMPDEST SWAP3 POP POP PUSH1 0x80 PUSH2 0x1814 DUP9 DUP3 DUP10 ADD PUSH2 0x174F JUMP JUMPDEST SWAP2 POP POP SWAP3 SWAP6 POP SWAP3 SWAP6 SWAP1 SWAP4 POP JUMP JUMPDEST PUSH32 0x4E65676174697665207072696365206E6F7420616C6C6F7765642E0000000000 PUSH0 DUP3 ADD MSTORE POP JUMP JUMPDEST PUSH0 PUSH2 0x1855 PUSH1 0x1B DUP4 PUSH2 0x12E6 JUMP JUMPDEST SWAP2 POP PUSH2 0x1860 DUP3 PUSH2 0x1821 JUMP JUMPDEST PUSH1 0x20 DUP3 ADD SWAP1 POP SWAP2 SWAP1 POP JUMP JUMPDEST PUSH0 PUSH1 0x20 DUP3 ADD SWAP1 POP DUP2 DUP2 SUB PUSH0 DUP4 ADD MSTORE PUSH2 0x1882 DUP2 PUSH2 0x1849 JUMP JUMPDEST SWAP1 POP SWAP2 SWAP1 POP JUMP JUMPDEST PUSH32 0x43616E6E6F74206368616E6765207468652076616C7565206F66206D696E696D PUSH0 DUP3 ADD MSTORE PUSH32 0x756D55736420746F207468652073616D652076616C75652E0000000000000000 PUSH1 0x20 DUP3 ADD MSTORE POP JUMP JUMPDEST PUSH0 PUSH2 0x18E3 PUSH1 0x38 DUP4 PUSH2 0x12E6 JUMP JUMPDEST SWAP2 POP PUSH2 0x18EE DUP3 PUSH2 0x1889 JUMP JUMPDEST PUSH1 0x40 DUP3 ADD SWAP1 POP SWAP2 SWAP1 POP JUMP JUMPDEST PUSH0 PUSH1 0x20 DUP3 ADD SWAP1 POP DUP2 DUP2 SUB PUSH0 DUP4 ADD MSTORE PUSH2 0x1910 DUP2 PUSH2 0x18D7 JUMP JUMPDEST SWAP1 POP SWAP2 SWAP1 POP JUMP JUMPDEST PUSH32 0x4E487B7100000000000000000000000000000000000000000000000000000000 PUSH0 MSTORE PUSH1 0x32 PUSH1 0x4 MSTORE PUSH1 0x24 PUSH0 REVERT JUMPDEST PUSH32 0x4E487B7100000000000000000000000000000000000000000000000000000000 PUSH0 MSTORE PUSH1 0x31 PUSH1 0x4 MSTORE PUSH1 0x24 PUSH0 REVERT JUMPDEST PUSH2 0x197A DUP2 PUSH2 0x1763 JUMP JUMPDEST DUP3 MSTORE POP POP JUMP JUMPDEST PUSH0 PUSH1 0x20 DUP3 ADD SWAP1 POP PUSH2 0x1993 PUSH0 DUP4 ADD DUP5 PUSH2 0x1971 JUMP JUMPDEST SWAP3 SWAP2 POP POP JUMP INVALID LOG2 PUSH5 0x6970667358 0x22 SLT KECCAK256 RETURNDATACOPY 0xC2 PUSH17 0x6001008E71D0411CCB279B167B7B73E970 SWAP16 0xAB JUMPI MCOPY PUSH14 0x644A3D57ECD3DA64736F6C634300 ADDMOD BYTE STOP CALLER "
				},
				"gasEstimates": {
					"creation": {
						"codeDepositCost": "1321400",
						"executionCost": "infinite",
						"totalCost": "infinite"
					},
					"external": {
						"addressIsActiveFunder(address)": "2921",
						"addressToAvailableAmount(address)": "2803",
						"addressToIndexInFundersArray(address)": "2869",
						"changeMinimumUsd(uint256)": "infinite",
						"fund()": "infinite",
						"funders(uint256)": "5010",
						"getConversionRate(uint256,uint256)": "infinite",
						"getPrice()": "infinite",
						"i_owner()": "infinite",
						"minimumUsd()": "2448",
						"ownerWithdrawFunds()": "infinite",
						"partialWithdraw(uint256)": "infinite",
						"totalWithdraw()": "infinite"
					},
					"internal": {
						"cleanAfterOwnerWithdrawal()": "infinite",
						"cleanAfterUserWithdrawal()": "infinite"
					}
				},
				"methodIdentifiers": {
					"addressIsActiveFunder(address)": "f8024578",
					"addressToAvailableAmount(address)": "034855c7",
					"addressToIndexInFundersArray(address)": "cc3b589e",
					"changeMinimumUsd(uint256)": "d78a29d2",
					"fund()": "b60d4288",
					"funders(uint256)": "dc0d3dff",
					"getConversionRate(uint256,uint256)": "3e9f607c",
					"getPrice()": "98d5fdca",
					"i_owner()": "dba6335f",
					"minimumUsd()": "098de820",
					"ownerWithdrawFunds()": "5eb8d90b",
					"partialWithdraw(uint256)": "71d2ee6c",
					"totalWithdraw()": "455fd623"
				}
			},
			"storageLayout": {
				"storage": [
					{
						"astId": 55,
						"contract": "FundMe/contracts/FundMe.sol:FundMe",
						"label": "locked",
						"offset": 0,
						"slot": "0",
						"type": "t_bool"
					},
					{
						"astId": 59,
						"contract": "FundMe/contracts/FundMe.sol:FundMe",
						"label": "minimumUsd",
						"offset": 0,
						"slot": "1",
						"type": "t_uint256"
					},
					{
						"astId": 62,
						"contract": "FundMe/contracts/FundMe.sol:FundMe",
						"label": "funders",
						"offset": 0,
						"slot": "2",
						"type": "t_array(t_address)dyn_storage"
					},
					{
						"astId": 66,
						"contract": "FundMe/contracts/FundMe.sol:FundMe",
						"label": "addressToIndexInFundersArray",
						"offset": 0,
						"slot": "3",
						"type": "t_mapping(t_address,t_uint256)"
					},
					{
						"astId": 70,
						"contract": "FundMe/contracts/FundMe.sol:FundMe",
						"label": "addressIsActiveFunder",
						"offset": 0,
						"slot": "4",
						"type": "t_mapping(t_address,t_bool)"
					},
					{
						"astId": 74,
						"contract": "FundMe/contracts/FundMe.sol:FundMe",
						"label": "addressToAvailableAmount",
						"offset": 0,
						"slot": "5",
						"type": "t_mapping(t_address,t_uint256)"
					}
				],
				"types": {
					"t_address": {
						"encoding": "inplace",
						"label": "address",
						"numberOfBytes": "20"
					},
					"t_array(t_address)dyn_storage": {
						"base": "t_address",
						"encoding": "dynamic_array",
						"label": "address[]",
						"numberOfBytes": "32"
					},
					"t_bool": {
						"encoding": "inplace",
						"label": "bool",
						"numberOfBytes": "1"
					},
					"t_mapping(t_address,t_bool)": {
						"encoding": "mapping",
						"key": "t_address",
						"label": "mapping(address => bool)",
						"numberOfBytes": "32",
						"value": "t_bool"
					},
					"t_mapping(t_address,t_uint256)": {
						"encoding": "mapping",
						"key": "t_address",
						"label": "mapping(address => uint256)",
						"numberOfBytes": "32",
						"value": "t_uint256"
					},
					"t_uint256": {
						"encoding": "inplace",
						"label": "uint256",
						"numberOfBytes": "32"
					}
				}
			},
			"userdoc": {
				"kind": "user",
				"methods": {},
				"version": 1
			}
		}
	}
}