{
	"contracts/SimpleStorage.sol": {
		"SimpleStorage": {
			"abi": [
				{
					"inputs": [
						{
							"internalType": "string",
							"name": "_name",
							"type": "string"
						},
						{
							"internalType": "uint256",
							"name": "_favoriteNumber",
							"type": "uint256"
						}
					],
					"name": "addPerson",
					"outputs": [],
					"stateMutability": "nonpayable",
					"type": "function"
				},
				{
					"inputs": [
						{
							"internalType": "uint256",
							"name": "",
							"type": "uint256"
						}
					],
					"name": "listOfPeople",
					"outputs": [
						{
							"internalType": "uint256",
							"name": "favoriteNumber",
							"type": "uint256"
						},
						{
							"internalType": "string",
							"name": "name",
							"type": "string"
						}
					],
					"stateMutability": "view",
					"type": "function"
				},
				{
					"inputs": [],
					"name": "myFavoriteNumber",
					"outputs": [
						{
							"internalType": "uint256",
							"name": "",
							"type": "uint256"
						}
					],
					"stateMutability": "view",
					"type": "function"
				},
				{
					"inputs": [
						{
							"internalType": "string",
							"name": "",
							"type": "string"
						}
					],
					"name": "nameToFavoriteNumber",
					"outputs": [
						{
							"internalType": "uint256",
							"name": "",
							"type": "uint256"
						}
					],
					"stateMutability": "view",
					"type": "function"
				},
				{
					"inputs": [],
					"name": "retrieve",
					"outputs": [
						{
							"internalType": "uint256",
							"name": "",
							"type": "uint256"
						}
					],
					"stateMutability": "view",
					"type": "function"
				},
				{
					"inputs": [
						{
							"internalType": "uint256",
							"name": "_favoriteNumber",
							"type": "uint256"
						}
					],
					"name": "store",
					"outputs": [],
					"stateMutability": "nonpayable",
					"type": "function"
				}
			],
			"devdoc": {
				"kind": "dev",
				"methods": {},
				"version": 1
			},
			"evm": {
				"assembly": "    /* \"contracts/SimpleStorage.sol\":77:1071  contract SimpleStorage {... */\n  mstore(0x40, 0x80)\n  callvalue\n  dup1\n  iszero\n  tag_1\n  jumpi\n  0x00\n  dup1\n  revert\ntag_1:\n  pop\n  dataSize(sub_0)\n  dup1\n  dataOffset(sub_0)\n  0x00\n  codecopy\n  0x00\n  return\nstop\n\nsub_0: assembly {\n        /* \"contracts/SimpleStorage.sol\":77:1071  contract SimpleStorage {... */\n      mstore(0x40, 0x80)\n      callvalue\n      dup1\n      iszero\n      tag_1\n      jumpi\n      0x00\n      dup1\n      revert\n    tag_1:\n      pop\n      jumpi(tag_2, lt(calldatasize, 0x04))\n      shr(0xe0, calldataload(0x00))\n      dup1\n      0x2e64cec1\n      eq\n      tag_3\n      jumpi\n      dup1\n      0x2ebce631\n      eq\n      tag_4\n      jumpi\n      dup1\n      0x6057361d\n      eq\n      tag_5\n      jumpi\n      dup1\n      0x6d83bc57\n      eq\n      tag_6\n      jumpi\n      dup1\n      0x6f760f41\n      eq\n      tag_7\n      jumpi\n      dup1\n      0x8bab8dd5\n      eq\n      tag_8\n      jumpi\n    tag_2:\n      0x00\n      dup1\n      revert\n        /* \"contracts/SimpleStorage.sol\":375:464  function retrieve() public view returns(uint256) {... */\n    tag_3:\n      tag_9\n      tag_10\n      jump\t// in\n    tag_9:\n      mload(0x40)\n      tag_11\n      swap2\n      swap1\n      tag_12\n      jump\t// in\n    tag_11:\n      mload(0x40)\n      dup1\n      swap2\n      sub\n      swap1\n      return\n        /* \"contracts/SimpleStorage.sol\":222:250  Person[] public listOfPeople */\n    tag_4:\n      tag_13\n      0x04\n      dup1\n      calldatasize\n      sub\n      dup2\n      add\n      swap1\n      tag_14\n      swap2\n      swap1\n      tag_15\n      jump\t// in\n    tag_14:\n      tag_16\n      jump\t// in\n    tag_13:\n      mload(0x40)\n      tag_17\n      swap3\n      swap2\n      swap1\n      tag_18\n      jump\t// in\n    tag_17:\n      mload(0x40)\n      dup1\n      swap2\n      sub\n      swap1\n      return\n        /* \"contracts/SimpleStorage.sol\":263:368  function store(uint256 _favoriteNumber) public virtual{... */\n    tag_5:\n      tag_19\n      0x04\n      dup1\n      calldatasize\n      sub\n      dup2\n      add\n      swap1\n      tag_20\n      swap2\n      swap1\n      tag_15\n      jump\t// in\n    tag_20:\n      tag_21\n      jump\t// in\n    tag_19:\n      stop\n        /* \"contracts/SimpleStorage.sol\":106:137  uint256 public myFavoriteNumber */\n    tag_6:\n      tag_22\n      tag_23\n      jump\t// in\n    tag_22:\n      mload(0x40)\n      tag_24\n      swap2\n      swap1\n      tag_12\n      jump\t// in\n    tag_24:\n      mload(0x40)\n      dup1\n      swap2\n      sub\n      swap1\n      return\n        /* \"contracts/SimpleStorage.sol\":871:1069  function addPerson(string calldata _name, uint256  _favoriteNumber) public {... */\n    tag_7:\n      tag_25\n      0x04\n      dup1\n      calldatasize\n      sub\n      dup2\n      add\n      swap1\n      tag_26\n      swap2\n      swap1\n      tag_27\n      jump\t// in\n    tag_26:\n      tag_28\n      jump\t// in\n    tag_25:\n      stop\n        /* \"contracts/SimpleStorage.sol\":471:526  mapping (string => uint256) public nameToFavoriteNumber */\n    tag_8:\n      tag_29\n      0x04\n      dup1\n      calldatasize\n      sub\n      dup2\n      add\n      swap1\n      tag_30\n      swap2\n      swap1\n      tag_31\n      jump\t// in\n    tag_30:\n      tag_32\n      jump\t// in\n    tag_29:\n      mload(0x40)\n      tag_33\n      swap2\n      swap1\n      tag_12\n      jump\t// in\n    tag_33:\n      mload(0x40)\n      dup1\n      swap2\n      sub\n      swap1\n      return\n        /* \"contracts/SimpleStorage.sol\":375:464  function retrieve() public view returns(uint256) {... */\n    tag_10:\n        /* \"contracts/SimpleStorage.sol\":415:422  uint256 */\n      0x00\n        /* \"contracts/SimpleStorage.sol\":441:457  myFavoriteNumber */\n      dup1\n      sload\n        /* \"contracts/SimpleStorage.sol\":434:457  return myFavoriteNumber */\n      swap1\n      pop\n        /* \"contracts/SimpleStorage.sol\":375:464  function retrieve() public view returns(uint256) {... */\n      swap1\n      jump\t// out\n        /* \"contracts/SimpleStorage.sol\":222:250  Person[] public listOfPeople */\n    tag_16:\n      0x01\n      dup2\n      dup2\n      sload\n      dup2\n      lt\n      tag_35\n      jumpi\n      0x00\n      dup1\n      revert\n    tag_35:\n      swap1\n      0x00\n      mstore\n      keccak256(0x00, 0x20)\n      swap1\n      0x02\n      mul\n      add\n      0x00\n      swap2\n      pop\n      swap1\n      pop\n      dup1\n      0x00\n      add\n      sload\n      swap1\n      dup1\n      0x01\n      add\n      dup1\n      sload\n      tag_37\n      swap1\n      tag_38\n      jump\t// in\n    tag_37:\n      dup1\n      0x1f\n      add\n      0x20\n      dup1\n      swap2\n      div\n      mul\n      0x20\n      add\n      mload(0x40)\n      swap1\n      dup2\n      add\n      0x40\n      mstore\n      dup1\n      swap3\n      swap2\n      swap1\n      dup2\n      dup2\n      mstore\n      0x20\n      add\n      dup3\n      dup1\n      sload\n      tag_39\n      swap1\n      tag_38\n      jump\t// in\n    tag_39:\n      dup1\n      iszero\n      tag_40\n      jumpi\n      dup1\n      0x1f\n      lt\n      tag_41\n      jumpi\n      0x0100\n      dup1\n      dup4\n      sload\n      div\n      mul\n      dup4\n      mstore\n      swap2\n      0x20\n      add\n      swap2\n      jump(tag_40)\n    tag_41:\n      dup3\n      add\n      swap2\n      swap1\n      0x00\n      mstore\n      keccak256(0x00, 0x20)\n      swap1\n    tag_42:\n      dup2\n      sload\n      dup2\n      mstore\n      swap1\n      0x01\n      add\n      swap1\n      0x20\n      add\n      dup1\n      dup4\n      gt\n      tag_42\n      jumpi\n      dup3\n      swap1\n      sub\n      0x1f\n      and\n      dup3\n      add\n      swap2\n    tag_40:\n      pop\n      pop\n      pop\n      pop\n      pop\n      swap1\n      pop\n      dup3\n      jump\t// out\n        /* \"contracts/SimpleStorage.sol\":263:368  function store(uint256 _favoriteNumber) public virtual{... */\n    tag_21:\n        /* \"contracts/SimpleStorage.sol\":346:361  _favoriteNumber */\n      dup1\n        /* \"contracts/SimpleStorage.sol\":327:343  myFavoriteNumber */\n      0x00\n        /* \"contracts/SimpleStorage.sol\":327:361  myFavoriteNumber = _favoriteNumber */\n      dup2\n      swap1\n      sstore\n      pop\n        /* \"contracts/SimpleStorage.sol\":263:368  function store(uint256 _favoriteNumber) public virtual{... */\n      pop\n      jump\t// out\n        /* \"contracts/SimpleStorage.sol\":106:137  uint256 public myFavoriteNumber */\n    tag_23:\n      sload(0x00)\n      dup2\n      jump\t// out\n        /* \"contracts/SimpleStorage.sol\":871:1069  function addPerson(string calldata _name, uint256  _favoriteNumber) public {... */\n    tag_28:\n        /* \"contracts/SimpleStorage.sol\":956:968  listOfPeople */\n      0x01\n        /* \"contracts/SimpleStorage.sol\":975:1005  Person(_favoriteNumber, _name) */\n      mload(0x40)\n      dup1\n      0x40\n      add\n      0x40\n      mstore\n      dup1\n        /* \"contracts/SimpleStorage.sol\":982:997  _favoriteNumber */\n      dup4\n        /* \"contracts/SimpleStorage.sol\":975:1005  Person(_favoriteNumber, _name) */\n      dup2\n      mstore\n      0x20\n      add\n        /* \"contracts/SimpleStorage.sol\":999:1004  _name */\n      dup6\n      dup6\n        /* \"contracts/SimpleStorage.sol\":975:1005  Person(_favoriteNumber, _name) */\n      dup1\n      dup1\n      0x1f\n      add\n      0x20\n      dup1\n      swap2\n      div\n      mul\n      0x20\n      add\n      mload(0x40)\n      swap1\n      dup2\n      add\n      0x40\n      mstore\n      dup1\n      swap4\n      swap3\n      swap2\n      swap1\n      dup2\n      dup2\n      mstore\n      0x20\n      add\n      dup4\n      dup4\n      dup1\n      dup3\n      dup5\n      calldatacopy\n      0x00\n      dup2\n      dup5\n      add\n      mstore\n      not(0x1f)\n      0x1f\n      dup3\n      add\n      and\n      swap1\n      pop\n      dup1\n      dup4\n      add\n      swap3\n      pop\n      pop\n      pop\n      pop\n      pop\n      pop\n      pop\n      dup2\n      mstore\n      pop\n        /* \"contracts/SimpleStorage.sol\":956:1007  listOfPeople.push( Person(_favoriteNumber, _name) ) */\n      swap1\n      dup1\n      0x01\n      dup2\n      sload\n      add\n      dup1\n      dup3\n      sstore\n      dup1\n      swap2\n      pop\n      pop\n      0x01\n      swap1\n      sub\n      swap1\n      0x00\n      mstore\n      keccak256(0x00, 0x20)\n      swap1\n      0x02\n      mul\n      add\n      0x00\n      swap1\n      swap2\n      swap1\n      swap2\n      swap1\n      swap2\n      pop\n      0x00\n      dup3\n      add\n      mload\n      dup2\n      0x00\n      add\n      sstore\n      0x20\n      dup3\n      add\n      mload\n      dup2\n      0x01\n      add\n      swap1\n      dup2\n      tag_46\n      swap2\n      swap1\n      tag_47\n      jump\t// in\n    tag_46:\n      pop\n      pop\n      pop\n        /* \"contracts/SimpleStorage.sol\":1047:1062  _favoriteNumber */\n      dup1\n        /* \"contracts/SimpleStorage.sol\":1017:1037  nameToFavoriteNumber */\n      0x02\n        /* \"contracts/SimpleStorage.sol\":1038:1043  _name */\n      dup5\n      dup5\n        /* \"contracts/SimpleStorage.sol\":1017:1044  nameToFavoriteNumber[_name] */\n      mload(0x40)\n      tag_48\n      swap3\n      swap2\n      swap1\n      tag_49\n      jump\t// in\n    tag_48:\n      swap1\n      dup2\n      mstore\n      0x20\n      add\n      mload(0x40)\n      dup1\n      swap2\n      sub\n      swap1\n      keccak256\n        /* \"contracts/SimpleStorage.sol\":1017:1062  nameToFavoriteNumber[_name] = _favoriteNumber */\n      dup2\n      swap1\n      sstore\n      pop\n        /* \"contracts/SimpleStorage.sol\":871:1069  function addPerson(string calldata _name, uint256  _favoriteNumber) public {... */\n      pop\n      pop\n      pop\n      jump\t// out\n        /* \"contracts/SimpleStorage.sol\":471:526  mapping (string => uint256) public nameToFavoriteNumber */\n    tag_32:\n      0x02\n      dup2\n      dup1\n      mload\n      0x20\n      dup2\n      add\n      dup3\n      add\n      dup1\n      mload\n      dup5\n      dup3\n      mstore\n      0x20\n      dup4\n      add\n      0x20\n      dup6\n      add\n      keccak256\n      dup2\n      dup4\n      mstore\n      dup1\n      swap6\n      pop\n      pop\n      pop\n      pop\n      pop\n      pop\n      0x00\n      swap2\n      pop\n      swap1\n      pop\n      sload\n      dup2\n      jump\t// out\n        /* \"#utility.yul\":7:84   */\n    tag_50:\n        /* \"#utility.yul\":44:51   */\n      0x00\n        /* \"#utility.yul\":73:78   */\n      dup2\n        /* \"#utility.yul\":62:78   */\n      swap1\n      pop\n        /* \"#utility.yul\":7:84   */\n      swap2\n      swap1\n      pop\n      jump\t// out\n        /* \"#utility.yul\":90:208   */\n    tag_51:\n        /* \"#utility.yul\":177:201   */\n      tag_95\n        /* \"#utility.yul\":195:200   */\n      dup2\n        /* \"#utility.yul\":177:201   */\n      tag_50\n      jump\t// in\n    tag_95:\n        /* \"#utility.yul\":172:175   */\n      dup3\n        /* \"#utility.yul\":165:202   */\n      mstore\n        /* \"#utility.yul\":90:208   */\n      pop\n      pop\n      jump\t// out\n        /* \"#utility.yul\":214:436   */\n    tag_12:\n        /* \"#utility.yul\":307:311   */\n      0x00\n        /* \"#utility.yul\":345:347   */\n      0x20\n        /* \"#utility.yul\":334:343   */\n      dup3\n        /* \"#utility.yul\":330:348   */\n      add\n        /* \"#utility.yul\":322:348   */\n      swap1\n      pop\n        /* \"#utility.yul\":358:429   */\n      tag_97\n        /* \"#utility.yul\":426:427   */\n      0x00\n        /* \"#utility.yul\":415:424   */\n      dup4\n        /* \"#utility.yul\":411:428   */\n      add\n        /* \"#utility.yul\":402:408   */\n      dup5\n        /* \"#utility.yul\":358:429   */\n      tag_51\n      jump\t// in\n    tag_97:\n        /* \"#utility.yul\":214:436   */\n      swap3\n      swap2\n      pop\n      pop\n      jump\t// out\n        /* \"#utility.yul\":442:517   */\n    tag_52:\n        /* \"#utility.yul\":475:481   */\n      0x00\n        /* \"#utility.yul\":508:510   */\n      0x40\n        /* \"#utility.yul\":502:511   */\n      mload\n        /* \"#utility.yul\":492:511   */\n      swap1\n      pop\n        /* \"#utility.yul\":442:517   */\n      swap1\n      jump\t// out\n        /* \"#utility.yul\":523:640   */\n    tag_53:\n        /* \"#utility.yul\":632:633   */\n      0x00\n        /* \"#utility.yul\":629:630   */\n      dup1\n        /* \"#utility.yul\":622:634   */\n      revert\n        /* \"#utility.yul\":646:763   */\n    tag_54:\n        /* \"#utility.yul\":755:756   */\n      0x00\n        /* \"#utility.yul\":752:753   */\n      dup1\n        /* \"#utility.yul\":745:757   */\n      revert\n        /* \"#utility.yul\":769:891   */\n    tag_55:\n        /* \"#utility.yul\":842:866   */\n      tag_102\n        /* \"#utility.yul\":860:865   */\n      dup2\n        /* \"#utility.yul\":842:866   */\n      tag_50\n      jump\t// in\n    tag_102:\n        /* \"#utility.yul\":835:840   */\n      dup2\n        /* \"#utility.yul\":832:867   */\n      eq\n        /* \"#utility.yul\":822:885   */\n      tag_103\n      jumpi\n        /* \"#utility.yul\":881:882   */\n      0x00\n        /* \"#utility.yul\":878:879   */\n      dup1\n        /* \"#utility.yul\":871:883   */\n      revert\n        /* \"#utility.yul\":822:885   */\n    tag_103:\n        /* \"#utility.yul\":769:891   */\n      pop\n      jump\t// out\n        /* \"#utility.yul\":897:1036   */\n    tag_56:\n        /* \"#utility.yul\":943:948   */\n      0x00\n        /* \"#utility.yul\":981:987   */\n      dup2\n        /* \"#utility.yul\":968:988   */\n      calldataload\n        /* \"#utility.yul\":959:988   */\n      swap1\n      pop\n        /* \"#utility.yul\":997:1030   */\n      tag_105\n        /* \"#utility.yul\":1024:1029   */\n      dup2\n        /* \"#utility.yul\":997:1030   */\n      tag_55\n      jump\t// in\n    tag_105:\n        /* \"#utility.yul\":897:1036   */\n      swap3\n      swap2\n      pop\n      pop\n      jump\t// out\n        /* \"#utility.yul\":1042:1371   */\n    tag_15:\n        /* \"#utility.yul\":1101:1107   */\n      0x00\n        /* \"#utility.yul\":1150:1152   */\n      0x20\n        /* \"#utility.yul\":1138:1147   */\n      dup3\n        /* \"#utility.yul\":1129:1136   */\n      dup5\n        /* \"#utility.yul\":1125:1148   */\n      sub\n        /* \"#utility.yul\":1121:1153   */\n      slt\n        /* \"#utility.yul\":1118:1237   */\n      iszero\n      tag_107\n      jumpi\n        /* \"#utility.yul\":1156:1235   */\n      tag_108\n      tag_53\n      jump\t// in\n    tag_108:\n        /* \"#utility.yul\":1118:1237   */\n    tag_107:\n        /* \"#utility.yul\":1276:1277   */\n      0x00\n        /* \"#utility.yul\":1301:1354   */\n      tag_109\n        /* \"#utility.yul\":1346:1353   */\n      dup5\n        /* \"#utility.yul\":1337:1343   */\n      dup3\n        /* \"#utility.yul\":1326:1335   */\n      dup6\n        /* \"#utility.yul\":1322:1344   */\n      add\n        /* \"#utility.yul\":1301:1354   */\n      tag_56\n      jump\t// in\n    tag_109:\n        /* \"#utility.yul\":1291:1354   */\n      swap2\n      pop\n        /* \"#utility.yul\":1247:1364   */\n      pop\n        /* \"#utility.yul\":1042:1371   */\n      swap3\n      swap2\n      pop\n      pop\n      jump\t// out\n        /* \"#utility.yul\":1377:1476   */\n    tag_57:\n        /* \"#utility.yul\":1429:1435   */\n      0x00\n        /* \"#utility.yul\":1463:1468   */\n      dup2\n        /* \"#utility.yul\":1457:1469   */\n      mload\n        /* \"#utility.yul\":1447:1469   */\n      swap1\n      pop\n        /* \"#utility.yul\":1377:1476   */\n      swap2\n      swap1\n      pop\n      jump\t// out\n        /* \"#utility.yul\":1482:1651   */\n    tag_58:\n        /* \"#utility.yul\":1566:1577   */\n      0x00\n        /* \"#utility.yul\":1600:1606   */\n      dup3\n        /* \"#utility.yul\":1595:1598   */\n      dup3\n        /* \"#utility.yul\":1588:1607   */\n      mstore\n        /* \"#utility.yul\":1640:1644   */\n      0x20\n        /* \"#utility.yul\":1635:1638   */\n      dup3\n        /* \"#utility.yul\":1631:1645   */\n      add\n        /* \"#utility.yul\":1616:1645   */\n      swap1\n      pop\n        /* \"#utility.yul\":1482:1651   */\n      swap3\n      swap2\n      pop\n      pop\n      jump\t// out\n        /* \"#utility.yul\":1657:1796   */\n    tag_59:\n        /* \"#utility.yul\":1746:1752   */\n      dup3\n        /* \"#utility.yul\":1741:1744   */\n      dup2\n        /* \"#utility.yul\":1736:1739   */\n      dup4\n        /* \"#utility.yul\":1730:1753   */\n      mcopy\n        /* \"#utility.yul\":1787:1788   */\n      0x00\n        /* \"#utility.yul\":1778:1784   */\n      dup4\n        /* \"#utility.yul\":1773:1776   */\n      dup4\n        /* \"#utility.yul\":1769:1785   */\n      add\n        /* \"#utility.yul\":1762:1789   */\n      mstore\n        /* \"#utility.yul\":1657:1796   */\n      pop\n      pop\n      pop\n      jump\t// out\n        /* \"#utility.yul\":1802:1904   */\n    tag_60:\n        /* \"#utility.yul\":1843:1849   */\n      0x00\n        /* \"#utility.yul\":1894:1896   */\n      0x1f\n        /* \"#utility.yul\":1890:1897   */\n      not\n        /* \"#utility.yul\":1885:1887   */\n      0x1f\n        /* \"#utility.yul\":1878:1883   */\n      dup4\n        /* \"#utility.yul\":1874:1888   */\n      add\n        /* \"#utility.yul\":1870:1898   */\n      and\n        /* \"#utility.yul\":1860:1898   */\n      swap1\n      pop\n        /* \"#utility.yul\":1802:1904   */\n      swap2\n      swap1\n      pop\n      jump\t// out\n        /* \"#utility.yul\":1910:2287   */\n    tag_61:\n        /* \"#utility.yul\":1998:2001   */\n      0x00\n        /* \"#utility.yul\":2026:2065   */\n      tag_115\n        /* \"#utility.yul\":2059:2064   */\n      dup3\n        /* \"#utility.yul\":2026:2065   */\n      tag_57\n      jump\t// in\n    tag_115:\n        /* \"#utility.yul\":2081:2152   */\n      tag_116\n        /* \"#utility.yul\":2145:2151   */\n      dup2\n        /* \"#utility.yul\":2140:2143   */\n      dup6\n        /* \"#utility.yul\":2081:2152   */\n      tag_58\n      jump\t// in\n    tag_116:\n        /* \"#utility.yul\":2074:2152   */\n      swap4\n      pop\n        /* \"#utility.yul\":2161:2226   */\n      tag_117\n        /* \"#utility.yul\":2219:2225   */\n      dup2\n        /* \"#utility.yul\":2214:2217   */\n      dup6\n        /* \"#utility.yul\":2207:2211   */\n      0x20\n        /* \"#utility.yul\":2200:2205   */\n      dup7\n        /* \"#utility.yul\":2196:2212   */\n      add\n        /* \"#utility.yul\":2161:2226   */\n      tag_59\n      jump\t// in\n    tag_117:\n        /* \"#utility.yul\":2251:2280   */\n      tag_118\n        /* \"#utility.yul\":2273:2279   */\n      dup2\n        /* \"#utility.yul\":2251:2280   */\n      tag_60\n      jump\t// in\n    tag_118:\n        /* \"#utility.yul\":2246:2249   */\n      dup5\n        /* \"#utility.yul\":2242:2281   */\n      add\n        /* \"#utility.yul\":2235:2281   */\n      swap2\n      pop\n        /* \"#utility.yul\":2002:2287   */\n      pop\n        /* \"#utility.yul\":1910:2287   */\n      swap3\n      swap2\n      pop\n      pop\n      jump\t// out\n        /* \"#utility.yul\":2293:2716   */\n    tag_18:\n        /* \"#utility.yul\":2434:2438   */\n      0x00\n        /* \"#utility.yul\":2472:2474   */\n      0x40\n        /* \"#utility.yul\":2461:2470   */\n      dup3\n        /* \"#utility.yul\":2457:2475   */\n      add\n        /* \"#utility.yul\":2449:2475   */\n      swap1\n      pop\n        /* \"#utility.yul\":2485:2556   */\n      tag_120\n        /* \"#utility.yul\":2553:2554   */\n      0x00\n        /* \"#utility.yul\":2542:2551   */\n      dup4\n        /* \"#utility.yul\":2538:2555   */\n      add\n        /* \"#utility.yul\":2529:2535   */\n      dup6\n        /* \"#utility.yul\":2485:2556   */\n      tag_51\n      jump\t// in\n    tag_120:\n        /* \"#utility.yul\":2603:2612   */\n      dup2\n        /* \"#utility.yul\":2597:2601   */\n      dup2\n        /* \"#utility.yul\":2593:2613   */\n      sub\n        /* \"#utility.yul\":2588:2590   */\n      0x20\n        /* \"#utility.yul\":2577:2586   */\n      dup4\n        /* \"#utility.yul\":2573:2591   */\n      add\n        /* \"#utility.yul\":2566:2614   */\n      mstore\n        /* \"#utility.yul\":2631:2709   */\n      tag_121\n        /* \"#utility.yul\":2704:2708   */\n      dup2\n        /* \"#utility.yul\":2695:2701   */\n      dup5\n        /* \"#utility.yul\":2631:2709   */\n      tag_61\n      jump\t// in\n    tag_121:\n        /* \"#utility.yul\":2623:2709   */\n      swap1\n      pop\n        /* \"#utility.yul\":2293:2716   */\n      swap4\n      swap3\n      pop\n      pop\n      pop\n      jump\t// out\n        /* \"#utility.yul\":2722:2839   */\n    tag_62:\n        /* \"#utility.yul\":2831:2832   */\n      0x00\n        /* \"#utility.yul\":2828:2829   */\n      dup1\n        /* \"#utility.yul\":2821:2833   */\n      revert\n        /* \"#utility.yul\":2845:2962   */\n    tag_63:\n        /* \"#utility.yul\":2954:2955   */\n      0x00\n        /* \"#utility.yul\":2951:2952   */\n      dup1\n        /* \"#utility.yul\":2944:2956   */\n      revert\n        /* \"#utility.yul\":2968:3085   */\n    tag_64:\n        /* \"#utility.yul\":3077:3078   */\n      0x00\n        /* \"#utility.yul\":3074:3075   */\n      dup1\n        /* \"#utility.yul\":3067:3079   */\n      revert\n        /* \"#utility.yul\":3105:3658   */\n    tag_65:\n        /* \"#utility.yul\":3163:3171   */\n      0x00\n        /* \"#utility.yul\":3173:3179   */\n      dup1\n        /* \"#utility.yul\":3223:3226   */\n      dup4\n        /* \"#utility.yul\":3216:3220   */\n      0x1f\n        /* \"#utility.yul\":3208:3214   */\n      dup5\n        /* \"#utility.yul\":3204:3221   */\n      add\n        /* \"#utility.yul\":3200:3227   */\n      slt\n        /* \"#utility.yul\":3190:3312   */\n      tag_126\n      jumpi\n        /* \"#utility.yul\":3231:3310   */\n      tag_127\n      tag_62\n      jump\t// in\n    tag_127:\n        /* \"#utility.yul\":3190:3312   */\n    tag_126:\n        /* \"#utility.yul\":3344:3350   */\n      dup3\n        /* \"#utility.yul\":3331:3351   */\n      calldataload\n        /* \"#utility.yul\":3321:3351   */\n      swap1\n      pop\n        /* \"#utility.yul\":3374:3392   */\n      0xffffffffffffffff\n        /* \"#utility.yul\":3366:3372   */\n      dup2\n        /* \"#utility.yul\":3363:3393   */\n      gt\n        /* \"#utility.yul\":3360:3477   */\n      iszero\n      tag_128\n      jumpi\n        /* \"#utility.yul\":3396:3475   */\n      tag_129\n      tag_63\n      jump\t// in\n    tag_129:\n        /* \"#utility.yul\":3360:3477   */\n    tag_128:\n        /* \"#utility.yul\":3510:3514   */\n      0x20\n        /* \"#utility.yul\":3502:3508   */\n      dup4\n        /* \"#utility.yul\":3498:3515   */\n      add\n        /* \"#utility.yul\":3486:3515   */\n      swap2\n      pop\n        /* \"#utility.yul\":3564:3567   */\n      dup4\n        /* \"#utility.yul\":3556:3560   */\n      0x01\n        /* \"#utility.yul\":3548:3554   */\n      dup3\n        /* \"#utility.yul\":3544:3561   */\n      mul\n        /* \"#utility.yul\":3534:3542   */\n      dup4\n        /* \"#utility.yul\":3530:3562   */\n      add\n        /* \"#utility.yul\":3527:3568   */\n      gt\n        /* \"#utility.yul\":3524:3652   */\n      iszero\n      tag_130\n      jumpi\n        /* \"#utility.yul\":3571:3650   */\n      tag_131\n      tag_64\n      jump\t// in\n    tag_131:\n        /* \"#utility.yul\":3524:3652   */\n    tag_130:\n        /* \"#utility.yul\":3105:3658   */\n      swap3\n      pop\n      swap3\n      swap1\n      pop\n      jump\t// out\n        /* \"#utility.yul\":3664:4338   */\n    tag_27:\n        /* \"#utility.yul\":3744:3750   */\n      0x00\n        /* \"#utility.yul\":3752:3758   */\n      dup1\n        /* \"#utility.yul\":3760:3766   */\n      0x00\n        /* \"#utility.yul\":3809:3811   */\n      0x40\n        /* \"#utility.yul\":3797:3806   */\n      dup5\n        /* \"#utility.yul\":3788:3795   */\n      dup7\n        /* \"#utility.yul\":3784:3807   */\n      sub\n        /* \"#utility.yul\":3780:3812   */\n      slt\n        /* \"#utility.yul\":3777:3896   */\n      iszero\n      tag_133\n      jumpi\n        /* \"#utility.yul\":3815:3894   */\n      tag_134\n      tag_53\n      jump\t// in\n    tag_134:\n        /* \"#utility.yul\":3777:3896   */\n    tag_133:\n        /* \"#utility.yul\":3963:3964   */\n      0x00\n        /* \"#utility.yul\":3952:3961   */\n      dup5\n        /* \"#utility.yul\":3948:3965   */\n      add\n        /* \"#utility.yul\":3935:3966   */\n      calldataload\n        /* \"#utility.yul\":3993:4011   */\n      0xffffffffffffffff\n        /* \"#utility.yul\":3985:3991   */\n      dup2\n        /* \"#utility.yul\":3982:4012   */\n      gt\n        /* \"#utility.yul\":3979:4096   */\n      iszero\n      tag_135\n      jumpi\n        /* \"#utility.yul\":4015:4094   */\n      tag_136\n      tag_54\n      jump\t// in\n    tag_136:\n        /* \"#utility.yul\":3979:4096   */\n    tag_135:\n        /* \"#utility.yul\":4128:4193   */\n      tag_137\n        /* \"#utility.yul\":4185:4192   */\n      dup7\n        /* \"#utility.yul\":4176:4182   */\n      dup3\n        /* \"#utility.yul\":4165:4174   */\n      dup8\n        /* \"#utility.yul\":4161:4183   */\n      add\n        /* \"#utility.yul\":4128:4193   */\n      tag_65\n      jump\t// in\n    tag_137:\n        /* \"#utility.yul\":4110:4193   */\n      swap4\n      pop\n      swap4\n      pop\n        /* \"#utility.yul\":3906:4203   */\n      pop\n        /* \"#utility.yul\":4242:4244   */\n      0x20\n        /* \"#utility.yul\":4268:4321   */\n      tag_138\n        /* \"#utility.yul\":4313:4320   */\n      dup7\n        /* \"#utility.yul\":4304:4310   */\n      dup3\n        /* \"#utility.yul\":4293:4302   */\n      dup8\n        /* \"#utility.yul\":4289:4311   */\n      add\n        /* \"#utility.yul\":4268:4321   */\n      tag_56\n      jump\t// in\n    tag_138:\n        /* \"#utility.yul\":4258:4321   */\n      swap2\n      pop\n        /* \"#utility.yul\":4213:4331   */\n      pop\n        /* \"#utility.yul\":3664:4338   */\n      swap3\n      pop\n      swap3\n      pop\n      swap3\n      jump\t// out\n        /* \"#utility.yul\":4344:4461   */\n    tag_66:\n        /* \"#utility.yul\":4453:4454   */\n      0x00\n        /* \"#utility.yul\":4450:4451   */\n      dup1\n        /* \"#utility.yul\":4443:4455   */\n      revert\n        /* \"#utility.yul\":4467:4647   */\n    tag_67:\n        /* \"#utility.yul\":4515:4592   */\n      0x4e487b7100000000000000000000000000000000000000000000000000000000\n        /* \"#utility.yul\":4512:4513   */\n      0x00\n        /* \"#utility.yul\":4505:4593   */\n      mstore\n        /* \"#utility.yul\":4612:4616   */\n      0x41\n        /* \"#utility.yul\":4609:4610   */\n      0x04\n        /* \"#utility.yul\":4602:4617   */\n      mstore\n        /* \"#utility.yul\":4636:4640   */\n      0x24\n        /* \"#utility.yul\":4633:4634   */\n      0x00\n        /* \"#utility.yul\":4626:4641   */\n      revert\n        /* \"#utility.yul\":4653:4934   */\n    tag_68:\n        /* \"#utility.yul\":4736:4763   */\n      tag_142\n        /* \"#utility.yul\":4758:4762   */\n      dup3\n        /* \"#utility.yul\":4736:4763   */\n      tag_60\n      jump\t// in\n    tag_142:\n        /* \"#utility.yul\":4728:4734   */\n      dup2\n        /* \"#utility.yul\":4724:4764   */\n      add\n        /* \"#utility.yul\":4866:4872   */\n      dup2\n        /* \"#utility.yul\":4854:4864   */\n      dup2\n        /* \"#utility.yul\":4851:4873   */\n      lt\n        /* \"#utility.yul\":4830:4848   */\n      0xffffffffffffffff\n        /* \"#utility.yul\":4818:4828   */\n      dup3\n        /* \"#utility.yul\":4815:4849   */\n      gt\n        /* \"#utility.yul\":4812:4874   */\n      or\n        /* \"#utility.yul\":4809:4897   */\n      iszero\n      tag_143\n      jumpi\n        /* \"#utility.yul\":4877:4895   */\n      tag_144\n      tag_67\n      jump\t// in\n    tag_144:\n        /* \"#utility.yul\":4809:4897   */\n    tag_143:\n        /* \"#utility.yul\":4917:4927   */\n      dup1\n        /* \"#utility.yul\":4913:4915   */\n      0x40\n        /* \"#utility.yul\":4906:4928   */\n      mstore\n        /* \"#utility.yul\":4696:4934   */\n      pop\n        /* \"#utility.yul\":4653:4934   */\n      pop\n      pop\n      jump\t// out\n        /* \"#utility.yul\":4940:5069   */\n    tag_69:\n        /* \"#utility.yul\":4974:4980   */\n      0x00\n        /* \"#utility.yul\":5001:5021   */\n      tag_146\n      tag_52\n      jump\t// in\n    tag_146:\n        /* \"#utility.yul\":4991:5021   */\n      swap1\n      pop\n        /* \"#utility.yul\":5030:5063   */\n      tag_147\n        /* \"#utility.yul\":5058:5062   */\n      dup3\n        /* \"#utility.yul\":5050:5056   */\n      dup3\n        /* \"#utility.yul\":5030:5063   */\n      tag_68\n      jump\t// in\n    tag_147:\n        /* \"#utility.yul\":4940:5069   */\n      swap2\n      swap1\n      pop\n      jump\t// out\n        /* \"#utility.yul\":5075:5383   */\n    tag_70:\n        /* \"#utility.yul\":5137:5141   */\n      0x00\n        /* \"#utility.yul\":5227:5245   */\n      0xffffffffffffffff\n        /* \"#utility.yul\":5219:5225   */\n      dup3\n        /* \"#utility.yul\":5216:5246   */\n      gt\n        /* \"#utility.yul\":5213:5269   */\n      iszero\n      tag_149\n      jumpi\n        /* \"#utility.yul\":5249:5267   */\n      tag_150\n      tag_67\n      jump\t// in\n    tag_150:\n        /* \"#utility.yul\":5213:5269   */\n    tag_149:\n        /* \"#utility.yul\":5287:5316   */\n      tag_151\n        /* \"#utility.yul\":5309:5315   */\n      dup3\n        /* \"#utility.yul\":5287:5316   */\n      tag_60\n      jump\t// in\n    tag_151:\n        /* \"#utility.yul\":5279:5316   */\n      swap1\n      pop\n        /* \"#utility.yul\":5371:5375   */\n      0x20\n        /* \"#utility.yul\":5365:5369   */\n      dup2\n        /* \"#utility.yul\":5361:5376   */\n      add\n        /* \"#utility.yul\":5353:5376   */\n      swap1\n      pop\n        /* \"#utility.yul\":5075:5383   */\n      swap2\n      swap1\n      pop\n      jump\t// out\n        /* \"#utility.yul\":5389:5537   */\n    tag_71:\n        /* \"#utility.yul\":5487:5493   */\n      dup3\n        /* \"#utility.yul\":5482:5485   */\n      dup2\n        /* \"#utility.yul\":5477:5480   */\n      dup4\n        /* \"#utility.yul\":5464:5494   */\n      calldatacopy\n        /* \"#utility.yul\":5528:5529   */\n      0x00\n        /* \"#utility.yul\":5519:5525   */\n      dup4\n        /* \"#utility.yul\":5514:5517   */\n      dup4\n        /* \"#utility.yul\":5510:5526   */\n      add\n        /* \"#utility.yul\":5503:5530   */\n      mstore\n        /* \"#utility.yul\":5389:5537   */\n      pop\n      pop\n      pop\n      jump\t// out\n        /* \"#utility.yul\":5543:5968   */\n    tag_72:\n        /* \"#utility.yul\":5621:5626   */\n      0x00\n        /* \"#utility.yul\":5646:5712   */\n      tag_154\n        /* \"#utility.yul\":5662:5711   */\n      tag_155\n        /* \"#utility.yul\":5704:5710   */\n      dup5\n        /* \"#utility.yul\":5662:5711   */\n      tag_70\n      jump\t// in\n    tag_155:\n        /* \"#utility.yul\":5646:5712   */\n      tag_69\n      jump\t// in\n    tag_154:\n        /* \"#utility.yul\":5637:5712   */\n      swap1\n      pop\n        /* \"#utility.yul\":5735:5741   */\n      dup3\n        /* \"#utility.yul\":5728:5733   */\n      dup2\n        /* \"#utility.yul\":5721:5742   */\n      mstore\n        /* \"#utility.yul\":5773:5777   */\n      0x20\n        /* \"#utility.yul\":5766:5771   */\n      dup2\n        /* \"#utility.yul\":5762:5778   */\n      add\n        /* \"#utility.yul\":5811:5814   */\n      dup5\n        /* \"#utility.yul\":5802:5808   */\n      dup5\n        /* \"#utility.yul\":5797:5800   */\n      dup5\n        /* \"#utility.yul\":5793:5809   */\n      add\n        /* \"#utility.yul\":5790:5815   */\n      gt\n        /* \"#utility.yul\":5787:5899   */\n      iszero\n      tag_156\n      jumpi\n        /* \"#utility.yul\":5818:5897   */\n      tag_157\n      tag_66\n      jump\t// in\n    tag_157:\n        /* \"#utility.yul\":5787:5899   */\n    tag_156:\n        /* \"#utility.yul\":5908:5962   */\n      tag_158\n        /* \"#utility.yul\":5955:5961   */\n      dup5\n        /* \"#utility.yul\":5950:5953   */\n      dup3\n        /* \"#utility.yul\":5945:5948   */\n      dup6\n        /* \"#utility.yul\":5908:5962   */\n      tag_71\n      jump\t// in\n    tag_158:\n        /* \"#utility.yul\":5627:5968   */\n      pop\n        /* \"#utility.yul\":5543:5968   */\n      swap4\n      swap3\n      pop\n      pop\n      pop\n      jump\t// out\n        /* \"#utility.yul\":5988:6328   */\n    tag_73:\n        /* \"#utility.yul\":6044:6049   */\n      0x00\n        /* \"#utility.yul\":6093:6096   */\n      dup3\n        /* \"#utility.yul\":6086:6090   */\n      0x1f\n        /* \"#utility.yul\":6078:6084   */\n      dup4\n        /* \"#utility.yul\":6074:6091   */\n      add\n        /* \"#utility.yul\":6070:6097   */\n      slt\n        /* \"#utility.yul\":6060:6182   */\n      tag_160\n      jumpi\n        /* \"#utility.yul\":6101:6180   */\n      tag_161\n      tag_62\n      jump\t// in\n    tag_161:\n        /* \"#utility.yul\":6060:6182   */\n    tag_160:\n        /* \"#utility.yul\":6218:6224   */\n      dup2\n        /* \"#utility.yul\":6205:6225   */\n      calldataload\n        /* \"#utility.yul\":6243:6322   */\n      tag_162\n        /* \"#utility.yul\":6318:6321   */\n      dup5\n        /* \"#utility.yul\":6310:6316   */\n      dup3\n        /* \"#utility.yul\":6303:6307   */\n      0x20\n        /* \"#utility.yul\":6295:6301   */\n      dup7\n        /* \"#utility.yul\":6291:6308   */\n      add\n        /* \"#utility.yul\":6243:6322   */\n      tag_72\n      jump\t// in\n    tag_162:\n        /* \"#utility.yul\":6234:6322   */\n      swap2\n      pop\n        /* \"#utility.yul\":6050:6328   */\n      pop\n        /* \"#utility.yul\":5988:6328   */\n      swap3\n      swap2\n      pop\n      pop\n      jump\t// out\n        /* \"#utility.yul\":6334:6843   */\n    tag_31:\n        /* \"#utility.yul\":6403:6409   */\n      0x00\n        /* \"#utility.yul\":6452:6454   */\n      0x20\n        /* \"#utility.yul\":6440:6449   */\n      dup3\n        /* \"#utility.yul\":6431:6438   */\n      dup5\n        /* \"#utility.yul\":6427:6450   */\n      sub\n        /* \"#utility.yul\":6423:6455   */\n      slt\n        /* \"#utility.yul\":6420:6539   */\n      iszero\n      tag_164\n      jumpi\n        /* \"#utility.yul\":6458:6537   */\n      tag_165\n      tag_53\n      jump\t// in\n    tag_165:\n        /* \"#utility.yul\":6420:6539   */\n    tag_164:\n        /* \"#utility.yul\":6606:6607   */\n      0x00\n        /* \"#utility.yul\":6595:6604   */\n      dup3\n        /* \"#utility.yul\":6591:6608   */\n      add\n        /* \"#utility.yul\":6578:6609   */\n      calldataload\n        /* \"#utility.yul\":6636:6654   */\n      0xffffffffffffffff\n        /* \"#utility.yul\":6628:6634   */\n      dup2\n        /* \"#utility.yul\":6625:6655   */\n      gt\n        /* \"#utility.yul\":6622:6739   */\n      iszero\n      tag_166\n      jumpi\n        /* \"#utility.yul\":6658:6737   */\n      tag_167\n      tag_54\n      jump\t// in\n    tag_167:\n        /* \"#utility.yul\":6622:6739   */\n    tag_166:\n        /* \"#utility.yul\":6763:6826   */\n      tag_168\n        /* \"#utility.yul\":6818:6825   */\n      dup5\n        /* \"#utility.yul\":6809:6815   */\n      dup3\n        /* \"#utility.yul\":6798:6807   */\n      dup6\n        /* \"#utility.yul\":6794:6816   */\n      add\n        /* \"#utility.yul\":6763:6826   */\n      tag_73\n      jump\t// in\n    tag_168:\n        /* \"#utility.yul\":6753:6826   */\n      swap2\n      pop\n        /* \"#utility.yul\":6549:6836   */\n      pop\n        /* \"#utility.yul\":6334:6843   */\n      swap3\n      swap2\n      pop\n      pop\n      jump\t// out\n        /* \"#utility.yul\":6849:7029   */\n    tag_74:\n        /* \"#utility.yul\":6897:6974   */\n      0x4e487b7100000000000000000000000000000000000000000000000000000000\n        /* \"#utility.yul\":6894:6895   */\n      0x00\n        /* \"#utility.yul\":6887:6975   */\n      mstore\n        /* \"#utility.yul\":6994:6998   */\n      0x22\n        /* \"#utility.yul\":6991:6992   */\n      0x04\n        /* \"#utility.yul\":6984:6999   */\n      mstore\n        /* \"#utility.yul\":7018:7022   */\n      0x24\n        /* \"#utility.yul\":7015:7016   */\n      0x00\n        /* \"#utility.yul\":7008:7023   */\n      revert\n        /* \"#utility.yul\":7035:7355   */\n    tag_38:\n        /* \"#utility.yul\":7079:7085   */\n      0x00\n        /* \"#utility.yul\":7116:7117   */\n      0x02\n        /* \"#utility.yul\":7110:7114   */\n      dup3\n        /* \"#utility.yul\":7106:7118   */\n      div\n        /* \"#utility.yul\":7096:7118   */\n      swap1\n      pop\n        /* \"#utility.yul\":7163:7164   */\n      0x01\n        /* \"#utility.yul\":7157:7161   */\n      dup3\n        /* \"#utility.yul\":7153:7165   */\n      and\n        /* \"#utility.yul\":7184:7202   */\n      dup1\n        /* \"#utility.yul\":7174:7255   */\n      tag_171\n      jumpi\n        /* \"#utility.yul\":7240:7244   */\n      0x7f\n        /* \"#utility.yul\":7232:7238   */\n      dup3\n        /* \"#utility.yul\":7228:7245   */\n      and\n        /* \"#utility.yul\":7218:7245   */\n      swap2\n      pop\n        /* \"#utility.yul\":7174:7255   */\n    tag_171:\n        /* \"#utility.yul\":7302:7304   */\n      0x20\n        /* \"#utility.yul\":7294:7300   */\n      dup3\n        /* \"#utility.yul\":7291:7305   */\n      lt\n        /* \"#utility.yul\":7271:7289   */\n      dup2\n        /* \"#utility.yul\":7268:7306   */\n      sub\n        /* \"#utility.yul\":7265:7349   */\n      tag_172\n      jumpi\n        /* \"#utility.yul\":7321:7339   */\n      tag_173\n      tag_74\n      jump\t// in\n    tag_173:\n        /* \"#utility.yul\":7265:7349   */\n    tag_172:\n        /* \"#utility.yul\":7086:7355   */\n      pop\n        /* \"#utility.yul\":7035:7355   */\n      swap2\n      swap1\n      pop\n      jump\t// out\n        /* \"#utility.yul\":7361:7502   */\n    tag_75:\n        /* \"#utility.yul\":7410:7414   */\n      0x00\n        /* \"#utility.yul\":7433:7436   */\n      dup2\n        /* \"#utility.yul\":7425:7436   */\n      swap1\n      pop\n        /* \"#utility.yul\":7456:7459   */\n      dup2\n        /* \"#utility.yul\":7453:7454   */\n      0x00\n        /* \"#utility.yul\":7446:7460   */\n      mstore\n        /* \"#utility.yul\":7490:7494   */\n      0x20\n        /* \"#utility.yul\":7487:7488   */\n      0x00\n        /* \"#utility.yul\":7477:7495   */\n      keccak256\n        /* \"#utility.yul\":7469:7495   */\n      swap1\n      pop\n        /* \"#utility.yul\":7361:7502   */\n      swap2\n      swap1\n      pop\n      jump\t// out\n        /* \"#utility.yul\":7508:7601   */\n    tag_76:\n        /* \"#utility.yul\":7545:7551   */\n      0x00\n        /* \"#utility.yul\":7592:7594   */\n      0x20\n        /* \"#utility.yul\":7587:7589   */\n      0x1f\n        /* \"#utility.yul\":7580:7585   */\n      dup4\n        /* \"#utility.yul\":7576:7590   */\n      add\n        /* \"#utility.yul\":7572:7595   */\n      div\n        /* \"#utility.yul\":7562:7595   */\n      swap1\n      pop\n        /* \"#utility.yul\":7508:7601   */\n      swap2\n      swap1\n      pop\n      jump\t// out\n        /* \"#utility.yul\":7607:7714   */\n    tag_77:\n        /* \"#utility.yul\":7651:7659   */\n      0x00\n        /* \"#utility.yul\":7701:7706   */\n      dup3\n        /* \"#utility.yul\":7695:7699   */\n      dup3\n        /* \"#utility.yul\":7691:7707   */\n      shl\n        /* \"#utility.yul\":7670:7707   */\n      swap1\n      pop\n        /* \"#utility.yul\":7607:7714   */\n      swap3\n      swap2\n      pop\n      pop\n      jump\t// out\n        /* \"#utility.yul\":7720:8113   */\n    tag_78:\n        /* \"#utility.yul\":7789:7795   */\n      0x00\n        /* \"#utility.yul\":7839:7840   */\n      0x08\n        /* \"#utility.yul\":7827:7837   */\n      dup4\n        /* \"#utility.yul\":7823:7841   */\n      mul\n        /* \"#utility.yul\":7862:7959   */\n      tag_178\n        /* \"#utility.yul\":7892:7958   */\n      0xffffffffffffffffffffffffffffffffffffffffffffffffffffffffffffffff\n        /* \"#utility.yul\":7881:7890   */\n      dup3\n        /* \"#utility.yul\":7862:7959   */\n      tag_77\n      jump\t// in\n    tag_178:\n        /* \"#utility.yul\":7980:8019   */\n      tag_179\n        /* \"#utility.yul\":8010:8018   */\n      dup7\n        /* \"#utility.yul\":7999:8008   */\n      dup4\n        /* \"#utility.yul\":7980:8019   */\n      tag_77\n      jump\t// in\n    tag_179:\n        /* \"#utility.yul\":7968:8019   */\n      swap6\n      pop\n        /* \"#utility.yul\":8052:8056   */\n      dup1\n        /* \"#utility.yul\":8048:8057   */\n      not\n        /* \"#utility.yul\":8041:8046   */\n      dup5\n        /* \"#utility.yul\":8037:8058   */\n      and\n        /* \"#utility.yul\":8028:8058   */\n      swap4\n      pop\n        /* \"#utility.yul\":8101:8105   */\n      dup1\n        /* \"#utility.yul\":8091:8099   */\n      dup7\n        /* \"#utility.yul\":8087:8106   */\n      and\n        /* \"#utility.yul\":8080:8085   */\n      dup5\n        /* \"#utility.yul\":8077:8107   */\n      or\n        /* \"#utility.yul\":8067:8107   */\n      swap3\n      pop\n        /* \"#utility.yul\":7796:8113   */\n      pop\n      pop\n        /* \"#utility.yul\":7720:8113   */\n      swap4\n      swap3\n      pop\n      pop\n      pop\n      jump\t// out\n        /* \"#utility.yul\":8119:8179   */\n    tag_79:\n        /* \"#utility.yul\":8147:8150   */\n      0x00\n        /* \"#utility.yul\":8168:8173   */\n      dup2\n        /* \"#utility.yul\":8161:8173   */\n      swap1\n      pop\n        /* \"#utility.yul\":8119:8179   */\n      swap2\n      swap1\n      pop\n      jump\t// out\n        /* \"#utility.yul\":8185:8327   */\n    tag_80:\n        /* \"#utility.yul\":8235:8244   */\n      0x00\n        /* \"#utility.yul\":8268:8321   */\n      tag_182\n        /* \"#utility.yul\":8286:8320   */\n      tag_183\n        /* \"#utility.yul\":8295:8319   */\n      tag_184\n        /* \"#utility.yul\":8313:8318   */\n      dup5\n        /* \"#utility.yul\":8295:8319   */\n      tag_50\n      jump\t// in\n    tag_184:\n        /* \"#utility.yul\":8286:8320   */\n      tag_79\n      jump\t// in\n    tag_183:\n        /* \"#utility.yul\":8268:8321   */\n      tag_50\n      jump\t// in\n    tag_182:\n        /* \"#utility.yul\":8255:8321   */\n      swap1\n      pop\n        /* \"#utility.yul\":8185:8327   */\n      swap2\n      swap1\n      pop\n      jump\t// out\n        /* \"#utility.yul\":8333:8408   */\n    tag_81:\n        /* \"#utility.yul\":8376:8379   */\n      0x00\n        /* \"#utility.yul\":8397:8402   */\n      dup2\n        /* \"#utility.yul\":8390:8402   */\n      swap1\n      pop\n        /* \"#utility.yul\":8333:8408   */\n      swap2\n      swap1\n      pop\n      jump\t// out\n        /* \"#utility.yul\":8414:8683   */\n    tag_82:\n        /* \"#utility.yul\":8524:8563   */\n      tag_187\n        /* \"#utility.yul\":8555:8562   */\n      dup4\n        /* \"#utility.yul\":8524:8563   */\n      tag_80\n      jump\t// in\n    tag_187:\n        /* \"#utility.yul\":8585:8676   */\n      tag_188\n        /* \"#utility.yul\":8634:8675   */\n      tag_189\n        /* \"#utility.yul\":8658:8674   */\n      dup3\n        /* \"#utility.yul\":8634:8675   */\n      tag_81\n      jump\t// in\n    tag_189:\n        /* \"#utility.yul\":8626:8632   */\n      dup5\n        /* \"#utility.yul\":8619:8623   */\n      dup5\n        /* \"#utility.yul\":8613:8624   */\n      sload\n        /* \"#utility.yul\":8585:8676   */\n      tag_78\n      jump\t// in\n    tag_188:\n        /* \"#utility.yul\":8579:8583   */\n      dup3\n        /* \"#utility.yul\":8572:8677   */\n      sstore\n        /* \"#utility.yul\":8490:8683   */\n      pop\n        /* \"#utility.yul\":8414:8683   */\n      pop\n      pop\n      pop\n      jump\t// out\n        /* \"#utility.yul\":8689:8762   */\n    tag_83:\n        /* \"#utility.yul\":8734:8737   */\n      0x00\n        /* \"#utility.yul\":8689:8762   */\n      swap1\n      jump\t// out\n        /* \"#utility.yul\":8768:8957   */\n    tag_84:\n        /* \"#utility.yul\":8845:8877   */\n      tag_192\n      tag_83\n      jump\t// in\n    tag_192:\n        /* \"#utility.yul\":8886:8951   */\n      tag_193\n        /* \"#utility.yul\":8944:8950   */\n      dup2\n        /* \"#utility.yul\":8936:8942   */\n      dup5\n        /* \"#utility.yul\":8930:8934   */\n      dup5\n        /* \"#utility.yul\":8886:8951   */\n      tag_82\n      jump\t// in\n    tag_193:\n        /* \"#utility.yul\":8821:8957   */\n      pop\n        /* \"#utility.yul\":8768:8957   */\n      pop\n      pop\n      jump\t// out\n        /* \"#utility.yul\":8963:9149   */\n    tag_85:\n        /* \"#utility.yul\":9023:9143   */\n    tag_195:\n        /* \"#utility.yul\":9040:9043   */\n      dup2\n        /* \"#utility.yul\":9033:9038   */\n      dup2\n        /* \"#utility.yul\":9030:9044   */\n      lt\n        /* \"#utility.yul\":9023:9143   */\n      iszero\n      tag_197\n      jumpi\n        /* \"#utility.yul\":9094:9133   */\n      tag_198\n        /* \"#utility.yul\":9131:9132   */\n      0x00\n        /* \"#utility.yul\":9124:9129   */\n      dup3\n        /* \"#utility.yul\":9094:9133   */\n      tag_84\n      jump\t// in\n    tag_198:\n        /* \"#utility.yul\":9067:9068   */\n      0x01\n        /* \"#utility.yul\":9060:9065   */\n      dup2\n        /* \"#utility.yul\":9056:9069   */\n      add\n        /* \"#utility.yul\":9047:9069   */\n      swap1\n      pop\n        /* \"#utility.yul\":9023:9143   */\n      jump(tag_195)\n    tag_197:\n        /* \"#utility.yul\":8963:9149   */\n      pop\n      pop\n      jump\t// out\n        /* \"#utility.yul\":9155:9698   */\n    tag_86:\n        /* \"#utility.yul\":9256:9258   */\n      0x1f\n        /* \"#utility.yul\":9251:9254   */\n      dup3\n        /* \"#utility.yul\":9248:9259   */\n      gt\n        /* \"#utility.yul\":9245:9691   */\n      iszero\n      tag_200\n      jumpi\n        /* \"#utility.yul\":9290:9328   */\n      tag_201\n        /* \"#utility.yul\":9322:9327   */\n      dup2\n        /* \"#utility.yul\":9290:9328   */\n      tag_75\n      jump\t// in\n    tag_201:\n        /* \"#utility.yul\":9374:9403   */\n      tag_202\n        /* \"#utility.yul\":9392:9402   */\n      dup5\n        /* \"#utility.yul\":9374:9403   */\n      tag_76\n      jump\t// in\n    tag_202:\n        /* \"#utility.yul\":9364:9372   */\n      dup2\n        /* \"#utility.yul\":9360:9404   */\n      add\n        /* \"#utility.yul\":9557:9559   */\n      0x20\n        /* \"#utility.yul\":9545:9555   */\n      dup6\n        /* \"#utility.yul\":9542:9560   */\n      lt\n        /* \"#utility.yul\":9539:9588   */\n      iszero\n      tag_203\n      jumpi\n        /* \"#utility.yul\":9578:9586   */\n      dup2\n        /* \"#utility.yul\":9563:9586   */\n      swap1\n      pop\n        /* \"#utility.yul\":9539:9588   */\n    tag_203:\n        /* \"#utility.yul\":9601:9681   */\n      tag_204\n        /* \"#utility.yul\":9657:9679   */\n      tag_205\n        /* \"#utility.yul\":9675:9678   */\n      dup6\n        /* \"#utility.yul\":9657:9679   */\n      tag_76\n      jump\t// in\n    tag_205:\n        /* \"#utility.yul\":9647:9655   */\n      dup4\n        /* \"#utility.yul\":9643:9680   */\n      add\n        /* \"#utility.yul\":9630:9641   */\n      dup3\n        /* \"#utility.yul\":9601:9681   */\n      tag_85\n      jump\t// in\n    tag_204:\n        /* \"#utility.yul\":9260:9691   */\n      pop\n      pop\n        /* \"#utility.yul\":9245:9691   */\n    tag_200:\n        /* \"#utility.yul\":9155:9698   */\n      pop\n      pop\n      pop\n      jump\t// out\n        /* \"#utility.yul\":9704:9821   */\n    tag_87:\n        /* \"#utility.yul\":9758:9766   */\n      0x00\n        /* \"#utility.yul\":9808:9813   */\n      dup3\n        /* \"#utility.yul\":9802:9806   */\n      dup3\n        /* \"#utility.yul\":9798:9814   */\n      shr\n        /* \"#utility.yul\":9777:9814   */\n      swap1\n      pop\n        /* \"#utility.yul\":9704:9821   */\n      swap3\n      swap2\n      pop\n      pop\n      jump\t// out\n        /* \"#utility.yul\":9827:9996   */\n    tag_88:\n        /* \"#utility.yul\":9871:9877   */\n      0x00\n        /* \"#utility.yul\":9904:9955   */\n      tag_208\n        /* \"#utility.yul\":9952:9953   */\n      0x00\n        /* \"#utility.yul\":9948:9954   */\n      not\n        /* \"#utility.yul\":9940:9945   */\n      dup5\n        /* \"#utility.yul\":9937:9938   */\n      0x08\n        /* \"#utility.yul\":9933:9946   */\n      mul\n        /* \"#utility.yul\":9904:9955   */\n      tag_87\n      jump\t// in\n    tag_208:\n        /* \"#utility.yul\":9900:9956   */\n      not\n        /* \"#utility.yul\":9985:9989   */\n      dup1\n        /* \"#utility.yul\":9979:9983   */\n      dup4\n        /* \"#utility.yul\":9975:9990   */\n      and\n        /* \"#utility.yul\":9965:9990   */\n      swap2\n      pop\n        /* \"#utility.yul\":9878:9996   */\n      pop\n        /* \"#utility.yul\":9827:9996   */\n      swap3\n      swap2\n      pop\n      pop\n      jump\t// out\n        /* \"#utility.yul\":10001:10296   */\n    tag_89:\n        /* \"#utility.yul\":10077:10081   */\n      0x00\n        /* \"#utility.yul\":10223:10252   */\n      tag_210\n        /* \"#utility.yul\":10248:10251   */\n      dup4\n        /* \"#utility.yul\":10242:10246   */\n      dup4\n        /* \"#utility.yul\":10223:10252   */\n      tag_88\n      jump\t// in\n    tag_210:\n        /* \"#utility.yul\":10215:10252   */\n      swap2\n      pop\n        /* \"#utility.yul\":10285:10288   */\n      dup3\n        /* \"#utility.yul\":10282:10283   */\n      0x02\n        /* \"#utility.yul\":10278:10289   */\n      mul\n        /* \"#utility.yul\":10272:10276   */\n      dup3\n        /* \"#utility.yul\":10269:10290   */\n      or\n        /* \"#utility.yul\":10261:10290   */\n      swap1\n      pop\n        /* \"#utility.yul\":10001:10296   */\n      swap3\n      swap2\n      pop\n      pop\n      jump\t// out\n        /* \"#utility.yul\":10301:11696   */\n    tag_47:\n        /* \"#utility.yul\":10418:10455   */\n      tag_212\n        /* \"#utility.yul\":10451:10454   */\n      dup3\n        /* \"#utility.yul\":10418:10455   */\n      tag_57\n      jump\t// in\n    tag_212:\n        /* \"#utility.yul\":10520:10538   */\n      0xffffffffffffffff\n        /* \"#utility.yul\":10512:10518   */\n      dup2\n        /* \"#utility.yul\":10509:10539   */\n      gt\n        /* \"#utility.yul\":10506:10562   */\n      iszero\n      tag_213\n      jumpi\n        /* \"#utility.yul\":10542:10560   */\n      tag_214\n      tag_67\n      jump\t// in\n    tag_214:\n        /* \"#utility.yul\":10506:10562   */\n    tag_213:\n        /* \"#utility.yul\":10586:10624   */\n      tag_215\n        /* \"#utility.yul\":10618:10622   */\n      dup3\n        /* \"#utility.yul\":10612:10623   */\n      sload\n        /* \"#utility.yul\":10586:10624   */\n      tag_38\n      jump\t// in\n    tag_215:\n        /* \"#utility.yul\":10671:10738   */\n      tag_216\n        /* \"#utility.yul\":10731:10737   */\n      dup3\n        /* \"#utility.yul\":10723:10729   */\n      dup3\n        /* \"#utility.yul\":10717:10721   */\n      dup6\n        /* \"#utility.yul\":10671:10738   */\n      tag_86\n      jump\t// in\n    tag_216:\n        /* \"#utility.yul\":10765:10766   */\n      0x00\n        /* \"#utility.yul\":10789:10793   */\n      0x20\n        /* \"#utility.yul\":10776:10793   */\n      swap1\n      pop\n        /* \"#utility.yul\":10821:10823   */\n      0x1f\n        /* \"#utility.yul\":10813:10819   */\n      dup4\n        /* \"#utility.yul\":10810:10824   */\n      gt\n        /* \"#utility.yul\":10838:10839   */\n      0x01\n        /* \"#utility.yul\":10833:11451   */\n      dup2\n      eq\n      tag_218\n      jumpi\n        /* \"#utility.yul\":11495:11496   */\n      0x00\n        /* \"#utility.yul\":11512:11518   */\n      dup5\n        /* \"#utility.yul\":11509:11586   */\n      iszero\n      tag_219\n      jumpi\n        /* \"#utility.yul\":11561:11570   */\n      dup3\n        /* \"#utility.yul\":11556:11559   */\n      dup8\n        /* \"#utility.yul\":11552:11571   */\n      add\n        /* \"#utility.yul\":11546:11572   */\n      mload\n        /* \"#utility.yul\":11537:11572   */\n      swap1\n      pop\n        /* \"#utility.yul\":11509:11586   */\n    tag_219:\n        /* \"#utility.yul\":11612:11679   */\n      tag_220\n        /* \"#utility.yul\":11672:11678   */\n      dup6\n        /* \"#utility.yul\":11665:11670   */\n      dup3\n        /* \"#utility.yul\":11612:11679   */\n      tag_89\n      jump\t// in\n    tag_220:\n        /* \"#utility.yul\":11606:11610   */\n      dup7\n        /* \"#utility.yul\":11599:11680   */\n      sstore\n        /* \"#utility.yul\":11468:11690   */\n      pop\n        /* \"#utility.yul\":10803:11690   */\n      jump(tag_217)\n        /* \"#utility.yul\":10833:11451   */\n    tag_218:\n        /* \"#utility.yul\":10885:10889   */\n      0x1f\n        /* \"#utility.yul\":10881:10890   */\n      not\n        /* \"#utility.yul\":10873:10879   */\n      dup5\n        /* \"#utility.yul\":10869:10891   */\n      and\n        /* \"#utility.yul\":10919:10956   */\n      tag_221\n        /* \"#utility.yul\":10951:10955   */\n      dup7\n        /* \"#utility.yul\":10919:10956   */\n      tag_75\n      jump\t// in\n    tag_221:\n        /* \"#utility.yul\":10978:10979   */\n      0x00\n        /* \"#utility.yul\":10992:11200   */\n    tag_222:\n        /* \"#utility.yul\":11006:11013   */\n      dup3\n        /* \"#utility.yul\":11003:11004   */\n      dup2\n        /* \"#utility.yul\":11000:11014   */\n      lt\n        /* \"#utility.yul\":10992:11200   */\n      iszero\n      tag_224\n      jumpi\n        /* \"#utility.yul\":11085:11094   */\n      dup5\n        /* \"#utility.yul\":11080:11083   */\n      dup10\n        /* \"#utility.yul\":11076:11095   */\n      add\n        /* \"#utility.yul\":11070:11096   */\n      mload\n        /* \"#utility.yul\":11062:11068   */\n      dup3\n        /* \"#utility.yul\":11055:11097   */\n      sstore\n        /* \"#utility.yul\":11136:11137   */\n      0x01\n        /* \"#utility.yul\":11128:11134   */\n      dup3\n        /* \"#utility.yul\":11124:11138   */\n      add\n        /* \"#utility.yul\":11114:11138   */\n      swap2\n      pop\n        /* \"#utility.yul\":11183:11185   */\n      0x20\n        /* \"#utility.yul\":11172:11181   */\n      dup6\n        /* \"#utility.yul\":11168:11186   */\n      add\n        /* \"#utility.yul\":11155:11186   */\n      swap5\n      pop\n        /* \"#utility.yul\":11029:11033   */\n      0x20\n        /* \"#utility.yul\":11026:11027   */\n      dup2\n        /* \"#utility.yul\":11022:11034   */\n      add\n        /* \"#utility.yul\":11017:11034   */\n      swap1\n      pop\n        /* \"#utility.yul\":10992:11200   */\n      jump(tag_222)\n    tag_224:\n        /* \"#utility.yul\":11228:11234   */\n      dup7\n        /* \"#utility.yul\":11219:11226   */\n      dup4\n        /* \"#utility.yul\":11216:11235   */\n      lt\n        /* \"#utility.yul\":11213:11392   */\n      iszero\n      tag_225\n      jumpi\n        /* \"#utility.yul\":11286:11295   */\n      dup5\n        /* \"#utility.yul\":11281:11284   */\n      dup10\n        /* \"#utility.yul\":11277:11296   */\n      add\n        /* \"#utility.yul\":11271:11297   */\n      mload\n        /* \"#utility.yul\":11329:11377   */\n      tag_226\n        /* \"#utility.yul\":11371:11375   */\n      0x1f\n        /* \"#utility.yul\":11363:11369   */\n      dup10\n        /* \"#utility.yul\":11359:11376   */\n      and\n        /* \"#utility.yul\":11348:11357   */\n      dup3\n        /* \"#utility.yul\":11329:11377   */\n      tag_88\n      jump\t// in\n    tag_226:\n        /* \"#utility.yul\":11321:11327   */\n      dup4\n        /* \"#utility.yul\":11314:11378   */\n      sstore\n        /* \"#utility.yul\":11236:11392   */\n      pop\n        /* \"#utility.yul\":11213:11392   */\n    tag_225:\n        /* \"#utility.yul\":11438:11439   */\n      0x01\n        /* \"#utility.yul\":11434:11435   */\n      0x02\n        /* \"#utility.yul\":11426:11432   */\n      dup9\n        /* \"#utility.yul\":11422:11436   */\n      mul\n        /* \"#utility.yul\":11418:11440   */\n      add\n        /* \"#utility.yul\":11412:11416   */\n      dup9\n        /* \"#utility.yul\":11405:11441   */\n      sstore\n        /* \"#utility.yul\":10840:11451   */\n      pop\n      pop\n      pop\n        /* \"#utility.yul\":10803:11690   */\n    tag_217:\n      pop\n        /* \"#utility.yul\":10393:11696   */\n      pop\n      pop\n      pop\n        /* \"#utility.yul\":10301:11696   */\n      pop\n      pop\n      jump\t// out\n        /* \"#utility.yul\":11702:11850   */\n    tag_90:\n        /* \"#utility.yul\":11804:11815   */\n      0x00\n        /* \"#utility.yul\":11841:11844   */\n      dup2\n        /* \"#utility.yul\":11826:11844   */\n      swap1\n      pop\n        /* \"#utility.yul\":11702:11850   */\n      swap3\n      swap2\n      pop\n      pop\n      jump\t// out\n        /* \"#utility.yul\":11880:12210   */\n    tag_91:\n        /* \"#utility.yul\":11996:11999   */\n      0x00\n        /* \"#utility.yul\":12017:12106   */\n      tag_229\n        /* \"#utility.yul\":12099:12105   */\n      dup4\n        /* \"#utility.yul\":12094:12097   */\n      dup6\n        /* \"#utility.yul\":12017:12106   */\n      tag_90\n      jump\t// in\n    tag_229:\n        /* \"#utility.yul\":12010:12106   */\n      swap4\n      pop\n        /* \"#utility.yul\":12116:12172   */\n      tag_230\n        /* \"#utility.yul\":12165:12171   */\n      dup4\n        /* \"#utility.yul\":12160:12163   */\n      dup6\n        /* \"#utility.yul\":12153:12158   */\n      dup5\n        /* \"#utility.yul\":12116:12172   */\n      tag_71\n      jump\t// in\n    tag_230:\n        /* \"#utility.yul\":12197:12203   */\n      dup3\n        /* \"#utility.yul\":12192:12195   */\n      dup5\n        /* \"#utility.yul\":12188:12204   */\n      add\n        /* \"#utility.yul\":12181:12204   */\n      swap1\n      pop\n        /* \"#utility.yul\":11880:12210   */\n      swap4\n      swap3\n      pop\n      pop\n      pop\n      jump\t// out\n        /* \"#utility.yul\":12216:12511   */\n    tag_49:\n        /* \"#utility.yul\":12358:12361   */\n      0x00\n        /* \"#utility.yul\":12380:12485   */\n      tag_232\n        /* \"#utility.yul\":12481:12484   */\n      dup3\n        /* \"#utility.yul\":12472:12478   */\n      dup5\n        /* \"#utility.yul\":12464:12470   */\n      dup7\n        /* \"#utility.yul\":12380:12485   */\n      tag_91\n      jump\t// in\n    tag_232:\n        /* \"#utility.yul\":12373:12485   */\n      swap2\n      pop\n        /* \"#utility.yul\":12502:12505   */\n      dup2\n        /* \"#utility.yul\":12495:12505   */\n      swap1\n      pop\n        /* \"#utility.yul\":12216:12511   */\n      swap4\n      swap3\n      pop\n      pop\n      pop\n      jump\t// out\n\n    auxdata: 0xa264697066735822122018f39c1d22b4d44a9cc3c5bcf6487374fbec4a003ab203c32fdcf0f7758efde864736f6c634300081a0033\n}\n",
				"bytecode": {
					"linkReferences": {},
					"object": "6080604052348015600e575f80fd5b506109a28061001c5f395ff3fe608060405234801561000f575f80fd5b5060043610610060575f3560e01c80632e64cec1146100645780632ebce631146100825780636057361d146100b35780636d83bc57146100cf5780636f760f41146100ed5780638bab8dd514610109575b5f80fd5b61006c610139565b6040516100799190610313565b60405180910390f35b61009c60048036038101906100979190610367565b610141565b6040516100aa929190610402565b60405180910390f35b6100cd60048036038101906100c89190610367565b6101f6565b005b6100d76101ff565b6040516100e49190610313565b60405180910390f35b61010760048036038101906101029190610491565b610204565b005b610123600480360381019061011e9190610616565b6102ce565b6040516101309190610313565b60405180910390f35b5f8054905090565b60018181548110610150575f80fd5b905f5260205f2090600202015f91509050805f0154908060010180546101759061068a565b80601f01602080910402602001604051908101604052809291908181526020018280546101a19061068a565b80156101ec5780601f106101c3576101008083540402835291602001916101ec565b820191905f5260205f20905b8154815290600101906020018083116101cf57829003601f168201915b5050505050905082565b805f8190555050565b5f5481565b6001604051806040016040528083815260200185858080601f0160208091040260200160405190810160405280939291908181526020018383808284375f81840152601f19601f82011690508083019250505050505050815250908060018154018082558091505060019003905f5260205f2090600202015f909190919091505f820151815f015560208201518160010190816102a19190610857565b50505080600284846040516102b7929190610954565b908152602001604051809103902081905550505050565b6002818051602081018201805184825260208301602085012081835280955050505050505f915090505481565b5f819050919050565b61030d816102fb565b82525050565b5f6020820190506103265f830184610304565b92915050565b5f604051905090565b5f80fd5b5f80fd5b610346816102fb565b8114610350575f80fd5b50565b5f813590506103618161033d565b92915050565b5f6020828403121561037c5761037b610335565b5b5f61038984828501610353565b91505092915050565b5f81519050919050565b5f82825260208201905092915050565b8281835e5f83830152505050565b5f601f19601f8301169050919050565b5f6103d482610392565b6103de818561039c565b93506103ee8185602086016103ac565b6103f7816103ba565b840191505092915050565b5f6040820190506104155f830185610304565b818103602083015261042781846103ca565b90509392505050565b5f80fd5b5f80fd5b5f80fd5b5f8083601f84011261045157610450610430565b5b8235905067ffffffffffffffff81111561046e5761046d610434565b5b60208301915083600182028301111561048a57610489610438565b5b9250929050565b5f805f604084860312156104a8576104a7610335565b5b5f84013567ffffffffffffffff8111156104c5576104c4610339565b5b6104d18682870161043c565b935093505060206104e486828701610353565b9150509250925092565b5f80fd5b7f4e487b71000000000000000000000000000000000000000000000000000000005f52604160045260245ffd5b610528826103ba565b810181811067ffffffffffffffff82111715610547576105466104f2565b5b80604052505050565b5f61055961032c565b9050610565828261051f565b919050565b5f67ffffffffffffffff821115610584576105836104f2565b5b61058d826103ba565b9050602081019050919050565b828183375f83830152505050565b5f6105ba6105b58461056a565b610550565b9050828152602081018484840111156105d6576105d56104ee565b5b6105e184828561059a565b509392505050565b5f82601f8301126105fd576105fc610430565b5b813561060d8482602086016105a8565b91505092915050565b5f6020828403121561062b5761062a610335565b5b5f82013567ffffffffffffffff81111561064857610647610339565b5b610654848285016105e9565b91505092915050565b7f4e487b71000000000000000000000000000000000000000000000000000000005f52602260045260245ffd5b5f60028204905060018216806106a157607f821691505b6020821081036106b4576106b361065d565b5b50919050565b5f819050815f5260205f209050919050565b5f6020601f8301049050919050565b5f82821b905092915050565b5f600883026107167fffffffffffffffffffffffffffffffffffffffffffffffffffffffffffffffff826106db565b61072086836106db565b95508019841693508086168417925050509392505050565b5f819050919050565b5f61075b610756610751846102fb565b610738565b6102fb565b9050919050565b5f819050919050565b61077483610741565b61078861078082610762565b8484546106e7565b825550505050565b5f90565b61079c610790565b6107a781848461076b565b505050565b5b818110156107ca576107bf5f82610794565b6001810190506107ad565b5050565b601f82111561080f576107e0816106ba565b6107e9846106cc565b810160208510156107f8578190505b61080c610804856106cc565b8301826107ac565b50505b505050565b5f82821c905092915050565b5f61082f5f1984600802610814565b1980831691505092915050565b5f6108478383610820565b9150826002028217905092915050565b61086082610392565b67ffffffffffffffff811115610879576108786104f2565b5b610883825461068a565b61088e8282856107ce565b5f60209050601f8311600181146108bf575f84156108ad578287015190505b6108b7858261083c565b86555061091e565b601f1984166108cd866106ba565b5f5b828110156108f4578489015182556001820191506020850194506020810190506108cf565b86831015610911578489015161090d601f891682610820565b8355505b6001600288020188555050505b505050505050565b5f81905092915050565b5f61093b8385610926565b935061094883858461059a565b82840190509392505050565b5f610960828486610930565b9150819050939250505056fea264697066735822122018f39c1d22b4d44a9cc3c5bcf6487374fbec4a003ab203c32fdcf0f7758efde864736f6c634300081a0033",
					"opcodes": "PUSH1 0x80 PUSH1 0x40 MSTORE CALLVALUE DUP1 ISZERO PUSH1 0xE JUMPI PUSH0 DUP1 REVERT JUMPDEST POP PUSH2 0x9A2 DUP1 PUSH2 0x1C PUSH0 CODECOPY PUSH0 RETURN INVALID PUSH1 0x80 PUSH1 0x40 MSTORE CALLVALUE DUP1 ISZERO PUSH2 0xF JUMPI PUSH0 DUP1 REVERT JUMPDEST POP PUSH1 0x4 CALLDATASIZE LT PUSH2 0x60 JUMPI PUSH0 CALLDATALOAD PUSH1 0xE0 SHR DUP1 PUSH4 0x2E64CEC1 EQ PUSH2 0x64 JUMPI DUP1 PUSH4 0x2EBCE631 EQ PUSH2 0x82 JUMPI DUP1 PUSH4 0x6057361D EQ PUSH2 0xB3 JUMPI DUP1 PUSH4 0x6D83BC57 EQ PUSH2 0xCF JUMPI DUP1 PUSH4 0x6F760F41 EQ PUSH2 0xED JUMPI DUP1 PUSH4 0x8BAB8DD5 EQ PUSH2 0x109 JUMPI JUMPDEST PUSH0 DUP1 REVERT JUMPDEST PUSH2 0x6C PUSH2 0x139 JUMP JUMPDEST PUSH1 0x40 MLOAD PUSH2 0x79 SWAP2 SWAP1 PUSH2 0x313 JUMP JUMPDEST PUSH1 0x40 MLOAD DUP1 SWAP2 SUB SWAP1 RETURN JUMPDEST PUSH2 0x9C PUSH1 0x4 DUP1 CALLDATASIZE SUB DUP2 ADD SWAP1 PUSH2 0x97 SWAP2 SWAP1 PUSH2 0x367 JUMP JUMPDEST PUSH2 0x141 JUMP JUMPDEST PUSH1 0x40 MLOAD PUSH2 0xAA SWAP3 SWAP2 SWAP1 PUSH2 0x402 JUMP JUMPDEST PUSH1 0x40 MLOAD DUP1 SWAP2 SUB SWAP1 RETURN JUMPDEST PUSH2 0xCD PUSH1 0x4 DUP1 CALLDATASIZE SUB DUP2 ADD SWAP1 PUSH2 0xC8 SWAP2 SWAP1 PUSH2 0x367 JUMP JUMPDEST PUSH2 0x1F6 JUMP JUMPDEST STOP JUMPDEST PUSH2 0xD7 PUSH2 0x1FF JUMP JUMPDEST PUSH1 0x40 MLOAD PUSH2 0xE4 SWAP2 SWAP1 PUSH2 0x313 JUMP JUMPDEST PUSH1 0x40 MLOAD DUP1 SWAP2 SUB SWAP1 RETURN JUMPDEST PUSH2 0x107 PUSH1 0x4 DUP1 CALLDATASIZE SUB DUP2 ADD SWAP1 PUSH2 0x102 SWAP2 SWAP1 PUSH2 0x491 JUMP JUMPDEST PUSH2 0x204 JUMP JUMPDEST STOP JUMPDEST PUSH2 0x123 PUSH1 0x4 DUP1 CALLDATASIZE SUB DUP2 ADD SWAP1 PUSH2 0x11E SWAP2 SWAP1 PUSH2 0x616 JUMP JUMPDEST PUSH2 0x2CE JUMP JUMPDEST PUSH1 0x40 MLOAD PUSH2 0x130 SWAP2 SWAP1 PUSH2 0x313 JUMP JUMPDEST PUSH1 0x40 MLOAD DUP1 SWAP2 SUB SWAP1 RETURN JUMPDEST PUSH0 DUP1 SLOAD SWAP1 POP SWAP1 JUMP JUMPDEST PUSH1 0x1 DUP2 DUP2 SLOAD DUP2 LT PUSH2 0x150 JUMPI PUSH0 DUP1 REVERT JUMPDEST SWAP1 PUSH0 MSTORE PUSH1 0x20 PUSH0 KECCAK256 SWAP1 PUSH1 0x2 MUL ADD PUSH0 SWAP2 POP SWAP1 POP DUP1 PUSH0 ADD SLOAD SWAP1 DUP1 PUSH1 0x1 ADD DUP1 SLOAD PUSH2 0x175 SWAP1 PUSH2 0x68A JUMP JUMPDEST DUP1 PUSH1 0x1F ADD PUSH1 0x20 DUP1 SWAP2 DIV MUL PUSH1 0x20 ADD PUSH1 0x40 MLOAD SWAP1 DUP2 ADD PUSH1 0x40 MSTORE DUP1 SWAP3 SWAP2 SWAP1 DUP2 DUP2 MSTORE PUSH1 0x20 ADD DUP3 DUP1 SLOAD PUSH2 0x1A1 SWAP1 PUSH2 0x68A JUMP JUMPDEST DUP1 ISZERO PUSH2 0x1EC JUMPI DUP1 PUSH1 0x1F LT PUSH2 0x1C3 JUMPI PUSH2 0x100 DUP1 DUP4 SLOAD DIV MUL DUP4 MSTORE SWAP2 PUSH1 0x20 ADD SWAP2 PUSH2 0x1EC JUMP JUMPDEST DUP3 ADD SWAP2 SWAP1 PUSH0 MSTORE PUSH1 0x20 PUSH0 KECCAK256 SWAP1 JUMPDEST DUP2 SLOAD DUP2 MSTORE SWAP1 PUSH1 0x1 ADD SWAP1 PUSH1 0x20 ADD DUP1 DUP4 GT PUSH2 0x1CF JUMPI DUP3 SWAP1 SUB PUSH1 0x1F AND DUP3 ADD SWAP2 JUMPDEST POP POP POP POP POP SWAP1 POP DUP3 JUMP JUMPDEST DUP1 PUSH0 DUP2 SWAP1 SSTORE POP POP JUMP JUMPDEST PUSH0 SLOAD DUP2 JUMP JUMPDEST PUSH1 0x1 PUSH1 0x40 MLOAD DUP1 PUSH1 0x40 ADD PUSH1 0x40 MSTORE DUP1 DUP4 DUP2 MSTORE PUSH1 0x20 ADD DUP6 DUP6 DUP1 DUP1 PUSH1 0x1F ADD PUSH1 0x20 DUP1 SWAP2 DIV MUL PUSH1 0x20 ADD PUSH1 0x40 MLOAD SWAP1 DUP2 ADD PUSH1 0x40 MSTORE DUP1 SWAP4 SWAP3 SWAP2 SWAP1 DUP2 DUP2 MSTORE PUSH1 0x20 ADD DUP4 DUP4 DUP1 DUP3 DUP5 CALLDATACOPY PUSH0 DUP2 DUP5 ADD MSTORE PUSH1 0x1F NOT PUSH1 0x1F DUP3 ADD AND SWAP1 POP DUP1 DUP4 ADD SWAP3 POP POP POP POP POP POP POP DUP2 MSTORE POP SWAP1 DUP1 PUSH1 0x1 DUP2 SLOAD ADD DUP1 DUP3 SSTORE DUP1 SWAP2 POP POP PUSH1 0x1 SWAP1 SUB SWAP1 PUSH0 MSTORE PUSH1 0x20 PUSH0 KECCAK256 SWAP1 PUSH1 0x2 MUL ADD PUSH0 SWAP1 SWAP2 SWAP1 SWAP2 SWAP1 SWAP2 POP PUSH0 DUP3 ADD MLOAD DUP2 PUSH0 ADD SSTORE PUSH1 0x20 DUP3 ADD MLOAD DUP2 PUSH1 0x1 ADD SWAP1 DUP2 PUSH2 0x2A1 SWAP2 SWAP1 PUSH2 0x857 JUMP JUMPDEST POP POP POP DUP1 PUSH1 0x2 DUP5 DUP5 PUSH1 0x40 MLOAD PUSH2 0x2B7 SWAP3 SWAP2 SWAP1 PUSH2 0x954 JUMP JUMPDEST SWAP1 DUP2 MSTORE PUSH1 0x20 ADD PUSH1 0x40 MLOAD DUP1 SWAP2 SUB SWAP1 KECCAK256 DUP2 SWAP1 SSTORE POP POP POP POP JUMP JUMPDEST PUSH1 0x2 DUP2 DUP1 MLOAD PUSH1 0x20 DUP2 ADD DUP3 ADD DUP1 MLOAD DUP5 DUP3 MSTORE PUSH1 0x20 DUP4 ADD PUSH1 0x20 DUP6 ADD KECCAK256 DUP2 DUP4 MSTORE DUP1 SWAP6 POP POP POP POP POP POP PUSH0 SWAP2 POP SWAP1 POP SLOAD DUP2 JUMP JUMPDEST PUSH0 DUP2 SWAP1 POP SWAP2 SWAP1 POP JUMP JUMPDEST PUSH2 0x30D DUP2 PUSH2 0x2FB JUMP JUMPDEST DUP3 MSTORE POP POP JUMP JUMPDEST PUSH0 PUSH1 0x20 DUP3 ADD SWAP1 POP PUSH2 0x326 PUSH0 DUP4 ADD DUP5 PUSH2 0x304 JUMP JUMPDEST SWAP3 SWAP2 POP POP JUMP JUMPDEST PUSH0 PUSH1 0x40 MLOAD SWAP1 POP SWAP1 JUMP JUMPDEST PUSH0 DUP1 REVERT JUMPDEST PUSH0 DUP1 REVERT JUMPDEST PUSH2 0x346 DUP2 PUSH2 0x2FB JUMP JUMPDEST DUP2 EQ PUSH2 0x350 JUMPI PUSH0 DUP1 REVERT JUMPDEST POP JUMP JUMPDEST PUSH0 DUP2 CALLDATALOAD SWAP1 POP PUSH2 0x361 DUP2 PUSH2 0x33D JUMP JUMPDEST SWAP3 SWAP2 POP POP JUMP JUMPDEST PUSH0 PUSH1 0x20 DUP3 DUP5 SUB SLT ISZERO PUSH2 0x37C JUMPI PUSH2 0x37B PUSH2 0x335 JUMP JUMPDEST JUMPDEST PUSH0 PUSH2 0x389 DUP5 DUP3 DUP6 ADD PUSH2 0x353 JUMP JUMPDEST SWAP2 POP POP SWAP3 SWAP2 POP POP JUMP JUMPDEST PUSH0 DUP2 MLOAD SWAP1 POP SWAP2 SWAP1 POP JUMP JUMPDEST PUSH0 DUP3 DUP3 MSTORE PUSH1 0x20 DUP3 ADD SWAP1 POP SWAP3 SWAP2 POP POP JUMP JUMPDEST DUP3 DUP2 DUP4 MCOPY PUSH0 DUP4 DUP4 ADD MSTORE POP POP POP JUMP JUMPDEST PUSH0 PUSH1 0x1F NOT PUSH1 0x1F DUP4 ADD AND SWAP1 POP SWAP2 SWAP1 POP JUMP JUMPDEST PUSH0 PUSH2 0x3D4 DUP3 PUSH2 0x392 JUMP JUMPDEST PUSH2 0x3DE DUP2 DUP6 PUSH2 0x39C JUMP JUMPDEST SWAP4 POP PUSH2 0x3EE DUP2 DUP6 PUSH1 0x20 DUP7 ADD PUSH2 0x3AC JUMP JUMPDEST PUSH2 0x3F7 DUP2 PUSH2 0x3BA JUMP JUMPDEST DUP5 ADD SWAP2 POP POP SWAP3 SWAP2 POP POP JUMP JUMPDEST PUSH0 PUSH1 0x40 DUP3 ADD SWAP1 POP PUSH2 0x415 PUSH0 DUP4 ADD DUP6 PUSH2 0x304 JUMP JUMPDEST DUP2 DUP2 SUB PUSH1 0x20 DUP4 ADD MSTORE PUSH2 0x427 DUP2 DUP5 PUSH2 0x3CA JUMP JUMPDEST SWAP1 POP SWAP4 SWAP3 POP POP POP JUMP JUMPDEST PUSH0 DUP1 REVERT JUMPDEST PUSH0 DUP1 REVERT JUMPDEST PUSH0 DUP1 REVERT JUMPDEST PUSH0 DUP1 DUP4 PUSH1 0x1F DUP5 ADD SLT PUSH2 0x451 JUMPI PUSH2 0x450 PUSH2 0x430 JUMP JUMPDEST JUMPDEST DUP3 CALLDATALOAD SWAP1 POP PUSH8 0xFFFFFFFFFFFFFFFF DUP2 GT ISZERO PUSH2 0x46E JUMPI PUSH2 0x46D PUSH2 0x434 JUMP JUMPDEST JUMPDEST PUSH1 0x20 DUP4 ADD SWAP2 POP DUP4 PUSH1 0x1 DUP3 MUL DUP4 ADD GT ISZERO PUSH2 0x48A JUMPI PUSH2 0x489 PUSH2 0x438 JUMP JUMPDEST JUMPDEST SWAP3 POP SWAP3 SWAP1 POP JUMP JUMPDEST PUSH0 DUP1 PUSH0 PUSH1 0x40 DUP5 DUP7 SUB SLT ISZERO PUSH2 0x4A8 JUMPI PUSH2 0x4A7 PUSH2 0x335 JUMP JUMPDEST JUMPDEST PUSH0 DUP5 ADD CALLDATALOAD PUSH8 0xFFFFFFFFFFFFFFFF DUP2 GT ISZERO PUSH2 0x4C5 JUMPI PUSH2 0x4C4 PUSH2 0x339 JUMP JUMPDEST JUMPDEST PUSH2 0x4D1 DUP7 DUP3 DUP8 ADD PUSH2 0x43C JUMP JUMPDEST SWAP4 POP SWAP4 POP POP PUSH1 0x20 PUSH2 0x4E4 DUP7 DUP3 DUP8 ADD PUSH2 0x353 JUMP JUMPDEST SWAP2 POP POP SWAP3 POP SWAP3 POP SWAP3 JUMP JUMPDEST PUSH0 DUP1 REVERT JUMPDEST PUSH32 0x4E487B7100000000000000000000000000000000000000000000000000000000 PUSH0 MSTORE PUSH1 0x41 PUSH1 0x4 MSTORE PUSH1 0x24 PUSH0 REVERT JUMPDEST PUSH2 0x528 DUP3 PUSH2 0x3BA JUMP JUMPDEST DUP2 ADD DUP2 DUP2 LT PUSH8 0xFFFFFFFFFFFFFFFF DUP3 GT OR ISZERO PUSH2 0x547 JUMPI PUSH2 0x546 PUSH2 0x4F2 JUMP JUMPDEST JUMPDEST DUP1 PUSH1 0x40 MSTORE POP POP POP JUMP JUMPDEST PUSH0 PUSH2 0x559 PUSH2 0x32C JUMP JUMPDEST SWAP1 POP PUSH2 0x565 DUP3 DUP3 PUSH2 0x51F JUMP JUMPDEST SWAP2 SWAP1 POP JUMP JUMPDEST PUSH0 PUSH8 0xFFFFFFFFFFFFFFFF DUP3 GT ISZERO PUSH2 0x584 JUMPI PUSH2 0x583 PUSH2 0x4F2 JUMP JUMPDEST JUMPDEST PUSH2 0x58D DUP3 PUSH2 0x3BA JUMP JUMPDEST SWAP1 POP PUSH1 0x20 DUP2 ADD SWAP1 POP SWAP2 SWAP1 POP JUMP JUMPDEST DUP3 DUP2 DUP4 CALLDATACOPY PUSH0 DUP4 DUP4 ADD MSTORE POP POP POP JUMP JUMPDEST PUSH0 PUSH2 0x5BA PUSH2 0x5B5 DUP5 PUSH2 0x56A JUMP JUMPDEST PUSH2 0x550 JUMP JUMPDEST SWAP1 POP DUP3 DUP2 MSTORE PUSH1 0x20 DUP2 ADD DUP5 DUP5 DUP5 ADD GT ISZERO PUSH2 0x5D6 JUMPI PUSH2 0x5D5 PUSH2 0x4EE JUMP JUMPDEST JUMPDEST PUSH2 0x5E1 DUP5 DUP3 DUP6 PUSH2 0x59A JUMP JUMPDEST POP SWAP4 SWAP3 POP POP POP JUMP JUMPDEST PUSH0 DUP3 PUSH1 0x1F DUP4 ADD SLT PUSH2 0x5FD JUMPI PUSH2 0x5FC PUSH2 0x430 JUMP JUMPDEST JUMPDEST DUP2 CALLDATALOAD PUSH2 0x60D DUP5 DUP3 PUSH1 0x20 DUP7 ADD PUSH2 0x5A8 JUMP JUMPDEST SWAP2 POP POP SWAP3 SWAP2 POP POP JUMP JUMPDEST PUSH0 PUSH1 0x20 DUP3 DUP5 SUB SLT ISZERO PUSH2 0x62B JUMPI PUSH2 0x62A PUSH2 0x335 JUMP JUMPDEST JUMPDEST PUSH0 DUP3 ADD CALLDATALOAD PUSH8 0xFFFFFFFFFFFFFFFF DUP2 GT ISZERO PUSH2 0x648 JUMPI PUSH2 0x647 PUSH2 0x339 JUMP JUMPDEST JUMPDEST PUSH2 0x654 DUP5 DUP3 DUP6 ADD PUSH2 0x5E9 JUMP JUMPDEST SWAP2 POP POP SWAP3 SWAP2 POP POP JUMP JUMPDEST PUSH32 0x4E487B7100000000000000000000000000000000000000000000000000000000 PUSH0 MSTORE PUSH1 0x22 PUSH1 0x4 MSTORE PUSH1 0x24 PUSH0 REVERT JUMPDEST PUSH0 PUSH1 0x2 DUP3 DIV SWAP1 POP PUSH1 0x1 DUP3 AND DUP1 PUSH2 0x6A1 JUMPI PUSH1 0x7F DUP3 AND SWAP2 POP JUMPDEST PUSH1 0x20 DUP3 LT DUP2 SUB PUSH2 0x6B4 JUMPI PUSH2 0x6B3 PUSH2 0x65D JUMP JUMPDEST JUMPDEST POP SWAP2 SWAP1 POP JUMP JUMPDEST PUSH0 DUP2 SWAP1 POP DUP2 PUSH0 MSTORE PUSH1 0x20 PUSH0 KECCAK256 SWAP1 POP SWAP2 SWAP1 POP JUMP JUMPDEST PUSH0 PUSH1 0x20 PUSH1 0x1F DUP4 ADD DIV SWAP1 POP SWAP2 SWAP1 POP JUMP JUMPDEST PUSH0 DUP3 DUP3 SHL SWAP1 POP SWAP3 SWAP2 POP POP JUMP JUMPDEST PUSH0 PUSH1 0x8 DUP4 MUL PUSH2 0x716 PUSH32 0xFFFFFFFFFFFFFFFFFFFFFFFFFFFFFFFFFFFFFFFFFFFFFFFFFFFFFFFFFFFFFFFF DUP3 PUSH2 0x6DB JUMP JUMPDEST PUSH2 0x720 DUP7 DUP4 PUSH2 0x6DB JUMP JUMPDEST SWAP6 POP DUP1 NOT DUP5 AND SWAP4 POP DUP1 DUP7 AND DUP5 OR SWAP3 POP POP POP SWAP4 SWAP3 POP POP POP JUMP JUMPDEST PUSH0 DUP2 SWAP1 POP SWAP2 SWAP1 POP JUMP JUMPDEST PUSH0 PUSH2 0x75B PUSH2 0x756 PUSH2 0x751 DUP5 PUSH2 0x2FB JUMP JUMPDEST PUSH2 0x738 JUMP JUMPDEST PUSH2 0x2FB JUMP JUMPDEST SWAP1 POP SWAP2 SWAP1 POP JUMP JUMPDEST PUSH0 DUP2 SWAP1 POP SWAP2 SWAP1 POP JUMP JUMPDEST PUSH2 0x774 DUP4 PUSH2 0x741 JUMP JUMPDEST PUSH2 0x788 PUSH2 0x780 DUP3 PUSH2 0x762 JUMP JUMPDEST DUP5 DUP5 SLOAD PUSH2 0x6E7 JUMP JUMPDEST DUP3 SSTORE POP POP POP POP JUMP JUMPDEST PUSH0 SWAP1 JUMP JUMPDEST PUSH2 0x79C PUSH2 0x790 JUMP JUMPDEST PUSH2 0x7A7 DUP2 DUP5 DUP5 PUSH2 0x76B JUMP JUMPDEST POP POP POP JUMP JUMPDEST JUMPDEST DUP2 DUP2 LT ISZERO PUSH2 0x7CA JUMPI PUSH2 0x7BF PUSH0 DUP3 PUSH2 0x794 JUMP JUMPDEST PUSH1 0x1 DUP2 ADD SWAP1 POP PUSH2 0x7AD JUMP JUMPDEST POP POP JUMP JUMPDEST PUSH1 0x1F DUP3 GT ISZERO PUSH2 0x80F JUMPI PUSH2 0x7E0 DUP2 PUSH2 0x6BA JUMP JUMPDEST PUSH2 0x7E9 DUP5 PUSH2 0x6CC JUMP JUMPDEST DUP2 ADD PUSH1 0x20 DUP6 LT ISZERO PUSH2 0x7F8 JUMPI DUP2 SWAP1 POP JUMPDEST PUSH2 0x80C PUSH2 0x804 DUP6 PUSH2 0x6CC JUMP JUMPDEST DUP4 ADD DUP3 PUSH2 0x7AC JUMP JUMPDEST POP POP JUMPDEST POP POP POP JUMP JUMPDEST PUSH0 DUP3 DUP3 SHR SWAP1 POP SWAP3 SWAP2 POP POP JUMP JUMPDEST PUSH0 PUSH2 0x82F PUSH0 NOT DUP5 PUSH1 0x8 MUL PUSH2 0x814 JUMP JUMPDEST NOT DUP1 DUP4 AND SWAP2 POP POP SWAP3 SWAP2 POP POP JUMP JUMPDEST PUSH0 PUSH2 0x847 DUP4 DUP4 PUSH2 0x820 JUMP JUMPDEST SWAP2 POP DUP3 PUSH1 0x2 MUL DUP3 OR SWAP1 POP SWAP3 SWAP2 POP POP JUMP JUMPDEST PUSH2 0x860 DUP3 PUSH2 0x392 JUMP JUMPDEST PUSH8 0xFFFFFFFFFFFFFFFF DUP2 GT ISZERO PUSH2 0x879 JUMPI PUSH2 0x878 PUSH2 0x4F2 JUMP JUMPDEST JUMPDEST PUSH2 0x883 DUP3 SLOAD PUSH2 0x68A JUMP JUMPDEST PUSH2 0x88E DUP3 DUP3 DUP6 PUSH2 0x7CE JUMP JUMPDEST PUSH0 PUSH1 0x20 SWAP1 POP PUSH1 0x1F DUP4 GT PUSH1 0x1 DUP2 EQ PUSH2 0x8BF JUMPI PUSH0 DUP5 ISZERO PUSH2 0x8AD JUMPI DUP3 DUP8 ADD MLOAD SWAP1 POP JUMPDEST PUSH2 0x8B7 DUP6 DUP3 PUSH2 0x83C JUMP JUMPDEST DUP7 SSTORE POP PUSH2 0x91E JUMP JUMPDEST PUSH1 0x1F NOT DUP5 AND PUSH2 0x8CD DUP7 PUSH2 0x6BA JUMP JUMPDEST PUSH0 JUMPDEST DUP3 DUP2 LT ISZERO PUSH2 0x8F4 JUMPI DUP5 DUP10 ADD MLOAD DUP3 SSTORE PUSH1 0x1 DUP3 ADD SWAP2 POP PUSH1 0x20 DUP6 ADD SWAP5 POP PUSH1 0x20 DUP2 ADD SWAP1 POP PUSH2 0x8CF JUMP JUMPDEST DUP7 DUP4 LT ISZERO PUSH2 0x911 JUMPI DUP5 DUP10 ADD MLOAD PUSH2 0x90D PUSH1 0x1F DUP10 AND DUP3 PUSH2 0x820 JUMP JUMPDEST DUP4 SSTORE POP JUMPDEST PUSH1 0x1 PUSH1 0x2 DUP9 MUL ADD DUP9 SSTORE POP POP POP JUMPDEST POP POP POP POP POP POP JUMP JUMPDEST PUSH0 DUP2 SWAP1 POP SWAP3 SWAP2 POP POP JUMP JUMPDEST PUSH0 PUSH2 0x93B DUP4 DUP6 PUSH2 0x926 JUMP JUMPDEST SWAP4 POP PUSH2 0x948 DUP4 DUP6 DUP5 PUSH2 0x59A JUMP JUMPDEST DUP3 DUP5 ADD SWAP1 POP SWAP4 SWAP3 POP POP POP JUMP JUMPDEST PUSH0 PUSH2 0x960 DUP3 DUP5 DUP7 PUSH2 0x930 JUMP JUMPDEST SWAP2 POP DUP2 SWAP1 POP SWAP4 SWAP3 POP POP POP JUMP INVALID LOG2 PUSH5 0x6970667358 0x22 SLT KECCAK256 XOR RETURN SWAP13 SAR 0x22 0xB4 0xD4 BLOBBASEFEE SWAP13 0xC3 0xC5 0xBC 0xF6 BASEFEE PUSH20 0x74FBEC4A003AB203C32FDCF0F7758EFDE864736F PUSH13 0x634300081A0033000000000000 "
				},
				"gasEstimates": {
					"creation": {
						"codeDepositCost": "493200",
						"executionCost": "528",
						"totalCost": "493728"
					},
					"external": {
						"addPerson(string,uint256)": "infinite",
						"listOfPeople(uint256)": "infinite",
						"myFavoriteNumber()": "2468",
						"nameToFavoriteNumber(string)": "infinite",
						"retrieve()": "2410",
						"store(uint256)": "22536"
					}
				},
				"methodIdentifiers": {
					"addPerson(string,uint256)": "6f760f41",
					"listOfPeople(uint256)": "2ebce631",
					"myFavoriteNumber()": "6d83bc57",
					"nameToFavoriteNumber(string)": "8bab8dd5",
					"retrieve()": "2e64cec1",
					"store(uint256)": "6057361d"
				}
			},
			"storageLayout": {
				"storage": [
					{
						"astId": 23,
						"contract": "contracts/SimpleStorage.sol:SimpleStorage",
						"label": "myFavoriteNumber",
						"offset": 0,
						"slot": "0",
						"type": "t_uint256"
					},
					{
						"astId": 32,
						"contract": "contracts/SimpleStorage.sol:SimpleStorage",
						"label": "listOfPeople",
						"offset": 0,
						"slot": "1",
						"type": "t_array(t_struct(Person)28_storage)dyn_storage"
					},
					{
						"astId": 54,
						"contract": "contracts/SimpleStorage.sol:SimpleStorage",
						"label": "nameToFavoriteNumber",
						"offset": 0,
						"slot": "2",
						"type": "t_mapping(t_string_memory_ptr,t_uint256)"
					}
				],
				"types": {
					"t_array(t_struct(Person)28_storage)dyn_storage": {
						"base": "t_struct(Person)28_storage",
						"encoding": "dynamic_array",
						"label": "struct SimpleStorage.Person[]",
						"numberOfBytes": "32"
					},
					"t_mapping(t_string_memory_ptr,t_uint256)": {
						"encoding": "mapping",
						"key": "t_string_memory_ptr",
						"label": "mapping(string => uint256)",
						"numberOfBytes": "32",
						"value": "t_uint256"
					},
					"t_string_memory_ptr": {
						"encoding": "bytes",
						"label": "string",
						"numberOfBytes": "32"
					},
					"t_string_storage": {
						"encoding": "bytes",
						"label": "string",
						"numberOfBytes": "32"
					},
					"t_struct(Person)28_storage": {
						"encoding": "inplace",
						"label": "struct SimpleStorage.Person",
						"members": [
							{
								"astId": 25,
								"contract": "contracts/SimpleStorage.sol:SimpleStorage",
								"label": "favoriteNumber",
								"offset": 0,
								"slot": "0",
								"type": "t_uint256"
							},
							{
								"astId": 27,
								"contract": "contracts/SimpleStorage.sol:SimpleStorage",
								"label": "name",
								"offset": 0,
								"slot": "1",
								"type": "t_string_storage"
							}
						],
						"numberOfBytes": "64"
					},
					"t_uint256": {
						"encoding": "inplace",
						"label": "uint256",
						"numberOfBytes": "32"
					}
				}
			},
			"userdoc": {
				"kind": "user",
				"methods": {},
				"version": 1
			}
		}
	}
}