{
	"FundMe/contracts/FundMe.sol": {
		"FundMe": {
			"abi": [
				{
					"inputs": [],
					"stateMutability": "nonpayable",
					"type": "constructor"
				},
				{
					"inputs": [
						{
							"internalType": "int256",
							"name": "value",
							"type": "int256"
						}
					],
					"name": "SafeCastOverflowedIntToUint",
					"type": "error"
				},
				{
					"inputs": [
						{
							"internalType": "address",
							"name": "",
							"type": "address"
						}
					],
					"name": "addressIsActiveFunder",
					"outputs": [
						{
							"internalType": "bool",
							"name": "",
							"type": "bool"
						}
					],
					"stateMutability": "view",
					"type": "function"
				},
				{
					"inputs": [
						{
							"internalType": "address",
							"name": "",
							"type": "address"
						}
					],
					"name": "addressToAvailableAmount",
					"outputs": [
						{
							"internalType": "uint256",
							"name": "",
							"type": "uint256"
						}
					],
					"stateMutability": "view",
					"type": "function"
				},
				{
					"inputs": [
						{
							"internalType": "address",
							"name": "",
							"type": "address"
						}
					],
					"name": "addressToIndexInFundersArray",
					"outputs": [
						{
							"internalType": "uint256",
							"name": "",
							"type": "uint256"
						}
					],
					"stateMutability": "view",
					"type": "function"
				},
				{
					"inputs": [
						{
							"internalType": "uint256",
							"name": "_newMinimumUsd",
							"type": "uint256"
						}
					],
					"name": "changeMinimumUsd",
					"outputs": [],
					"stateMutability": "nonpayable",
					"type": "function"
				},
				{
					"inputs": [],
					"name": "fund",
					"outputs": [],
					"stateMutability": "payable",
					"type": "function"
				},
				{
					"inputs": [
						{
							"internalType": "uint256",
							"name": "",
							"type": "uint256"
						}
					],
					"name": "funders",
					"outputs": [
						{
							"internalType": "address",
							"name": "",
							"type": "address"
						}
					],
					"stateMutability": "view",
					"type": "function"
				},
				{
					"inputs": [
						{
							"internalType": "uint256",
							"name": "_price",
							"type": "uint256"
						},
						{
							"internalType": "uint256",
							"name": "_amountInWEI",
							"type": "uint256"
						}
					],
					"name": "getConversionRate",
					"outputs": [
						{
							"internalType": "uint256",
							"name": "",
							"type": "uint256"
						}
					],
					"stateMutability": "pure",
					"type": "function"
				},
				{
					"inputs": [],
					"name": "getPrice",
					"outputs": [
						{
							"internalType": "uint256",
							"name": "",
							"type": "uint256"
						}
					],
					"stateMutability": "view",
					"type": "function"
				},
				{
					"inputs": [],
					"name": "minimumUsd",
					"outputs": [
						{
							"internalType": "uint256",
							"name": "",
							"type": "uint256"
						}
					],
					"stateMutability": "view",
					"type": "function"
				},
				{
					"inputs": [],
					"name": "owner",
					"outputs": [
						{
							"internalType": "address",
							"name": "",
							"type": "address"
						}
					],
					"stateMutability": "view",
					"type": "function"
				},
				{
					"inputs": [],
					"name": "ownerWithdrawFunds",
					"outputs": [],
					"stateMutability": "nonpayable",
					"type": "function"
				},
				{
					"inputs": [
						{
							"internalType": "uint256",
							"name": "_amount",
							"type": "uint256"
						}
					],
					"name": "partialWithdraw",
					"outputs": [],
					"stateMutability": "nonpayable",
					"type": "function"
				},
				{
					"inputs": [],
					"name": "totalWithdraw",
					"outputs": [],
					"stateMutability": "nonpayable",
					"type": "function"
				},
				{
					"stateMutability": "payable",
					"type": "receive"
				}
			],
			"devdoc": {
				"errors": {
					"SafeCastOverflowedIntToUint(int256)": [
						{
							"details": "An int value doesn't fit in an uint of `bits` size."
						}
					]
				},
				"kind": "dev",
				"methods": {},
				"version": 1
			},
			"evm": {
				"assembly": "    /* \"FundMe/contracts/FundMe.sol\":265:5618  contract FundMe {... */\n  mstore(0x40, 0x80)\n    /* \"FundMe/contracts/FundMe.sol\":370:542  constructor() {... */\n  callvalue\n  dup1\n  iszero\n  tag_1\n  jumpi\n  0x00\n  dup1\n  revert\ntag_1:\n  pop\n    /* \"FundMe/contracts/FundMe.sol\":402:412  msg.sender */\n  caller\n    /* \"FundMe/contracts/FundMe.sol\":394:399  owner */\n  0x00\n  0x01\n    /* \"FundMe/contracts/FundMe.sol\":394:412  owner = msg.sender */\n  0x0100\n  exp\n  dup2\n  sload\n  dup2\n  0xffffffffffffffffffffffffffffffffffffffff\n  mul\n  not\n  and\n  swap1\n  dup4\n  0xffffffffffffffffffffffffffffffffffffffff\n  and\n  mul\n  or\n  swap1\n  sstore\n  pop\n    /* \"FundMe/contracts/FundMe.sol\":530:535  5*1e8 */\n  0x1dcd6500\n    /* \"FundMe/contracts/FundMe.sol\":517:527  minimumUsd */\n  0x01\n    /* \"FundMe/contracts/FundMe.sol\":517:535  minimumUsd = 5*1e8 */\n  dup2\n  swap1\n  sstore\n  pop\n    /* \"FundMe/contracts/FundMe.sol\":265:5618  contract FundMe {... */\n  dataSize(sub_0)\n  dup1\n  dataOffset(sub_0)\n  0x00\n  codecopy\n  0x00\n  return\nstop\n\nsub_0: assembly {\n        /* \"FundMe/contracts/FundMe.sol\":265:5618  contract FundMe {... */\n      mstore(0x40, 0x80)\n      jumpi(tag_1, lt(calldatasize, 0x04))\n      shr(0xe0, calldataload(0x00))\n      dup1\n      0x8da5cb5b\n      gt\n      tag_16\n      jumpi\n      dup1\n      0xcc3b589e\n      gt\n      tag_17\n      jumpi\n      dup1\n      0xcc3b589e\n      eq\n      tag_12\n      jumpi\n      dup1\n      0xd78a29d2\n      eq\n      tag_13\n      jumpi\n      dup1\n      0xdc0d3dff\n      eq\n      tag_14\n      jumpi\n      dup1\n      0xf8024578\n      eq\n      tag_15\n      jumpi\n      jump(tag_2)\n    tag_17:\n      dup1\n      0x8da5cb5b\n      eq\n      tag_9\n      jumpi\n      dup1\n      0x98d5fdca\n      eq\n      tag_10\n      jumpi\n      dup1\n      0xb60d4288\n      eq\n      tag_11\n      jumpi\n      jump(tag_2)\n    tag_16:\n      dup1\n      0x034855c7\n      eq\n      tag_3\n      jumpi\n      dup1\n      0x098de820\n      eq\n      tag_4\n      jumpi\n      dup1\n      0x3e9f607c\n      eq\n      tag_5\n      jumpi\n      dup1\n      0x455fd623\n      eq\n      tag_6\n      jumpi\n      dup1\n      0x5eb8d90b\n      eq\n      tag_7\n      jumpi\n      dup1\n      0x71d2ee6c\n      eq\n      tag_8\n      jumpi\n      jump(tag_2)\n    tag_1:\n      jumpi(tag_2, calldatasize)\n        /* \"FundMe/contracts/FundMe.sol\":2727:2733  fund() */\n      tag_20\n        /* \"FundMe/contracts/FundMe.sol\":2727:2731  fund */\n      tag_21\n        /* \"FundMe/contracts/FundMe.sol\":2727:2733  fund() */\n      jump\t// in\n    tag_20:\n        /* \"FundMe/contracts/FundMe.sol\":265:5618  contract FundMe {... */\n      stop\n    tag_2:\n      0x00\n      dup1\n      revert\n        /* \"FundMe/contracts/FundMe.sol\":1262:1322  mapping (address => uint256) public addressToAvailableAmount */\n    tag_3:\n      callvalue\n      dup1\n      iszero\n      tag_22\n      jumpi\n      0x00\n      dup1\n      revert\n    tag_22:\n      pop\n      tag_23\n      0x04\n      dup1\n      calldatasize\n      sub\n      dup2\n      add\n      swap1\n      tag_24\n      swap2\n      swap1\n      tag_25\n      jump\t// in\n    tag_24:\n      tag_26\n      jump\t// in\n    tag_23:\n      mload(0x40)\n      tag_27\n      swap2\n      swap1\n      tag_28\n      jump\t// in\n    tag_27:\n      mload(0x40)\n      dup1\n      swap2\n      sub\n      swap1\n      return\n        /* \"FundMe/contracts/FundMe.sol\":339:364  uint256 public minimumUsd */\n    tag_4:\n      callvalue\n      dup1\n      iszero\n      tag_29\n      jumpi\n      0x00\n      dup1\n      revert\n    tag_29:\n      pop\n      tag_30\n      tag_31\n      jump\t// in\n    tag_30:\n      mload(0x40)\n      tag_32\n      swap2\n      swap1\n      tag_28\n      jump\t// in\n    tag_32:\n      mload(0x40)\n      dup1\n      swap2\n      sub\n      swap1\n      return\n        /* \"FundMe/contracts/FundMe.sol\":5468:5615  function getConversionRate(uint256 _price, uint256 _amountInWEI) public pure returns (uint256) {... */\n    tag_5:\n      callvalue\n      dup1\n      iszero\n      tag_33\n      jumpi\n      0x00\n      dup1\n      revert\n    tag_33:\n      pop\n      tag_34\n      0x04\n      dup1\n      calldatasize\n      sub\n      dup2\n      add\n      swap1\n      tag_35\n      swap2\n      swap1\n      tag_36\n      jump\t// in\n    tag_35:\n      tag_37\n      jump\t// in\n    tag_34:\n      mload(0x40)\n      tag_38\n      swap2\n      swap1\n      tag_28\n      jump\t// in\n    tag_38:\n      mload(0x40)\n      dup1\n      swap2\n      sub\n      swap1\n      return\n        /* \"FundMe/contracts/FundMe.sol\":3480:3849  function totalWithdraw() public noReentrant {... */\n    tag_6:\n      callvalue\n      dup1\n      iszero\n      tag_39\n      jumpi\n      0x00\n      dup1\n      revert\n    tag_39:\n      pop\n      tag_40\n      tag_41\n      jump\t// in\n    tag_40:\n      stop\n        /* \"FundMe/contracts/FundMe.sol\":3855:4108  function ownerWithdrawFunds() public {... */\n    tag_7:\n      callvalue\n      dup1\n      iszero\n      tag_42\n      jumpi\n      0x00\n      dup1\n      revert\n    tag_42:\n      pop\n      tag_43\n      tag_44\n      jump\t// in\n    tag_43:\n      stop\n        /* \"FundMe/contracts/FundMe.sol\":2843:3379  function partialWithdraw(uint256 _amount) public noReentrant {... */\n    tag_8:\n      callvalue\n      dup1\n      iszero\n      tag_45\n      jumpi\n      0x00\n      dup1\n      revert\n    tag_45:\n      pop\n      tag_46\n      0x04\n      dup1\n      calldatasize\n      sub\n      dup2\n      add\n      swap1\n      tag_47\n      swap2\n      swap1\n      tag_48\n      jump\t// in\n    tag_47:\n      tag_49\n      jump\t// in\n    tag_46:\n      stop\n        /* \"FundMe/contracts/FundMe.sol\":313:333  address public owner */\n    tag_9:\n      callvalue\n      dup1\n      iszero\n      tag_50\n      jumpi\n      0x00\n      dup1\n      revert\n    tag_50:\n      pop\n      tag_51\n      tag_52\n      jump\t// in\n    tag_51:\n      mload(0x40)\n      tag_53\n      swap2\n      swap1\n      tag_54\n      jump\t// in\n    tag_53:\n      mload(0x40)\n      dup1\n      swap2\n      sub\n      swap1\n      return\n        /* \"FundMe/contracts/FundMe.sol\":5099:5364  function getPrice() public view returns (uint256) {... */\n    tag_10:\n      callvalue\n      dup1\n      iszero\n      tag_55\n      jumpi\n      0x00\n      dup1\n      revert\n    tag_55:\n      pop\n      tag_56\n      tag_57\n      jump\t// in\n    tag_56:\n      mload(0x40)\n      tag_58\n      swap2\n      swap1\n      tag_28\n      jump\t// in\n    tag_58:\n      mload(0x40)\n      dup1\n      swap2\n      sub\n      swap1\n      return\n        /* \"FundMe/contracts/FundMe.sol\":2072:2571  function fund() public payable {... */\n    tag_11:\n      tag_59\n      tag_21\n      jump\t// in\n    tag_59:\n      stop\n        /* \"FundMe/contracts/FundMe.sol\":1063:1127  mapping (address => uint256) public addressToIndexInFundersArray */\n    tag_12:\n      callvalue\n      dup1\n      iszero\n      tag_60\n      jumpi\n      0x00\n      dup1\n      revert\n    tag_60:\n      pop\n      tag_61\n      0x04\n      dup1\n      calldatasize\n      sub\n      dup2\n      add\n      swap1\n      tag_62\n      swap2\n      swap1\n      tag_25\n      jump\t// in\n    tag_62:\n      tag_63\n      jump\t// in\n    tag_61:\n      mload(0x40)\n      tag_64\n      swap2\n      swap1\n      tag_28\n      jump\t// in\n    tag_64:\n      mload(0x40)\n      dup1\n      swap2\n      sub\n      swap1\n      return\n        /* \"FundMe/contracts/FundMe.sol\":1422:1790  function changeMinimumUsd(uint256 _newMinimumUsd) public {... */\n    tag_13:\n      callvalue\n      dup1\n      iszero\n      tag_65\n      jumpi\n      0x00\n      dup1\n      revert\n    tag_65:\n      pop\n      tag_66\n      0x04\n      dup1\n      calldatasize\n      sub\n      dup2\n      add\n      swap1\n      tag_67\n      swap2\n      swap1\n      tag_48\n      jump\t// in\n    tag_67:\n      tag_68\n      jump\t// in\n    tag_66:\n      stop\n        /* \"FundMe/contracts/FundMe.sol\":1032:1056  address[] public funders */\n    tag_14:\n      callvalue\n      dup1\n      iszero\n      tag_69\n      jumpi\n      0x00\n      dup1\n      revert\n    tag_69:\n      pop\n      tag_70\n      0x04\n      dup1\n      calldatasize\n      sub\n      dup2\n      add\n      swap1\n      tag_71\n      swap2\n      swap1\n      tag_48\n      jump\t// in\n    tag_71:\n      tag_72\n      jump\t// in\n    tag_70:\n      mload(0x40)\n      tag_73\n      swap2\n      swap1\n      tag_54\n      jump\t// in\n    tag_73:\n      mload(0x40)\n      dup1\n      swap2\n      sub\n      swap1\n      return\n        /* \"FundMe/contracts/FundMe.sol\":1133:1187  mapping (address => bool) public addressIsActiveFunder */\n    tag_15:\n      callvalue\n      dup1\n      iszero\n      tag_74\n      jumpi\n      0x00\n      dup1\n      revert\n    tag_74:\n      pop\n      tag_75\n      0x04\n      dup1\n      calldatasize\n      sub\n      dup2\n      add\n      swap1\n      tag_76\n      swap2\n      swap1\n      tag_25\n      jump\t// in\n    tag_76:\n      tag_77\n      jump\t// in\n    tag_75:\n      mload(0x40)\n      tag_78\n      swap2\n      swap1\n      tag_79\n      jump\t// in\n    tag_78:\n      mload(0x40)\n      dup1\n      swap2\n      sub\n      swap1\n      return\n        /* \"FundMe/contracts/FundMe.sol\":2072:2571  function fund() public payable {... */\n    tag_21:\n        /* \"FundMe/contracts/FundMe.sol\":2113:2126  uint256 price */\n      0x00\n        /* \"FundMe/contracts/FundMe.sol\":2129:2139  getPrice() */\n      tag_81\n        /* \"FundMe/contracts/FundMe.sol\":2129:2137  getPrice */\n      tag_57\n        /* \"FundMe/contracts/FundMe.sol\":2129:2139  getPrice() */\n      jump\t// in\n    tag_81:\n        /* \"FundMe/contracts/FundMe.sol\":2113:2139  uint256 price = getPrice() */\n      swap1\n      pop\n        /* \"FundMe/contracts/FundMe.sol\":2149:2171  uint256 conversionRate */\n      0x00\n        /* \"FundMe/contracts/FundMe.sol\":2174:2209  getConversionRate(price, msg.value) */\n      tag_82\n        /* \"FundMe/contracts/FundMe.sol\":2192:2197  price */\n      dup3\n        /* \"FundMe/contracts/FundMe.sol\":2199:2208  msg.value */\n      callvalue\n        /* \"FundMe/contracts/FundMe.sol\":2174:2191  getConversionRate */\n      tag_37\n        /* \"FundMe/contracts/FundMe.sol\":2174:2209  getConversionRate(price, msg.value) */\n      jump\t// in\n    tag_82:\n        /* \"FundMe/contracts/FundMe.sol\":2149:2209  uint256 conversionRate = getConversionRate(price, msg.value) */\n      swap1\n      pop\n        /* \"FundMe/contracts/FundMe.sol\":2245:2255  minimumUsd */\n      sload(0x01)\n        /* \"FundMe/contracts/FundMe.sol\":2227:2241  conversionRate */\n      dup2\n        /* \"FundMe/contracts/FundMe.sol\":2227:2255  conversionRate >= minimumUsd */\n      lt\n      iszero\n        /* \"FundMe/contracts/FundMe.sol\":2219:2282  require(conversionRate >= minimumUsd, \"didn't send enough USD\") */\n      tag_83\n      jumpi\n      mload(0x40)\n      0x08c379a000000000000000000000000000000000000000000000000000000000\n      dup2\n      mstore\n      0x04\n      add\n      tag_84\n      swap1\n      tag_85\n      jump\t// in\n    tag_84:\n      mload(0x40)\n      dup1\n      swap2\n      sub\n      swap1\n      revert\n    tag_83:\n        /* \"FundMe/contracts/FundMe.sol\":2297:2318  addressIsActiveFunder */\n      0x04\n        /* \"FundMe/contracts/FundMe.sol\":2297:2330  addressIsActiveFunder[msg.sender] */\n      0x00\n        /* \"FundMe/contracts/FundMe.sol\":2319:2329  msg.sender */\n      caller\n        /* \"FundMe/contracts/FundMe.sol\":2297:2330  addressIsActiveFunder[msg.sender] */\n      0xffffffffffffffffffffffffffffffffffffffff\n      and\n      0xffffffffffffffffffffffffffffffffffffffff\n      and\n      dup2\n      mstore\n      0x20\n      add\n      swap1\n      dup2\n      mstore\n      0x20\n      add\n      0x00\n      keccak256\n      0x00\n      swap1\n      sload\n      swap1\n      0x0100\n      exp\n      swap1\n      div\n      0xff\n      and\n        /* \"FundMe/contracts/FundMe.sol\":2292:2506  if (!addressIsActiveFunder[msg.sender]) {... */\n      tag_86\n      jumpi\n        /* \"FundMe/contracts/FundMe.sol\":2389:2396  funders */\n      0x02\n        /* \"FundMe/contracts/FundMe.sol\":2389:2403  funders.length */\n      dup1\n      sload\n      swap1\n      pop\n        /* \"FundMe/contracts/FundMe.sol\":2346:2374  addressToIndexInFundersArray */\n      0x03\n        /* \"FundMe/contracts/FundMe.sol\":2346:2386  addressToIndexInFundersArray[msg.sender] */\n      0x00\n        /* \"FundMe/contracts/FundMe.sol\":2375:2385  msg.sender */\n      caller\n        /* \"FundMe/contracts/FundMe.sol\":2346:2386  addressToIndexInFundersArray[msg.sender] */\n      0xffffffffffffffffffffffffffffffffffffffff\n      and\n      0xffffffffffffffffffffffffffffffffffffffff\n      and\n      dup2\n      mstore\n      0x20\n      add\n      swap1\n      dup2\n      mstore\n      0x20\n      add\n      0x00\n      keccak256\n        /* \"FundMe/contracts/FundMe.sol\":2346:2403  addressToIndexInFundersArray[msg.sender] = funders.length */\n      dup2\n      swap1\n      sstore\n      pop\n        /* \"FundMe/contracts/FundMe.sol\":2417:2424  funders */\n      0x02\n        /* \"FundMe/contracts/FundMe.sol\":2430:2440  msg.sender */\n      caller\n        /* \"FundMe/contracts/FundMe.sol\":2417:2441  funders.push(msg.sender) */\n      swap1\n      dup1\n      0x01\n      dup2\n      sload\n      add\n      dup1\n      dup3\n      sstore\n      dup1\n      swap2\n      pop\n      pop\n      0x01\n      swap1\n      sub\n      swap1\n      0x00\n      mstore\n      keccak256(0x00, 0x20)\n      add\n      0x00\n      swap1\n      swap2\n      swap1\n      swap2\n      swap1\n      swap2\n      0x0100\n      exp\n      dup2\n      sload\n      dup2\n      0xffffffffffffffffffffffffffffffffffffffff\n      mul\n      not\n      and\n      swap1\n      dup4\n      0xffffffffffffffffffffffffffffffffffffffff\n      and\n      mul\n      or\n      swap1\n      sstore\n      pop\n        /* \"FundMe/contracts/FundMe.sol\":2491:2495  true */\n      0x01\n        /* \"FundMe/contracts/FundMe.sol\":2455:2476  addressIsActiveFunder */\n      0x04\n        /* \"FundMe/contracts/FundMe.sol\":2455:2488  addressIsActiveFunder[msg.sender] */\n      0x00\n        /* \"FundMe/contracts/FundMe.sol\":2477:2487  msg.sender */\n      caller\n        /* \"FundMe/contracts/FundMe.sol\":2455:2488  addressIsActiveFunder[msg.sender] */\n      0xffffffffffffffffffffffffffffffffffffffff\n      and\n      0xffffffffffffffffffffffffffffffffffffffff\n      and\n      dup2\n      mstore\n      0x20\n      add\n      swap1\n      dup2\n      mstore\n      0x20\n      add\n      0x00\n      keccak256\n      0x00\n        /* \"FundMe/contracts/FundMe.sol\":2455:2495  addressIsActiveFunder[msg.sender] = true */\n      0x0100\n      exp\n      dup2\n      sload\n      dup2\n      0xff\n      mul\n      not\n      and\n      swap1\n      dup4\n      iszero\n      iszero\n      mul\n      or\n      swap1\n      sstore\n      pop\n        /* \"FundMe/contracts/FundMe.sol\":2292:2506  if (!addressIsActiveFunder[msg.sender]) {... */\n    tag_86:\n        /* \"FundMe/contracts/FundMe.sol\":2555:2564  msg.value */\n      callvalue\n        /* \"FundMe/contracts/FundMe.sol\":2515:2539  addressToAvailableAmount */\n      0x05\n        /* \"FundMe/contracts/FundMe.sol\":2515:2551  addressToAvailableAmount[msg.sender] */\n      0x00\n        /* \"FundMe/contracts/FundMe.sol\":2540:2550  msg.sender */\n      caller\n        /* \"FundMe/contracts/FundMe.sol\":2515:2551  addressToAvailableAmount[msg.sender] */\n      0xffffffffffffffffffffffffffffffffffffffff\n      and\n      0xffffffffffffffffffffffffffffffffffffffff\n      and\n      dup2\n      mstore\n      0x20\n      add\n      swap1\n      dup2\n      mstore\n      0x20\n      add\n      0x00\n      keccak256\n      0x00\n        /* \"FundMe/contracts/FundMe.sol\":2515:2564  addressToAvailableAmount[msg.sender] += msg.value */\n      dup3\n      dup3\n      sload\n      tag_88\n      swap2\n      swap1\n      tag_89\n      jump\t// in\n    tag_88:\n      swap3\n      pop\n      pop\n      dup2\n      swap1\n      sstore\n      pop\n        /* \"FundMe/contracts/FundMe.sol\":2103:2571  {... */\n      pop\n      pop\n        /* \"FundMe/contracts/FundMe.sol\":2072:2571  function fund() public payable {... */\n      jump\t// out\n        /* \"FundMe/contracts/FundMe.sol\":1262:1322  mapping (address => uint256) public addressToAvailableAmount */\n    tag_26:\n      mstore(0x20, 0x05)\n      dup1\n      0x00\n      mstore\n      keccak256(0x00, 0x40)\n      0x00\n      swap2\n      pop\n      swap1\n      pop\n      sload\n      dup2\n      jump\t// out\n        /* \"FundMe/contracts/FundMe.sol\":339:364  uint256 public minimumUsd */\n    tag_31:\n      sload(0x01)\n      dup2\n      jump\t// out\n        /* \"FundMe/contracts/FundMe.sol\":5468:5615  function getConversionRate(uint256 _price, uint256 _amountInWEI) public pure returns (uint256) {... */\n    tag_37:\n        /* \"FundMe/contracts/FundMe.sol\":5554:5561  uint256 */\n      0x00\n        /* \"FundMe/contracts/FundMe.sol\":5604:5608  1e18 */\n      0x0de0b6b3a7640000\n        /* \"FundMe/contracts/FundMe.sol\":5590:5602  _amountInWEI */\n      dup3\n        /* \"FundMe/contracts/FundMe.sol\":5581:5587  _price */\n      dup5\n        /* \"FundMe/contracts/FundMe.sol\":5581:5602  _price * _amountInWEI */\n      tag_91\n      swap2\n      swap1\n      tag_92\n      jump\t// in\n    tag_91:\n        /* \"FundMe/contracts/FundMe.sol\":5580:5608  (_price * _amountInWEI)/1e18 */\n      tag_93\n      swap2\n      swap1\n      tag_94\n      jump\t// in\n    tag_93:\n        /* \"FundMe/contracts/FundMe.sol\":5573:5608  return (_price * _amountInWEI)/1e18 */\n      swap1\n      pop\n        /* \"FundMe/contracts/FundMe.sol\":5468:5615  function getConversionRate(uint256 _price, uint256 _amountInWEI) public pure returns (uint256) {... */\n      swap3\n      swap2\n      pop\n      pop\n      jump\t// out\n        /* \"FundMe/contracts/FundMe.sol\":3480:3849  function totalWithdraw() public noReentrant {... */\n    tag_41:\n        /* \"FundMe/contracts/FundMe.sol\":652:657  false */\n      0x00\n        /* \"FundMe/contracts/FundMe.sol\":642:657  locked == false */\n      iszero\n      iszero\n        /* \"FundMe/contracts/FundMe.sol\":642:648  locked */\n      0x00\n      dup1\n      sload\n      swap1\n      0x0100\n      exp\n      swap1\n      div\n      0xff\n      and\n        /* \"FundMe/contracts/FundMe.sol\":642:657  locked == false */\n      iszero\n      iszero\n      eq\n        /* \"FundMe/contracts/FundMe.sol\":633:703  require (locked == false, \"No re-entrancy allowed, please try again.\") */\n      tag_96\n      jumpi\n      mload(0x40)\n      0x08c379a000000000000000000000000000000000000000000000000000000000\n      dup2\n      mstore\n      0x04\n      add\n      tag_97\n      swap1\n      tag_98\n      jump\t// in\n    tag_97:\n      mload(0x40)\n      dup1\n      swap2\n      sub\n      swap1\n      revert\n    tag_96:\n        /* \"FundMe/contracts/FundMe.sol\":829:833  true */\n      0x01\n        /* \"FundMe/contracts/FundMe.sol\":820:826  locked */\n      0x00\n      dup1\n        /* \"FundMe/contracts/FundMe.sol\":820:833  locked = true */\n      0x0100\n      exp\n      dup2\n      sload\n      dup2\n      0xff\n      mul\n      not\n      and\n      swap1\n      dup4\n      iszero\n      iszero\n      mul\n      or\n      swap1\n      sstore\n      pop\n        /* \"FundMe/contracts/FundMe.sol\":3534:3549  uint256 balance */\n      0x00\n        /* \"FundMe/contracts/FundMe.sol\":3552:3576  addressToAvailableAmount */\n      0x05\n        /* \"FundMe/contracts/FundMe.sol\":3552:3588  addressToAvailableAmount[msg.sender] */\n      0x00\n        /* \"FundMe/contracts/FundMe.sol\":3577:3587  msg.sender */\n      caller\n        /* \"FundMe/contracts/FundMe.sol\":3552:3588  addressToAvailableAmount[msg.sender] */\n      0xffffffffffffffffffffffffffffffffffffffff\n      and\n      0xffffffffffffffffffffffffffffffffffffffff\n      and\n      dup2\n      mstore\n      0x20\n      add\n      swap1\n      dup2\n      mstore\n      0x20\n      add\n      0x00\n      keccak256\n      sload\n        /* \"FundMe/contracts/FundMe.sol\":3534:3588  uint256 balance = addressToAvailableAmount[msg.sender] */\n      swap1\n      pop\n        /* \"FundMe/contracts/FundMe.sol\":3616:3617  0 */\n      0x00\n        /* \"FundMe/contracts/FundMe.sol\":3606:3613  balance */\n      dup2\n        /* \"FundMe/contracts/FundMe.sol\":3606:3617  balance > 0 */\n      gt\n        /* \"FundMe/contracts/FundMe.sol\":3598:3642  require(balance > 0, \"Insufficient balance\") */\n      tag_100\n      jumpi\n      mload(0x40)\n      0x08c379a000000000000000000000000000000000000000000000000000000000\n      dup2\n      mstore\n      0x04\n      add\n      tag_101\n      swap1\n      tag_102\n      jump\t// in\n    tag_101:\n      mload(0x40)\n      dup1\n      swap2\n      sub\n      swap1\n      revert\n    tag_100:\n        /* \"FundMe/contracts/FundMe.sol\":3691:3692  0 */\n      0x00\n        /* \"FundMe/contracts/FundMe.sol\":3652:3676  addressToAvailableAmount */\n      0x05\n        /* \"FundMe/contracts/FundMe.sol\":3652:3688  addressToAvailableAmount[msg.sender] */\n      0x00\n        /* \"FundMe/contracts/FundMe.sol\":3677:3687  msg.sender */\n      caller\n        /* \"FundMe/contracts/FundMe.sol\":3652:3688  addressToAvailableAmount[msg.sender] */\n      0xffffffffffffffffffffffffffffffffffffffff\n      and\n      0xffffffffffffffffffffffffffffffffffffffff\n      and\n      dup2\n      mstore\n      0x20\n      add\n      swap1\n      dup2\n      mstore\n      0x20\n      add\n      0x00\n      keccak256\n        /* \"FundMe/contracts/FundMe.sol\":3652:3692  addressToAvailableAmount[msg.sender] = 0 */\n      dup2\n      swap1\n      sstore\n      pop\n        /* \"FundMe/contracts/FundMe.sol\":3703:3715  bool success */\n      0x00\n        /* \"FundMe/contracts/FundMe.sol\":3721:3731  msg.sender */\n      caller\n        /* \"FundMe/contracts/FundMe.sol\":3721:3736  msg.sender.call */\n      0xffffffffffffffffffffffffffffffffffffffff\n      and\n        /* \"FundMe/contracts/FundMe.sol\":3744:3751  balance */\n      dup3\n        /* \"FundMe/contracts/FundMe.sol\":3721:3756  msg.sender.call{value: balance}(\"\") */\n      mload(0x40)\n      tag_103\n      swap1\n      tag_104\n      jump\t// in\n    tag_103:\n      0x00\n      mload(0x40)\n      dup1\n      dup4\n      sub\n      dup2\n      dup6\n      dup8\n      gas\n      call\n      swap3\n      pop\n      pop\n      pop\n      returndatasize\n      dup1\n      0x00\n      dup2\n      eq\n      tag_107\n      jumpi\n      mload(0x40)\n      swap2\n      pop\n      and(add(returndatasize, 0x3f), not(0x1f))\n      dup3\n      add\n      0x40\n      mstore\n      returndatasize\n      dup3\n      mstore\n      returndatasize\n      0x00\n      0x20\n      dup5\n      add\n      returndatacopy\n      jump(tag_106)\n    tag_107:\n      0x60\n      swap2\n      pop\n    tag_106:\n      pop\n        /* \"FundMe/contracts/FundMe.sol\":3702:3756  (bool success, ) = msg.sender.call{value: balance}(\"\") */\n      pop\n      swap1\n      pop\n        /* \"FundMe/contracts/FundMe.sol\":3785:3789  true */\n      0x01\n        /* \"FundMe/contracts/FundMe.sol\":3774:3789  success == true */\n      iszero\n      iszero\n        /* \"FundMe/contracts/FundMe.sol\":3774:3781  success */\n      dup2\n        /* \"FundMe/contracts/FundMe.sol\":3774:3789  success == true */\n      iszero\n      iszero\n      eq\n        /* \"FundMe/contracts/FundMe.sol\":3766:3810  require(success == true, \"Transfer failed.\") */\n      tag_108\n      jumpi\n      mload(0x40)\n      0x08c379a000000000000000000000000000000000000000000000000000000000\n      dup2\n      mstore\n      0x04\n      add\n      tag_109\n      swap1\n      tag_110\n      jump\t// in\n    tag_109:\n      mload(0x40)\n      dup1\n      swap2\n      sub\n      swap1\n      revert\n    tag_108:\n        /* \"FundMe/contracts/FundMe.sol\":3820:3842  cleanAfterWithdrawal() */\n      tag_111\n        /* \"FundMe/contracts/FundMe.sol\":3820:3840  cleanAfterWithdrawal */\n      tag_112\n        /* \"FundMe/contracts/FundMe.sol\":3820:3842  cleanAfterWithdrawal() */\n      jump\t// in\n    tag_111:\n        /* \"FundMe/contracts/FundMe.sol\":3524:3849  {... */\n      pop\n      pop\n        /* \"FundMe/contracts/FundMe.sol\":1014:1019  false */\n      0x00\n        /* \"FundMe/contracts/FundMe.sol\":1005:1011  locked */\n      dup1\n      0x00\n        /* \"FundMe/contracts/FundMe.sol\":1005:1019  locked = false */\n      0x0100\n      exp\n      dup2\n      sload\n      dup2\n      0xff\n      mul\n      not\n      and\n      swap1\n      dup4\n      iszero\n      iszero\n      mul\n      or\n      swap1\n      sstore\n      pop\n        /* \"FundMe/contracts/FundMe.sol\":3480:3849  function totalWithdraw() public noReentrant {... */\n      jump\t// out\n        /* \"FundMe/contracts/FundMe.sol\":3855:4108  function ownerWithdrawFunds() public {... */\n    tag_44:\n        /* \"FundMe/contracts/FundMe.sol\":3925:3930  owner */\n      0x00\n      0x01\n      swap1\n      sload\n      swap1\n      0x0100\n      exp\n      swap1\n      div\n      0xffffffffffffffffffffffffffffffffffffffff\n      and\n        /* \"FundMe/contracts/FundMe.sol\":3911:3930  msg.sender == owner */\n      0xffffffffffffffffffffffffffffffffffffffff\n      and\n        /* \"FundMe/contracts/FundMe.sol\":3911:3921  msg.sender */\n      caller\n        /* \"FundMe/contracts/FundMe.sol\":3911:3930  msg.sender == owner */\n      0xffffffffffffffffffffffffffffffffffffffff\n      and\n      eq\n        /* \"FundMe/contracts/FundMe.sol\":3902:3969  require (msg.sender == owner, \"Only owner can call this function.\") */\n      tag_114\n      jumpi\n      mload(0x40)\n      0x08c379a000000000000000000000000000000000000000000000000000000000\n      dup2\n      mstore\n      0x04\n      add\n      tag_115\n      swap1\n      tag_116\n      jump\t// in\n    tag_115:\n      mload(0x40)\n      dup1\n      swap2\n      sub\n      swap1\n      revert\n    tag_114:\n        /* \"FundMe/contracts/FundMe.sol\":3980:3992  bool success */\n      0x00\n        /* \"FundMe/contracts/FundMe.sol\":3998:4008  msg.sender */\n      caller\n        /* \"FundMe/contracts/FundMe.sol\":3998:4013  msg.sender.call */\n      0xffffffffffffffffffffffffffffffffffffffff\n      and\n        /* \"FundMe/contracts/FundMe.sol\":4021:4042  address(this).balance */\n      selfbalance\n        /* \"FundMe/contracts/FundMe.sol\":3998:4047  msg.sender.call{value: address(this).balance}(\"\") */\n      mload(0x40)\n      tag_117\n      swap1\n      tag_104\n      jump\t// in\n    tag_117:\n      0x00\n      mload(0x40)\n      dup1\n      dup4\n      sub\n      dup2\n      dup6\n      dup8\n      gas\n      call\n      swap3\n      pop\n      pop\n      pop\n      returndatasize\n      dup1\n      0x00\n      dup2\n      eq\n      tag_120\n      jumpi\n      mload(0x40)\n      swap2\n      pop\n      and(add(returndatasize, 0x3f), not(0x1f))\n      dup3\n      add\n      0x40\n      mstore\n      returndatasize\n      dup3\n      mstore\n      returndatasize\n      0x00\n      0x20\n      dup5\n      add\n      returndatacopy\n      jump(tag_119)\n    tag_120:\n      0x60\n      swap2\n      pop\n    tag_119:\n      pop\n        /* \"FundMe/contracts/FundMe.sol\":3979:4047  (bool success, ) = msg.sender.call{value: address(this).balance}(\"\") */\n      pop\n      swap1\n      pop\n        /* \"FundMe/contracts/FundMe.sol\":4076:4080  true */\n      0x01\n        /* \"FundMe/contracts/FundMe.sol\":4065:4080  success == true */\n      iszero\n      iszero\n        /* \"FundMe/contracts/FundMe.sol\":4065:4072  success */\n      dup2\n        /* \"FundMe/contracts/FundMe.sol\":4065:4080  success == true */\n      iszero\n      iszero\n      eq\n        /* \"FundMe/contracts/FundMe.sol\":4057:4101  require(success == true, \"Transfer failed.\") */\n      tag_121\n      jumpi\n      mload(0x40)\n      0x08c379a000000000000000000000000000000000000000000000000000000000\n      dup2\n      mstore\n      0x04\n      add\n      tag_122\n      swap1\n      tag_110\n      jump\t// in\n    tag_122:\n      mload(0x40)\n      dup1\n      swap2\n      sub\n      swap1\n      revert\n    tag_121:\n        /* \"FundMe/contracts/FundMe.sol\":3892:4108  {... */\n      pop\n        /* \"FundMe/contracts/FundMe.sol\":3855:4108  function ownerWithdrawFunds() public {... */\n      jump\t// out\n        /* \"FundMe/contracts/FundMe.sol\":2843:3379  function partialWithdraw(uint256 _amount) public noReentrant {... */\n    tag_49:\n        /* \"FundMe/contracts/FundMe.sol\":652:657  false */\n      0x00\n        /* \"FundMe/contracts/FundMe.sol\":642:657  locked == false */\n      iszero\n      iszero\n        /* \"FundMe/contracts/FundMe.sol\":642:648  locked */\n      0x00\n      dup1\n      sload\n      swap1\n      0x0100\n      exp\n      swap1\n      div\n      0xff\n      and\n        /* \"FundMe/contracts/FundMe.sol\":642:657  locked == false */\n      iszero\n      iszero\n      eq\n        /* \"FundMe/contracts/FundMe.sol\":633:703  require (locked == false, \"No re-entrancy allowed, please try again.\") */\n      tag_124\n      jumpi\n      mload(0x40)\n      0x08c379a000000000000000000000000000000000000000000000000000000000\n      dup2\n      mstore\n      0x04\n      add\n      tag_125\n      swap1\n      tag_98\n      jump\t// in\n    tag_125:\n      mload(0x40)\n      dup1\n      swap2\n      sub\n      swap1\n      revert\n    tag_124:\n        /* \"FundMe/contracts/FundMe.sol\":829:833  true */\n      0x01\n        /* \"FundMe/contracts/FundMe.sol\":820:826  locked */\n      0x00\n      dup1\n        /* \"FundMe/contracts/FundMe.sol\":820:833  locked = true */\n      0x0100\n      exp\n      dup2\n      sload\n      dup2\n      0xff\n      mul\n      not\n      and\n      swap1\n      dup4\n      iszero\n      iszero\n      mul\n      or\n      swap1\n      sstore\n      pop\n        /* \"FundMe/contracts/FundMe.sol\":2959:2963  true */\n      0x01\n        /* \"FundMe/contracts/FundMe.sol\":2922:2963  addressIsActiveFunder[msg.sender] == true */\n      iszero\n      iszero\n        /* \"FundMe/contracts/FundMe.sol\":2922:2943  addressIsActiveFunder */\n      0x04\n        /* \"FundMe/contracts/FundMe.sol\":2922:2955  addressIsActiveFunder[msg.sender] */\n      0x00\n        /* \"FundMe/contracts/FundMe.sol\":2944:2954  msg.sender */\n      caller\n        /* \"FundMe/contracts/FundMe.sol\":2922:2955  addressIsActiveFunder[msg.sender] */\n      0xffffffffffffffffffffffffffffffffffffffff\n      and\n      0xffffffffffffffffffffffffffffffffffffffff\n      and\n      dup2\n      mstore\n      0x20\n      add\n      swap1\n      dup2\n      mstore\n      0x20\n      add\n      0x00\n      keccak256\n      0x00\n      swap1\n      sload\n      swap1\n      0x0100\n      exp\n      swap1\n      div\n      0xff\n      and\n        /* \"FundMe/contracts/FundMe.sol\":2922:2963  addressIsActiveFunder[msg.sender] == true */\n      iszero\n      iszero\n      eq\n        /* \"FundMe/contracts/FundMe.sol\":2914:2999  require(addressIsActiveFunder[msg.sender] == true, \"Wallet address is not a funder.\") */\n      tag_127\n      jumpi\n      mload(0x40)\n      0x08c379a000000000000000000000000000000000000000000000000000000000\n      dup2\n      mstore\n      0x04\n      add\n      tag_128\n      swap1\n      tag_129\n      jump\t// in\n    tag_128:\n      mload(0x40)\n      dup1\n      swap2\n      sub\n      swap1\n      revert\n    tag_127:\n        /* \"FundMe/contracts/FundMe.sol\":3049:3056  _amount */\n      dup1\n        /* \"FundMe/contracts/FundMe.sol\":3009:3033  addressToAvailableAmount */\n      0x05\n        /* \"FundMe/contracts/FundMe.sol\":3009:3045  addressToAvailableAmount[msg.sender] */\n      0x00\n        /* \"FundMe/contracts/FundMe.sol\":3034:3044  msg.sender */\n      caller\n        /* \"FundMe/contracts/FundMe.sol\":3009:3045  addressToAvailableAmount[msg.sender] */\n      0xffffffffffffffffffffffffffffffffffffffff\n      and\n      0xffffffffffffffffffffffffffffffffffffffff\n      and\n      dup2\n      mstore\n      0x20\n      add\n      swap1\n      dup2\n      mstore\n      0x20\n      add\n      0x00\n      keccak256\n      0x00\n        /* \"FundMe/contracts/FundMe.sol\":3009:3056  addressToAvailableAmount[msg.sender] -= _amount */\n      dup3\n      dup3\n      sload\n      tag_130\n      swap2\n      swap1\n      tag_131\n      jump\t// in\n    tag_130:\n      swap3\n      pop\n      pop\n      dup2\n      swap1\n      sstore\n      pop\n        /* \"FundMe/contracts/FundMe.sol\":3067:3079  bool success */\n      0x00\n        /* \"FundMe/contracts/FundMe.sol\":3085:3095  msg.sender */\n      caller\n        /* \"FundMe/contracts/FundMe.sol\":3085:3100  msg.sender.call */\n      0xffffffffffffffffffffffffffffffffffffffff\n      and\n        /* \"FundMe/contracts/FundMe.sol\":3108:3115  _amount */\n      dup3\n        /* \"FundMe/contracts/FundMe.sol\":3085:3120  msg.sender.call{value: _amount}(\"\") */\n      mload(0x40)\n      tag_132\n      swap1\n      tag_104\n      jump\t// in\n    tag_132:\n      0x00\n      mload(0x40)\n      dup1\n      dup4\n      sub\n      dup2\n      dup6\n      dup8\n      gas\n      call\n      swap3\n      pop\n      pop\n      pop\n      returndatasize\n      dup1\n      0x00\n      dup2\n      eq\n      tag_135\n      jumpi\n      mload(0x40)\n      swap2\n      pop\n      and(add(returndatasize, 0x3f), not(0x1f))\n      dup3\n      add\n      0x40\n      mstore\n      returndatasize\n      dup3\n      mstore\n      returndatasize\n      0x00\n      0x20\n      dup5\n      add\n      returndatacopy\n      jump(tag_134)\n    tag_135:\n      0x60\n      swap2\n      pop\n    tag_134:\n      pop\n        /* \"FundMe/contracts/FundMe.sol\":3066:3120  (bool success, ) = msg.sender.call{value: _amount}(\"\") */\n      pop\n      swap1\n      pop\n        /* \"FundMe/contracts/FundMe.sol\":3149:3153  true */\n      0x01\n        /* \"FundMe/contracts/FundMe.sol\":3138:3153  success == true */\n      iszero\n      iszero\n        /* \"FundMe/contracts/FundMe.sol\":3138:3145  success */\n      dup2\n        /* \"FundMe/contracts/FundMe.sol\":3138:3153  success == true */\n      iszero\n      iszero\n      eq\n        /* \"FundMe/contracts/FundMe.sol\":3130:3174  require(success == true, \"Transfer failed.\") */\n      tag_136\n      jumpi\n      mload(0x40)\n      0x08c379a000000000000000000000000000000000000000000000000000000000\n      dup2\n      mstore\n      0x04\n      add\n      tag_137\n      swap1\n      tag_110\n      jump\t// in\n    tag_137:\n      mload(0x40)\n      dup1\n      swap2\n      sub\n      swap1\n      revert\n    tag_136:\n        /* \"FundMe/contracts/FundMe.sol\":3324:3325  0 */\n      0x00\n        /* \"FundMe/contracts/FundMe.sol\":3284:3308  addressToAvailableAmount */\n      0x05\n        /* \"FundMe/contracts/FundMe.sol\":3284:3320  addressToAvailableAmount[msg.sender] */\n      0x00\n        /* \"FundMe/contracts/FundMe.sol\":3309:3319  msg.sender */\n      caller\n        /* \"FundMe/contracts/FundMe.sol\":3284:3320  addressToAvailableAmount[msg.sender] */\n      0xffffffffffffffffffffffffffffffffffffffff\n      and\n      0xffffffffffffffffffffffffffffffffffffffff\n      and\n      dup2\n      mstore\n      0x20\n      add\n      swap1\n      dup2\n      mstore\n      0x20\n      add\n      0x00\n      keccak256\n      sload\n        /* \"FundMe/contracts/FundMe.sol\":3284:3325  addressToAvailableAmount[msg.sender] <= 0 */\n      gt\n        /* \"FundMe/contracts/FundMe.sol\":3280:3373  if (addressToAvailableAmount[msg.sender] <= 0){... */\n      tag_138\n      jumpi\n        /* \"FundMe/contracts/FundMe.sol\":3340:3362  cleanAfterWithdrawal() */\n      tag_139\n        /* \"FundMe/contracts/FundMe.sol\":3340:3360  cleanAfterWithdrawal */\n      tag_112\n        /* \"FundMe/contracts/FundMe.sol\":3340:3362  cleanAfterWithdrawal() */\n      jump\t// in\n    tag_139:\n        /* \"FundMe/contracts/FundMe.sol\":3280:3373  if (addressToAvailableAmount[msg.sender] <= 0){... */\n    tag_138:\n        /* \"FundMe/contracts/FundMe.sol\":2904:3379  {... */\n      pop\n        /* \"FundMe/contracts/FundMe.sol\":1014:1019  false */\n      0x00\n        /* \"FundMe/contracts/FundMe.sol\":1005:1011  locked */\n      dup1\n      0x00\n        /* \"FundMe/contracts/FundMe.sol\":1005:1019  locked = false */\n      0x0100\n      exp\n      dup2\n      sload\n      dup2\n      0xff\n      mul\n      not\n      and\n      swap1\n      dup4\n      iszero\n      iszero\n      mul\n      or\n      swap1\n      sstore\n      pop\n        /* \"FundMe/contracts/FundMe.sol\":2843:3379  function partialWithdraw(uint256 _amount) public noReentrant {... */\n      pop\n      jump\t// out\n        /* \"FundMe/contracts/FundMe.sol\":313:333  address public owner */\n    tag_52:\n      0x00\n      0x01\n      swap1\n      sload\n      swap1\n      0x0100\n      exp\n      swap1\n      div\n      0xffffffffffffffffffffffffffffffffffffffff\n      and\n      dup2\n      jump\t// out\n        /* \"FundMe/contracts/FundMe.sol\":5099:5364  function getPrice() public view returns (uint256) {... */\n    tag_57:\n        /* \"FundMe/contracts/FundMe.sol\":5140:5147  uint256 */\n      0x00\n        /* \"FundMe/contracts/FundMe.sol\":5161:5173  int256 price */\n      dup1\n        /* \"FundMe/contracts/FundMe.sol\":5203:5245  0x694AA1769357215DE4FAC081bf1f309aDC325306 */\n      0x694aa1769357215de4fac081bf1f309adc325306\n        /* \"FundMe/contracts/FundMe.sol\":5181:5262  AggregatorV3Interface(0x694AA1769357215DE4FAC081bf1f309aDC325306).latestRoundData */\n      0xffffffffffffffffffffffffffffffffffffffff\n      and\n      0xfeaf968c\n        /* \"FundMe/contracts/FundMe.sol\":5181:5264  AggregatorV3Interface(0x694AA1769357215DE4FAC081bf1f309aDC325306).latestRoundData() */\n      mload(0x40)\n      dup2\n      0xffffffff\n      and\n      0xe0\n      shl\n      dup2\n      mstore\n      0x04\n      add\n      0xa0\n      mload(0x40)\n      dup1\n      dup4\n      sub\n      dup2\n      dup7\n      gas\n      staticcall\n      iszero\n      dup1\n      iszero\n      tag_142\n      jumpi\n      returndatasize\n      0x00\n      dup1\n      returndatacopy\n      revert(0x00, returndatasize)\n    tag_142:\n      pop\n      pop\n      pop\n      pop\n      mload(0x40)\n      returndatasize\n      not(0x1f)\n      0x1f\n      dup3\n      add\n      and\n      dup3\n      add\n      dup1\n      0x40\n      mstore\n      pop\n      dup2\n      add\n      swap1\n      tag_143\n      swap2\n      swap1\n      tag_144\n      jump\t// in\n    tag_143:\n        /* \"FundMe/contracts/FundMe.sol\":5159:5264  (,int256 price ,,,) = AggregatorV3Interface(0x694AA1769357215DE4FAC081bf1f309aDC325306).latestRoundData() */\n      pop\n      pop\n      pop\n      swap2\n      pop\n      pop\n        /* \"FundMe/contracts/FundMe.sol\":5290:5291  0 */\n      0x00\n        /* \"FundMe/contracts/FundMe.sol\":5282:5287  price */\n      dup2\n        /* \"FundMe/contracts/FundMe.sol\":5282:5291  price > 0 */\n      sgt\n        /* \"FundMe/contracts/FundMe.sol\":5274:5323  require(price > 0, \"Negative price not allowed.\") */\n      tag_145\n      jumpi\n      mload(0x40)\n      0x08c379a000000000000000000000000000000000000000000000000000000000\n      dup2\n      mstore\n      0x04\n      add\n      tag_146\n      swap1\n      tag_147\n      jump\t// in\n    tag_146:\n      mload(0x40)\n      dup1\n      swap2\n      sub\n      swap1\n      revert\n    tag_145:\n        /* \"FundMe/contracts/FundMe.sol\":5340:5357  price.toUint256() */\n      tag_148\n        /* \"FundMe/contracts/FundMe.sol\":5340:5345  price */\n      dup2\n        /* \"FundMe/contracts/FundMe.sol\":5340:5355  price.toUint256 */\n      tag_149\n        /* \"FundMe/contracts/FundMe.sol\":5340:5357  price.toUint256() */\n      jump\t// in\n    tag_148:\n        /* \"FundMe/contracts/FundMe.sol\":5333:5357  return price.toUint256() */\n      swap2\n      pop\n      pop\n        /* \"FundMe/contracts/FundMe.sol\":5099:5364  function getPrice() public view returns (uint256) {... */\n      swap1\n      jump\t// out\n        /* \"FundMe/contracts/FundMe.sol\":1063:1127  mapping (address => uint256) public addressToIndexInFundersArray */\n    tag_63:\n      mstore(0x20, 0x03)\n      dup1\n      0x00\n      mstore\n      keccak256(0x00, 0x40)\n      0x00\n      swap2\n      pop\n      swap1\n      pop\n      sload\n      dup2\n      jump\t// out\n        /* \"FundMe/contracts/FundMe.sol\":1422:1790  function changeMinimumUsd(uint256 _newMinimumUsd) public {... */\n    tag_68:\n        /* \"FundMe/contracts/FundMe.sol\":1511:1516  owner */\n      0x00\n      0x01\n      swap1\n      sload\n      swap1\n      0x0100\n      exp\n      swap1\n      div\n      0xffffffffffffffffffffffffffffffffffffffff\n      and\n        /* \"FundMe/contracts/FundMe.sol\":1497:1516  msg.sender == owner */\n      0xffffffffffffffffffffffffffffffffffffffff\n      and\n        /* \"FundMe/contracts/FundMe.sol\":1497:1507  msg.sender */\n      caller\n        /* \"FundMe/contracts/FundMe.sol\":1497:1516  msg.sender == owner */\n      0xffffffffffffffffffffffffffffffffffffffff\n      and\n      eq\n        /* \"FundMe/contracts/FundMe.sol\":1489:1589  require(msg.sender == owner, \"Only the owner of the contract can change the minimum amount of USD.\") */\n      tag_151\n      jumpi\n      mload(0x40)\n      0x08c379a000000000000000000000000000000000000000000000000000000000\n      dup2\n      mstore\n      0x04\n      add\n      tag_152\n      swap1\n      tag_153\n      jump\t// in\n    tag_152:\n      mload(0x40)\n      dup1\n      swap2\n      sub\n      swap1\n      revert\n    tag_151:\n        /* \"FundMe/contracts/FundMe.sol\":1599:1620  uint256 newMinimumUsd */\n      0x00\n        /* \"FundMe/contracts/FundMe.sol\":1638:1641  1e8 */\n      0x05f5e100\n        /* \"FundMe/contracts/FundMe.sol\":1623:1637  _newMinimumUsd */\n      dup3\n        /* \"FundMe/contracts/FundMe.sol\":1623:1641  _newMinimumUsd*1e8 */\n      tag_154\n      swap2\n      swap1\n      tag_92\n      jump\t// in\n    tag_154:\n        /* \"FundMe/contracts/FundMe.sol\":1599:1641  uint256 newMinimumUsd = _newMinimumUsd*1e8 */\n      swap1\n      pop\n        /* \"FundMe/contracts/FundMe.sol\":1676:1686  minimumUsd */\n      sload(0x01)\n        /* \"FundMe/contracts/FundMe.sol\":1659:1672  newMinimumUsd */\n      dup2\n        /* \"FundMe/contracts/FundMe.sol\":1659:1686  newMinimumUsd != minimumUsd */\n      sub\n        /* \"FundMe/contracts/FundMe.sol\":1651:1747  require(newMinimumUsd != minimumUsd, \"Cannot change the value of minimumUsd to the same value.\") */\n      tag_155\n      jumpi\n      mload(0x40)\n      0x08c379a000000000000000000000000000000000000000000000000000000000\n      dup2\n      mstore\n      0x04\n      add\n      tag_156\n      swap1\n      tag_157\n      jump\t// in\n    tag_156:\n      mload(0x40)\n      dup1\n      swap2\n      sub\n      swap1\n      revert\n    tag_155:\n        /* \"FundMe/contracts/FundMe.sol\":1770:1783  newMinimumUsd */\n      dup1\n        /* \"FundMe/contracts/FundMe.sol\":1757:1767  minimumUsd */\n      0x01\n        /* \"FundMe/contracts/FundMe.sol\":1757:1783  minimumUsd = newMinimumUsd */\n      dup2\n      swap1\n      sstore\n      pop\n        /* \"FundMe/contracts/FundMe.sol\":1479:1790  {... */\n      pop\n        /* \"FundMe/contracts/FundMe.sol\":1422:1790  function changeMinimumUsd(uint256 _newMinimumUsd) public {... */\n      pop\n      jump\t// out\n        /* \"FundMe/contracts/FundMe.sol\":1032:1056  address[] public funders */\n    tag_72:\n      0x02\n      dup2\n      dup2\n      sload\n      dup2\n      lt\n      tag_158\n      jumpi\n      0x00\n      dup1\n      revert\n    tag_158:\n      swap1\n      0x00\n      mstore\n      keccak256(0x00, 0x20)\n      add\n      0x00\n      swap2\n      pop\n      sload\n      swap1\n      0x0100\n      exp\n      swap1\n      div\n      0xffffffffffffffffffffffffffffffffffffffff\n      and\n      dup2\n      jump\t// out\n        /* \"FundMe/contracts/FundMe.sol\":1133:1187  mapping (address => bool) public addressIsActiveFunder */\n    tag_77:\n      mstore(0x20, 0x04)\n      dup1\n      0x00\n      mstore\n      keccak256(0x00, 0x40)\n      0x00\n      swap2\n      pop\n      sload\n      swap1\n      0x0100\n      exp\n      swap1\n      div\n      0xff\n      and\n      dup2\n      jump\t// out\n        /* \"FundMe/contracts/FundMe.sol\":4246:4982  function cleanAfterWithdrawal() internal {... */\n    tag_112:\n        /* \"FundMe/contracts/FundMe.sol\":4297:4322  address lastFunderAddress */\n      0x00\n        /* \"FundMe/contracts/FundMe.sol\":4325:4332  funders */\n      0x02\n        /* \"FundMe/contracts/FundMe.sol\":4350:4351  1 */\n      0x01\n        /* \"FundMe/contracts/FundMe.sol\":4333:4340  funders */\n      0x02\n        /* \"FundMe/contracts/FundMe.sol\":4333:4347  funders.length */\n      dup1\n      sload\n      swap1\n      pop\n        /* \"FundMe/contracts/FundMe.sol\":4333:4351  funders.length - 1 */\n      tag_161\n      swap2\n      swap1\n      tag_131\n      jump\t// in\n    tag_161:\n        /* \"FundMe/contracts/FundMe.sol\":4325:4352  funders[funders.length - 1] */\n      dup2\n      sload\n      dup2\n      lt\n      tag_162\n      jumpi\n      tag_163\n      tag_164\n      jump\t// in\n    tag_163:\n    tag_162:\n      swap1\n      0x00\n      mstore\n      keccak256(0x00, 0x20)\n      add\n      0x00\n      swap1\n      sload\n      swap1\n      0x0100\n      exp\n      swap1\n      div\n      0xffffffffffffffffffffffffffffffffffffffff\n      and\n        /* \"FundMe/contracts/FundMe.sol\":4297:4352  address lastFunderAddress = funders[funders.length - 1] */\n      swap1\n      pop\n        /* \"FundMe/contracts/FundMe.sol\":4362:4388  uint256 currentFunderIndex */\n      0x00\n        /* \"FundMe/contracts/FundMe.sol\":4391:4419  addressToIndexInFundersArray */\n      0x03\n        /* \"FundMe/contracts/FundMe.sol\":4391:4431  addressToIndexInFundersArray[msg.sender] */\n      0x00\n        /* \"FundMe/contracts/FundMe.sol\":4420:4430  msg.sender */\n      caller\n        /* \"FundMe/contracts/FundMe.sol\":4391:4431  addressToIndexInFundersArray[msg.sender] */\n      0xffffffffffffffffffffffffffffffffffffffff\n      and\n      0xffffffffffffffffffffffffffffffffffffffff\n      and\n      dup2\n      mstore\n      0x20\n      add\n      swap1\n      dup2\n      mstore\n      0x20\n      add\n      0x00\n      keccak256\n      sload\n        /* \"FundMe/contracts/FundMe.sol\":4362:4431  uint256 currentFunderIndex = addressToIndexInFundersArray[msg.sender] */\n      swap1\n      pop\n        /* \"FundMe/contracts/FundMe.sol\":4629:4630  1 */\n      0x01\n        /* \"FundMe/contracts/FundMe.sol\":4612:4619  funders */\n      0x02\n        /* \"FundMe/contracts/FundMe.sol\":4612:4626  funders.length */\n      dup1\n      sload\n      swap1\n      pop\n        /* \"FundMe/contracts/FundMe.sol\":4612:4630  funders.length - 1 */\n      tag_166\n      swap2\n      swap1\n      tag_131\n      jump\t// in\n    tag_166:\n        /* \"FundMe/contracts/FundMe.sol\":4568:4596  addressToIndexInFundersArray */\n      0x03\n        /* \"FundMe/contracts/FundMe.sol\":4568:4608  addressToIndexInFundersArray[msg.sender] */\n      0x00\n        /* \"FundMe/contracts/FundMe.sol\":4597:4607  msg.sender */\n      caller\n        /* \"FundMe/contracts/FundMe.sol\":4568:4608  addressToIndexInFundersArray[msg.sender] */\n      0xffffffffffffffffffffffffffffffffffffffff\n      and\n      0xffffffffffffffffffffffffffffffffffffffff\n      and\n      dup2\n      mstore\n      0x20\n      add\n      swap1\n      dup2\n      mstore\n      0x20\n      add\n      0x00\n      keccak256\n      sload\n        /* \"FundMe/contracts/FundMe.sol\":4568:4630  addressToIndexInFundersArray[msg.sender] != funders.length - 1 */\n      eq\n        /* \"FundMe/contracts/FundMe.sol\":4564:4803  if (addressToIndexInFundersArray[msg.sender] != funders.length - 1){... */\n      tag_167\n      jumpi\n        /* \"FundMe/contracts/FundMe.sol\":4675:4692  lastFunderAddress */\n      dup2\n        /* \"FundMe/contracts/FundMe.sol\":4645:4652  funders */\n      0x02\n        /* \"FundMe/contracts/FundMe.sol\":4653:4671  currentFunderIndex */\n      dup3\n        /* \"FundMe/contracts/FundMe.sol\":4645:4672  funders[currentFunderIndex] */\n      dup2\n      sload\n      dup2\n      lt\n      tag_168\n      jumpi\n      tag_169\n      tag_164\n      jump\t// in\n    tag_169:\n    tag_168:\n      swap1\n      0x00\n      mstore\n      keccak256(0x00, 0x20)\n      add\n      0x00\n        /* \"FundMe/contracts/FundMe.sol\":4645:4692  funders[currentFunderIndex] = lastFunderAddress */\n      0x0100\n      exp\n      dup2\n      sload\n      dup2\n      0xffffffffffffffffffffffffffffffffffffffff\n      mul\n      not\n      and\n      swap1\n      dup4\n      0xffffffffffffffffffffffffffffffffffffffff\n      and\n      mul\n      or\n      swap1\n      sstore\n      pop\n        /* \"FundMe/contracts/FundMe.sol\":4774:4792  currentFunderIndex */\n      dup1\n        /* \"FundMe/contracts/FundMe.sol\":4724:4752  addressToIndexInFundersArray */\n      0x03\n        /* \"FundMe/contracts/FundMe.sol\":4724:4771  addressToIndexInFundersArray[lastFunderAddress] */\n      0x00\n        /* \"FundMe/contracts/FundMe.sol\":4753:4770  lastFunderAddress */\n      dup5\n        /* \"FundMe/contracts/FundMe.sol\":4724:4771  addressToIndexInFundersArray[lastFunderAddress] */\n      0xffffffffffffffffffffffffffffffffffffffff\n      and\n      0xffffffffffffffffffffffffffffffffffffffff\n      and\n      dup2\n      mstore\n      0x20\n      add\n      swap1\n      dup2\n      mstore\n      0x20\n      add\n      0x00\n      keccak256\n        /* \"FundMe/contracts/FundMe.sol\":4724:4792  addressToIndexInFundersArray[lastFunderAddress] = currentFunderIndex */\n      dup2\n      swap1\n      sstore\n      pop\n        /* \"FundMe/contracts/FundMe.sol\":4564:4803  if (addressToIndexInFundersArray[msg.sender] != funders.length - 1){... */\n    tag_167:\n        /* \"FundMe/contracts/FundMe.sol\":4826:4833  funders */\n      0x02\n        /* \"FundMe/contracts/FundMe.sol\":4826:4839  funders.pop() */\n      dup1\n      sload\n      dup1\n      tag_171\n      jumpi\n      tag_172\n      tag_173\n      jump\t// in\n    tag_172:\n    tag_171:\n      0x01\n      swap1\n      sub\n      dup2\n      dup2\n      swap1\n      0x00\n      mstore\n      keccak256(0x00, 0x20)\n      add\n      exp(0x0100, 0x00)\n      dup2\n      sload\n      swap1\n      0xffffffffffffffffffffffffffffffffffffffff\n      mul\n      not\n      and\n      swap1\n      sstore\n      swap1\n      sstore\n        /* \"FundMe/contracts/FundMe.sol\":4870:4898  addressToIndexInFundersArray */\n      0x03\n        /* \"FundMe/contracts/FundMe.sol\":4870:4910  addressToIndexInFundersArray[msg.sender] */\n      0x00\n        /* \"FundMe/contracts/FundMe.sol\":4899:4909  msg.sender */\n      caller\n        /* \"FundMe/contracts/FundMe.sol\":4870:4910  addressToIndexInFundersArray[msg.sender] */\n      0xffffffffffffffffffffffffffffffffffffffff\n      and\n      0xffffffffffffffffffffffffffffffffffffffff\n      and\n      dup2\n      mstore\n      0x20\n      add\n      swap1\n      dup2\n      mstore\n      0x20\n      add\n      0x00\n      keccak256\n        /* \"FundMe/contracts/FundMe.sol\":4863:4910  delete addressToIndexInFundersArray[msg.sender] */\n      0x00\n      swap1\n      sstore\n        /* \"FundMe/contracts/FundMe.sol\":4970:4975  false */\n      0x00\n        /* \"FundMe/contracts/FundMe.sol\":4934:4955  addressIsActiveFunder */\n      0x04\n        /* \"FundMe/contracts/FundMe.sol\":4934:4967  addressIsActiveFunder[msg.sender] */\n      0x00\n        /* \"FundMe/contracts/FundMe.sol\":4956:4966  msg.sender */\n      caller\n        /* \"FundMe/contracts/FundMe.sol\":4934:4967  addressIsActiveFunder[msg.sender] */\n      0xffffffffffffffffffffffffffffffffffffffff\n      and\n      0xffffffffffffffffffffffffffffffffffffffff\n      and\n      dup2\n      mstore\n      0x20\n      add\n      swap1\n      dup2\n      mstore\n      0x20\n      add\n      0x00\n      keccak256\n      0x00\n        /* \"FundMe/contracts/FundMe.sol\":4934:4975  addressIsActiveFunder[msg.sender] = false */\n      0x0100\n      exp\n      dup2\n      sload\n      dup2\n      0xff\n      mul\n      not\n      and\n      swap1\n      dup4\n      iszero\n      iszero\n      mul\n      or\n      swap1\n      sstore\n      pop\n        /* \"FundMe/contracts/FundMe.sol\":4287:4982  {... */\n      pop\n      pop\n        /* \"FundMe/contracts/FundMe.sol\":4246:4982  function cleanAfterWithdrawal() internal {... */\n      jump\t// out\n        /* \"FundMe/contracts/SafeCast.sol\":17171:17364  function toUint256(int256 value) internal pure returns (uint256) {... */\n    tag_149:\n        /* \"FundMe/contracts/SafeCast.sol\":17227:17234  uint256 */\n      0x00\n        /* \"FundMe/contracts/SafeCast.sol\":17258:17259  0 */\n      dup1\n        /* \"FundMe/contracts/SafeCast.sol\":17250:17255  value */\n      dup3\n        /* \"FundMe/contracts/SafeCast.sol\":17250:17259  value < 0 */\n      slt\n        /* \"FundMe/contracts/SafeCast.sol\":17246:17327  if (value < 0) {... */\n      iszero\n      tag_176\n      jumpi\n        /* \"FundMe/contracts/SafeCast.sol\":17310:17315  value */\n      dup2\n        /* \"FundMe/contracts/SafeCast.sol\":17282:17316  SafeCastOverflowedIntToUint(value) */\n      mload(0x40)\n      0xa8ce443200000000000000000000000000000000000000000000000000000000\n      dup2\n      mstore\n      0x04\n      add\n      tag_177\n      swap2\n      swap1\n      tag_178\n      jump\t// in\n    tag_177:\n      mload(0x40)\n      dup1\n      swap2\n      sub\n      swap1\n      revert\n        /* \"FundMe/contracts/SafeCast.sol\":17246:17327  if (value < 0) {... */\n    tag_176:\n        /* \"FundMe/contracts/SafeCast.sol\":17351:17356  value */\n      dup2\n        /* \"FundMe/contracts/SafeCast.sol\":17336:17357  return uint256(value) */\n      swap1\n      pop\n        /* \"FundMe/contracts/SafeCast.sol\":17171:17364  function toUint256(int256 value) internal pure returns (uint256) {... */\n      swap2\n      swap1\n      pop\n      jump\t// out\n        /* \"#utility.yul\":88:205   */\n    tag_180:\n        /* \"#utility.yul\":197:198   */\n      0x00\n        /* \"#utility.yul\":194:195   */\n      dup1\n        /* \"#utility.yul\":187:199   */\n      revert\n        /* \"#utility.yul\":334:460   */\n    tag_182:\n        /* \"#utility.yul\":371:378   */\n      0x00\n        /* \"#utility.yul\":411:453   */\n      0xffffffffffffffffffffffffffffffffffffffff\n        /* \"#utility.yul\":404:409   */\n      dup3\n        /* \"#utility.yul\":400:454   */\n      and\n        /* \"#utility.yul\":389:454   */\n      swap1\n      pop\n        /* \"#utility.yul\":334:460   */\n      swap2\n      swap1\n      pop\n      jump\t// out\n        /* \"#utility.yul\":466:562   */\n    tag_183:\n        /* \"#utility.yul\":503:510   */\n      0x00\n        /* \"#utility.yul\":532:556   */\n      tag_231\n        /* \"#utility.yul\":550:555   */\n      dup3\n        /* \"#utility.yul\":532:556   */\n      tag_182\n      jump\t// in\n    tag_231:\n        /* \"#utility.yul\":521:556   */\n      swap1\n      pop\n        /* \"#utility.yul\":466:562   */\n      swap2\n      swap1\n      pop\n      jump\t// out\n        /* \"#utility.yul\":568:690   */\n    tag_184:\n        /* \"#utility.yul\":641:665   */\n      tag_233\n        /* \"#utility.yul\":659:664   */\n      dup2\n        /* \"#utility.yul\":641:665   */\n      tag_183\n      jump\t// in\n    tag_233:\n        /* \"#utility.yul\":634:639   */\n      dup2\n        /* \"#utility.yul\":631:666   */\n      eq\n        /* \"#utility.yul\":621:684   */\n      tag_234\n      jumpi\n        /* \"#utility.yul\":680:681   */\n      0x00\n        /* \"#utility.yul\":677:678   */\n      dup1\n        /* \"#utility.yul\":670:682   */\n      revert\n        /* \"#utility.yul\":621:684   */\n    tag_234:\n        /* \"#utility.yul\":568:690   */\n      pop\n      jump\t// out\n        /* \"#utility.yul\":696:835   */\n    tag_185:\n        /* \"#utility.yul\":742:747   */\n      0x00\n        /* \"#utility.yul\":780:786   */\n      dup2\n        /* \"#utility.yul\":767:787   */\n      calldataload\n        /* \"#utility.yul\":758:787   */\n      swap1\n      pop\n        /* \"#utility.yul\":796:829   */\n      tag_236\n        /* \"#utility.yul\":823:828   */\n      dup2\n        /* \"#utility.yul\":796:829   */\n      tag_184\n      jump\t// in\n    tag_236:\n        /* \"#utility.yul\":696:835   */\n      swap3\n      swap2\n      pop\n      pop\n      jump\t// out\n        /* \"#utility.yul\":841:1170   */\n    tag_25:\n        /* \"#utility.yul\":900:906   */\n      0x00\n        /* \"#utility.yul\":949:951   */\n      0x20\n        /* \"#utility.yul\":937:946   */\n      dup3\n        /* \"#utility.yul\":928:935   */\n      dup5\n        /* \"#utility.yul\":924:947   */\n      sub\n        /* \"#utility.yul\":920:952   */\n      slt\n        /* \"#utility.yul\":917:1036   */\n      iszero\n      tag_238\n      jumpi\n        /* \"#utility.yul\":955:1034   */\n      tag_239\n      tag_180\n      jump\t// in\n    tag_239:\n        /* \"#utility.yul\":917:1036   */\n    tag_238:\n        /* \"#utility.yul\":1075:1076   */\n      0x00\n        /* \"#utility.yul\":1100:1153   */\n      tag_240\n        /* \"#utility.yul\":1145:1152   */\n      dup5\n        /* \"#utility.yul\":1136:1142   */\n      dup3\n        /* \"#utility.yul\":1125:1134   */\n      dup6\n        /* \"#utility.yul\":1121:1143   */\n      add\n        /* \"#utility.yul\":1100:1153   */\n      tag_185\n      jump\t// in\n    tag_240:\n        /* \"#utility.yul\":1090:1153   */\n      swap2\n      pop\n        /* \"#utility.yul\":1046:1163   */\n      pop\n        /* \"#utility.yul\":841:1170   */\n      swap3\n      swap2\n      pop\n      pop\n      jump\t// out\n        /* \"#utility.yul\":1176:1253   */\n    tag_186:\n        /* \"#utility.yul\":1213:1220   */\n      0x00\n        /* \"#utility.yul\":1242:1247   */\n      dup2\n        /* \"#utility.yul\":1231:1247   */\n      swap1\n      pop\n        /* \"#utility.yul\":1176:1253   */\n      swap2\n      swap1\n      pop\n      jump\t// out\n        /* \"#utility.yul\":1259:1377   */\n    tag_187:\n        /* \"#utility.yul\":1346:1370   */\n      tag_243\n        /* \"#utility.yul\":1364:1369   */\n      dup2\n        /* \"#utility.yul\":1346:1370   */\n      tag_186\n      jump\t// in\n    tag_243:\n        /* \"#utility.yul\":1341:1344   */\n      dup3\n        /* \"#utility.yul\":1334:1371   */\n      mstore\n        /* \"#utility.yul\":1259:1377   */\n      pop\n      pop\n      jump\t// out\n        /* \"#utility.yul\":1383:1605   */\n    tag_28:\n        /* \"#utility.yul\":1476:1480   */\n      0x00\n        /* \"#utility.yul\":1514:1516   */\n      0x20\n        /* \"#utility.yul\":1503:1512   */\n      dup3\n        /* \"#utility.yul\":1499:1517   */\n      add\n        /* \"#utility.yul\":1491:1517   */\n      swap1\n      pop\n        /* \"#utility.yul\":1527:1598   */\n      tag_245\n        /* \"#utility.yul\":1595:1596   */\n      0x00\n        /* \"#utility.yul\":1584:1593   */\n      dup4\n        /* \"#utility.yul\":1580:1597   */\n      add\n        /* \"#utility.yul\":1571:1577   */\n      dup5\n        /* \"#utility.yul\":1527:1598   */\n      tag_187\n      jump\t// in\n    tag_245:\n        /* \"#utility.yul\":1383:1605   */\n      swap3\n      swap2\n      pop\n      pop\n      jump\t// out\n        /* \"#utility.yul\":1611:1733   */\n    tag_188:\n        /* \"#utility.yul\":1684:1708   */\n      tag_247\n        /* \"#utility.yul\":1702:1707   */\n      dup2\n        /* \"#utility.yul\":1684:1708   */\n      tag_186\n      jump\t// in\n    tag_247:\n        /* \"#utility.yul\":1677:1682   */\n      dup2\n        /* \"#utility.yul\":1674:1709   */\n      eq\n        /* \"#utility.yul\":1664:1727   */\n      tag_248\n      jumpi\n        /* \"#utility.yul\":1723:1724   */\n      0x00\n        /* \"#utility.yul\":1720:1721   */\n      dup1\n        /* \"#utility.yul\":1713:1725   */\n      revert\n        /* \"#utility.yul\":1664:1727   */\n    tag_248:\n        /* \"#utility.yul\":1611:1733   */\n      pop\n      jump\t// out\n        /* \"#utility.yul\":1739:1878   */\n    tag_189:\n        /* \"#utility.yul\":1785:1790   */\n      0x00\n        /* \"#utility.yul\":1823:1829   */\n      dup2\n        /* \"#utility.yul\":1810:1830   */\n      calldataload\n        /* \"#utility.yul\":1801:1830   */\n      swap1\n      pop\n        /* \"#utility.yul\":1839:1872   */\n      tag_250\n        /* \"#utility.yul\":1866:1871   */\n      dup2\n        /* \"#utility.yul\":1839:1872   */\n      tag_188\n      jump\t// in\n    tag_250:\n        /* \"#utility.yul\":1739:1878   */\n      swap3\n      swap2\n      pop\n      pop\n      jump\t// out\n        /* \"#utility.yul\":1884:2358   */\n    tag_36:\n        /* \"#utility.yul\":1952:1958   */\n      0x00\n        /* \"#utility.yul\":1960:1966   */\n      dup1\n        /* \"#utility.yul\":2009:2011   */\n      0x40\n        /* \"#utility.yul\":1997:2006   */\n      dup4\n        /* \"#utility.yul\":1988:1995   */\n      dup6\n        /* \"#utility.yul\":1984:2007   */\n      sub\n        /* \"#utility.yul\":1980:2012   */\n      slt\n        /* \"#utility.yul\":1977:2096   */\n      iszero\n      tag_252\n      jumpi\n        /* \"#utility.yul\":2015:2094   */\n      tag_253\n      tag_180\n      jump\t// in\n    tag_253:\n        /* \"#utility.yul\":1977:2096   */\n    tag_252:\n        /* \"#utility.yul\":2135:2136   */\n      0x00\n        /* \"#utility.yul\":2160:2213   */\n      tag_254\n        /* \"#utility.yul\":2205:2212   */\n      dup6\n        /* \"#utility.yul\":2196:2202   */\n      dup3\n        /* \"#utility.yul\":2185:2194   */\n      dup7\n        /* \"#utility.yul\":2181:2203   */\n      add\n        /* \"#utility.yul\":2160:2213   */\n      tag_189\n      jump\t// in\n    tag_254:\n        /* \"#utility.yul\":2150:2213   */\n      swap3\n      pop\n        /* \"#utility.yul\":2106:2223   */\n      pop\n        /* \"#utility.yul\":2262:2264   */\n      0x20\n        /* \"#utility.yul\":2288:2341   */\n      tag_255\n        /* \"#utility.yul\":2333:2340   */\n      dup6\n        /* \"#utility.yul\":2324:2330   */\n      dup3\n        /* \"#utility.yul\":2313:2322   */\n      dup7\n        /* \"#utility.yul\":2309:2331   */\n      add\n        /* \"#utility.yul\":2288:2341   */\n      tag_189\n      jump\t// in\n    tag_255:\n        /* \"#utility.yul\":2278:2341   */\n      swap2\n      pop\n        /* \"#utility.yul\":2233:2351   */\n      pop\n        /* \"#utility.yul\":1884:2358   */\n      swap3\n      pop\n      swap3\n      swap1\n      pop\n      jump\t// out\n        /* \"#utility.yul\":2364:2693   */\n    tag_48:\n        /* \"#utility.yul\":2423:2429   */\n      0x00\n        /* \"#utility.yul\":2472:2474   */\n      0x20\n        /* \"#utility.yul\":2460:2469   */\n      dup3\n        /* \"#utility.yul\":2451:2458   */\n      dup5\n        /* \"#utility.yul\":2447:2470   */\n      sub\n        /* \"#utility.yul\":2443:2475   */\n      slt\n        /* \"#utility.yul\":2440:2559   */\n      iszero\n      tag_257\n      jumpi\n        /* \"#utility.yul\":2478:2557   */\n      tag_258\n      tag_180\n      jump\t// in\n    tag_258:\n        /* \"#utility.yul\":2440:2559   */\n    tag_257:\n        /* \"#utility.yul\":2598:2599   */\n      0x00\n        /* \"#utility.yul\":2623:2676   */\n      tag_259\n        /* \"#utility.yul\":2668:2675   */\n      dup5\n        /* \"#utility.yul\":2659:2665   */\n      dup3\n        /* \"#utility.yul\":2648:2657   */\n      dup6\n        /* \"#utility.yul\":2644:2666   */\n      add\n        /* \"#utility.yul\":2623:2676   */\n      tag_189\n      jump\t// in\n    tag_259:\n        /* \"#utility.yul\":2613:2676   */\n      swap2\n      pop\n        /* \"#utility.yul\":2569:2686   */\n      pop\n        /* \"#utility.yul\":2364:2693   */\n      swap3\n      swap2\n      pop\n      pop\n      jump\t// out\n        /* \"#utility.yul\":2699:2817   */\n    tag_190:\n        /* \"#utility.yul\":2786:2810   */\n      tag_261\n        /* \"#utility.yul\":2804:2809   */\n      dup2\n        /* \"#utility.yul\":2786:2810   */\n      tag_183\n      jump\t// in\n    tag_261:\n        /* \"#utility.yul\":2781:2784   */\n      dup3\n        /* \"#utility.yul\":2774:2811   */\n      mstore\n        /* \"#utility.yul\":2699:2817   */\n      pop\n      pop\n      jump\t// out\n        /* \"#utility.yul\":2823:3045   */\n    tag_54:\n        /* \"#utility.yul\":2916:2920   */\n      0x00\n        /* \"#utility.yul\":2954:2956   */\n      0x20\n        /* \"#utility.yul\":2943:2952   */\n      dup3\n        /* \"#utility.yul\":2939:2957   */\n      add\n        /* \"#utility.yul\":2931:2957   */\n      swap1\n      pop\n        /* \"#utility.yul\":2967:3038   */\n      tag_263\n        /* \"#utility.yul\":3035:3036   */\n      0x00\n        /* \"#utility.yul\":3024:3033   */\n      dup4\n        /* \"#utility.yul\":3020:3037   */\n      add\n        /* \"#utility.yul\":3011:3017   */\n      dup5\n        /* \"#utility.yul\":2967:3038   */\n      tag_190\n      jump\t// in\n    tag_263:\n        /* \"#utility.yul\":2823:3045   */\n      swap3\n      swap2\n      pop\n      pop\n      jump\t// out\n        /* \"#utility.yul\":3051:3141   */\n    tag_191:\n        /* \"#utility.yul\":3085:3092   */\n      0x00\n        /* \"#utility.yul\":3128:3133   */\n      dup2\n        /* \"#utility.yul\":3121:3134   */\n      iszero\n        /* \"#utility.yul\":3114:3135   */\n      iszero\n        /* \"#utility.yul\":3103:3135   */\n      swap1\n      pop\n        /* \"#utility.yul\":3051:3141   */\n      swap2\n      swap1\n      pop\n      jump\t// out\n        /* \"#utility.yul\":3147:3256   */\n    tag_192:\n        /* \"#utility.yul\":3228:3249   */\n      tag_266\n        /* \"#utility.yul\":3243:3248   */\n      dup2\n        /* \"#utility.yul\":3228:3249   */\n      tag_191\n      jump\t// in\n    tag_266:\n        /* \"#utility.yul\":3223:3226   */\n      dup3\n        /* \"#utility.yul\":3216:3250   */\n      mstore\n        /* \"#utility.yul\":3147:3256   */\n      pop\n      pop\n      jump\t// out\n        /* \"#utility.yul\":3262:3472   */\n    tag_79:\n        /* \"#utility.yul\":3349:3353   */\n      0x00\n        /* \"#utility.yul\":3387:3389   */\n      0x20\n        /* \"#utility.yul\":3376:3385   */\n      dup3\n        /* \"#utility.yul\":3372:3390   */\n      add\n        /* \"#utility.yul\":3364:3390   */\n      swap1\n      pop\n        /* \"#utility.yul\":3400:3465   */\n      tag_268\n        /* \"#utility.yul\":3462:3463   */\n      0x00\n        /* \"#utility.yul\":3451:3460   */\n      dup4\n        /* \"#utility.yul\":3447:3464   */\n      add\n        /* \"#utility.yul\":3438:3444   */\n      dup5\n        /* \"#utility.yul\":3400:3465   */\n      tag_192\n      jump\t// in\n    tag_268:\n        /* \"#utility.yul\":3262:3472   */\n      swap3\n      swap2\n      pop\n      pop\n      jump\t// out\n        /* \"#utility.yul\":3478:3647   */\n    tag_193:\n        /* \"#utility.yul\":3562:3573   */\n      0x00\n        /* \"#utility.yul\":3596:3602   */\n      dup3\n        /* \"#utility.yul\":3591:3594   */\n      dup3\n        /* \"#utility.yul\":3584:3603   */\n      mstore\n        /* \"#utility.yul\":3636:3640   */\n      0x20\n        /* \"#utility.yul\":3631:3634   */\n      dup3\n        /* \"#utility.yul\":3627:3641   */\n      add\n        /* \"#utility.yul\":3612:3641   */\n      swap1\n      pop\n        /* \"#utility.yul\":3478:3647   */\n      swap3\n      swap2\n      pop\n      pop\n      jump\t// out\n        /* \"#utility.yul\":3653:3825   */\n    tag_194:\n        /* \"#utility.yul\":3793:3817   */\n      0x6469646e27742073656e6420656e6f7567682055534400000000000000000000\n        /* \"#utility.yul\":3789:3790   */\n      0x00\n        /* \"#utility.yul\":3781:3787   */\n      dup3\n        /* \"#utility.yul\":3777:3791   */\n      add\n        /* \"#utility.yul\":3770:3818   */\n      mstore\n        /* \"#utility.yul\":3653:3825   */\n      pop\n      jump\t// out\n        /* \"#utility.yul\":3831:4197   */\n    tag_195:\n        /* \"#utility.yul\":3973:3976   */\n      0x00\n        /* \"#utility.yul\":3994:4061   */\n      tag_272\n        /* \"#utility.yul\":4058:4060   */\n      0x16\n        /* \"#utility.yul\":4053:4056   */\n      dup4\n        /* \"#utility.yul\":3994:4061   */\n      tag_193\n      jump\t// in\n    tag_272:\n        /* \"#utility.yul\":3987:4061   */\n      swap2\n      pop\n        /* \"#utility.yul\":4070:4163   */\n      tag_273\n        /* \"#utility.yul\":4159:4162   */\n      dup3\n        /* \"#utility.yul\":4070:4163   */\n      tag_194\n      jump\t// in\n    tag_273:\n        /* \"#utility.yul\":4188:4190   */\n      0x20\n        /* \"#utility.yul\":4183:4186   */\n      dup3\n        /* \"#utility.yul\":4179:4191   */\n      add\n        /* \"#utility.yul\":4172:4191   */\n      swap1\n      pop\n        /* \"#utility.yul\":3831:4197   */\n      swap2\n      swap1\n      pop\n      jump\t// out\n        /* \"#utility.yul\":4203:4622   */\n    tag_85:\n        /* \"#utility.yul\":4369:4373   */\n      0x00\n        /* \"#utility.yul\":4407:4409   */\n      0x20\n        /* \"#utility.yul\":4396:4405   */\n      dup3\n        /* \"#utility.yul\":4392:4410   */\n      add\n        /* \"#utility.yul\":4384:4410   */\n      swap1\n      pop\n        /* \"#utility.yul\":4456:4465   */\n      dup2\n        /* \"#utility.yul\":4450:4454   */\n      dup2\n        /* \"#utility.yul\":4446:4466   */\n      sub\n        /* \"#utility.yul\":4442:4443   */\n      0x00\n        /* \"#utility.yul\":4431:4440   */\n      dup4\n        /* \"#utility.yul\":4427:4444   */\n      add\n        /* \"#utility.yul\":4420:4467   */\n      mstore\n        /* \"#utility.yul\":4484:4615   */\n      tag_275\n        /* \"#utility.yul\":4610:4614   */\n      dup2\n        /* \"#utility.yul\":4484:4615   */\n      tag_195\n      jump\t// in\n    tag_275:\n        /* \"#utility.yul\":4476:4615   */\n      swap1\n      pop\n        /* \"#utility.yul\":4203:4622   */\n      swap2\n      swap1\n      pop\n      jump\t// out\n        /* \"#utility.yul\":4628:4808   */\n    tag_196:\n        /* \"#utility.yul\":4676:4753   */\n      0x4e487b7100000000000000000000000000000000000000000000000000000000\n        /* \"#utility.yul\":4673:4674   */\n      0x00\n        /* \"#utility.yul\":4666:4754   */\n      mstore\n        /* \"#utility.yul\":4773:4777   */\n      0x11\n        /* \"#utility.yul\":4770:4771   */\n      0x04\n        /* \"#utility.yul\":4763:4778   */\n      mstore\n        /* \"#utility.yul\":4797:4801   */\n      0x24\n        /* \"#utility.yul\":4794:4795   */\n      0x00\n        /* \"#utility.yul\":4787:4802   */\n      revert\n        /* \"#utility.yul\":4814:5005   */\n    tag_89:\n        /* \"#utility.yul\":4854:4857   */\n      0x00\n        /* \"#utility.yul\":4873:4893   */\n      tag_278\n        /* \"#utility.yul\":4891:4892   */\n      dup3\n        /* \"#utility.yul\":4873:4893   */\n      tag_186\n      jump\t// in\n    tag_278:\n        /* \"#utility.yul\":4868:4893   */\n      swap2\n      pop\n        /* \"#utility.yul\":4907:4927   */\n      tag_279\n        /* \"#utility.yul\":4925:4926   */\n      dup4\n        /* \"#utility.yul\":4907:4927   */\n      tag_186\n      jump\t// in\n    tag_279:\n        /* \"#utility.yul\":4902:4927   */\n      swap3\n      pop\n        /* \"#utility.yul\":4950:4951   */\n      dup3\n        /* \"#utility.yul\":4947:4948   */\n      dup3\n        /* \"#utility.yul\":4943:4952   */\n      add\n        /* \"#utility.yul\":4936:4952   */\n      swap1\n      pop\n        /* \"#utility.yul\":4971:4974   */\n      dup1\n        /* \"#utility.yul\":4968:4969   */\n      dup3\n        /* \"#utility.yul\":4965:4975   */\n      gt\n        /* \"#utility.yul\":4962:4998   */\n      iszero\n      tag_280\n      jumpi\n        /* \"#utility.yul\":4978:4996   */\n      tag_281\n      tag_196\n      jump\t// in\n    tag_281:\n        /* \"#utility.yul\":4962:4998   */\n    tag_280:\n        /* \"#utility.yul\":4814:5005   */\n      swap3\n      swap2\n      pop\n      pop\n      jump\t// out\n        /* \"#utility.yul\":5011:5421   */\n    tag_92:\n        /* \"#utility.yul\":5051:5058   */\n      0x00\n        /* \"#utility.yul\":5074:5094   */\n      tag_283\n        /* \"#utility.yul\":5092:5093   */\n      dup3\n        /* \"#utility.yul\":5074:5094   */\n      tag_186\n      jump\t// in\n    tag_283:\n        /* \"#utility.yul\":5069:5094   */\n      swap2\n      pop\n        /* \"#utility.yul\":5108:5128   */\n      tag_284\n        /* \"#utility.yul\":5126:5127   */\n      dup4\n        /* \"#utility.yul\":5108:5128   */\n      tag_186\n      jump\t// in\n    tag_284:\n        /* \"#utility.yul\":5103:5128   */\n      swap3\n      pop\n        /* \"#utility.yul\":5163:5164   */\n      dup3\n        /* \"#utility.yul\":5160:5161   */\n      dup3\n        /* \"#utility.yul\":5156:5165   */\n      mul\n        /* \"#utility.yul\":5185:5215   */\n      tag_285\n        /* \"#utility.yul\":5203:5214   */\n      dup2\n        /* \"#utility.yul\":5185:5215   */\n      tag_186\n      jump\t// in\n    tag_285:\n        /* \"#utility.yul\":5174:5215   */\n      swap2\n      pop\n        /* \"#utility.yul\":5364:5365   */\n      dup3\n        /* \"#utility.yul\":5355:5362   */\n      dup3\n        /* \"#utility.yul\":5351:5366   */\n      div\n        /* \"#utility.yul\":5348:5349   */\n      dup5\n        /* \"#utility.yul\":5345:5367   */\n      eq\n        /* \"#utility.yul\":5325:5326   */\n      dup4\n        /* \"#utility.yul\":5318:5327   */\n      iszero\n        /* \"#utility.yul\":5298:5381   */\n      or\n        /* \"#utility.yul\":5275:5414   */\n      tag_286\n      jumpi\n        /* \"#utility.yul\":5394:5412   */\n      tag_287\n      tag_196\n      jump\t// in\n    tag_287:\n        /* \"#utility.yul\":5275:5414   */\n    tag_286:\n        /* \"#utility.yul\":5059:5421   */\n      pop\n        /* \"#utility.yul\":5011:5421   */\n      swap3\n      swap2\n      pop\n      pop\n      jump\t// out\n        /* \"#utility.yul\":5427:5607   */\n    tag_197:\n        /* \"#utility.yul\":5475:5552   */\n      0x4e487b7100000000000000000000000000000000000000000000000000000000\n        /* \"#utility.yul\":5472:5473   */\n      0x00\n        /* \"#utility.yul\":5465:5553   */\n      mstore\n        /* \"#utility.yul\":5572:5576   */\n      0x12\n        /* \"#utility.yul\":5569:5570   */\n      0x04\n        /* \"#utility.yul\":5562:5577   */\n      mstore\n        /* \"#utility.yul\":5596:5600   */\n      0x24\n        /* \"#utility.yul\":5593:5594   */\n      0x00\n        /* \"#utility.yul\":5586:5601   */\n      revert\n        /* \"#utility.yul\":5613:5798   */\n    tag_94:\n        /* \"#utility.yul\":5653:5654   */\n      0x00\n        /* \"#utility.yul\":5670:5690   */\n      tag_290\n        /* \"#utility.yul\":5688:5689   */\n      dup3\n        /* \"#utility.yul\":5670:5690   */\n      tag_186\n      jump\t// in\n    tag_290:\n        /* \"#utility.yul\":5665:5690   */\n      swap2\n      pop\n        /* \"#utility.yul\":5704:5724   */\n      tag_291\n        /* \"#utility.yul\":5722:5723   */\n      dup4\n        /* \"#utility.yul\":5704:5724   */\n      tag_186\n      jump\t// in\n    tag_291:\n        /* \"#utility.yul\":5699:5724   */\n      swap3\n      pop\n        /* \"#utility.yul\":5743:5744   */\n      dup3\n        /* \"#utility.yul\":5733:5768   */\n      tag_292\n      jumpi\n        /* \"#utility.yul\":5748:5766   */\n      tag_293\n      tag_197\n      jump\t// in\n    tag_293:\n        /* \"#utility.yul\":5733:5768   */\n    tag_292:\n        /* \"#utility.yul\":5790:5791   */\n      dup3\n        /* \"#utility.yul\":5787:5788   */\n      dup3\n        /* \"#utility.yul\":5783:5792   */\n      div\n        /* \"#utility.yul\":5778:5792   */\n      swap1\n      pop\n        /* \"#utility.yul\":5613:5798   */\n      swap3\n      swap2\n      pop\n      pop\n      jump\t// out\n        /* \"#utility.yul\":5804:6032   */\n    tag_198:\n        /* \"#utility.yul\":5944:5978   */\n      0x4e6f2072652d656e7472616e637920616c6c6f7765642c20706c656173652074\n        /* \"#utility.yul\":5940:5941   */\n      0x00\n        /* \"#utility.yul\":5932:5938   */\n      dup3\n        /* \"#utility.yul\":5928:5942   */\n      add\n        /* \"#utility.yul\":5921:5979   */\n      mstore\n        /* \"#utility.yul\":6013:6024   */\n      0x727920616761696e2e0000000000000000000000000000000000000000000000\n        /* \"#utility.yul\":6008:6010   */\n      0x20\n        /* \"#utility.yul\":6000:6006   */\n      dup3\n        /* \"#utility.yul\":5996:6011   */\n      add\n        /* \"#utility.yul\":5989:6025   */\n      mstore\n        /* \"#utility.yul\":5804:6032   */\n      pop\n      jump\t// out\n        /* \"#utility.yul\":6038:6404   */\n    tag_199:\n        /* \"#utility.yul\":6180:6183   */\n      0x00\n        /* \"#utility.yul\":6201:6268   */\n      tag_296\n        /* \"#utility.yul\":6265:6267   */\n      0x29\n        /* \"#utility.yul\":6260:6263   */\n      dup4\n        /* \"#utility.yul\":6201:6268   */\n      tag_193\n      jump\t// in\n    tag_296:\n        /* \"#utility.yul\":6194:6268   */\n      swap2\n      pop\n        /* \"#utility.yul\":6277:6370   */\n      tag_297\n        /* \"#utility.yul\":6366:6369   */\n      dup3\n        /* \"#utility.yul\":6277:6370   */\n      tag_198\n      jump\t// in\n    tag_297:\n        /* \"#utility.yul\":6395:6397   */\n      0x40\n        /* \"#utility.yul\":6390:6393   */\n      dup3\n        /* \"#utility.yul\":6386:6398   */\n      add\n        /* \"#utility.yul\":6379:6398   */\n      swap1\n      pop\n        /* \"#utility.yul\":6038:6404   */\n      swap2\n      swap1\n      pop\n      jump\t// out\n        /* \"#utility.yul\":6410:6829   */\n    tag_98:\n        /* \"#utility.yul\":6576:6580   */\n      0x00\n        /* \"#utility.yul\":6614:6616   */\n      0x20\n        /* \"#utility.yul\":6603:6612   */\n      dup3\n        /* \"#utility.yul\":6599:6617   */\n      add\n        /* \"#utility.yul\":6591:6617   */\n      swap1\n      pop\n        /* \"#utility.yul\":6663:6672   */\n      dup2\n        /* \"#utility.yul\":6657:6661   */\n      dup2\n        /* \"#utility.yul\":6653:6673   */\n      sub\n        /* \"#utility.yul\":6649:6650   */\n      0x00\n        /* \"#utility.yul\":6638:6647   */\n      dup4\n        /* \"#utility.yul\":6634:6651   */\n      add\n        /* \"#utility.yul\":6627:6674   */\n      mstore\n        /* \"#utility.yul\":6691:6822   */\n      tag_299\n        /* \"#utility.yul\":6817:6821   */\n      dup2\n        /* \"#utility.yul\":6691:6822   */\n      tag_199\n      jump\t// in\n    tag_299:\n        /* \"#utility.yul\":6683:6822   */\n      swap1\n      pop\n        /* \"#utility.yul\":6410:6829   */\n      swap2\n      swap1\n      pop\n      jump\t// out\n        /* \"#utility.yul\":6835:7005   */\n    tag_200:\n        /* \"#utility.yul\":6975:6997   */\n      0x496e73756666696369656e742062616c616e6365000000000000000000000000\n        /* \"#utility.yul\":6971:6972   */\n      0x00\n        /* \"#utility.yul\":6963:6969   */\n      dup3\n        /* \"#utility.yul\":6959:6973   */\n      add\n        /* \"#utility.yul\":6952:6998   */\n      mstore\n        /* \"#utility.yul\":6835:7005   */\n      pop\n      jump\t// out\n        /* \"#utility.yul\":7011:7377   */\n    tag_201:\n        /* \"#utility.yul\":7153:7156   */\n      0x00\n        /* \"#utility.yul\":7174:7241   */\n      tag_302\n        /* \"#utility.yul\":7238:7240   */\n      0x14\n        /* \"#utility.yul\":7233:7236   */\n      dup4\n        /* \"#utility.yul\":7174:7241   */\n      tag_193\n      jump\t// in\n    tag_302:\n        /* \"#utility.yul\":7167:7241   */\n      swap2\n      pop\n        /* \"#utility.yul\":7250:7343   */\n      tag_303\n        /* \"#utility.yul\":7339:7342   */\n      dup3\n        /* \"#utility.yul\":7250:7343   */\n      tag_200\n      jump\t// in\n    tag_303:\n        /* \"#utility.yul\":7368:7370   */\n      0x20\n        /* \"#utility.yul\":7363:7366   */\n      dup3\n        /* \"#utility.yul\":7359:7371   */\n      add\n        /* \"#utility.yul\":7352:7371   */\n      swap1\n      pop\n        /* \"#utility.yul\":7011:7377   */\n      swap2\n      swap1\n      pop\n      jump\t// out\n        /* \"#utility.yul\":7383:7802   */\n    tag_102:\n        /* \"#utility.yul\":7549:7553   */\n      0x00\n        /* \"#utility.yul\":7587:7589   */\n      0x20\n        /* \"#utility.yul\":7576:7585   */\n      dup3\n        /* \"#utility.yul\":7572:7590   */\n      add\n        /* \"#utility.yul\":7564:7590   */\n      swap1\n      pop\n        /* \"#utility.yul\":7636:7645   */\n      dup2\n        /* \"#utility.yul\":7630:7634   */\n      dup2\n        /* \"#utility.yul\":7626:7646   */\n      sub\n        /* \"#utility.yul\":7622:7623   */\n      0x00\n        /* \"#utility.yul\":7611:7620   */\n      dup4\n        /* \"#utility.yul\":7607:7624   */\n      add\n        /* \"#utility.yul\":7600:7647   */\n      mstore\n        /* \"#utility.yul\":7664:7795   */\n      tag_305\n        /* \"#utility.yul\":7790:7794   */\n      dup2\n        /* \"#utility.yul\":7664:7795   */\n      tag_201\n      jump\t// in\n    tag_305:\n        /* \"#utility.yul\":7656:7795   */\n      swap1\n      pop\n        /* \"#utility.yul\":7383:7802   */\n      swap2\n      swap1\n      pop\n      jump\t// out\n        /* \"#utility.yul\":7808:7955   */\n    tag_202:\n        /* \"#utility.yul\":7909:7920   */\n      0x00\n        /* \"#utility.yul\":7946:7949   */\n      dup2\n        /* \"#utility.yul\":7931:7949   */\n      swap1\n      pop\n        /* \"#utility.yul\":7808:7955   */\n      swap3\n      swap2\n      pop\n      pop\n      jump\t// out\n        /* \"#utility.yul\":7961:8075   */\n    tag_203:\n      pop\n      jump\t// out\n        /* \"#utility.yul\":8081:8479   */\n    tag_204:\n        /* \"#utility.yul\":8240:8243   */\n      0x00\n        /* \"#utility.yul\":8261:8344   */\n      tag_309\n        /* \"#utility.yul\":8342:8343   */\n      0x00\n        /* \"#utility.yul\":8337:8340   */\n      dup4\n        /* \"#utility.yul\":8261:8344   */\n      tag_202\n      jump\t// in\n    tag_309:\n        /* \"#utility.yul\":8254:8344   */\n      swap2\n      pop\n        /* \"#utility.yul\":8353:8446   */\n      tag_310\n        /* \"#utility.yul\":8442:8445   */\n      dup3\n        /* \"#utility.yul\":8353:8446   */\n      tag_203\n      jump\t// in\n    tag_310:\n        /* \"#utility.yul\":8471:8472   */\n      0x00\n        /* \"#utility.yul\":8466:8469   */\n      dup3\n        /* \"#utility.yul\":8462:8473   */\n      add\n        /* \"#utility.yul\":8455:8473   */\n      swap1\n      pop\n        /* \"#utility.yul\":8081:8479   */\n      swap2\n      swap1\n      pop\n      jump\t// out\n        /* \"#utility.yul\":8485:8864   */\n    tag_104:\n        /* \"#utility.yul\":8669:8672   */\n      0x00\n        /* \"#utility.yul\":8691:8838   */\n      tag_312\n        /* \"#utility.yul\":8834:8837   */\n      dup3\n        /* \"#utility.yul\":8691:8838   */\n      tag_204\n      jump\t// in\n    tag_312:\n        /* \"#utility.yul\":8684:8838   */\n      swap2\n      pop\n        /* \"#utility.yul\":8855:8858   */\n      dup2\n        /* \"#utility.yul\":8848:8858   */\n      swap1\n      pop\n        /* \"#utility.yul\":8485:8864   */\n      swap2\n      swap1\n      pop\n      jump\t// out\n        /* \"#utility.yul\":8870:9036   */\n    tag_205:\n        /* \"#utility.yul\":9010:9028   */\n      0x5472616e73666572206661696c65642e00000000000000000000000000000000\n        /* \"#utility.yul\":9006:9007   */\n      0x00\n        /* \"#utility.yul\":8998:9004   */\n      dup3\n        /* \"#utility.yul\":8994:9008   */\n      add\n        /* \"#utility.yul\":8987:9029   */\n      mstore\n        /* \"#utility.yul\":8870:9036   */\n      pop\n      jump\t// out\n        /* \"#utility.yul\":9042:9408   */\n    tag_206:\n        /* \"#utility.yul\":9184:9187   */\n      0x00\n        /* \"#utility.yul\":9205:9272   */\n      tag_315\n        /* \"#utility.yul\":9269:9271   */\n      0x10\n        /* \"#utility.yul\":9264:9267   */\n      dup4\n        /* \"#utility.yul\":9205:9272   */\n      tag_193\n      jump\t// in\n    tag_315:\n        /* \"#utility.yul\":9198:9272   */\n      swap2\n      pop\n        /* \"#utility.yul\":9281:9374   */\n      tag_316\n        /* \"#utility.yul\":9370:9373   */\n      dup3\n        /* \"#utility.yul\":9281:9374   */\n      tag_205\n      jump\t// in\n    tag_316:\n        /* \"#utility.yul\":9399:9401   */\n      0x20\n        /* \"#utility.yul\":9394:9397   */\n      dup3\n        /* \"#utility.yul\":9390:9402   */\n      add\n        /* \"#utility.yul\":9383:9402   */\n      swap1\n      pop\n        /* \"#utility.yul\":9042:9408   */\n      swap2\n      swap1\n      pop\n      jump\t// out\n        /* \"#utility.yul\":9414:9833   */\n    tag_110:\n        /* \"#utility.yul\":9580:9584   */\n      0x00\n        /* \"#utility.yul\":9618:9620   */\n      0x20\n        /* \"#utility.yul\":9607:9616   */\n      dup3\n        /* \"#utility.yul\":9603:9621   */\n      add\n        /* \"#utility.yul\":9595:9621   */\n      swap1\n      pop\n        /* \"#utility.yul\":9667:9676   */\n      dup2\n        /* \"#utility.yul\":9661:9665   */\n      dup2\n        /* \"#utility.yul\":9657:9677   */\n      sub\n        /* \"#utility.yul\":9653:9654   */\n      0x00\n        /* \"#utility.yul\":9642:9651   */\n      dup4\n        /* \"#utility.yul\":9638:9655   */\n      add\n        /* \"#utility.yul\":9631:9678   */\n      mstore\n        /* \"#utility.yul\":9695:9826   */\n      tag_318\n        /* \"#utility.yul\":9821:9825   */\n      dup2\n        /* \"#utility.yul\":9695:9826   */\n      tag_206\n      jump\t// in\n    tag_318:\n        /* \"#utility.yul\":9687:9826   */\n      swap1\n      pop\n        /* \"#utility.yul\":9414:9833   */\n      swap2\n      swap1\n      pop\n      jump\t// out\n        /* \"#utility.yul\":9839:10060   */\n    tag_207:\n        /* \"#utility.yul\":9979:10013   */\n      0x4f6e6c79206f776e65722063616e2063616c6c20746869732066756e6374696f\n        /* \"#utility.yul\":9975:9976   */\n      0x00\n        /* \"#utility.yul\":9967:9973   */\n      dup3\n        /* \"#utility.yul\":9963:9977   */\n      add\n        /* \"#utility.yul\":9956:10014   */\n      mstore\n        /* \"#utility.yul\":10048:10052   */\n      0x6e2e000000000000000000000000000000000000000000000000000000000000\n        /* \"#utility.yul\":10043:10045   */\n      0x20\n        /* \"#utility.yul\":10035:10041   */\n      dup3\n        /* \"#utility.yul\":10031:10046   */\n      add\n        /* \"#utility.yul\":10024:10053   */\n      mstore\n        /* \"#utility.yul\":9839:10060   */\n      pop\n      jump\t// out\n        /* \"#utility.yul\":10066:10432   */\n    tag_208:\n        /* \"#utility.yul\":10208:10211   */\n      0x00\n        /* \"#utility.yul\":10229:10296   */\n      tag_321\n        /* \"#utility.yul\":10293:10295   */\n      0x22\n        /* \"#utility.yul\":10288:10291   */\n      dup4\n        /* \"#utility.yul\":10229:10296   */\n      tag_193\n      jump\t// in\n    tag_321:\n        /* \"#utility.yul\":10222:10296   */\n      swap2\n      pop\n        /* \"#utility.yul\":10305:10398   */\n      tag_322\n        /* \"#utility.yul\":10394:10397   */\n      dup3\n        /* \"#utility.yul\":10305:10398   */\n      tag_207\n      jump\t// in\n    tag_322:\n        /* \"#utility.yul\":10423:10425   */\n      0x40\n        /* \"#utility.yul\":10418:10421   */\n      dup3\n        /* \"#utility.yul\":10414:10426   */\n      add\n        /* \"#utility.yul\":10407:10426   */\n      swap1\n      pop\n        /* \"#utility.yul\":10066:10432   */\n      swap2\n      swap1\n      pop\n      jump\t// out\n        /* \"#utility.yul\":10438:10857   */\n    tag_116:\n        /* \"#utility.yul\":10604:10608   */\n      0x00\n        /* \"#utility.yul\":10642:10644   */\n      0x20\n        /* \"#utility.yul\":10631:10640   */\n      dup3\n        /* \"#utility.yul\":10627:10645   */\n      add\n        /* \"#utility.yul\":10619:10645   */\n      swap1\n      pop\n        /* \"#utility.yul\":10691:10700   */\n      dup2\n        /* \"#utility.yul\":10685:10689   */\n      dup2\n        /* \"#utility.yul\":10681:10701   */\n      sub\n        /* \"#utility.yul\":10677:10678   */\n      0x00\n        /* \"#utility.yul\":10666:10675   */\n      dup4\n        /* \"#utility.yul\":10662:10679   */\n      add\n        /* \"#utility.yul\":10655:10702   */\n      mstore\n        /* \"#utility.yul\":10719:10850   */\n      tag_324\n        /* \"#utility.yul\":10845:10849   */\n      dup2\n        /* \"#utility.yul\":10719:10850   */\n      tag_208\n      jump\t// in\n    tag_324:\n        /* \"#utility.yul\":10711:10850   */\n      swap1\n      pop\n        /* \"#utility.yul\":10438:10857   */\n      swap2\n      swap1\n      pop\n      jump\t// out\n        /* \"#utility.yul\":10863:11044   */\n    tag_209:\n        /* \"#utility.yul\":11003:11036   */\n      0x57616c6c65742061646472657373206973206e6f7420612066756e6465722e00\n        /* \"#utility.yul\":10999:11000   */\n      0x00\n        /* \"#utility.yul\":10991:10997   */\n      dup3\n        /* \"#utility.yul\":10987:11001   */\n      add\n        /* \"#utility.yul\":10980:11037   */\n      mstore\n        /* \"#utility.yul\":10863:11044   */\n      pop\n      jump\t// out\n        /* \"#utility.yul\":11050:11416   */\n    tag_210:\n        /* \"#utility.yul\":11192:11195   */\n      0x00\n        /* \"#utility.yul\":11213:11280   */\n      tag_327\n        /* \"#utility.yul\":11277:11279   */\n      0x1f\n        /* \"#utility.yul\":11272:11275   */\n      dup4\n        /* \"#utility.yul\":11213:11280   */\n      tag_193\n      jump\t// in\n    tag_327:\n        /* \"#utility.yul\":11206:11280   */\n      swap2\n      pop\n        /* \"#utility.yul\":11289:11382   */\n      tag_328\n        /* \"#utility.yul\":11378:11381   */\n      dup3\n        /* \"#utility.yul\":11289:11382   */\n      tag_209\n      jump\t// in\n    tag_328:\n        /* \"#utility.yul\":11407:11409   */\n      0x20\n        /* \"#utility.yul\":11402:11405   */\n      dup3\n        /* \"#utility.yul\":11398:11410   */\n      add\n        /* \"#utility.yul\":11391:11410   */\n      swap1\n      pop\n        /* \"#utility.yul\":11050:11416   */\n      swap2\n      swap1\n      pop\n      jump\t// out\n        /* \"#utility.yul\":11422:11841   */\n    tag_129:\n        /* \"#utility.yul\":11588:11592   */\n      0x00\n        /* \"#utility.yul\":11626:11628   */\n      0x20\n        /* \"#utility.yul\":11615:11624   */\n      dup3\n        /* \"#utility.yul\":11611:11629   */\n      add\n        /* \"#utility.yul\":11603:11629   */\n      swap1\n      pop\n        /* \"#utility.yul\":11675:11684   */\n      dup2\n        /* \"#utility.yul\":11669:11673   */\n      dup2\n        /* \"#utility.yul\":11665:11685   */\n      sub\n        /* \"#utility.yul\":11661:11662   */\n      0x00\n        /* \"#utility.yul\":11650:11659   */\n      dup4\n        /* \"#utility.yul\":11646:11663   */\n      add\n        /* \"#utility.yul\":11639:11686   */\n      mstore\n        /* \"#utility.yul\":11703:11834   */\n      tag_330\n        /* \"#utility.yul\":11829:11833   */\n      dup2\n        /* \"#utility.yul\":11703:11834   */\n      tag_210\n      jump\t// in\n    tag_330:\n        /* \"#utility.yul\":11695:11834   */\n      swap1\n      pop\n        /* \"#utility.yul\":11422:11841   */\n      swap2\n      swap1\n      pop\n      jump\t// out\n        /* \"#utility.yul\":11847:12041   */\n    tag_131:\n        /* \"#utility.yul\":11887:11891   */\n      0x00\n        /* \"#utility.yul\":11907:11927   */\n      tag_332\n        /* \"#utility.yul\":11925:11926   */\n      dup3\n        /* \"#utility.yul\":11907:11927   */\n      tag_186\n      jump\t// in\n    tag_332:\n        /* \"#utility.yul\":11902:11927   */\n      swap2\n      pop\n        /* \"#utility.yul\":11941:11961   */\n      tag_333\n        /* \"#utility.yul\":11959:11960   */\n      dup4\n        /* \"#utility.yul\":11941:11961   */\n      tag_186\n      jump\t// in\n    tag_333:\n        /* \"#utility.yul\":11936:11961   */\n      swap3\n      pop\n        /* \"#utility.yul\":11985:11986   */\n      dup3\n        /* \"#utility.yul\":11982:11983   */\n      dup3\n        /* \"#utility.yul\":11978:11987   */\n      sub\n        /* \"#utility.yul\":11970:11987   */\n      swap1\n      pop\n        /* \"#utility.yul\":12009:12010   */\n      dup2\n        /* \"#utility.yul\":12003:12007   */\n      dup2\n        /* \"#utility.yul\":12000:12011   */\n      gt\n        /* \"#utility.yul\":11997:12034   */\n      iszero\n      tag_334\n      jumpi\n        /* \"#utility.yul\":12014:12032   */\n      tag_335\n      tag_196\n      jump\t// in\n    tag_335:\n        /* \"#utility.yul\":11997:12034   */\n    tag_334:\n        /* \"#utility.yul\":11847:12041   */\n      swap3\n      swap2\n      pop\n      pop\n      jump\t// out\n        /* \"#utility.yul\":12047:12152   */\n    tag_211:\n        /* \"#utility.yul\":12083:12090   */\n      0x00\n        /* \"#utility.yul\":12123:12145   */\n      0xffffffffffffffffffff\n        /* \"#utility.yul\":12116:12121   */\n      dup3\n        /* \"#utility.yul\":12112:12146   */\n      and\n        /* \"#utility.yul\":12101:12146   */\n      swap1\n      pop\n        /* \"#utility.yul\":12047:12152   */\n      swap2\n      swap1\n      pop\n      jump\t// out\n        /* \"#utility.yul\":12158:12278   */\n    tag_212:\n        /* \"#utility.yul\":12230:12253   */\n      tag_338\n        /* \"#utility.yul\":12247:12252   */\n      dup2\n        /* \"#utility.yul\":12230:12253   */\n      tag_211\n      jump\t// in\n    tag_338:\n        /* \"#utility.yul\":12223:12228   */\n      dup2\n        /* \"#utility.yul\":12220:12254   */\n      eq\n        /* \"#utility.yul\":12210:12272   */\n      tag_339\n      jumpi\n        /* \"#utility.yul\":12268:12269   */\n      0x00\n        /* \"#utility.yul\":12265:12266   */\n      dup1\n        /* \"#utility.yul\":12258:12270   */\n      revert\n        /* \"#utility.yul\":12210:12272   */\n    tag_339:\n        /* \"#utility.yul\":12158:12278   */\n      pop\n      jump\t// out\n        /* \"#utility.yul\":12284:12425   */\n    tag_213:\n        /* \"#utility.yul\":12340:12345   */\n      0x00\n        /* \"#utility.yul\":12371:12377   */\n      dup2\n        /* \"#utility.yul\":12365:12378   */\n      mload\n        /* \"#utility.yul\":12356:12378   */\n      swap1\n      pop\n        /* \"#utility.yul\":12387:12419   */\n      tag_341\n        /* \"#utility.yul\":12413:12418   */\n      dup2\n        /* \"#utility.yul\":12387:12419   */\n      tag_212\n      jump\t// in\n    tag_341:\n        /* \"#utility.yul\":12284:12425   */\n      swap3\n      swap2\n      pop\n      pop\n      jump\t// out\n        /* \"#utility.yul\":12431:12507   */\n    tag_214:\n        /* \"#utility.yul\":12467:12474   */\n      0x00\n        /* \"#utility.yul\":12496:12501   */\n      dup2\n        /* \"#utility.yul\":12485:12501   */\n      swap1\n      pop\n        /* \"#utility.yul\":12431:12507   */\n      swap2\n      swap1\n      pop\n      jump\t// out\n        /* \"#utility.yul\":12513:12633   */\n    tag_215:\n        /* \"#utility.yul\":12585:12608   */\n      tag_344\n        /* \"#utility.yul\":12602:12607   */\n      dup2\n        /* \"#utility.yul\":12585:12608   */\n      tag_214\n      jump\t// in\n    tag_344:\n        /* \"#utility.yul\":12578:12583   */\n      dup2\n        /* \"#utility.yul\":12575:12609   */\n      eq\n        /* \"#utility.yul\":12565:12627   */\n      tag_345\n      jumpi\n        /* \"#utility.yul\":12623:12624   */\n      0x00\n        /* \"#utility.yul\":12620:12621   */\n      dup1\n        /* \"#utility.yul\":12613:12625   */\n      revert\n        /* \"#utility.yul\":12565:12627   */\n    tag_345:\n        /* \"#utility.yul\":12513:12633   */\n      pop\n      jump\t// out\n        /* \"#utility.yul\":12639:12780   */\n    tag_216:\n        /* \"#utility.yul\":12695:12700   */\n      0x00\n        /* \"#utility.yul\":12726:12732   */\n      dup2\n        /* \"#utility.yul\":12720:12733   */\n      mload\n        /* \"#utility.yul\":12711:12733   */\n      swap1\n      pop\n        /* \"#utility.yul\":12742:12774   */\n      tag_347\n        /* \"#utility.yul\":12768:12773   */\n      dup2\n        /* \"#utility.yul\":12742:12774   */\n      tag_215\n      jump\t// in\n    tag_347:\n        /* \"#utility.yul\":12639:12780   */\n      swap3\n      swap2\n      pop\n      pop\n      jump\t// out\n        /* \"#utility.yul\":12786:12929   */\n    tag_217:\n        /* \"#utility.yul\":12843:12848   */\n      0x00\n        /* \"#utility.yul\":12874:12880   */\n      dup2\n        /* \"#utility.yul\":12868:12881   */\n      mload\n        /* \"#utility.yul\":12859:12881   */\n      swap1\n      pop\n        /* \"#utility.yul\":12890:12923   */\n      tag_349\n        /* \"#utility.yul\":12917:12922   */\n      dup2\n        /* \"#utility.yul\":12890:12923   */\n      tag_188\n      jump\t// in\n    tag_349:\n        /* \"#utility.yul\":12786:12929   */\n      swap3\n      swap2\n      pop\n      pop\n      jump\t// out\n        /* \"#utility.yul\":12935:13906   */\n    tag_144:\n        /* \"#utility.yul\":13038:13044   */\n      0x00\n        /* \"#utility.yul\":13046:13052   */\n      dup1\n        /* \"#utility.yul\":13054:13060   */\n      0x00\n        /* \"#utility.yul\":13062:13068   */\n      dup1\n        /* \"#utility.yul\":13070:13076   */\n      0x00\n        /* \"#utility.yul\":13119:13122   */\n      0xa0\n        /* \"#utility.yul\":13107:13116   */\n      dup7\n        /* \"#utility.yul\":13098:13105   */\n      dup9\n        /* \"#utility.yul\":13094:13117   */\n      sub\n        /* \"#utility.yul\":13090:13123   */\n      slt\n        /* \"#utility.yul\":13087:13207   */\n      iszero\n      tag_351\n      jumpi\n        /* \"#utility.yul\":13126:13205   */\n      tag_352\n      tag_180\n      jump\t// in\n    tag_352:\n        /* \"#utility.yul\":13087:13207   */\n    tag_351:\n        /* \"#utility.yul\":13246:13247   */\n      0x00\n        /* \"#utility.yul\":13271:13334   */\n      tag_353\n        /* \"#utility.yul\":13326:13333   */\n      dup9\n        /* \"#utility.yul\":13317:13323   */\n      dup3\n        /* \"#utility.yul\":13306:13315   */\n      dup10\n        /* \"#utility.yul\":13302:13324   */\n      add\n        /* \"#utility.yul\":13271:13334   */\n      tag_213\n      jump\t// in\n    tag_353:\n        /* \"#utility.yul\":13261:13334   */\n      swap6\n      pop\n        /* \"#utility.yul\":13217:13344   */\n      pop\n        /* \"#utility.yul\":13383:13385   */\n      0x20\n        /* \"#utility.yul\":13409:13472   */\n      tag_354\n        /* \"#utility.yul\":13464:13471   */\n      dup9\n        /* \"#utility.yul\":13455:13461   */\n      dup3\n        /* \"#utility.yul\":13444:13453   */\n      dup10\n        /* \"#utility.yul\":13440:13462   */\n      add\n        /* \"#utility.yul\":13409:13472   */\n      tag_216\n      jump\t// in\n    tag_354:\n        /* \"#utility.yul\":13399:13472   */\n      swap5\n      pop\n        /* \"#utility.yul\":13354:13482   */\n      pop\n        /* \"#utility.yul\":13521:13523   */\n      0x40\n        /* \"#utility.yul\":13547:13611   */\n      tag_355\n        /* \"#utility.yul\":13603:13610   */\n      dup9\n        /* \"#utility.yul\":13594:13600   */\n      dup3\n        /* \"#utility.yul\":13583:13592   */\n      dup10\n        /* \"#utility.yul\":13579:13601   */\n      add\n        /* \"#utility.yul\":13547:13611   */\n      tag_217\n      jump\t// in\n    tag_355:\n        /* \"#utility.yul\":13537:13611   */\n      swap4\n      pop\n        /* \"#utility.yul\":13492:13621   */\n      pop\n        /* \"#utility.yul\":13660:13662   */\n      0x60\n        /* \"#utility.yul\":13686:13750   */\n      tag_356\n        /* \"#utility.yul\":13742:13749   */\n      dup9\n        /* \"#utility.yul\":13733:13739   */\n      dup3\n        /* \"#utility.yul\":13722:13731   */\n      dup10\n        /* \"#utility.yul\":13718:13740   */\n      add\n        /* \"#utility.yul\":13686:13750   */\n      tag_217\n      jump\t// in\n    tag_356:\n        /* \"#utility.yul\":13676:13750   */\n      swap3\n      pop\n        /* \"#utility.yul\":13631:13760   */\n      pop\n        /* \"#utility.yul\":13799:13802   */\n      0x80\n        /* \"#utility.yul\":13826:13889   */\n      tag_357\n        /* \"#utility.yul\":13881:13888   */\n      dup9\n        /* \"#utility.yul\":13872:13878   */\n      dup3\n        /* \"#utility.yul\":13861:13870   */\n      dup10\n        /* \"#utility.yul\":13857:13879   */\n      add\n        /* \"#utility.yul\":13826:13889   */\n      tag_213\n      jump\t// in\n    tag_357:\n        /* \"#utility.yul\":13816:13889   */\n      swap2\n      pop\n        /* \"#utility.yul\":13770:13899   */\n      pop\n        /* \"#utility.yul\":12935:13906   */\n      swap3\n      swap6\n      pop\n      swap3\n      swap6\n      swap1\n      swap4\n      pop\n      jump\t// out\n        /* \"#utility.yul\":13912:14089   */\n    tag_218:\n        /* \"#utility.yul\":14052:14081   */\n      0x4e65676174697665207072696365206e6f7420616c6c6f7765642e0000000000\n        /* \"#utility.yul\":14048:14049   */\n      0x00\n        /* \"#utility.yul\":14040:14046   */\n      dup3\n        /* \"#utility.yul\":14036:14050   */\n      add\n        /* \"#utility.yul\":14029:14082   */\n      mstore\n        /* \"#utility.yul\":13912:14089   */\n      pop\n      jump\t// out\n        /* \"#utility.yul\":14095:14461   */\n    tag_219:\n        /* \"#utility.yul\":14237:14240   */\n      0x00\n        /* \"#utility.yul\":14258:14325   */\n      tag_360\n        /* \"#utility.yul\":14322:14324   */\n      0x1b\n        /* \"#utility.yul\":14317:14320   */\n      dup4\n        /* \"#utility.yul\":14258:14325   */\n      tag_193\n      jump\t// in\n    tag_360:\n        /* \"#utility.yul\":14251:14325   */\n      swap2\n      pop\n        /* \"#utility.yul\":14334:14427   */\n      tag_361\n        /* \"#utility.yul\":14423:14426   */\n      dup3\n        /* \"#utility.yul\":14334:14427   */\n      tag_218\n      jump\t// in\n    tag_361:\n        /* \"#utility.yul\":14452:14454   */\n      0x20\n        /* \"#utility.yul\":14447:14450   */\n      dup3\n        /* \"#utility.yul\":14443:14455   */\n      add\n        /* \"#utility.yul\":14436:14455   */\n      swap1\n      pop\n        /* \"#utility.yul\":14095:14461   */\n      swap2\n      swap1\n      pop\n      jump\t// out\n        /* \"#utility.yul\":14467:14886   */\n    tag_147:\n        /* \"#utility.yul\":14633:14637   */\n      0x00\n        /* \"#utility.yul\":14671:14673   */\n      0x20\n        /* \"#utility.yul\":14660:14669   */\n      dup3\n        /* \"#utility.yul\":14656:14674   */\n      add\n        /* \"#utility.yul\":14648:14674   */\n      swap1\n      pop\n        /* \"#utility.yul\":14720:14729   */\n      dup2\n        /* \"#utility.yul\":14714:14718   */\n      dup2\n        /* \"#utility.yul\":14710:14730   */\n      sub\n        /* \"#utility.yul\":14706:14707   */\n      0x00\n        /* \"#utility.yul\":14695:14704   */\n      dup4\n        /* \"#utility.yul\":14691:14708   */\n      add\n        /* \"#utility.yul\":14684:14731   */\n      mstore\n        /* \"#utility.yul\":14748:14879   */\n      tag_363\n        /* \"#utility.yul\":14874:14878   */\n      dup2\n        /* \"#utility.yul\":14748:14879   */\n      tag_219\n      jump\t// in\n    tag_363:\n        /* \"#utility.yul\":14740:14879   */\n      swap1\n      pop\n        /* \"#utility.yul\":14467:14886   */\n      swap2\n      swap1\n      pop\n      jump\t// out\n        /* \"#utility.yul\":14892:15184   */\n    tag_220:\n        /* \"#utility.yul\":15032:15066   */\n      0x4f6e6c7920746865206f776e6572206f662074686520636f6e74726163742063\n        /* \"#utility.yul\":15028:15029   */\n      0x00\n        /* \"#utility.yul\":15020:15026   */\n      dup3\n        /* \"#utility.yul\":15016:15030   */\n      add\n        /* \"#utility.yul\":15009:15067   */\n      mstore\n        /* \"#utility.yul\":15101:15135   */\n      0x616e206368616e676520746865206d696e696d756d20616d6f756e74206f6620\n        /* \"#utility.yul\":15096:15098   */\n      0x20\n        /* \"#utility.yul\":15088:15094   */\n      dup3\n        /* \"#utility.yul\":15084:15099   */\n      add\n        /* \"#utility.yul\":15077:15136   */\n      mstore\n        /* \"#utility.yul\":15170:15176   */\n      0x5553442e00000000000000000000000000000000000000000000000000000000\n        /* \"#utility.yul\":15165:15167   */\n      0x40\n        /* \"#utility.yul\":15157:15163   */\n      dup3\n        /* \"#utility.yul\":15153:15168   */\n      add\n        /* \"#utility.yul\":15146:15177   */\n      mstore\n        /* \"#utility.yul\":14892:15184   */\n      pop\n      jump\t// out\n        /* \"#utility.yul\":15190:15556   */\n    tag_221:\n        /* \"#utility.yul\":15332:15335   */\n      0x00\n        /* \"#utility.yul\":15353:15420   */\n      tag_366\n        /* \"#utility.yul\":15417:15419   */\n      0x44\n        /* \"#utility.yul\":15412:15415   */\n      dup4\n        /* \"#utility.yul\":15353:15420   */\n      tag_193\n      jump\t// in\n    tag_366:\n        /* \"#utility.yul\":15346:15420   */\n      swap2\n      pop\n        /* \"#utility.yul\":15429:15522   */\n      tag_367\n        /* \"#utility.yul\":15518:15521   */\n      dup3\n        /* \"#utility.yul\":15429:15522   */\n      tag_220\n      jump\t// in\n    tag_367:\n        /* \"#utility.yul\":15547:15549   */\n      0x60\n        /* \"#utility.yul\":15542:15545   */\n      dup3\n        /* \"#utility.yul\":15538:15550   */\n      add\n        /* \"#utility.yul\":15531:15550   */\n      swap1\n      pop\n        /* \"#utility.yul\":15190:15556   */\n      swap2\n      swap1\n      pop\n      jump\t// out\n        /* \"#utility.yul\":15562:15981   */\n    tag_153:\n        /* \"#utility.yul\":15728:15732   */\n      0x00\n        /* \"#utility.yul\":15766:15768   */\n      0x20\n        /* \"#utility.yul\":15755:15764   */\n      dup3\n        /* \"#utility.yul\":15751:15769   */\n      add\n        /* \"#utility.yul\":15743:15769   */\n      swap1\n      pop\n        /* \"#utility.yul\":15815:15824   */\n      dup2\n        /* \"#utility.yul\":15809:15813   */\n      dup2\n        /* \"#utility.yul\":15805:15825   */\n      sub\n        /* \"#utility.yul\":15801:15802   */\n      0x00\n        /* \"#utility.yul\":15790:15799   */\n      dup4\n        /* \"#utility.yul\":15786:15803   */\n      add\n        /* \"#utility.yul\":15779:15826   */\n      mstore\n        /* \"#utility.yul\":15843:15974   */\n      tag_369\n        /* \"#utility.yul\":15969:15973   */\n      dup2\n        /* \"#utility.yul\":15843:15974   */\n      tag_221\n      jump\t// in\n    tag_369:\n        /* \"#utility.yul\":15835:15974   */\n      swap1\n      pop\n        /* \"#utility.yul\":15562:15981   */\n      swap2\n      swap1\n      pop\n      jump\t// out\n        /* \"#utility.yul\":15987:16230   */\n    tag_222:\n        /* \"#utility.yul\":16127:16161   */\n      0x43616e6e6f74206368616e6765207468652076616c7565206f66206d696e696d\n        /* \"#utility.yul\":16123:16124   */\n      0x00\n        /* \"#utility.yul\":16115:16121   */\n      dup3\n        /* \"#utility.yul\":16111:16125   */\n      add\n        /* \"#utility.yul\":16104:16162   */\n      mstore\n        /* \"#utility.yul\":16196:16222   */\n      0x756d55736420746f207468652073616d652076616c75652e0000000000000000\n        /* \"#utility.yul\":16191:16193   */\n      0x20\n        /* \"#utility.yul\":16183:16189   */\n      dup3\n        /* \"#utility.yul\":16179:16194   */\n      add\n        /* \"#utility.yul\":16172:16223   */\n      mstore\n        /* \"#utility.yul\":15987:16230   */\n      pop\n      jump\t// out\n        /* \"#utility.yul\":16236:16602   */\n    tag_223:\n        /* \"#utility.yul\":16378:16381   */\n      0x00\n        /* \"#utility.yul\":16399:16466   */\n      tag_372\n        /* \"#utility.yul\":16463:16465   */\n      0x38\n        /* \"#utility.yul\":16458:16461   */\n      dup4\n        /* \"#utility.yul\":16399:16466   */\n      tag_193\n      jump\t// in\n    tag_372:\n        /* \"#utility.yul\":16392:16466   */\n      swap2\n      pop\n        /* \"#utility.yul\":16475:16568   */\n      tag_373\n        /* \"#utility.yul\":16564:16567   */\n      dup3\n        /* \"#utility.yul\":16475:16568   */\n      tag_222\n      jump\t// in\n    tag_373:\n        /* \"#utility.yul\":16593:16595   */\n      0x40\n        /* \"#utility.yul\":16588:16591   */\n      dup3\n        /* \"#utility.yul\":16584:16596   */\n      add\n        /* \"#utility.yul\":16577:16596   */\n      swap1\n      pop\n        /* \"#utility.yul\":16236:16602   */\n      swap2\n      swap1\n      pop\n      jump\t// out\n        /* \"#utility.yul\":16608:17027   */\n    tag_157:\n        /* \"#utility.yul\":16774:16778   */\n      0x00\n        /* \"#utility.yul\":16812:16814   */\n      0x20\n        /* \"#utility.yul\":16801:16810   */\n      dup3\n        /* \"#utility.yul\":16797:16815   */\n      add\n        /* \"#utility.yul\":16789:16815   */\n      swap1\n      pop\n        /* \"#utility.yul\":16861:16870   */\n      dup2\n        /* \"#utility.yul\":16855:16859   */\n      dup2\n        /* \"#utility.yul\":16851:16871   */\n      sub\n        /* \"#utility.yul\":16847:16848   */\n      0x00\n        /* \"#utility.yul\":16836:16845   */\n      dup4\n        /* \"#utility.yul\":16832:16849   */\n      add\n        /* \"#utility.yul\":16825:16872   */\n      mstore\n        /* \"#utility.yul\":16889:17020   */\n      tag_375\n        /* \"#utility.yul\":17015:17019   */\n      dup2\n        /* \"#utility.yul\":16889:17020   */\n      tag_223\n      jump\t// in\n    tag_375:\n        /* \"#utility.yul\":16881:17020   */\n      swap1\n      pop\n        /* \"#utility.yul\":16608:17027   */\n      swap2\n      swap1\n      pop\n      jump\t// out\n        /* \"#utility.yul\":17033:17213   */\n    tag_164:\n        /* \"#utility.yul\":17081:17158   */\n      0x4e487b7100000000000000000000000000000000000000000000000000000000\n        /* \"#utility.yul\":17078:17079   */\n      0x00\n        /* \"#utility.yul\":17071:17159   */\n      mstore\n        /* \"#utility.yul\":17178:17182   */\n      0x32\n        /* \"#utility.yul\":17175:17176   */\n      0x04\n        /* \"#utility.yul\":17168:17183   */\n      mstore\n        /* \"#utility.yul\":17202:17206   */\n      0x24\n        /* \"#utility.yul\":17199:17200   */\n      0x00\n        /* \"#utility.yul\":17192:17207   */\n      revert\n        /* \"#utility.yul\":17219:17399   */\n    tag_173:\n        /* \"#utility.yul\":17267:17344   */\n      0x4e487b7100000000000000000000000000000000000000000000000000000000\n        /* \"#utility.yul\":17264:17265   */\n      0x00\n        /* \"#utility.yul\":17257:17345   */\n      mstore\n        /* \"#utility.yul\":17364:17368   */\n      0x31\n        /* \"#utility.yul\":17361:17362   */\n      0x04\n        /* \"#utility.yul\":17354:17369   */\n      mstore\n        /* \"#utility.yul\":17388:17392   */\n      0x24\n        /* \"#utility.yul\":17385:17386   */\n      0x00\n        /* \"#utility.yul\":17378:17393   */\n      revert\n        /* \"#utility.yul\":17405:17520   */\n    tag_224:\n        /* \"#utility.yul\":17490:17513   */\n      tag_379\n        /* \"#utility.yul\":17507:17512   */\n      dup2\n        /* \"#utility.yul\":17490:17513   */\n      tag_214\n      jump\t// in\n    tag_379:\n        /* \"#utility.yul\":17485:17488   */\n      dup3\n        /* \"#utility.yul\":17478:17514   */\n      mstore\n        /* \"#utility.yul\":17405:17520   */\n      pop\n      pop\n      jump\t// out\n        /* \"#utility.yul\":17526:17744   */\n    tag_178:\n        /* \"#utility.yul\":17617:17621   */\n      0x00\n        /* \"#utility.yul\":17655:17657   */\n      0x20\n        /* \"#utility.yul\":17644:17653   */\n      dup3\n        /* \"#utility.yul\":17640:17658   */\n      add\n        /* \"#utility.yul\":17632:17658   */\n      swap1\n      pop\n        /* \"#utility.yul\":17668:17737   */\n      tag_381\n        /* \"#utility.yul\":17734:17735   */\n      0x00\n        /* \"#utility.yul\":17723:17732   */\n      dup4\n        /* \"#utility.yul\":17719:17736   */\n      add\n        /* \"#utility.yul\":17710:17716   */\n      dup5\n        /* \"#utility.yul\":17668:17737   */\n      tag_224\n      jump\t// in\n    tag_381:\n        /* \"#utility.yul\":17526:17744   */\n      swap3\n      swap2\n      pop\n      pop\n      jump\t// out\n\n    auxdata: 0xa2646970667358221220a97a031640f89f7bef84cd4bbdcfa0452eb9204525ef0849645f2afc36f1929f64736f6c634300081a0033\n}\n",
				"bytecode": {
					"linkReferences": {},
					"object": "6080604052348015600e575f80fd5b50335f60016101000a81548173ffffffffffffffffffffffffffffffffffffffff021916908373ffffffffffffffffffffffffffffffffffffffff160217905550631dcd6500600181905550611943806100675f395ff3fe6080604052600436106100c5575f3560e01c80638da5cb5b1161007e578063cc3b589e11610058578063cc3b589e1461022c578063d78a29d214610268578063dc0d3dff14610290578063f8024578146102cc576100d4565b80638da5cb5b146101ce57806398d5fdca146101f8578063b60d428814610222576100d4565b8063034855c7146100d8578063098de820146101145780633e9f607c1461013e578063455fd6231461017a5780635eb8d90b1461019057806371d2ee6c146101a6576100d4565b366100d4576100d2610308565b005b5f80fd5b3480156100e3575f80fd5b506100fe60048036038101906100f9919061105c565b610507565b60405161010b919061109f565b60405180910390f35b34801561011f575f80fd5b5061012861051c565b604051610135919061109f565b60405180910390f35b348015610149575f80fd5b50610164600480360381019061015f91906110e2565b610522565b604051610171919061109f565b60405180910390f35b348015610185575f80fd5b5061018e61054a565b005b34801561019b575f80fd5b506101a461074d565b005b3480156101b1575f80fd5b506101cc60048036038101906101c79190611120565b61088e565b005b3480156101d9575f80fd5b506101e2610af4565b6040516101ef919061115a565b60405180910390f35b348015610203575f80fd5b5061020c610b19565b604051610219919061109f565b60405180910390f35b61022a610308565b005b348015610237575f80fd5b50610252600480360381019061024d919061105c565b610bf3565b60405161025f919061109f565b60405180910390f35b348015610273575f80fd5b5061028e60048036038101906102899190611120565b610c08565b005b34801561029b575f80fd5b506102b660048036038101906102b19190611120565b610cf9565b6040516102c3919061115a565b60405180910390f35b3480156102d7575f80fd5b506102f260048036038101906102ed919061105c565b610d34565b6040516102ff919061118d565b60405180910390f35b5f610311610b19565b90505f61031e8234610522565b9050600154811015610365576040517f08c379a000000000000000000000000000000000000000000000000000000000815260040161035c90611200565b60405180910390fd5b60045f3373ffffffffffffffffffffffffffffffffffffffff1673ffffffffffffffffffffffffffffffffffffffff1681526020019081526020015f205f9054906101000a900460ff166104b05760028054905060035f3373ffffffffffffffffffffffffffffffffffffffff1673ffffffffffffffffffffffffffffffffffffffff1681526020019081526020015f2081905550600233908060018154018082558091505060019003905f5260205f20015f9091909190916101000a81548173ffffffffffffffffffffffffffffffffffffffff021916908373ffffffffffffffffffffffffffffffffffffffff160217905550600160045f3373ffffffffffffffffffffffffffffffffffffffff1673ffffffffffffffffffffffffffffffffffffffff1681526020019081526020015f205f6101000a81548160ff0219169083151502179055505b3460055f3373ffffffffffffffffffffffffffffffffffffffff1673ffffffffffffffffffffffffffffffffffffffff1681526020019081526020015f205f8282546104fc919061124b565b925050819055505050565b6005602052805f5260405f205f915090505481565b60015481565b5f670de0b6b3a76400008284610538919061127e565b61054291906112ec565b905092915050565b5f15155f8054906101000a900460ff1615151461059c576040517f08c379a00000000000000000000000000000000000000000000000000000000081526004016105939061138c565b60405180910390fd5b60015f806101000a81548160ff0219169083151502179055505f60055f3373ffffffffffffffffffffffffffffffffffffffff1673ffffffffffffffffffffffffffffffffffffffff1681526020019081526020015f205490505f8111610638576040517f08c379a000000000000000000000000000000000000000000000000000000000815260040161062f906113f4565b60405180910390fd5b5f60055f3373ffffffffffffffffffffffffffffffffffffffff1673ffffffffffffffffffffffffffffffffffffffff1681526020019081526020015f20819055505f3373ffffffffffffffffffffffffffffffffffffffff168260405161069f9061143f565b5f6040518083038185875af1925050503d805f81146106d9576040519150601f19603f3d011682016040523d82523d5f602084013e6106de565b606091505b505090506001151581151514610729576040517f08c379a00000000000000000000000000000000000000000000000000000000081526004016107209061149d565b60405180910390fd5b610731610d51565b50505f805f6101000a81548160ff021916908315150217905550565b5f60019054906101000a900473ffffffffffffffffffffffffffffffffffffffff1673ffffffffffffffffffffffffffffffffffffffff163373ffffffffffffffffffffffffffffffffffffffff16146107dc576040517f08c379a00000000000000000000000000000000000000000000000000000000081526004016107d39061152b565b60405180910390fd5b5f3373ffffffffffffffffffffffffffffffffffffffff16476040516108019061143f565b5f6040518083038185875af1925050503d805f811461083b576040519150601f19603f3d011682016040523d82523d5f602084013e610840565b606091505b50509050600115158115151461088b576040517f08c379a00000000000000000000000000000000000000000000000000000000081526004016108829061149d565b60405180910390fd5b50565b5f15155f8054906101000a900460ff161515146108e0576040517f08c379a00000000000000000000000000000000000000000000000000000000081526004016108d79061138c565b60405180910390fd5b60015f806101000a81548160ff0219169083151502179055506001151560045f3373ffffffffffffffffffffffffffffffffffffffff1673ffffffffffffffffffffffffffffffffffffffff1681526020019081526020015f205f9054906101000a900460ff16151514610989576040517f08c379a000000000000000000000000000000000000000000000000000000000815260040161098090611593565b60405180910390fd5b8060055f3373ffffffffffffffffffffffffffffffffffffffff1673ffffffffffffffffffffffffffffffffffffffff1681526020019081526020015f205f8282546109d591906115b1565b925050819055505f3373ffffffffffffffffffffffffffffffffffffffff1682604051610a019061143f565b5f6040518083038185875af1925050503d805f8114610a3b576040519150601f19603f3d011682016040523d82523d5f602084013e610a40565b606091505b505090506001151581151514610a8b576040517f08c379a0000000000000000000000000000000000000000000000000000000008152600401610a829061149d565b60405180910390fd5b5f60055f3373ffffffffffffffffffffffffffffffffffffffff1673ffffffffffffffffffffffffffffffffffffffff1681526020019081526020015f205411610ad857610ad7610d51565b5b505f805f6101000a81548160ff02191690831515021790555050565b5f60019054906101000a900473ffffffffffffffffffffffffffffffffffffffff1681565b5f8073694aa1769357215de4fac081bf1f309adc32530673ffffffffffffffffffffffffffffffffffffffff1663feaf968c6040518163ffffffff1660e01b815260040160a060405180830381865afa158015610b78573d5f803e3d5ffd5b505050506040513d601f19601f82011682018060405250810190610b9c919061166a565b5050509150505f8113610be4576040517f08c379a0000000000000000000000000000000000000000000000000000000008152600401610bdb9061172b565b60405180910390fd5b610bed81610fb0565b91505090565b6003602052805f5260405f205f915090505481565b5f60019054906101000a900473ffffffffffffffffffffffffffffffffffffffff1673ffffffffffffffffffffffffffffffffffffffff163373ffffffffffffffffffffffffffffffffffffffff1614610c97576040517f08c379a0000000000000000000000000000000000000000000000000000000008152600401610c8e906117df565b60405180910390fd5b5f6305f5e10082610ca8919061127e565b90506001548103610cee576040517f08c379a0000000000000000000000000000000000000000000000000000000008152600401610ce59061186d565b60405180910390fd5b806001819055505050565b60028181548110610d08575f80fd5b905f5260205f20015f915054906101000a900473ffffffffffffffffffffffffffffffffffffffff1681565b6004602052805f5260405f205f915054906101000a900460ff1681565b5f60026001600280549050610d6691906115b1565b81548110610d7757610d7661188b565b5b905f5260205f20015f9054906101000a900473ffffffffffffffffffffffffffffffffffffffff1690505f60035f3373ffffffffffffffffffffffffffffffffffffffff1673ffffffffffffffffffffffffffffffffffffffff1681526020019081526020015f205490506001600280549050610df491906115b1565b60035f3373ffffffffffffffffffffffffffffffffffffffff1673ffffffffffffffffffffffffffffffffffffffff1681526020019081526020015f205414610ed4578160028281548110610e4c57610e4b61188b565b5b905f5260205f20015f6101000a81548173ffffffffffffffffffffffffffffffffffffffff021916908373ffffffffffffffffffffffffffffffffffffffff1602179055508060035f8473ffffffffffffffffffffffffffffffffffffffff1673ffffffffffffffffffffffffffffffffffffffff1681526020019081526020015f20819055505b6002805480610ee657610ee56118b8565b5b600190038181905f5260205f20015f6101000a81549073ffffffffffffffffffffffffffffffffffffffff0219169055905560035f3373ffffffffffffffffffffffffffffffffffffffff1673ffffffffffffffffffffffffffffffffffffffff1681526020019081526020015f205f90555f60045f3373ffffffffffffffffffffffffffffffffffffffff1673ffffffffffffffffffffffffffffffffffffffff1681526020019081526020015f205f6101000a81548160ff0219169083151502179055505050565b5f80821215610ff657816040517fa8ce4432000000000000000000000000000000000000000000000000000000008152600401610fed91906118f4565b60405180910390fd5b819050919050565b5f80fd5b5f73ffffffffffffffffffffffffffffffffffffffff82169050919050565b5f61102b82611002565b9050919050565b61103b81611021565b8114611045575f80fd5b50565b5f8135905061105681611032565b92915050565b5f6020828403121561107157611070610ffe565b5b5f61107e84828501611048565b91505092915050565b5f819050919050565b61109981611087565b82525050565b5f6020820190506110b25f830184611090565b92915050565b6110c181611087565b81146110cb575f80fd5b50565b5f813590506110dc816110b8565b92915050565b5f80604083850312156110f8576110f7610ffe565b5b5f611105858286016110ce565b9250506020611116858286016110ce565b9150509250929050565b5f6020828403121561113557611134610ffe565b5b5f611142848285016110ce565b91505092915050565b61115481611021565b82525050565b5f60208201905061116d5f83018461114b565b92915050565b5f8115159050919050565b61118781611173565b82525050565b5f6020820190506111a05f83018461117e565b92915050565b5f82825260208201905092915050565b7f6469646e27742073656e6420656e6f75676820555344000000000000000000005f82015250565b5f6111ea6016836111a6565b91506111f5826111b6565b602082019050919050565b5f6020820190508181035f830152611217816111de565b9050919050565b7f4e487b71000000000000000000000000000000000000000000000000000000005f52601160045260245ffd5b5f61125582611087565b915061126083611087565b92508282019050808211156112785761127761121e565b5b92915050565b5f61128882611087565b915061129383611087565b92508282026112a181611087565b915082820484148315176112b8576112b761121e565b5b5092915050565b7f4e487b71000000000000000000000000000000000000000000000000000000005f52601260045260245ffd5b5f6112f682611087565b915061130183611087565b925082611311576113106112bf565b5b828204905092915050565b7f4e6f2072652d656e7472616e637920616c6c6f7765642c20706c6561736520745f8201527f727920616761696e2e0000000000000000000000000000000000000000000000602082015250565b5f6113766029836111a6565b91506113818261131c565b604082019050919050565b5f6020820190508181035f8301526113a38161136a565b9050919050565b7f496e73756666696369656e742062616c616e63650000000000000000000000005f82015250565b5f6113de6014836111a6565b91506113e9826113aa565b602082019050919050565b5f6020820190508181035f83015261140b816113d2565b9050919050565b5f81905092915050565b50565b5f61142a5f83611412565b91506114358261141c565b5f82019050919050565b5f6114498261141f565b9150819050919050565b7f5472616e73666572206661696c65642e000000000000000000000000000000005f82015250565b5f6114876010836111a6565b915061149282611453565b602082019050919050565b5f6020820190508181035f8301526114b48161147b565b9050919050565b7f4f6e6c79206f776e65722063616e2063616c6c20746869732066756e6374696f5f8201527f6e2e000000000000000000000000000000000000000000000000000000000000602082015250565b5f6115156022836111a6565b9150611520826114bb565b604082019050919050565b5f6020820190508181035f83015261154281611509565b9050919050565b7f57616c6c65742061646472657373206973206e6f7420612066756e6465722e005f82015250565b5f61157d601f836111a6565b915061158882611549565b602082019050919050565b5f6020820190508181035f8301526115aa81611571565b9050919050565b5f6115bb82611087565b91506115c683611087565b92508282039050818111156115de576115dd61121e565b5b92915050565b5f69ffffffffffffffffffff82169050919050565b611602816115e4565b811461160c575f80fd5b50565b5f8151905061161d816115f9565b92915050565b5f819050919050565b61163581611623565b811461163f575f80fd5b50565b5f815190506116508161162c565b92915050565b5f81519050611664816110b8565b92915050565b5f805f805f60a0868803121561168357611682610ffe565b5b5f6116908882890161160f565b95505060206116a188828901611642565b94505060406116b288828901611656565b93505060606116c388828901611656565b92505060806116d48882890161160f565b9150509295509295909350565b7f4e65676174697665207072696365206e6f7420616c6c6f7765642e00000000005f82015250565b5f611715601b836111a6565b9150611720826116e1565b602082019050919050565b5f6020820190508181035f83015261174281611709565b9050919050565b7f4f6e6c7920746865206f776e6572206f662074686520636f6e747261637420635f8201527f616e206368616e676520746865206d696e696d756d20616d6f756e74206f662060208201527f5553442e00000000000000000000000000000000000000000000000000000000604082015250565b5f6117c96044836111a6565b91506117d482611749565b606082019050919050565b5f6020820190508181035f8301526117f6816117bd565b9050919050565b7f43616e6e6f74206368616e6765207468652076616c7565206f66206d696e696d5f8201527f756d55736420746f207468652073616d652076616c75652e0000000000000000602082015250565b5f6118576038836111a6565b9150611862826117fd565b604082019050919050565b5f6020820190508181035f8301526118848161184b565b9050919050565b7f4e487b71000000000000000000000000000000000000000000000000000000005f52603260045260245ffd5b7f4e487b71000000000000000000000000000000000000000000000000000000005f52603160045260245ffd5b6118ee81611623565b82525050565b5f6020820190506119075f8301846118e5565b9291505056fea2646970667358221220a97a031640f89f7bef84cd4bbdcfa0452eb9204525ef0849645f2afc36f1929f64736f6c634300081a0033",
					"opcodes": "PUSH1 0x80 PUSH1 0x40 MSTORE CALLVALUE DUP1 ISZERO PUSH1 0xE JUMPI PUSH0 DUP1 REVERT JUMPDEST POP CALLER PUSH0 PUSH1 0x1 PUSH2 0x100 EXP DUP2 SLOAD DUP2 PUSH20 0xFFFFFFFFFFFFFFFFFFFFFFFFFFFFFFFFFFFFFFFF MUL NOT AND SWAP1 DUP4 PUSH20 0xFFFFFFFFFFFFFFFFFFFFFFFFFFFFFFFFFFFFFFFF AND MUL OR SWAP1 SSTORE POP PUSH4 0x1DCD6500 PUSH1 0x1 DUP2 SWAP1 SSTORE POP PUSH2 0x1943 DUP1 PUSH2 0x67 PUSH0 CODECOPY PUSH0 RETURN INVALID PUSH1 0x80 PUSH1 0x40 MSTORE PUSH1 0x4 CALLDATASIZE LT PUSH2 0xC5 JUMPI PUSH0 CALLDATALOAD PUSH1 0xE0 SHR DUP1 PUSH4 0x8DA5CB5B GT PUSH2 0x7E JUMPI DUP1 PUSH4 0xCC3B589E GT PUSH2 0x58 JUMPI DUP1 PUSH4 0xCC3B589E EQ PUSH2 0x22C JUMPI DUP1 PUSH4 0xD78A29D2 EQ PUSH2 0x268 JUMPI DUP1 PUSH4 0xDC0D3DFF EQ PUSH2 0x290 JUMPI DUP1 PUSH4 0xF8024578 EQ PUSH2 0x2CC JUMPI PUSH2 0xD4 JUMP JUMPDEST DUP1 PUSH4 0x8DA5CB5B EQ PUSH2 0x1CE JUMPI DUP1 PUSH4 0x98D5FDCA EQ PUSH2 0x1F8 JUMPI DUP1 PUSH4 0xB60D4288 EQ PUSH2 0x222 JUMPI PUSH2 0xD4 JUMP JUMPDEST DUP1 PUSH4 0x34855C7 EQ PUSH2 0xD8 JUMPI DUP1 PUSH4 0x98DE820 EQ PUSH2 0x114 JUMPI DUP1 PUSH4 0x3E9F607C EQ PUSH2 0x13E JUMPI DUP1 PUSH4 0x455FD623 EQ PUSH2 0x17A JUMPI DUP1 PUSH4 0x5EB8D90B EQ PUSH2 0x190 JUMPI DUP1 PUSH4 0x71D2EE6C EQ PUSH2 0x1A6 JUMPI PUSH2 0xD4 JUMP JUMPDEST CALLDATASIZE PUSH2 0xD4 JUMPI PUSH2 0xD2 PUSH2 0x308 JUMP JUMPDEST STOP JUMPDEST PUSH0 DUP1 REVERT JUMPDEST CALLVALUE DUP1 ISZERO PUSH2 0xE3 JUMPI PUSH0 DUP1 REVERT JUMPDEST POP PUSH2 0xFE PUSH1 0x4 DUP1 CALLDATASIZE SUB DUP2 ADD SWAP1 PUSH2 0xF9 SWAP2 SWAP1 PUSH2 0x105C JUMP JUMPDEST PUSH2 0x507 JUMP JUMPDEST PUSH1 0x40 MLOAD PUSH2 0x10B SWAP2 SWAP1 PUSH2 0x109F JUMP JUMPDEST PUSH1 0x40 MLOAD DUP1 SWAP2 SUB SWAP1 RETURN JUMPDEST CALLVALUE DUP1 ISZERO PUSH2 0x11F JUMPI PUSH0 DUP1 REVERT JUMPDEST POP PUSH2 0x128 PUSH2 0x51C JUMP JUMPDEST PUSH1 0x40 MLOAD PUSH2 0x135 SWAP2 SWAP1 PUSH2 0x109F JUMP JUMPDEST PUSH1 0x40 MLOAD DUP1 SWAP2 SUB SWAP1 RETURN JUMPDEST CALLVALUE DUP1 ISZERO PUSH2 0x149 JUMPI PUSH0 DUP1 REVERT JUMPDEST POP PUSH2 0x164 PUSH1 0x4 DUP1 CALLDATASIZE SUB DUP2 ADD SWAP1 PUSH2 0x15F SWAP2 SWAP1 PUSH2 0x10E2 JUMP JUMPDEST PUSH2 0x522 JUMP JUMPDEST PUSH1 0x40 MLOAD PUSH2 0x171 SWAP2 SWAP1 PUSH2 0x109F JUMP JUMPDEST PUSH1 0x40 MLOAD DUP1 SWAP2 SUB SWAP1 RETURN JUMPDEST CALLVALUE DUP1 ISZERO PUSH2 0x185 JUMPI PUSH0 DUP1 REVERT JUMPDEST POP PUSH2 0x18E PUSH2 0x54A JUMP JUMPDEST STOP JUMPDEST CALLVALUE DUP1 ISZERO PUSH2 0x19B JUMPI PUSH0 DUP1 REVERT JUMPDEST POP PUSH2 0x1A4 PUSH2 0x74D JUMP JUMPDEST STOP JUMPDEST CALLVALUE DUP1 ISZERO PUSH2 0x1B1 JUMPI PUSH0 DUP1 REVERT JUMPDEST POP PUSH2 0x1CC PUSH1 0x4 DUP1 CALLDATASIZE SUB DUP2 ADD SWAP1 PUSH2 0x1C7 SWAP2 SWAP1 PUSH2 0x1120 JUMP JUMPDEST PUSH2 0x88E JUMP JUMPDEST STOP JUMPDEST CALLVALUE DUP1 ISZERO PUSH2 0x1D9 JUMPI PUSH0 DUP1 REVERT JUMPDEST POP PUSH2 0x1E2 PUSH2 0xAF4 JUMP JUMPDEST PUSH1 0x40 MLOAD PUSH2 0x1EF SWAP2 SWAP1 PUSH2 0x115A JUMP JUMPDEST PUSH1 0x40 MLOAD DUP1 SWAP2 SUB SWAP1 RETURN JUMPDEST CALLVALUE DUP1 ISZERO PUSH2 0x203 JUMPI PUSH0 DUP1 REVERT JUMPDEST POP PUSH2 0x20C PUSH2 0xB19 JUMP JUMPDEST PUSH1 0x40 MLOAD PUSH2 0x219 SWAP2 SWAP1 PUSH2 0x109F JUMP JUMPDEST PUSH1 0x40 MLOAD DUP1 SWAP2 SUB SWAP1 RETURN JUMPDEST PUSH2 0x22A PUSH2 0x308 JUMP JUMPDEST STOP JUMPDEST CALLVALUE DUP1 ISZERO PUSH2 0x237 JUMPI PUSH0 DUP1 REVERT JUMPDEST POP PUSH2 0x252 PUSH1 0x4 DUP1 CALLDATASIZE SUB DUP2 ADD SWAP1 PUSH2 0x24D SWAP2 SWAP1 PUSH2 0x105C JUMP JUMPDEST PUSH2 0xBF3 JUMP JUMPDEST PUSH1 0x40 MLOAD PUSH2 0x25F SWAP2 SWAP1 PUSH2 0x109F JUMP JUMPDEST PUSH1 0x40 MLOAD DUP1 SWAP2 SUB SWAP1 RETURN JUMPDEST CALLVALUE DUP1 ISZERO PUSH2 0x273 JUMPI PUSH0 DUP1 REVERT JUMPDEST POP PUSH2 0x28E PUSH1 0x4 DUP1 CALLDATASIZE SUB DUP2 ADD SWAP1 PUSH2 0x289 SWAP2 SWAP1 PUSH2 0x1120 JUMP JUMPDEST PUSH2 0xC08 JUMP JUMPDEST STOP JUMPDEST CALLVALUE DUP1 ISZERO PUSH2 0x29B JUMPI PUSH0 DUP1 REVERT JUMPDEST POP PUSH2 0x2B6 PUSH1 0x4 DUP1 CALLDATASIZE SUB DUP2 ADD SWAP1 PUSH2 0x2B1 SWAP2 SWAP1 PUSH2 0x1120 JUMP JUMPDEST PUSH2 0xCF9 JUMP JUMPDEST PUSH1 0x40 MLOAD PUSH2 0x2C3 SWAP2 SWAP1 PUSH2 0x115A JUMP JUMPDEST PUSH1 0x40 MLOAD DUP1 SWAP2 SUB SWAP1 RETURN JUMPDEST CALLVALUE DUP1 ISZERO PUSH2 0x2D7 JUMPI PUSH0 DUP1 REVERT JUMPDEST POP PUSH2 0x2F2 PUSH1 0x4 DUP1 CALLDATASIZE SUB DUP2 ADD SWAP1 PUSH2 0x2ED SWAP2 SWAP1 PUSH2 0x105C JUMP JUMPDEST PUSH2 0xD34 JUMP JUMPDEST PUSH1 0x40 MLOAD PUSH2 0x2FF SWAP2 SWAP1 PUSH2 0x118D JUMP JUMPDEST PUSH1 0x40 MLOAD DUP1 SWAP2 SUB SWAP1 RETURN JUMPDEST PUSH0 PUSH2 0x311 PUSH2 0xB19 JUMP JUMPDEST SWAP1 POP PUSH0 PUSH2 0x31E DUP3 CALLVALUE PUSH2 0x522 JUMP JUMPDEST SWAP1 POP PUSH1 0x1 SLOAD DUP2 LT ISZERO PUSH2 0x365 JUMPI PUSH1 0x40 MLOAD PUSH32 0x8C379A000000000000000000000000000000000000000000000000000000000 DUP2 MSTORE PUSH1 0x4 ADD PUSH2 0x35C SWAP1 PUSH2 0x1200 JUMP JUMPDEST PUSH1 0x40 MLOAD DUP1 SWAP2 SUB SWAP1 REVERT JUMPDEST PUSH1 0x4 PUSH0 CALLER PUSH20 0xFFFFFFFFFFFFFFFFFFFFFFFFFFFFFFFFFFFFFFFF AND PUSH20 0xFFFFFFFFFFFFFFFFFFFFFFFFFFFFFFFFFFFFFFFF AND DUP2 MSTORE PUSH1 0x20 ADD SWAP1 DUP2 MSTORE PUSH1 0x20 ADD PUSH0 KECCAK256 PUSH0 SWAP1 SLOAD SWAP1 PUSH2 0x100 EXP SWAP1 DIV PUSH1 0xFF AND PUSH2 0x4B0 JUMPI PUSH1 0x2 DUP1 SLOAD SWAP1 POP PUSH1 0x3 PUSH0 CALLER PUSH20 0xFFFFFFFFFFFFFFFFFFFFFFFFFFFFFFFFFFFFFFFF AND PUSH20 0xFFFFFFFFFFFFFFFFFFFFFFFFFFFFFFFFFFFFFFFF AND DUP2 MSTORE PUSH1 0x20 ADD SWAP1 DUP2 MSTORE PUSH1 0x20 ADD PUSH0 KECCAK256 DUP2 SWAP1 SSTORE POP PUSH1 0x2 CALLER SWAP1 DUP1 PUSH1 0x1 DUP2 SLOAD ADD DUP1 DUP3 SSTORE DUP1 SWAP2 POP POP PUSH1 0x1 SWAP1 SUB SWAP1 PUSH0 MSTORE PUSH1 0x20 PUSH0 KECCAK256 ADD PUSH0 SWAP1 SWAP2 SWAP1 SWAP2 SWAP1 SWAP2 PUSH2 0x100 EXP DUP2 SLOAD DUP2 PUSH20 0xFFFFFFFFFFFFFFFFFFFFFFFFFFFFFFFFFFFFFFFF MUL NOT AND SWAP1 DUP4 PUSH20 0xFFFFFFFFFFFFFFFFFFFFFFFFFFFFFFFFFFFFFFFF AND MUL OR SWAP1 SSTORE POP PUSH1 0x1 PUSH1 0x4 PUSH0 CALLER PUSH20 0xFFFFFFFFFFFFFFFFFFFFFFFFFFFFFFFFFFFFFFFF AND PUSH20 0xFFFFFFFFFFFFFFFFFFFFFFFFFFFFFFFFFFFFFFFF AND DUP2 MSTORE PUSH1 0x20 ADD SWAP1 DUP2 MSTORE PUSH1 0x20 ADD PUSH0 KECCAK256 PUSH0 PUSH2 0x100 EXP DUP2 SLOAD DUP2 PUSH1 0xFF MUL NOT AND SWAP1 DUP4 ISZERO ISZERO MUL OR SWAP1 SSTORE POP JUMPDEST CALLVALUE PUSH1 0x5 PUSH0 CALLER PUSH20 0xFFFFFFFFFFFFFFFFFFFFFFFFFFFFFFFFFFFFFFFF AND PUSH20 0xFFFFFFFFFFFFFFFFFFFFFFFFFFFFFFFFFFFFFFFF AND DUP2 MSTORE PUSH1 0x20 ADD SWAP1 DUP2 MSTORE PUSH1 0x20 ADD PUSH0 KECCAK256 PUSH0 DUP3 DUP3 SLOAD PUSH2 0x4FC SWAP2 SWAP1 PUSH2 0x124B JUMP JUMPDEST SWAP3 POP POP DUP2 SWAP1 SSTORE POP POP POP JUMP JUMPDEST PUSH1 0x5 PUSH1 0x20 MSTORE DUP1 PUSH0 MSTORE PUSH1 0x40 PUSH0 KECCAK256 PUSH0 SWAP2 POP SWAP1 POP SLOAD DUP2 JUMP JUMPDEST PUSH1 0x1 SLOAD DUP2 JUMP JUMPDEST PUSH0 PUSH8 0xDE0B6B3A7640000 DUP3 DUP5 PUSH2 0x538 SWAP2 SWAP1 PUSH2 0x127E JUMP JUMPDEST PUSH2 0x542 SWAP2 SWAP1 PUSH2 0x12EC JUMP JUMPDEST SWAP1 POP SWAP3 SWAP2 POP POP JUMP JUMPDEST PUSH0 ISZERO ISZERO PUSH0 DUP1 SLOAD SWAP1 PUSH2 0x100 EXP SWAP1 DIV PUSH1 0xFF AND ISZERO ISZERO EQ PUSH2 0x59C JUMPI PUSH1 0x40 MLOAD PUSH32 0x8C379A000000000000000000000000000000000000000000000000000000000 DUP2 MSTORE PUSH1 0x4 ADD PUSH2 0x593 SWAP1 PUSH2 0x138C JUMP JUMPDEST PUSH1 0x40 MLOAD DUP1 SWAP2 SUB SWAP1 REVERT JUMPDEST PUSH1 0x1 PUSH0 DUP1 PUSH2 0x100 EXP DUP2 SLOAD DUP2 PUSH1 0xFF MUL NOT AND SWAP1 DUP4 ISZERO ISZERO MUL OR SWAP1 SSTORE POP PUSH0 PUSH1 0x5 PUSH0 CALLER PUSH20 0xFFFFFFFFFFFFFFFFFFFFFFFFFFFFFFFFFFFFFFFF AND PUSH20 0xFFFFFFFFFFFFFFFFFFFFFFFFFFFFFFFFFFFFFFFF AND DUP2 MSTORE PUSH1 0x20 ADD SWAP1 DUP2 MSTORE PUSH1 0x20 ADD PUSH0 KECCAK256 SLOAD SWAP1 POP PUSH0 DUP2 GT PUSH2 0x638 JUMPI PUSH1 0x40 MLOAD PUSH32 0x8C379A000000000000000000000000000000000000000000000000000000000 DUP2 MSTORE PUSH1 0x4 ADD PUSH2 0x62F SWAP1 PUSH2 0x13F4 JUMP JUMPDEST PUSH1 0x40 MLOAD DUP1 SWAP2 SUB SWAP1 REVERT JUMPDEST PUSH0 PUSH1 0x5 PUSH0 CALLER PUSH20 0xFFFFFFFFFFFFFFFFFFFFFFFFFFFFFFFFFFFFFFFF AND PUSH20 0xFFFFFFFFFFFFFFFFFFFFFFFFFFFFFFFFFFFFFFFF AND DUP2 MSTORE PUSH1 0x20 ADD SWAP1 DUP2 MSTORE PUSH1 0x20 ADD PUSH0 KECCAK256 DUP2 SWAP1 SSTORE POP PUSH0 CALLER PUSH20 0xFFFFFFFFFFFFFFFFFFFFFFFFFFFFFFFFFFFFFFFF AND DUP3 PUSH1 0x40 MLOAD PUSH2 0x69F SWAP1 PUSH2 0x143F JUMP JUMPDEST PUSH0 PUSH1 0x40 MLOAD DUP1 DUP4 SUB DUP2 DUP6 DUP8 GAS CALL SWAP3 POP POP POP RETURNDATASIZE DUP1 PUSH0 DUP2 EQ PUSH2 0x6D9 JUMPI PUSH1 0x40 MLOAD SWAP2 POP PUSH1 0x1F NOT PUSH1 0x3F RETURNDATASIZE ADD AND DUP3 ADD PUSH1 0x40 MSTORE RETURNDATASIZE DUP3 MSTORE RETURNDATASIZE PUSH0 PUSH1 0x20 DUP5 ADD RETURNDATACOPY PUSH2 0x6DE JUMP JUMPDEST PUSH1 0x60 SWAP2 POP JUMPDEST POP POP SWAP1 POP PUSH1 0x1 ISZERO ISZERO DUP2 ISZERO ISZERO EQ PUSH2 0x729 JUMPI PUSH1 0x40 MLOAD PUSH32 0x8C379A000000000000000000000000000000000000000000000000000000000 DUP2 MSTORE PUSH1 0x4 ADD PUSH2 0x720 SWAP1 PUSH2 0x149D JUMP JUMPDEST PUSH1 0x40 MLOAD DUP1 SWAP2 SUB SWAP1 REVERT JUMPDEST PUSH2 0x731 PUSH2 0xD51 JUMP JUMPDEST POP POP PUSH0 DUP1 PUSH0 PUSH2 0x100 EXP DUP2 SLOAD DUP2 PUSH1 0xFF MUL NOT AND SWAP1 DUP4 ISZERO ISZERO MUL OR SWAP1 SSTORE POP JUMP JUMPDEST PUSH0 PUSH1 0x1 SWAP1 SLOAD SWAP1 PUSH2 0x100 EXP SWAP1 DIV PUSH20 0xFFFFFFFFFFFFFFFFFFFFFFFFFFFFFFFFFFFFFFFF AND PUSH20 0xFFFFFFFFFFFFFFFFFFFFFFFFFFFFFFFFFFFFFFFF AND CALLER PUSH20 0xFFFFFFFFFFFFFFFFFFFFFFFFFFFFFFFFFFFFFFFF AND EQ PUSH2 0x7DC JUMPI PUSH1 0x40 MLOAD PUSH32 0x8C379A000000000000000000000000000000000000000000000000000000000 DUP2 MSTORE PUSH1 0x4 ADD PUSH2 0x7D3 SWAP1 PUSH2 0x152B JUMP JUMPDEST PUSH1 0x40 MLOAD DUP1 SWAP2 SUB SWAP1 REVERT JUMPDEST PUSH0 CALLER PUSH20 0xFFFFFFFFFFFFFFFFFFFFFFFFFFFFFFFFFFFFFFFF AND SELFBALANCE PUSH1 0x40 MLOAD PUSH2 0x801 SWAP1 PUSH2 0x143F JUMP JUMPDEST PUSH0 PUSH1 0x40 MLOAD DUP1 DUP4 SUB DUP2 DUP6 DUP8 GAS CALL SWAP3 POP POP POP RETURNDATASIZE DUP1 PUSH0 DUP2 EQ PUSH2 0x83B JUMPI PUSH1 0x40 MLOAD SWAP2 POP PUSH1 0x1F NOT PUSH1 0x3F RETURNDATASIZE ADD AND DUP3 ADD PUSH1 0x40 MSTORE RETURNDATASIZE DUP3 MSTORE RETURNDATASIZE PUSH0 PUSH1 0x20 DUP5 ADD RETURNDATACOPY PUSH2 0x840 JUMP JUMPDEST PUSH1 0x60 SWAP2 POP JUMPDEST POP POP SWAP1 POP PUSH1 0x1 ISZERO ISZERO DUP2 ISZERO ISZERO EQ PUSH2 0x88B JUMPI PUSH1 0x40 MLOAD PUSH32 0x8C379A000000000000000000000000000000000000000000000000000000000 DUP2 MSTORE PUSH1 0x4 ADD PUSH2 0x882 SWAP1 PUSH2 0x149D JUMP JUMPDEST PUSH1 0x40 MLOAD DUP1 SWAP2 SUB SWAP1 REVERT JUMPDEST POP JUMP JUMPDEST PUSH0 ISZERO ISZERO PUSH0 DUP1 SLOAD SWAP1 PUSH2 0x100 EXP SWAP1 DIV PUSH1 0xFF AND ISZERO ISZERO EQ PUSH2 0x8E0 JUMPI PUSH1 0x40 MLOAD PUSH32 0x8C379A000000000000000000000000000000000000000000000000000000000 DUP2 MSTORE PUSH1 0x4 ADD PUSH2 0x8D7 SWAP1 PUSH2 0x138C JUMP JUMPDEST PUSH1 0x40 MLOAD DUP1 SWAP2 SUB SWAP1 REVERT JUMPDEST PUSH1 0x1 PUSH0 DUP1 PUSH2 0x100 EXP DUP2 SLOAD DUP2 PUSH1 0xFF MUL NOT AND SWAP1 DUP4 ISZERO ISZERO MUL OR SWAP1 SSTORE POP PUSH1 0x1 ISZERO ISZERO PUSH1 0x4 PUSH0 CALLER PUSH20 0xFFFFFFFFFFFFFFFFFFFFFFFFFFFFFFFFFFFFFFFF AND PUSH20 0xFFFFFFFFFFFFFFFFFFFFFFFFFFFFFFFFFFFFFFFF AND DUP2 MSTORE PUSH1 0x20 ADD SWAP1 DUP2 MSTORE PUSH1 0x20 ADD PUSH0 KECCAK256 PUSH0 SWAP1 SLOAD SWAP1 PUSH2 0x100 EXP SWAP1 DIV PUSH1 0xFF AND ISZERO ISZERO EQ PUSH2 0x989 JUMPI PUSH1 0x40 MLOAD PUSH32 0x8C379A000000000000000000000000000000000000000000000000000000000 DUP2 MSTORE PUSH1 0x4 ADD PUSH2 0x980 SWAP1 PUSH2 0x1593 JUMP JUMPDEST PUSH1 0x40 MLOAD DUP1 SWAP2 SUB SWAP1 REVERT JUMPDEST DUP1 PUSH1 0x5 PUSH0 CALLER PUSH20 0xFFFFFFFFFFFFFFFFFFFFFFFFFFFFFFFFFFFFFFFF AND PUSH20 0xFFFFFFFFFFFFFFFFFFFFFFFFFFFFFFFFFFFFFFFF AND DUP2 MSTORE PUSH1 0x20 ADD SWAP1 DUP2 MSTORE PUSH1 0x20 ADD PUSH0 KECCAK256 PUSH0 DUP3 DUP3 SLOAD PUSH2 0x9D5 SWAP2 SWAP1 PUSH2 0x15B1 JUMP JUMPDEST SWAP3 POP POP DUP2 SWAP1 SSTORE POP PUSH0 CALLER PUSH20 0xFFFFFFFFFFFFFFFFFFFFFFFFFFFFFFFFFFFFFFFF AND DUP3 PUSH1 0x40 MLOAD PUSH2 0xA01 SWAP1 PUSH2 0x143F JUMP JUMPDEST PUSH0 PUSH1 0x40 MLOAD DUP1 DUP4 SUB DUP2 DUP6 DUP8 GAS CALL SWAP3 POP POP POP RETURNDATASIZE DUP1 PUSH0 DUP2 EQ PUSH2 0xA3B JUMPI PUSH1 0x40 MLOAD SWAP2 POP PUSH1 0x1F NOT PUSH1 0x3F RETURNDATASIZE ADD AND DUP3 ADD PUSH1 0x40 MSTORE RETURNDATASIZE DUP3 MSTORE RETURNDATASIZE PUSH0 PUSH1 0x20 DUP5 ADD RETURNDATACOPY PUSH2 0xA40 JUMP JUMPDEST PUSH1 0x60 SWAP2 POP JUMPDEST POP POP SWAP1 POP PUSH1 0x1 ISZERO ISZERO DUP2 ISZERO ISZERO EQ PUSH2 0xA8B JUMPI PUSH1 0x40 MLOAD PUSH32 0x8C379A000000000000000000000000000000000000000000000000000000000 DUP2 MSTORE PUSH1 0x4 ADD PUSH2 0xA82 SWAP1 PUSH2 0x149D JUMP JUMPDEST PUSH1 0x40 MLOAD DUP1 SWAP2 SUB SWAP1 REVERT JUMPDEST PUSH0 PUSH1 0x5 PUSH0 CALLER PUSH20 0xFFFFFFFFFFFFFFFFFFFFFFFFFFFFFFFFFFFFFFFF AND PUSH20 0xFFFFFFFFFFFFFFFFFFFFFFFFFFFFFFFFFFFFFFFF AND DUP2 MSTORE PUSH1 0x20 ADD SWAP1 DUP2 MSTORE PUSH1 0x20 ADD PUSH0 KECCAK256 SLOAD GT PUSH2 0xAD8 JUMPI PUSH2 0xAD7 PUSH2 0xD51 JUMP JUMPDEST JUMPDEST POP PUSH0 DUP1 PUSH0 PUSH2 0x100 EXP DUP2 SLOAD DUP2 PUSH1 0xFF MUL NOT AND SWAP1 DUP4 ISZERO ISZERO MUL OR SWAP1 SSTORE POP POP JUMP JUMPDEST PUSH0 PUSH1 0x1 SWAP1 SLOAD SWAP1 PUSH2 0x100 EXP SWAP1 DIV PUSH20 0xFFFFFFFFFFFFFFFFFFFFFFFFFFFFFFFFFFFFFFFF AND DUP2 JUMP JUMPDEST PUSH0 DUP1 PUSH20 0x694AA1769357215DE4FAC081BF1F309ADC325306 PUSH20 0xFFFFFFFFFFFFFFFFFFFFFFFFFFFFFFFFFFFFFFFF AND PUSH4 0xFEAF968C PUSH1 0x40 MLOAD DUP2 PUSH4 0xFFFFFFFF AND PUSH1 0xE0 SHL DUP2 MSTORE PUSH1 0x4 ADD PUSH1 0xA0 PUSH1 0x40 MLOAD DUP1 DUP4 SUB DUP2 DUP7 GAS STATICCALL ISZERO DUP1 ISZERO PUSH2 0xB78 JUMPI RETURNDATASIZE PUSH0 DUP1 RETURNDATACOPY RETURNDATASIZE PUSH0 REVERT JUMPDEST POP POP POP POP PUSH1 0x40 MLOAD RETURNDATASIZE PUSH1 0x1F NOT PUSH1 0x1F DUP3 ADD AND DUP3 ADD DUP1 PUSH1 0x40 MSTORE POP DUP2 ADD SWAP1 PUSH2 0xB9C SWAP2 SWAP1 PUSH2 0x166A JUMP JUMPDEST POP POP POP SWAP2 POP POP PUSH0 DUP2 SGT PUSH2 0xBE4 JUMPI PUSH1 0x40 MLOAD PUSH32 0x8C379A000000000000000000000000000000000000000000000000000000000 DUP2 MSTORE PUSH1 0x4 ADD PUSH2 0xBDB SWAP1 PUSH2 0x172B JUMP JUMPDEST PUSH1 0x40 MLOAD DUP1 SWAP2 SUB SWAP1 REVERT JUMPDEST PUSH2 0xBED DUP2 PUSH2 0xFB0 JUMP JUMPDEST SWAP2 POP POP SWAP1 JUMP JUMPDEST PUSH1 0x3 PUSH1 0x20 MSTORE DUP1 PUSH0 MSTORE PUSH1 0x40 PUSH0 KECCAK256 PUSH0 SWAP2 POP SWAP1 POP SLOAD DUP2 JUMP JUMPDEST PUSH0 PUSH1 0x1 SWAP1 SLOAD SWAP1 PUSH2 0x100 EXP SWAP1 DIV PUSH20 0xFFFFFFFFFFFFFFFFFFFFFFFFFFFFFFFFFFFFFFFF AND PUSH20 0xFFFFFFFFFFFFFFFFFFFFFFFFFFFFFFFFFFFFFFFF AND CALLER PUSH20 0xFFFFFFFFFFFFFFFFFFFFFFFFFFFFFFFFFFFFFFFF AND EQ PUSH2 0xC97 JUMPI PUSH1 0x40 MLOAD PUSH32 0x8C379A000000000000000000000000000000000000000000000000000000000 DUP2 MSTORE PUSH1 0x4 ADD PUSH2 0xC8E SWAP1 PUSH2 0x17DF JUMP JUMPDEST PUSH1 0x40 MLOAD DUP1 SWAP2 SUB SWAP1 REVERT JUMPDEST PUSH0 PUSH4 0x5F5E100 DUP3 PUSH2 0xCA8 SWAP2 SWAP1 PUSH2 0x127E JUMP JUMPDEST SWAP1 POP PUSH1 0x1 SLOAD DUP2 SUB PUSH2 0xCEE JUMPI PUSH1 0x40 MLOAD PUSH32 0x8C379A000000000000000000000000000000000000000000000000000000000 DUP2 MSTORE PUSH1 0x4 ADD PUSH2 0xCE5 SWAP1 PUSH2 0x186D JUMP JUMPDEST PUSH1 0x40 MLOAD DUP1 SWAP2 SUB SWAP1 REVERT JUMPDEST DUP1 PUSH1 0x1 DUP2 SWAP1 SSTORE POP POP POP JUMP JUMPDEST PUSH1 0x2 DUP2 DUP2 SLOAD DUP2 LT PUSH2 0xD08 JUMPI PUSH0 DUP1 REVERT JUMPDEST SWAP1 PUSH0 MSTORE PUSH1 0x20 PUSH0 KECCAK256 ADD PUSH0 SWAP2 POP SLOAD SWAP1 PUSH2 0x100 EXP SWAP1 DIV PUSH20 0xFFFFFFFFFFFFFFFFFFFFFFFFFFFFFFFFFFFFFFFF AND DUP2 JUMP JUMPDEST PUSH1 0x4 PUSH1 0x20 MSTORE DUP1 PUSH0 MSTORE PUSH1 0x40 PUSH0 KECCAK256 PUSH0 SWAP2 POP SLOAD SWAP1 PUSH2 0x100 EXP SWAP1 DIV PUSH1 0xFF AND DUP2 JUMP JUMPDEST PUSH0 PUSH1 0x2 PUSH1 0x1 PUSH1 0x2 DUP1 SLOAD SWAP1 POP PUSH2 0xD66 SWAP2 SWAP1 PUSH2 0x15B1 JUMP JUMPDEST DUP2 SLOAD DUP2 LT PUSH2 0xD77 JUMPI PUSH2 0xD76 PUSH2 0x188B JUMP JUMPDEST JUMPDEST SWAP1 PUSH0 MSTORE PUSH1 0x20 PUSH0 KECCAK256 ADD PUSH0 SWAP1 SLOAD SWAP1 PUSH2 0x100 EXP SWAP1 DIV PUSH20 0xFFFFFFFFFFFFFFFFFFFFFFFFFFFFFFFFFFFFFFFF AND SWAP1 POP PUSH0 PUSH1 0x3 PUSH0 CALLER PUSH20 0xFFFFFFFFFFFFFFFFFFFFFFFFFFFFFFFFFFFFFFFF AND PUSH20 0xFFFFFFFFFFFFFFFFFFFFFFFFFFFFFFFFFFFFFFFF AND DUP2 MSTORE PUSH1 0x20 ADD SWAP1 DUP2 MSTORE PUSH1 0x20 ADD PUSH0 KECCAK256 SLOAD SWAP1 POP PUSH1 0x1 PUSH1 0x2 DUP1 SLOAD SWAP1 POP PUSH2 0xDF4 SWAP2 SWAP1 PUSH2 0x15B1 JUMP JUMPDEST PUSH1 0x3 PUSH0 CALLER PUSH20 0xFFFFFFFFFFFFFFFFFFFFFFFFFFFFFFFFFFFFFFFF AND PUSH20 0xFFFFFFFFFFFFFFFFFFFFFFFFFFFFFFFFFFFFFFFF AND DUP2 MSTORE PUSH1 0x20 ADD SWAP1 DUP2 MSTORE PUSH1 0x20 ADD PUSH0 KECCAK256 SLOAD EQ PUSH2 0xED4 JUMPI DUP2 PUSH1 0x2 DUP3 DUP2 SLOAD DUP2 LT PUSH2 0xE4C JUMPI PUSH2 0xE4B PUSH2 0x188B JUMP JUMPDEST JUMPDEST SWAP1 PUSH0 MSTORE PUSH1 0x20 PUSH0 KECCAK256 ADD PUSH0 PUSH2 0x100 EXP DUP2 SLOAD DUP2 PUSH20 0xFFFFFFFFFFFFFFFFFFFFFFFFFFFFFFFFFFFFFFFF MUL NOT AND SWAP1 DUP4 PUSH20 0xFFFFFFFFFFFFFFFFFFFFFFFFFFFFFFFFFFFFFFFF AND MUL OR SWAP1 SSTORE POP DUP1 PUSH1 0x3 PUSH0 DUP5 PUSH20 0xFFFFFFFFFFFFFFFFFFFFFFFFFFFFFFFFFFFFFFFF AND PUSH20 0xFFFFFFFFFFFFFFFFFFFFFFFFFFFFFFFFFFFFFFFF AND DUP2 MSTORE PUSH1 0x20 ADD SWAP1 DUP2 MSTORE PUSH1 0x20 ADD PUSH0 KECCAK256 DUP2 SWAP1 SSTORE POP JUMPDEST PUSH1 0x2 DUP1 SLOAD DUP1 PUSH2 0xEE6 JUMPI PUSH2 0xEE5 PUSH2 0x18B8 JUMP JUMPDEST JUMPDEST PUSH1 0x1 SWAP1 SUB DUP2 DUP2 SWAP1 PUSH0 MSTORE PUSH1 0x20 PUSH0 KECCAK256 ADD PUSH0 PUSH2 0x100 EXP DUP2 SLOAD SWAP1 PUSH20 0xFFFFFFFFFFFFFFFFFFFFFFFFFFFFFFFFFFFFFFFF MUL NOT AND SWAP1 SSTORE SWAP1 SSTORE PUSH1 0x3 PUSH0 CALLER PUSH20 0xFFFFFFFFFFFFFFFFFFFFFFFFFFFFFFFFFFFFFFFF AND PUSH20 0xFFFFFFFFFFFFFFFFFFFFFFFFFFFFFFFFFFFFFFFF AND DUP2 MSTORE PUSH1 0x20 ADD SWAP1 DUP2 MSTORE PUSH1 0x20 ADD PUSH0 KECCAK256 PUSH0 SWAP1 SSTORE PUSH0 PUSH1 0x4 PUSH0 CALLER PUSH20 0xFFFFFFFFFFFFFFFFFFFFFFFFFFFFFFFFFFFFFFFF AND PUSH20 0xFFFFFFFFFFFFFFFFFFFFFFFFFFFFFFFFFFFFFFFF AND DUP2 MSTORE PUSH1 0x20 ADD SWAP1 DUP2 MSTORE PUSH1 0x20 ADD PUSH0 KECCAK256 PUSH0 PUSH2 0x100 EXP DUP2 SLOAD DUP2 PUSH1 0xFF MUL NOT AND SWAP1 DUP4 ISZERO ISZERO MUL OR SWAP1 SSTORE POP POP POP JUMP JUMPDEST PUSH0 DUP1 DUP3 SLT ISZERO PUSH2 0xFF6 JUMPI DUP2 PUSH1 0x40 MLOAD PUSH32 0xA8CE443200000000000000000000000000000000000000000000000000000000 DUP2 MSTORE PUSH1 0x4 ADD PUSH2 0xFED SWAP2 SWAP1 PUSH2 0x18F4 JUMP JUMPDEST PUSH1 0x40 MLOAD DUP1 SWAP2 SUB SWAP1 REVERT JUMPDEST DUP2 SWAP1 POP SWAP2 SWAP1 POP JUMP JUMPDEST PUSH0 DUP1 REVERT JUMPDEST PUSH0 PUSH20 0xFFFFFFFFFFFFFFFFFFFFFFFFFFFFFFFFFFFFFFFF DUP3 AND SWAP1 POP SWAP2 SWAP1 POP JUMP JUMPDEST PUSH0 PUSH2 0x102B DUP3 PUSH2 0x1002 JUMP JUMPDEST SWAP1 POP SWAP2 SWAP1 POP JUMP JUMPDEST PUSH2 0x103B DUP2 PUSH2 0x1021 JUMP JUMPDEST DUP2 EQ PUSH2 0x1045 JUMPI PUSH0 DUP1 REVERT JUMPDEST POP JUMP JUMPDEST PUSH0 DUP2 CALLDATALOAD SWAP1 POP PUSH2 0x1056 DUP2 PUSH2 0x1032 JUMP JUMPDEST SWAP3 SWAP2 POP POP JUMP JUMPDEST PUSH0 PUSH1 0x20 DUP3 DUP5 SUB SLT ISZERO PUSH2 0x1071 JUMPI PUSH2 0x1070 PUSH2 0xFFE JUMP JUMPDEST JUMPDEST PUSH0 PUSH2 0x107E DUP5 DUP3 DUP6 ADD PUSH2 0x1048 JUMP JUMPDEST SWAP2 POP POP SWAP3 SWAP2 POP POP JUMP JUMPDEST PUSH0 DUP2 SWAP1 POP SWAP2 SWAP1 POP JUMP JUMPDEST PUSH2 0x1099 DUP2 PUSH2 0x1087 JUMP JUMPDEST DUP3 MSTORE POP POP JUMP JUMPDEST PUSH0 PUSH1 0x20 DUP3 ADD SWAP1 POP PUSH2 0x10B2 PUSH0 DUP4 ADD DUP5 PUSH2 0x1090 JUMP JUMPDEST SWAP3 SWAP2 POP POP JUMP JUMPDEST PUSH2 0x10C1 DUP2 PUSH2 0x1087 JUMP JUMPDEST DUP2 EQ PUSH2 0x10CB JUMPI PUSH0 DUP1 REVERT JUMPDEST POP JUMP JUMPDEST PUSH0 DUP2 CALLDATALOAD SWAP1 POP PUSH2 0x10DC DUP2 PUSH2 0x10B8 JUMP JUMPDEST SWAP3 SWAP2 POP POP JUMP JUMPDEST PUSH0 DUP1 PUSH1 0x40 DUP4 DUP6 SUB SLT ISZERO PUSH2 0x10F8 JUMPI PUSH2 0x10F7 PUSH2 0xFFE JUMP JUMPDEST JUMPDEST PUSH0 PUSH2 0x1105 DUP6 DUP3 DUP7 ADD PUSH2 0x10CE JUMP JUMPDEST SWAP3 POP POP PUSH1 0x20 PUSH2 0x1116 DUP6 DUP3 DUP7 ADD PUSH2 0x10CE JUMP JUMPDEST SWAP2 POP POP SWAP3 POP SWAP3 SWAP1 POP JUMP JUMPDEST PUSH0 PUSH1 0x20 DUP3 DUP5 SUB SLT ISZERO PUSH2 0x1135 JUMPI PUSH2 0x1134 PUSH2 0xFFE JUMP JUMPDEST JUMPDEST PUSH0 PUSH2 0x1142 DUP5 DUP3 DUP6 ADD PUSH2 0x10CE JUMP JUMPDEST SWAP2 POP POP SWAP3 SWAP2 POP POP JUMP JUMPDEST PUSH2 0x1154 DUP2 PUSH2 0x1021 JUMP JUMPDEST DUP3 MSTORE POP POP JUMP JUMPDEST PUSH0 PUSH1 0x20 DUP3 ADD SWAP1 POP PUSH2 0x116D PUSH0 DUP4 ADD DUP5 PUSH2 0x114B JUMP JUMPDEST SWAP3 SWAP2 POP POP JUMP JUMPDEST PUSH0 DUP2 ISZERO ISZERO SWAP1 POP SWAP2 SWAP1 POP JUMP JUMPDEST PUSH2 0x1187 DUP2 PUSH2 0x1173 JUMP JUMPDEST DUP3 MSTORE POP POP JUMP JUMPDEST PUSH0 PUSH1 0x20 DUP3 ADD SWAP1 POP PUSH2 0x11A0 PUSH0 DUP4 ADD DUP5 PUSH2 0x117E JUMP JUMPDEST SWAP3 SWAP2 POP POP JUMP JUMPDEST PUSH0 DUP3 DUP3 MSTORE PUSH1 0x20 DUP3 ADD SWAP1 POP SWAP3 SWAP2 POP POP JUMP JUMPDEST PUSH32 0x6469646E27742073656E6420656E6F7567682055534400000000000000000000 PUSH0 DUP3 ADD MSTORE POP JUMP JUMPDEST PUSH0 PUSH2 0x11EA PUSH1 0x16 DUP4 PUSH2 0x11A6 JUMP JUMPDEST SWAP2 POP PUSH2 0x11F5 DUP3 PUSH2 0x11B6 JUMP JUMPDEST PUSH1 0x20 DUP3 ADD SWAP1 POP SWAP2 SWAP1 POP JUMP JUMPDEST PUSH0 PUSH1 0x20 DUP3 ADD SWAP1 POP DUP2 DUP2 SUB PUSH0 DUP4 ADD MSTORE PUSH2 0x1217 DUP2 PUSH2 0x11DE JUMP JUMPDEST SWAP1 POP SWAP2 SWAP1 POP JUMP JUMPDEST PUSH32 0x4E487B7100000000000000000000000000000000000000000000000000000000 PUSH0 MSTORE PUSH1 0x11 PUSH1 0x4 MSTORE PUSH1 0x24 PUSH0 REVERT JUMPDEST PUSH0 PUSH2 0x1255 DUP3 PUSH2 0x1087 JUMP JUMPDEST SWAP2 POP PUSH2 0x1260 DUP4 PUSH2 0x1087 JUMP JUMPDEST SWAP3 POP DUP3 DUP3 ADD SWAP1 POP DUP1 DUP3 GT ISZERO PUSH2 0x1278 JUMPI PUSH2 0x1277 PUSH2 0x121E JUMP JUMPDEST JUMPDEST SWAP3 SWAP2 POP POP JUMP JUMPDEST PUSH0 PUSH2 0x1288 DUP3 PUSH2 0x1087 JUMP JUMPDEST SWAP2 POP PUSH2 0x1293 DUP4 PUSH2 0x1087 JUMP JUMPDEST SWAP3 POP DUP3 DUP3 MUL PUSH2 0x12A1 DUP2 PUSH2 0x1087 JUMP JUMPDEST SWAP2 POP DUP3 DUP3 DIV DUP5 EQ DUP4 ISZERO OR PUSH2 0x12B8 JUMPI PUSH2 0x12B7 PUSH2 0x121E JUMP JUMPDEST JUMPDEST POP SWAP3 SWAP2 POP POP JUMP JUMPDEST PUSH32 0x4E487B7100000000000000000000000000000000000000000000000000000000 PUSH0 MSTORE PUSH1 0x12 PUSH1 0x4 MSTORE PUSH1 0x24 PUSH0 REVERT JUMPDEST PUSH0 PUSH2 0x12F6 DUP3 PUSH2 0x1087 JUMP JUMPDEST SWAP2 POP PUSH2 0x1301 DUP4 PUSH2 0x1087 JUMP JUMPDEST SWAP3 POP DUP3 PUSH2 0x1311 JUMPI PUSH2 0x1310 PUSH2 0x12BF JUMP JUMPDEST JUMPDEST DUP3 DUP3 DIV SWAP1 POP SWAP3 SWAP2 POP POP JUMP JUMPDEST PUSH32 0x4E6F2072652D656E7472616E637920616C6C6F7765642C20706C656173652074 PUSH0 DUP3 ADD MSTORE PUSH32 0x727920616761696E2E0000000000000000000000000000000000000000000000 PUSH1 0x20 DUP3 ADD MSTORE POP JUMP JUMPDEST PUSH0 PUSH2 0x1376 PUSH1 0x29 DUP4 PUSH2 0x11A6 JUMP JUMPDEST SWAP2 POP PUSH2 0x1381 DUP3 PUSH2 0x131C JUMP JUMPDEST PUSH1 0x40 DUP3 ADD SWAP1 POP SWAP2 SWAP1 POP JUMP JUMPDEST PUSH0 PUSH1 0x20 DUP3 ADD SWAP1 POP DUP2 DUP2 SUB PUSH0 DUP4 ADD MSTORE PUSH2 0x13A3 DUP2 PUSH2 0x136A JUMP JUMPDEST SWAP1 POP SWAP2 SWAP1 POP JUMP JUMPDEST PUSH32 0x496E73756666696369656E742062616C616E6365000000000000000000000000 PUSH0 DUP3 ADD MSTORE POP JUMP JUMPDEST PUSH0 PUSH2 0x13DE PUSH1 0x14 DUP4 PUSH2 0x11A6 JUMP JUMPDEST SWAP2 POP PUSH2 0x13E9 DUP3 PUSH2 0x13AA JUMP JUMPDEST PUSH1 0x20 DUP3 ADD SWAP1 POP SWAP2 SWAP1 POP JUMP JUMPDEST PUSH0 PUSH1 0x20 DUP3 ADD SWAP1 POP DUP2 DUP2 SUB PUSH0 DUP4 ADD MSTORE PUSH2 0x140B DUP2 PUSH2 0x13D2 JUMP JUMPDEST SWAP1 POP SWAP2 SWAP1 POP JUMP JUMPDEST PUSH0 DUP2 SWAP1 POP SWAP3 SWAP2 POP POP JUMP JUMPDEST POP JUMP JUMPDEST PUSH0 PUSH2 0x142A PUSH0 DUP4 PUSH2 0x1412 JUMP JUMPDEST SWAP2 POP PUSH2 0x1435 DUP3 PUSH2 0x141C JUMP JUMPDEST PUSH0 DUP3 ADD SWAP1 POP SWAP2 SWAP1 POP JUMP JUMPDEST PUSH0 PUSH2 0x1449 DUP3 PUSH2 0x141F JUMP JUMPDEST SWAP2 POP DUP2 SWAP1 POP SWAP2 SWAP1 POP JUMP JUMPDEST PUSH32 0x5472616E73666572206661696C65642E00000000000000000000000000000000 PUSH0 DUP3 ADD MSTORE POP JUMP JUMPDEST PUSH0 PUSH2 0x1487 PUSH1 0x10 DUP4 PUSH2 0x11A6 JUMP JUMPDEST SWAP2 POP PUSH2 0x1492 DUP3 PUSH2 0x1453 JUMP JUMPDEST PUSH1 0x20 DUP3 ADD SWAP1 POP SWAP2 SWAP1 POP JUMP JUMPDEST PUSH0 PUSH1 0x20 DUP3 ADD SWAP1 POP DUP2 DUP2 SUB PUSH0 DUP4 ADD MSTORE PUSH2 0x14B4 DUP2 PUSH2 0x147B JUMP JUMPDEST SWAP1 POP SWAP2 SWAP1 POP JUMP JUMPDEST PUSH32 0x4F6E6C79206F776E65722063616E2063616C6C20746869732066756E6374696F PUSH0 DUP3 ADD MSTORE PUSH32 0x6E2E000000000000000000000000000000000000000000000000000000000000 PUSH1 0x20 DUP3 ADD MSTORE POP JUMP JUMPDEST PUSH0 PUSH2 0x1515 PUSH1 0x22 DUP4 PUSH2 0x11A6 JUMP JUMPDEST SWAP2 POP PUSH2 0x1520 DUP3 PUSH2 0x14BB JUMP JUMPDEST PUSH1 0x40 DUP3 ADD SWAP1 POP SWAP2 SWAP1 POP JUMP JUMPDEST PUSH0 PUSH1 0x20 DUP3 ADD SWAP1 POP DUP2 DUP2 SUB PUSH0 DUP4 ADD MSTORE PUSH2 0x1542 DUP2 PUSH2 0x1509 JUMP JUMPDEST SWAP1 POP SWAP2 SWAP1 POP JUMP JUMPDEST PUSH32 0x57616C6C65742061646472657373206973206E6F7420612066756E6465722E00 PUSH0 DUP3 ADD MSTORE POP JUMP JUMPDEST PUSH0 PUSH2 0x157D PUSH1 0x1F DUP4 PUSH2 0x11A6 JUMP JUMPDEST SWAP2 POP PUSH2 0x1588 DUP3 PUSH2 0x1549 JUMP JUMPDEST PUSH1 0x20 DUP3 ADD SWAP1 POP SWAP2 SWAP1 POP JUMP JUMPDEST PUSH0 PUSH1 0x20 DUP3 ADD SWAP1 POP DUP2 DUP2 SUB PUSH0 DUP4 ADD MSTORE PUSH2 0x15AA DUP2 PUSH2 0x1571 JUMP JUMPDEST SWAP1 POP SWAP2 SWAP1 POP JUMP JUMPDEST PUSH0 PUSH2 0x15BB DUP3 PUSH2 0x1087 JUMP JUMPDEST SWAP2 POP PUSH2 0x15C6 DUP4 PUSH2 0x1087 JUMP JUMPDEST SWAP3 POP DUP3 DUP3 SUB SWAP1 POP DUP2 DUP2 GT ISZERO PUSH2 0x15DE JUMPI PUSH2 0x15DD PUSH2 0x121E JUMP JUMPDEST JUMPDEST SWAP3 SWAP2 POP POP JUMP JUMPDEST PUSH0 PUSH10 0xFFFFFFFFFFFFFFFFFFFF DUP3 AND SWAP1 POP SWAP2 SWAP1 POP JUMP JUMPDEST PUSH2 0x1602 DUP2 PUSH2 0x15E4 JUMP JUMPDEST DUP2 EQ PUSH2 0x160C JUMPI PUSH0 DUP1 REVERT JUMPDEST POP JUMP JUMPDEST PUSH0 DUP2 MLOAD SWAP1 POP PUSH2 0x161D DUP2 PUSH2 0x15F9 JUMP JUMPDEST SWAP3 SWAP2 POP POP JUMP JUMPDEST PUSH0 DUP2 SWAP1 POP SWAP2 SWAP1 POP JUMP JUMPDEST PUSH2 0x1635 DUP2 PUSH2 0x1623 JUMP JUMPDEST DUP2 EQ PUSH2 0x163F JUMPI PUSH0 DUP1 REVERT JUMPDEST POP JUMP JUMPDEST PUSH0 DUP2 MLOAD SWAP1 POP PUSH2 0x1650 DUP2 PUSH2 0x162C JUMP JUMPDEST SWAP3 SWAP2 POP POP JUMP JUMPDEST PUSH0 DUP2 MLOAD SWAP1 POP PUSH2 0x1664 DUP2 PUSH2 0x10B8 JUMP JUMPDEST SWAP3 SWAP2 POP POP JUMP JUMPDEST PUSH0 DUP1 PUSH0 DUP1 PUSH0 PUSH1 0xA0 DUP7 DUP9 SUB SLT ISZERO PUSH2 0x1683 JUMPI PUSH2 0x1682 PUSH2 0xFFE JUMP JUMPDEST JUMPDEST PUSH0 PUSH2 0x1690 DUP9 DUP3 DUP10 ADD PUSH2 0x160F JUMP JUMPDEST SWAP6 POP POP PUSH1 0x20 PUSH2 0x16A1 DUP9 DUP3 DUP10 ADD PUSH2 0x1642 JUMP JUMPDEST SWAP5 POP POP PUSH1 0x40 PUSH2 0x16B2 DUP9 DUP3 DUP10 ADD PUSH2 0x1656 JUMP JUMPDEST SWAP4 POP POP PUSH1 0x60 PUSH2 0x16C3 DUP9 DUP3 DUP10 ADD PUSH2 0x1656 JUMP JUMPDEST SWAP3 POP POP PUSH1 0x80 PUSH2 0x16D4 DUP9 DUP3 DUP10 ADD PUSH2 0x160F JUMP JUMPDEST SWAP2 POP POP SWAP3 SWAP6 POP SWAP3 SWAP6 SWAP1 SWAP4 POP JUMP JUMPDEST PUSH32 0x4E65676174697665207072696365206E6F7420616C6C6F7765642E0000000000 PUSH0 DUP3 ADD MSTORE POP JUMP JUMPDEST PUSH0 PUSH2 0x1715 PUSH1 0x1B DUP4 PUSH2 0x11A6 JUMP JUMPDEST SWAP2 POP PUSH2 0x1720 DUP3 PUSH2 0x16E1 JUMP JUMPDEST PUSH1 0x20 DUP3 ADD SWAP1 POP SWAP2 SWAP1 POP JUMP JUMPDEST PUSH0 PUSH1 0x20 DUP3 ADD SWAP1 POP DUP2 DUP2 SUB PUSH0 DUP4 ADD MSTORE PUSH2 0x1742 DUP2 PUSH2 0x1709 JUMP JUMPDEST SWAP1 POP SWAP2 SWAP1 POP JUMP JUMPDEST PUSH32 0x4F6E6C7920746865206F776E6572206F662074686520636F6E74726163742063 PUSH0 DUP3 ADD MSTORE PUSH32 0x616E206368616E676520746865206D696E696D756D20616D6F756E74206F6620 PUSH1 0x20 DUP3 ADD MSTORE PUSH32 0x5553442E00000000000000000000000000000000000000000000000000000000 PUSH1 0x40 DUP3 ADD MSTORE POP JUMP JUMPDEST PUSH0 PUSH2 0x17C9 PUSH1 0x44 DUP4 PUSH2 0x11A6 JUMP JUMPDEST SWAP2 POP PUSH2 0x17D4 DUP3 PUSH2 0x1749 JUMP JUMPDEST PUSH1 0x60 DUP3 ADD SWAP1 POP SWAP2 SWAP1 POP JUMP JUMPDEST PUSH0 PUSH1 0x20 DUP3 ADD SWAP1 POP DUP2 DUP2 SUB PUSH0 DUP4 ADD MSTORE PUSH2 0x17F6 DUP2 PUSH2 0x17BD JUMP JUMPDEST SWAP1 POP SWAP2 SWAP1 POP JUMP JUMPDEST PUSH32 0x43616E6E6F74206368616E6765207468652076616C7565206F66206D696E696D PUSH0 DUP3 ADD MSTORE PUSH32 0x756D55736420746F207468652073616D652076616C75652E0000000000000000 PUSH1 0x20 DUP3 ADD MSTORE POP JUMP JUMPDEST PUSH0 PUSH2 0x1857 PUSH1 0x38 DUP4 PUSH2 0x11A6 JUMP JUMPDEST SWAP2 POP PUSH2 0x1862 DUP3 PUSH2 0x17FD JUMP JUMPDEST PUSH1 0x40 DUP3 ADD SWAP1 POP SWAP2 SWAP1 POP JUMP JUMPDEST PUSH0 PUSH1 0x20 DUP3 ADD SWAP1 POP DUP2 DUP2 SUB PUSH0 DUP4 ADD MSTORE PUSH2 0x1884 DUP2 PUSH2 0x184B JUMP JUMPDEST SWAP1 POP SWAP2 SWAP1 POP JUMP JUMPDEST PUSH32 0x4E487B7100000000000000000000000000000000000000000000000000000000 PUSH0 MSTORE PUSH1 0x32 PUSH1 0x4 MSTORE PUSH1 0x24 PUSH0 REVERT JUMPDEST PUSH32 0x4E487B7100000000000000000000000000000000000000000000000000000000 PUSH0 MSTORE PUSH1 0x31 PUSH1 0x4 MSTORE PUSH1 0x24 PUSH0 REVERT JUMPDEST PUSH2 0x18EE DUP2 PUSH2 0x1623 JUMP JUMPDEST DUP3 MSTORE POP POP JUMP JUMPDEST PUSH0 PUSH1 0x20 DUP3 ADD SWAP1 POP PUSH2 0x1907 PUSH0 DUP4 ADD DUP5 PUSH2 0x18E5 JUMP JUMPDEST SWAP3 SWAP2 POP POP JUMP INVALID LOG2 PUSH5 0x6970667358 0x22 SLT KECCAK256 0xA9 PUSH27 0x31640F89F7BEF84CD4BBDCFA0452EB9204525EF0849645F2AFC36 CALL SWAP3 SWAP16 PUSH5 0x736F6C6343 STOP ADDMOD BYTE STOP CALLER "
				},
				"gasEstimates": {
					"creation": {
						"codeDepositCost": "1293400",
						"executionCost": "47776",
						"totalCost": "1341176"
					},
					"external": {
						"addressIsActiveFunder(address)": "2921",
						"addressToAvailableAmount(address)": "2803",
						"addressToIndexInFundersArray(address)": "2824",
						"changeMinimumUsd(uint256)": "infinite",
						"fund()": "infinite",
						"funders(uint256)": "5010",
						"getConversionRate(uint256,uint256)": "infinite",
						"getPrice()": "infinite",
						"minimumUsd()": "2448",
						"owner()": "2581",
						"ownerWithdrawFunds()": "infinite",
						"partialWithdraw(uint256)": "infinite",
						"totalWithdraw()": "infinite"
					},
					"internal": {
						"cleanAfterWithdrawal()": "infinite"
					}
				},
				"methodIdentifiers": {
					"addressIsActiveFunder(address)": "f8024578",
					"addressToAvailableAmount(address)": "034855c7",
					"addressToIndexInFundersArray(address)": "cc3b589e",
					"changeMinimumUsd(uint256)": "d78a29d2",
					"fund()": "b60d4288",
					"funders(uint256)": "dc0d3dff",
					"getConversionRate(uint256,uint256)": "3e9f607c",
					"getPrice()": "98d5fdca",
					"minimumUsd()": "098de820",
					"owner()": "8da5cb5b",
					"ownerWithdrawFunds()": "5eb8d90b",
					"partialWithdraw(uint256)": "71d2ee6c",
					"totalWithdraw()": "455fd623"
				}
			},
			"storageLayout": {
				"storage": [
					{
						"astId": 55,
						"contract": "FundMe/contracts/FundMe.sol:FundMe",
						"label": "locked",
						"offset": 0,
						"slot": "0",
						"type": "t_bool"
					},
					{
						"astId": 57,
						"contract": "FundMe/contracts/FundMe.sol:FundMe",
						"label": "owner",
						"offset": 1,
						"slot": "0",
						"type": "t_address"
					},
					{
						"astId": 59,
						"contract": "FundMe/contracts/FundMe.sol:FundMe",
						"label": "minimumUsd",
						"offset": 0,
						"slot": "1",
						"type": "t_uint256"
					},
					{
						"astId": 96,
						"contract": "FundMe/contracts/FundMe.sol:FundMe",
						"label": "funders",
						"offset": 0,
						"slot": "2",
						"type": "t_array(t_address)dyn_storage"
					},
					{
						"astId": 100,
						"contract": "FundMe/contracts/FundMe.sol:FundMe",
						"label": "addressToIndexInFundersArray",
						"offset": 0,
						"slot": "3",
						"type": "t_mapping(t_address,t_uint256)"
					},
					{
						"astId": 104,
						"contract": "FundMe/contracts/FundMe.sol:FundMe",
						"label": "addressIsActiveFunder",
						"offset": 0,
						"slot": "4",
						"type": "t_mapping(t_address,t_bool)"
					},
					{
						"astId": 108,
						"contract": "FundMe/contracts/FundMe.sol:FundMe",
						"label": "addressToAvailableAmount",
						"offset": 0,
						"slot": "5",
						"type": "t_mapping(t_address,t_uint256)"
					}
				],
				"types": {
					"t_address": {
						"encoding": "inplace",
						"label": "address",
						"numberOfBytes": "20"
					},
					"t_array(t_address)dyn_storage": {
						"base": "t_address",
						"encoding": "dynamic_array",
						"label": "address[]",
						"numberOfBytes": "32"
					},
					"t_bool": {
						"encoding": "inplace",
						"label": "bool",
						"numberOfBytes": "1"
					},
					"t_mapping(t_address,t_bool)": {
						"encoding": "mapping",
						"key": "t_address",
						"label": "mapping(address => bool)",
						"numberOfBytes": "32",
						"value": "t_bool"
					},
					"t_mapping(t_address,t_uint256)": {
						"encoding": "mapping",
						"key": "t_address",
						"label": "mapping(address => uint256)",
						"numberOfBytes": "32",
						"value": "t_uint256"
					},
					"t_uint256": {
						"encoding": "inplace",
						"label": "uint256",
						"numberOfBytes": "32"
					}
				}
			},
			"userdoc": {
				"kind": "user",
				"methods": {},
				"version": 1
			}
		}
	}
}