{
	"FundMe/contracts/FundMe.sol": {
		"FundMe": {
			"abi": [
				{
					"inputs": [],
					"stateMutability": "nonpayable",
					"type": "constructor"
				},
				{
					"inputs": [
						{
							"internalType": "int256",
							"name": "value",
							"type": "int256"
						}
					],
					"name": "SafeCastOverflowedIntToUint",
					"type": "error"
				},
				{
					"inputs": [
						{
							"internalType": "address",
							"name": "",
							"type": "address"
						}
					],
					"name": "addressIsActiveFunder",
					"outputs": [
						{
							"internalType": "bool",
							"name": "",
							"type": "bool"
						}
					],
					"stateMutability": "view",
					"type": "function"
				},
				{
					"inputs": [
						{
							"internalType": "address",
							"name": "",
							"type": "address"
						}
					],
					"name": "addressToAvailableAmount",
					"outputs": [
						{
							"internalType": "uint256",
							"name": "",
							"type": "uint256"
						}
					],
					"stateMutability": "view",
					"type": "function"
				},
				{
					"inputs": [
						{
							"internalType": "address",
							"name": "",
							"type": "address"
						}
					],
					"name": "addressToIndexInFundersArray",
					"outputs": [
						{
							"internalType": "uint256",
							"name": "",
							"type": "uint256"
						}
					],
					"stateMutability": "view",
					"type": "function"
				},
				{
					"inputs": [
						{
							"internalType": "uint256",
							"name": "_newMinimumUsd",
							"type": "uint256"
						}
					],
					"name": "changeMinimumUsd",
					"outputs": [],
					"stateMutability": "nonpayable",
					"type": "function"
				},
				{
					"inputs": [],
					"name": "fund",
					"outputs": [],
					"stateMutability": "payable",
					"type": "function"
				},
				{
					"inputs": [
						{
							"internalType": "uint256",
							"name": "",
							"type": "uint256"
						}
					],
					"name": "funders",
					"outputs": [
						{
							"internalType": "address",
							"name": "",
							"type": "address"
						}
					],
					"stateMutability": "view",
					"type": "function"
				},
				{
					"inputs": [
						{
							"internalType": "uint256",
							"name": "_price",
							"type": "uint256"
						},
						{
							"internalType": "uint256",
							"name": "_amountInWEI",
							"type": "uint256"
						}
					],
					"name": "getConversionRate",
					"outputs": [
						{
							"internalType": "uint256",
							"name": "",
							"type": "uint256"
						}
					],
					"stateMutability": "pure",
					"type": "function"
				},
				{
					"inputs": [],
					"name": "getPrice",
					"outputs": [
						{
							"internalType": "uint256",
							"name": "",
							"type": "uint256"
						}
					],
					"stateMutability": "view",
					"type": "function"
				},
				{
					"inputs": [],
					"name": "minimumUsd",
					"outputs": [
						{
							"internalType": "uint256",
							"name": "",
							"type": "uint256"
						}
					],
					"stateMutability": "view",
					"type": "function"
				},
				{
					"inputs": [],
					"name": "owner",
					"outputs": [
						{
							"internalType": "address",
							"name": "",
							"type": "address"
						}
					],
					"stateMutability": "view",
					"type": "function"
				},
				{
					"inputs": [],
					"name": "ownerWithdrawFunds",
					"outputs": [],
					"stateMutability": "nonpayable",
					"type": "function"
				},
				{
					"inputs": [
						{
							"internalType": "uint256",
							"name": "_amount",
							"type": "uint256"
						}
					],
					"name": "partialWithdraw",
					"outputs": [],
					"stateMutability": "nonpayable",
					"type": "function"
				},
				{
					"inputs": [],
					"name": "totalWithdraw",
					"outputs": [],
					"stateMutability": "nonpayable",
					"type": "function"
				},
				{
					"stateMutability": "payable",
					"type": "receive"
				}
			],
			"devdoc": {
				"errors": {
					"SafeCastOverflowedIntToUint(int256)": [
						{
							"details": "An int value doesn't fit in an uint of `bits` size."
						}
					]
				},
				"kind": "dev",
				"methods": {},
				"version": 1
			},
			"evm": {
				"assembly": "    /* \"FundMe/contracts/FundMe.sol\":265:6137  contract FundMe {... */\n  mstore(0x40, 0x80)\n    /* \"FundMe/contracts/FundMe.sol\":1207:1378  constructor() {... */\n  callvalue\n  dup1\n  iszero\n  tag_1\n  jumpi\n  0x00\n  dup1\n  revert\ntag_1:\n  pop\n    /* \"FundMe/contracts/FundMe.sol\":1239:1249  msg.sender */\n  caller\n    /* \"FundMe/contracts/FundMe.sol\":1231:1236  owner */\n  0x00\n  0x01\n    /* \"FundMe/contracts/FundMe.sol\":1231:1249  owner = msg.sender */\n  0x0100\n  exp\n  dup2\n  sload\n  dup2\n  0xffffffffffffffffffffffffffffffffffffffff\n  mul\n  not\n  and\n  swap1\n  dup4\n  0xffffffffffffffffffffffffffffffffffffffff\n  and\n  mul\n  or\n  swap1\n  sstore\n  pop\n    /* \"FundMe/contracts/FundMe.sol\":1366:1371  5*1e8 */\n  0x1dcd6500\n    /* \"FundMe/contracts/FundMe.sol\":1353:1363  minimumUsd */\n  0x01\n    /* \"FundMe/contracts/FundMe.sol\":1353:1371  minimumUsd = 5*1e8 */\n  dup2\n  swap1\n  sstore\n  pop\n    /* \"FundMe/contracts/FundMe.sol\":265:6137  contract FundMe {... */\n  dataSize(sub_0)\n  dup1\n  dataOffset(sub_0)\n  0x00\n  codecopy\n  0x00\n  return\nstop\n\nsub_0: assembly {\n        /* \"FundMe/contracts/FundMe.sol\":265:6137  contract FundMe {... */\n      mstore(0x40, 0x80)\n      jumpi(tag_1, lt(calldatasize, 0x04))\n      shr(0xe0, calldataload(0x00))\n      dup1\n      0x8da5cb5b\n      gt\n      tag_16\n      jumpi\n      dup1\n      0xcc3b589e\n      gt\n      tag_17\n      jumpi\n      dup1\n      0xcc3b589e\n      eq\n      tag_12\n      jumpi\n      dup1\n      0xd78a29d2\n      eq\n      tag_13\n      jumpi\n      dup1\n      0xdc0d3dff\n      eq\n      tag_14\n      jumpi\n      dup1\n      0xf8024578\n      eq\n      tag_15\n      jumpi\n      jump(tag_2)\n    tag_17:\n      dup1\n      0x8da5cb5b\n      eq\n      tag_9\n      jumpi\n      dup1\n      0x98d5fdca\n      eq\n      tag_10\n      jumpi\n      dup1\n      0xb60d4288\n      eq\n      tag_11\n      jumpi\n      jump(tag_2)\n    tag_16:\n      dup1\n      0x034855c7\n      eq\n      tag_3\n      jumpi\n      dup1\n      0x098de820\n      eq\n      tag_4\n      jumpi\n      dup1\n      0x3e9f607c\n      eq\n      tag_5\n      jumpi\n      dup1\n      0x455fd623\n      eq\n      tag_6\n      jumpi\n      dup1\n      0x5eb8d90b\n      eq\n      tag_7\n      jumpi\n      dup1\n      0x71d2ee6c\n      eq\n      tag_8\n      jumpi\n      jump(tag_2)\n    tag_1:\n      jumpi(tag_2, calldatasize)\n        /* \"FundMe/contracts/FundMe.sol\":1534:1540  fund() */\n      tag_20\n        /* \"FundMe/contracts/FundMe.sol\":1534:1538  fund */\n      tag_21\n        /* \"FundMe/contracts/FundMe.sol\":1534:1540  fund() */\n      jump\t// in\n    tag_20:\n        /* \"FundMe/contracts/FundMe.sol\":265:6137  contract FundMe {... */\n      stop\n    tag_2:\n      0x00\n      dup1\n      revert\n        /* \"FundMe/contracts/FundMe.sol\":531:591  mapping (address => uint256) public addressToAvailableAmount */\n    tag_3:\n      callvalue\n      dup1\n      iszero\n      tag_22\n      jumpi\n      0x00\n      dup1\n      revert\n    tag_22:\n      pop\n      tag_23\n      0x04\n      dup1\n      calldatasize\n      sub\n      dup2\n      add\n      swap1\n      tag_24\n      swap2\n      swap1\n      tag_25\n      jump\t// in\n    tag_24:\n      tag_26\n      jump\t// in\n    tag_23:\n      mload(0x40)\n      tag_27\n      swap2\n      swap1\n      tag_28\n      jump\t// in\n    tag_27:\n      mload(0x40)\n      dup1\n      swap2\n      sub\n      swap1\n      return\n        /* \"FundMe/contracts/FundMe.sol\":339:364  uint256 public minimumUsd */\n    tag_4:\n      callvalue\n      dup1\n      iszero\n      tag_29\n      jumpi\n      0x00\n      dup1\n      revert\n    tag_29:\n      pop\n      tag_30\n      tag_31\n      jump\t// in\n    tag_30:\n      mload(0x40)\n      tag_32\n      swap2\n      swap1\n      tag_28\n      jump\t// in\n    tag_32:\n      mload(0x40)\n      dup1\n      swap2\n      sub\n      swap1\n      return\n        /* \"FundMe/contracts/FundMe.sol\":5987:6134  function getConversionRate(uint256 _price, uint256 _amountInWEI) public pure returns (uint256) {... */\n    tag_5:\n      callvalue\n      dup1\n      iszero\n      tag_33\n      jumpi\n      0x00\n      dup1\n      revert\n    tag_33:\n      pop\n      tag_34\n      0x04\n      dup1\n      calldatasize\n      sub\n      dup2\n      add\n      swap1\n      tag_35\n      swap2\n      swap1\n      tag_36\n      jump\t// in\n    tag_35:\n      tag_37\n      jump\t// in\n    tag_34:\n      mload(0x40)\n      tag_38\n      swap2\n      swap1\n      tag_28\n      jump\t// in\n    tag_38:\n      mload(0x40)\n      dup1\n      swap2\n      sub\n      swap1\n      return\n        /* \"FundMe/contracts/FundMe.sol\":3439:3812  function totalWithdraw() public noReentrant {... */\n    tag_6:\n      callvalue\n      dup1\n      iszero\n      tag_39\n      jumpi\n      0x00\n      dup1\n      revert\n    tag_39:\n      pop\n      tag_40\n      tag_41\n      jump\t// in\n    tag_40:\n      stop\n        /* \"FundMe/contracts/FundMe.sol\":3818:4118  function ownerWithdrawFunds() onlyOwner public {... */\n    tag_7:\n      callvalue\n      dup1\n      iszero\n      tag_42\n      jumpi\n      0x00\n      dup1\n      revert\n    tag_42:\n      pop\n      tag_43\n      tag_44\n      jump\t// in\n    tag_43:\n      stop\n        /* \"FundMe/contracts/FundMe.sol\":2798:3338  function partialWithdraw(uint256 _amount) public noReentrant {... */\n    tag_8:\n      callvalue\n      dup1\n      iszero\n      tag_45\n      jumpi\n      0x00\n      dup1\n      revert\n    tag_45:\n      pop\n      tag_46\n      0x04\n      dup1\n      calldatasize\n      sub\n      dup2\n      add\n      swap1\n      tag_47\n      swap2\n      swap1\n      tag_48\n      jump\t// in\n    tag_47:\n      tag_49\n      jump\t// in\n    tag_46:\n      stop\n        /* \"FundMe/contracts/FundMe.sol\":313:333  address public owner */\n    tag_9:\n      callvalue\n      dup1\n      iszero\n      tag_50\n      jumpi\n      0x00\n      dup1\n      revert\n    tag_50:\n      pop\n      tag_51\n      tag_52\n      jump\t// in\n    tag_51:\n      mload(0x40)\n      tag_53\n      swap2\n      swap1\n      tag_54\n      jump\t// in\n    tag_53:\n      mload(0x40)\n      dup1\n      swap2\n      sub\n      swap1\n      return\n        /* \"FundMe/contracts/FundMe.sol\":5618:5883  function getPrice() public view returns (uint256) {... */\n    tag_10:\n      callvalue\n      dup1\n      iszero\n      tag_55\n      jumpi\n      0x00\n      dup1\n      revert\n    tag_55:\n      pop\n      tag_56\n      tag_57\n      jump\t// in\n    tag_56:\n      mload(0x40)\n      tag_58\n      swap2\n      swap1\n      tag_28\n      jump\t// in\n    tag_58:\n      mload(0x40)\n      dup1\n      swap2\n      sub\n      swap1\n      return\n        /* \"FundMe/contracts/FundMe.sol\":2196:2695  function fund() public payable {... */\n    tag_11:\n      tag_59\n      tag_21\n      jump\t// in\n    tag_59:\n      stop\n        /* \"FundMe/contracts/FundMe.sol\":401:465  mapping (address => uint256) public addressToIndexInFundersArray */\n    tag_12:\n      callvalue\n      dup1\n      iszero\n      tag_60\n      jumpi\n      0x00\n      dup1\n      revert\n    tag_60:\n      pop\n      tag_61\n      0x04\n      dup1\n      calldatasize\n      sub\n      dup2\n      add\n      swap1\n      tag_62\n      swap2\n      swap1\n      tag_25\n      jump\t// in\n    tag_62:\n      tag_63\n      jump\t// in\n    tag_61:\n      mload(0x40)\n      tag_64\n      swap2\n      swap1\n      tag_28\n      jump\t// in\n    tag_64:\n      mload(0x40)\n      dup1\n      swap2\n      sub\n      swap1\n      return\n        /* \"FundMe/contracts/FundMe.sol\":1646:1914  function changeMinimumUsd(uint256 _newMinimumUsd) onlyOwner public {... */\n    tag_13:\n      callvalue\n      dup1\n      iszero\n      tag_65\n      jumpi\n      0x00\n      dup1\n      revert\n    tag_65:\n      pop\n      tag_66\n      0x04\n      dup1\n      calldatasize\n      sub\n      dup2\n      add\n      swap1\n      tag_67\n      swap2\n      swap1\n      tag_48\n      jump\t// in\n    tag_67:\n      tag_68\n      jump\t// in\n    tag_66:\n      stop\n        /* \"FundMe/contracts/FundMe.sol\":371:395  address[] public funders */\n    tag_14:\n      callvalue\n      dup1\n      iszero\n      tag_69\n      jumpi\n      0x00\n      dup1\n      revert\n    tag_69:\n      pop\n      tag_70\n      0x04\n      dup1\n      calldatasize\n      sub\n      dup2\n      add\n      swap1\n      tag_71\n      swap2\n      swap1\n      tag_48\n      jump\t// in\n    tag_71:\n      tag_72\n      jump\t// in\n    tag_70:\n      mload(0x40)\n      tag_73\n      swap2\n      swap1\n      tag_54\n      jump\t// in\n    tag_73:\n      mload(0x40)\n      dup1\n      swap2\n      sub\n      swap1\n      return\n        /* \"FundMe/contracts/FundMe.sol\":471:525  mapping (address => bool) public addressIsActiveFunder */\n    tag_15:\n      callvalue\n      dup1\n      iszero\n      tag_74\n      jumpi\n      0x00\n      dup1\n      revert\n    tag_74:\n      pop\n      tag_75\n      0x04\n      dup1\n      calldatasize\n      sub\n      dup2\n      add\n      swap1\n      tag_76\n      swap2\n      swap1\n      tag_25\n      jump\t// in\n    tag_76:\n      tag_77\n      jump\t// in\n    tag_75:\n      mload(0x40)\n      tag_78\n      swap2\n      swap1\n      tag_79\n      jump\t// in\n    tag_78:\n      mload(0x40)\n      dup1\n      swap2\n      sub\n      swap1\n      return\n        /* \"FundMe/contracts/FundMe.sol\":2196:2695  function fund() public payable {... */\n    tag_21:\n        /* \"FundMe/contracts/FundMe.sol\":2237:2250  uint256 price */\n      0x00\n        /* \"FundMe/contracts/FundMe.sol\":2253:2263  getPrice() */\n      tag_81\n        /* \"FundMe/contracts/FundMe.sol\":2253:2261  getPrice */\n      tag_57\n        /* \"FundMe/contracts/FundMe.sol\":2253:2263  getPrice() */\n      jump\t// in\n    tag_81:\n        /* \"FundMe/contracts/FundMe.sol\":2237:2263  uint256 price = getPrice() */\n      swap1\n      pop\n        /* \"FundMe/contracts/FundMe.sol\":2273:2295  uint256 conversionRate */\n      0x00\n        /* \"FundMe/contracts/FundMe.sol\":2298:2333  getConversionRate(price, msg.value) */\n      tag_82\n        /* \"FundMe/contracts/FundMe.sol\":2316:2321  price */\n      dup3\n        /* \"FundMe/contracts/FundMe.sol\":2323:2332  msg.value */\n      callvalue\n        /* \"FundMe/contracts/FundMe.sol\":2298:2315  getConversionRate */\n      tag_37\n        /* \"FundMe/contracts/FundMe.sol\":2298:2333  getConversionRate(price, msg.value) */\n      jump\t// in\n    tag_82:\n        /* \"FundMe/contracts/FundMe.sol\":2273:2333  uint256 conversionRate = getConversionRate(price, msg.value) */\n      swap1\n      pop\n        /* \"FundMe/contracts/FundMe.sol\":2369:2379  minimumUsd */\n      sload(0x01)\n        /* \"FundMe/contracts/FundMe.sol\":2351:2365  conversionRate */\n      dup2\n        /* \"FundMe/contracts/FundMe.sol\":2351:2379  conversionRate >= minimumUsd */\n      lt\n      iszero\n        /* \"FundMe/contracts/FundMe.sol\":2343:2406  require(conversionRate >= minimumUsd, \"didn't send enough USD\") */\n      tag_83\n      jumpi\n      mload(0x40)\n      0x08c379a000000000000000000000000000000000000000000000000000000000\n      dup2\n      mstore\n      0x04\n      add\n      tag_84\n      swap1\n      tag_85\n      jump\t// in\n    tag_84:\n      mload(0x40)\n      dup1\n      swap2\n      sub\n      swap1\n      revert\n    tag_83:\n        /* \"FundMe/contracts/FundMe.sol\":2421:2442  addressIsActiveFunder */\n      0x04\n        /* \"FundMe/contracts/FundMe.sol\":2421:2454  addressIsActiveFunder[msg.sender] */\n      0x00\n        /* \"FundMe/contracts/FundMe.sol\":2443:2453  msg.sender */\n      caller\n        /* \"FundMe/contracts/FundMe.sol\":2421:2454  addressIsActiveFunder[msg.sender] */\n      0xffffffffffffffffffffffffffffffffffffffff\n      and\n      0xffffffffffffffffffffffffffffffffffffffff\n      and\n      dup2\n      mstore\n      0x20\n      add\n      swap1\n      dup2\n      mstore\n      0x20\n      add\n      0x00\n      keccak256\n      0x00\n      swap1\n      sload\n      swap1\n      0x0100\n      exp\n      swap1\n      div\n      0xff\n      and\n        /* \"FundMe/contracts/FundMe.sol\":2416:2630  if (!addressIsActiveFunder[msg.sender]) {... */\n      tag_86\n      jumpi\n        /* \"FundMe/contracts/FundMe.sol\":2513:2520  funders */\n      0x02\n        /* \"FundMe/contracts/FundMe.sol\":2513:2527  funders.length */\n      dup1\n      sload\n      swap1\n      pop\n        /* \"FundMe/contracts/FundMe.sol\":2470:2498  addressToIndexInFundersArray */\n      0x03\n        /* \"FundMe/contracts/FundMe.sol\":2470:2510  addressToIndexInFundersArray[msg.sender] */\n      0x00\n        /* \"FundMe/contracts/FundMe.sol\":2499:2509  msg.sender */\n      caller\n        /* \"FundMe/contracts/FundMe.sol\":2470:2510  addressToIndexInFundersArray[msg.sender] */\n      0xffffffffffffffffffffffffffffffffffffffff\n      and\n      0xffffffffffffffffffffffffffffffffffffffff\n      and\n      dup2\n      mstore\n      0x20\n      add\n      swap1\n      dup2\n      mstore\n      0x20\n      add\n      0x00\n      keccak256\n        /* \"FundMe/contracts/FundMe.sol\":2470:2527  addressToIndexInFundersArray[msg.sender] = funders.length */\n      dup2\n      swap1\n      sstore\n      pop\n        /* \"FundMe/contracts/FundMe.sol\":2541:2548  funders */\n      0x02\n        /* \"FundMe/contracts/FundMe.sol\":2554:2564  msg.sender */\n      caller\n        /* \"FundMe/contracts/FundMe.sol\":2541:2565  funders.push(msg.sender) */\n      swap1\n      dup1\n      0x01\n      dup2\n      sload\n      add\n      dup1\n      dup3\n      sstore\n      dup1\n      swap2\n      pop\n      pop\n      0x01\n      swap1\n      sub\n      swap1\n      0x00\n      mstore\n      keccak256(0x00, 0x20)\n      add\n      0x00\n      swap1\n      swap2\n      swap1\n      swap2\n      swap1\n      swap2\n      0x0100\n      exp\n      dup2\n      sload\n      dup2\n      0xffffffffffffffffffffffffffffffffffffffff\n      mul\n      not\n      and\n      swap1\n      dup4\n      0xffffffffffffffffffffffffffffffffffffffff\n      and\n      mul\n      or\n      swap1\n      sstore\n      pop\n        /* \"FundMe/contracts/FundMe.sol\":2615:2619  true */\n      0x01\n        /* \"FundMe/contracts/FundMe.sol\":2579:2600  addressIsActiveFunder */\n      0x04\n        /* \"FundMe/contracts/FundMe.sol\":2579:2612  addressIsActiveFunder[msg.sender] */\n      0x00\n        /* \"FundMe/contracts/FundMe.sol\":2601:2611  msg.sender */\n      caller\n        /* \"FundMe/contracts/FundMe.sol\":2579:2612  addressIsActiveFunder[msg.sender] */\n      0xffffffffffffffffffffffffffffffffffffffff\n      and\n      0xffffffffffffffffffffffffffffffffffffffff\n      and\n      dup2\n      mstore\n      0x20\n      add\n      swap1\n      dup2\n      mstore\n      0x20\n      add\n      0x00\n      keccak256\n      0x00\n        /* \"FundMe/contracts/FundMe.sol\":2579:2619  addressIsActiveFunder[msg.sender] = true */\n      0x0100\n      exp\n      dup2\n      sload\n      dup2\n      0xff\n      mul\n      not\n      and\n      swap1\n      dup4\n      iszero\n      iszero\n      mul\n      or\n      swap1\n      sstore\n      pop\n        /* \"FundMe/contracts/FundMe.sol\":2416:2630  if (!addressIsActiveFunder[msg.sender]) {... */\n    tag_86:\n        /* \"FundMe/contracts/FundMe.sol\":2679:2688  msg.value */\n      callvalue\n        /* \"FundMe/contracts/FundMe.sol\":2639:2663  addressToAvailableAmount */\n      0x05\n        /* \"FundMe/contracts/FundMe.sol\":2639:2675  addressToAvailableAmount[msg.sender] */\n      0x00\n        /* \"FundMe/contracts/FundMe.sol\":2664:2674  msg.sender */\n      caller\n        /* \"FundMe/contracts/FundMe.sol\":2639:2675  addressToAvailableAmount[msg.sender] */\n      0xffffffffffffffffffffffffffffffffffffffff\n      and\n      0xffffffffffffffffffffffffffffffffffffffff\n      and\n      dup2\n      mstore\n      0x20\n      add\n      swap1\n      dup2\n      mstore\n      0x20\n      add\n      0x00\n      keccak256\n      0x00\n        /* \"FundMe/contracts/FundMe.sol\":2639:2688  addressToAvailableAmount[msg.sender] += msg.value */\n      dup3\n      dup3\n      sload\n      tag_88\n      swap2\n      swap1\n      tag_89\n      jump\t// in\n    tag_88:\n      swap3\n      pop\n      pop\n      dup2\n      swap1\n      sstore\n      pop\n        /* \"FundMe/contracts/FundMe.sol\":2227:2695  {... */\n      pop\n      pop\n        /* \"FundMe/contracts/FundMe.sol\":2196:2695  function fund() public payable {... */\n      jump\t// out\n        /* \"FundMe/contracts/FundMe.sol\":531:591  mapping (address => uint256) public addressToAvailableAmount */\n    tag_26:\n      mstore(0x20, 0x05)\n      dup1\n      0x00\n      mstore\n      keccak256(0x00, 0x40)\n      0x00\n      swap2\n      pop\n      swap1\n      pop\n      sload\n      dup2\n      jump\t// out\n        /* \"FundMe/contracts/FundMe.sol\":339:364  uint256 public minimumUsd */\n    tag_31:\n      sload(0x01)\n      dup2\n      jump\t// out\n        /* \"FundMe/contracts/FundMe.sol\":5987:6134  function getConversionRate(uint256 _price, uint256 _amountInWEI) public pure returns (uint256) {... */\n    tag_37:\n        /* \"FundMe/contracts/FundMe.sol\":6073:6080  uint256 */\n      0x00\n        /* \"FundMe/contracts/FundMe.sol\":6123:6127  1e18 */\n      0x0de0b6b3a7640000\n        /* \"FundMe/contracts/FundMe.sol\":6109:6121  _amountInWEI */\n      dup3\n        /* \"FundMe/contracts/FundMe.sol\":6100:6106  _price */\n      dup5\n        /* \"FundMe/contracts/FundMe.sol\":6100:6121  _price * _amountInWEI */\n      tag_91\n      swap2\n      swap1\n      tag_92\n      jump\t// in\n    tag_91:\n        /* \"FundMe/contracts/FundMe.sol\":6099:6127  (_price * _amountInWEI)/1e18 */\n      tag_93\n      swap2\n      swap1\n      tag_94\n      jump\t// in\n    tag_93:\n        /* \"FundMe/contracts/FundMe.sol\":6092:6127  return (_price * _amountInWEI)/1e18 */\n      swap1\n      pop\n        /* \"FundMe/contracts/FundMe.sol\":5987:6134  function getConversionRate(uint256 _price, uint256 _amountInWEI) public pure returns (uint256) {... */\n      swap3\n      swap2\n      pop\n      pop\n      jump\t// out\n        /* \"FundMe/contracts/FundMe.sol\":3439:3812  function totalWithdraw() public noReentrant {... */\n    tag_41:\n        /* \"FundMe/contracts/FundMe.sol\":827:832  false */\n      0x00\n        /* \"FundMe/contracts/FundMe.sol\":817:832  locked == false */\n      iszero\n      iszero\n        /* \"FundMe/contracts/FundMe.sol\":817:823  locked */\n      0x00\n      dup1\n      sload\n      swap1\n      0x0100\n      exp\n      swap1\n      div\n      0xff\n      and\n        /* \"FundMe/contracts/FundMe.sol\":817:832  locked == false */\n      iszero\n      iszero\n      eq\n        /* \"FundMe/contracts/FundMe.sol\":808:878  require (locked == false, \"No re-entrancy allowed, please try again.\") */\n      tag_96\n      jumpi\n      mload(0x40)\n      0x08c379a000000000000000000000000000000000000000000000000000000000\n      dup2\n      mstore\n      0x04\n      add\n      tag_97\n      swap1\n      tag_98\n      jump\t// in\n    tag_97:\n      mload(0x40)\n      dup1\n      swap2\n      sub\n      swap1\n      revert\n    tag_96:\n        /* \"FundMe/contracts/FundMe.sol\":1004:1008  true */\n      0x01\n        /* \"FundMe/contracts/FundMe.sol\":995:1001  locked */\n      0x00\n      dup1\n        /* \"FundMe/contracts/FundMe.sol\":995:1008  locked = true */\n      0x0100\n      exp\n      dup2\n      sload\n      dup2\n      0xff\n      mul\n      not\n      and\n      swap1\n      dup4\n      iszero\n      iszero\n      mul\n      or\n      swap1\n      sstore\n      pop\n        /* \"FundMe/contracts/FundMe.sol\":3493:3508  uint256 balance */\n      0x00\n        /* \"FundMe/contracts/FundMe.sol\":3511:3535  addressToAvailableAmount */\n      0x05\n        /* \"FundMe/contracts/FundMe.sol\":3511:3547  addressToAvailableAmount[msg.sender] */\n      0x00\n        /* \"FundMe/contracts/FundMe.sol\":3536:3546  msg.sender */\n      caller\n        /* \"FundMe/contracts/FundMe.sol\":3511:3547  addressToAvailableAmount[msg.sender] */\n      0xffffffffffffffffffffffffffffffffffffffff\n      and\n      0xffffffffffffffffffffffffffffffffffffffff\n      and\n      dup2\n      mstore\n      0x20\n      add\n      swap1\n      dup2\n      mstore\n      0x20\n      add\n      0x00\n      keccak256\n      sload\n        /* \"FundMe/contracts/FundMe.sol\":3493:3547  uint256 balance = addressToAvailableAmount[msg.sender] */\n      swap1\n      pop\n        /* \"FundMe/contracts/FundMe.sol\":3575:3576  0 */\n      0x00\n        /* \"FundMe/contracts/FundMe.sol\":3565:3572  balance */\n      dup2\n        /* \"FundMe/contracts/FundMe.sol\":3565:3576  balance > 0 */\n      gt\n        /* \"FundMe/contracts/FundMe.sol\":3557:3601  require(balance > 0, \"Insufficient balance\") */\n      tag_100\n      jumpi\n      mload(0x40)\n      0x08c379a000000000000000000000000000000000000000000000000000000000\n      dup2\n      mstore\n      0x04\n      add\n      tag_101\n      swap1\n      tag_102\n      jump\t// in\n    tag_101:\n      mload(0x40)\n      dup1\n      swap2\n      sub\n      swap1\n      revert\n    tag_100:\n        /* \"FundMe/contracts/FundMe.sol\":3650:3651  0 */\n      0x00\n        /* \"FundMe/contracts/FundMe.sol\":3611:3635  addressToAvailableAmount */\n      0x05\n        /* \"FundMe/contracts/FundMe.sol\":3611:3647  addressToAvailableAmount[msg.sender] */\n      0x00\n        /* \"FundMe/contracts/FundMe.sol\":3636:3646  msg.sender */\n      caller\n        /* \"FundMe/contracts/FundMe.sol\":3611:3647  addressToAvailableAmount[msg.sender] */\n      0xffffffffffffffffffffffffffffffffffffffff\n      and\n      0xffffffffffffffffffffffffffffffffffffffff\n      and\n      dup2\n      mstore\n      0x20\n      add\n      swap1\n      dup2\n      mstore\n      0x20\n      add\n      0x00\n      keccak256\n        /* \"FundMe/contracts/FundMe.sol\":3611:3651  addressToAvailableAmount[msg.sender] = 0 */\n      dup2\n      swap1\n      sstore\n      pop\n        /* \"FundMe/contracts/FundMe.sol\":3662:3674  bool success */\n      0x00\n        /* \"FundMe/contracts/FundMe.sol\":3680:3690  msg.sender */\n      caller\n        /* \"FundMe/contracts/FundMe.sol\":3680:3695  msg.sender.call */\n      0xffffffffffffffffffffffffffffffffffffffff\n      and\n        /* \"FundMe/contracts/FundMe.sol\":3703:3710  balance */\n      dup3\n        /* \"FundMe/contracts/FundMe.sol\":3680:3715  msg.sender.call{value: balance}(\"\") */\n      mload(0x40)\n      tag_103\n      swap1\n      tag_104\n      jump\t// in\n    tag_103:\n      0x00\n      mload(0x40)\n      dup1\n      dup4\n      sub\n      dup2\n      dup6\n      dup8\n      gas\n      call\n      swap3\n      pop\n      pop\n      pop\n      returndatasize\n      dup1\n      0x00\n      dup2\n      eq\n      tag_107\n      jumpi\n      mload(0x40)\n      swap2\n      pop\n      and(add(returndatasize, 0x3f), not(0x1f))\n      dup3\n      add\n      0x40\n      mstore\n      returndatasize\n      dup3\n      mstore\n      returndatasize\n      0x00\n      0x20\n      dup5\n      add\n      returndatacopy\n      jump(tag_106)\n    tag_107:\n      0x60\n      swap2\n      pop\n    tag_106:\n      pop\n        /* \"FundMe/contracts/FundMe.sol\":3661:3715  (bool success, ) = msg.sender.call{value: balance}(\"\") */\n      pop\n      swap1\n      pop\n        /* \"FundMe/contracts/FundMe.sol\":3744:3748  true */\n      0x01\n        /* \"FundMe/contracts/FundMe.sol\":3733:3748  success == true */\n      iszero\n      iszero\n        /* \"FundMe/contracts/FundMe.sol\":3733:3740  success */\n      dup2\n        /* \"FundMe/contracts/FundMe.sol\":3733:3748  success == true */\n      iszero\n      iszero\n      eq\n        /* \"FundMe/contracts/FundMe.sol\":3725:3769  require(success == true, \"Transfer failed.\") */\n      tag_108\n      jumpi\n      mload(0x40)\n      0x08c379a000000000000000000000000000000000000000000000000000000000\n      dup2\n      mstore\n      0x04\n      add\n      tag_109\n      swap1\n      tag_110\n      jump\t// in\n    tag_109:\n      mload(0x40)\n      dup1\n      swap2\n      sub\n      swap1\n      revert\n    tag_108:\n        /* \"FundMe/contracts/FundMe.sol\":3779:3805  cleanAfterUserWithdrawal() */\n      tag_111\n        /* \"FundMe/contracts/FundMe.sol\":3779:3803  cleanAfterUserWithdrawal */\n      tag_112\n        /* \"FundMe/contracts/FundMe.sol\":3779:3805  cleanAfterUserWithdrawal() */\n      jump\t// in\n    tag_111:\n        /* \"FundMe/contracts/FundMe.sol\":3483:3812  {... */\n      pop\n      pop\n        /* \"FundMe/contracts/FundMe.sol\":1189:1194  false */\n      0x00\n        /* \"FundMe/contracts/FundMe.sol\":1180:1186  locked */\n      dup1\n      0x00\n        /* \"FundMe/contracts/FundMe.sol\":1180:1194  locked = false */\n      0x0100\n      exp\n      dup2\n      sload\n      dup2\n      0xff\n      mul\n      not\n      and\n      swap1\n      dup4\n      iszero\n      iszero\n      mul\n      or\n      swap1\n      sstore\n      pop\n        /* \"FundMe/contracts/FundMe.sol\":3439:3812  function totalWithdraw() public noReentrant {... */\n      jump\t// out\n        /* \"FundMe/contracts/FundMe.sol\":3818:4118  function ownerWithdrawFunds() onlyOwner public {... */\n    tag_44:\n        /* \"FundMe/contracts/FundMe.sol\":652:657  owner */\n      0x00\n      0x01\n      swap1\n      sload\n      swap1\n      0x0100\n      exp\n      swap1\n      div\n      0xffffffffffffffffffffffffffffffffffffffff\n      and\n        /* \"FundMe/contracts/FundMe.sol\":638:657  msg.sender == owner */\n      0xffffffffffffffffffffffffffffffffffffffff\n      and\n        /* \"FundMe/contracts/FundMe.sol\":638:648  msg.sender */\n      caller\n        /* \"FundMe/contracts/FundMe.sol\":638:657  msg.sender == owner */\n      0xffffffffffffffffffffffffffffffffffffffff\n      and\n      eq\n        /* \"FundMe/contracts/FundMe.sol\":629:699  require (msg.sender == owner, \"Only owner can execute this function.\") */\n      tag_114\n      jumpi\n      mload(0x40)\n      0x08c379a000000000000000000000000000000000000000000000000000000000\n      dup2\n      mstore\n      0x04\n      add\n      tag_115\n      swap1\n      tag_116\n      jump\t// in\n    tag_115:\n      mload(0x40)\n      dup1\n      swap2\n      sub\n      swap1\n      revert\n    tag_114:\n        /* \"FundMe/contracts/FundMe.sol\":3898:3903  owner */\n      0x00\n      0x01\n      swap1\n      sload\n      swap1\n      0x0100\n      exp\n      swap1\n      div\n      0xffffffffffffffffffffffffffffffffffffffff\n      and\n        /* \"FundMe/contracts/FundMe.sol\":3884:3903  msg.sender == owner */\n      0xffffffffffffffffffffffffffffffffffffffff\n      and\n        /* \"FundMe/contracts/FundMe.sol\":3884:3894  msg.sender */\n      caller\n        /* \"FundMe/contracts/FundMe.sol\":3884:3903  msg.sender == owner */\n      0xffffffffffffffffffffffffffffffffffffffff\n      and\n      eq\n        /* \"FundMe/contracts/FundMe.sol\":3875:3942  require (msg.sender == owner, \"Only owner can call this function.\") */\n      tag_118\n      jumpi\n      mload(0x40)\n      0x08c379a000000000000000000000000000000000000000000000000000000000\n      dup2\n      mstore\n      0x04\n      add\n      tag_119\n      swap1\n      tag_120\n      jump\t// in\n    tag_119:\n      mload(0x40)\n      dup1\n      swap2\n      sub\n      swap1\n      revert\n    tag_118:\n        /* \"FundMe/contracts/FundMe.sol\":3953:3965  bool success */\n      0x00\n        /* \"FundMe/contracts/FundMe.sol\":3971:3981  msg.sender */\n      caller\n        /* \"FundMe/contracts/FundMe.sol\":3971:3986  msg.sender.call */\n      0xffffffffffffffffffffffffffffffffffffffff\n      and\n        /* \"FundMe/contracts/FundMe.sol\":3994:4015  address(this).balance */\n      selfbalance\n        /* \"FundMe/contracts/FundMe.sol\":3971:4020  msg.sender.call{value: address(this).balance}(\"\") */\n      mload(0x40)\n      tag_121\n      swap1\n      tag_104\n      jump\t// in\n    tag_121:\n      0x00\n      mload(0x40)\n      dup1\n      dup4\n      sub\n      dup2\n      dup6\n      dup8\n      gas\n      call\n      swap3\n      pop\n      pop\n      pop\n      returndatasize\n      dup1\n      0x00\n      dup2\n      eq\n      tag_124\n      jumpi\n      mload(0x40)\n      swap2\n      pop\n      and(add(returndatasize, 0x3f), not(0x1f))\n      dup3\n      add\n      0x40\n      mstore\n      returndatasize\n      dup3\n      mstore\n      returndatasize\n      0x00\n      0x20\n      dup5\n      add\n      returndatacopy\n      jump(tag_123)\n    tag_124:\n      0x60\n      swap2\n      pop\n    tag_123:\n      pop\n        /* \"FundMe/contracts/FundMe.sol\":3952:4020  (bool success, ) = msg.sender.call{value: address(this).balance}(\"\") */\n      pop\n      swap1\n      pop\n        /* \"FundMe/contracts/FundMe.sol\":4049:4053  true */\n      0x01\n        /* \"FundMe/contracts/FundMe.sol\":4038:4053  success == true */\n      iszero\n      iszero\n        /* \"FundMe/contracts/FundMe.sol\":4038:4045  success */\n      dup2\n        /* \"FundMe/contracts/FundMe.sol\":4038:4053  success == true */\n      iszero\n      iszero\n      eq\n        /* \"FundMe/contracts/FundMe.sol\":4030:4074  require(success == true, \"Transfer failed.\") */\n      tag_125\n      jumpi\n      mload(0x40)\n      0x08c379a000000000000000000000000000000000000000000000000000000000\n      dup2\n      mstore\n      0x04\n      add\n      tag_126\n      swap1\n      tag_110\n      jump\t// in\n    tag_126:\n      mload(0x40)\n      dup1\n      swap2\n      sub\n      swap1\n      revert\n    tag_125:\n        /* \"FundMe/contracts/FundMe.sol\":4084:4111  cleanAfterOwnerWithdrawal() */\n      tag_127\n        /* \"FundMe/contracts/FundMe.sol\":4084:4109  cleanAfterOwnerWithdrawal */\n      tag_128\n        /* \"FundMe/contracts/FundMe.sol\":4084:4111  cleanAfterOwnerWithdrawal() */\n      jump\t// in\n    tag_127:\n        /* \"FundMe/contracts/FundMe.sol\":3865:4118  {... */\n      pop\n        /* \"FundMe/contracts/FundMe.sol\":3818:4118  function ownerWithdrawFunds() onlyOwner public {... */\n      jump\t// out\n        /* \"FundMe/contracts/FundMe.sol\":2798:3338  function partialWithdraw(uint256 _amount) public noReentrant {... */\n    tag_49:\n        /* \"FundMe/contracts/FundMe.sol\":827:832  false */\n      0x00\n        /* \"FundMe/contracts/FundMe.sol\":817:832  locked == false */\n      iszero\n      iszero\n        /* \"FundMe/contracts/FundMe.sol\":817:823  locked */\n      0x00\n      dup1\n      sload\n      swap1\n      0x0100\n      exp\n      swap1\n      div\n      0xff\n      and\n        /* \"FundMe/contracts/FundMe.sol\":817:832  locked == false */\n      iszero\n      iszero\n      eq\n        /* \"FundMe/contracts/FundMe.sol\":808:878  require (locked == false, \"No re-entrancy allowed, please try again.\") */\n      tag_130\n      jumpi\n      mload(0x40)\n      0x08c379a000000000000000000000000000000000000000000000000000000000\n      dup2\n      mstore\n      0x04\n      add\n      tag_131\n      swap1\n      tag_98\n      jump\t// in\n    tag_131:\n      mload(0x40)\n      dup1\n      swap2\n      sub\n      swap1\n      revert\n    tag_130:\n        /* \"FundMe/contracts/FundMe.sol\":1004:1008  true */\n      0x01\n        /* \"FundMe/contracts/FundMe.sol\":995:1001  locked */\n      0x00\n      dup1\n        /* \"FundMe/contracts/FundMe.sol\":995:1008  locked = true */\n      0x0100\n      exp\n      dup2\n      sload\n      dup2\n      0xff\n      mul\n      not\n      and\n      swap1\n      dup4\n      iszero\n      iszero\n      mul\n      or\n      swap1\n      sstore\n      pop\n        /* \"FundMe/contracts/FundMe.sol\":2914:2918  true */\n      0x01\n        /* \"FundMe/contracts/FundMe.sol\":2877:2918  addressIsActiveFunder[msg.sender] == true */\n      iszero\n      iszero\n        /* \"FundMe/contracts/FundMe.sol\":2877:2898  addressIsActiveFunder */\n      0x04\n        /* \"FundMe/contracts/FundMe.sol\":2877:2910  addressIsActiveFunder[msg.sender] */\n      0x00\n        /* \"FundMe/contracts/FundMe.sol\":2899:2909  msg.sender */\n      caller\n        /* \"FundMe/contracts/FundMe.sol\":2877:2910  addressIsActiveFunder[msg.sender] */\n      0xffffffffffffffffffffffffffffffffffffffff\n      and\n      0xffffffffffffffffffffffffffffffffffffffff\n      and\n      dup2\n      mstore\n      0x20\n      add\n      swap1\n      dup2\n      mstore\n      0x20\n      add\n      0x00\n      keccak256\n      0x00\n      swap1\n      sload\n      swap1\n      0x0100\n      exp\n      swap1\n      div\n      0xff\n      and\n        /* \"FundMe/contracts/FundMe.sol\":2877:2918  addressIsActiveFunder[msg.sender] == true */\n      iszero\n      iszero\n      eq\n        /* \"FundMe/contracts/FundMe.sol\":2869:2954  require(addressIsActiveFunder[msg.sender] == true, \"Wallet address is not a funder.\") */\n      tag_133\n      jumpi\n      mload(0x40)\n      0x08c379a000000000000000000000000000000000000000000000000000000000\n      dup2\n      mstore\n      0x04\n      add\n      tag_134\n      swap1\n      tag_135\n      jump\t// in\n    tag_134:\n      mload(0x40)\n      dup1\n      swap2\n      sub\n      swap1\n      revert\n    tag_133:\n        /* \"FundMe/contracts/FundMe.sol\":3004:3011  _amount */\n      dup1\n        /* \"FundMe/contracts/FundMe.sol\":2964:2988  addressToAvailableAmount */\n      0x05\n        /* \"FundMe/contracts/FundMe.sol\":2964:3000  addressToAvailableAmount[msg.sender] */\n      0x00\n        /* \"FundMe/contracts/FundMe.sol\":2989:2999  msg.sender */\n      caller\n        /* \"FundMe/contracts/FundMe.sol\":2964:3000  addressToAvailableAmount[msg.sender] */\n      0xffffffffffffffffffffffffffffffffffffffff\n      and\n      0xffffffffffffffffffffffffffffffffffffffff\n      and\n      dup2\n      mstore\n      0x20\n      add\n      swap1\n      dup2\n      mstore\n      0x20\n      add\n      0x00\n      keccak256\n      0x00\n        /* \"FundMe/contracts/FundMe.sol\":2964:3011  addressToAvailableAmount[msg.sender] -= _amount */\n      dup3\n      dup3\n      sload\n      tag_136\n      swap2\n      swap1\n      tag_137\n      jump\t// in\n    tag_136:\n      swap3\n      pop\n      pop\n      dup2\n      swap1\n      sstore\n      pop\n        /* \"FundMe/contracts/FundMe.sol\":3022:3034  bool success */\n      0x00\n        /* \"FundMe/contracts/FundMe.sol\":3040:3050  msg.sender */\n      caller\n        /* \"FundMe/contracts/FundMe.sol\":3040:3055  msg.sender.call */\n      0xffffffffffffffffffffffffffffffffffffffff\n      and\n        /* \"FundMe/contracts/FundMe.sol\":3063:3070  _amount */\n      dup3\n        /* \"FundMe/contracts/FundMe.sol\":3040:3075  msg.sender.call{value: _amount}(\"\") */\n      mload(0x40)\n      tag_138\n      swap1\n      tag_104\n      jump\t// in\n    tag_138:\n      0x00\n      mload(0x40)\n      dup1\n      dup4\n      sub\n      dup2\n      dup6\n      dup8\n      gas\n      call\n      swap3\n      pop\n      pop\n      pop\n      returndatasize\n      dup1\n      0x00\n      dup2\n      eq\n      tag_141\n      jumpi\n      mload(0x40)\n      swap2\n      pop\n      and(add(returndatasize, 0x3f), not(0x1f))\n      dup3\n      add\n      0x40\n      mstore\n      returndatasize\n      dup3\n      mstore\n      returndatasize\n      0x00\n      0x20\n      dup5\n      add\n      returndatacopy\n      jump(tag_140)\n    tag_141:\n      0x60\n      swap2\n      pop\n    tag_140:\n      pop\n        /* \"FundMe/contracts/FundMe.sol\":3021:3075  (bool success, ) = msg.sender.call{value: _amount}(\"\") */\n      pop\n      swap1\n      pop\n        /* \"FundMe/contracts/FundMe.sol\":3104:3108  true */\n      0x01\n        /* \"FundMe/contracts/FundMe.sol\":3093:3108  success == true */\n      iszero\n      iszero\n        /* \"FundMe/contracts/FundMe.sol\":3093:3100  success */\n      dup2\n        /* \"FundMe/contracts/FundMe.sol\":3093:3108  success == true */\n      iszero\n      iszero\n      eq\n        /* \"FundMe/contracts/FundMe.sol\":3085:3129  require(success == true, \"Transfer failed.\") */\n      tag_142\n      jumpi\n      mload(0x40)\n      0x08c379a000000000000000000000000000000000000000000000000000000000\n      dup2\n      mstore\n      0x04\n      add\n      tag_143\n      swap1\n      tag_110\n      jump\t// in\n    tag_143:\n      mload(0x40)\n      dup1\n      swap2\n      sub\n      swap1\n      revert\n    tag_142:\n        /* \"FundMe/contracts/FundMe.sol\":3279:3280  0 */\n      0x00\n        /* \"FundMe/contracts/FundMe.sol\":3239:3263  addressToAvailableAmount */\n      0x05\n        /* \"FundMe/contracts/FundMe.sol\":3239:3275  addressToAvailableAmount[msg.sender] */\n      0x00\n        /* \"FundMe/contracts/FundMe.sol\":3264:3274  msg.sender */\n      caller\n        /* \"FundMe/contracts/FundMe.sol\":3239:3275  addressToAvailableAmount[msg.sender] */\n      0xffffffffffffffffffffffffffffffffffffffff\n      and\n      0xffffffffffffffffffffffffffffffffffffffff\n      and\n      dup2\n      mstore\n      0x20\n      add\n      swap1\n      dup2\n      mstore\n      0x20\n      add\n      0x00\n      keccak256\n      sload\n        /* \"FundMe/contracts/FundMe.sol\":3239:3280  addressToAvailableAmount[msg.sender] <= 0 */\n      gt\n        /* \"FundMe/contracts/FundMe.sol\":3235:3332  if (addressToAvailableAmount[msg.sender] <= 0){... */\n      tag_144\n      jumpi\n        /* \"FundMe/contracts/FundMe.sol\":3295:3321  cleanAfterUserWithdrawal() */\n      tag_145\n        /* \"FundMe/contracts/FundMe.sol\":3295:3319  cleanAfterUserWithdrawal */\n      tag_112\n        /* \"FundMe/contracts/FundMe.sol\":3295:3321  cleanAfterUserWithdrawal() */\n      jump\t// in\n    tag_145:\n        /* \"FundMe/contracts/FundMe.sol\":3235:3332  if (addressToAvailableAmount[msg.sender] <= 0){... */\n    tag_144:\n        /* \"FundMe/contracts/FundMe.sol\":2859:3338  {... */\n      pop\n        /* \"FundMe/contracts/FundMe.sol\":1189:1194  false */\n      0x00\n        /* \"FundMe/contracts/FundMe.sol\":1180:1186  locked */\n      dup1\n      0x00\n        /* \"FundMe/contracts/FundMe.sol\":1180:1194  locked = false */\n      0x0100\n      exp\n      dup2\n      sload\n      dup2\n      0xff\n      mul\n      not\n      and\n      swap1\n      dup4\n      iszero\n      iszero\n      mul\n      or\n      swap1\n      sstore\n      pop\n        /* \"FundMe/contracts/FundMe.sol\":2798:3338  function partialWithdraw(uint256 _amount) public noReentrant {... */\n      pop\n      jump\t// out\n        /* \"FundMe/contracts/FundMe.sol\":313:333  address public owner */\n    tag_52:\n      0x00\n      0x01\n      swap1\n      sload\n      swap1\n      0x0100\n      exp\n      swap1\n      div\n      0xffffffffffffffffffffffffffffffffffffffff\n      and\n      dup2\n      jump\t// out\n        /* \"FundMe/contracts/FundMe.sol\":5618:5883  function getPrice() public view returns (uint256) {... */\n    tag_57:\n        /* \"FundMe/contracts/FundMe.sol\":5659:5666  uint256 */\n      0x00\n        /* \"FundMe/contracts/FundMe.sol\":5680:5692  int256 price */\n      dup1\n        /* \"FundMe/contracts/FundMe.sol\":5722:5764  0x694AA1769357215DE4FAC081bf1f309aDC325306 */\n      0x694aa1769357215de4fac081bf1f309adc325306\n        /* \"FundMe/contracts/FundMe.sol\":5700:5781  AggregatorV3Interface(0x694AA1769357215DE4FAC081bf1f309aDC325306).latestRoundData */\n      0xffffffffffffffffffffffffffffffffffffffff\n      and\n      0xfeaf968c\n        /* \"FundMe/contracts/FundMe.sol\":5700:5783  AggregatorV3Interface(0x694AA1769357215DE4FAC081bf1f309aDC325306).latestRoundData() */\n      mload(0x40)\n      dup2\n      0xffffffff\n      and\n      0xe0\n      shl\n      dup2\n      mstore\n      0x04\n      add\n      0xa0\n      mload(0x40)\n      dup1\n      dup4\n      sub\n      dup2\n      dup7\n      gas\n      staticcall\n      iszero\n      dup1\n      iszero\n      tag_148\n      jumpi\n      returndatasize\n      0x00\n      dup1\n      returndatacopy\n      revert(0x00, returndatasize)\n    tag_148:\n      pop\n      pop\n      pop\n      pop\n      mload(0x40)\n      returndatasize\n      not(0x1f)\n      0x1f\n      dup3\n      add\n      and\n      dup3\n      add\n      dup1\n      0x40\n      mstore\n      pop\n      dup2\n      add\n      swap1\n      tag_149\n      swap2\n      swap1\n      tag_150\n      jump\t// in\n    tag_149:\n        /* \"FundMe/contracts/FundMe.sol\":5678:5783  (,int256 price ,,,) = AggregatorV3Interface(0x694AA1769357215DE4FAC081bf1f309aDC325306).latestRoundData() */\n      pop\n      pop\n      pop\n      swap2\n      pop\n      pop\n        /* \"FundMe/contracts/FundMe.sol\":5809:5810  0 */\n      0x00\n        /* \"FundMe/contracts/FundMe.sol\":5801:5806  price */\n      dup2\n        /* \"FundMe/contracts/FundMe.sol\":5801:5810  price > 0 */\n      sgt\n        /* \"FundMe/contracts/FundMe.sol\":5793:5842  require(price > 0, \"Negative price not allowed.\") */\n      tag_151\n      jumpi\n      mload(0x40)\n      0x08c379a000000000000000000000000000000000000000000000000000000000\n      dup2\n      mstore\n      0x04\n      add\n      tag_152\n      swap1\n      tag_153\n      jump\t// in\n    tag_152:\n      mload(0x40)\n      dup1\n      swap2\n      sub\n      swap1\n      revert\n    tag_151:\n        /* \"FundMe/contracts/FundMe.sol\":5859:5876  price.toUint256() */\n      tag_154\n        /* \"FundMe/contracts/FundMe.sol\":5859:5864  price */\n      dup2\n        /* \"FundMe/contracts/FundMe.sol\":5859:5874  price.toUint256 */\n      tag_155\n        /* \"FundMe/contracts/FundMe.sol\":5859:5876  price.toUint256() */\n      jump\t// in\n    tag_154:\n        /* \"FundMe/contracts/FundMe.sol\":5852:5876  return price.toUint256() */\n      swap2\n      pop\n      pop\n        /* \"FundMe/contracts/FundMe.sol\":5618:5883  function getPrice() public view returns (uint256) {... */\n      swap1\n      jump\t// out\n        /* \"FundMe/contracts/FundMe.sol\":401:465  mapping (address => uint256) public addressToIndexInFundersArray */\n    tag_63:\n      mstore(0x20, 0x03)\n      dup1\n      0x00\n      mstore\n      keccak256(0x00, 0x40)\n      0x00\n      swap2\n      pop\n      swap1\n      pop\n      sload\n      dup2\n      jump\t// out\n        /* \"FundMe/contracts/FundMe.sol\":1646:1914  function changeMinimumUsd(uint256 _newMinimumUsd) onlyOwner public {... */\n    tag_68:\n        /* \"FundMe/contracts/FundMe.sol\":652:657  owner */\n      0x00\n      0x01\n      swap1\n      sload\n      swap1\n      0x0100\n      exp\n      swap1\n      div\n      0xffffffffffffffffffffffffffffffffffffffff\n      and\n        /* \"FundMe/contracts/FundMe.sol\":638:657  msg.sender == owner */\n      0xffffffffffffffffffffffffffffffffffffffff\n      and\n        /* \"FundMe/contracts/FundMe.sol\":638:648  msg.sender */\n      caller\n        /* \"FundMe/contracts/FundMe.sol\":638:657  msg.sender == owner */\n      0xffffffffffffffffffffffffffffffffffffffff\n      and\n      eq\n        /* \"FundMe/contracts/FundMe.sol\":629:699  require (msg.sender == owner, \"Only owner can execute this function.\") */\n      tag_157\n      jumpi\n      mload(0x40)\n      0x08c379a000000000000000000000000000000000000000000000000000000000\n      dup2\n      mstore\n      0x04\n      add\n      tag_158\n      swap1\n      tag_116\n      jump\t// in\n    tag_158:\n      mload(0x40)\n      dup1\n      swap2\n      sub\n      swap1\n      revert\n    tag_157:\n        /* \"FundMe/contracts/FundMe.sol\":1723:1744  uint256 newMinimumUsd */\n      0x00\n        /* \"FundMe/contracts/FundMe.sol\":1762:1765  1e8 */\n      0x05f5e100\n        /* \"FundMe/contracts/FundMe.sol\":1747:1761  _newMinimumUsd */\n      dup3\n        /* \"FundMe/contracts/FundMe.sol\":1747:1765  _newMinimumUsd*1e8 */\n      tag_160\n      swap2\n      swap1\n      tag_92\n      jump\t// in\n    tag_160:\n        /* \"FundMe/contracts/FundMe.sol\":1723:1765  uint256 newMinimumUsd = _newMinimumUsd*1e8 */\n      swap1\n      pop\n        /* \"FundMe/contracts/FundMe.sol\":1800:1810  minimumUsd */\n      sload(0x01)\n        /* \"FundMe/contracts/FundMe.sol\":1783:1796  newMinimumUsd */\n      dup2\n        /* \"FundMe/contracts/FundMe.sol\":1783:1810  newMinimumUsd != minimumUsd */\n      sub\n        /* \"FundMe/contracts/FundMe.sol\":1775:1871  require(newMinimumUsd != minimumUsd, \"Cannot change the value of minimumUsd to the same value.\") */\n      tag_161\n      jumpi\n      mload(0x40)\n      0x08c379a000000000000000000000000000000000000000000000000000000000\n      dup2\n      mstore\n      0x04\n      add\n      tag_162\n      swap1\n      tag_163\n      jump\t// in\n    tag_162:\n      mload(0x40)\n      dup1\n      swap2\n      sub\n      swap1\n      revert\n    tag_161:\n        /* \"FundMe/contracts/FundMe.sol\":1894:1907  newMinimumUsd */\n      dup1\n        /* \"FundMe/contracts/FundMe.sol\":1881:1891  minimumUsd */\n      0x01\n        /* \"FundMe/contracts/FundMe.sol\":1881:1907  minimumUsd = newMinimumUsd */\n      dup2\n      swap1\n      sstore\n      pop\n        /* \"FundMe/contracts/FundMe.sol\":1713:1914  {... */\n      pop\n        /* \"FundMe/contracts/FundMe.sol\":1646:1914  function changeMinimumUsd(uint256 _newMinimumUsd) onlyOwner public {... */\n      pop\n      jump\t// out\n        /* \"FundMe/contracts/FundMe.sol\":371:395  address[] public funders */\n    tag_72:\n      0x02\n      dup2\n      dup2\n      sload\n      dup2\n      lt\n      tag_164\n      jumpi\n      0x00\n      dup1\n      revert\n    tag_164:\n      swap1\n      0x00\n      mstore\n      keccak256(0x00, 0x20)\n      add\n      0x00\n      swap2\n      pop\n      sload\n      swap1\n      0x0100\n      exp\n      swap1\n      div\n      0xffffffffffffffffffffffffffffffffffffffff\n      and\n      dup2\n      jump\t// out\n        /* \"FundMe/contracts/FundMe.sol\":471:525  mapping (address => bool) public addressIsActiveFunder */\n    tag_77:\n      mstore(0x20, 0x04)\n      dup1\n      0x00\n      mstore\n      keccak256(0x00, 0x40)\n      0x00\n      swap2\n      pop\n      sload\n      swap1\n      0x0100\n      exp\n      swap1\n      div\n      0xff\n      and\n      dup2\n      jump\t// out\n        /* \"FundMe/contracts/FundMe.sol\":4761:5501  function cleanAfterUserWithdrawal() internal {... */\n    tag_112:\n        /* \"FundMe/contracts/FundMe.sol\":4816:4841  address lastFunderAddress */\n      0x00\n        /* \"FundMe/contracts/FundMe.sol\":4844:4851  funders */\n      0x02\n        /* \"FundMe/contracts/FundMe.sol\":4869:4870  1 */\n      0x01\n        /* \"FundMe/contracts/FundMe.sol\":4852:4859  funders */\n      0x02\n        /* \"FundMe/contracts/FundMe.sol\":4852:4866  funders.length */\n      dup1\n      sload\n      swap1\n      pop\n        /* \"FundMe/contracts/FundMe.sol\":4852:4870  funders.length - 1 */\n      tag_167\n      swap2\n      swap1\n      tag_137\n      jump\t// in\n    tag_167:\n        /* \"FundMe/contracts/FundMe.sol\":4844:4871  funders[funders.length - 1] */\n      dup2\n      sload\n      dup2\n      lt\n      tag_168\n      jumpi\n      tag_169\n      tag_170\n      jump\t// in\n    tag_169:\n    tag_168:\n      swap1\n      0x00\n      mstore\n      keccak256(0x00, 0x20)\n      add\n      0x00\n      swap1\n      sload\n      swap1\n      0x0100\n      exp\n      swap1\n      div\n      0xffffffffffffffffffffffffffffffffffffffff\n      and\n        /* \"FundMe/contracts/FundMe.sol\":4816:4871  address lastFunderAddress = funders[funders.length - 1] */\n      swap1\n      pop\n        /* \"FundMe/contracts/FundMe.sol\":4881:4907  uint256 currentFunderIndex */\n      0x00\n        /* \"FundMe/contracts/FundMe.sol\":4910:4938  addressToIndexInFundersArray */\n      0x03\n        /* \"FundMe/contracts/FundMe.sol\":4910:4950  addressToIndexInFundersArray[msg.sender] */\n      0x00\n        /* \"FundMe/contracts/FundMe.sol\":4939:4949  msg.sender */\n      caller\n        /* \"FundMe/contracts/FundMe.sol\":4910:4950  addressToIndexInFundersArray[msg.sender] */\n      0xffffffffffffffffffffffffffffffffffffffff\n      and\n      0xffffffffffffffffffffffffffffffffffffffff\n      and\n      dup2\n      mstore\n      0x20\n      add\n      swap1\n      dup2\n      mstore\n      0x20\n      add\n      0x00\n      keccak256\n      sload\n        /* \"FundMe/contracts/FundMe.sol\":4881:4950  uint256 currentFunderIndex = addressToIndexInFundersArray[msg.sender] */\n      swap1\n      pop\n        /* \"FundMe/contracts/FundMe.sol\":5148:5149  1 */\n      0x01\n        /* \"FundMe/contracts/FundMe.sol\":5131:5138  funders */\n      0x02\n        /* \"FundMe/contracts/FundMe.sol\":5131:5145  funders.length */\n      dup1\n      sload\n      swap1\n      pop\n        /* \"FundMe/contracts/FundMe.sol\":5131:5149  funders.length - 1 */\n      tag_172\n      swap2\n      swap1\n      tag_137\n      jump\t// in\n    tag_172:\n        /* \"FundMe/contracts/FundMe.sol\":5087:5115  addressToIndexInFundersArray */\n      0x03\n        /* \"FundMe/contracts/FundMe.sol\":5087:5127  addressToIndexInFundersArray[msg.sender] */\n      0x00\n        /* \"FundMe/contracts/FundMe.sol\":5116:5126  msg.sender */\n      caller\n        /* \"FundMe/contracts/FundMe.sol\":5087:5127  addressToIndexInFundersArray[msg.sender] */\n      0xffffffffffffffffffffffffffffffffffffffff\n      and\n      0xffffffffffffffffffffffffffffffffffffffff\n      and\n      dup2\n      mstore\n      0x20\n      add\n      swap1\n      dup2\n      mstore\n      0x20\n      add\n      0x00\n      keccak256\n      sload\n        /* \"FundMe/contracts/FundMe.sol\":5087:5149  addressToIndexInFundersArray[msg.sender] != funders.length - 1 */\n      eq\n        /* \"FundMe/contracts/FundMe.sol\":5083:5322  if (addressToIndexInFundersArray[msg.sender] != funders.length - 1){... */\n      tag_173\n      jumpi\n        /* \"FundMe/contracts/FundMe.sol\":5194:5211  lastFunderAddress */\n      dup2\n        /* \"FundMe/contracts/FundMe.sol\":5164:5171  funders */\n      0x02\n        /* \"FundMe/contracts/FundMe.sol\":5172:5190  currentFunderIndex */\n      dup3\n        /* \"FundMe/contracts/FundMe.sol\":5164:5191  funders[currentFunderIndex] */\n      dup2\n      sload\n      dup2\n      lt\n      tag_174\n      jumpi\n      tag_175\n      tag_170\n      jump\t// in\n    tag_175:\n    tag_174:\n      swap1\n      0x00\n      mstore\n      keccak256(0x00, 0x20)\n      add\n      0x00\n        /* \"FundMe/contracts/FundMe.sol\":5164:5211  funders[currentFunderIndex] = lastFunderAddress */\n      0x0100\n      exp\n      dup2\n      sload\n      dup2\n      0xffffffffffffffffffffffffffffffffffffffff\n      mul\n      not\n      and\n      swap1\n      dup4\n      0xffffffffffffffffffffffffffffffffffffffff\n      and\n      mul\n      or\n      swap1\n      sstore\n      pop\n        /* \"FundMe/contracts/FundMe.sol\":5293:5311  currentFunderIndex */\n      dup1\n        /* \"FundMe/contracts/FundMe.sol\":5243:5271  addressToIndexInFundersArray */\n      0x03\n        /* \"FundMe/contracts/FundMe.sol\":5243:5290  addressToIndexInFundersArray[lastFunderAddress] */\n      0x00\n        /* \"FundMe/contracts/FundMe.sol\":5272:5289  lastFunderAddress */\n      dup5\n        /* \"FundMe/contracts/FundMe.sol\":5243:5290  addressToIndexInFundersArray[lastFunderAddress] */\n      0xffffffffffffffffffffffffffffffffffffffff\n      and\n      0xffffffffffffffffffffffffffffffffffffffff\n      and\n      dup2\n      mstore\n      0x20\n      add\n      swap1\n      dup2\n      mstore\n      0x20\n      add\n      0x00\n      keccak256\n        /* \"FundMe/contracts/FundMe.sol\":5243:5311  addressToIndexInFundersArray[lastFunderAddress] = currentFunderIndex */\n      dup2\n      swap1\n      sstore\n      pop\n        /* \"FundMe/contracts/FundMe.sol\":5083:5322  if (addressToIndexInFundersArray[msg.sender] != funders.length - 1){... */\n    tag_173:\n        /* \"FundMe/contracts/FundMe.sol\":5345:5352  funders */\n      0x02\n        /* \"FundMe/contracts/FundMe.sol\":5345:5358  funders.pop() */\n      dup1\n      sload\n      dup1\n      tag_177\n      jumpi\n      tag_178\n      tag_179\n      jump\t// in\n    tag_178:\n    tag_177:\n      0x01\n      swap1\n      sub\n      dup2\n      dup2\n      swap1\n      0x00\n      mstore\n      keccak256(0x00, 0x20)\n      add\n      exp(0x0100, 0x00)\n      dup2\n      sload\n      swap1\n      0xffffffffffffffffffffffffffffffffffffffff\n      mul\n      not\n      and\n      swap1\n      sstore\n      swap1\n      sstore\n        /* \"FundMe/contracts/FundMe.sol\":5389:5417  addressToIndexInFundersArray */\n      0x03\n        /* \"FundMe/contracts/FundMe.sol\":5389:5429  addressToIndexInFundersArray[msg.sender] */\n      0x00\n        /* \"FundMe/contracts/FundMe.sol\":5418:5428  msg.sender */\n      caller\n        /* \"FundMe/contracts/FundMe.sol\":5389:5429  addressToIndexInFundersArray[msg.sender] */\n      0xffffffffffffffffffffffffffffffffffffffff\n      and\n      0xffffffffffffffffffffffffffffffffffffffff\n      and\n      dup2\n      mstore\n      0x20\n      add\n      swap1\n      dup2\n      mstore\n      0x20\n      add\n      0x00\n      keccak256\n        /* \"FundMe/contracts/FundMe.sol\":5382:5429  delete addressToIndexInFundersArray[msg.sender] */\n      0x00\n      swap1\n      sstore\n        /* \"FundMe/contracts/FundMe.sol\":5489:5494  false */\n      0x00\n        /* \"FundMe/contracts/FundMe.sol\":5453:5474  addressIsActiveFunder */\n      0x04\n        /* \"FundMe/contracts/FundMe.sol\":5453:5486  addressIsActiveFunder[msg.sender] */\n      0x00\n        /* \"FundMe/contracts/FundMe.sol\":5475:5485  msg.sender */\n      caller\n        /* \"FundMe/contracts/FundMe.sol\":5453:5486  addressIsActiveFunder[msg.sender] */\n      0xffffffffffffffffffffffffffffffffffffffff\n      and\n      0xffffffffffffffffffffffffffffffffffffffff\n      and\n      dup2\n      mstore\n      0x20\n      add\n      swap1\n      dup2\n      mstore\n      0x20\n      add\n      0x00\n      keccak256\n      0x00\n        /* \"FundMe/contracts/FundMe.sol\":5453:5494  addressIsActiveFunder[msg.sender] = false */\n      0x0100\n      exp\n      dup2\n      sload\n      dup2\n      0xff\n      mul\n      not\n      and\n      swap1\n      dup4\n      iszero\n      iszero\n      mul\n      or\n      swap1\n      sstore\n      pop\n        /* \"FundMe/contracts/FundMe.sol\":4806:5501  {... */\n      pop\n      pop\n        /* \"FundMe/contracts/FundMe.sol\":4761:5501  function cleanAfterUserWithdrawal() internal {... */\n      jump\t// out\n        /* \"FundMe/contracts/FundMe.sol\":4214:4623  function cleanAfterOwnerWithdrawal() internal {... */\n    tag_128:\n        /* \"FundMe/contracts/FundMe.sol\":4275:4284  uint256 i */\n      0x00\n        /* \"FundMe/contracts/FundMe.sol\":4270:4471  for (uint256 i = 0; i < funders.length; i++){... */\n    tag_182:\n        /* \"FundMe/contracts/FundMe.sol\":4294:4301  funders */\n      0x02\n        /* \"FundMe/contracts/FundMe.sol\":4294:4308  funders.length */\n      dup1\n      sload\n      swap1\n      pop\n        /* \"FundMe/contracts/FundMe.sol\":4290:4291  i */\n      dup2\n        /* \"FundMe/contracts/FundMe.sol\":4290:4308  i < funders.length */\n      lt\n        /* \"FundMe/contracts/FundMe.sol\":4270:4471  for (uint256 i = 0; i < funders.length; i++){... */\n      iszero\n      tag_183\n      jumpi\n        /* \"FundMe/contracts/FundMe.sol\":4328:4342  address funder */\n      0x00\n        /* \"FundMe/contracts/FundMe.sol\":4345:4352  funders */\n      0x02\n        /* \"FundMe/contracts/FundMe.sol\":4353:4354  i */\n      dup3\n        /* \"FundMe/contracts/FundMe.sol\":4345:4355  funders[i] */\n      dup2\n      sload\n      dup2\n      lt\n      tag_185\n      jumpi\n      tag_186\n      tag_170\n      jump\t// in\n    tag_186:\n    tag_185:\n      swap1\n      0x00\n      mstore\n      keccak256(0x00, 0x20)\n      add\n      0x00\n      swap1\n      sload\n      swap1\n      0x0100\n      exp\n      swap1\n      div\n      0xffffffffffffffffffffffffffffffffffffffff\n      and\n        /* \"FundMe/contracts/FundMe.sol\":4328:4355  address funder = funders[i] */\n      swap1\n      pop\n        /* \"FundMe/contracts/FundMe.sol\":4408:4409  0 */\n      0x00\n        /* \"FundMe/contracts/FundMe.sol\":4369:4397  addressToIndexInFundersArray */\n      0x03\n        /* \"FundMe/contracts/FundMe.sol\":4369:4405  addressToIndexInFundersArray[funder] */\n      0x00\n        /* \"FundMe/contracts/FundMe.sol\":4398:4404  funder */\n      dup4\n        /* \"FundMe/contracts/FundMe.sol\":4369:4405  addressToIndexInFundersArray[funder] */\n      0xffffffffffffffffffffffffffffffffffffffff\n      and\n      0xffffffffffffffffffffffffffffffffffffffff\n      and\n      dup2\n      mstore\n      0x20\n      add\n      swap1\n      dup2\n      mstore\n      0x20\n      add\n      0x00\n      keccak256\n        /* \"FundMe/contracts/FundMe.sol\":4369:4409  addressToIndexInFundersArray[funder] = 0 */\n      dup2\n      swap1\n      sstore\n      pop\n        /* \"FundMe/contracts/FundMe.sol\":4455:4460  false */\n      0x00\n        /* \"FundMe/contracts/FundMe.sol\":4423:4444  addressIsActiveFunder */\n      0x04\n        /* \"FundMe/contracts/FundMe.sol\":4423:4452  addressIsActiveFunder[funder] */\n      0x00\n        /* \"FundMe/contracts/FundMe.sol\":4445:4451  funder */\n      dup4\n        /* \"FundMe/contracts/FundMe.sol\":4423:4452  addressIsActiveFunder[funder] */\n      0xffffffffffffffffffffffffffffffffffffffff\n      and\n      0xffffffffffffffffffffffffffffffffffffffff\n      and\n      dup2\n      mstore\n      0x20\n      add\n      swap1\n      dup2\n      mstore\n      0x20\n      add\n      0x00\n      keccak256\n      0x00\n        /* \"FundMe/contracts/FundMe.sol\":4423:4460  addressIsActiveFunder[funder] = false */\n      0x0100\n      exp\n      dup2\n      sload\n      dup2\n      0xff\n      mul\n      not\n      and\n      swap1\n      dup4\n      iszero\n      iszero\n      mul\n      or\n      swap1\n      sstore\n      pop\n        /* \"FundMe/contracts/FundMe.sol\":4314:4471  {... */\n      pop\n        /* \"FundMe/contracts/FundMe.sol\":4310:4313  i++ */\n      dup1\n      dup1\n      0x01\n      add\n      swap2\n      pop\n      pop\n        /* \"FundMe/contracts/FundMe.sol\":4270:4471  for (uint256 i = 0; i < funders.length; i++){... */\n      jump(tag_182)\n    tag_183:\n      pop\n        /* \"FundMe/contracts/FundMe.sol\":4609:4616  funders */\n      0x02\n      0x00\n        /* \"FundMe/contracts/FundMe.sol\":4602:4616  delete funders */\n      tag_188\n      swap2\n      swap1\n      tag_189\n      jump\t// in\n    tag_188:\n        /* \"FundMe/contracts/FundMe.sol\":4214:4623  function cleanAfterOwnerWithdrawal() internal {... */\n      jump\t// out\n        /* \"FundMe/contracts/SafeCast.sol\":17171:17364  function toUint256(int256 value) internal pure returns (uint256) {... */\n    tag_155:\n        /* \"FundMe/contracts/SafeCast.sol\":17227:17234  uint256 */\n      0x00\n        /* \"FundMe/contracts/SafeCast.sol\":17258:17259  0 */\n      dup1\n        /* \"FundMe/contracts/SafeCast.sol\":17250:17255  value */\n      dup3\n        /* \"FundMe/contracts/SafeCast.sol\":17250:17259  value < 0 */\n      slt\n        /* \"FundMe/contracts/SafeCast.sol\":17246:17327  if (value < 0) {... */\n      iszero\n      tag_191\n      jumpi\n        /* \"FundMe/contracts/SafeCast.sol\":17310:17315  value */\n      dup2\n        /* \"FundMe/contracts/SafeCast.sol\":17282:17316  SafeCastOverflowedIntToUint(value) */\n      mload(0x40)\n      0xa8ce443200000000000000000000000000000000000000000000000000000000\n      dup2\n      mstore\n      0x04\n      add\n      tag_192\n      swap2\n      swap1\n      tag_193\n      jump\t// in\n    tag_192:\n      mload(0x40)\n      dup1\n      swap2\n      sub\n      swap1\n      revert\n        /* \"FundMe/contracts/SafeCast.sol\":17246:17327  if (value < 0) {... */\n    tag_191:\n        /* \"FundMe/contracts/SafeCast.sol\":17351:17356  value */\n      dup2\n        /* \"FundMe/contracts/SafeCast.sol\":17336:17357  return uint256(value) */\n      swap1\n      pop\n        /* \"FundMe/contracts/SafeCast.sol\":17171:17364  function toUint256(int256 value) internal pure returns (uint256) {... */\n      swap2\n      swap1\n      pop\n      jump\t// out\n    tag_189:\n      pop\n      dup1\n      sload\n      0x00\n      dup3\n      sstore\n      swap1\n      0x00\n      mstore\n      keccak256(0x00, 0x20)\n      swap1\n      dup2\n      add\n      swap1\n      tag_195\n      swap2\n      swap1\n      tag_196\n      jump\t// in\n    tag_195:\n      pop\n      jump\t// out\n    tag_196:\n    tag_197:\n      dup1\n      dup3\n      gt\n      iszero\n      tag_198\n      jumpi\n      0x00\n      dup2\n      0x00\n      swap1\n      sstore\n      pop\n      0x01\n      add\n      jump(tag_197)\n    tag_198:\n      pop\n      swap1\n      jump\t// out\n        /* \"#utility.yul\":88:205   */\n    tag_200:\n        /* \"#utility.yul\":197:198   */\n      0x00\n        /* \"#utility.yul\":194:195   */\n      dup1\n        /* \"#utility.yul\":187:199   */\n      revert\n        /* \"#utility.yul\":334:460   */\n    tag_202:\n        /* \"#utility.yul\":371:378   */\n      0x00\n        /* \"#utility.yul\":411:453   */\n      0xffffffffffffffffffffffffffffffffffffffff\n        /* \"#utility.yul\":404:409   */\n      dup3\n        /* \"#utility.yul\":400:454   */\n      and\n        /* \"#utility.yul\":389:454   */\n      swap1\n      pop\n        /* \"#utility.yul\":334:460   */\n      swap2\n      swap1\n      pop\n      jump\t// out\n        /* \"#utility.yul\":466:562   */\n    tag_203:\n        /* \"#utility.yul\":503:510   */\n      0x00\n        /* \"#utility.yul\":532:556   */\n      tag_251\n        /* \"#utility.yul\":550:555   */\n      dup3\n        /* \"#utility.yul\":532:556   */\n      tag_202\n      jump\t// in\n    tag_251:\n        /* \"#utility.yul\":521:556   */\n      swap1\n      pop\n        /* \"#utility.yul\":466:562   */\n      swap2\n      swap1\n      pop\n      jump\t// out\n        /* \"#utility.yul\":568:690   */\n    tag_204:\n        /* \"#utility.yul\":641:665   */\n      tag_253\n        /* \"#utility.yul\":659:664   */\n      dup2\n        /* \"#utility.yul\":641:665   */\n      tag_203\n      jump\t// in\n    tag_253:\n        /* \"#utility.yul\":634:639   */\n      dup2\n        /* \"#utility.yul\":631:666   */\n      eq\n        /* \"#utility.yul\":621:684   */\n      tag_254\n      jumpi\n        /* \"#utility.yul\":680:681   */\n      0x00\n        /* \"#utility.yul\":677:678   */\n      dup1\n        /* \"#utility.yul\":670:682   */\n      revert\n        /* \"#utility.yul\":621:684   */\n    tag_254:\n        /* \"#utility.yul\":568:690   */\n      pop\n      jump\t// out\n        /* \"#utility.yul\":696:835   */\n    tag_205:\n        /* \"#utility.yul\":742:747   */\n      0x00\n        /* \"#utility.yul\":780:786   */\n      dup2\n        /* \"#utility.yul\":767:787   */\n      calldataload\n        /* \"#utility.yul\":758:787   */\n      swap1\n      pop\n        /* \"#utility.yul\":796:829   */\n      tag_256\n        /* \"#utility.yul\":823:828   */\n      dup2\n        /* \"#utility.yul\":796:829   */\n      tag_204\n      jump\t// in\n    tag_256:\n        /* \"#utility.yul\":696:835   */\n      swap3\n      swap2\n      pop\n      pop\n      jump\t// out\n        /* \"#utility.yul\":841:1170   */\n    tag_25:\n        /* \"#utility.yul\":900:906   */\n      0x00\n        /* \"#utility.yul\":949:951   */\n      0x20\n        /* \"#utility.yul\":937:946   */\n      dup3\n        /* \"#utility.yul\":928:935   */\n      dup5\n        /* \"#utility.yul\":924:947   */\n      sub\n        /* \"#utility.yul\":920:952   */\n      slt\n        /* \"#utility.yul\":917:1036   */\n      iszero\n      tag_258\n      jumpi\n        /* \"#utility.yul\":955:1034   */\n      tag_259\n      tag_200\n      jump\t// in\n    tag_259:\n        /* \"#utility.yul\":917:1036   */\n    tag_258:\n        /* \"#utility.yul\":1075:1076   */\n      0x00\n        /* \"#utility.yul\":1100:1153   */\n      tag_260\n        /* \"#utility.yul\":1145:1152   */\n      dup5\n        /* \"#utility.yul\":1136:1142   */\n      dup3\n        /* \"#utility.yul\":1125:1134   */\n      dup6\n        /* \"#utility.yul\":1121:1143   */\n      add\n        /* \"#utility.yul\":1100:1153   */\n      tag_205\n      jump\t// in\n    tag_260:\n        /* \"#utility.yul\":1090:1153   */\n      swap2\n      pop\n        /* \"#utility.yul\":1046:1163   */\n      pop\n        /* \"#utility.yul\":841:1170   */\n      swap3\n      swap2\n      pop\n      pop\n      jump\t// out\n        /* \"#utility.yul\":1176:1253   */\n    tag_206:\n        /* \"#utility.yul\":1213:1220   */\n      0x00\n        /* \"#utility.yul\":1242:1247   */\n      dup2\n        /* \"#utility.yul\":1231:1247   */\n      swap1\n      pop\n        /* \"#utility.yul\":1176:1253   */\n      swap2\n      swap1\n      pop\n      jump\t// out\n        /* \"#utility.yul\":1259:1377   */\n    tag_207:\n        /* \"#utility.yul\":1346:1370   */\n      tag_263\n        /* \"#utility.yul\":1364:1369   */\n      dup2\n        /* \"#utility.yul\":1346:1370   */\n      tag_206\n      jump\t// in\n    tag_263:\n        /* \"#utility.yul\":1341:1344   */\n      dup3\n        /* \"#utility.yul\":1334:1371   */\n      mstore\n        /* \"#utility.yul\":1259:1377   */\n      pop\n      pop\n      jump\t// out\n        /* \"#utility.yul\":1383:1605   */\n    tag_28:\n        /* \"#utility.yul\":1476:1480   */\n      0x00\n        /* \"#utility.yul\":1514:1516   */\n      0x20\n        /* \"#utility.yul\":1503:1512   */\n      dup3\n        /* \"#utility.yul\":1499:1517   */\n      add\n        /* \"#utility.yul\":1491:1517   */\n      swap1\n      pop\n        /* \"#utility.yul\":1527:1598   */\n      tag_265\n        /* \"#utility.yul\":1595:1596   */\n      0x00\n        /* \"#utility.yul\":1584:1593   */\n      dup4\n        /* \"#utility.yul\":1580:1597   */\n      add\n        /* \"#utility.yul\":1571:1577   */\n      dup5\n        /* \"#utility.yul\":1527:1598   */\n      tag_207\n      jump\t// in\n    tag_265:\n        /* \"#utility.yul\":1383:1605   */\n      swap3\n      swap2\n      pop\n      pop\n      jump\t// out\n        /* \"#utility.yul\":1611:1733   */\n    tag_208:\n        /* \"#utility.yul\":1684:1708   */\n      tag_267\n        /* \"#utility.yul\":1702:1707   */\n      dup2\n        /* \"#utility.yul\":1684:1708   */\n      tag_206\n      jump\t// in\n    tag_267:\n        /* \"#utility.yul\":1677:1682   */\n      dup2\n        /* \"#utility.yul\":1674:1709   */\n      eq\n        /* \"#utility.yul\":1664:1727   */\n      tag_268\n      jumpi\n        /* \"#utility.yul\":1723:1724   */\n      0x00\n        /* \"#utility.yul\":1720:1721   */\n      dup1\n        /* \"#utility.yul\":1713:1725   */\n      revert\n        /* \"#utility.yul\":1664:1727   */\n    tag_268:\n        /* \"#utility.yul\":1611:1733   */\n      pop\n      jump\t// out\n        /* \"#utility.yul\":1739:1878   */\n    tag_209:\n        /* \"#utility.yul\":1785:1790   */\n      0x00\n        /* \"#utility.yul\":1823:1829   */\n      dup2\n        /* \"#utility.yul\":1810:1830   */\n      calldataload\n        /* \"#utility.yul\":1801:1830   */\n      swap1\n      pop\n        /* \"#utility.yul\":1839:1872   */\n      tag_270\n        /* \"#utility.yul\":1866:1871   */\n      dup2\n        /* \"#utility.yul\":1839:1872   */\n      tag_208\n      jump\t// in\n    tag_270:\n        /* \"#utility.yul\":1739:1878   */\n      swap3\n      swap2\n      pop\n      pop\n      jump\t// out\n        /* \"#utility.yul\":1884:2358   */\n    tag_36:\n        /* \"#utility.yul\":1952:1958   */\n      0x00\n        /* \"#utility.yul\":1960:1966   */\n      dup1\n        /* \"#utility.yul\":2009:2011   */\n      0x40\n        /* \"#utility.yul\":1997:2006   */\n      dup4\n        /* \"#utility.yul\":1988:1995   */\n      dup6\n        /* \"#utility.yul\":1984:2007   */\n      sub\n        /* \"#utility.yul\":1980:2012   */\n      slt\n        /* \"#utility.yul\":1977:2096   */\n      iszero\n      tag_272\n      jumpi\n        /* \"#utility.yul\":2015:2094   */\n      tag_273\n      tag_200\n      jump\t// in\n    tag_273:\n        /* \"#utility.yul\":1977:2096   */\n    tag_272:\n        /* \"#utility.yul\":2135:2136   */\n      0x00\n        /* \"#utility.yul\":2160:2213   */\n      tag_274\n        /* \"#utility.yul\":2205:2212   */\n      dup6\n        /* \"#utility.yul\":2196:2202   */\n      dup3\n        /* \"#utility.yul\":2185:2194   */\n      dup7\n        /* \"#utility.yul\":2181:2203   */\n      add\n        /* \"#utility.yul\":2160:2213   */\n      tag_209\n      jump\t// in\n    tag_274:\n        /* \"#utility.yul\":2150:2213   */\n      swap3\n      pop\n        /* \"#utility.yul\":2106:2223   */\n      pop\n        /* \"#utility.yul\":2262:2264   */\n      0x20\n        /* \"#utility.yul\":2288:2341   */\n      tag_275\n        /* \"#utility.yul\":2333:2340   */\n      dup6\n        /* \"#utility.yul\":2324:2330   */\n      dup3\n        /* \"#utility.yul\":2313:2322   */\n      dup7\n        /* \"#utility.yul\":2309:2331   */\n      add\n        /* \"#utility.yul\":2288:2341   */\n      tag_209\n      jump\t// in\n    tag_275:\n        /* \"#utility.yul\":2278:2341   */\n      swap2\n      pop\n        /* \"#utility.yul\":2233:2351   */\n      pop\n        /* \"#utility.yul\":1884:2358   */\n      swap3\n      pop\n      swap3\n      swap1\n      pop\n      jump\t// out\n        /* \"#utility.yul\":2364:2693   */\n    tag_48:\n        /* \"#utility.yul\":2423:2429   */\n      0x00\n        /* \"#utility.yul\":2472:2474   */\n      0x20\n        /* \"#utility.yul\":2460:2469   */\n      dup3\n        /* \"#utility.yul\":2451:2458   */\n      dup5\n        /* \"#utility.yul\":2447:2470   */\n      sub\n        /* \"#utility.yul\":2443:2475   */\n      slt\n        /* \"#utility.yul\":2440:2559   */\n      iszero\n      tag_277\n      jumpi\n        /* \"#utility.yul\":2478:2557   */\n      tag_278\n      tag_200\n      jump\t// in\n    tag_278:\n        /* \"#utility.yul\":2440:2559   */\n    tag_277:\n        /* \"#utility.yul\":2598:2599   */\n      0x00\n        /* \"#utility.yul\":2623:2676   */\n      tag_279\n        /* \"#utility.yul\":2668:2675   */\n      dup5\n        /* \"#utility.yul\":2659:2665   */\n      dup3\n        /* \"#utility.yul\":2648:2657   */\n      dup6\n        /* \"#utility.yul\":2644:2666   */\n      add\n        /* \"#utility.yul\":2623:2676   */\n      tag_209\n      jump\t// in\n    tag_279:\n        /* \"#utility.yul\":2613:2676   */\n      swap2\n      pop\n        /* \"#utility.yul\":2569:2686   */\n      pop\n        /* \"#utility.yul\":2364:2693   */\n      swap3\n      swap2\n      pop\n      pop\n      jump\t// out\n        /* \"#utility.yul\":2699:2817   */\n    tag_210:\n        /* \"#utility.yul\":2786:2810   */\n      tag_281\n        /* \"#utility.yul\":2804:2809   */\n      dup2\n        /* \"#utility.yul\":2786:2810   */\n      tag_203\n      jump\t// in\n    tag_281:\n        /* \"#utility.yul\":2781:2784   */\n      dup3\n        /* \"#utility.yul\":2774:2811   */\n      mstore\n        /* \"#utility.yul\":2699:2817   */\n      pop\n      pop\n      jump\t// out\n        /* \"#utility.yul\":2823:3045   */\n    tag_54:\n        /* \"#utility.yul\":2916:2920   */\n      0x00\n        /* \"#utility.yul\":2954:2956   */\n      0x20\n        /* \"#utility.yul\":2943:2952   */\n      dup3\n        /* \"#utility.yul\":2939:2957   */\n      add\n        /* \"#utility.yul\":2931:2957   */\n      swap1\n      pop\n        /* \"#utility.yul\":2967:3038   */\n      tag_283\n        /* \"#utility.yul\":3035:3036   */\n      0x00\n        /* \"#utility.yul\":3024:3033   */\n      dup4\n        /* \"#utility.yul\":3020:3037   */\n      add\n        /* \"#utility.yul\":3011:3017   */\n      dup5\n        /* \"#utility.yul\":2967:3038   */\n      tag_210\n      jump\t// in\n    tag_283:\n        /* \"#utility.yul\":2823:3045   */\n      swap3\n      swap2\n      pop\n      pop\n      jump\t// out\n        /* \"#utility.yul\":3051:3141   */\n    tag_211:\n        /* \"#utility.yul\":3085:3092   */\n      0x00\n        /* \"#utility.yul\":3128:3133   */\n      dup2\n        /* \"#utility.yul\":3121:3134   */\n      iszero\n        /* \"#utility.yul\":3114:3135   */\n      iszero\n        /* \"#utility.yul\":3103:3135   */\n      swap1\n      pop\n        /* \"#utility.yul\":3051:3141   */\n      swap2\n      swap1\n      pop\n      jump\t// out\n        /* \"#utility.yul\":3147:3256   */\n    tag_212:\n        /* \"#utility.yul\":3228:3249   */\n      tag_286\n        /* \"#utility.yul\":3243:3248   */\n      dup2\n        /* \"#utility.yul\":3228:3249   */\n      tag_211\n      jump\t// in\n    tag_286:\n        /* \"#utility.yul\":3223:3226   */\n      dup3\n        /* \"#utility.yul\":3216:3250   */\n      mstore\n        /* \"#utility.yul\":3147:3256   */\n      pop\n      pop\n      jump\t// out\n        /* \"#utility.yul\":3262:3472   */\n    tag_79:\n        /* \"#utility.yul\":3349:3353   */\n      0x00\n        /* \"#utility.yul\":3387:3389   */\n      0x20\n        /* \"#utility.yul\":3376:3385   */\n      dup3\n        /* \"#utility.yul\":3372:3390   */\n      add\n        /* \"#utility.yul\":3364:3390   */\n      swap1\n      pop\n        /* \"#utility.yul\":3400:3465   */\n      tag_288\n        /* \"#utility.yul\":3462:3463   */\n      0x00\n        /* \"#utility.yul\":3451:3460   */\n      dup4\n        /* \"#utility.yul\":3447:3464   */\n      add\n        /* \"#utility.yul\":3438:3444   */\n      dup5\n        /* \"#utility.yul\":3400:3465   */\n      tag_212\n      jump\t// in\n    tag_288:\n        /* \"#utility.yul\":3262:3472   */\n      swap3\n      swap2\n      pop\n      pop\n      jump\t// out\n        /* \"#utility.yul\":3478:3647   */\n    tag_213:\n        /* \"#utility.yul\":3562:3573   */\n      0x00\n        /* \"#utility.yul\":3596:3602   */\n      dup3\n        /* \"#utility.yul\":3591:3594   */\n      dup3\n        /* \"#utility.yul\":3584:3603   */\n      mstore\n        /* \"#utility.yul\":3636:3640   */\n      0x20\n        /* \"#utility.yul\":3631:3634   */\n      dup3\n        /* \"#utility.yul\":3627:3641   */\n      add\n        /* \"#utility.yul\":3612:3641   */\n      swap1\n      pop\n        /* \"#utility.yul\":3478:3647   */\n      swap3\n      swap2\n      pop\n      pop\n      jump\t// out\n        /* \"#utility.yul\":3653:3825   */\n    tag_214:\n        /* \"#utility.yul\":3793:3817   */\n      0x6469646e27742073656e6420656e6f7567682055534400000000000000000000\n        /* \"#utility.yul\":3789:3790   */\n      0x00\n        /* \"#utility.yul\":3781:3787   */\n      dup3\n        /* \"#utility.yul\":3777:3791   */\n      add\n        /* \"#utility.yul\":3770:3818   */\n      mstore\n        /* \"#utility.yul\":3653:3825   */\n      pop\n      jump\t// out\n        /* \"#utility.yul\":3831:4197   */\n    tag_215:\n        /* \"#utility.yul\":3973:3976   */\n      0x00\n        /* \"#utility.yul\":3994:4061   */\n      tag_292\n        /* \"#utility.yul\":4058:4060   */\n      0x16\n        /* \"#utility.yul\":4053:4056   */\n      dup4\n        /* \"#utility.yul\":3994:4061   */\n      tag_213\n      jump\t// in\n    tag_292:\n        /* \"#utility.yul\":3987:4061   */\n      swap2\n      pop\n        /* \"#utility.yul\":4070:4163   */\n      tag_293\n        /* \"#utility.yul\":4159:4162   */\n      dup3\n        /* \"#utility.yul\":4070:4163   */\n      tag_214\n      jump\t// in\n    tag_293:\n        /* \"#utility.yul\":4188:4190   */\n      0x20\n        /* \"#utility.yul\":4183:4186   */\n      dup3\n        /* \"#utility.yul\":4179:4191   */\n      add\n        /* \"#utility.yul\":4172:4191   */\n      swap1\n      pop\n        /* \"#utility.yul\":3831:4197   */\n      swap2\n      swap1\n      pop\n      jump\t// out\n        /* \"#utility.yul\":4203:4622   */\n    tag_85:\n        /* \"#utility.yul\":4369:4373   */\n      0x00\n        /* \"#utility.yul\":4407:4409   */\n      0x20\n        /* \"#utility.yul\":4396:4405   */\n      dup3\n        /* \"#utility.yul\":4392:4410   */\n      add\n        /* \"#utility.yul\":4384:4410   */\n      swap1\n      pop\n        /* \"#utility.yul\":4456:4465   */\n      dup2\n        /* \"#utility.yul\":4450:4454   */\n      dup2\n        /* \"#utility.yul\":4446:4466   */\n      sub\n        /* \"#utility.yul\":4442:4443   */\n      0x00\n        /* \"#utility.yul\":4431:4440   */\n      dup4\n        /* \"#utility.yul\":4427:4444   */\n      add\n        /* \"#utility.yul\":4420:4467   */\n      mstore\n        /* \"#utility.yul\":4484:4615   */\n      tag_295\n        /* \"#utility.yul\":4610:4614   */\n      dup2\n        /* \"#utility.yul\":4484:4615   */\n      tag_215\n      jump\t// in\n    tag_295:\n        /* \"#utility.yul\":4476:4615   */\n      swap1\n      pop\n        /* \"#utility.yul\":4203:4622   */\n      swap2\n      swap1\n      pop\n      jump\t// out\n        /* \"#utility.yul\":4628:4808   */\n    tag_216:\n        /* \"#utility.yul\":4676:4753   */\n      0x4e487b7100000000000000000000000000000000000000000000000000000000\n        /* \"#utility.yul\":4673:4674   */\n      0x00\n        /* \"#utility.yul\":4666:4754   */\n      mstore\n        /* \"#utility.yul\":4773:4777   */\n      0x11\n        /* \"#utility.yul\":4770:4771   */\n      0x04\n        /* \"#utility.yul\":4763:4778   */\n      mstore\n        /* \"#utility.yul\":4797:4801   */\n      0x24\n        /* \"#utility.yul\":4794:4795   */\n      0x00\n        /* \"#utility.yul\":4787:4802   */\n      revert\n        /* \"#utility.yul\":4814:5005   */\n    tag_89:\n        /* \"#utility.yul\":4854:4857   */\n      0x00\n        /* \"#utility.yul\":4873:4893   */\n      tag_298\n        /* \"#utility.yul\":4891:4892   */\n      dup3\n        /* \"#utility.yul\":4873:4893   */\n      tag_206\n      jump\t// in\n    tag_298:\n        /* \"#utility.yul\":4868:4893   */\n      swap2\n      pop\n        /* \"#utility.yul\":4907:4927   */\n      tag_299\n        /* \"#utility.yul\":4925:4926   */\n      dup4\n        /* \"#utility.yul\":4907:4927   */\n      tag_206\n      jump\t// in\n    tag_299:\n        /* \"#utility.yul\":4902:4927   */\n      swap3\n      pop\n        /* \"#utility.yul\":4950:4951   */\n      dup3\n        /* \"#utility.yul\":4947:4948   */\n      dup3\n        /* \"#utility.yul\":4943:4952   */\n      add\n        /* \"#utility.yul\":4936:4952   */\n      swap1\n      pop\n        /* \"#utility.yul\":4971:4974   */\n      dup1\n        /* \"#utility.yul\":4968:4969   */\n      dup3\n        /* \"#utility.yul\":4965:4975   */\n      gt\n        /* \"#utility.yul\":4962:4998   */\n      iszero\n      tag_300\n      jumpi\n        /* \"#utility.yul\":4978:4996   */\n      tag_301\n      tag_216\n      jump\t// in\n    tag_301:\n        /* \"#utility.yul\":4962:4998   */\n    tag_300:\n        /* \"#utility.yul\":4814:5005   */\n      swap3\n      swap2\n      pop\n      pop\n      jump\t// out\n        /* \"#utility.yul\":5011:5421   */\n    tag_92:\n        /* \"#utility.yul\":5051:5058   */\n      0x00\n        /* \"#utility.yul\":5074:5094   */\n      tag_303\n        /* \"#utility.yul\":5092:5093   */\n      dup3\n        /* \"#utility.yul\":5074:5094   */\n      tag_206\n      jump\t// in\n    tag_303:\n        /* \"#utility.yul\":5069:5094   */\n      swap2\n      pop\n        /* \"#utility.yul\":5108:5128   */\n      tag_304\n        /* \"#utility.yul\":5126:5127   */\n      dup4\n        /* \"#utility.yul\":5108:5128   */\n      tag_206\n      jump\t// in\n    tag_304:\n        /* \"#utility.yul\":5103:5128   */\n      swap3\n      pop\n        /* \"#utility.yul\":5163:5164   */\n      dup3\n        /* \"#utility.yul\":5160:5161   */\n      dup3\n        /* \"#utility.yul\":5156:5165   */\n      mul\n        /* \"#utility.yul\":5185:5215   */\n      tag_305\n        /* \"#utility.yul\":5203:5214   */\n      dup2\n        /* \"#utility.yul\":5185:5215   */\n      tag_206\n      jump\t// in\n    tag_305:\n        /* \"#utility.yul\":5174:5215   */\n      swap2\n      pop\n        /* \"#utility.yul\":5364:5365   */\n      dup3\n        /* \"#utility.yul\":5355:5362   */\n      dup3\n        /* \"#utility.yul\":5351:5366   */\n      div\n        /* \"#utility.yul\":5348:5349   */\n      dup5\n        /* \"#utility.yul\":5345:5367   */\n      eq\n        /* \"#utility.yul\":5325:5326   */\n      dup4\n        /* \"#utility.yul\":5318:5327   */\n      iszero\n        /* \"#utility.yul\":5298:5381   */\n      or\n        /* \"#utility.yul\":5275:5414   */\n      tag_306\n      jumpi\n        /* \"#utility.yul\":5394:5412   */\n      tag_307\n      tag_216\n      jump\t// in\n    tag_307:\n        /* \"#utility.yul\":5275:5414   */\n    tag_306:\n        /* \"#utility.yul\":5059:5421   */\n      pop\n        /* \"#utility.yul\":5011:5421   */\n      swap3\n      swap2\n      pop\n      pop\n      jump\t// out\n        /* \"#utility.yul\":5427:5607   */\n    tag_217:\n        /* \"#utility.yul\":5475:5552   */\n      0x4e487b7100000000000000000000000000000000000000000000000000000000\n        /* \"#utility.yul\":5472:5473   */\n      0x00\n        /* \"#utility.yul\":5465:5553   */\n      mstore\n        /* \"#utility.yul\":5572:5576   */\n      0x12\n        /* \"#utility.yul\":5569:5570   */\n      0x04\n        /* \"#utility.yul\":5562:5577   */\n      mstore\n        /* \"#utility.yul\":5596:5600   */\n      0x24\n        /* \"#utility.yul\":5593:5594   */\n      0x00\n        /* \"#utility.yul\":5586:5601   */\n      revert\n        /* \"#utility.yul\":5613:5798   */\n    tag_94:\n        /* \"#utility.yul\":5653:5654   */\n      0x00\n        /* \"#utility.yul\":5670:5690   */\n      tag_310\n        /* \"#utility.yul\":5688:5689   */\n      dup3\n        /* \"#utility.yul\":5670:5690   */\n      tag_206\n      jump\t// in\n    tag_310:\n        /* \"#utility.yul\":5665:5690   */\n      swap2\n      pop\n        /* \"#utility.yul\":5704:5724   */\n      tag_311\n        /* \"#utility.yul\":5722:5723   */\n      dup4\n        /* \"#utility.yul\":5704:5724   */\n      tag_206\n      jump\t// in\n    tag_311:\n        /* \"#utility.yul\":5699:5724   */\n      swap3\n      pop\n        /* \"#utility.yul\":5743:5744   */\n      dup3\n        /* \"#utility.yul\":5733:5768   */\n      tag_312\n      jumpi\n        /* \"#utility.yul\":5748:5766   */\n      tag_313\n      tag_217\n      jump\t// in\n    tag_313:\n        /* \"#utility.yul\":5733:5768   */\n    tag_312:\n        /* \"#utility.yul\":5790:5791   */\n      dup3\n        /* \"#utility.yul\":5787:5788   */\n      dup3\n        /* \"#utility.yul\":5783:5792   */\n      div\n        /* \"#utility.yul\":5778:5792   */\n      swap1\n      pop\n        /* \"#utility.yul\":5613:5798   */\n      swap3\n      swap2\n      pop\n      pop\n      jump\t// out\n        /* \"#utility.yul\":5804:6032   */\n    tag_218:\n        /* \"#utility.yul\":5944:5978   */\n      0x4e6f2072652d656e7472616e637920616c6c6f7765642c20706c656173652074\n        /* \"#utility.yul\":5940:5941   */\n      0x00\n        /* \"#utility.yul\":5932:5938   */\n      dup3\n        /* \"#utility.yul\":5928:5942   */\n      add\n        /* \"#utility.yul\":5921:5979   */\n      mstore\n        /* \"#utility.yul\":6013:6024   */\n      0x727920616761696e2e0000000000000000000000000000000000000000000000\n        /* \"#utility.yul\":6008:6010   */\n      0x20\n        /* \"#utility.yul\":6000:6006   */\n      dup3\n        /* \"#utility.yul\":5996:6011   */\n      add\n        /* \"#utility.yul\":5989:6025   */\n      mstore\n        /* \"#utility.yul\":5804:6032   */\n      pop\n      jump\t// out\n        /* \"#utility.yul\":6038:6404   */\n    tag_219:\n        /* \"#utility.yul\":6180:6183   */\n      0x00\n        /* \"#utility.yul\":6201:6268   */\n      tag_316\n        /* \"#utility.yul\":6265:6267   */\n      0x29\n        /* \"#utility.yul\":6260:6263   */\n      dup4\n        /* \"#utility.yul\":6201:6268   */\n      tag_213\n      jump\t// in\n    tag_316:\n        /* \"#utility.yul\":6194:6268   */\n      swap2\n      pop\n        /* \"#utility.yul\":6277:6370   */\n      tag_317\n        /* \"#utility.yul\":6366:6369   */\n      dup3\n        /* \"#utility.yul\":6277:6370   */\n      tag_218\n      jump\t// in\n    tag_317:\n        /* \"#utility.yul\":6395:6397   */\n      0x40\n        /* \"#utility.yul\":6390:6393   */\n      dup3\n        /* \"#utility.yul\":6386:6398   */\n      add\n        /* \"#utility.yul\":6379:6398   */\n      swap1\n      pop\n        /* \"#utility.yul\":6038:6404   */\n      swap2\n      swap1\n      pop\n      jump\t// out\n        /* \"#utility.yul\":6410:6829   */\n    tag_98:\n        /* \"#utility.yul\":6576:6580   */\n      0x00\n        /* \"#utility.yul\":6614:6616   */\n      0x20\n        /* \"#utility.yul\":6603:6612   */\n      dup3\n        /* \"#utility.yul\":6599:6617   */\n      add\n        /* \"#utility.yul\":6591:6617   */\n      swap1\n      pop\n        /* \"#utility.yul\":6663:6672   */\n      dup2\n        /* \"#utility.yul\":6657:6661   */\n      dup2\n        /* \"#utility.yul\":6653:6673   */\n      sub\n        /* \"#utility.yul\":6649:6650   */\n      0x00\n        /* \"#utility.yul\":6638:6647   */\n      dup4\n        /* \"#utility.yul\":6634:6651   */\n      add\n        /* \"#utility.yul\":6627:6674   */\n      mstore\n        /* \"#utility.yul\":6691:6822   */\n      tag_319\n        /* \"#utility.yul\":6817:6821   */\n      dup2\n        /* \"#utility.yul\":6691:6822   */\n      tag_219\n      jump\t// in\n    tag_319:\n        /* \"#utility.yul\":6683:6822   */\n      swap1\n      pop\n        /* \"#utility.yul\":6410:6829   */\n      swap2\n      swap1\n      pop\n      jump\t// out\n        /* \"#utility.yul\":6835:7005   */\n    tag_220:\n        /* \"#utility.yul\":6975:6997   */\n      0x496e73756666696369656e742062616c616e6365000000000000000000000000\n        /* \"#utility.yul\":6971:6972   */\n      0x00\n        /* \"#utility.yul\":6963:6969   */\n      dup3\n        /* \"#utility.yul\":6959:6973   */\n      add\n        /* \"#utility.yul\":6952:6998   */\n      mstore\n        /* \"#utility.yul\":6835:7005   */\n      pop\n      jump\t// out\n        /* \"#utility.yul\":7011:7377   */\n    tag_221:\n        /* \"#utility.yul\":7153:7156   */\n      0x00\n        /* \"#utility.yul\":7174:7241   */\n      tag_322\n        /* \"#utility.yul\":7238:7240   */\n      0x14\n        /* \"#utility.yul\":7233:7236   */\n      dup4\n        /* \"#utility.yul\":7174:7241   */\n      tag_213\n      jump\t// in\n    tag_322:\n        /* \"#utility.yul\":7167:7241   */\n      swap2\n      pop\n        /* \"#utility.yul\":7250:7343   */\n      tag_323\n        /* \"#utility.yul\":7339:7342   */\n      dup3\n        /* \"#utility.yul\":7250:7343   */\n      tag_220\n      jump\t// in\n    tag_323:\n        /* \"#utility.yul\":7368:7370   */\n      0x20\n        /* \"#utility.yul\":7363:7366   */\n      dup3\n        /* \"#utility.yul\":7359:7371   */\n      add\n        /* \"#utility.yul\":7352:7371   */\n      swap1\n      pop\n        /* \"#utility.yul\":7011:7377   */\n      swap2\n      swap1\n      pop\n      jump\t// out\n        /* \"#utility.yul\":7383:7802   */\n    tag_102:\n        /* \"#utility.yul\":7549:7553   */\n      0x00\n        /* \"#utility.yul\":7587:7589   */\n      0x20\n        /* \"#utility.yul\":7576:7585   */\n      dup3\n        /* \"#utility.yul\":7572:7590   */\n      add\n        /* \"#utility.yul\":7564:7590   */\n      swap1\n      pop\n        /* \"#utility.yul\":7636:7645   */\n      dup2\n        /* \"#utility.yul\":7630:7634   */\n      dup2\n        /* \"#utility.yul\":7626:7646   */\n      sub\n        /* \"#utility.yul\":7622:7623   */\n      0x00\n        /* \"#utility.yul\":7611:7620   */\n      dup4\n        /* \"#utility.yul\":7607:7624   */\n      add\n        /* \"#utility.yul\":7600:7647   */\n      mstore\n        /* \"#utility.yul\":7664:7795   */\n      tag_325\n        /* \"#utility.yul\":7790:7794   */\n      dup2\n        /* \"#utility.yul\":7664:7795   */\n      tag_221\n      jump\t// in\n    tag_325:\n        /* \"#utility.yul\":7656:7795   */\n      swap1\n      pop\n        /* \"#utility.yul\":7383:7802   */\n      swap2\n      swap1\n      pop\n      jump\t// out\n        /* \"#utility.yul\":7808:7955   */\n    tag_222:\n        /* \"#utility.yul\":7909:7920   */\n      0x00\n        /* \"#utility.yul\":7946:7949   */\n      dup2\n        /* \"#utility.yul\":7931:7949   */\n      swap1\n      pop\n        /* \"#utility.yul\":7808:7955   */\n      swap3\n      swap2\n      pop\n      pop\n      jump\t// out\n        /* \"#utility.yul\":7961:8075   */\n    tag_223:\n      pop\n      jump\t// out\n        /* \"#utility.yul\":8081:8479   */\n    tag_224:\n        /* \"#utility.yul\":8240:8243   */\n      0x00\n        /* \"#utility.yul\":8261:8344   */\n      tag_329\n        /* \"#utility.yul\":8342:8343   */\n      0x00\n        /* \"#utility.yul\":8337:8340   */\n      dup4\n        /* \"#utility.yul\":8261:8344   */\n      tag_222\n      jump\t// in\n    tag_329:\n        /* \"#utility.yul\":8254:8344   */\n      swap2\n      pop\n        /* \"#utility.yul\":8353:8446   */\n      tag_330\n        /* \"#utility.yul\":8442:8445   */\n      dup3\n        /* \"#utility.yul\":8353:8446   */\n      tag_223\n      jump\t// in\n    tag_330:\n        /* \"#utility.yul\":8471:8472   */\n      0x00\n        /* \"#utility.yul\":8466:8469   */\n      dup3\n        /* \"#utility.yul\":8462:8473   */\n      add\n        /* \"#utility.yul\":8455:8473   */\n      swap1\n      pop\n        /* \"#utility.yul\":8081:8479   */\n      swap2\n      swap1\n      pop\n      jump\t// out\n        /* \"#utility.yul\":8485:8864   */\n    tag_104:\n        /* \"#utility.yul\":8669:8672   */\n      0x00\n        /* \"#utility.yul\":8691:8838   */\n      tag_332\n        /* \"#utility.yul\":8834:8837   */\n      dup3\n        /* \"#utility.yul\":8691:8838   */\n      tag_224\n      jump\t// in\n    tag_332:\n        /* \"#utility.yul\":8684:8838   */\n      swap2\n      pop\n        /* \"#utility.yul\":8855:8858   */\n      dup2\n        /* \"#utility.yul\":8848:8858   */\n      swap1\n      pop\n        /* \"#utility.yul\":8485:8864   */\n      swap2\n      swap1\n      pop\n      jump\t// out\n        /* \"#utility.yul\":8870:9036   */\n    tag_225:\n        /* \"#utility.yul\":9010:9028   */\n      0x5472616e73666572206661696c65642e00000000000000000000000000000000\n        /* \"#utility.yul\":9006:9007   */\n      0x00\n        /* \"#utility.yul\":8998:9004   */\n      dup3\n        /* \"#utility.yul\":8994:9008   */\n      add\n        /* \"#utility.yul\":8987:9029   */\n      mstore\n        /* \"#utility.yul\":8870:9036   */\n      pop\n      jump\t// out\n        /* \"#utility.yul\":9042:9408   */\n    tag_226:\n        /* \"#utility.yul\":9184:9187   */\n      0x00\n        /* \"#utility.yul\":9205:9272   */\n      tag_335\n        /* \"#utility.yul\":9269:9271   */\n      0x10\n        /* \"#utility.yul\":9264:9267   */\n      dup4\n        /* \"#utility.yul\":9205:9272   */\n      tag_213\n      jump\t// in\n    tag_335:\n        /* \"#utility.yul\":9198:9272   */\n      swap2\n      pop\n        /* \"#utility.yul\":9281:9374   */\n      tag_336\n        /* \"#utility.yul\":9370:9373   */\n      dup3\n        /* \"#utility.yul\":9281:9374   */\n      tag_225\n      jump\t// in\n    tag_336:\n        /* \"#utility.yul\":9399:9401   */\n      0x20\n        /* \"#utility.yul\":9394:9397   */\n      dup3\n        /* \"#utility.yul\":9390:9402   */\n      add\n        /* \"#utility.yul\":9383:9402   */\n      swap1\n      pop\n        /* \"#utility.yul\":9042:9408   */\n      swap2\n      swap1\n      pop\n      jump\t// out\n        /* \"#utility.yul\":9414:9833   */\n    tag_110:\n        /* \"#utility.yul\":9580:9584   */\n      0x00\n        /* \"#utility.yul\":9618:9620   */\n      0x20\n        /* \"#utility.yul\":9607:9616   */\n      dup3\n        /* \"#utility.yul\":9603:9621   */\n      add\n        /* \"#utility.yul\":9595:9621   */\n      swap1\n      pop\n        /* \"#utility.yul\":9667:9676   */\n      dup2\n        /* \"#utility.yul\":9661:9665   */\n      dup2\n        /* \"#utility.yul\":9657:9677   */\n      sub\n        /* \"#utility.yul\":9653:9654   */\n      0x00\n        /* \"#utility.yul\":9642:9651   */\n      dup4\n        /* \"#utility.yul\":9638:9655   */\n      add\n        /* \"#utility.yul\":9631:9678   */\n      mstore\n        /* \"#utility.yul\":9695:9826   */\n      tag_338\n        /* \"#utility.yul\":9821:9825   */\n      dup2\n        /* \"#utility.yul\":9695:9826   */\n      tag_226\n      jump\t// in\n    tag_338:\n        /* \"#utility.yul\":9687:9826   */\n      swap1\n      pop\n        /* \"#utility.yul\":9414:9833   */\n      swap2\n      swap1\n      pop\n      jump\t// out\n        /* \"#utility.yul\":9839:10063   */\n    tag_227:\n        /* \"#utility.yul\":9979:10013   */\n      0x4f6e6c79206f776e65722063616e206578656375746520746869732066756e63\n        /* \"#utility.yul\":9975:9976   */\n      0x00\n        /* \"#utility.yul\":9967:9973   */\n      dup3\n        /* \"#utility.yul\":9963:9977   */\n      add\n        /* \"#utility.yul\":9956:10014   */\n      mstore\n        /* \"#utility.yul\":10048:10055   */\n      0x74696f6e2e000000000000000000000000000000000000000000000000000000\n        /* \"#utility.yul\":10043:10045   */\n      0x20\n        /* \"#utility.yul\":10035:10041   */\n      dup3\n        /* \"#utility.yul\":10031:10046   */\n      add\n        /* \"#utility.yul\":10024:10056   */\n      mstore\n        /* \"#utility.yul\":9839:10063   */\n      pop\n      jump\t// out\n        /* \"#utility.yul\":10069:10435   */\n    tag_228:\n        /* \"#utility.yul\":10211:10214   */\n      0x00\n        /* \"#utility.yul\":10232:10299   */\n      tag_341\n        /* \"#utility.yul\":10296:10298   */\n      0x25\n        /* \"#utility.yul\":10291:10294   */\n      dup4\n        /* \"#utility.yul\":10232:10299   */\n      tag_213\n      jump\t// in\n    tag_341:\n        /* \"#utility.yul\":10225:10299   */\n      swap2\n      pop\n        /* \"#utility.yul\":10308:10401   */\n      tag_342\n        /* \"#utility.yul\":10397:10400   */\n      dup3\n        /* \"#utility.yul\":10308:10401   */\n      tag_227\n      jump\t// in\n    tag_342:\n        /* \"#utility.yul\":10426:10428   */\n      0x40\n        /* \"#utility.yul\":10421:10424   */\n      dup3\n        /* \"#utility.yul\":10417:10429   */\n      add\n        /* \"#utility.yul\":10410:10429   */\n      swap1\n      pop\n        /* \"#utility.yul\":10069:10435   */\n      swap2\n      swap1\n      pop\n      jump\t// out\n        /* \"#utility.yul\":10441:10860   */\n    tag_116:\n        /* \"#utility.yul\":10607:10611   */\n      0x00\n        /* \"#utility.yul\":10645:10647   */\n      0x20\n        /* \"#utility.yul\":10634:10643   */\n      dup3\n        /* \"#utility.yul\":10630:10648   */\n      add\n        /* \"#utility.yul\":10622:10648   */\n      swap1\n      pop\n        /* \"#utility.yul\":10694:10703   */\n      dup2\n        /* \"#utility.yul\":10688:10692   */\n      dup2\n        /* \"#utility.yul\":10684:10704   */\n      sub\n        /* \"#utility.yul\":10680:10681   */\n      0x00\n        /* \"#utility.yul\":10669:10678   */\n      dup4\n        /* \"#utility.yul\":10665:10682   */\n      add\n        /* \"#utility.yul\":10658:10705   */\n      mstore\n        /* \"#utility.yul\":10722:10853   */\n      tag_344\n        /* \"#utility.yul\":10848:10852   */\n      dup2\n        /* \"#utility.yul\":10722:10853   */\n      tag_228\n      jump\t// in\n    tag_344:\n        /* \"#utility.yul\":10714:10853   */\n      swap1\n      pop\n        /* \"#utility.yul\":10441:10860   */\n      swap2\n      swap1\n      pop\n      jump\t// out\n        /* \"#utility.yul\":10866:11087   */\n    tag_229:\n        /* \"#utility.yul\":11006:11040   */\n      0x4f6e6c79206f776e65722063616e2063616c6c20746869732066756e6374696f\n        /* \"#utility.yul\":11002:11003   */\n      0x00\n        /* \"#utility.yul\":10994:11000   */\n      dup3\n        /* \"#utility.yul\":10990:11004   */\n      add\n        /* \"#utility.yul\":10983:11041   */\n      mstore\n        /* \"#utility.yul\":11075:11079   */\n      0x6e2e000000000000000000000000000000000000000000000000000000000000\n        /* \"#utility.yul\":11070:11072   */\n      0x20\n        /* \"#utility.yul\":11062:11068   */\n      dup3\n        /* \"#utility.yul\":11058:11073   */\n      add\n        /* \"#utility.yul\":11051:11080   */\n      mstore\n        /* \"#utility.yul\":10866:11087   */\n      pop\n      jump\t// out\n        /* \"#utility.yul\":11093:11459   */\n    tag_230:\n        /* \"#utility.yul\":11235:11238   */\n      0x00\n        /* \"#utility.yul\":11256:11323   */\n      tag_347\n        /* \"#utility.yul\":11320:11322   */\n      0x22\n        /* \"#utility.yul\":11315:11318   */\n      dup4\n        /* \"#utility.yul\":11256:11323   */\n      tag_213\n      jump\t// in\n    tag_347:\n        /* \"#utility.yul\":11249:11323   */\n      swap2\n      pop\n        /* \"#utility.yul\":11332:11425   */\n      tag_348\n        /* \"#utility.yul\":11421:11424   */\n      dup3\n        /* \"#utility.yul\":11332:11425   */\n      tag_229\n      jump\t// in\n    tag_348:\n        /* \"#utility.yul\":11450:11452   */\n      0x40\n        /* \"#utility.yul\":11445:11448   */\n      dup3\n        /* \"#utility.yul\":11441:11453   */\n      add\n        /* \"#utility.yul\":11434:11453   */\n      swap1\n      pop\n        /* \"#utility.yul\":11093:11459   */\n      swap2\n      swap1\n      pop\n      jump\t// out\n        /* \"#utility.yul\":11465:11884   */\n    tag_120:\n        /* \"#utility.yul\":11631:11635   */\n      0x00\n        /* \"#utility.yul\":11669:11671   */\n      0x20\n        /* \"#utility.yul\":11658:11667   */\n      dup3\n        /* \"#utility.yul\":11654:11672   */\n      add\n        /* \"#utility.yul\":11646:11672   */\n      swap1\n      pop\n        /* \"#utility.yul\":11718:11727   */\n      dup2\n        /* \"#utility.yul\":11712:11716   */\n      dup2\n        /* \"#utility.yul\":11708:11728   */\n      sub\n        /* \"#utility.yul\":11704:11705   */\n      0x00\n        /* \"#utility.yul\":11693:11702   */\n      dup4\n        /* \"#utility.yul\":11689:11706   */\n      add\n        /* \"#utility.yul\":11682:11729   */\n      mstore\n        /* \"#utility.yul\":11746:11877   */\n      tag_350\n        /* \"#utility.yul\":11872:11876   */\n      dup2\n        /* \"#utility.yul\":11746:11877   */\n      tag_230\n      jump\t// in\n    tag_350:\n        /* \"#utility.yul\":11738:11877   */\n      swap1\n      pop\n        /* \"#utility.yul\":11465:11884   */\n      swap2\n      swap1\n      pop\n      jump\t// out\n        /* \"#utility.yul\":11890:12071   */\n    tag_231:\n        /* \"#utility.yul\":12030:12063   */\n      0x57616c6c65742061646472657373206973206e6f7420612066756e6465722e00\n        /* \"#utility.yul\":12026:12027   */\n      0x00\n        /* \"#utility.yul\":12018:12024   */\n      dup3\n        /* \"#utility.yul\":12014:12028   */\n      add\n        /* \"#utility.yul\":12007:12064   */\n      mstore\n        /* \"#utility.yul\":11890:12071   */\n      pop\n      jump\t// out\n        /* \"#utility.yul\":12077:12443   */\n    tag_232:\n        /* \"#utility.yul\":12219:12222   */\n      0x00\n        /* \"#utility.yul\":12240:12307   */\n      tag_353\n        /* \"#utility.yul\":12304:12306   */\n      0x1f\n        /* \"#utility.yul\":12299:12302   */\n      dup4\n        /* \"#utility.yul\":12240:12307   */\n      tag_213\n      jump\t// in\n    tag_353:\n        /* \"#utility.yul\":12233:12307   */\n      swap2\n      pop\n        /* \"#utility.yul\":12316:12409   */\n      tag_354\n        /* \"#utility.yul\":12405:12408   */\n      dup3\n        /* \"#utility.yul\":12316:12409   */\n      tag_231\n      jump\t// in\n    tag_354:\n        /* \"#utility.yul\":12434:12436   */\n      0x20\n        /* \"#utility.yul\":12429:12432   */\n      dup3\n        /* \"#utility.yul\":12425:12437   */\n      add\n        /* \"#utility.yul\":12418:12437   */\n      swap1\n      pop\n        /* \"#utility.yul\":12077:12443   */\n      swap2\n      swap1\n      pop\n      jump\t// out\n        /* \"#utility.yul\":12449:12868   */\n    tag_135:\n        /* \"#utility.yul\":12615:12619   */\n      0x00\n        /* \"#utility.yul\":12653:12655   */\n      0x20\n        /* \"#utility.yul\":12642:12651   */\n      dup3\n        /* \"#utility.yul\":12638:12656   */\n      add\n        /* \"#utility.yul\":12630:12656   */\n      swap1\n      pop\n        /* \"#utility.yul\":12702:12711   */\n      dup2\n        /* \"#utility.yul\":12696:12700   */\n      dup2\n        /* \"#utility.yul\":12692:12712   */\n      sub\n        /* \"#utility.yul\":12688:12689   */\n      0x00\n        /* \"#utility.yul\":12677:12686   */\n      dup4\n        /* \"#utility.yul\":12673:12690   */\n      add\n        /* \"#utility.yul\":12666:12713   */\n      mstore\n        /* \"#utility.yul\":12730:12861   */\n      tag_356\n        /* \"#utility.yul\":12856:12860   */\n      dup2\n        /* \"#utility.yul\":12730:12861   */\n      tag_232\n      jump\t// in\n    tag_356:\n        /* \"#utility.yul\":12722:12861   */\n      swap1\n      pop\n        /* \"#utility.yul\":12449:12868   */\n      swap2\n      swap1\n      pop\n      jump\t// out\n        /* \"#utility.yul\":12874:13068   */\n    tag_137:\n        /* \"#utility.yul\":12914:12918   */\n      0x00\n        /* \"#utility.yul\":12934:12954   */\n      tag_358\n        /* \"#utility.yul\":12952:12953   */\n      dup3\n        /* \"#utility.yul\":12934:12954   */\n      tag_206\n      jump\t// in\n    tag_358:\n        /* \"#utility.yul\":12929:12954   */\n      swap2\n      pop\n        /* \"#utility.yul\":12968:12988   */\n      tag_359\n        /* \"#utility.yul\":12986:12987   */\n      dup4\n        /* \"#utility.yul\":12968:12988   */\n      tag_206\n      jump\t// in\n    tag_359:\n        /* \"#utility.yul\":12963:12988   */\n      swap3\n      pop\n        /* \"#utility.yul\":13012:13013   */\n      dup3\n        /* \"#utility.yul\":13009:13010   */\n      dup3\n        /* \"#utility.yul\":13005:13014   */\n      sub\n        /* \"#utility.yul\":12997:13014   */\n      swap1\n      pop\n        /* \"#utility.yul\":13036:13037   */\n      dup2\n        /* \"#utility.yul\":13030:13034   */\n      dup2\n        /* \"#utility.yul\":13027:13038   */\n      gt\n        /* \"#utility.yul\":13024:13061   */\n      iszero\n      tag_360\n      jumpi\n        /* \"#utility.yul\":13041:13059   */\n      tag_361\n      tag_216\n      jump\t// in\n    tag_361:\n        /* \"#utility.yul\":13024:13061   */\n    tag_360:\n        /* \"#utility.yul\":12874:13068   */\n      swap3\n      swap2\n      pop\n      pop\n      jump\t// out\n        /* \"#utility.yul\":13074:13179   */\n    tag_233:\n        /* \"#utility.yul\":13110:13117   */\n      0x00\n        /* \"#utility.yul\":13150:13172   */\n      0xffffffffffffffffffff\n        /* \"#utility.yul\":13143:13148   */\n      dup3\n        /* \"#utility.yul\":13139:13173   */\n      and\n        /* \"#utility.yul\":13128:13173   */\n      swap1\n      pop\n        /* \"#utility.yul\":13074:13179   */\n      swap2\n      swap1\n      pop\n      jump\t// out\n        /* \"#utility.yul\":13185:13305   */\n    tag_234:\n        /* \"#utility.yul\":13257:13280   */\n      tag_364\n        /* \"#utility.yul\":13274:13279   */\n      dup2\n        /* \"#utility.yul\":13257:13280   */\n      tag_233\n      jump\t// in\n    tag_364:\n        /* \"#utility.yul\":13250:13255   */\n      dup2\n        /* \"#utility.yul\":13247:13281   */\n      eq\n        /* \"#utility.yul\":13237:13299   */\n      tag_365\n      jumpi\n        /* \"#utility.yul\":13295:13296   */\n      0x00\n        /* \"#utility.yul\":13292:13293   */\n      dup1\n        /* \"#utility.yul\":13285:13297   */\n      revert\n        /* \"#utility.yul\":13237:13299   */\n    tag_365:\n        /* \"#utility.yul\":13185:13305   */\n      pop\n      jump\t// out\n        /* \"#utility.yul\":13311:13452   */\n    tag_235:\n        /* \"#utility.yul\":13367:13372   */\n      0x00\n        /* \"#utility.yul\":13398:13404   */\n      dup2\n        /* \"#utility.yul\":13392:13405   */\n      mload\n        /* \"#utility.yul\":13383:13405   */\n      swap1\n      pop\n        /* \"#utility.yul\":13414:13446   */\n      tag_367\n        /* \"#utility.yul\":13440:13445   */\n      dup2\n        /* \"#utility.yul\":13414:13446   */\n      tag_234\n      jump\t// in\n    tag_367:\n        /* \"#utility.yul\":13311:13452   */\n      swap3\n      swap2\n      pop\n      pop\n      jump\t// out\n        /* \"#utility.yul\":13458:13534   */\n    tag_236:\n        /* \"#utility.yul\":13494:13501   */\n      0x00\n        /* \"#utility.yul\":13523:13528   */\n      dup2\n        /* \"#utility.yul\":13512:13528   */\n      swap1\n      pop\n        /* \"#utility.yul\":13458:13534   */\n      swap2\n      swap1\n      pop\n      jump\t// out\n        /* \"#utility.yul\":13540:13660   */\n    tag_237:\n        /* \"#utility.yul\":13612:13635   */\n      tag_370\n        /* \"#utility.yul\":13629:13634   */\n      dup2\n        /* \"#utility.yul\":13612:13635   */\n      tag_236\n      jump\t// in\n    tag_370:\n        /* \"#utility.yul\":13605:13610   */\n      dup2\n        /* \"#utility.yul\":13602:13636   */\n      eq\n        /* \"#utility.yul\":13592:13654   */\n      tag_371\n      jumpi\n        /* \"#utility.yul\":13650:13651   */\n      0x00\n        /* \"#utility.yul\":13647:13648   */\n      dup1\n        /* \"#utility.yul\":13640:13652   */\n      revert\n        /* \"#utility.yul\":13592:13654   */\n    tag_371:\n        /* \"#utility.yul\":13540:13660   */\n      pop\n      jump\t// out\n        /* \"#utility.yul\":13666:13807   */\n    tag_238:\n        /* \"#utility.yul\":13722:13727   */\n      0x00\n        /* \"#utility.yul\":13753:13759   */\n      dup2\n        /* \"#utility.yul\":13747:13760   */\n      mload\n        /* \"#utility.yul\":13738:13760   */\n      swap1\n      pop\n        /* \"#utility.yul\":13769:13801   */\n      tag_373\n        /* \"#utility.yul\":13795:13800   */\n      dup2\n        /* \"#utility.yul\":13769:13801   */\n      tag_237\n      jump\t// in\n    tag_373:\n        /* \"#utility.yul\":13666:13807   */\n      swap3\n      swap2\n      pop\n      pop\n      jump\t// out\n        /* \"#utility.yul\":13813:13956   */\n    tag_239:\n        /* \"#utility.yul\":13870:13875   */\n      0x00\n        /* \"#utility.yul\":13901:13907   */\n      dup2\n        /* \"#utility.yul\":13895:13908   */\n      mload\n        /* \"#utility.yul\":13886:13908   */\n      swap1\n      pop\n        /* \"#utility.yul\":13917:13950   */\n      tag_375\n        /* \"#utility.yul\":13944:13949   */\n      dup2\n        /* \"#utility.yul\":13917:13950   */\n      tag_208\n      jump\t// in\n    tag_375:\n        /* \"#utility.yul\":13813:13956   */\n      swap3\n      swap2\n      pop\n      pop\n      jump\t// out\n        /* \"#utility.yul\":13962:14933   */\n    tag_150:\n        /* \"#utility.yul\":14065:14071   */\n      0x00\n        /* \"#utility.yul\":14073:14079   */\n      dup1\n        /* \"#utility.yul\":14081:14087   */\n      0x00\n        /* \"#utility.yul\":14089:14095   */\n      dup1\n        /* \"#utility.yul\":14097:14103   */\n      0x00\n        /* \"#utility.yul\":14146:14149   */\n      0xa0\n        /* \"#utility.yul\":14134:14143   */\n      dup7\n        /* \"#utility.yul\":14125:14132   */\n      dup9\n        /* \"#utility.yul\":14121:14144   */\n      sub\n        /* \"#utility.yul\":14117:14150   */\n      slt\n        /* \"#utility.yul\":14114:14234   */\n      iszero\n      tag_377\n      jumpi\n        /* \"#utility.yul\":14153:14232   */\n      tag_378\n      tag_200\n      jump\t// in\n    tag_378:\n        /* \"#utility.yul\":14114:14234   */\n    tag_377:\n        /* \"#utility.yul\":14273:14274   */\n      0x00\n        /* \"#utility.yul\":14298:14361   */\n      tag_379\n        /* \"#utility.yul\":14353:14360   */\n      dup9\n        /* \"#utility.yul\":14344:14350   */\n      dup3\n        /* \"#utility.yul\":14333:14342   */\n      dup10\n        /* \"#utility.yul\":14329:14351   */\n      add\n        /* \"#utility.yul\":14298:14361   */\n      tag_235\n      jump\t// in\n    tag_379:\n        /* \"#utility.yul\":14288:14361   */\n      swap6\n      pop\n        /* \"#utility.yul\":14244:14371   */\n      pop\n        /* \"#utility.yul\":14410:14412   */\n      0x20\n        /* \"#utility.yul\":14436:14499   */\n      tag_380\n        /* \"#utility.yul\":14491:14498   */\n      dup9\n        /* \"#utility.yul\":14482:14488   */\n      dup3\n        /* \"#utility.yul\":14471:14480   */\n      dup10\n        /* \"#utility.yul\":14467:14489   */\n      add\n        /* \"#utility.yul\":14436:14499   */\n      tag_238\n      jump\t// in\n    tag_380:\n        /* \"#utility.yul\":14426:14499   */\n      swap5\n      pop\n        /* \"#utility.yul\":14381:14509   */\n      pop\n        /* \"#utility.yul\":14548:14550   */\n      0x40\n        /* \"#utility.yul\":14574:14638   */\n      tag_381\n        /* \"#utility.yul\":14630:14637   */\n      dup9\n        /* \"#utility.yul\":14621:14627   */\n      dup3\n        /* \"#utility.yul\":14610:14619   */\n      dup10\n        /* \"#utility.yul\":14606:14628   */\n      add\n        /* \"#utility.yul\":14574:14638   */\n      tag_239\n      jump\t// in\n    tag_381:\n        /* \"#utility.yul\":14564:14638   */\n      swap4\n      pop\n        /* \"#utility.yul\":14519:14648   */\n      pop\n        /* \"#utility.yul\":14687:14689   */\n      0x60\n        /* \"#utility.yul\":14713:14777   */\n      tag_382\n        /* \"#utility.yul\":14769:14776   */\n      dup9\n        /* \"#utility.yul\":14760:14766   */\n      dup3\n        /* \"#utility.yul\":14749:14758   */\n      dup10\n        /* \"#utility.yul\":14745:14767   */\n      add\n        /* \"#utility.yul\":14713:14777   */\n      tag_239\n      jump\t// in\n    tag_382:\n        /* \"#utility.yul\":14703:14777   */\n      swap3\n      pop\n        /* \"#utility.yul\":14658:14787   */\n      pop\n        /* \"#utility.yul\":14826:14829   */\n      0x80\n        /* \"#utility.yul\":14853:14916   */\n      tag_383\n        /* \"#utility.yul\":14908:14915   */\n      dup9\n        /* \"#utility.yul\":14899:14905   */\n      dup3\n        /* \"#utility.yul\":14888:14897   */\n      dup10\n        /* \"#utility.yul\":14884:14906   */\n      add\n        /* \"#utility.yul\":14853:14916   */\n      tag_235\n      jump\t// in\n    tag_383:\n        /* \"#utility.yul\":14843:14916   */\n      swap2\n      pop\n        /* \"#utility.yul\":14797:14926   */\n      pop\n        /* \"#utility.yul\":13962:14933   */\n      swap3\n      swap6\n      pop\n      swap3\n      swap6\n      swap1\n      swap4\n      pop\n      jump\t// out\n        /* \"#utility.yul\":14939:15116   */\n    tag_240:\n        /* \"#utility.yul\":15079:15108   */\n      0x4e65676174697665207072696365206e6f7420616c6c6f7765642e0000000000\n        /* \"#utility.yul\":15075:15076   */\n      0x00\n        /* \"#utility.yul\":15067:15073   */\n      dup3\n        /* \"#utility.yul\":15063:15077   */\n      add\n        /* \"#utility.yul\":15056:15109   */\n      mstore\n        /* \"#utility.yul\":14939:15116   */\n      pop\n      jump\t// out\n        /* \"#utility.yul\":15122:15488   */\n    tag_241:\n        /* \"#utility.yul\":15264:15267   */\n      0x00\n        /* \"#utility.yul\":15285:15352   */\n      tag_386\n        /* \"#utility.yul\":15349:15351   */\n      0x1b\n        /* \"#utility.yul\":15344:15347   */\n      dup4\n        /* \"#utility.yul\":15285:15352   */\n      tag_213\n      jump\t// in\n    tag_386:\n        /* \"#utility.yul\":15278:15352   */\n      swap2\n      pop\n        /* \"#utility.yul\":15361:15454   */\n      tag_387\n        /* \"#utility.yul\":15450:15453   */\n      dup3\n        /* \"#utility.yul\":15361:15454   */\n      tag_240\n      jump\t// in\n    tag_387:\n        /* \"#utility.yul\":15479:15481   */\n      0x20\n        /* \"#utility.yul\":15474:15477   */\n      dup3\n        /* \"#utility.yul\":15470:15482   */\n      add\n        /* \"#utility.yul\":15463:15482   */\n      swap1\n      pop\n        /* \"#utility.yul\":15122:15488   */\n      swap2\n      swap1\n      pop\n      jump\t// out\n        /* \"#utility.yul\":15494:15913   */\n    tag_153:\n        /* \"#utility.yul\":15660:15664   */\n      0x00\n        /* \"#utility.yul\":15698:15700   */\n      0x20\n        /* \"#utility.yul\":15687:15696   */\n      dup3\n        /* \"#utility.yul\":15683:15701   */\n      add\n        /* \"#utility.yul\":15675:15701   */\n      swap1\n      pop\n        /* \"#utility.yul\":15747:15756   */\n      dup2\n        /* \"#utility.yul\":15741:15745   */\n      dup2\n        /* \"#utility.yul\":15737:15757   */\n      sub\n        /* \"#utility.yul\":15733:15734   */\n      0x00\n        /* \"#utility.yul\":15722:15731   */\n      dup4\n        /* \"#utility.yul\":15718:15735   */\n      add\n        /* \"#utility.yul\":15711:15758   */\n      mstore\n        /* \"#utility.yul\":15775:15906   */\n      tag_389\n        /* \"#utility.yul\":15901:15905   */\n      dup2\n        /* \"#utility.yul\":15775:15906   */\n      tag_241\n      jump\t// in\n    tag_389:\n        /* \"#utility.yul\":15767:15906   */\n      swap1\n      pop\n        /* \"#utility.yul\":15494:15913   */\n      swap2\n      swap1\n      pop\n      jump\t// out\n        /* \"#utility.yul\":15919:16162   */\n    tag_242:\n        /* \"#utility.yul\":16059:16093   */\n      0x43616e6e6f74206368616e6765207468652076616c7565206f66206d696e696d\n        /* \"#utility.yul\":16055:16056   */\n      0x00\n        /* \"#utility.yul\":16047:16053   */\n      dup3\n        /* \"#utility.yul\":16043:16057   */\n      add\n        /* \"#utility.yul\":16036:16094   */\n      mstore\n        /* \"#utility.yul\":16128:16154   */\n      0x756d55736420746f207468652073616d652076616c75652e0000000000000000\n        /* \"#utility.yul\":16123:16125   */\n      0x20\n        /* \"#utility.yul\":16115:16121   */\n      dup3\n        /* \"#utility.yul\":16111:16126   */\n      add\n        /* \"#utility.yul\":16104:16155   */\n      mstore\n        /* \"#utility.yul\":15919:16162   */\n      pop\n      jump\t// out\n        /* \"#utility.yul\":16168:16534   */\n    tag_243:\n        /* \"#utility.yul\":16310:16313   */\n      0x00\n        /* \"#utility.yul\":16331:16398   */\n      tag_392\n        /* \"#utility.yul\":16395:16397   */\n      0x38\n        /* \"#utility.yul\":16390:16393   */\n      dup4\n        /* \"#utility.yul\":16331:16398   */\n      tag_213\n      jump\t// in\n    tag_392:\n        /* \"#utility.yul\":16324:16398   */\n      swap2\n      pop\n        /* \"#utility.yul\":16407:16500   */\n      tag_393\n        /* \"#utility.yul\":16496:16499   */\n      dup3\n        /* \"#utility.yul\":16407:16500   */\n      tag_242\n      jump\t// in\n    tag_393:\n        /* \"#utility.yul\":16525:16527   */\n      0x40\n        /* \"#utility.yul\":16520:16523   */\n      dup3\n        /* \"#utility.yul\":16516:16528   */\n      add\n        /* \"#utility.yul\":16509:16528   */\n      swap1\n      pop\n        /* \"#utility.yul\":16168:16534   */\n      swap2\n      swap1\n      pop\n      jump\t// out\n        /* \"#utility.yul\":16540:16959   */\n    tag_163:\n        /* \"#utility.yul\":16706:16710   */\n      0x00\n        /* \"#utility.yul\":16744:16746   */\n      0x20\n        /* \"#utility.yul\":16733:16742   */\n      dup3\n        /* \"#utility.yul\":16729:16747   */\n      add\n        /* \"#utility.yul\":16721:16747   */\n      swap1\n      pop\n        /* \"#utility.yul\":16793:16802   */\n      dup2\n        /* \"#utility.yul\":16787:16791   */\n      dup2\n        /* \"#utility.yul\":16783:16803   */\n      sub\n        /* \"#utility.yul\":16779:16780   */\n      0x00\n        /* \"#utility.yul\":16768:16777   */\n      dup4\n        /* \"#utility.yul\":16764:16781   */\n      add\n        /* \"#utility.yul\":16757:16804   */\n      mstore\n        /* \"#utility.yul\":16821:16952   */\n      tag_395\n        /* \"#utility.yul\":16947:16951   */\n      dup2\n        /* \"#utility.yul\":16821:16952   */\n      tag_243\n      jump\t// in\n    tag_395:\n        /* \"#utility.yul\":16813:16952   */\n      swap1\n      pop\n        /* \"#utility.yul\":16540:16959   */\n      swap2\n      swap1\n      pop\n      jump\t// out\n        /* \"#utility.yul\":16965:17145   */\n    tag_170:\n        /* \"#utility.yul\":17013:17090   */\n      0x4e487b7100000000000000000000000000000000000000000000000000000000\n        /* \"#utility.yul\":17010:17011   */\n      0x00\n        /* \"#utility.yul\":17003:17091   */\n      mstore\n        /* \"#utility.yul\":17110:17114   */\n      0x32\n        /* \"#utility.yul\":17107:17108   */\n      0x04\n        /* \"#utility.yul\":17100:17115   */\n      mstore\n        /* \"#utility.yul\":17134:17138   */\n      0x24\n        /* \"#utility.yul\":17131:17132   */\n      0x00\n        /* \"#utility.yul\":17124:17139   */\n      revert\n        /* \"#utility.yul\":17151:17331   */\n    tag_179:\n        /* \"#utility.yul\":17199:17276   */\n      0x4e487b7100000000000000000000000000000000000000000000000000000000\n        /* \"#utility.yul\":17196:17197   */\n      0x00\n        /* \"#utility.yul\":17189:17277   */\n      mstore\n        /* \"#utility.yul\":17296:17300   */\n      0x31\n        /* \"#utility.yul\":17293:17294   */\n      0x04\n        /* \"#utility.yul\":17286:17301   */\n      mstore\n        /* \"#utility.yul\":17320:17324   */\n      0x24\n        /* \"#utility.yul\":17317:17318   */\n      0x00\n        /* \"#utility.yul\":17310:17325   */\n      revert\n        /* \"#utility.yul\":17337:17452   */\n    tag_244:\n        /* \"#utility.yul\":17422:17445   */\n      tag_399\n        /* \"#utility.yul\":17439:17444   */\n      dup2\n        /* \"#utility.yul\":17422:17445   */\n      tag_236\n      jump\t// in\n    tag_399:\n        /* \"#utility.yul\":17417:17420   */\n      dup3\n        /* \"#utility.yul\":17410:17446   */\n      mstore\n        /* \"#utility.yul\":17337:17452   */\n      pop\n      pop\n      jump\t// out\n        /* \"#utility.yul\":17458:17676   */\n    tag_193:\n        /* \"#utility.yul\":17549:17553   */\n      0x00\n        /* \"#utility.yul\":17587:17589   */\n      0x20\n        /* \"#utility.yul\":17576:17585   */\n      dup3\n        /* \"#utility.yul\":17572:17590   */\n      add\n        /* \"#utility.yul\":17564:17590   */\n      swap1\n      pop\n        /* \"#utility.yul\":17600:17669   */\n      tag_401\n        /* \"#utility.yul\":17666:17667   */\n      0x00\n        /* \"#utility.yul\":17655:17664   */\n      dup4\n        /* \"#utility.yul\":17651:17668   */\n      add\n        /* \"#utility.yul\":17642:17648   */\n      dup5\n        /* \"#utility.yul\":17600:17669   */\n      tag_244\n      jump\t// in\n    tag_401:\n        /* \"#utility.yul\":17458:17676   */\n      swap3\n      swap2\n      pop\n      pop\n      jump\t// out\n\n    auxdata: 0xa26469706673582212207bad2ac9f3367b65e6279694afc54f590fa5067c4c9d49b1528e3a5d7d14e58664736f6c634300081a0033\n}\n",
				"bytecode": {
					"linkReferences": {},
					"object": "6080604052348015600e575f80fd5b50335f60016101000a81548173ffffffffffffffffffffffffffffffffffffffff021916908373ffffffffffffffffffffffffffffffffffffffff160217905550631dcd6500600181905550611aef806100675f395ff3fe6080604052600436106100c5575f3560e01c80638da5cb5b1161007e578063cc3b589e11610058578063cc3b589e1461022c578063d78a29d214610268578063dc0d3dff14610290578063f8024578146102cc576100d4565b80638da5cb5b146101ce57806398d5fdca146101f8578063b60d428814610222576100d4565b8063034855c7146100d8578063098de820146101145780633e9f607c1461013e578063455fd6231461017a5780635eb8d90b1461019057806371d2ee6c146101a6576100d4565b366100d4576100d2610308565b005b5f80fd5b3480156100e3575f80fd5b506100fe60048036038101906100f9919061122e565b610507565b60405161010b9190611271565b60405180910390f35b34801561011f575f80fd5b5061012861051c565b6040516101359190611271565b60405180910390f35b348015610149575f80fd5b50610164600480360381019061015f91906112b4565b610522565b6040516101719190611271565b60405180910390f35b348015610185575f80fd5b5061018e61054a565b005b34801561019b575f80fd5b506101a461074d565b005b3480156101b1575f80fd5b506101cc60048036038101906101c791906112f2565b610925565b005b3480156101d9575f80fd5b506101e2610b8b565b6040516101ef919061132c565b60405180910390f35b348015610203575f80fd5b5061020c610bb0565b6040516102199190611271565b60405180910390f35b61022a610308565b005b348015610237575f80fd5b50610252600480360381019061024d919061122e565b610c8a565b60405161025f9190611271565b60405180910390f35b348015610273575f80fd5b5061028e600480360381019061028991906112f2565b610c9f565b005b34801561029b575f80fd5b506102b660048036038101906102b191906112f2565b610d90565b6040516102c3919061132c565b60405180910390f35b3480156102d7575f80fd5b506102f260048036038101906102ed919061122e565b610dcb565b6040516102ff919061135f565b60405180910390f35b5f610311610bb0565b90505f61031e8234610522565b9050600154811015610365576040517f08c379a000000000000000000000000000000000000000000000000000000000815260040161035c906113d2565b60405180910390fd5b60045f3373ffffffffffffffffffffffffffffffffffffffff1673ffffffffffffffffffffffffffffffffffffffff1681526020019081526020015f205f9054906101000a900460ff166104b05760028054905060035f3373ffffffffffffffffffffffffffffffffffffffff1673ffffffffffffffffffffffffffffffffffffffff1681526020019081526020015f2081905550600233908060018154018082558091505060019003905f5260205f20015f9091909190916101000a81548173ffffffffffffffffffffffffffffffffffffffff021916908373ffffffffffffffffffffffffffffffffffffffff160217905550600160045f3373ffffffffffffffffffffffffffffffffffffffff1673ffffffffffffffffffffffffffffffffffffffff1681526020019081526020015f205f6101000a81548160ff0219169083151502179055505b3460055f3373ffffffffffffffffffffffffffffffffffffffff1673ffffffffffffffffffffffffffffffffffffffff1681526020019081526020015f205f8282546104fc919061141d565b925050819055505050565b6005602052805f5260405f205f915090505481565b60015481565b5f670de0b6b3a764000082846105389190611450565b61054291906114be565b905092915050565b5f15155f8054906101000a900460ff1615151461059c576040517f08c379a00000000000000000000000000000000000000000000000000000000081526004016105939061155e565b60405180910390fd5b60015f806101000a81548160ff0219169083151502179055505f60055f3373ffffffffffffffffffffffffffffffffffffffff1673ffffffffffffffffffffffffffffffffffffffff1681526020019081526020015f205490505f8111610638576040517f08c379a000000000000000000000000000000000000000000000000000000000815260040161062f906115c6565b60405180910390fd5b5f60055f3373ffffffffffffffffffffffffffffffffffffffff1673ffffffffffffffffffffffffffffffffffffffff1681526020019081526020015f20819055505f3373ffffffffffffffffffffffffffffffffffffffff168260405161069f90611611565b5f6040518083038185875af1925050503d805f81146106d9576040519150601f19603f3d011682016040523d82523d5f602084013e6106de565b606091505b505090506001151581151514610729576040517f08c379a00000000000000000000000000000000000000000000000000000000081526004016107209061166f565b60405180910390fd5b610731610de8565b50505f805f6101000a81548160ff021916908315150217905550565b5f60019054906101000a900473ffffffffffffffffffffffffffffffffffffffff1673ffffffffffffffffffffffffffffffffffffffff163373ffffffffffffffffffffffffffffffffffffffff16146107dc576040517f08c379a00000000000000000000000000000000000000000000000000000000081526004016107d3906116fd565b60405180910390fd5b5f60019054906101000a900473ffffffffffffffffffffffffffffffffffffffff1673ffffffffffffffffffffffffffffffffffffffff163373ffffffffffffffffffffffffffffffffffffffff161461086b576040517f08c379a00000000000000000000000000000000000000000000000000000000081526004016108629061178b565b60405180910390fd5b5f3373ffffffffffffffffffffffffffffffffffffffff164760405161089090611611565b5f6040518083038185875af1925050503d805f81146108ca576040519150601f19603f3d011682016040523d82523d5f602084013e6108cf565b606091505b50509050600115158115151461091a576040517f08c379a00000000000000000000000000000000000000000000000000000000081526004016109119061166f565b60405180910390fd5b610922611047565b50565b5f15155f8054906101000a900460ff16151514610977576040517f08c379a000000000000000000000000000000000000000000000000000000000815260040161096e9061155e565b60405180910390fd5b60015f806101000a81548160ff0219169083151502179055506001151560045f3373ffffffffffffffffffffffffffffffffffffffff1673ffffffffffffffffffffffffffffffffffffffff1681526020019081526020015f205f9054906101000a900460ff16151514610a20576040517f08c379a0000000000000000000000000000000000000000000000000000000008152600401610a17906117f3565b60405180910390fd5b8060055f3373ffffffffffffffffffffffffffffffffffffffff1673ffffffffffffffffffffffffffffffffffffffff1681526020019081526020015f205f828254610a6c9190611811565b925050819055505f3373ffffffffffffffffffffffffffffffffffffffff1682604051610a9890611611565b5f6040518083038185875af1925050503d805f8114610ad2576040519150601f19603f3d011682016040523d82523d5f602084013e610ad7565b606091505b505090506001151581151514610b22576040517f08c379a0000000000000000000000000000000000000000000000000000000008152600401610b199061166f565b60405180910390fd5b5f60055f3373ffffffffffffffffffffffffffffffffffffffff1673ffffffffffffffffffffffffffffffffffffffff1681526020019081526020015f205411610b6f57610b6e610de8565b5b505f805f6101000a81548160ff02191690831515021790555050565b5f60019054906101000a900473ffffffffffffffffffffffffffffffffffffffff1681565b5f8073694aa1769357215de4fac081bf1f309adc32530673ffffffffffffffffffffffffffffffffffffffff1663feaf968c6040518163ffffffff1660e01b815260040160a060405180830381865afa158015610c0f573d5f803e3d5ffd5b505050506040513d601f19601f82011682018060405250810190610c3391906118ca565b5050509150505f8113610c7b576040517f08c379a0000000000000000000000000000000000000000000000000000000008152600401610c729061198b565b60405180910390fd5b610c8481611149565b91505090565b6003602052805f5260405f205f915090505481565b5f60019054906101000a900473ffffffffffffffffffffffffffffffffffffffff1673ffffffffffffffffffffffffffffffffffffffff163373ffffffffffffffffffffffffffffffffffffffff1614610d2e576040517f08c379a0000000000000000000000000000000000000000000000000000000008152600401610d25906116fd565b60405180910390fd5b5f6305f5e10082610d3f9190611450565b90506001548103610d85576040517f08c379a0000000000000000000000000000000000000000000000000000000008152600401610d7c90611a19565b60405180910390fd5b806001819055505050565b60028181548110610d9f575f80fd5b905f5260205f20015f915054906101000a900473ffffffffffffffffffffffffffffffffffffffff1681565b6004602052805f5260405f205f915054906101000a900460ff1681565b5f60026001600280549050610dfd9190611811565b81548110610e0e57610e0d611a37565b5b905f5260205f20015f9054906101000a900473ffffffffffffffffffffffffffffffffffffffff1690505f60035f3373ffffffffffffffffffffffffffffffffffffffff1673ffffffffffffffffffffffffffffffffffffffff1681526020019081526020015f205490506001600280549050610e8b9190611811565b60035f3373ffffffffffffffffffffffffffffffffffffffff1673ffffffffffffffffffffffffffffffffffffffff1681526020019081526020015f205414610f6b578160028281548110610ee357610ee2611a37565b5b905f5260205f20015f6101000a81548173ffffffffffffffffffffffffffffffffffffffff021916908373ffffffffffffffffffffffffffffffffffffffff1602179055508060035f8473ffffffffffffffffffffffffffffffffffffffff1673ffffffffffffffffffffffffffffffffffffffff1681526020019081526020015f20819055505b6002805480610f7d57610f7c611a64565b5b600190038181905f5260205f20015f6101000a81549073ffffffffffffffffffffffffffffffffffffffff0219169055905560035f3373ffffffffffffffffffffffffffffffffffffffff1673ffffffffffffffffffffffffffffffffffffffff1681526020019081526020015f205f90555f60045f3373ffffffffffffffffffffffffffffffffffffffff1673ffffffffffffffffffffffffffffffffffffffff1681526020019081526020015f205f6101000a81548160ff0219169083151502179055505050565b5f5b600280549050811015611139575f6002828154811061106b5761106a611a37565b5b905f5260205f20015f9054906101000a900473ffffffffffffffffffffffffffffffffffffffff1690505f60035f8373ffffffffffffffffffffffffffffffffffffffff1673ffffffffffffffffffffffffffffffffffffffff1681526020019081526020015f20819055505f60045f8373ffffffffffffffffffffffffffffffffffffffff1673ffffffffffffffffffffffffffffffffffffffff1681526020019081526020015f205f6101000a81548160ff021916908315150217905550508080600101915050611049565b5060025f6111479190611197565b565b5f8082121561118f57816040517fa8ce44320000000000000000000000000000000000000000000000000000000081526004016111869190611aa0565b60405180910390fd5b819050919050565b5080545f8255905f5260205f20908101906111b291906111b5565b50565b5b808211156111cc575f815f9055506001016111b6565b5090565b5f80fd5b5f73ffffffffffffffffffffffffffffffffffffffff82169050919050565b5f6111fd826111d4565b9050919050565b61120d816111f3565b8114611217575f80fd5b50565b5f8135905061122881611204565b92915050565b5f60208284031215611243576112426111d0565b5b5f6112508482850161121a565b91505092915050565b5f819050919050565b61126b81611259565b82525050565b5f6020820190506112845f830184611262565b92915050565b61129381611259565b811461129d575f80fd5b50565b5f813590506112ae8161128a565b92915050565b5f80604083850312156112ca576112c96111d0565b5b5f6112d7858286016112a0565b92505060206112e8858286016112a0565b9150509250929050565b5f60208284031215611307576113066111d0565b5b5f611314848285016112a0565b91505092915050565b611326816111f3565b82525050565b5f60208201905061133f5f83018461131d565b92915050565b5f8115159050919050565b61135981611345565b82525050565b5f6020820190506113725f830184611350565b92915050565b5f82825260208201905092915050565b7f6469646e27742073656e6420656e6f75676820555344000000000000000000005f82015250565b5f6113bc601683611378565b91506113c782611388565b602082019050919050565b5f6020820190508181035f8301526113e9816113b0565b9050919050565b7f4e487b71000000000000000000000000000000000000000000000000000000005f52601160045260245ffd5b5f61142782611259565b915061143283611259565b925082820190508082111561144a576114496113f0565b5b92915050565b5f61145a82611259565b915061146583611259565b925082820261147381611259565b9150828204841483151761148a576114896113f0565b5b5092915050565b7f4e487b71000000000000000000000000000000000000000000000000000000005f52601260045260245ffd5b5f6114c882611259565b91506114d383611259565b9250826114e3576114e2611491565b5b828204905092915050565b7f4e6f2072652d656e7472616e637920616c6c6f7765642c20706c6561736520745f8201527f727920616761696e2e0000000000000000000000000000000000000000000000602082015250565b5f611548602983611378565b9150611553826114ee565b604082019050919050565b5f6020820190508181035f8301526115758161153c565b9050919050565b7f496e73756666696369656e742062616c616e63650000000000000000000000005f82015250565b5f6115b0601483611378565b91506115bb8261157c565b602082019050919050565b5f6020820190508181035f8301526115dd816115a4565b9050919050565b5f81905092915050565b50565b5f6115fc5f836115e4565b9150611607826115ee565b5f82019050919050565b5f61161b826115f1565b9150819050919050565b7f5472616e73666572206661696c65642e000000000000000000000000000000005f82015250565b5f611659601083611378565b915061166482611625565b602082019050919050565b5f6020820190508181035f8301526116868161164d565b9050919050565b7f4f6e6c79206f776e65722063616e206578656375746520746869732066756e635f8201527f74696f6e2e000000000000000000000000000000000000000000000000000000602082015250565b5f6116e7602583611378565b91506116f28261168d565b604082019050919050565b5f6020820190508181035f830152611714816116db565b9050919050565b7f4f6e6c79206f776e65722063616e2063616c6c20746869732066756e6374696f5f8201527f6e2e000000000000000000000000000000000000000000000000000000000000602082015250565b5f611775602283611378565b91506117808261171b565b604082019050919050565b5f6020820190508181035f8301526117a281611769565b9050919050565b7f57616c6c65742061646472657373206973206e6f7420612066756e6465722e005f82015250565b5f6117dd601f83611378565b91506117e8826117a9565b602082019050919050565b5f6020820190508181035f83015261180a816117d1565b9050919050565b5f61181b82611259565b915061182683611259565b925082820390508181111561183e5761183d6113f0565b5b92915050565b5f69ffffffffffffffffffff82169050919050565b61186281611844565b811461186c575f80fd5b50565b5f8151905061187d81611859565b92915050565b5f819050919050565b61189581611883565b811461189f575f80fd5b50565b5f815190506118b08161188c565b92915050565b5f815190506118c48161128a565b92915050565b5f805f805f60a086880312156118e3576118e26111d0565b5b5f6118f08882890161186f565b9550506020611901888289016118a2565b9450506040611912888289016118b6565b9350506060611923888289016118b6565b92505060806119348882890161186f565b9150509295509295909350565b7f4e65676174697665207072696365206e6f7420616c6c6f7765642e00000000005f82015250565b5f611975601b83611378565b915061198082611941565b602082019050919050565b5f6020820190508181035f8301526119a281611969565b9050919050565b7f43616e6e6f74206368616e6765207468652076616c7565206f66206d696e696d5f8201527f756d55736420746f207468652073616d652076616c75652e0000000000000000602082015250565b5f611a03603883611378565b9150611a0e826119a9565b604082019050919050565b5f6020820190508181035f830152611a30816119f7565b9050919050565b7f4e487b71000000000000000000000000000000000000000000000000000000005f52603260045260245ffd5b7f4e487b71000000000000000000000000000000000000000000000000000000005f52603160045260245ffd5b611a9a81611883565b82525050565b5f602082019050611ab35f830184611a91565b9291505056fea26469706673582212207bad2ac9f3367b65e6279694afc54f590fa5067c4c9d49b1528e3a5d7d14e58664736f6c634300081a0033",
					"opcodes": "PUSH1 0x80 PUSH1 0x40 MSTORE CALLVALUE DUP1 ISZERO PUSH1 0xE JUMPI PUSH0 DUP1 REVERT JUMPDEST POP CALLER PUSH0 PUSH1 0x1 PUSH2 0x100 EXP DUP2 SLOAD DUP2 PUSH20 0xFFFFFFFFFFFFFFFFFFFFFFFFFFFFFFFFFFFFFFFF MUL NOT AND SWAP1 DUP4 PUSH20 0xFFFFFFFFFFFFFFFFFFFFFFFFFFFFFFFFFFFFFFFF AND MUL OR SWAP1 SSTORE POP PUSH4 0x1DCD6500 PUSH1 0x1 DUP2 SWAP1 SSTORE POP PUSH2 0x1AEF DUP1 PUSH2 0x67 PUSH0 CODECOPY PUSH0 RETURN INVALID PUSH1 0x80 PUSH1 0x40 MSTORE PUSH1 0x4 CALLDATASIZE LT PUSH2 0xC5 JUMPI PUSH0 CALLDATALOAD PUSH1 0xE0 SHR DUP1 PUSH4 0x8DA5CB5B GT PUSH2 0x7E JUMPI DUP1 PUSH4 0xCC3B589E GT PUSH2 0x58 JUMPI DUP1 PUSH4 0xCC3B589E EQ PUSH2 0x22C JUMPI DUP1 PUSH4 0xD78A29D2 EQ PUSH2 0x268 JUMPI DUP1 PUSH4 0xDC0D3DFF EQ PUSH2 0x290 JUMPI DUP1 PUSH4 0xF8024578 EQ PUSH2 0x2CC JUMPI PUSH2 0xD4 JUMP JUMPDEST DUP1 PUSH4 0x8DA5CB5B EQ PUSH2 0x1CE JUMPI DUP1 PUSH4 0x98D5FDCA EQ PUSH2 0x1F8 JUMPI DUP1 PUSH4 0xB60D4288 EQ PUSH2 0x222 JUMPI PUSH2 0xD4 JUMP JUMPDEST DUP1 PUSH4 0x34855C7 EQ PUSH2 0xD8 JUMPI DUP1 PUSH4 0x98DE820 EQ PUSH2 0x114 JUMPI DUP1 PUSH4 0x3E9F607C EQ PUSH2 0x13E JUMPI DUP1 PUSH4 0x455FD623 EQ PUSH2 0x17A JUMPI DUP1 PUSH4 0x5EB8D90B EQ PUSH2 0x190 JUMPI DUP1 PUSH4 0x71D2EE6C EQ PUSH2 0x1A6 JUMPI PUSH2 0xD4 JUMP JUMPDEST CALLDATASIZE PUSH2 0xD4 JUMPI PUSH2 0xD2 PUSH2 0x308 JUMP JUMPDEST STOP JUMPDEST PUSH0 DUP1 REVERT JUMPDEST CALLVALUE DUP1 ISZERO PUSH2 0xE3 JUMPI PUSH0 DUP1 REVERT JUMPDEST POP PUSH2 0xFE PUSH1 0x4 DUP1 CALLDATASIZE SUB DUP2 ADD SWAP1 PUSH2 0xF9 SWAP2 SWAP1 PUSH2 0x122E JUMP JUMPDEST PUSH2 0x507 JUMP JUMPDEST PUSH1 0x40 MLOAD PUSH2 0x10B SWAP2 SWAP1 PUSH2 0x1271 JUMP JUMPDEST PUSH1 0x40 MLOAD DUP1 SWAP2 SUB SWAP1 RETURN JUMPDEST CALLVALUE DUP1 ISZERO PUSH2 0x11F JUMPI PUSH0 DUP1 REVERT JUMPDEST POP PUSH2 0x128 PUSH2 0x51C JUMP JUMPDEST PUSH1 0x40 MLOAD PUSH2 0x135 SWAP2 SWAP1 PUSH2 0x1271 JUMP JUMPDEST PUSH1 0x40 MLOAD DUP1 SWAP2 SUB SWAP1 RETURN JUMPDEST CALLVALUE DUP1 ISZERO PUSH2 0x149 JUMPI PUSH0 DUP1 REVERT JUMPDEST POP PUSH2 0x164 PUSH1 0x4 DUP1 CALLDATASIZE SUB DUP2 ADD SWAP1 PUSH2 0x15F SWAP2 SWAP1 PUSH2 0x12B4 JUMP JUMPDEST PUSH2 0x522 JUMP JUMPDEST PUSH1 0x40 MLOAD PUSH2 0x171 SWAP2 SWAP1 PUSH2 0x1271 JUMP JUMPDEST PUSH1 0x40 MLOAD DUP1 SWAP2 SUB SWAP1 RETURN JUMPDEST CALLVALUE DUP1 ISZERO PUSH2 0x185 JUMPI PUSH0 DUP1 REVERT JUMPDEST POP PUSH2 0x18E PUSH2 0x54A JUMP JUMPDEST STOP JUMPDEST CALLVALUE DUP1 ISZERO PUSH2 0x19B JUMPI PUSH0 DUP1 REVERT JUMPDEST POP PUSH2 0x1A4 PUSH2 0x74D JUMP JUMPDEST STOP JUMPDEST CALLVALUE DUP1 ISZERO PUSH2 0x1B1 JUMPI PUSH0 DUP1 REVERT JUMPDEST POP PUSH2 0x1CC PUSH1 0x4 DUP1 CALLDATASIZE SUB DUP2 ADD SWAP1 PUSH2 0x1C7 SWAP2 SWAP1 PUSH2 0x12F2 JUMP JUMPDEST PUSH2 0x925 JUMP JUMPDEST STOP JUMPDEST CALLVALUE DUP1 ISZERO PUSH2 0x1D9 JUMPI PUSH0 DUP1 REVERT JUMPDEST POP PUSH2 0x1E2 PUSH2 0xB8B JUMP JUMPDEST PUSH1 0x40 MLOAD PUSH2 0x1EF SWAP2 SWAP1 PUSH2 0x132C JUMP JUMPDEST PUSH1 0x40 MLOAD DUP1 SWAP2 SUB SWAP1 RETURN JUMPDEST CALLVALUE DUP1 ISZERO PUSH2 0x203 JUMPI PUSH0 DUP1 REVERT JUMPDEST POP PUSH2 0x20C PUSH2 0xBB0 JUMP JUMPDEST PUSH1 0x40 MLOAD PUSH2 0x219 SWAP2 SWAP1 PUSH2 0x1271 JUMP JUMPDEST PUSH1 0x40 MLOAD DUP1 SWAP2 SUB SWAP1 RETURN JUMPDEST PUSH2 0x22A PUSH2 0x308 JUMP JUMPDEST STOP JUMPDEST CALLVALUE DUP1 ISZERO PUSH2 0x237 JUMPI PUSH0 DUP1 REVERT JUMPDEST POP PUSH2 0x252 PUSH1 0x4 DUP1 CALLDATASIZE SUB DUP2 ADD SWAP1 PUSH2 0x24D SWAP2 SWAP1 PUSH2 0x122E JUMP JUMPDEST PUSH2 0xC8A JUMP JUMPDEST PUSH1 0x40 MLOAD PUSH2 0x25F SWAP2 SWAP1 PUSH2 0x1271 JUMP JUMPDEST PUSH1 0x40 MLOAD DUP1 SWAP2 SUB SWAP1 RETURN JUMPDEST CALLVALUE DUP1 ISZERO PUSH2 0x273 JUMPI PUSH0 DUP1 REVERT JUMPDEST POP PUSH2 0x28E PUSH1 0x4 DUP1 CALLDATASIZE SUB DUP2 ADD SWAP1 PUSH2 0x289 SWAP2 SWAP1 PUSH2 0x12F2 JUMP JUMPDEST PUSH2 0xC9F JUMP JUMPDEST STOP JUMPDEST CALLVALUE DUP1 ISZERO PUSH2 0x29B JUMPI PUSH0 DUP1 REVERT JUMPDEST POP PUSH2 0x2B6 PUSH1 0x4 DUP1 CALLDATASIZE SUB DUP2 ADD SWAP1 PUSH2 0x2B1 SWAP2 SWAP1 PUSH2 0x12F2 JUMP JUMPDEST PUSH2 0xD90 JUMP JUMPDEST PUSH1 0x40 MLOAD PUSH2 0x2C3 SWAP2 SWAP1 PUSH2 0x132C JUMP JUMPDEST PUSH1 0x40 MLOAD DUP1 SWAP2 SUB SWAP1 RETURN JUMPDEST CALLVALUE DUP1 ISZERO PUSH2 0x2D7 JUMPI PUSH0 DUP1 REVERT JUMPDEST POP PUSH2 0x2F2 PUSH1 0x4 DUP1 CALLDATASIZE SUB DUP2 ADD SWAP1 PUSH2 0x2ED SWAP2 SWAP1 PUSH2 0x122E JUMP JUMPDEST PUSH2 0xDCB JUMP JUMPDEST PUSH1 0x40 MLOAD PUSH2 0x2FF SWAP2 SWAP1 PUSH2 0x135F JUMP JUMPDEST PUSH1 0x40 MLOAD DUP1 SWAP2 SUB SWAP1 RETURN JUMPDEST PUSH0 PUSH2 0x311 PUSH2 0xBB0 JUMP JUMPDEST SWAP1 POP PUSH0 PUSH2 0x31E DUP3 CALLVALUE PUSH2 0x522 JUMP JUMPDEST SWAP1 POP PUSH1 0x1 SLOAD DUP2 LT ISZERO PUSH2 0x365 JUMPI PUSH1 0x40 MLOAD PUSH32 0x8C379A000000000000000000000000000000000000000000000000000000000 DUP2 MSTORE PUSH1 0x4 ADD PUSH2 0x35C SWAP1 PUSH2 0x13D2 JUMP JUMPDEST PUSH1 0x40 MLOAD DUP1 SWAP2 SUB SWAP1 REVERT JUMPDEST PUSH1 0x4 PUSH0 CALLER PUSH20 0xFFFFFFFFFFFFFFFFFFFFFFFFFFFFFFFFFFFFFFFF AND PUSH20 0xFFFFFFFFFFFFFFFFFFFFFFFFFFFFFFFFFFFFFFFF AND DUP2 MSTORE PUSH1 0x20 ADD SWAP1 DUP2 MSTORE PUSH1 0x20 ADD PUSH0 KECCAK256 PUSH0 SWAP1 SLOAD SWAP1 PUSH2 0x100 EXP SWAP1 DIV PUSH1 0xFF AND PUSH2 0x4B0 JUMPI PUSH1 0x2 DUP1 SLOAD SWAP1 POP PUSH1 0x3 PUSH0 CALLER PUSH20 0xFFFFFFFFFFFFFFFFFFFFFFFFFFFFFFFFFFFFFFFF AND PUSH20 0xFFFFFFFFFFFFFFFFFFFFFFFFFFFFFFFFFFFFFFFF AND DUP2 MSTORE PUSH1 0x20 ADD SWAP1 DUP2 MSTORE PUSH1 0x20 ADD PUSH0 KECCAK256 DUP2 SWAP1 SSTORE POP PUSH1 0x2 CALLER SWAP1 DUP1 PUSH1 0x1 DUP2 SLOAD ADD DUP1 DUP3 SSTORE DUP1 SWAP2 POP POP PUSH1 0x1 SWAP1 SUB SWAP1 PUSH0 MSTORE PUSH1 0x20 PUSH0 KECCAK256 ADD PUSH0 SWAP1 SWAP2 SWAP1 SWAP2 SWAP1 SWAP2 PUSH2 0x100 EXP DUP2 SLOAD DUP2 PUSH20 0xFFFFFFFFFFFFFFFFFFFFFFFFFFFFFFFFFFFFFFFF MUL NOT AND SWAP1 DUP4 PUSH20 0xFFFFFFFFFFFFFFFFFFFFFFFFFFFFFFFFFFFFFFFF AND MUL OR SWAP1 SSTORE POP PUSH1 0x1 PUSH1 0x4 PUSH0 CALLER PUSH20 0xFFFFFFFFFFFFFFFFFFFFFFFFFFFFFFFFFFFFFFFF AND PUSH20 0xFFFFFFFFFFFFFFFFFFFFFFFFFFFFFFFFFFFFFFFF AND DUP2 MSTORE PUSH1 0x20 ADD SWAP1 DUP2 MSTORE PUSH1 0x20 ADD PUSH0 KECCAK256 PUSH0 PUSH2 0x100 EXP DUP2 SLOAD DUP2 PUSH1 0xFF MUL NOT AND SWAP1 DUP4 ISZERO ISZERO MUL OR SWAP1 SSTORE POP JUMPDEST CALLVALUE PUSH1 0x5 PUSH0 CALLER PUSH20 0xFFFFFFFFFFFFFFFFFFFFFFFFFFFFFFFFFFFFFFFF AND PUSH20 0xFFFFFFFFFFFFFFFFFFFFFFFFFFFFFFFFFFFFFFFF AND DUP2 MSTORE PUSH1 0x20 ADD SWAP1 DUP2 MSTORE PUSH1 0x20 ADD PUSH0 KECCAK256 PUSH0 DUP3 DUP3 SLOAD PUSH2 0x4FC SWAP2 SWAP1 PUSH2 0x141D JUMP JUMPDEST SWAP3 POP POP DUP2 SWAP1 SSTORE POP POP POP JUMP JUMPDEST PUSH1 0x5 PUSH1 0x20 MSTORE DUP1 PUSH0 MSTORE PUSH1 0x40 PUSH0 KECCAK256 PUSH0 SWAP2 POP SWAP1 POP SLOAD DUP2 JUMP JUMPDEST PUSH1 0x1 SLOAD DUP2 JUMP JUMPDEST PUSH0 PUSH8 0xDE0B6B3A7640000 DUP3 DUP5 PUSH2 0x538 SWAP2 SWAP1 PUSH2 0x1450 JUMP JUMPDEST PUSH2 0x542 SWAP2 SWAP1 PUSH2 0x14BE JUMP JUMPDEST SWAP1 POP SWAP3 SWAP2 POP POP JUMP JUMPDEST PUSH0 ISZERO ISZERO PUSH0 DUP1 SLOAD SWAP1 PUSH2 0x100 EXP SWAP1 DIV PUSH1 0xFF AND ISZERO ISZERO EQ PUSH2 0x59C JUMPI PUSH1 0x40 MLOAD PUSH32 0x8C379A000000000000000000000000000000000000000000000000000000000 DUP2 MSTORE PUSH1 0x4 ADD PUSH2 0x593 SWAP1 PUSH2 0x155E JUMP JUMPDEST PUSH1 0x40 MLOAD DUP1 SWAP2 SUB SWAP1 REVERT JUMPDEST PUSH1 0x1 PUSH0 DUP1 PUSH2 0x100 EXP DUP2 SLOAD DUP2 PUSH1 0xFF MUL NOT AND SWAP1 DUP4 ISZERO ISZERO MUL OR SWAP1 SSTORE POP PUSH0 PUSH1 0x5 PUSH0 CALLER PUSH20 0xFFFFFFFFFFFFFFFFFFFFFFFFFFFFFFFFFFFFFFFF AND PUSH20 0xFFFFFFFFFFFFFFFFFFFFFFFFFFFFFFFFFFFFFFFF AND DUP2 MSTORE PUSH1 0x20 ADD SWAP1 DUP2 MSTORE PUSH1 0x20 ADD PUSH0 KECCAK256 SLOAD SWAP1 POP PUSH0 DUP2 GT PUSH2 0x638 JUMPI PUSH1 0x40 MLOAD PUSH32 0x8C379A000000000000000000000000000000000000000000000000000000000 DUP2 MSTORE PUSH1 0x4 ADD PUSH2 0x62F SWAP1 PUSH2 0x15C6 JUMP JUMPDEST PUSH1 0x40 MLOAD DUP1 SWAP2 SUB SWAP1 REVERT JUMPDEST PUSH0 PUSH1 0x5 PUSH0 CALLER PUSH20 0xFFFFFFFFFFFFFFFFFFFFFFFFFFFFFFFFFFFFFFFF AND PUSH20 0xFFFFFFFFFFFFFFFFFFFFFFFFFFFFFFFFFFFFFFFF AND DUP2 MSTORE PUSH1 0x20 ADD SWAP1 DUP2 MSTORE PUSH1 0x20 ADD PUSH0 KECCAK256 DUP2 SWAP1 SSTORE POP PUSH0 CALLER PUSH20 0xFFFFFFFFFFFFFFFFFFFFFFFFFFFFFFFFFFFFFFFF AND DUP3 PUSH1 0x40 MLOAD PUSH2 0x69F SWAP1 PUSH2 0x1611 JUMP JUMPDEST PUSH0 PUSH1 0x40 MLOAD DUP1 DUP4 SUB DUP2 DUP6 DUP8 GAS CALL SWAP3 POP POP POP RETURNDATASIZE DUP1 PUSH0 DUP2 EQ PUSH2 0x6D9 JUMPI PUSH1 0x40 MLOAD SWAP2 POP PUSH1 0x1F NOT PUSH1 0x3F RETURNDATASIZE ADD AND DUP3 ADD PUSH1 0x40 MSTORE RETURNDATASIZE DUP3 MSTORE RETURNDATASIZE PUSH0 PUSH1 0x20 DUP5 ADD RETURNDATACOPY PUSH2 0x6DE JUMP JUMPDEST PUSH1 0x60 SWAP2 POP JUMPDEST POP POP SWAP1 POP PUSH1 0x1 ISZERO ISZERO DUP2 ISZERO ISZERO EQ PUSH2 0x729 JUMPI PUSH1 0x40 MLOAD PUSH32 0x8C379A000000000000000000000000000000000000000000000000000000000 DUP2 MSTORE PUSH1 0x4 ADD PUSH2 0x720 SWAP1 PUSH2 0x166F JUMP JUMPDEST PUSH1 0x40 MLOAD DUP1 SWAP2 SUB SWAP1 REVERT JUMPDEST PUSH2 0x731 PUSH2 0xDE8 JUMP JUMPDEST POP POP PUSH0 DUP1 PUSH0 PUSH2 0x100 EXP DUP2 SLOAD DUP2 PUSH1 0xFF MUL NOT AND SWAP1 DUP4 ISZERO ISZERO MUL OR SWAP1 SSTORE POP JUMP JUMPDEST PUSH0 PUSH1 0x1 SWAP1 SLOAD SWAP1 PUSH2 0x100 EXP SWAP1 DIV PUSH20 0xFFFFFFFFFFFFFFFFFFFFFFFFFFFFFFFFFFFFFFFF AND PUSH20 0xFFFFFFFFFFFFFFFFFFFFFFFFFFFFFFFFFFFFFFFF AND CALLER PUSH20 0xFFFFFFFFFFFFFFFFFFFFFFFFFFFFFFFFFFFFFFFF AND EQ PUSH2 0x7DC JUMPI PUSH1 0x40 MLOAD PUSH32 0x8C379A000000000000000000000000000000000000000000000000000000000 DUP2 MSTORE PUSH1 0x4 ADD PUSH2 0x7D3 SWAP1 PUSH2 0x16FD JUMP JUMPDEST PUSH1 0x40 MLOAD DUP1 SWAP2 SUB SWAP1 REVERT JUMPDEST PUSH0 PUSH1 0x1 SWAP1 SLOAD SWAP1 PUSH2 0x100 EXP SWAP1 DIV PUSH20 0xFFFFFFFFFFFFFFFFFFFFFFFFFFFFFFFFFFFFFFFF AND PUSH20 0xFFFFFFFFFFFFFFFFFFFFFFFFFFFFFFFFFFFFFFFF AND CALLER PUSH20 0xFFFFFFFFFFFFFFFFFFFFFFFFFFFFFFFFFFFFFFFF AND EQ PUSH2 0x86B JUMPI PUSH1 0x40 MLOAD PUSH32 0x8C379A000000000000000000000000000000000000000000000000000000000 DUP2 MSTORE PUSH1 0x4 ADD PUSH2 0x862 SWAP1 PUSH2 0x178B JUMP JUMPDEST PUSH1 0x40 MLOAD DUP1 SWAP2 SUB SWAP1 REVERT JUMPDEST PUSH0 CALLER PUSH20 0xFFFFFFFFFFFFFFFFFFFFFFFFFFFFFFFFFFFFFFFF AND SELFBALANCE PUSH1 0x40 MLOAD PUSH2 0x890 SWAP1 PUSH2 0x1611 JUMP JUMPDEST PUSH0 PUSH1 0x40 MLOAD DUP1 DUP4 SUB DUP2 DUP6 DUP8 GAS CALL SWAP3 POP POP POP RETURNDATASIZE DUP1 PUSH0 DUP2 EQ PUSH2 0x8CA JUMPI PUSH1 0x40 MLOAD SWAP2 POP PUSH1 0x1F NOT PUSH1 0x3F RETURNDATASIZE ADD AND DUP3 ADD PUSH1 0x40 MSTORE RETURNDATASIZE DUP3 MSTORE RETURNDATASIZE PUSH0 PUSH1 0x20 DUP5 ADD RETURNDATACOPY PUSH2 0x8CF JUMP JUMPDEST PUSH1 0x60 SWAP2 POP JUMPDEST POP POP SWAP1 POP PUSH1 0x1 ISZERO ISZERO DUP2 ISZERO ISZERO EQ PUSH2 0x91A JUMPI PUSH1 0x40 MLOAD PUSH32 0x8C379A000000000000000000000000000000000000000000000000000000000 DUP2 MSTORE PUSH1 0x4 ADD PUSH2 0x911 SWAP1 PUSH2 0x166F JUMP JUMPDEST PUSH1 0x40 MLOAD DUP1 SWAP2 SUB SWAP1 REVERT JUMPDEST PUSH2 0x922 PUSH2 0x1047 JUMP JUMPDEST POP JUMP JUMPDEST PUSH0 ISZERO ISZERO PUSH0 DUP1 SLOAD SWAP1 PUSH2 0x100 EXP SWAP1 DIV PUSH1 0xFF AND ISZERO ISZERO EQ PUSH2 0x977 JUMPI PUSH1 0x40 MLOAD PUSH32 0x8C379A000000000000000000000000000000000000000000000000000000000 DUP2 MSTORE PUSH1 0x4 ADD PUSH2 0x96E SWAP1 PUSH2 0x155E JUMP JUMPDEST PUSH1 0x40 MLOAD DUP1 SWAP2 SUB SWAP1 REVERT JUMPDEST PUSH1 0x1 PUSH0 DUP1 PUSH2 0x100 EXP DUP2 SLOAD DUP2 PUSH1 0xFF MUL NOT AND SWAP1 DUP4 ISZERO ISZERO MUL OR SWAP1 SSTORE POP PUSH1 0x1 ISZERO ISZERO PUSH1 0x4 PUSH0 CALLER PUSH20 0xFFFFFFFFFFFFFFFFFFFFFFFFFFFFFFFFFFFFFFFF AND PUSH20 0xFFFFFFFFFFFFFFFFFFFFFFFFFFFFFFFFFFFFFFFF AND DUP2 MSTORE PUSH1 0x20 ADD SWAP1 DUP2 MSTORE PUSH1 0x20 ADD PUSH0 KECCAK256 PUSH0 SWAP1 SLOAD SWAP1 PUSH2 0x100 EXP SWAP1 DIV PUSH1 0xFF AND ISZERO ISZERO EQ PUSH2 0xA20 JUMPI PUSH1 0x40 MLOAD PUSH32 0x8C379A000000000000000000000000000000000000000000000000000000000 DUP2 MSTORE PUSH1 0x4 ADD PUSH2 0xA17 SWAP1 PUSH2 0x17F3 JUMP JUMPDEST PUSH1 0x40 MLOAD DUP1 SWAP2 SUB SWAP1 REVERT JUMPDEST DUP1 PUSH1 0x5 PUSH0 CALLER PUSH20 0xFFFFFFFFFFFFFFFFFFFFFFFFFFFFFFFFFFFFFFFF AND PUSH20 0xFFFFFFFFFFFFFFFFFFFFFFFFFFFFFFFFFFFFFFFF AND DUP2 MSTORE PUSH1 0x20 ADD SWAP1 DUP2 MSTORE PUSH1 0x20 ADD PUSH0 KECCAK256 PUSH0 DUP3 DUP3 SLOAD PUSH2 0xA6C SWAP2 SWAP1 PUSH2 0x1811 JUMP JUMPDEST SWAP3 POP POP DUP2 SWAP1 SSTORE POP PUSH0 CALLER PUSH20 0xFFFFFFFFFFFFFFFFFFFFFFFFFFFFFFFFFFFFFFFF AND DUP3 PUSH1 0x40 MLOAD PUSH2 0xA98 SWAP1 PUSH2 0x1611 JUMP JUMPDEST PUSH0 PUSH1 0x40 MLOAD DUP1 DUP4 SUB DUP2 DUP6 DUP8 GAS CALL SWAP3 POP POP POP RETURNDATASIZE DUP1 PUSH0 DUP2 EQ PUSH2 0xAD2 JUMPI PUSH1 0x40 MLOAD SWAP2 POP PUSH1 0x1F NOT PUSH1 0x3F RETURNDATASIZE ADD AND DUP3 ADD PUSH1 0x40 MSTORE RETURNDATASIZE DUP3 MSTORE RETURNDATASIZE PUSH0 PUSH1 0x20 DUP5 ADD RETURNDATACOPY PUSH2 0xAD7 JUMP JUMPDEST PUSH1 0x60 SWAP2 POP JUMPDEST POP POP SWAP1 POP PUSH1 0x1 ISZERO ISZERO DUP2 ISZERO ISZERO EQ PUSH2 0xB22 JUMPI PUSH1 0x40 MLOAD PUSH32 0x8C379A000000000000000000000000000000000000000000000000000000000 DUP2 MSTORE PUSH1 0x4 ADD PUSH2 0xB19 SWAP1 PUSH2 0x166F JUMP JUMPDEST PUSH1 0x40 MLOAD DUP1 SWAP2 SUB SWAP1 REVERT JUMPDEST PUSH0 PUSH1 0x5 PUSH0 CALLER PUSH20 0xFFFFFFFFFFFFFFFFFFFFFFFFFFFFFFFFFFFFFFFF AND PUSH20 0xFFFFFFFFFFFFFFFFFFFFFFFFFFFFFFFFFFFFFFFF AND DUP2 MSTORE PUSH1 0x20 ADD SWAP1 DUP2 MSTORE PUSH1 0x20 ADD PUSH0 KECCAK256 SLOAD GT PUSH2 0xB6F JUMPI PUSH2 0xB6E PUSH2 0xDE8 JUMP JUMPDEST JUMPDEST POP PUSH0 DUP1 PUSH0 PUSH2 0x100 EXP DUP2 SLOAD DUP2 PUSH1 0xFF MUL NOT AND SWAP1 DUP4 ISZERO ISZERO MUL OR SWAP1 SSTORE POP POP JUMP JUMPDEST PUSH0 PUSH1 0x1 SWAP1 SLOAD SWAP1 PUSH2 0x100 EXP SWAP1 DIV PUSH20 0xFFFFFFFFFFFFFFFFFFFFFFFFFFFFFFFFFFFFFFFF AND DUP2 JUMP JUMPDEST PUSH0 DUP1 PUSH20 0x694AA1769357215DE4FAC081BF1F309ADC325306 PUSH20 0xFFFFFFFFFFFFFFFFFFFFFFFFFFFFFFFFFFFFFFFF AND PUSH4 0xFEAF968C PUSH1 0x40 MLOAD DUP2 PUSH4 0xFFFFFFFF AND PUSH1 0xE0 SHL DUP2 MSTORE PUSH1 0x4 ADD PUSH1 0xA0 PUSH1 0x40 MLOAD DUP1 DUP4 SUB DUP2 DUP7 GAS STATICCALL ISZERO DUP1 ISZERO PUSH2 0xC0F JUMPI RETURNDATASIZE PUSH0 DUP1 RETURNDATACOPY RETURNDATASIZE PUSH0 REVERT JUMPDEST POP POP POP POP PUSH1 0x40 MLOAD RETURNDATASIZE PUSH1 0x1F NOT PUSH1 0x1F DUP3 ADD AND DUP3 ADD DUP1 PUSH1 0x40 MSTORE POP DUP2 ADD SWAP1 PUSH2 0xC33 SWAP2 SWAP1 PUSH2 0x18CA JUMP JUMPDEST POP POP POP SWAP2 POP POP PUSH0 DUP2 SGT PUSH2 0xC7B JUMPI PUSH1 0x40 MLOAD PUSH32 0x8C379A000000000000000000000000000000000000000000000000000000000 DUP2 MSTORE PUSH1 0x4 ADD PUSH2 0xC72 SWAP1 PUSH2 0x198B JUMP JUMPDEST PUSH1 0x40 MLOAD DUP1 SWAP2 SUB SWAP1 REVERT JUMPDEST PUSH2 0xC84 DUP2 PUSH2 0x1149 JUMP JUMPDEST SWAP2 POP POP SWAP1 JUMP JUMPDEST PUSH1 0x3 PUSH1 0x20 MSTORE DUP1 PUSH0 MSTORE PUSH1 0x40 PUSH0 KECCAK256 PUSH0 SWAP2 POP SWAP1 POP SLOAD DUP2 JUMP JUMPDEST PUSH0 PUSH1 0x1 SWAP1 SLOAD SWAP1 PUSH2 0x100 EXP SWAP1 DIV PUSH20 0xFFFFFFFFFFFFFFFFFFFFFFFFFFFFFFFFFFFFFFFF AND PUSH20 0xFFFFFFFFFFFFFFFFFFFFFFFFFFFFFFFFFFFFFFFF AND CALLER PUSH20 0xFFFFFFFFFFFFFFFFFFFFFFFFFFFFFFFFFFFFFFFF AND EQ PUSH2 0xD2E JUMPI PUSH1 0x40 MLOAD PUSH32 0x8C379A000000000000000000000000000000000000000000000000000000000 DUP2 MSTORE PUSH1 0x4 ADD PUSH2 0xD25 SWAP1 PUSH2 0x16FD JUMP JUMPDEST PUSH1 0x40 MLOAD DUP1 SWAP2 SUB SWAP1 REVERT JUMPDEST PUSH0 PUSH4 0x5F5E100 DUP3 PUSH2 0xD3F SWAP2 SWAP1 PUSH2 0x1450 JUMP JUMPDEST SWAP1 POP PUSH1 0x1 SLOAD DUP2 SUB PUSH2 0xD85 JUMPI PUSH1 0x40 MLOAD PUSH32 0x8C379A000000000000000000000000000000000000000000000000000000000 DUP2 MSTORE PUSH1 0x4 ADD PUSH2 0xD7C SWAP1 PUSH2 0x1A19 JUMP JUMPDEST PUSH1 0x40 MLOAD DUP1 SWAP2 SUB SWAP1 REVERT JUMPDEST DUP1 PUSH1 0x1 DUP2 SWAP1 SSTORE POP POP POP JUMP JUMPDEST PUSH1 0x2 DUP2 DUP2 SLOAD DUP2 LT PUSH2 0xD9F JUMPI PUSH0 DUP1 REVERT JUMPDEST SWAP1 PUSH0 MSTORE PUSH1 0x20 PUSH0 KECCAK256 ADD PUSH0 SWAP2 POP SLOAD SWAP1 PUSH2 0x100 EXP SWAP1 DIV PUSH20 0xFFFFFFFFFFFFFFFFFFFFFFFFFFFFFFFFFFFFFFFF AND DUP2 JUMP JUMPDEST PUSH1 0x4 PUSH1 0x20 MSTORE DUP1 PUSH0 MSTORE PUSH1 0x40 PUSH0 KECCAK256 PUSH0 SWAP2 POP SLOAD SWAP1 PUSH2 0x100 EXP SWAP1 DIV PUSH1 0xFF AND DUP2 JUMP JUMPDEST PUSH0 PUSH1 0x2 PUSH1 0x1 PUSH1 0x2 DUP1 SLOAD SWAP1 POP PUSH2 0xDFD SWAP2 SWAP1 PUSH2 0x1811 JUMP JUMPDEST DUP2 SLOAD DUP2 LT PUSH2 0xE0E JUMPI PUSH2 0xE0D PUSH2 0x1A37 JUMP JUMPDEST JUMPDEST SWAP1 PUSH0 MSTORE PUSH1 0x20 PUSH0 KECCAK256 ADD PUSH0 SWAP1 SLOAD SWAP1 PUSH2 0x100 EXP SWAP1 DIV PUSH20 0xFFFFFFFFFFFFFFFFFFFFFFFFFFFFFFFFFFFFFFFF AND SWAP1 POP PUSH0 PUSH1 0x3 PUSH0 CALLER PUSH20 0xFFFFFFFFFFFFFFFFFFFFFFFFFFFFFFFFFFFFFFFF AND PUSH20 0xFFFFFFFFFFFFFFFFFFFFFFFFFFFFFFFFFFFFFFFF AND DUP2 MSTORE PUSH1 0x20 ADD SWAP1 DUP2 MSTORE PUSH1 0x20 ADD PUSH0 KECCAK256 SLOAD SWAP1 POP PUSH1 0x1 PUSH1 0x2 DUP1 SLOAD SWAP1 POP PUSH2 0xE8B SWAP2 SWAP1 PUSH2 0x1811 JUMP JUMPDEST PUSH1 0x3 PUSH0 CALLER PUSH20 0xFFFFFFFFFFFFFFFFFFFFFFFFFFFFFFFFFFFFFFFF AND PUSH20 0xFFFFFFFFFFFFFFFFFFFFFFFFFFFFFFFFFFFFFFFF AND DUP2 MSTORE PUSH1 0x20 ADD SWAP1 DUP2 MSTORE PUSH1 0x20 ADD PUSH0 KECCAK256 SLOAD EQ PUSH2 0xF6B JUMPI DUP2 PUSH1 0x2 DUP3 DUP2 SLOAD DUP2 LT PUSH2 0xEE3 JUMPI PUSH2 0xEE2 PUSH2 0x1A37 JUMP JUMPDEST JUMPDEST SWAP1 PUSH0 MSTORE PUSH1 0x20 PUSH0 KECCAK256 ADD PUSH0 PUSH2 0x100 EXP DUP2 SLOAD DUP2 PUSH20 0xFFFFFFFFFFFFFFFFFFFFFFFFFFFFFFFFFFFFFFFF MUL NOT AND SWAP1 DUP4 PUSH20 0xFFFFFFFFFFFFFFFFFFFFFFFFFFFFFFFFFFFFFFFF AND MUL OR SWAP1 SSTORE POP DUP1 PUSH1 0x3 PUSH0 DUP5 PUSH20 0xFFFFFFFFFFFFFFFFFFFFFFFFFFFFFFFFFFFFFFFF AND PUSH20 0xFFFFFFFFFFFFFFFFFFFFFFFFFFFFFFFFFFFFFFFF AND DUP2 MSTORE PUSH1 0x20 ADD SWAP1 DUP2 MSTORE PUSH1 0x20 ADD PUSH0 KECCAK256 DUP2 SWAP1 SSTORE POP JUMPDEST PUSH1 0x2 DUP1 SLOAD DUP1 PUSH2 0xF7D JUMPI PUSH2 0xF7C PUSH2 0x1A64 JUMP JUMPDEST JUMPDEST PUSH1 0x1 SWAP1 SUB DUP2 DUP2 SWAP1 PUSH0 MSTORE PUSH1 0x20 PUSH0 KECCAK256 ADD PUSH0 PUSH2 0x100 EXP DUP2 SLOAD SWAP1 PUSH20 0xFFFFFFFFFFFFFFFFFFFFFFFFFFFFFFFFFFFFFFFF MUL NOT AND SWAP1 SSTORE SWAP1 SSTORE PUSH1 0x3 PUSH0 CALLER PUSH20 0xFFFFFFFFFFFFFFFFFFFFFFFFFFFFFFFFFFFFFFFF AND PUSH20 0xFFFFFFFFFFFFFFFFFFFFFFFFFFFFFFFFFFFFFFFF AND DUP2 MSTORE PUSH1 0x20 ADD SWAP1 DUP2 MSTORE PUSH1 0x20 ADD PUSH0 KECCAK256 PUSH0 SWAP1 SSTORE PUSH0 PUSH1 0x4 PUSH0 CALLER PUSH20 0xFFFFFFFFFFFFFFFFFFFFFFFFFFFFFFFFFFFFFFFF AND PUSH20 0xFFFFFFFFFFFFFFFFFFFFFFFFFFFFFFFFFFFFFFFF AND DUP2 MSTORE PUSH1 0x20 ADD SWAP1 DUP2 MSTORE PUSH1 0x20 ADD PUSH0 KECCAK256 PUSH0 PUSH2 0x100 EXP DUP2 SLOAD DUP2 PUSH1 0xFF MUL NOT AND SWAP1 DUP4 ISZERO ISZERO MUL OR SWAP1 SSTORE POP POP POP JUMP JUMPDEST PUSH0 JUMPDEST PUSH1 0x2 DUP1 SLOAD SWAP1 POP DUP2 LT ISZERO PUSH2 0x1139 JUMPI PUSH0 PUSH1 0x2 DUP3 DUP2 SLOAD DUP2 LT PUSH2 0x106B JUMPI PUSH2 0x106A PUSH2 0x1A37 JUMP JUMPDEST JUMPDEST SWAP1 PUSH0 MSTORE PUSH1 0x20 PUSH0 KECCAK256 ADD PUSH0 SWAP1 SLOAD SWAP1 PUSH2 0x100 EXP SWAP1 DIV PUSH20 0xFFFFFFFFFFFFFFFFFFFFFFFFFFFFFFFFFFFFFFFF AND SWAP1 POP PUSH0 PUSH1 0x3 PUSH0 DUP4 PUSH20 0xFFFFFFFFFFFFFFFFFFFFFFFFFFFFFFFFFFFFFFFF AND PUSH20 0xFFFFFFFFFFFFFFFFFFFFFFFFFFFFFFFFFFFFFFFF AND DUP2 MSTORE PUSH1 0x20 ADD SWAP1 DUP2 MSTORE PUSH1 0x20 ADD PUSH0 KECCAK256 DUP2 SWAP1 SSTORE POP PUSH0 PUSH1 0x4 PUSH0 DUP4 PUSH20 0xFFFFFFFFFFFFFFFFFFFFFFFFFFFFFFFFFFFFFFFF AND PUSH20 0xFFFFFFFFFFFFFFFFFFFFFFFFFFFFFFFFFFFFFFFF AND DUP2 MSTORE PUSH1 0x20 ADD SWAP1 DUP2 MSTORE PUSH1 0x20 ADD PUSH0 KECCAK256 PUSH0 PUSH2 0x100 EXP DUP2 SLOAD DUP2 PUSH1 0xFF MUL NOT AND SWAP1 DUP4 ISZERO ISZERO MUL OR SWAP1 SSTORE POP POP DUP1 DUP1 PUSH1 0x1 ADD SWAP2 POP POP PUSH2 0x1049 JUMP JUMPDEST POP PUSH1 0x2 PUSH0 PUSH2 0x1147 SWAP2 SWAP1 PUSH2 0x1197 JUMP JUMPDEST JUMP JUMPDEST PUSH0 DUP1 DUP3 SLT ISZERO PUSH2 0x118F JUMPI DUP2 PUSH1 0x40 MLOAD PUSH32 0xA8CE443200000000000000000000000000000000000000000000000000000000 DUP2 MSTORE PUSH1 0x4 ADD PUSH2 0x1186 SWAP2 SWAP1 PUSH2 0x1AA0 JUMP JUMPDEST PUSH1 0x40 MLOAD DUP1 SWAP2 SUB SWAP1 REVERT JUMPDEST DUP2 SWAP1 POP SWAP2 SWAP1 POP JUMP JUMPDEST POP DUP1 SLOAD PUSH0 DUP3 SSTORE SWAP1 PUSH0 MSTORE PUSH1 0x20 PUSH0 KECCAK256 SWAP1 DUP2 ADD SWAP1 PUSH2 0x11B2 SWAP2 SWAP1 PUSH2 0x11B5 JUMP JUMPDEST POP JUMP JUMPDEST JUMPDEST DUP1 DUP3 GT ISZERO PUSH2 0x11CC JUMPI PUSH0 DUP2 PUSH0 SWAP1 SSTORE POP PUSH1 0x1 ADD PUSH2 0x11B6 JUMP JUMPDEST POP SWAP1 JUMP JUMPDEST PUSH0 DUP1 REVERT JUMPDEST PUSH0 PUSH20 0xFFFFFFFFFFFFFFFFFFFFFFFFFFFFFFFFFFFFFFFF DUP3 AND SWAP1 POP SWAP2 SWAP1 POP JUMP JUMPDEST PUSH0 PUSH2 0x11FD DUP3 PUSH2 0x11D4 JUMP JUMPDEST SWAP1 POP SWAP2 SWAP1 POP JUMP JUMPDEST PUSH2 0x120D DUP2 PUSH2 0x11F3 JUMP JUMPDEST DUP2 EQ PUSH2 0x1217 JUMPI PUSH0 DUP1 REVERT JUMPDEST POP JUMP JUMPDEST PUSH0 DUP2 CALLDATALOAD SWAP1 POP PUSH2 0x1228 DUP2 PUSH2 0x1204 JUMP JUMPDEST SWAP3 SWAP2 POP POP JUMP JUMPDEST PUSH0 PUSH1 0x20 DUP3 DUP5 SUB SLT ISZERO PUSH2 0x1243 JUMPI PUSH2 0x1242 PUSH2 0x11D0 JUMP JUMPDEST JUMPDEST PUSH0 PUSH2 0x1250 DUP5 DUP3 DUP6 ADD PUSH2 0x121A JUMP JUMPDEST SWAP2 POP POP SWAP3 SWAP2 POP POP JUMP JUMPDEST PUSH0 DUP2 SWAP1 POP SWAP2 SWAP1 POP JUMP JUMPDEST PUSH2 0x126B DUP2 PUSH2 0x1259 JUMP JUMPDEST DUP3 MSTORE POP POP JUMP JUMPDEST PUSH0 PUSH1 0x20 DUP3 ADD SWAP1 POP PUSH2 0x1284 PUSH0 DUP4 ADD DUP5 PUSH2 0x1262 JUMP JUMPDEST SWAP3 SWAP2 POP POP JUMP JUMPDEST PUSH2 0x1293 DUP2 PUSH2 0x1259 JUMP JUMPDEST DUP2 EQ PUSH2 0x129D JUMPI PUSH0 DUP1 REVERT JUMPDEST POP JUMP JUMPDEST PUSH0 DUP2 CALLDATALOAD SWAP1 POP PUSH2 0x12AE DUP2 PUSH2 0x128A JUMP JUMPDEST SWAP3 SWAP2 POP POP JUMP JUMPDEST PUSH0 DUP1 PUSH1 0x40 DUP4 DUP6 SUB SLT ISZERO PUSH2 0x12CA JUMPI PUSH2 0x12C9 PUSH2 0x11D0 JUMP JUMPDEST JUMPDEST PUSH0 PUSH2 0x12D7 DUP6 DUP3 DUP7 ADD PUSH2 0x12A0 JUMP JUMPDEST SWAP3 POP POP PUSH1 0x20 PUSH2 0x12E8 DUP6 DUP3 DUP7 ADD PUSH2 0x12A0 JUMP JUMPDEST SWAP2 POP POP SWAP3 POP SWAP3 SWAP1 POP JUMP JUMPDEST PUSH0 PUSH1 0x20 DUP3 DUP5 SUB SLT ISZERO PUSH2 0x1307 JUMPI PUSH2 0x1306 PUSH2 0x11D0 JUMP JUMPDEST JUMPDEST PUSH0 PUSH2 0x1314 DUP5 DUP3 DUP6 ADD PUSH2 0x12A0 JUMP JUMPDEST SWAP2 POP POP SWAP3 SWAP2 POP POP JUMP JUMPDEST PUSH2 0x1326 DUP2 PUSH2 0x11F3 JUMP JUMPDEST DUP3 MSTORE POP POP JUMP JUMPDEST PUSH0 PUSH1 0x20 DUP3 ADD SWAP1 POP PUSH2 0x133F PUSH0 DUP4 ADD DUP5 PUSH2 0x131D JUMP JUMPDEST SWAP3 SWAP2 POP POP JUMP JUMPDEST PUSH0 DUP2 ISZERO ISZERO SWAP1 POP SWAP2 SWAP1 POP JUMP JUMPDEST PUSH2 0x1359 DUP2 PUSH2 0x1345 JUMP JUMPDEST DUP3 MSTORE POP POP JUMP JUMPDEST PUSH0 PUSH1 0x20 DUP3 ADD SWAP1 POP PUSH2 0x1372 PUSH0 DUP4 ADD DUP5 PUSH2 0x1350 JUMP JUMPDEST SWAP3 SWAP2 POP POP JUMP JUMPDEST PUSH0 DUP3 DUP3 MSTORE PUSH1 0x20 DUP3 ADD SWAP1 POP SWAP3 SWAP2 POP POP JUMP JUMPDEST PUSH32 0x6469646E27742073656E6420656E6F7567682055534400000000000000000000 PUSH0 DUP3 ADD MSTORE POP JUMP JUMPDEST PUSH0 PUSH2 0x13BC PUSH1 0x16 DUP4 PUSH2 0x1378 JUMP JUMPDEST SWAP2 POP PUSH2 0x13C7 DUP3 PUSH2 0x1388 JUMP JUMPDEST PUSH1 0x20 DUP3 ADD SWAP1 POP SWAP2 SWAP1 POP JUMP JUMPDEST PUSH0 PUSH1 0x20 DUP3 ADD SWAP1 POP DUP2 DUP2 SUB PUSH0 DUP4 ADD MSTORE PUSH2 0x13E9 DUP2 PUSH2 0x13B0 JUMP JUMPDEST SWAP1 POP SWAP2 SWAP1 POP JUMP JUMPDEST PUSH32 0x4E487B7100000000000000000000000000000000000000000000000000000000 PUSH0 MSTORE PUSH1 0x11 PUSH1 0x4 MSTORE PUSH1 0x24 PUSH0 REVERT JUMPDEST PUSH0 PUSH2 0x1427 DUP3 PUSH2 0x1259 JUMP JUMPDEST SWAP2 POP PUSH2 0x1432 DUP4 PUSH2 0x1259 JUMP JUMPDEST SWAP3 POP DUP3 DUP3 ADD SWAP1 POP DUP1 DUP3 GT ISZERO PUSH2 0x144A JUMPI PUSH2 0x1449 PUSH2 0x13F0 JUMP JUMPDEST JUMPDEST SWAP3 SWAP2 POP POP JUMP JUMPDEST PUSH0 PUSH2 0x145A DUP3 PUSH2 0x1259 JUMP JUMPDEST SWAP2 POP PUSH2 0x1465 DUP4 PUSH2 0x1259 JUMP JUMPDEST SWAP3 POP DUP3 DUP3 MUL PUSH2 0x1473 DUP2 PUSH2 0x1259 JUMP JUMPDEST SWAP2 POP DUP3 DUP3 DIV DUP5 EQ DUP4 ISZERO OR PUSH2 0x148A JUMPI PUSH2 0x1489 PUSH2 0x13F0 JUMP JUMPDEST JUMPDEST POP SWAP3 SWAP2 POP POP JUMP JUMPDEST PUSH32 0x4E487B7100000000000000000000000000000000000000000000000000000000 PUSH0 MSTORE PUSH1 0x12 PUSH1 0x4 MSTORE PUSH1 0x24 PUSH0 REVERT JUMPDEST PUSH0 PUSH2 0x14C8 DUP3 PUSH2 0x1259 JUMP JUMPDEST SWAP2 POP PUSH2 0x14D3 DUP4 PUSH2 0x1259 JUMP JUMPDEST SWAP3 POP DUP3 PUSH2 0x14E3 JUMPI PUSH2 0x14E2 PUSH2 0x1491 JUMP JUMPDEST JUMPDEST DUP3 DUP3 DIV SWAP1 POP SWAP3 SWAP2 POP POP JUMP JUMPDEST PUSH32 0x4E6F2072652D656E7472616E637920616C6C6F7765642C20706C656173652074 PUSH0 DUP3 ADD MSTORE PUSH32 0x727920616761696E2E0000000000000000000000000000000000000000000000 PUSH1 0x20 DUP3 ADD MSTORE POP JUMP JUMPDEST PUSH0 PUSH2 0x1548 PUSH1 0x29 DUP4 PUSH2 0x1378 JUMP JUMPDEST SWAP2 POP PUSH2 0x1553 DUP3 PUSH2 0x14EE JUMP JUMPDEST PUSH1 0x40 DUP3 ADD SWAP1 POP SWAP2 SWAP1 POP JUMP JUMPDEST PUSH0 PUSH1 0x20 DUP3 ADD SWAP1 POP DUP2 DUP2 SUB PUSH0 DUP4 ADD MSTORE PUSH2 0x1575 DUP2 PUSH2 0x153C JUMP JUMPDEST SWAP1 POP SWAP2 SWAP1 POP JUMP JUMPDEST PUSH32 0x496E73756666696369656E742062616C616E6365000000000000000000000000 PUSH0 DUP3 ADD MSTORE POP JUMP JUMPDEST PUSH0 PUSH2 0x15B0 PUSH1 0x14 DUP4 PUSH2 0x1378 JUMP JUMPDEST SWAP2 POP PUSH2 0x15BB DUP3 PUSH2 0x157C JUMP JUMPDEST PUSH1 0x20 DUP3 ADD SWAP1 POP SWAP2 SWAP1 POP JUMP JUMPDEST PUSH0 PUSH1 0x20 DUP3 ADD SWAP1 POP DUP2 DUP2 SUB PUSH0 DUP4 ADD MSTORE PUSH2 0x15DD DUP2 PUSH2 0x15A4 JUMP JUMPDEST SWAP1 POP SWAP2 SWAP1 POP JUMP JUMPDEST PUSH0 DUP2 SWAP1 POP SWAP3 SWAP2 POP POP JUMP JUMPDEST POP JUMP JUMPDEST PUSH0 PUSH2 0x15FC PUSH0 DUP4 PUSH2 0x15E4 JUMP JUMPDEST SWAP2 POP PUSH2 0x1607 DUP3 PUSH2 0x15EE JUMP JUMPDEST PUSH0 DUP3 ADD SWAP1 POP SWAP2 SWAP1 POP JUMP JUMPDEST PUSH0 PUSH2 0x161B DUP3 PUSH2 0x15F1 JUMP JUMPDEST SWAP2 POP DUP2 SWAP1 POP SWAP2 SWAP1 POP JUMP JUMPDEST PUSH32 0x5472616E73666572206661696C65642E00000000000000000000000000000000 PUSH0 DUP3 ADD MSTORE POP JUMP JUMPDEST PUSH0 PUSH2 0x1659 PUSH1 0x10 DUP4 PUSH2 0x1378 JUMP JUMPDEST SWAP2 POP PUSH2 0x1664 DUP3 PUSH2 0x1625 JUMP JUMPDEST PUSH1 0x20 DUP3 ADD SWAP1 POP SWAP2 SWAP1 POP JUMP JUMPDEST PUSH0 PUSH1 0x20 DUP3 ADD SWAP1 POP DUP2 DUP2 SUB PUSH0 DUP4 ADD MSTORE PUSH2 0x1686 DUP2 PUSH2 0x164D JUMP JUMPDEST SWAP1 POP SWAP2 SWAP1 POP JUMP JUMPDEST PUSH32 0x4F6E6C79206F776E65722063616E206578656375746520746869732066756E63 PUSH0 DUP3 ADD MSTORE PUSH32 0x74696F6E2E000000000000000000000000000000000000000000000000000000 PUSH1 0x20 DUP3 ADD MSTORE POP JUMP JUMPDEST PUSH0 PUSH2 0x16E7 PUSH1 0x25 DUP4 PUSH2 0x1378 JUMP JUMPDEST SWAP2 POP PUSH2 0x16F2 DUP3 PUSH2 0x168D JUMP JUMPDEST PUSH1 0x40 DUP3 ADD SWAP1 POP SWAP2 SWAP1 POP JUMP JUMPDEST PUSH0 PUSH1 0x20 DUP3 ADD SWAP1 POP DUP2 DUP2 SUB PUSH0 DUP4 ADD MSTORE PUSH2 0x1714 DUP2 PUSH2 0x16DB JUMP JUMPDEST SWAP1 POP SWAP2 SWAP1 POP JUMP JUMPDEST PUSH32 0x4F6E6C79206F776E65722063616E2063616C6C20746869732066756E6374696F PUSH0 DUP3 ADD MSTORE PUSH32 0x6E2E000000000000000000000000000000000000000000000000000000000000 PUSH1 0x20 DUP3 ADD MSTORE POP JUMP JUMPDEST PUSH0 PUSH2 0x1775 PUSH1 0x22 DUP4 PUSH2 0x1378 JUMP JUMPDEST SWAP2 POP PUSH2 0x1780 DUP3 PUSH2 0x171B JUMP JUMPDEST PUSH1 0x40 DUP3 ADD SWAP1 POP SWAP2 SWAP1 POP JUMP JUMPDEST PUSH0 PUSH1 0x20 DUP3 ADD SWAP1 POP DUP2 DUP2 SUB PUSH0 DUP4 ADD MSTORE PUSH2 0x17A2 DUP2 PUSH2 0x1769 JUMP JUMPDEST SWAP1 POP SWAP2 SWAP1 POP JUMP JUMPDEST PUSH32 0x57616C6C65742061646472657373206973206E6F7420612066756E6465722E00 PUSH0 DUP3 ADD MSTORE POP JUMP JUMPDEST PUSH0 PUSH2 0x17DD PUSH1 0x1F DUP4 PUSH2 0x1378 JUMP JUMPDEST SWAP2 POP PUSH2 0x17E8 DUP3 PUSH2 0x17A9 JUMP JUMPDEST PUSH1 0x20 DUP3 ADD SWAP1 POP SWAP2 SWAP1 POP JUMP JUMPDEST PUSH0 PUSH1 0x20 DUP3 ADD SWAP1 POP DUP2 DUP2 SUB PUSH0 DUP4 ADD MSTORE PUSH2 0x180A DUP2 PUSH2 0x17D1 JUMP JUMPDEST SWAP1 POP SWAP2 SWAP1 POP JUMP JUMPDEST PUSH0 PUSH2 0x181B DUP3 PUSH2 0x1259 JUMP JUMPDEST SWAP2 POP PUSH2 0x1826 DUP4 PUSH2 0x1259 JUMP JUMPDEST SWAP3 POP DUP3 DUP3 SUB SWAP1 POP DUP2 DUP2 GT ISZERO PUSH2 0x183E JUMPI PUSH2 0x183D PUSH2 0x13F0 JUMP JUMPDEST JUMPDEST SWAP3 SWAP2 POP POP JUMP JUMPDEST PUSH0 PUSH10 0xFFFFFFFFFFFFFFFFFFFF DUP3 AND SWAP1 POP SWAP2 SWAP1 POP JUMP JUMPDEST PUSH2 0x1862 DUP2 PUSH2 0x1844 JUMP JUMPDEST DUP2 EQ PUSH2 0x186C JUMPI PUSH0 DUP1 REVERT JUMPDEST POP JUMP JUMPDEST PUSH0 DUP2 MLOAD SWAP1 POP PUSH2 0x187D DUP2 PUSH2 0x1859 JUMP JUMPDEST SWAP3 SWAP2 POP POP JUMP JUMPDEST PUSH0 DUP2 SWAP1 POP SWAP2 SWAP1 POP JUMP JUMPDEST PUSH2 0x1895 DUP2 PUSH2 0x1883 JUMP JUMPDEST DUP2 EQ PUSH2 0x189F JUMPI PUSH0 DUP1 REVERT JUMPDEST POP JUMP JUMPDEST PUSH0 DUP2 MLOAD SWAP1 POP PUSH2 0x18B0 DUP2 PUSH2 0x188C JUMP JUMPDEST SWAP3 SWAP2 POP POP JUMP JUMPDEST PUSH0 DUP2 MLOAD SWAP1 POP PUSH2 0x18C4 DUP2 PUSH2 0x128A JUMP JUMPDEST SWAP3 SWAP2 POP POP JUMP JUMPDEST PUSH0 DUP1 PUSH0 DUP1 PUSH0 PUSH1 0xA0 DUP7 DUP9 SUB SLT ISZERO PUSH2 0x18E3 JUMPI PUSH2 0x18E2 PUSH2 0x11D0 JUMP JUMPDEST JUMPDEST PUSH0 PUSH2 0x18F0 DUP9 DUP3 DUP10 ADD PUSH2 0x186F JUMP JUMPDEST SWAP6 POP POP PUSH1 0x20 PUSH2 0x1901 DUP9 DUP3 DUP10 ADD PUSH2 0x18A2 JUMP JUMPDEST SWAP5 POP POP PUSH1 0x40 PUSH2 0x1912 DUP9 DUP3 DUP10 ADD PUSH2 0x18B6 JUMP JUMPDEST SWAP4 POP POP PUSH1 0x60 PUSH2 0x1923 DUP9 DUP3 DUP10 ADD PUSH2 0x18B6 JUMP JUMPDEST SWAP3 POP POP PUSH1 0x80 PUSH2 0x1934 DUP9 DUP3 DUP10 ADD PUSH2 0x186F JUMP JUMPDEST SWAP2 POP POP SWAP3 SWAP6 POP SWAP3 SWAP6 SWAP1 SWAP4 POP JUMP JUMPDEST PUSH32 0x4E65676174697665207072696365206E6F7420616C6C6F7765642E0000000000 PUSH0 DUP3 ADD MSTORE POP JUMP JUMPDEST PUSH0 PUSH2 0x1975 PUSH1 0x1B DUP4 PUSH2 0x1378 JUMP JUMPDEST SWAP2 POP PUSH2 0x1980 DUP3 PUSH2 0x1941 JUMP JUMPDEST PUSH1 0x20 DUP3 ADD SWAP1 POP SWAP2 SWAP1 POP JUMP JUMPDEST PUSH0 PUSH1 0x20 DUP3 ADD SWAP1 POP DUP2 DUP2 SUB PUSH0 DUP4 ADD MSTORE PUSH2 0x19A2 DUP2 PUSH2 0x1969 JUMP JUMPDEST SWAP1 POP SWAP2 SWAP1 POP JUMP JUMPDEST PUSH32 0x43616E6E6F74206368616E6765207468652076616C7565206F66206D696E696D PUSH0 DUP3 ADD MSTORE PUSH32 0x756D55736420746F207468652073616D652076616C75652E0000000000000000 PUSH1 0x20 DUP3 ADD MSTORE POP JUMP JUMPDEST PUSH0 PUSH2 0x1A03 PUSH1 0x38 DUP4 PUSH2 0x1378 JUMP JUMPDEST SWAP2 POP PUSH2 0x1A0E DUP3 PUSH2 0x19A9 JUMP JUMPDEST PUSH1 0x40 DUP3 ADD SWAP1 POP SWAP2 SWAP1 POP JUMP JUMPDEST PUSH0 PUSH1 0x20 DUP3 ADD SWAP1 POP DUP2 DUP2 SUB PUSH0 DUP4 ADD MSTORE PUSH2 0x1A30 DUP2 PUSH2 0x19F7 JUMP JUMPDEST SWAP1 POP SWAP2 SWAP1 POP JUMP JUMPDEST PUSH32 0x4E487B7100000000000000000000000000000000000000000000000000000000 PUSH0 MSTORE PUSH1 0x32 PUSH1 0x4 MSTORE PUSH1 0x24 PUSH0 REVERT JUMPDEST PUSH32 0x4E487B7100000000000000000000000000000000000000000000000000000000 PUSH0 MSTORE PUSH1 0x31 PUSH1 0x4 MSTORE PUSH1 0x24 PUSH0 REVERT JUMPDEST PUSH2 0x1A9A DUP2 PUSH2 0x1883 JUMP JUMPDEST DUP3 MSTORE POP POP JUMP JUMPDEST PUSH0 PUSH1 0x20 DUP3 ADD SWAP1 POP PUSH2 0x1AB3 PUSH0 DUP4 ADD DUP5 PUSH2 0x1A91 JUMP JUMPDEST SWAP3 SWAP2 POP POP JUMP INVALID LOG2 PUSH5 0x6970667358 0x22 SLT KECCAK256 PUSH28 0xAD2AC9F3367B65E6279694AFC54F590FA5067C4C9D49B1528E3A5D7D EQ 0xE5 DUP7 PUSH5 0x736F6C6343 STOP ADDMOD BYTE STOP CALLER "
				},
				"gasEstimates": {
					"creation": {
						"codeDepositCost": "1379000",
						"executionCost": "47865",
						"totalCost": "1426865"
					},
					"external": {
						"addressIsActiveFunder(address)": "2921",
						"addressToAvailableAmount(address)": "2803",
						"addressToIndexInFundersArray(address)": "2824",
						"changeMinimumUsd(uint256)": "infinite",
						"fund()": "infinite",
						"funders(uint256)": "5010",
						"getConversionRate(uint256,uint256)": "infinite",
						"getPrice()": "infinite",
						"minimumUsd()": "2448",
						"owner()": "2581",
						"ownerWithdrawFunds()": "infinite",
						"partialWithdraw(uint256)": "infinite",
						"totalWithdraw()": "infinite"
					},
					"internal": {
						"cleanAfterOwnerWithdrawal()": "infinite",
						"cleanAfterUserWithdrawal()": "infinite"
					}
				},
				"methodIdentifiers": {
					"addressIsActiveFunder(address)": "f8024578",
					"addressToAvailableAmount(address)": "034855c7",
					"addressToIndexInFundersArray(address)": "cc3b589e",
					"changeMinimumUsd(uint256)": "d78a29d2",
					"fund()": "b60d4288",
					"funders(uint256)": "dc0d3dff",
					"getConversionRate(uint256,uint256)": "3e9f607c",
					"getPrice()": "98d5fdca",
					"minimumUsd()": "098de820",
					"owner()": "8da5cb5b",
					"ownerWithdrawFunds()": "5eb8d90b",
					"partialWithdraw(uint256)": "71d2ee6c",
					"totalWithdraw()": "455fd623"
				}
			},
			"storageLayout": {
				"storage": [
					{
						"astId": 55,
						"contract": "FundMe/contracts/FundMe.sol:FundMe",
						"label": "locked",
						"offset": 0,
						"slot": "0",
						"type": "t_bool"
					},
					{
						"astId": 57,
						"contract": "FundMe/contracts/FundMe.sol:FundMe",
						"label": "owner",
						"offset": 1,
						"slot": "0",
						"type": "t_address"
					},
					{
						"astId": 59,
						"contract": "FundMe/contracts/FundMe.sol:FundMe",
						"label": "minimumUsd",
						"offset": 0,
						"slot": "1",
						"type": "t_uint256"
					},
					{
						"astId": 62,
						"contract": "FundMe/contracts/FundMe.sol:FundMe",
						"label": "funders",
						"offset": 0,
						"slot": "2",
						"type": "t_array(t_address)dyn_storage"
					},
					{
						"astId": 66,
						"contract": "FundMe/contracts/FundMe.sol:FundMe",
						"label": "addressToIndexInFundersArray",
						"offset": 0,
						"slot": "3",
						"type": "t_mapping(t_address,t_uint256)"
					},
					{
						"astId": 70,
						"contract": "FundMe/contracts/FundMe.sol:FundMe",
						"label": "addressIsActiveFunder",
						"offset": 0,
						"slot": "4",
						"type": "t_mapping(t_address,t_bool)"
					},
					{
						"astId": 74,
						"contract": "FundMe/contracts/FundMe.sol:FundMe",
						"label": "addressToAvailableAmount",
						"offset": 0,
						"slot": "5",
						"type": "t_mapping(t_address,t_uint256)"
					}
				],
				"types": {
					"t_address": {
						"encoding": "inplace",
						"label": "address",
						"numberOfBytes": "20"
					},
					"t_array(t_address)dyn_storage": {
						"base": "t_address",
						"encoding": "dynamic_array",
						"label": "address[]",
						"numberOfBytes": "32"
					},
					"t_bool": {
						"encoding": "inplace",
						"label": "bool",
						"numberOfBytes": "1"
					},
					"t_mapping(t_address,t_bool)": {
						"encoding": "mapping",
						"key": "t_address",
						"label": "mapping(address => bool)",
						"numberOfBytes": "32",
						"value": "t_bool"
					},
					"t_mapping(t_address,t_uint256)": {
						"encoding": "mapping",
						"key": "t_address",
						"label": "mapping(address => uint256)",
						"numberOfBytes": "32",
						"value": "t_uint256"
					},
					"t_uint256": {
						"encoding": "inplace",
						"label": "uint256",
						"numberOfBytes": "32"
					}
				}
			},
			"userdoc": {
				"kind": "user",
				"methods": {},
				"version": 1
			}
		}
	}
}