{
	"FundMe/contracts/FundMe.sol": {
		"FundMe": {
			"abi": [
				{
					"inputs": [],
					"stateMutability": "nonpayable",
					"type": "constructor"
				},
				{
					"inputs": [
						{
							"internalType": "int256",
							"name": "value",
							"type": "int256"
						}
					],
					"name": "SafeCastOverflowedIntToUint",
					"type": "error"
				},
				{
					"stateMutability": "payable",
					"type": "fallback"
				},
				{
					"inputs": [
						{
							"internalType": "address",
							"name": "",
							"type": "address"
						}
					],
					"name": "addressIsActiveFunder",
					"outputs": [
						{
							"internalType": "bool",
							"name": "",
							"type": "bool"
						}
					],
					"stateMutability": "view",
					"type": "function"
				},
				{
					"inputs": [
						{
							"internalType": "address",
							"name": "",
							"type": "address"
						}
					],
					"name": "addressToAvailableAmount",
					"outputs": [
						{
							"internalType": "uint256",
							"name": "",
							"type": "uint256"
						}
					],
					"stateMutability": "view",
					"type": "function"
				},
				{
					"inputs": [
						{
							"internalType": "address",
							"name": "",
							"type": "address"
						}
					],
					"name": "addressToIndexInFundersArray",
					"outputs": [
						{
							"internalType": "uint256",
							"name": "",
							"type": "uint256"
						}
					],
					"stateMutability": "view",
					"type": "function"
				},
				{
					"inputs": [
						{
							"internalType": "address",
							"name": "_newAddress",
							"type": "address"
						}
					],
					"name": "changeFunder",
					"outputs": [],
					"stateMutability": "nonpayable",
					"type": "function"
				},
				{
					"inputs": [
						{
							"internalType": "uint256",
							"name": "_newMinimumUsd",
							"type": "uint256"
						}
					],
					"name": "changeMinimumUsd",
					"outputs": [],
					"stateMutability": "nonpayable",
					"type": "function"
				},
				{
					"inputs": [],
					"name": "fund",
					"outputs": [],
					"stateMutability": "payable",
					"type": "function"
				},
				{
					"inputs": [
						{
							"internalType": "uint256",
							"name": "",
							"type": "uint256"
						}
					],
					"name": "funders",
					"outputs": [
						{
							"internalType": "address",
							"name": "",
							"type": "address"
						}
					],
					"stateMutability": "view",
					"type": "function"
				},
				{
					"inputs": [
						{
							"internalType": "uint256",
							"name": "_price",
							"type": "uint256"
						},
						{
							"internalType": "uint256",
							"name": "_amountInWEI",
							"type": "uint256"
						}
					],
					"name": "getConversionRate",
					"outputs": [
						{
							"internalType": "uint256",
							"name": "",
							"type": "uint256"
						}
					],
					"stateMutability": "pure",
					"type": "function"
				},
				{
					"inputs": [],
					"name": "getPrice",
					"outputs": [
						{
							"internalType": "uint256",
							"name": "",
							"type": "uint256"
						}
					],
					"stateMutability": "view",
					"type": "function"
				},
				{
					"inputs": [],
					"name": "i_owner",
					"outputs": [
						{
							"internalType": "address",
							"name": "",
							"type": "address"
						}
					],
					"stateMutability": "view",
					"type": "function"
				},
				{
					"inputs": [],
					"name": "minimumUsd",
					"outputs": [
						{
							"internalType": "uint256",
							"name": "",
							"type": "uint256"
						}
					],
					"stateMutability": "view",
					"type": "function"
				},
				{
					"inputs": [],
					"name": "ownerWithdrawFunds",
					"outputs": [],
					"stateMutability": "nonpayable",
					"type": "function"
				},
				{
					"inputs": [
						{
							"internalType": "uint256",
							"name": "_amount",
							"type": "uint256"
						}
					],
					"name": "partialWithdraw",
					"outputs": [],
					"stateMutability": "nonpayable",
					"type": "function"
				},
				{
					"inputs": [],
					"name": "totalWithdraw",
					"outputs": [],
					"stateMutability": "nonpayable",
					"type": "function"
				},
				{
					"stateMutability": "payable",
					"type": "receive"
				}
			],
			"devdoc": {
				"errors": {
					"SafeCastOverflowedIntToUint(int256)": [
						{
							"details": "An int value doesn't fit in an uint of `bits` size."
						}
					]
				},
				"kind": "dev",
				"methods": {},
				"version": 1
			},
			"evm": {
				"assembly": "    /* \"FundMe/contracts/FundMe.sol\":265:6968  contract FundMe {... */\n  mstore(0x40, 0xa0)\n    /* \"FundMe/contracts/FundMe.sol\":1270:1443  constructor() {... */\n  callvalue\n  dup1\n  iszero\n  tag_1\n  jumpi\n  0x00\n  dup1\n  revert\ntag_1:\n  pop\n    /* \"FundMe/contracts/FundMe.sol\":1304:1314  msg.sender */\n  caller\n    /* \"FundMe/contracts/FundMe.sol\":1294:1314  i_owner = msg.sender */\n  0xffffffffffffffffffffffffffffffffffffffff\n  and\n  0x80\n  dup2\n  0xffffffffffffffffffffffffffffffffffffffff\n  and\n  dup2\n  mstore\n  pop\n  pop\n    /* \"FundMe/contracts/FundMe.sol\":1431:1436  5*1e8 */\n  0x1dcd6500\n    /* \"FundMe/contracts/FundMe.sol\":1418:1428  minimumUsd */\n  0x01\n    /* \"FundMe/contracts/FundMe.sol\":1418:1436  minimumUsd = 5*1e8 */\n  dup2\n  swap1\n  sstore\n  pop\n    /* \"FundMe/contracts/FundMe.sol\":265:6968  contract FundMe {... */\n  mload(0x80)\n  codecopy(0x00, dataOffset(sub_0), dataSize(sub_0))\n  0x00\n  assignImmutable(\"0xe921da22f871c25c63f06c1365385cbb26397f64f79055cdbab32187a9377d16\")\n  return(0x00, dataSize(sub_0))\nstop\n\nsub_0: assembly {\n        /* \"FundMe/contracts/FundMe.sol\":265:6968  contract FundMe {... */\n      mstore(0x40, 0x80)\n      jumpi(tag_1, lt(calldatasize, 0x04))\n      shr(0xe0, calldataload(0x00))\n      dup1\n      0x98d5fdca\n      gt\n      tag_17\n      jumpi\n      dup1\n      0xd78a29d2\n      gt\n      tag_18\n      jumpi\n      dup1\n      0xd78a29d2\n      eq\n      tag_13\n      jumpi\n      dup1\n      0xdba6335f\n      eq\n      tag_14\n      jumpi\n      dup1\n      0xdc0d3dff\n      eq\n      tag_15\n      jumpi\n      dup1\n      0xf8024578\n      eq\n      tag_16\n      jumpi\n      jump(tag_2)\n    tag_18:\n      dup1\n      0x98d5fdca\n      eq\n      tag_10\n      jumpi\n      dup1\n      0xb60d4288\n      eq\n      tag_11\n      jumpi\n      dup1\n      0xcc3b589e\n      eq\n      tag_12\n      jumpi\n      jump(tag_2)\n    tag_17:\n      dup1\n      0x3e9f607c\n      gt\n      tag_19\n      jumpi\n      dup1\n      0x3e9f607c\n      eq\n      tag_6\n      jumpi\n      dup1\n      0x455fd623\n      eq\n      tag_7\n      jumpi\n      dup1\n      0x5eb8d90b\n      eq\n      tag_8\n      jumpi\n      dup1\n      0x71d2ee6c\n      eq\n      tag_9\n      jumpi\n      jump(tag_2)\n    tag_19:\n      dup1\n      0x034855c7\n      eq\n      tag_3\n      jumpi\n      dup1\n      0x098de820\n      eq\n      tag_4\n      jumpi\n      dup1\n      0x11ea94d6\n      eq\n      tag_5\n      jumpi\n      jump(tag_2)\n    tag_1:\n      jumpi(tag_2, calldatasize)\n        /* \"FundMe/contracts/FundMe.sol\":1608:1614  fund() */\n      tag_22\n        /* \"FundMe/contracts/FundMe.sol\":1608:1612  fund */\n      tag_23\n        /* \"FundMe/contracts/FundMe.sol\":1608:1614  fund() */\n      jump\t// in\n    tag_22:\n        /* \"FundMe/contracts/FundMe.sol\":265:6968  contract FundMe {... */\n      stop\n    tag_2:\n        /* \"FundMe/contracts/FundMe.sol\":1787:1793  fund() */\n      tag_26\n        /* \"FundMe/contracts/FundMe.sol\":1787:1791  fund */\n      tag_23\n        /* \"FundMe/contracts/FundMe.sol\":1787:1793  fund() */\n      jump\t// in\n    tag_26:\n        /* \"FundMe/contracts/FundMe.sol\":265:6968  contract FundMe {... */\n      stop\n        /* \"FundMe/contracts/FundMe.sol\":592:652  mapping (address => uint256) public addressToAvailableAmount */\n    tag_3:\n      callvalue\n      dup1\n      iszero\n      tag_27\n      jumpi\n      0x00\n      dup1\n      revert\n    tag_27:\n      pop\n      tag_28\n      0x04\n      dup1\n      calldatasize\n      sub\n      dup2\n      add\n      swap1\n      tag_29\n      swap2\n      swap1\n      tag_30\n      jump\t// in\n    tag_29:\n      tag_31\n      jump\t// in\n    tag_28:\n      mload(0x40)\n      tag_32\n      swap2\n      swap1\n      tag_33\n      jump\t// in\n    tag_32:\n      mload(0x40)\n      dup1\n      swap2\n      sub\n      swap1\n      return\n        /* \"FundMe/contracts/FundMe.sol\":400:425  uint256 public minimumUsd */\n    tag_4:\n      callvalue\n      dup1\n      iszero\n      tag_34\n      jumpi\n      0x00\n      dup1\n      revert\n    tag_34:\n      pop\n      tag_35\n      tag_36\n      jump\t// in\n    tag_35:\n      mload(0x40)\n      tag_37\n      swap2\n      swap1\n      tag_33\n      jump\t// in\n    tag_37:\n      mload(0x40)\n      dup1\n      swap2\n      sub\n      swap1\n      return\n        /* \"FundMe/contracts/FundMe.sol\":2954:3603  function changeFunder(address _newAddress) public noReentrant {... */\n    tag_5:\n      callvalue\n      dup1\n      iszero\n      tag_38\n      jumpi\n      0x00\n      dup1\n      revert\n    tag_38:\n      pop\n      tag_39\n      0x04\n      dup1\n      calldatasize\n      sub\n      dup2\n      add\n      swap1\n      tag_40\n      swap2\n      swap1\n      tag_30\n      jump\t// in\n    tag_40:\n      tag_41\n      jump\t// in\n    tag_39:\n      stop\n        /* \"FundMe/contracts/FundMe.sol\":6818:6965  function getConversionRate(uint256 _price, uint256 _amountInWEI) public pure returns (uint256) {... */\n    tag_6:\n      callvalue\n      dup1\n      iszero\n      tag_42\n      jumpi\n      0x00\n      dup1\n      revert\n    tag_42:\n      pop\n      tag_43\n      0x04\n      dup1\n      calldatasize\n      sub\n      dup2\n      add\n      swap1\n      tag_44\n      swap2\n      swap1\n      tag_45\n      jump\t// in\n    tag_44:\n      tag_46\n      jump\t// in\n    tag_43:\n      mload(0x40)\n      tag_47\n      swap2\n      swap1\n      tag_33\n      jump\t// in\n    tag_47:\n      mload(0x40)\n      dup1\n      swap2\n      sub\n      swap1\n      return\n        /* \"FundMe/contracts/FundMe.sol\":4347:4720  function totalWithdraw() public noReentrant {... */\n    tag_7:\n      callvalue\n      dup1\n      iszero\n      tag_48\n      jumpi\n      0x00\n      dup1\n      revert\n    tag_48:\n      pop\n      tag_49\n      tag_50\n      jump\t// in\n    tag_49:\n      stop\n        /* \"FundMe/contracts/FundMe.sol\":4726:4949  function ownerWithdrawFunds() onlyOwner public {... */\n    tag_8:\n      callvalue\n      dup1\n      iszero\n      tag_51\n      jumpi\n      0x00\n      dup1\n      revert\n    tag_51:\n      pop\n      tag_52\n      tag_53\n      jump\t// in\n    tag_52:\n      stop\n        /* \"FundMe/contracts/FundMe.sol\":3706:4246  function partialWithdraw(uint256 _amount) public noReentrant {... */\n    tag_9:\n      callvalue\n      dup1\n      iszero\n      tag_54\n      jumpi\n      0x00\n      dup1\n      revert\n    tag_54:\n      pop\n      tag_55\n      0x04\n      dup1\n      calldatasize\n      sub\n      dup2\n      add\n      swap1\n      tag_56\n      swap2\n      swap1\n      tag_57\n      jump\t// in\n    tag_56:\n      tag_58\n      jump\t// in\n    tag_55:\n      stop\n        /* \"FundMe/contracts/FundMe.sol\":6449:6714  function getPrice() public view returns (uint256) {... */\n    tag_10:\n      callvalue\n      dup1\n      iszero\n      tag_59\n      jumpi\n      0x00\n      dup1\n      revert\n    tag_59:\n      pop\n      tag_60\n      tag_61\n      jump\t// in\n    tag_60:\n      mload(0x40)\n      tag_62\n      swap2\n      swap1\n      tag_33\n      jump\t// in\n    tag_62:\n      mload(0x40)\n      dup1\n      swap2\n      sub\n      swap1\n      return\n        /* \"FundMe/contracts/FundMe.sol\":2449:2948  function fund() public payable {... */\n    tag_11:\n      tag_63\n      tag_23\n      jump\t// in\n    tag_63:\n      stop\n        /* \"FundMe/contracts/FundMe.sol\":462:526  mapping (address => uint256) public addressToIndexInFundersArray */\n    tag_12:\n      callvalue\n      dup1\n      iszero\n      tag_64\n      jumpi\n      0x00\n      dup1\n      revert\n    tag_64:\n      pop\n      tag_65\n      0x04\n      dup1\n      calldatasize\n      sub\n      dup2\n      add\n      swap1\n      tag_66\n      swap2\n      swap1\n      tag_30\n      jump\t// in\n    tag_66:\n      tag_67\n      jump\t// in\n    tag_65:\n      mload(0x40)\n      tag_68\n      swap2\n      swap1\n      tag_33\n      jump\t// in\n    tag_68:\n      mload(0x40)\n      dup1\n      swap2\n      sub\n      swap1\n      return\n        /* \"FundMe/contracts/FundMe.sol\":1899:2167  function changeMinimumUsd(uint256 _newMinimumUsd) onlyOwner public {... */\n    tag_13:\n      callvalue\n      dup1\n      iszero\n      tag_69\n      jumpi\n      0x00\n      dup1\n      revert\n    tag_69:\n      pop\n      tag_70\n      0x04\n      dup1\n      calldatasize\n      sub\n      dup2\n      add\n      swap1\n      tag_71\n      swap2\n      swap1\n      tag_57\n      jump\t// in\n    tag_71:\n      tag_72\n      jump\t// in\n    tag_70:\n      stop\n        /* \"FundMe/contracts/FundMe.sol\":313:345  address public immutable i_owner */\n    tag_14:\n      callvalue\n      dup1\n      iszero\n      tag_73\n      jumpi\n      0x00\n      dup1\n      revert\n    tag_73:\n      pop\n      tag_74\n      tag_75\n      jump\t// in\n    tag_74:\n      mload(0x40)\n      tag_76\n      swap2\n      swap1\n      tag_77\n      jump\t// in\n    tag_76:\n      mload(0x40)\n      dup1\n      swap2\n      sub\n      swap1\n      return\n        /* \"FundMe/contracts/FundMe.sol\":432:456  address[] public funders */\n    tag_15:\n      callvalue\n      dup1\n      iszero\n      tag_78\n      jumpi\n      0x00\n      dup1\n      revert\n    tag_78:\n      pop\n      tag_79\n      0x04\n      dup1\n      calldatasize\n      sub\n      dup2\n      add\n      swap1\n      tag_80\n      swap2\n      swap1\n      tag_57\n      jump\t// in\n    tag_80:\n      tag_81\n      jump\t// in\n    tag_79:\n      mload(0x40)\n      tag_82\n      swap2\n      swap1\n      tag_77\n      jump\t// in\n    tag_82:\n      mload(0x40)\n      dup1\n      swap2\n      sub\n      swap1\n      return\n        /* \"FundMe/contracts/FundMe.sol\":532:586  mapping (address => bool) public addressIsActiveFunder */\n    tag_16:\n      callvalue\n      dup1\n      iszero\n      tag_83\n      jumpi\n      0x00\n      dup1\n      revert\n    tag_83:\n      pop\n      tag_84\n      0x04\n      dup1\n      calldatasize\n      sub\n      dup2\n      add\n      swap1\n      tag_85\n      swap2\n      swap1\n      tag_30\n      jump\t// in\n    tag_85:\n      tag_86\n      jump\t// in\n    tag_84:\n      mload(0x40)\n      tag_87\n      swap2\n      swap1\n      tag_88\n      jump\t// in\n    tag_87:\n      mload(0x40)\n      dup1\n      swap2\n      sub\n      swap1\n      return\n        /* \"FundMe/contracts/FundMe.sol\":2449:2948  function fund() public payable {... */\n    tag_23:\n        /* \"FundMe/contracts/FundMe.sol\":2490:2503  uint256 price */\n      0x00\n        /* \"FundMe/contracts/FundMe.sol\":2506:2516  getPrice() */\n      tag_90\n        /* \"FundMe/contracts/FundMe.sol\":2506:2514  getPrice */\n      tag_61\n        /* \"FundMe/contracts/FundMe.sol\":2506:2516  getPrice() */\n      jump\t// in\n    tag_90:\n        /* \"FundMe/contracts/FundMe.sol\":2490:2516  uint256 price = getPrice() */\n      swap1\n      pop\n        /* \"FundMe/contracts/FundMe.sol\":2526:2548  uint256 conversionRate */\n      0x00\n        /* \"FundMe/contracts/FundMe.sol\":2551:2586  getConversionRate(price, msg.value) */\n      tag_91\n        /* \"FundMe/contracts/FundMe.sol\":2569:2574  price */\n      dup3\n        /* \"FundMe/contracts/FundMe.sol\":2576:2585  msg.value */\n      callvalue\n        /* \"FundMe/contracts/FundMe.sol\":2551:2568  getConversionRate */\n      tag_46\n        /* \"FundMe/contracts/FundMe.sol\":2551:2586  getConversionRate(price, msg.value) */\n      jump\t// in\n    tag_91:\n        /* \"FundMe/contracts/FundMe.sol\":2526:2586  uint256 conversionRate = getConversionRate(price, msg.value) */\n      swap1\n      pop\n        /* \"FundMe/contracts/FundMe.sol\":2622:2632  minimumUsd */\n      sload(0x01)\n        /* \"FundMe/contracts/FundMe.sol\":2604:2618  conversionRate */\n      dup2\n        /* \"FundMe/contracts/FundMe.sol\":2604:2632  conversionRate >= minimumUsd */\n      lt\n      iszero\n        /* \"FundMe/contracts/FundMe.sol\":2596:2659  require(conversionRate >= minimumUsd, \"didn't send enough USD\") */\n      tag_92\n      jumpi\n      mload(0x40)\n      0x08c379a000000000000000000000000000000000000000000000000000000000\n      dup2\n      mstore\n      0x04\n      add\n      tag_93\n      swap1\n      tag_94\n      jump\t// in\n    tag_93:\n      mload(0x40)\n      dup1\n      swap2\n      sub\n      swap1\n      revert\n    tag_92:\n        /* \"FundMe/contracts/FundMe.sol\":2674:2695  addressIsActiveFunder */\n      0x04\n        /* \"FundMe/contracts/FundMe.sol\":2674:2707  addressIsActiveFunder[msg.sender] */\n      0x00\n        /* \"FundMe/contracts/FundMe.sol\":2696:2706  msg.sender */\n      caller\n        /* \"FundMe/contracts/FundMe.sol\":2674:2707  addressIsActiveFunder[msg.sender] */\n      0xffffffffffffffffffffffffffffffffffffffff\n      and\n      0xffffffffffffffffffffffffffffffffffffffff\n      and\n      dup2\n      mstore\n      0x20\n      add\n      swap1\n      dup2\n      mstore\n      0x20\n      add\n      0x00\n      keccak256\n      0x00\n      swap1\n      sload\n      swap1\n      0x0100\n      exp\n      swap1\n      div\n      0xff\n      and\n        /* \"FundMe/contracts/FundMe.sol\":2669:2883  if (!addressIsActiveFunder[msg.sender]) {... */\n      tag_95\n      jumpi\n        /* \"FundMe/contracts/FundMe.sol\":2766:2773  funders */\n      0x02\n        /* \"FundMe/contracts/FundMe.sol\":2766:2780  funders.length */\n      dup1\n      sload\n      swap1\n      pop\n        /* \"FundMe/contracts/FundMe.sol\":2723:2751  addressToIndexInFundersArray */\n      0x03\n        /* \"FundMe/contracts/FundMe.sol\":2723:2763  addressToIndexInFundersArray[msg.sender] */\n      0x00\n        /* \"FundMe/contracts/FundMe.sol\":2752:2762  msg.sender */\n      caller\n        /* \"FundMe/contracts/FundMe.sol\":2723:2763  addressToIndexInFundersArray[msg.sender] */\n      0xffffffffffffffffffffffffffffffffffffffff\n      and\n      0xffffffffffffffffffffffffffffffffffffffff\n      and\n      dup2\n      mstore\n      0x20\n      add\n      swap1\n      dup2\n      mstore\n      0x20\n      add\n      0x00\n      keccak256\n        /* \"FundMe/contracts/FundMe.sol\":2723:2780  addressToIndexInFundersArray[msg.sender] = funders.length */\n      dup2\n      swap1\n      sstore\n      pop\n        /* \"FundMe/contracts/FundMe.sol\":2794:2801  funders */\n      0x02\n        /* \"FundMe/contracts/FundMe.sol\":2807:2817  msg.sender */\n      caller\n        /* \"FundMe/contracts/FundMe.sol\":2794:2818  funders.push(msg.sender) */\n      swap1\n      dup1\n      0x01\n      dup2\n      sload\n      add\n      dup1\n      dup3\n      sstore\n      dup1\n      swap2\n      pop\n      pop\n      0x01\n      swap1\n      sub\n      swap1\n      0x00\n      mstore\n      keccak256(0x00, 0x20)\n      add\n      0x00\n      swap1\n      swap2\n      swap1\n      swap2\n      swap1\n      swap2\n      0x0100\n      exp\n      dup2\n      sload\n      dup2\n      0xffffffffffffffffffffffffffffffffffffffff\n      mul\n      not\n      and\n      swap1\n      dup4\n      0xffffffffffffffffffffffffffffffffffffffff\n      and\n      mul\n      or\n      swap1\n      sstore\n      pop\n        /* \"FundMe/contracts/FundMe.sol\":2868:2872  true */\n      0x01\n        /* \"FundMe/contracts/FundMe.sol\":2832:2853  addressIsActiveFunder */\n      0x04\n        /* \"FundMe/contracts/FundMe.sol\":2832:2865  addressIsActiveFunder[msg.sender] */\n      0x00\n        /* \"FundMe/contracts/FundMe.sol\":2854:2864  msg.sender */\n      caller\n        /* \"FundMe/contracts/FundMe.sol\":2832:2865  addressIsActiveFunder[msg.sender] */\n      0xffffffffffffffffffffffffffffffffffffffff\n      and\n      0xffffffffffffffffffffffffffffffffffffffff\n      and\n      dup2\n      mstore\n      0x20\n      add\n      swap1\n      dup2\n      mstore\n      0x20\n      add\n      0x00\n      keccak256\n      0x00\n        /* \"FundMe/contracts/FundMe.sol\":2832:2872  addressIsActiveFunder[msg.sender] = true */\n      0x0100\n      exp\n      dup2\n      sload\n      dup2\n      0xff\n      mul\n      not\n      and\n      swap1\n      dup4\n      iszero\n      iszero\n      mul\n      or\n      swap1\n      sstore\n      pop\n        /* \"FundMe/contracts/FundMe.sol\":2669:2883  if (!addressIsActiveFunder[msg.sender]) {... */\n    tag_95:\n        /* \"FundMe/contracts/FundMe.sol\":2932:2941  msg.value */\n      callvalue\n        /* \"FundMe/contracts/FundMe.sol\":2892:2916  addressToAvailableAmount */\n      0x05\n        /* \"FundMe/contracts/FundMe.sol\":2892:2928  addressToAvailableAmount[msg.sender] */\n      0x00\n        /* \"FundMe/contracts/FundMe.sol\":2917:2927  msg.sender */\n      caller\n        /* \"FundMe/contracts/FundMe.sol\":2892:2928  addressToAvailableAmount[msg.sender] */\n      0xffffffffffffffffffffffffffffffffffffffff\n      and\n      0xffffffffffffffffffffffffffffffffffffffff\n      and\n      dup2\n      mstore\n      0x20\n      add\n      swap1\n      dup2\n      mstore\n      0x20\n      add\n      0x00\n      keccak256\n      0x00\n        /* \"FundMe/contracts/FundMe.sol\":2892:2941  addressToAvailableAmount[msg.sender] += msg.value */\n      dup3\n      dup3\n      sload\n      tag_97\n      swap2\n      swap1\n      tag_98\n      jump\t// in\n    tag_97:\n      swap3\n      pop\n      pop\n      dup2\n      swap1\n      sstore\n      pop\n        /* \"FundMe/contracts/FundMe.sol\":2480:2948  {... */\n      pop\n      pop\n        /* \"FundMe/contracts/FundMe.sol\":2449:2948  function fund() public payable {... */\n      jump\t// out\n        /* \"FundMe/contracts/FundMe.sol\":592:652  mapping (address => uint256) public addressToAvailableAmount */\n    tag_31:\n      mstore(0x20, 0x05)\n      dup1\n      0x00\n      mstore\n      keccak256(0x00, 0x40)\n      0x00\n      swap2\n      pop\n      swap1\n      pop\n      sload\n      dup2\n      jump\t// out\n        /* \"FundMe/contracts/FundMe.sol\":400:425  uint256 public minimumUsd */\n    tag_36:\n      sload(0x01)\n      dup2\n      jump\t// out\n        /* \"FundMe/contracts/FundMe.sol\":2954:3603  function changeFunder(address _newAddress) public noReentrant {... */\n    tag_41:\n        /* \"FundMe/contracts/FundMe.sol\":890:895  false */\n      0x00\n        /* \"FundMe/contracts/FundMe.sol\":880:895  locked == false */\n      iszero\n      iszero\n        /* \"FundMe/contracts/FundMe.sol\":880:886  locked */\n      0x00\n      dup1\n      sload\n      swap1\n      0x0100\n      exp\n      swap1\n      div\n      0xff\n      and\n        /* \"FundMe/contracts/FundMe.sol\":880:895  locked == false */\n      iszero\n      iszero\n      eq\n        /* \"FundMe/contracts/FundMe.sol\":871:941  require (locked == false, \"No re-entrancy allowed, please try again.\") */\n      tag_100\n      jumpi\n      mload(0x40)\n      0x08c379a000000000000000000000000000000000000000000000000000000000\n      dup2\n      mstore\n      0x04\n      add\n      tag_101\n      swap1\n      tag_102\n      jump\t// in\n    tag_101:\n      mload(0x40)\n      dup1\n      swap2\n      sub\n      swap1\n      revert\n    tag_100:\n        /* \"FundMe/contracts/FundMe.sol\":1067:1071  true */\n      0x01\n        /* \"FundMe/contracts/FundMe.sol\":1058:1064  locked */\n      0x00\n      dup1\n        /* \"FundMe/contracts/FundMe.sol\":1058:1071  locked = true */\n      0x0100\n      exp\n      dup2\n      sload\n      dup2\n      0xff\n      mul\n      not\n      and\n      swap1\n      dup4\n      iszero\n      iszero\n      mul\n      or\n      swap1\n      sstore\n      pop\n        /* \"FundMe/contracts/FundMe.sol\":3057:3058  0 */\n      0x00\n        /* \"FundMe/contracts/FundMe.sol\":3034:3059  _newAddress != address(0) */\n      0xffffffffffffffffffffffffffffffffffffffff\n      and\n        /* \"FundMe/contracts/FundMe.sol\":3034:3045  _newAddress */\n      dup2\n        /* \"FundMe/contracts/FundMe.sol\":3034:3059  _newAddress != address(0) */\n      0xffffffffffffffffffffffffffffffffffffffff\n      and\n      sub\n        /* \"FundMe/contracts/FundMe.sol\":3026:3112  require(_newAddress != address(0), \"Address cannot be changed to a 0x0 null address.\") */\n      tag_104\n      jumpi\n      mload(0x40)\n      0x08c379a000000000000000000000000000000000000000000000000000000000\n      dup2\n      mstore\n      0x04\n      add\n      tag_105\n      swap1\n      tag_106\n      jump\t// in\n    tag_105:\n      mload(0x40)\n      dup1\n      swap2\n      sub\n      swap1\n      revert\n    tag_104:\n        /* \"FundMe/contracts/FundMe.sol\":3130:3151  addressIsActiveFunder */\n      0x04\n        /* \"FundMe/contracts/FundMe.sol\":3130:3163  addressIsActiveFunder[msg.sender] */\n      0x00\n        /* \"FundMe/contracts/FundMe.sol\":3152:3162  msg.sender */\n      caller\n        /* \"FundMe/contracts/FundMe.sol\":3130:3163  addressIsActiveFunder[msg.sender] */\n      0xffffffffffffffffffffffffffffffffffffffff\n      and\n      0xffffffffffffffffffffffffffffffffffffffff\n      and\n      dup2\n      mstore\n      0x20\n      add\n      swap1\n      dup2\n      mstore\n      0x20\n      add\n      0x00\n      keccak256\n      0x00\n      swap1\n      sload\n      swap1\n      0x0100\n      exp\n      swap1\n      div\n      0xff\n      and\n        /* \"FundMe/contracts/FundMe.sol\":3122:3199  require(addressIsActiveFunder[msg.sender], \"Wallet address is not a funder.\") */\n      tag_107\n      jumpi\n      mload(0x40)\n      0x08c379a000000000000000000000000000000000000000000000000000000000\n      dup2\n      mstore\n      0x04\n      add\n      tag_108\n      swap1\n      tag_109\n      jump\t// in\n    tag_108:\n      mload(0x40)\n      dup1\n      swap2\n      sub\n      swap1\n      revert\n    tag_107:\n        /* \"FundMe/contracts/FundMe.sol\":3209:3230  uint256 balanceFunder */\n      0x00\n        /* \"FundMe/contracts/FundMe.sol\":3233:3257  addressToAvailableAmount */\n      0x05\n        /* \"FundMe/contracts/FundMe.sol\":3233:3269  addressToAvailableAmount[msg.sender] */\n      0x00\n        /* \"FundMe/contracts/FundMe.sol\":3258:3268  msg.sender */\n      caller\n        /* \"FundMe/contracts/FundMe.sol\":3233:3269  addressToAvailableAmount[msg.sender] */\n      0xffffffffffffffffffffffffffffffffffffffff\n      and\n      0xffffffffffffffffffffffffffffffffffffffff\n      and\n      dup2\n      mstore\n      0x20\n      add\n      swap1\n      dup2\n      mstore\n      0x20\n      add\n      0x00\n      keccak256\n      sload\n        /* \"FundMe/contracts/FundMe.sol\":3209:3269  uint256 balanceFunder = addressToAvailableAmount[msg.sender] */\n      swap1\n      pop\n        /* \"FundMe/contracts/FundMe.sol\":3279:3305  cleanAfterUserWithdrawal() */\n      tag_110\n        /* \"FundMe/contracts/FundMe.sol\":3279:3303  cleanAfterUserWithdrawal */\n      tag_111\n        /* \"FundMe/contracts/FundMe.sol\":3279:3305  cleanAfterUserWithdrawal() */\n      jump\t// in\n    tag_110:\n        /* \"FundMe/contracts/FundMe.sol\":3356:3369  balanceFunder */\n      dup1\n        /* \"FundMe/contracts/FundMe.sol\":3315:3339  addressToAvailableAmount */\n      0x05\n        /* \"FundMe/contracts/FundMe.sol\":3315:3352  addressToAvailableAmount[_newAddress] */\n      0x00\n        /* \"FundMe/contracts/FundMe.sol\":3340:3351  _newAddress */\n      dup5\n        /* \"FundMe/contracts/FundMe.sol\":3315:3352  addressToAvailableAmount[_newAddress] */\n      0xffffffffffffffffffffffffffffffffffffffff\n      and\n      0xffffffffffffffffffffffffffffffffffffffff\n      and\n      dup2\n      mstore\n      0x20\n      add\n      swap1\n      dup2\n      mstore\n      0x20\n      add\n      0x00\n      keccak256\n      0x00\n        /* \"FundMe/contracts/FundMe.sol\":3315:3369  addressToAvailableAmount[_newAddress] += balanceFunder */\n      dup3\n      dup3\n      sload\n      tag_112\n      swap2\n      swap1\n      tag_98\n      jump\t// in\n    tag_112:\n      swap3\n      pop\n      pop\n      dup2\n      swap1\n      sstore\n      pop\n        /* \"FundMe/contracts/FundMe.sol\":3384:3405  addressIsActiveFunder */\n      0x04\n        /* \"FundMe/contracts/FundMe.sol\":3384:3418  addressIsActiveFunder[_newAddress] */\n      0x00\n        /* \"FundMe/contracts/FundMe.sol\":3406:3417  _newAddress */\n      dup4\n        /* \"FundMe/contracts/FundMe.sol\":3384:3418  addressIsActiveFunder[_newAddress] */\n      0xffffffffffffffffffffffffffffffffffffffff\n      and\n      0xffffffffffffffffffffffffffffffffffffffff\n      and\n      dup2\n      mstore\n      0x20\n      add\n      swap1\n      dup2\n      mstore\n      0x20\n      add\n      0x00\n      keccak256\n      0x00\n      swap1\n      sload\n      swap1\n      0x0100\n      exp\n      swap1\n      div\n      0xff\n      and\n        /* \"FundMe/contracts/FundMe.sol\":3379:3597  if (!addressIsActiveFunder[_newAddress]) {... */\n      tag_113\n      jumpi\n        /* \"FundMe/contracts/FundMe.sol\":3478:3485  funders */\n      0x02\n        /* \"FundMe/contracts/FundMe.sol\":3478:3492  funders.length */\n      dup1\n      sload\n      swap1\n      pop\n        /* \"FundMe/contracts/FundMe.sol\":3434:3462  addressToIndexInFundersArray */\n      0x03\n        /* \"FundMe/contracts/FundMe.sol\":3434:3475  addressToIndexInFundersArray[_newAddress] */\n      0x00\n        /* \"FundMe/contracts/FundMe.sol\":3463:3474  _newAddress */\n      dup5\n        /* \"FundMe/contracts/FundMe.sol\":3434:3475  addressToIndexInFundersArray[_newAddress] */\n      0xffffffffffffffffffffffffffffffffffffffff\n      and\n      0xffffffffffffffffffffffffffffffffffffffff\n      and\n      dup2\n      mstore\n      0x20\n      add\n      swap1\n      dup2\n      mstore\n      0x20\n      add\n      0x00\n      keccak256\n        /* \"FundMe/contracts/FundMe.sol\":3434:3492  addressToIndexInFundersArray[_newAddress] = funders.length */\n      dup2\n      swap1\n      sstore\n      pop\n        /* \"FundMe/contracts/FundMe.sol\":3506:3513  funders */\n      0x02\n        /* \"FundMe/contracts/FundMe.sol\":3519:3530  _newAddress */\n      dup3\n        /* \"FundMe/contracts/FundMe.sol\":3506:3531  funders.push(_newAddress) */\n      swap1\n      dup1\n      0x01\n      dup2\n      sload\n      add\n      dup1\n      dup3\n      sstore\n      dup1\n      swap2\n      pop\n      pop\n      0x01\n      swap1\n      sub\n      swap1\n      0x00\n      mstore\n      keccak256(0x00, 0x20)\n      add\n      0x00\n      swap1\n      swap2\n      swap1\n      swap2\n      swap1\n      swap2\n      0x0100\n      exp\n      dup2\n      sload\n      dup2\n      0xffffffffffffffffffffffffffffffffffffffff\n      mul\n      not\n      and\n      swap1\n      dup4\n      0xffffffffffffffffffffffffffffffffffffffff\n      and\n      mul\n      or\n      swap1\n      sstore\n      pop\n        /* \"FundMe/contracts/FundMe.sol\":3582:3586  true */\n      0x01\n        /* \"FundMe/contracts/FundMe.sol\":3545:3566  addressIsActiveFunder */\n      0x04\n        /* \"FundMe/contracts/FundMe.sol\":3545:3579  addressIsActiveFunder[_newAddress] */\n      0x00\n        /* \"FundMe/contracts/FundMe.sol\":3567:3578  _newAddress */\n      dup5\n        /* \"FundMe/contracts/FundMe.sol\":3545:3579  addressIsActiveFunder[_newAddress] */\n      0xffffffffffffffffffffffffffffffffffffffff\n      and\n      0xffffffffffffffffffffffffffffffffffffffff\n      and\n      dup2\n      mstore\n      0x20\n      add\n      swap1\n      dup2\n      mstore\n      0x20\n      add\n      0x00\n      keccak256\n      0x00\n        /* \"FundMe/contracts/FundMe.sol\":3545:3586  addressIsActiveFunder[_newAddress] = true */\n      0x0100\n      exp\n      dup2\n      sload\n      dup2\n      0xff\n      mul\n      not\n      and\n      swap1\n      dup4\n      iszero\n      iszero\n      mul\n      or\n      swap1\n      sstore\n      pop\n        /* \"FundMe/contracts/FundMe.sol\":3379:3597  if (!addressIsActiveFunder[_newAddress]) {... */\n    tag_113:\n        /* \"FundMe/contracts/FundMe.sol\":3016:3603  {... */\n      pop\n        /* \"FundMe/contracts/FundMe.sol\":1252:1257  false */\n      0x00\n        /* \"FundMe/contracts/FundMe.sol\":1243:1249  locked */\n      dup1\n      0x00\n        /* \"FundMe/contracts/FundMe.sol\":1243:1257  locked = false */\n      0x0100\n      exp\n      dup2\n      sload\n      dup2\n      0xff\n      mul\n      not\n      and\n      swap1\n      dup4\n      iszero\n      iszero\n      mul\n      or\n      swap1\n      sstore\n      pop\n        /* \"FundMe/contracts/FundMe.sol\":2954:3603  function changeFunder(address _newAddress) public noReentrant {... */\n      pop\n      jump\t// out\n        /* \"FundMe/contracts/FundMe.sol\":6818:6965  function getConversionRate(uint256 _price, uint256 _amountInWEI) public pure returns (uint256) {... */\n    tag_46:\n        /* \"FundMe/contracts/FundMe.sol\":6904:6911  uint256 */\n      0x00\n        /* \"FundMe/contracts/FundMe.sol\":6954:6958  1e18 */\n      0x0de0b6b3a7640000\n        /* \"FundMe/contracts/FundMe.sol\":6940:6952  _amountInWEI */\n      dup3\n        /* \"FundMe/contracts/FundMe.sol\":6931:6937  _price */\n      dup5\n        /* \"FundMe/contracts/FundMe.sol\":6931:6952  _price * _amountInWEI */\n      tag_116\n      swap2\n      swap1\n      tag_117\n      jump\t// in\n    tag_116:\n        /* \"FundMe/contracts/FundMe.sol\":6930:6958  (_price * _amountInWEI)/1e18 */\n      tag_118\n      swap2\n      swap1\n      tag_119\n      jump\t// in\n    tag_118:\n        /* \"FundMe/contracts/FundMe.sol\":6923:6958  return (_price * _amountInWEI)/1e18 */\n      swap1\n      pop\n        /* \"FundMe/contracts/FundMe.sol\":6818:6965  function getConversionRate(uint256 _price, uint256 _amountInWEI) public pure returns (uint256) {... */\n      swap3\n      swap2\n      pop\n      pop\n      jump\t// out\n        /* \"FundMe/contracts/FundMe.sol\":4347:4720  function totalWithdraw() public noReentrant {... */\n    tag_50:\n        /* \"FundMe/contracts/FundMe.sol\":890:895  false */\n      0x00\n        /* \"FundMe/contracts/FundMe.sol\":880:895  locked == false */\n      iszero\n      iszero\n        /* \"FundMe/contracts/FundMe.sol\":880:886  locked */\n      0x00\n      dup1\n      sload\n      swap1\n      0x0100\n      exp\n      swap1\n      div\n      0xff\n      and\n        /* \"FundMe/contracts/FundMe.sol\":880:895  locked == false */\n      iszero\n      iszero\n      eq\n        /* \"FundMe/contracts/FundMe.sol\":871:941  require (locked == false, \"No re-entrancy allowed, please try again.\") */\n      tag_121\n      jumpi\n      mload(0x40)\n      0x08c379a000000000000000000000000000000000000000000000000000000000\n      dup2\n      mstore\n      0x04\n      add\n      tag_122\n      swap1\n      tag_102\n      jump\t// in\n    tag_122:\n      mload(0x40)\n      dup1\n      swap2\n      sub\n      swap1\n      revert\n    tag_121:\n        /* \"FundMe/contracts/FundMe.sol\":1067:1071  true */\n      0x01\n        /* \"FundMe/contracts/FundMe.sol\":1058:1064  locked */\n      0x00\n      dup1\n        /* \"FundMe/contracts/FundMe.sol\":1058:1071  locked = true */\n      0x0100\n      exp\n      dup2\n      sload\n      dup2\n      0xff\n      mul\n      not\n      and\n      swap1\n      dup4\n      iszero\n      iszero\n      mul\n      or\n      swap1\n      sstore\n      pop\n        /* \"FundMe/contracts/FundMe.sol\":4401:4416  uint256 balance */\n      0x00\n        /* \"FundMe/contracts/FundMe.sol\":4419:4443  addressToAvailableAmount */\n      0x05\n        /* \"FundMe/contracts/FundMe.sol\":4419:4455  addressToAvailableAmount[msg.sender] */\n      0x00\n        /* \"FundMe/contracts/FundMe.sol\":4444:4454  msg.sender */\n      caller\n        /* \"FundMe/contracts/FundMe.sol\":4419:4455  addressToAvailableAmount[msg.sender] */\n      0xffffffffffffffffffffffffffffffffffffffff\n      and\n      0xffffffffffffffffffffffffffffffffffffffff\n      and\n      dup2\n      mstore\n      0x20\n      add\n      swap1\n      dup2\n      mstore\n      0x20\n      add\n      0x00\n      keccak256\n      sload\n        /* \"FundMe/contracts/FundMe.sol\":4401:4455  uint256 balance = addressToAvailableAmount[msg.sender] */\n      swap1\n      pop\n        /* \"FundMe/contracts/FundMe.sol\":4483:4484  0 */\n      0x00\n        /* \"FundMe/contracts/FundMe.sol\":4473:4480  balance */\n      dup2\n        /* \"FundMe/contracts/FundMe.sol\":4473:4484  balance > 0 */\n      gt\n        /* \"FundMe/contracts/FundMe.sol\":4465:4509  require(balance > 0, \"Insufficient balance\") */\n      tag_124\n      jumpi\n      mload(0x40)\n      0x08c379a000000000000000000000000000000000000000000000000000000000\n      dup2\n      mstore\n      0x04\n      add\n      tag_125\n      swap1\n      tag_126\n      jump\t// in\n    tag_125:\n      mload(0x40)\n      dup1\n      swap2\n      sub\n      swap1\n      revert\n    tag_124:\n        /* \"FundMe/contracts/FundMe.sol\":4558:4559  0 */\n      0x00\n        /* \"FundMe/contracts/FundMe.sol\":4519:4543  addressToAvailableAmount */\n      0x05\n        /* \"FundMe/contracts/FundMe.sol\":4519:4555  addressToAvailableAmount[msg.sender] */\n      0x00\n        /* \"FundMe/contracts/FundMe.sol\":4544:4554  msg.sender */\n      caller\n        /* \"FundMe/contracts/FundMe.sol\":4519:4555  addressToAvailableAmount[msg.sender] */\n      0xffffffffffffffffffffffffffffffffffffffff\n      and\n      0xffffffffffffffffffffffffffffffffffffffff\n      and\n      dup2\n      mstore\n      0x20\n      add\n      swap1\n      dup2\n      mstore\n      0x20\n      add\n      0x00\n      keccak256\n        /* \"FundMe/contracts/FundMe.sol\":4519:4559  addressToAvailableAmount[msg.sender] = 0 */\n      dup2\n      swap1\n      sstore\n      pop\n        /* \"FundMe/contracts/FundMe.sol\":4570:4582  bool success */\n      0x00\n        /* \"FundMe/contracts/FundMe.sol\":4588:4598  msg.sender */\n      caller\n        /* \"FundMe/contracts/FundMe.sol\":4588:4603  msg.sender.call */\n      0xffffffffffffffffffffffffffffffffffffffff\n      and\n        /* \"FundMe/contracts/FundMe.sol\":4611:4618  balance */\n      dup3\n        /* \"FundMe/contracts/FundMe.sol\":4588:4623  msg.sender.call{value: balance}(\"\") */\n      mload(0x40)\n      tag_127\n      swap1\n      tag_128\n      jump\t// in\n    tag_127:\n      0x00\n      mload(0x40)\n      dup1\n      dup4\n      sub\n      dup2\n      dup6\n      dup8\n      gas\n      call\n      swap3\n      pop\n      pop\n      pop\n      returndatasize\n      dup1\n      0x00\n      dup2\n      eq\n      tag_131\n      jumpi\n      mload(0x40)\n      swap2\n      pop\n      and(add(returndatasize, 0x3f), not(0x1f))\n      dup3\n      add\n      0x40\n      mstore\n      returndatasize\n      dup3\n      mstore\n      returndatasize\n      0x00\n      0x20\n      dup5\n      add\n      returndatacopy\n      jump(tag_130)\n    tag_131:\n      0x60\n      swap2\n      pop\n    tag_130:\n      pop\n        /* \"FundMe/contracts/FundMe.sol\":4569:4623  (bool success, ) = msg.sender.call{value: balance}(\"\") */\n      pop\n      swap1\n      pop\n        /* \"FundMe/contracts/FundMe.sol\":4652:4656  true */\n      0x01\n        /* \"FundMe/contracts/FundMe.sol\":4641:4656  success == true */\n      iszero\n      iszero\n        /* \"FundMe/contracts/FundMe.sol\":4641:4648  success */\n      dup2\n        /* \"FundMe/contracts/FundMe.sol\":4641:4656  success == true */\n      iszero\n      iszero\n      eq\n        /* \"FundMe/contracts/FundMe.sol\":4633:4677  require(success == true, \"Transfer failed.\") */\n      tag_132\n      jumpi\n      mload(0x40)\n      0x08c379a000000000000000000000000000000000000000000000000000000000\n      dup2\n      mstore\n      0x04\n      add\n      tag_133\n      swap1\n      tag_134\n      jump\t// in\n    tag_133:\n      mload(0x40)\n      dup1\n      swap2\n      sub\n      swap1\n      revert\n    tag_132:\n        /* \"FundMe/contracts/FundMe.sol\":4687:4713  cleanAfterUserWithdrawal() */\n      tag_135\n        /* \"FundMe/contracts/FundMe.sol\":4687:4711  cleanAfterUserWithdrawal */\n      tag_111\n        /* \"FundMe/contracts/FundMe.sol\":4687:4713  cleanAfterUserWithdrawal() */\n      jump\t// in\n    tag_135:\n        /* \"FundMe/contracts/FundMe.sol\":4391:4720  {... */\n      pop\n      pop\n        /* \"FundMe/contracts/FundMe.sol\":1252:1257  false */\n      0x00\n        /* \"FundMe/contracts/FundMe.sol\":1243:1249  locked */\n      dup1\n      0x00\n        /* \"FundMe/contracts/FundMe.sol\":1243:1257  locked = false */\n      0x0100\n      exp\n      dup2\n      sload\n      dup2\n      0xff\n      mul\n      not\n      and\n      swap1\n      dup4\n      iszero\n      iszero\n      mul\n      or\n      swap1\n      sstore\n      pop\n        /* \"FundMe/contracts/FundMe.sol\":4347:4720  function totalWithdraw() public noReentrant {... */\n      jump\t// out\n        /* \"FundMe/contracts/FundMe.sol\":4726:4949  function ownerWithdrawFunds() onlyOwner public {... */\n    tag_53:\n        /* \"FundMe/contracts/FundMe.sol\":713:720  i_owner */\n      immutable(\"0xe921da22f871c25c63f06c1365385cbb26397f64f79055cdbab32187a9377d16\")\n        /* \"FundMe/contracts/FundMe.sol\":699:720  msg.sender == i_owner */\n      0xffffffffffffffffffffffffffffffffffffffff\n      and\n        /* \"FundMe/contracts/FundMe.sol\":699:709  msg.sender */\n      caller\n        /* \"FundMe/contracts/FundMe.sol\":699:720  msg.sender == i_owner */\n      0xffffffffffffffffffffffffffffffffffffffff\n      and\n      eq\n        /* \"FundMe/contracts/FundMe.sol\":690:762  require (msg.sender == i_owner, \"Only owner can execute this function.\") */\n      tag_137\n      jumpi\n      mload(0x40)\n      0x08c379a000000000000000000000000000000000000000000000000000000000\n      dup2\n      mstore\n      0x04\n      add\n      tag_138\n      swap1\n      tag_139\n      jump\t// in\n    tag_138:\n      mload(0x40)\n      dup1\n      swap2\n      sub\n      swap1\n      revert\n    tag_137:\n        /* \"FundMe/contracts/FundMe.sol\":4784:4796  bool success */\n      0x00\n        /* \"FundMe/contracts/FundMe.sol\":4802:4812  msg.sender */\n      caller\n        /* \"FundMe/contracts/FundMe.sol\":4802:4817  msg.sender.call */\n      0xffffffffffffffffffffffffffffffffffffffff\n      and\n        /* \"FundMe/contracts/FundMe.sol\":4825:4846  address(this).balance */\n      selfbalance\n        /* \"FundMe/contracts/FundMe.sol\":4802:4851  msg.sender.call{value: address(this).balance}(\"\") */\n      mload(0x40)\n      tag_141\n      swap1\n      tag_128\n      jump\t// in\n    tag_141:\n      0x00\n      mload(0x40)\n      dup1\n      dup4\n      sub\n      dup2\n      dup6\n      dup8\n      gas\n      call\n      swap3\n      pop\n      pop\n      pop\n      returndatasize\n      dup1\n      0x00\n      dup2\n      eq\n      tag_144\n      jumpi\n      mload(0x40)\n      swap2\n      pop\n      and(add(returndatasize, 0x3f), not(0x1f))\n      dup3\n      add\n      0x40\n      mstore\n      returndatasize\n      dup3\n      mstore\n      returndatasize\n      0x00\n      0x20\n      dup5\n      add\n      returndatacopy\n      jump(tag_143)\n    tag_144:\n      0x60\n      swap2\n      pop\n    tag_143:\n      pop\n        /* \"FundMe/contracts/FundMe.sol\":4783:4851  (bool success, ) = msg.sender.call{value: address(this).balance}(\"\") */\n      pop\n      swap1\n      pop\n        /* \"FundMe/contracts/FundMe.sol\":4880:4884  true */\n      0x01\n        /* \"FundMe/contracts/FundMe.sol\":4869:4884  success == true */\n      iszero\n      iszero\n        /* \"FundMe/contracts/FundMe.sol\":4869:4876  success */\n      dup2\n        /* \"FundMe/contracts/FundMe.sol\":4869:4884  success == true */\n      iszero\n      iszero\n      eq\n        /* \"FundMe/contracts/FundMe.sol\":4861:4905  require(success == true, \"Transfer failed.\") */\n      tag_145\n      jumpi\n      mload(0x40)\n      0x08c379a000000000000000000000000000000000000000000000000000000000\n      dup2\n      mstore\n      0x04\n      add\n      tag_146\n      swap1\n      tag_134\n      jump\t// in\n    tag_146:\n      mload(0x40)\n      dup1\n      swap2\n      sub\n      swap1\n      revert\n    tag_145:\n        /* \"FundMe/contracts/FundMe.sol\":4915:4942  cleanAfterOwnerWithdrawal() */\n      tag_147\n        /* \"FundMe/contracts/FundMe.sol\":4915:4940  cleanAfterOwnerWithdrawal */\n      tag_148\n        /* \"FundMe/contracts/FundMe.sol\":4915:4942  cleanAfterOwnerWithdrawal() */\n      jump\t// in\n    tag_147:\n        /* \"FundMe/contracts/FundMe.sol\":4773:4949  {... */\n      pop\n        /* \"FundMe/contracts/FundMe.sol\":4726:4949  function ownerWithdrawFunds() onlyOwner public {... */\n      jump\t// out\n        /* \"FundMe/contracts/FundMe.sol\":3706:4246  function partialWithdraw(uint256 _amount) public noReentrant {... */\n    tag_58:\n        /* \"FundMe/contracts/FundMe.sol\":890:895  false */\n      0x00\n        /* \"FundMe/contracts/FundMe.sol\":880:895  locked == false */\n      iszero\n      iszero\n        /* \"FundMe/contracts/FundMe.sol\":880:886  locked */\n      0x00\n      dup1\n      sload\n      swap1\n      0x0100\n      exp\n      swap1\n      div\n      0xff\n      and\n        /* \"FundMe/contracts/FundMe.sol\":880:895  locked == false */\n      iszero\n      iszero\n      eq\n        /* \"FundMe/contracts/FundMe.sol\":871:941  require (locked == false, \"No re-entrancy allowed, please try again.\") */\n      tag_150\n      jumpi\n      mload(0x40)\n      0x08c379a000000000000000000000000000000000000000000000000000000000\n      dup2\n      mstore\n      0x04\n      add\n      tag_151\n      swap1\n      tag_102\n      jump\t// in\n    tag_151:\n      mload(0x40)\n      dup1\n      swap2\n      sub\n      swap1\n      revert\n    tag_150:\n        /* \"FundMe/contracts/FundMe.sol\":1067:1071  true */\n      0x01\n        /* \"FundMe/contracts/FundMe.sol\":1058:1064  locked */\n      0x00\n      dup1\n        /* \"FundMe/contracts/FundMe.sol\":1058:1071  locked = true */\n      0x0100\n      exp\n      dup2\n      sload\n      dup2\n      0xff\n      mul\n      not\n      and\n      swap1\n      dup4\n      iszero\n      iszero\n      mul\n      or\n      swap1\n      sstore\n      pop\n        /* \"FundMe/contracts/FundMe.sol\":3822:3826  true */\n      0x01\n        /* \"FundMe/contracts/FundMe.sol\":3785:3826  addressIsActiveFunder[msg.sender] == true */\n      iszero\n      iszero\n        /* \"FundMe/contracts/FundMe.sol\":3785:3806  addressIsActiveFunder */\n      0x04\n        /* \"FundMe/contracts/FundMe.sol\":3785:3818  addressIsActiveFunder[msg.sender] */\n      0x00\n        /* \"FundMe/contracts/FundMe.sol\":3807:3817  msg.sender */\n      caller\n        /* \"FundMe/contracts/FundMe.sol\":3785:3818  addressIsActiveFunder[msg.sender] */\n      0xffffffffffffffffffffffffffffffffffffffff\n      and\n      0xffffffffffffffffffffffffffffffffffffffff\n      and\n      dup2\n      mstore\n      0x20\n      add\n      swap1\n      dup2\n      mstore\n      0x20\n      add\n      0x00\n      keccak256\n      0x00\n      swap1\n      sload\n      swap1\n      0x0100\n      exp\n      swap1\n      div\n      0xff\n      and\n        /* \"FundMe/contracts/FundMe.sol\":3785:3826  addressIsActiveFunder[msg.sender] == true */\n      iszero\n      iszero\n      eq\n        /* \"FundMe/contracts/FundMe.sol\":3777:3862  require(addressIsActiveFunder[msg.sender] == true, \"Wallet address is not a funder.\") */\n      tag_153\n      jumpi\n      mload(0x40)\n      0x08c379a000000000000000000000000000000000000000000000000000000000\n      dup2\n      mstore\n      0x04\n      add\n      tag_154\n      swap1\n      tag_109\n      jump\t// in\n    tag_154:\n      mload(0x40)\n      dup1\n      swap2\n      sub\n      swap1\n      revert\n    tag_153:\n        /* \"FundMe/contracts/FundMe.sol\":3912:3919  _amount */\n      dup1\n        /* \"FundMe/contracts/FundMe.sol\":3872:3896  addressToAvailableAmount */\n      0x05\n        /* \"FundMe/contracts/FundMe.sol\":3872:3908  addressToAvailableAmount[msg.sender] */\n      0x00\n        /* \"FundMe/contracts/FundMe.sol\":3897:3907  msg.sender */\n      caller\n        /* \"FundMe/contracts/FundMe.sol\":3872:3908  addressToAvailableAmount[msg.sender] */\n      0xffffffffffffffffffffffffffffffffffffffff\n      and\n      0xffffffffffffffffffffffffffffffffffffffff\n      and\n      dup2\n      mstore\n      0x20\n      add\n      swap1\n      dup2\n      mstore\n      0x20\n      add\n      0x00\n      keccak256\n      0x00\n        /* \"FundMe/contracts/FundMe.sol\":3872:3919  addressToAvailableAmount[msg.sender] -= _amount */\n      dup3\n      dup3\n      sload\n      tag_155\n      swap2\n      swap1\n      tag_156\n      jump\t// in\n    tag_155:\n      swap3\n      pop\n      pop\n      dup2\n      swap1\n      sstore\n      pop\n        /* \"FundMe/contracts/FundMe.sol\":3930:3942  bool success */\n      0x00\n        /* \"FundMe/contracts/FundMe.sol\":3948:3958  msg.sender */\n      caller\n        /* \"FundMe/contracts/FundMe.sol\":3948:3963  msg.sender.call */\n      0xffffffffffffffffffffffffffffffffffffffff\n      and\n        /* \"FundMe/contracts/FundMe.sol\":3971:3978  _amount */\n      dup3\n        /* \"FundMe/contracts/FundMe.sol\":3948:3983  msg.sender.call{value: _amount}(\"\") */\n      mload(0x40)\n      tag_157\n      swap1\n      tag_128\n      jump\t// in\n    tag_157:\n      0x00\n      mload(0x40)\n      dup1\n      dup4\n      sub\n      dup2\n      dup6\n      dup8\n      gas\n      call\n      swap3\n      pop\n      pop\n      pop\n      returndatasize\n      dup1\n      0x00\n      dup2\n      eq\n      tag_160\n      jumpi\n      mload(0x40)\n      swap2\n      pop\n      and(add(returndatasize, 0x3f), not(0x1f))\n      dup3\n      add\n      0x40\n      mstore\n      returndatasize\n      dup3\n      mstore\n      returndatasize\n      0x00\n      0x20\n      dup5\n      add\n      returndatacopy\n      jump(tag_159)\n    tag_160:\n      0x60\n      swap2\n      pop\n    tag_159:\n      pop\n        /* \"FundMe/contracts/FundMe.sol\":3929:3983  (bool success, ) = msg.sender.call{value: _amount}(\"\") */\n      pop\n      swap1\n      pop\n        /* \"FundMe/contracts/FundMe.sol\":4012:4016  true */\n      0x01\n        /* \"FundMe/contracts/FundMe.sol\":4001:4016  success == true */\n      iszero\n      iszero\n        /* \"FundMe/contracts/FundMe.sol\":4001:4008  success */\n      dup2\n        /* \"FundMe/contracts/FundMe.sol\":4001:4016  success == true */\n      iszero\n      iszero\n      eq\n        /* \"FundMe/contracts/FundMe.sol\":3993:4037  require(success == true, \"Transfer failed.\") */\n      tag_161\n      jumpi\n      mload(0x40)\n      0x08c379a000000000000000000000000000000000000000000000000000000000\n      dup2\n      mstore\n      0x04\n      add\n      tag_162\n      swap1\n      tag_134\n      jump\t// in\n    tag_162:\n      mload(0x40)\n      dup1\n      swap2\n      sub\n      swap1\n      revert\n    tag_161:\n        /* \"FundMe/contracts/FundMe.sol\":4187:4188  0 */\n      0x00\n        /* \"FundMe/contracts/FundMe.sol\":4147:4171  addressToAvailableAmount */\n      0x05\n        /* \"FundMe/contracts/FundMe.sol\":4147:4183  addressToAvailableAmount[msg.sender] */\n      0x00\n        /* \"FundMe/contracts/FundMe.sol\":4172:4182  msg.sender */\n      caller\n        /* \"FundMe/contracts/FundMe.sol\":4147:4183  addressToAvailableAmount[msg.sender] */\n      0xffffffffffffffffffffffffffffffffffffffff\n      and\n      0xffffffffffffffffffffffffffffffffffffffff\n      and\n      dup2\n      mstore\n      0x20\n      add\n      swap1\n      dup2\n      mstore\n      0x20\n      add\n      0x00\n      keccak256\n      sload\n        /* \"FundMe/contracts/FundMe.sol\":4147:4188  addressToAvailableAmount[msg.sender] <= 0 */\n      gt\n        /* \"FundMe/contracts/FundMe.sol\":4143:4240  if (addressToAvailableAmount[msg.sender] <= 0){... */\n      tag_163\n      jumpi\n        /* \"FundMe/contracts/FundMe.sol\":4203:4229  cleanAfterUserWithdrawal() */\n      tag_164\n        /* \"FundMe/contracts/FundMe.sol\":4203:4227  cleanAfterUserWithdrawal */\n      tag_111\n        /* \"FundMe/contracts/FundMe.sol\":4203:4229  cleanAfterUserWithdrawal() */\n      jump\t// in\n    tag_164:\n        /* \"FundMe/contracts/FundMe.sol\":4143:4240  if (addressToAvailableAmount[msg.sender] <= 0){... */\n    tag_163:\n        /* \"FundMe/contracts/FundMe.sol\":3767:4246  {... */\n      pop\n        /* \"FundMe/contracts/FundMe.sol\":1252:1257  false */\n      0x00\n        /* \"FundMe/contracts/FundMe.sol\":1243:1249  locked */\n      dup1\n      0x00\n        /* \"FundMe/contracts/FundMe.sol\":1243:1257  locked = false */\n      0x0100\n      exp\n      dup2\n      sload\n      dup2\n      0xff\n      mul\n      not\n      and\n      swap1\n      dup4\n      iszero\n      iszero\n      mul\n      or\n      swap1\n      sstore\n      pop\n        /* \"FundMe/contracts/FundMe.sol\":3706:4246  function partialWithdraw(uint256 _amount) public noReentrant {... */\n      pop\n      jump\t// out\n        /* \"FundMe/contracts/FundMe.sol\":6449:6714  function getPrice() public view returns (uint256) {... */\n    tag_61:\n        /* \"FundMe/contracts/FundMe.sol\":6490:6497  uint256 */\n      0x00\n        /* \"FundMe/contracts/FundMe.sol\":6511:6523  int256 price */\n      dup1\n        /* \"FundMe/contracts/FundMe.sol\":6553:6595  0x694AA1769357215DE4FAC081bf1f309aDC325306 */\n      0x694aa1769357215de4fac081bf1f309adc325306\n        /* \"FundMe/contracts/FundMe.sol\":6531:6612  AggregatorV3Interface(0x694AA1769357215DE4FAC081bf1f309aDC325306).latestRoundData */\n      0xffffffffffffffffffffffffffffffffffffffff\n      and\n      0xfeaf968c\n        /* \"FundMe/contracts/FundMe.sol\":6531:6614  AggregatorV3Interface(0x694AA1769357215DE4FAC081bf1f309aDC325306).latestRoundData() */\n      mload(0x40)\n      dup2\n      0xffffffff\n      and\n      0xe0\n      shl\n      dup2\n      mstore\n      0x04\n      add\n      0xa0\n      mload(0x40)\n      dup1\n      dup4\n      sub\n      dup2\n      dup7\n      gas\n      staticcall\n      iszero\n      dup1\n      iszero\n      tag_167\n      jumpi\n      returndatasize\n      0x00\n      dup1\n      returndatacopy\n      revert(0x00, returndatasize)\n    tag_167:\n      pop\n      pop\n      pop\n      pop\n      mload(0x40)\n      returndatasize\n      not(0x1f)\n      0x1f\n      dup3\n      add\n      and\n      dup3\n      add\n      dup1\n      0x40\n      mstore\n      pop\n      dup2\n      add\n      swap1\n      tag_168\n      swap2\n      swap1\n      tag_169\n      jump\t// in\n    tag_168:\n        /* \"FundMe/contracts/FundMe.sol\":6509:6614  (,int256 price ,,,) = AggregatorV3Interface(0x694AA1769357215DE4FAC081bf1f309aDC325306).latestRoundData() */\n      pop\n      pop\n      pop\n      swap2\n      pop\n      pop\n        /* \"FundMe/contracts/FundMe.sol\":6640:6641  0 */\n      0x00\n        /* \"FundMe/contracts/FundMe.sol\":6632:6637  price */\n      dup2\n        /* \"FundMe/contracts/FundMe.sol\":6632:6641  price > 0 */\n      sgt\n        /* \"FundMe/contracts/FundMe.sol\":6624:6673  require(price > 0, \"Negative price not allowed.\") */\n      tag_170\n      jumpi\n      mload(0x40)\n      0x08c379a000000000000000000000000000000000000000000000000000000000\n      dup2\n      mstore\n      0x04\n      add\n      tag_171\n      swap1\n      tag_172\n      jump\t// in\n    tag_171:\n      mload(0x40)\n      dup1\n      swap2\n      sub\n      swap1\n      revert\n    tag_170:\n        /* \"FundMe/contracts/FundMe.sol\":6690:6707  price.toUint256() */\n      tag_173\n        /* \"FundMe/contracts/FundMe.sol\":6690:6695  price */\n      dup2\n        /* \"FundMe/contracts/FundMe.sol\":6690:6705  price.toUint256 */\n      tag_174\n        /* \"FundMe/contracts/FundMe.sol\":6690:6707  price.toUint256() */\n      jump\t// in\n    tag_173:\n        /* \"FundMe/contracts/FundMe.sol\":6683:6707  return price.toUint256() */\n      swap2\n      pop\n      pop\n        /* \"FundMe/contracts/FundMe.sol\":6449:6714  function getPrice() public view returns (uint256) {... */\n      swap1\n      jump\t// out\n        /* \"FundMe/contracts/FundMe.sol\":462:526  mapping (address => uint256) public addressToIndexInFundersArray */\n    tag_67:\n      mstore(0x20, 0x03)\n      dup1\n      0x00\n      mstore\n      keccak256(0x00, 0x40)\n      0x00\n      swap2\n      pop\n      swap1\n      pop\n      sload\n      dup2\n      jump\t// out\n        /* \"FundMe/contracts/FundMe.sol\":1899:2167  function changeMinimumUsd(uint256 _newMinimumUsd) onlyOwner public {... */\n    tag_72:\n        /* \"FundMe/contracts/FundMe.sol\":713:720  i_owner */\n      immutable(\"0xe921da22f871c25c63f06c1365385cbb26397f64f79055cdbab32187a9377d16\")\n        /* \"FundMe/contracts/FundMe.sol\":699:720  msg.sender == i_owner */\n      0xffffffffffffffffffffffffffffffffffffffff\n      and\n        /* \"FundMe/contracts/FundMe.sol\":699:709  msg.sender */\n      caller\n        /* \"FundMe/contracts/FundMe.sol\":699:720  msg.sender == i_owner */\n      0xffffffffffffffffffffffffffffffffffffffff\n      and\n      eq\n        /* \"FundMe/contracts/FundMe.sol\":690:762  require (msg.sender == i_owner, \"Only owner can execute this function.\") */\n      tag_176\n      jumpi\n      mload(0x40)\n      0x08c379a000000000000000000000000000000000000000000000000000000000\n      dup2\n      mstore\n      0x04\n      add\n      tag_177\n      swap1\n      tag_139\n      jump\t// in\n    tag_177:\n      mload(0x40)\n      dup1\n      swap2\n      sub\n      swap1\n      revert\n    tag_176:\n        /* \"FundMe/contracts/FundMe.sol\":1976:1997  uint256 newMinimumUsd */\n      0x00\n        /* \"FundMe/contracts/FundMe.sol\":2015:2018  1e8 */\n      0x05f5e100\n        /* \"FundMe/contracts/FundMe.sol\":2000:2014  _newMinimumUsd */\n      dup3\n        /* \"FundMe/contracts/FundMe.sol\":2000:2018  _newMinimumUsd*1e8 */\n      tag_179\n      swap2\n      swap1\n      tag_117\n      jump\t// in\n    tag_179:\n        /* \"FundMe/contracts/FundMe.sol\":1976:2018  uint256 newMinimumUsd = _newMinimumUsd*1e8 */\n      swap1\n      pop\n        /* \"FundMe/contracts/FundMe.sol\":2053:2063  minimumUsd */\n      sload(0x01)\n        /* \"FundMe/contracts/FundMe.sol\":2036:2049  newMinimumUsd */\n      dup2\n        /* \"FundMe/contracts/FundMe.sol\":2036:2063  newMinimumUsd != minimumUsd */\n      sub\n        /* \"FundMe/contracts/FundMe.sol\":2028:2124  require(newMinimumUsd != minimumUsd, \"Cannot change the value of minimumUsd to the same value.\") */\n      tag_180\n      jumpi\n      mload(0x40)\n      0x08c379a000000000000000000000000000000000000000000000000000000000\n      dup2\n      mstore\n      0x04\n      add\n      tag_181\n      swap1\n      tag_182\n      jump\t// in\n    tag_181:\n      mload(0x40)\n      dup1\n      swap2\n      sub\n      swap1\n      revert\n    tag_180:\n        /* \"FundMe/contracts/FundMe.sol\":2147:2160  newMinimumUsd */\n      dup1\n        /* \"FundMe/contracts/FundMe.sol\":2134:2144  minimumUsd */\n      0x01\n        /* \"FundMe/contracts/FundMe.sol\":2134:2160  minimumUsd = newMinimumUsd */\n      dup2\n      swap1\n      sstore\n      pop\n        /* \"FundMe/contracts/FundMe.sol\":1966:2167  {... */\n      pop\n        /* \"FundMe/contracts/FundMe.sol\":1899:2167  function changeMinimumUsd(uint256 _newMinimumUsd) onlyOwner public {... */\n      pop\n      jump\t// out\n        /* \"FundMe/contracts/FundMe.sol\":313:345  address public immutable i_owner */\n    tag_75:\n      immutable(\"0xe921da22f871c25c63f06c1365385cbb26397f64f79055cdbab32187a9377d16\")\n      dup2\n      jump\t// out\n        /* \"FundMe/contracts/FundMe.sol\":432:456  address[] public funders */\n    tag_81:\n      0x02\n      dup2\n      dup2\n      sload\n      dup2\n      lt\n      tag_183\n      jumpi\n      0x00\n      dup1\n      revert\n    tag_183:\n      swap1\n      0x00\n      mstore\n      keccak256(0x00, 0x20)\n      add\n      0x00\n      swap2\n      pop\n      sload\n      swap1\n      0x0100\n      exp\n      swap1\n      div\n      0xffffffffffffffffffffffffffffffffffffffff\n      and\n      dup2\n      jump\t// out\n        /* \"FundMe/contracts/FundMe.sol\":532:586  mapping (address => bool) public addressIsActiveFunder */\n    tag_86:\n      mstore(0x20, 0x04)\n      dup1\n      0x00\n      mstore\n      keccak256(0x00, 0x40)\n      0x00\n      swap2\n      pop\n      sload\n      swap1\n      0x0100\n      exp\n      swap1\n      div\n      0xff\n      and\n      dup2\n      jump\t// out\n        /* \"FundMe/contracts/FundMe.sol\":5592:6332  function cleanAfterUserWithdrawal() internal {... */\n    tag_111:\n        /* \"FundMe/contracts/FundMe.sol\":5647:5672  address lastFunderAddress */\n      0x00\n        /* \"FundMe/contracts/FundMe.sol\":5675:5682  funders */\n      0x02\n        /* \"FundMe/contracts/FundMe.sol\":5700:5701  1 */\n      0x01\n        /* \"FundMe/contracts/FundMe.sol\":5683:5690  funders */\n      0x02\n        /* \"FundMe/contracts/FundMe.sol\":5683:5697  funders.length */\n      dup1\n      sload\n      swap1\n      pop\n        /* \"FundMe/contracts/FundMe.sol\":5683:5701  funders.length - 1 */\n      tag_186\n      swap2\n      swap1\n      tag_156\n      jump\t// in\n    tag_186:\n        /* \"FundMe/contracts/FundMe.sol\":5675:5702  funders[funders.length - 1] */\n      dup2\n      sload\n      dup2\n      lt\n      tag_187\n      jumpi\n      tag_188\n      tag_189\n      jump\t// in\n    tag_188:\n    tag_187:\n      swap1\n      0x00\n      mstore\n      keccak256(0x00, 0x20)\n      add\n      0x00\n      swap1\n      sload\n      swap1\n      0x0100\n      exp\n      swap1\n      div\n      0xffffffffffffffffffffffffffffffffffffffff\n      and\n        /* \"FundMe/contracts/FundMe.sol\":5647:5702  address lastFunderAddress = funders[funders.length - 1] */\n      swap1\n      pop\n        /* \"FundMe/contracts/FundMe.sol\":5712:5738  uint256 currentFunderIndex */\n      0x00\n        /* \"FundMe/contracts/FundMe.sol\":5741:5769  addressToIndexInFundersArray */\n      0x03\n        /* \"FundMe/contracts/FundMe.sol\":5741:5781  addressToIndexInFundersArray[msg.sender] */\n      0x00\n        /* \"FundMe/contracts/FundMe.sol\":5770:5780  msg.sender */\n      caller\n        /* \"FundMe/contracts/FundMe.sol\":5741:5781  addressToIndexInFundersArray[msg.sender] */\n      0xffffffffffffffffffffffffffffffffffffffff\n      and\n      0xffffffffffffffffffffffffffffffffffffffff\n      and\n      dup2\n      mstore\n      0x20\n      add\n      swap1\n      dup2\n      mstore\n      0x20\n      add\n      0x00\n      keccak256\n      sload\n        /* \"FundMe/contracts/FundMe.sol\":5712:5781  uint256 currentFunderIndex = addressToIndexInFundersArray[msg.sender] */\n      swap1\n      pop\n        /* \"FundMe/contracts/FundMe.sol\":5979:5980  1 */\n      0x01\n        /* \"FundMe/contracts/FundMe.sol\":5962:5969  funders */\n      0x02\n        /* \"FundMe/contracts/FundMe.sol\":5962:5976  funders.length */\n      dup1\n      sload\n      swap1\n      pop\n        /* \"FundMe/contracts/FundMe.sol\":5962:5980  funders.length - 1 */\n      tag_191\n      swap2\n      swap1\n      tag_156\n      jump\t// in\n    tag_191:\n        /* \"FundMe/contracts/FundMe.sol\":5918:5946  addressToIndexInFundersArray */\n      0x03\n        /* \"FundMe/contracts/FundMe.sol\":5918:5958  addressToIndexInFundersArray[msg.sender] */\n      0x00\n        /* \"FundMe/contracts/FundMe.sol\":5947:5957  msg.sender */\n      caller\n        /* \"FundMe/contracts/FundMe.sol\":5918:5958  addressToIndexInFundersArray[msg.sender] */\n      0xffffffffffffffffffffffffffffffffffffffff\n      and\n      0xffffffffffffffffffffffffffffffffffffffff\n      and\n      dup2\n      mstore\n      0x20\n      add\n      swap1\n      dup2\n      mstore\n      0x20\n      add\n      0x00\n      keccak256\n      sload\n        /* \"FundMe/contracts/FundMe.sol\":5918:5980  addressToIndexInFundersArray[msg.sender] != funders.length - 1 */\n      eq\n        /* \"FundMe/contracts/FundMe.sol\":5914:6153  if (addressToIndexInFundersArray[msg.sender] != funders.length - 1){... */\n      tag_192\n      jumpi\n        /* \"FundMe/contracts/FundMe.sol\":6025:6042  lastFunderAddress */\n      dup2\n        /* \"FundMe/contracts/FundMe.sol\":5995:6002  funders */\n      0x02\n        /* \"FundMe/contracts/FundMe.sol\":6003:6021  currentFunderIndex */\n      dup3\n        /* \"FundMe/contracts/FundMe.sol\":5995:6022  funders[currentFunderIndex] */\n      dup2\n      sload\n      dup2\n      lt\n      tag_193\n      jumpi\n      tag_194\n      tag_189\n      jump\t// in\n    tag_194:\n    tag_193:\n      swap1\n      0x00\n      mstore\n      keccak256(0x00, 0x20)\n      add\n      0x00\n        /* \"FundMe/contracts/FundMe.sol\":5995:6042  funders[currentFunderIndex] = lastFunderAddress */\n      0x0100\n      exp\n      dup2\n      sload\n      dup2\n      0xffffffffffffffffffffffffffffffffffffffff\n      mul\n      not\n      and\n      swap1\n      dup4\n      0xffffffffffffffffffffffffffffffffffffffff\n      and\n      mul\n      or\n      swap1\n      sstore\n      pop\n        /* \"FundMe/contracts/FundMe.sol\":6124:6142  currentFunderIndex */\n      dup1\n        /* \"FundMe/contracts/FundMe.sol\":6074:6102  addressToIndexInFundersArray */\n      0x03\n        /* \"FundMe/contracts/FundMe.sol\":6074:6121  addressToIndexInFundersArray[lastFunderAddress] */\n      0x00\n        /* \"FundMe/contracts/FundMe.sol\":6103:6120  lastFunderAddress */\n      dup5\n        /* \"FundMe/contracts/FundMe.sol\":6074:6121  addressToIndexInFundersArray[lastFunderAddress] */\n      0xffffffffffffffffffffffffffffffffffffffff\n      and\n      0xffffffffffffffffffffffffffffffffffffffff\n      and\n      dup2\n      mstore\n      0x20\n      add\n      swap1\n      dup2\n      mstore\n      0x20\n      add\n      0x00\n      keccak256\n        /* \"FundMe/contracts/FundMe.sol\":6074:6142  addressToIndexInFundersArray[lastFunderAddress] = currentFunderIndex */\n      dup2\n      swap1\n      sstore\n      pop\n        /* \"FundMe/contracts/FundMe.sol\":5914:6153  if (addressToIndexInFundersArray[msg.sender] != funders.length - 1){... */\n    tag_192:\n        /* \"FundMe/contracts/FundMe.sol\":6176:6183  funders */\n      0x02\n        /* \"FundMe/contracts/FundMe.sol\":6176:6189  funders.pop() */\n      dup1\n      sload\n      dup1\n      tag_196\n      jumpi\n      tag_197\n      tag_198\n      jump\t// in\n    tag_197:\n    tag_196:\n      0x01\n      swap1\n      sub\n      dup2\n      dup2\n      swap1\n      0x00\n      mstore\n      keccak256(0x00, 0x20)\n      add\n      exp(0x0100, 0x00)\n      dup2\n      sload\n      swap1\n      0xffffffffffffffffffffffffffffffffffffffff\n      mul\n      not\n      and\n      swap1\n      sstore\n      swap1\n      sstore\n        /* \"FundMe/contracts/FundMe.sol\":6220:6248  addressToIndexInFundersArray */\n      0x03\n        /* \"FundMe/contracts/FundMe.sol\":6220:6260  addressToIndexInFundersArray[msg.sender] */\n      0x00\n        /* \"FundMe/contracts/FundMe.sol\":6249:6259  msg.sender */\n      caller\n        /* \"FundMe/contracts/FundMe.sol\":6220:6260  addressToIndexInFundersArray[msg.sender] */\n      0xffffffffffffffffffffffffffffffffffffffff\n      and\n      0xffffffffffffffffffffffffffffffffffffffff\n      and\n      dup2\n      mstore\n      0x20\n      add\n      swap1\n      dup2\n      mstore\n      0x20\n      add\n      0x00\n      keccak256\n        /* \"FundMe/contracts/FundMe.sol\":6213:6260  delete addressToIndexInFundersArray[msg.sender] */\n      0x00\n      swap1\n      sstore\n        /* \"FundMe/contracts/FundMe.sol\":6320:6325  false */\n      0x00\n        /* \"FundMe/contracts/FundMe.sol\":6284:6305  addressIsActiveFunder */\n      0x04\n        /* \"FundMe/contracts/FundMe.sol\":6284:6317  addressIsActiveFunder[msg.sender] */\n      0x00\n        /* \"FundMe/contracts/FundMe.sol\":6306:6316  msg.sender */\n      caller\n        /* \"FundMe/contracts/FundMe.sol\":6284:6317  addressIsActiveFunder[msg.sender] */\n      0xffffffffffffffffffffffffffffffffffffffff\n      and\n      0xffffffffffffffffffffffffffffffffffffffff\n      and\n      dup2\n      mstore\n      0x20\n      add\n      swap1\n      dup2\n      mstore\n      0x20\n      add\n      0x00\n      keccak256\n      0x00\n        /* \"FundMe/contracts/FundMe.sol\":6284:6325  addressIsActiveFunder[msg.sender] = false */\n      0x0100\n      exp\n      dup2\n      sload\n      dup2\n      0xff\n      mul\n      not\n      and\n      swap1\n      dup4\n      iszero\n      iszero\n      mul\n      or\n      swap1\n      sstore\n      pop\n        /* \"FundMe/contracts/FundMe.sol\":5637:6332  {... */\n      pop\n      pop\n        /* \"FundMe/contracts/FundMe.sol\":5592:6332  function cleanAfterUserWithdrawal() internal {... */\n      jump\t// out\n        /* \"FundMe/contracts/FundMe.sol\":5045:5454  function cleanAfterOwnerWithdrawal() internal {... */\n    tag_148:\n        /* \"FundMe/contracts/FundMe.sol\":5106:5115  uint256 i */\n      0x00\n        /* \"FundMe/contracts/FundMe.sol\":5101:5302  for (uint256 i = 0; i < funders.length; i++){... */\n    tag_201:\n        /* \"FundMe/contracts/FundMe.sol\":5125:5132  funders */\n      0x02\n        /* \"FundMe/contracts/FundMe.sol\":5125:5139  funders.length */\n      dup1\n      sload\n      swap1\n      pop\n        /* \"FundMe/contracts/FundMe.sol\":5121:5122  i */\n      dup2\n        /* \"FundMe/contracts/FundMe.sol\":5121:5139  i < funders.length */\n      lt\n        /* \"FundMe/contracts/FundMe.sol\":5101:5302  for (uint256 i = 0; i < funders.length; i++){... */\n      iszero\n      tag_202\n      jumpi\n        /* \"FundMe/contracts/FundMe.sol\":5159:5173  address funder */\n      0x00\n        /* \"FundMe/contracts/FundMe.sol\":5176:5183  funders */\n      0x02\n        /* \"FundMe/contracts/FundMe.sol\":5184:5185  i */\n      dup3\n        /* \"FundMe/contracts/FundMe.sol\":5176:5186  funders[i] */\n      dup2\n      sload\n      dup2\n      lt\n      tag_204\n      jumpi\n      tag_205\n      tag_189\n      jump\t// in\n    tag_205:\n    tag_204:\n      swap1\n      0x00\n      mstore\n      keccak256(0x00, 0x20)\n      add\n      0x00\n      swap1\n      sload\n      swap1\n      0x0100\n      exp\n      swap1\n      div\n      0xffffffffffffffffffffffffffffffffffffffff\n      and\n        /* \"FundMe/contracts/FundMe.sol\":5159:5186  address funder = funders[i] */\n      swap1\n      pop\n        /* \"FundMe/contracts/FundMe.sol\":5239:5240  0 */\n      0x00\n        /* \"FundMe/contracts/FundMe.sol\":5200:5228  addressToIndexInFundersArray */\n      0x03\n        /* \"FundMe/contracts/FundMe.sol\":5200:5236  addressToIndexInFundersArray[funder] */\n      0x00\n        /* \"FundMe/contracts/FundMe.sol\":5229:5235  funder */\n      dup4\n        /* \"FundMe/contracts/FundMe.sol\":5200:5236  addressToIndexInFundersArray[funder] */\n      0xffffffffffffffffffffffffffffffffffffffff\n      and\n      0xffffffffffffffffffffffffffffffffffffffff\n      and\n      dup2\n      mstore\n      0x20\n      add\n      swap1\n      dup2\n      mstore\n      0x20\n      add\n      0x00\n      keccak256\n        /* \"FundMe/contracts/FundMe.sol\":5200:5240  addressToIndexInFundersArray[funder] = 0 */\n      dup2\n      swap1\n      sstore\n      pop\n        /* \"FundMe/contracts/FundMe.sol\":5286:5291  false */\n      0x00\n        /* \"FundMe/contracts/FundMe.sol\":5254:5275  addressIsActiveFunder */\n      0x04\n        /* \"FundMe/contracts/FundMe.sol\":5254:5283  addressIsActiveFunder[funder] */\n      0x00\n        /* \"FundMe/contracts/FundMe.sol\":5276:5282  funder */\n      dup4\n        /* \"FundMe/contracts/FundMe.sol\":5254:5283  addressIsActiveFunder[funder] */\n      0xffffffffffffffffffffffffffffffffffffffff\n      and\n      0xffffffffffffffffffffffffffffffffffffffff\n      and\n      dup2\n      mstore\n      0x20\n      add\n      swap1\n      dup2\n      mstore\n      0x20\n      add\n      0x00\n      keccak256\n      0x00\n        /* \"FundMe/contracts/FundMe.sol\":5254:5291  addressIsActiveFunder[funder] = false */\n      0x0100\n      exp\n      dup2\n      sload\n      dup2\n      0xff\n      mul\n      not\n      and\n      swap1\n      dup4\n      iszero\n      iszero\n      mul\n      or\n      swap1\n      sstore\n      pop\n        /* \"FundMe/contracts/FundMe.sol\":5145:5302  {... */\n      pop\n        /* \"FundMe/contracts/FundMe.sol\":5141:5144  i++ */\n      dup1\n      dup1\n      0x01\n      add\n      swap2\n      pop\n      pop\n        /* \"FundMe/contracts/FundMe.sol\":5101:5302  for (uint256 i = 0; i < funders.length; i++){... */\n      jump(tag_201)\n    tag_202:\n      pop\n        /* \"FundMe/contracts/FundMe.sol\":5440:5447  funders */\n      0x02\n      0x00\n        /* \"FundMe/contracts/FundMe.sol\":5433:5447  delete funders */\n      tag_207\n      swap2\n      swap1\n      tag_208\n      jump\t// in\n    tag_207:\n        /* \"FundMe/contracts/FundMe.sol\":5045:5454  function cleanAfterOwnerWithdrawal() internal {... */\n      jump\t// out\n        /* \"FundMe/contracts/SafeCast.sol\":17171:17364  function toUint256(int256 value) internal pure returns (uint256) {... */\n    tag_174:\n        /* \"FundMe/contracts/SafeCast.sol\":17227:17234  uint256 */\n      0x00\n        /* \"FundMe/contracts/SafeCast.sol\":17258:17259  0 */\n      dup1\n        /* \"FundMe/contracts/SafeCast.sol\":17250:17255  value */\n      dup3\n        /* \"FundMe/contracts/SafeCast.sol\":17250:17259  value < 0 */\n      slt\n        /* \"FundMe/contracts/SafeCast.sol\":17246:17327  if (value < 0) {... */\n      iszero\n      tag_210\n      jumpi\n        /* \"FundMe/contracts/SafeCast.sol\":17310:17315  value */\n      dup2\n        /* \"FundMe/contracts/SafeCast.sol\":17282:17316  SafeCastOverflowedIntToUint(value) */\n      mload(0x40)\n      0xa8ce443200000000000000000000000000000000000000000000000000000000\n      dup2\n      mstore\n      0x04\n      add\n      tag_211\n      swap2\n      swap1\n      tag_212\n      jump\t// in\n    tag_211:\n      mload(0x40)\n      dup1\n      swap2\n      sub\n      swap1\n      revert\n        /* \"FundMe/contracts/SafeCast.sol\":17246:17327  if (value < 0) {... */\n    tag_210:\n        /* \"FundMe/contracts/SafeCast.sol\":17351:17356  value */\n      dup2\n        /* \"FundMe/contracts/SafeCast.sol\":17336:17357  return uint256(value) */\n      swap1\n      pop\n        /* \"FundMe/contracts/SafeCast.sol\":17171:17364  function toUint256(int256 value) internal pure returns (uint256) {... */\n      swap2\n      swap1\n      pop\n      jump\t// out\n    tag_208:\n      pop\n      dup1\n      sload\n      0x00\n      dup3\n      sstore\n      swap1\n      0x00\n      mstore\n      keccak256(0x00, 0x20)\n      swap1\n      dup2\n      add\n      swap1\n      tag_214\n      swap2\n      swap1\n      tag_215\n      jump\t// in\n    tag_214:\n      pop\n      jump\t// out\n    tag_215:\n    tag_216:\n      dup1\n      dup3\n      gt\n      iszero\n      tag_217\n      jumpi\n      0x00\n      dup2\n      0x00\n      swap1\n      sstore\n      pop\n      0x01\n      add\n      jump(tag_216)\n    tag_217:\n      pop\n      swap1\n      jump\t// out\n        /* \"#utility.yul\":88:205   */\n    tag_219:\n        /* \"#utility.yul\":197:198   */\n      0x00\n        /* \"#utility.yul\":194:195   */\n      dup1\n        /* \"#utility.yul\":187:199   */\n      revert\n        /* \"#utility.yul\":334:460   */\n    tag_221:\n        /* \"#utility.yul\":371:378   */\n      0x00\n        /* \"#utility.yul\":411:453   */\n      0xffffffffffffffffffffffffffffffffffffffff\n        /* \"#utility.yul\":404:409   */\n      dup3\n        /* \"#utility.yul\":400:454   */\n      and\n        /* \"#utility.yul\":389:454   */\n      swap1\n      pop\n        /* \"#utility.yul\":334:460   */\n      swap2\n      swap1\n      pop\n      jump\t// out\n        /* \"#utility.yul\":466:562   */\n    tag_222:\n        /* \"#utility.yul\":503:510   */\n      0x00\n        /* \"#utility.yul\":532:556   */\n      tag_270\n        /* \"#utility.yul\":550:555   */\n      dup3\n        /* \"#utility.yul\":532:556   */\n      tag_221\n      jump\t// in\n    tag_270:\n        /* \"#utility.yul\":521:556   */\n      swap1\n      pop\n        /* \"#utility.yul\":466:562   */\n      swap2\n      swap1\n      pop\n      jump\t// out\n        /* \"#utility.yul\":568:690   */\n    tag_223:\n        /* \"#utility.yul\":641:665   */\n      tag_272\n        /* \"#utility.yul\":659:664   */\n      dup2\n        /* \"#utility.yul\":641:665   */\n      tag_222\n      jump\t// in\n    tag_272:\n        /* \"#utility.yul\":634:639   */\n      dup2\n        /* \"#utility.yul\":631:666   */\n      eq\n        /* \"#utility.yul\":621:684   */\n      tag_273\n      jumpi\n        /* \"#utility.yul\":680:681   */\n      0x00\n        /* \"#utility.yul\":677:678   */\n      dup1\n        /* \"#utility.yul\":670:682   */\n      revert\n        /* \"#utility.yul\":621:684   */\n    tag_273:\n        /* \"#utility.yul\":568:690   */\n      pop\n      jump\t// out\n        /* \"#utility.yul\":696:835   */\n    tag_224:\n        /* \"#utility.yul\":742:747   */\n      0x00\n        /* \"#utility.yul\":780:786   */\n      dup2\n        /* \"#utility.yul\":767:787   */\n      calldataload\n        /* \"#utility.yul\":758:787   */\n      swap1\n      pop\n        /* \"#utility.yul\":796:829   */\n      tag_275\n        /* \"#utility.yul\":823:828   */\n      dup2\n        /* \"#utility.yul\":796:829   */\n      tag_223\n      jump\t// in\n    tag_275:\n        /* \"#utility.yul\":696:835   */\n      swap3\n      swap2\n      pop\n      pop\n      jump\t// out\n        /* \"#utility.yul\":841:1170   */\n    tag_30:\n        /* \"#utility.yul\":900:906   */\n      0x00\n        /* \"#utility.yul\":949:951   */\n      0x20\n        /* \"#utility.yul\":937:946   */\n      dup3\n        /* \"#utility.yul\":928:935   */\n      dup5\n        /* \"#utility.yul\":924:947   */\n      sub\n        /* \"#utility.yul\":920:952   */\n      slt\n        /* \"#utility.yul\":917:1036   */\n      iszero\n      tag_277\n      jumpi\n        /* \"#utility.yul\":955:1034   */\n      tag_278\n      tag_219\n      jump\t// in\n    tag_278:\n        /* \"#utility.yul\":917:1036   */\n    tag_277:\n        /* \"#utility.yul\":1075:1076   */\n      0x00\n        /* \"#utility.yul\":1100:1153   */\n      tag_279\n        /* \"#utility.yul\":1145:1152   */\n      dup5\n        /* \"#utility.yul\":1136:1142   */\n      dup3\n        /* \"#utility.yul\":1125:1134   */\n      dup6\n        /* \"#utility.yul\":1121:1143   */\n      add\n        /* \"#utility.yul\":1100:1153   */\n      tag_224\n      jump\t// in\n    tag_279:\n        /* \"#utility.yul\":1090:1153   */\n      swap2\n      pop\n        /* \"#utility.yul\":1046:1163   */\n      pop\n        /* \"#utility.yul\":841:1170   */\n      swap3\n      swap2\n      pop\n      pop\n      jump\t// out\n        /* \"#utility.yul\":1176:1253   */\n    tag_225:\n        /* \"#utility.yul\":1213:1220   */\n      0x00\n        /* \"#utility.yul\":1242:1247   */\n      dup2\n        /* \"#utility.yul\":1231:1247   */\n      swap1\n      pop\n        /* \"#utility.yul\":1176:1253   */\n      swap2\n      swap1\n      pop\n      jump\t// out\n        /* \"#utility.yul\":1259:1377   */\n    tag_226:\n        /* \"#utility.yul\":1346:1370   */\n      tag_282\n        /* \"#utility.yul\":1364:1369   */\n      dup2\n        /* \"#utility.yul\":1346:1370   */\n      tag_225\n      jump\t// in\n    tag_282:\n        /* \"#utility.yul\":1341:1344   */\n      dup3\n        /* \"#utility.yul\":1334:1371   */\n      mstore\n        /* \"#utility.yul\":1259:1377   */\n      pop\n      pop\n      jump\t// out\n        /* \"#utility.yul\":1383:1605   */\n    tag_33:\n        /* \"#utility.yul\":1476:1480   */\n      0x00\n        /* \"#utility.yul\":1514:1516   */\n      0x20\n        /* \"#utility.yul\":1503:1512   */\n      dup3\n        /* \"#utility.yul\":1499:1517   */\n      add\n        /* \"#utility.yul\":1491:1517   */\n      swap1\n      pop\n        /* \"#utility.yul\":1527:1598   */\n      tag_284\n        /* \"#utility.yul\":1595:1596   */\n      0x00\n        /* \"#utility.yul\":1584:1593   */\n      dup4\n        /* \"#utility.yul\":1580:1597   */\n      add\n        /* \"#utility.yul\":1571:1577   */\n      dup5\n        /* \"#utility.yul\":1527:1598   */\n      tag_226\n      jump\t// in\n    tag_284:\n        /* \"#utility.yul\":1383:1605   */\n      swap3\n      swap2\n      pop\n      pop\n      jump\t// out\n        /* \"#utility.yul\":1611:1733   */\n    tag_227:\n        /* \"#utility.yul\":1684:1708   */\n      tag_286\n        /* \"#utility.yul\":1702:1707   */\n      dup2\n        /* \"#utility.yul\":1684:1708   */\n      tag_225\n      jump\t// in\n    tag_286:\n        /* \"#utility.yul\":1677:1682   */\n      dup2\n        /* \"#utility.yul\":1674:1709   */\n      eq\n        /* \"#utility.yul\":1664:1727   */\n      tag_287\n      jumpi\n        /* \"#utility.yul\":1723:1724   */\n      0x00\n        /* \"#utility.yul\":1720:1721   */\n      dup1\n        /* \"#utility.yul\":1713:1725   */\n      revert\n        /* \"#utility.yul\":1664:1727   */\n    tag_287:\n        /* \"#utility.yul\":1611:1733   */\n      pop\n      jump\t// out\n        /* \"#utility.yul\":1739:1878   */\n    tag_228:\n        /* \"#utility.yul\":1785:1790   */\n      0x00\n        /* \"#utility.yul\":1823:1829   */\n      dup2\n        /* \"#utility.yul\":1810:1830   */\n      calldataload\n        /* \"#utility.yul\":1801:1830   */\n      swap1\n      pop\n        /* \"#utility.yul\":1839:1872   */\n      tag_289\n        /* \"#utility.yul\":1866:1871   */\n      dup2\n        /* \"#utility.yul\":1839:1872   */\n      tag_227\n      jump\t// in\n    tag_289:\n        /* \"#utility.yul\":1739:1878   */\n      swap3\n      swap2\n      pop\n      pop\n      jump\t// out\n        /* \"#utility.yul\":1884:2358   */\n    tag_45:\n        /* \"#utility.yul\":1952:1958   */\n      0x00\n        /* \"#utility.yul\":1960:1966   */\n      dup1\n        /* \"#utility.yul\":2009:2011   */\n      0x40\n        /* \"#utility.yul\":1997:2006   */\n      dup4\n        /* \"#utility.yul\":1988:1995   */\n      dup6\n        /* \"#utility.yul\":1984:2007   */\n      sub\n        /* \"#utility.yul\":1980:2012   */\n      slt\n        /* \"#utility.yul\":1977:2096   */\n      iszero\n      tag_291\n      jumpi\n        /* \"#utility.yul\":2015:2094   */\n      tag_292\n      tag_219\n      jump\t// in\n    tag_292:\n        /* \"#utility.yul\":1977:2096   */\n    tag_291:\n        /* \"#utility.yul\":2135:2136   */\n      0x00\n        /* \"#utility.yul\":2160:2213   */\n      tag_293\n        /* \"#utility.yul\":2205:2212   */\n      dup6\n        /* \"#utility.yul\":2196:2202   */\n      dup3\n        /* \"#utility.yul\":2185:2194   */\n      dup7\n        /* \"#utility.yul\":2181:2203   */\n      add\n        /* \"#utility.yul\":2160:2213   */\n      tag_228\n      jump\t// in\n    tag_293:\n        /* \"#utility.yul\":2150:2213   */\n      swap3\n      pop\n        /* \"#utility.yul\":2106:2223   */\n      pop\n        /* \"#utility.yul\":2262:2264   */\n      0x20\n        /* \"#utility.yul\":2288:2341   */\n      tag_294\n        /* \"#utility.yul\":2333:2340   */\n      dup6\n        /* \"#utility.yul\":2324:2330   */\n      dup3\n        /* \"#utility.yul\":2313:2322   */\n      dup7\n        /* \"#utility.yul\":2309:2331   */\n      add\n        /* \"#utility.yul\":2288:2341   */\n      tag_228\n      jump\t// in\n    tag_294:\n        /* \"#utility.yul\":2278:2341   */\n      swap2\n      pop\n        /* \"#utility.yul\":2233:2351   */\n      pop\n        /* \"#utility.yul\":1884:2358   */\n      swap3\n      pop\n      swap3\n      swap1\n      pop\n      jump\t// out\n        /* \"#utility.yul\":2364:2693   */\n    tag_57:\n        /* \"#utility.yul\":2423:2429   */\n      0x00\n        /* \"#utility.yul\":2472:2474   */\n      0x20\n        /* \"#utility.yul\":2460:2469   */\n      dup3\n        /* \"#utility.yul\":2451:2458   */\n      dup5\n        /* \"#utility.yul\":2447:2470   */\n      sub\n        /* \"#utility.yul\":2443:2475   */\n      slt\n        /* \"#utility.yul\":2440:2559   */\n      iszero\n      tag_296\n      jumpi\n        /* \"#utility.yul\":2478:2557   */\n      tag_297\n      tag_219\n      jump\t// in\n    tag_297:\n        /* \"#utility.yul\":2440:2559   */\n    tag_296:\n        /* \"#utility.yul\":2598:2599   */\n      0x00\n        /* \"#utility.yul\":2623:2676   */\n      tag_298\n        /* \"#utility.yul\":2668:2675   */\n      dup5\n        /* \"#utility.yul\":2659:2665   */\n      dup3\n        /* \"#utility.yul\":2648:2657   */\n      dup6\n        /* \"#utility.yul\":2644:2666   */\n      add\n        /* \"#utility.yul\":2623:2676   */\n      tag_228\n      jump\t// in\n    tag_298:\n        /* \"#utility.yul\":2613:2676   */\n      swap2\n      pop\n        /* \"#utility.yul\":2569:2686   */\n      pop\n        /* \"#utility.yul\":2364:2693   */\n      swap3\n      swap2\n      pop\n      pop\n      jump\t// out\n        /* \"#utility.yul\":2699:2817   */\n    tag_229:\n        /* \"#utility.yul\":2786:2810   */\n      tag_300\n        /* \"#utility.yul\":2804:2809   */\n      dup2\n        /* \"#utility.yul\":2786:2810   */\n      tag_222\n      jump\t// in\n    tag_300:\n        /* \"#utility.yul\":2781:2784   */\n      dup3\n        /* \"#utility.yul\":2774:2811   */\n      mstore\n        /* \"#utility.yul\":2699:2817   */\n      pop\n      pop\n      jump\t// out\n        /* \"#utility.yul\":2823:3045   */\n    tag_77:\n        /* \"#utility.yul\":2916:2920   */\n      0x00\n        /* \"#utility.yul\":2954:2956   */\n      0x20\n        /* \"#utility.yul\":2943:2952   */\n      dup3\n        /* \"#utility.yul\":2939:2957   */\n      add\n        /* \"#utility.yul\":2931:2957   */\n      swap1\n      pop\n        /* \"#utility.yul\":2967:3038   */\n      tag_302\n        /* \"#utility.yul\":3035:3036   */\n      0x00\n        /* \"#utility.yul\":3024:3033   */\n      dup4\n        /* \"#utility.yul\":3020:3037   */\n      add\n        /* \"#utility.yul\":3011:3017   */\n      dup5\n        /* \"#utility.yul\":2967:3038   */\n      tag_229\n      jump\t// in\n    tag_302:\n        /* \"#utility.yul\":2823:3045   */\n      swap3\n      swap2\n      pop\n      pop\n      jump\t// out\n        /* \"#utility.yul\":3051:3141   */\n    tag_230:\n        /* \"#utility.yul\":3085:3092   */\n      0x00\n        /* \"#utility.yul\":3128:3133   */\n      dup2\n        /* \"#utility.yul\":3121:3134   */\n      iszero\n        /* \"#utility.yul\":3114:3135   */\n      iszero\n        /* \"#utility.yul\":3103:3135   */\n      swap1\n      pop\n        /* \"#utility.yul\":3051:3141   */\n      swap2\n      swap1\n      pop\n      jump\t// out\n        /* \"#utility.yul\":3147:3256   */\n    tag_231:\n        /* \"#utility.yul\":3228:3249   */\n      tag_305\n        /* \"#utility.yul\":3243:3248   */\n      dup2\n        /* \"#utility.yul\":3228:3249   */\n      tag_230\n      jump\t// in\n    tag_305:\n        /* \"#utility.yul\":3223:3226   */\n      dup3\n        /* \"#utility.yul\":3216:3250   */\n      mstore\n        /* \"#utility.yul\":3147:3256   */\n      pop\n      pop\n      jump\t// out\n        /* \"#utility.yul\":3262:3472   */\n    tag_88:\n        /* \"#utility.yul\":3349:3353   */\n      0x00\n        /* \"#utility.yul\":3387:3389   */\n      0x20\n        /* \"#utility.yul\":3376:3385   */\n      dup3\n        /* \"#utility.yul\":3372:3390   */\n      add\n        /* \"#utility.yul\":3364:3390   */\n      swap1\n      pop\n        /* \"#utility.yul\":3400:3465   */\n      tag_307\n        /* \"#utility.yul\":3462:3463   */\n      0x00\n        /* \"#utility.yul\":3451:3460   */\n      dup4\n        /* \"#utility.yul\":3447:3464   */\n      add\n        /* \"#utility.yul\":3438:3444   */\n      dup5\n        /* \"#utility.yul\":3400:3465   */\n      tag_231\n      jump\t// in\n    tag_307:\n        /* \"#utility.yul\":3262:3472   */\n      swap3\n      swap2\n      pop\n      pop\n      jump\t// out\n        /* \"#utility.yul\":3478:3647   */\n    tag_232:\n        /* \"#utility.yul\":3562:3573   */\n      0x00\n        /* \"#utility.yul\":3596:3602   */\n      dup3\n        /* \"#utility.yul\":3591:3594   */\n      dup3\n        /* \"#utility.yul\":3584:3603   */\n      mstore\n        /* \"#utility.yul\":3636:3640   */\n      0x20\n        /* \"#utility.yul\":3631:3634   */\n      dup3\n        /* \"#utility.yul\":3627:3641   */\n      add\n        /* \"#utility.yul\":3612:3641   */\n      swap1\n      pop\n        /* \"#utility.yul\":3478:3647   */\n      swap3\n      swap2\n      pop\n      pop\n      jump\t// out\n        /* \"#utility.yul\":3653:3825   */\n    tag_233:\n        /* \"#utility.yul\":3793:3817   */\n      0x6469646e27742073656e6420656e6f7567682055534400000000000000000000\n        /* \"#utility.yul\":3789:3790   */\n      0x00\n        /* \"#utility.yul\":3781:3787   */\n      dup3\n        /* \"#utility.yul\":3777:3791   */\n      add\n        /* \"#utility.yul\":3770:3818   */\n      mstore\n        /* \"#utility.yul\":3653:3825   */\n      pop\n      jump\t// out\n        /* \"#utility.yul\":3831:4197   */\n    tag_234:\n        /* \"#utility.yul\":3973:3976   */\n      0x00\n        /* \"#utility.yul\":3994:4061   */\n      tag_311\n        /* \"#utility.yul\":4058:4060   */\n      0x16\n        /* \"#utility.yul\":4053:4056   */\n      dup4\n        /* \"#utility.yul\":3994:4061   */\n      tag_232\n      jump\t// in\n    tag_311:\n        /* \"#utility.yul\":3987:4061   */\n      swap2\n      pop\n        /* \"#utility.yul\":4070:4163   */\n      tag_312\n        /* \"#utility.yul\":4159:4162   */\n      dup3\n        /* \"#utility.yul\":4070:4163   */\n      tag_233\n      jump\t// in\n    tag_312:\n        /* \"#utility.yul\":4188:4190   */\n      0x20\n        /* \"#utility.yul\":4183:4186   */\n      dup3\n        /* \"#utility.yul\":4179:4191   */\n      add\n        /* \"#utility.yul\":4172:4191   */\n      swap1\n      pop\n        /* \"#utility.yul\":3831:4197   */\n      swap2\n      swap1\n      pop\n      jump\t// out\n        /* \"#utility.yul\":4203:4622   */\n    tag_94:\n        /* \"#utility.yul\":4369:4373   */\n      0x00\n        /* \"#utility.yul\":4407:4409   */\n      0x20\n        /* \"#utility.yul\":4396:4405   */\n      dup3\n        /* \"#utility.yul\":4392:4410   */\n      add\n        /* \"#utility.yul\":4384:4410   */\n      swap1\n      pop\n        /* \"#utility.yul\":4456:4465   */\n      dup2\n        /* \"#utility.yul\":4450:4454   */\n      dup2\n        /* \"#utility.yul\":4446:4466   */\n      sub\n        /* \"#utility.yul\":4442:4443   */\n      0x00\n        /* \"#utility.yul\":4431:4440   */\n      dup4\n        /* \"#utility.yul\":4427:4444   */\n      add\n        /* \"#utility.yul\":4420:4467   */\n      mstore\n        /* \"#utility.yul\":4484:4615   */\n      tag_314\n        /* \"#utility.yul\":4610:4614   */\n      dup2\n        /* \"#utility.yul\":4484:4615   */\n      tag_234\n      jump\t// in\n    tag_314:\n        /* \"#utility.yul\":4476:4615   */\n      swap1\n      pop\n        /* \"#utility.yul\":4203:4622   */\n      swap2\n      swap1\n      pop\n      jump\t// out\n        /* \"#utility.yul\":4628:4808   */\n    tag_235:\n        /* \"#utility.yul\":4676:4753   */\n      0x4e487b7100000000000000000000000000000000000000000000000000000000\n        /* \"#utility.yul\":4673:4674   */\n      0x00\n        /* \"#utility.yul\":4666:4754   */\n      mstore\n        /* \"#utility.yul\":4773:4777   */\n      0x11\n        /* \"#utility.yul\":4770:4771   */\n      0x04\n        /* \"#utility.yul\":4763:4778   */\n      mstore\n        /* \"#utility.yul\":4797:4801   */\n      0x24\n        /* \"#utility.yul\":4794:4795   */\n      0x00\n        /* \"#utility.yul\":4787:4802   */\n      revert\n        /* \"#utility.yul\":4814:5005   */\n    tag_98:\n        /* \"#utility.yul\":4854:4857   */\n      0x00\n        /* \"#utility.yul\":4873:4893   */\n      tag_317\n        /* \"#utility.yul\":4891:4892   */\n      dup3\n        /* \"#utility.yul\":4873:4893   */\n      tag_225\n      jump\t// in\n    tag_317:\n        /* \"#utility.yul\":4868:4893   */\n      swap2\n      pop\n        /* \"#utility.yul\":4907:4927   */\n      tag_318\n        /* \"#utility.yul\":4925:4926   */\n      dup4\n        /* \"#utility.yul\":4907:4927   */\n      tag_225\n      jump\t// in\n    tag_318:\n        /* \"#utility.yul\":4902:4927   */\n      swap3\n      pop\n        /* \"#utility.yul\":4950:4951   */\n      dup3\n        /* \"#utility.yul\":4947:4948   */\n      dup3\n        /* \"#utility.yul\":4943:4952   */\n      add\n        /* \"#utility.yul\":4936:4952   */\n      swap1\n      pop\n        /* \"#utility.yul\":4971:4974   */\n      dup1\n        /* \"#utility.yul\":4968:4969   */\n      dup3\n        /* \"#utility.yul\":4965:4975   */\n      gt\n        /* \"#utility.yul\":4962:4998   */\n      iszero\n      tag_319\n      jumpi\n        /* \"#utility.yul\":4978:4996   */\n      tag_320\n      tag_235\n      jump\t// in\n    tag_320:\n        /* \"#utility.yul\":4962:4998   */\n    tag_319:\n        /* \"#utility.yul\":4814:5005   */\n      swap3\n      swap2\n      pop\n      pop\n      jump\t// out\n        /* \"#utility.yul\":5011:5239   */\n    tag_236:\n        /* \"#utility.yul\":5151:5185   */\n      0x4e6f2072652d656e7472616e637920616c6c6f7765642c20706c656173652074\n        /* \"#utility.yul\":5147:5148   */\n      0x00\n        /* \"#utility.yul\":5139:5145   */\n      dup3\n        /* \"#utility.yul\":5135:5149   */\n      add\n        /* \"#utility.yul\":5128:5186   */\n      mstore\n        /* \"#utility.yul\":5220:5231   */\n      0x727920616761696e2e0000000000000000000000000000000000000000000000\n        /* \"#utility.yul\":5215:5217   */\n      0x20\n        /* \"#utility.yul\":5207:5213   */\n      dup3\n        /* \"#utility.yul\":5203:5218   */\n      add\n        /* \"#utility.yul\":5196:5232   */\n      mstore\n        /* \"#utility.yul\":5011:5239   */\n      pop\n      jump\t// out\n        /* \"#utility.yul\":5245:5611   */\n    tag_237:\n        /* \"#utility.yul\":5387:5390   */\n      0x00\n        /* \"#utility.yul\":5408:5475   */\n      tag_323\n        /* \"#utility.yul\":5472:5474   */\n      0x29\n        /* \"#utility.yul\":5467:5470   */\n      dup4\n        /* \"#utility.yul\":5408:5475   */\n      tag_232\n      jump\t// in\n    tag_323:\n        /* \"#utility.yul\":5401:5475   */\n      swap2\n      pop\n        /* \"#utility.yul\":5484:5577   */\n      tag_324\n        /* \"#utility.yul\":5573:5576   */\n      dup3\n        /* \"#utility.yul\":5484:5577   */\n      tag_236\n      jump\t// in\n    tag_324:\n        /* \"#utility.yul\":5602:5604   */\n      0x40\n        /* \"#utility.yul\":5597:5600   */\n      dup3\n        /* \"#utility.yul\":5593:5605   */\n      add\n        /* \"#utility.yul\":5586:5605   */\n      swap1\n      pop\n        /* \"#utility.yul\":5245:5611   */\n      swap2\n      swap1\n      pop\n      jump\t// out\n        /* \"#utility.yul\":5617:6036   */\n    tag_102:\n        /* \"#utility.yul\":5783:5787   */\n      0x00\n        /* \"#utility.yul\":5821:5823   */\n      0x20\n        /* \"#utility.yul\":5810:5819   */\n      dup3\n        /* \"#utility.yul\":5806:5824   */\n      add\n        /* \"#utility.yul\":5798:5824   */\n      swap1\n      pop\n        /* \"#utility.yul\":5870:5879   */\n      dup2\n        /* \"#utility.yul\":5864:5868   */\n      dup2\n        /* \"#utility.yul\":5860:5880   */\n      sub\n        /* \"#utility.yul\":5856:5857   */\n      0x00\n        /* \"#utility.yul\":5845:5854   */\n      dup4\n        /* \"#utility.yul\":5841:5858   */\n      add\n        /* \"#utility.yul\":5834:5881   */\n      mstore\n        /* \"#utility.yul\":5898:6029   */\n      tag_326\n        /* \"#utility.yul\":6024:6028   */\n      dup2\n        /* \"#utility.yul\":5898:6029   */\n      tag_237\n      jump\t// in\n    tag_326:\n        /* \"#utility.yul\":5890:6029   */\n      swap1\n      pop\n        /* \"#utility.yul\":5617:6036   */\n      swap2\n      swap1\n      pop\n      jump\t// out\n        /* \"#utility.yul\":6042:6277   */\n    tag_238:\n        /* \"#utility.yul\":6182:6216   */\n      0x416464726573732063616e6e6f74206265206368616e67656420746f20612030\n        /* \"#utility.yul\":6178:6179   */\n      0x00\n        /* \"#utility.yul\":6170:6176   */\n      dup3\n        /* \"#utility.yul\":6166:6180   */\n      add\n        /* \"#utility.yul\":6159:6217   */\n      mstore\n        /* \"#utility.yul\":6251:6269   */\n      0x7830206e756c6c20616464726573732e00000000000000000000000000000000\n        /* \"#utility.yul\":6246:6248   */\n      0x20\n        /* \"#utility.yul\":6238:6244   */\n      dup3\n        /* \"#utility.yul\":6234:6249   */\n      add\n        /* \"#utility.yul\":6227:6270   */\n      mstore\n        /* \"#utility.yul\":6042:6277   */\n      pop\n      jump\t// out\n        /* \"#utility.yul\":6283:6649   */\n    tag_239:\n        /* \"#utility.yul\":6425:6428   */\n      0x00\n        /* \"#utility.yul\":6446:6513   */\n      tag_329\n        /* \"#utility.yul\":6510:6512   */\n      0x30\n        /* \"#utility.yul\":6505:6508   */\n      dup4\n        /* \"#utility.yul\":6446:6513   */\n      tag_232\n      jump\t// in\n    tag_329:\n        /* \"#utility.yul\":6439:6513   */\n      swap2\n      pop\n        /* \"#utility.yul\":6522:6615   */\n      tag_330\n        /* \"#utility.yul\":6611:6614   */\n      dup3\n        /* \"#utility.yul\":6522:6615   */\n      tag_238\n      jump\t// in\n    tag_330:\n        /* \"#utility.yul\":6640:6642   */\n      0x40\n        /* \"#utility.yul\":6635:6638   */\n      dup3\n        /* \"#utility.yul\":6631:6643   */\n      add\n        /* \"#utility.yul\":6624:6643   */\n      swap1\n      pop\n        /* \"#utility.yul\":6283:6649   */\n      swap2\n      swap1\n      pop\n      jump\t// out\n        /* \"#utility.yul\":6655:7074   */\n    tag_106:\n        /* \"#utility.yul\":6821:6825   */\n      0x00\n        /* \"#utility.yul\":6859:6861   */\n      0x20\n        /* \"#utility.yul\":6848:6857   */\n      dup3\n        /* \"#utility.yul\":6844:6862   */\n      add\n        /* \"#utility.yul\":6836:6862   */\n      swap1\n      pop\n        /* \"#utility.yul\":6908:6917   */\n      dup2\n        /* \"#utility.yul\":6902:6906   */\n      dup2\n        /* \"#utility.yul\":6898:6918   */\n      sub\n        /* \"#utility.yul\":6894:6895   */\n      0x00\n        /* \"#utility.yul\":6883:6892   */\n      dup4\n        /* \"#utility.yul\":6879:6896   */\n      add\n        /* \"#utility.yul\":6872:6919   */\n      mstore\n        /* \"#utility.yul\":6936:7067   */\n      tag_332\n        /* \"#utility.yul\":7062:7066   */\n      dup2\n        /* \"#utility.yul\":6936:7067   */\n      tag_239\n      jump\t// in\n    tag_332:\n        /* \"#utility.yul\":6928:7067   */\n      swap1\n      pop\n        /* \"#utility.yul\":6655:7074   */\n      swap2\n      swap1\n      pop\n      jump\t// out\n        /* \"#utility.yul\":7080:7261   */\n    tag_240:\n        /* \"#utility.yul\":7220:7253   */\n      0x57616c6c65742061646472657373206973206e6f7420612066756e6465722e00\n        /* \"#utility.yul\":7216:7217   */\n      0x00\n        /* \"#utility.yul\":7208:7214   */\n      dup3\n        /* \"#utility.yul\":7204:7218   */\n      add\n        /* \"#utility.yul\":7197:7254   */\n      mstore\n        /* \"#utility.yul\":7080:7261   */\n      pop\n      jump\t// out\n        /* \"#utility.yul\":7267:7633   */\n    tag_241:\n        /* \"#utility.yul\":7409:7412   */\n      0x00\n        /* \"#utility.yul\":7430:7497   */\n      tag_335\n        /* \"#utility.yul\":7494:7496   */\n      0x1f\n        /* \"#utility.yul\":7489:7492   */\n      dup4\n        /* \"#utility.yul\":7430:7497   */\n      tag_232\n      jump\t// in\n    tag_335:\n        /* \"#utility.yul\":7423:7497   */\n      swap2\n      pop\n        /* \"#utility.yul\":7506:7599   */\n      tag_336\n        /* \"#utility.yul\":7595:7598   */\n      dup3\n        /* \"#utility.yul\":7506:7599   */\n      tag_240\n      jump\t// in\n    tag_336:\n        /* \"#utility.yul\":7624:7626   */\n      0x20\n        /* \"#utility.yul\":7619:7622   */\n      dup3\n        /* \"#utility.yul\":7615:7627   */\n      add\n        /* \"#utility.yul\":7608:7627   */\n      swap1\n      pop\n        /* \"#utility.yul\":7267:7633   */\n      swap2\n      swap1\n      pop\n      jump\t// out\n        /* \"#utility.yul\":7639:8058   */\n    tag_109:\n        /* \"#utility.yul\":7805:7809   */\n      0x00\n        /* \"#utility.yul\":7843:7845   */\n      0x20\n        /* \"#utility.yul\":7832:7841   */\n      dup3\n        /* \"#utility.yul\":7828:7846   */\n      add\n        /* \"#utility.yul\":7820:7846   */\n      swap1\n      pop\n        /* \"#utility.yul\":7892:7901   */\n      dup2\n        /* \"#utility.yul\":7886:7890   */\n      dup2\n        /* \"#utility.yul\":7882:7902   */\n      sub\n        /* \"#utility.yul\":7878:7879   */\n      0x00\n        /* \"#utility.yul\":7867:7876   */\n      dup4\n        /* \"#utility.yul\":7863:7880   */\n      add\n        /* \"#utility.yul\":7856:7903   */\n      mstore\n        /* \"#utility.yul\":7920:8051   */\n      tag_338\n        /* \"#utility.yul\":8046:8050   */\n      dup2\n        /* \"#utility.yul\":7920:8051   */\n      tag_241\n      jump\t// in\n    tag_338:\n        /* \"#utility.yul\":7912:8051   */\n      swap1\n      pop\n        /* \"#utility.yul\":7639:8058   */\n      swap2\n      swap1\n      pop\n      jump\t// out\n        /* \"#utility.yul\":8064:8474   */\n    tag_117:\n        /* \"#utility.yul\":8104:8111   */\n      0x00\n        /* \"#utility.yul\":8127:8147   */\n      tag_340\n        /* \"#utility.yul\":8145:8146   */\n      dup3\n        /* \"#utility.yul\":8127:8147   */\n      tag_225\n      jump\t// in\n    tag_340:\n        /* \"#utility.yul\":8122:8147   */\n      swap2\n      pop\n        /* \"#utility.yul\":8161:8181   */\n      tag_341\n        /* \"#utility.yul\":8179:8180   */\n      dup4\n        /* \"#utility.yul\":8161:8181   */\n      tag_225\n      jump\t// in\n    tag_341:\n        /* \"#utility.yul\":8156:8181   */\n      swap3\n      pop\n        /* \"#utility.yul\":8216:8217   */\n      dup3\n        /* \"#utility.yul\":8213:8214   */\n      dup3\n        /* \"#utility.yul\":8209:8218   */\n      mul\n        /* \"#utility.yul\":8238:8268   */\n      tag_342\n        /* \"#utility.yul\":8256:8267   */\n      dup2\n        /* \"#utility.yul\":8238:8268   */\n      tag_225\n      jump\t// in\n    tag_342:\n        /* \"#utility.yul\":8227:8268   */\n      swap2\n      pop\n        /* \"#utility.yul\":8417:8418   */\n      dup3\n        /* \"#utility.yul\":8408:8415   */\n      dup3\n        /* \"#utility.yul\":8404:8419   */\n      div\n        /* \"#utility.yul\":8401:8402   */\n      dup5\n        /* \"#utility.yul\":8398:8420   */\n      eq\n        /* \"#utility.yul\":8378:8379   */\n      dup4\n        /* \"#utility.yul\":8371:8380   */\n      iszero\n        /* \"#utility.yul\":8351:8434   */\n      or\n        /* \"#utility.yul\":8328:8467   */\n      tag_343\n      jumpi\n        /* \"#utility.yul\":8447:8465   */\n      tag_344\n      tag_235\n      jump\t// in\n    tag_344:\n        /* \"#utility.yul\":8328:8467   */\n    tag_343:\n        /* \"#utility.yul\":8112:8474   */\n      pop\n        /* \"#utility.yul\":8064:8474   */\n      swap3\n      swap2\n      pop\n      pop\n      jump\t// out\n        /* \"#utility.yul\":8480:8660   */\n    tag_242:\n        /* \"#utility.yul\":8528:8605   */\n      0x4e487b7100000000000000000000000000000000000000000000000000000000\n        /* \"#utility.yul\":8525:8526   */\n      0x00\n        /* \"#utility.yul\":8518:8606   */\n      mstore\n        /* \"#utility.yul\":8625:8629   */\n      0x12\n        /* \"#utility.yul\":8622:8623   */\n      0x04\n        /* \"#utility.yul\":8615:8630   */\n      mstore\n        /* \"#utility.yul\":8649:8653   */\n      0x24\n        /* \"#utility.yul\":8646:8647   */\n      0x00\n        /* \"#utility.yul\":8639:8654   */\n      revert\n        /* \"#utility.yul\":8666:8851   */\n    tag_119:\n        /* \"#utility.yul\":8706:8707   */\n      0x00\n        /* \"#utility.yul\":8723:8743   */\n      tag_347\n        /* \"#utility.yul\":8741:8742   */\n      dup3\n        /* \"#utility.yul\":8723:8743   */\n      tag_225\n      jump\t// in\n    tag_347:\n        /* \"#utility.yul\":8718:8743   */\n      swap2\n      pop\n        /* \"#utility.yul\":8757:8777   */\n      tag_348\n        /* \"#utility.yul\":8775:8776   */\n      dup4\n        /* \"#utility.yul\":8757:8777   */\n      tag_225\n      jump\t// in\n    tag_348:\n        /* \"#utility.yul\":8752:8777   */\n      swap3\n      pop\n        /* \"#utility.yul\":8796:8797   */\n      dup3\n        /* \"#utility.yul\":8786:8821   */\n      tag_349\n      jumpi\n        /* \"#utility.yul\":8801:8819   */\n      tag_350\n      tag_242\n      jump\t// in\n    tag_350:\n        /* \"#utility.yul\":8786:8821   */\n    tag_349:\n        /* \"#utility.yul\":8843:8844   */\n      dup3\n        /* \"#utility.yul\":8840:8841   */\n      dup3\n        /* \"#utility.yul\":8836:8845   */\n      div\n        /* \"#utility.yul\":8831:8845   */\n      swap1\n      pop\n        /* \"#utility.yul\":8666:8851   */\n      swap3\n      swap2\n      pop\n      pop\n      jump\t// out\n        /* \"#utility.yul\":8857:9027   */\n    tag_243:\n        /* \"#utility.yul\":8997:9019   */\n      0x496e73756666696369656e742062616c616e6365000000000000000000000000\n        /* \"#utility.yul\":8993:8994   */\n      0x00\n        /* \"#utility.yul\":8985:8991   */\n      dup3\n        /* \"#utility.yul\":8981:8995   */\n      add\n        /* \"#utility.yul\":8974:9020   */\n      mstore\n        /* \"#utility.yul\":8857:9027   */\n      pop\n      jump\t// out\n        /* \"#utility.yul\":9033:9399   */\n    tag_244:\n        /* \"#utility.yul\":9175:9178   */\n      0x00\n        /* \"#utility.yul\":9196:9263   */\n      tag_353\n        /* \"#utility.yul\":9260:9262   */\n      0x14\n        /* \"#utility.yul\":9255:9258   */\n      dup4\n        /* \"#utility.yul\":9196:9263   */\n      tag_232\n      jump\t// in\n    tag_353:\n        /* \"#utility.yul\":9189:9263   */\n      swap2\n      pop\n        /* \"#utility.yul\":9272:9365   */\n      tag_354\n        /* \"#utility.yul\":9361:9364   */\n      dup3\n        /* \"#utility.yul\":9272:9365   */\n      tag_243\n      jump\t// in\n    tag_354:\n        /* \"#utility.yul\":9390:9392   */\n      0x20\n        /* \"#utility.yul\":9385:9388   */\n      dup3\n        /* \"#utility.yul\":9381:9393   */\n      add\n        /* \"#utility.yul\":9374:9393   */\n      swap1\n      pop\n        /* \"#utility.yul\":9033:9399   */\n      swap2\n      swap1\n      pop\n      jump\t// out\n        /* \"#utility.yul\":9405:9824   */\n    tag_126:\n        /* \"#utility.yul\":9571:9575   */\n      0x00\n        /* \"#utility.yul\":9609:9611   */\n      0x20\n        /* \"#utility.yul\":9598:9607   */\n      dup3\n        /* \"#utility.yul\":9594:9612   */\n      add\n        /* \"#utility.yul\":9586:9612   */\n      swap1\n      pop\n        /* \"#utility.yul\":9658:9667   */\n      dup2\n        /* \"#utility.yul\":9652:9656   */\n      dup2\n        /* \"#utility.yul\":9648:9668   */\n      sub\n        /* \"#utility.yul\":9644:9645   */\n      0x00\n        /* \"#utility.yul\":9633:9642   */\n      dup4\n        /* \"#utility.yul\":9629:9646   */\n      add\n        /* \"#utility.yul\":9622:9669   */\n      mstore\n        /* \"#utility.yul\":9686:9817   */\n      tag_356\n        /* \"#utility.yul\":9812:9816   */\n      dup2\n        /* \"#utility.yul\":9686:9817   */\n      tag_244\n      jump\t// in\n    tag_356:\n        /* \"#utility.yul\":9678:9817   */\n      swap1\n      pop\n        /* \"#utility.yul\":9405:9824   */\n      swap2\n      swap1\n      pop\n      jump\t// out\n        /* \"#utility.yul\":9830:9977   */\n    tag_245:\n        /* \"#utility.yul\":9931:9942   */\n      0x00\n        /* \"#utility.yul\":9968:9971   */\n      dup2\n        /* \"#utility.yul\":9953:9971   */\n      swap1\n      pop\n        /* \"#utility.yul\":9830:9977   */\n      swap3\n      swap2\n      pop\n      pop\n      jump\t// out\n        /* \"#utility.yul\":9983:10097   */\n    tag_246:\n      pop\n      jump\t// out\n        /* \"#utility.yul\":10103:10501   */\n    tag_247:\n        /* \"#utility.yul\":10262:10265   */\n      0x00\n        /* \"#utility.yul\":10283:10366   */\n      tag_360\n        /* \"#utility.yul\":10364:10365   */\n      0x00\n        /* \"#utility.yul\":10359:10362   */\n      dup4\n        /* \"#utility.yul\":10283:10366   */\n      tag_245\n      jump\t// in\n    tag_360:\n        /* \"#utility.yul\":10276:10366   */\n      swap2\n      pop\n        /* \"#utility.yul\":10375:10468   */\n      tag_361\n        /* \"#utility.yul\":10464:10467   */\n      dup3\n        /* \"#utility.yul\":10375:10468   */\n      tag_246\n      jump\t// in\n    tag_361:\n        /* \"#utility.yul\":10493:10494   */\n      0x00\n        /* \"#utility.yul\":10488:10491   */\n      dup3\n        /* \"#utility.yul\":10484:10495   */\n      add\n        /* \"#utility.yul\":10477:10495   */\n      swap1\n      pop\n        /* \"#utility.yul\":10103:10501   */\n      swap2\n      swap1\n      pop\n      jump\t// out\n        /* \"#utility.yul\":10507:10886   */\n    tag_128:\n        /* \"#utility.yul\":10691:10694   */\n      0x00\n        /* \"#utility.yul\":10713:10860   */\n      tag_363\n        /* \"#utility.yul\":10856:10859   */\n      dup3\n        /* \"#utility.yul\":10713:10860   */\n      tag_247\n      jump\t// in\n    tag_363:\n        /* \"#utility.yul\":10706:10860   */\n      swap2\n      pop\n        /* \"#utility.yul\":10877:10880   */\n      dup2\n        /* \"#utility.yul\":10870:10880   */\n      swap1\n      pop\n        /* \"#utility.yul\":10507:10886   */\n      swap2\n      swap1\n      pop\n      jump\t// out\n        /* \"#utility.yul\":10892:11058   */\n    tag_248:\n        /* \"#utility.yul\":11032:11050   */\n      0x5472616e73666572206661696c65642e00000000000000000000000000000000\n        /* \"#utility.yul\":11028:11029   */\n      0x00\n        /* \"#utility.yul\":11020:11026   */\n      dup3\n        /* \"#utility.yul\":11016:11030   */\n      add\n        /* \"#utility.yul\":11009:11051   */\n      mstore\n        /* \"#utility.yul\":10892:11058   */\n      pop\n      jump\t// out\n        /* \"#utility.yul\":11064:11430   */\n    tag_249:\n        /* \"#utility.yul\":11206:11209   */\n      0x00\n        /* \"#utility.yul\":11227:11294   */\n      tag_366\n        /* \"#utility.yul\":11291:11293   */\n      0x10\n        /* \"#utility.yul\":11286:11289   */\n      dup4\n        /* \"#utility.yul\":11227:11294   */\n      tag_232\n      jump\t// in\n    tag_366:\n        /* \"#utility.yul\":11220:11294   */\n      swap2\n      pop\n        /* \"#utility.yul\":11303:11396   */\n      tag_367\n        /* \"#utility.yul\":11392:11395   */\n      dup3\n        /* \"#utility.yul\":11303:11396   */\n      tag_248\n      jump\t// in\n    tag_367:\n        /* \"#utility.yul\":11421:11423   */\n      0x20\n        /* \"#utility.yul\":11416:11419   */\n      dup3\n        /* \"#utility.yul\":11412:11424   */\n      add\n        /* \"#utility.yul\":11405:11424   */\n      swap1\n      pop\n        /* \"#utility.yul\":11064:11430   */\n      swap2\n      swap1\n      pop\n      jump\t// out\n        /* \"#utility.yul\":11436:11855   */\n    tag_134:\n        /* \"#utility.yul\":11602:11606   */\n      0x00\n        /* \"#utility.yul\":11640:11642   */\n      0x20\n        /* \"#utility.yul\":11629:11638   */\n      dup3\n        /* \"#utility.yul\":11625:11643   */\n      add\n        /* \"#utility.yul\":11617:11643   */\n      swap1\n      pop\n        /* \"#utility.yul\":11689:11698   */\n      dup2\n        /* \"#utility.yul\":11683:11687   */\n      dup2\n        /* \"#utility.yul\":11679:11699   */\n      sub\n        /* \"#utility.yul\":11675:11676   */\n      0x00\n        /* \"#utility.yul\":11664:11673   */\n      dup4\n        /* \"#utility.yul\":11660:11677   */\n      add\n        /* \"#utility.yul\":11653:11700   */\n      mstore\n        /* \"#utility.yul\":11717:11848   */\n      tag_369\n        /* \"#utility.yul\":11843:11847   */\n      dup2\n        /* \"#utility.yul\":11717:11848   */\n      tag_249\n      jump\t// in\n    tag_369:\n        /* \"#utility.yul\":11709:11848   */\n      swap1\n      pop\n        /* \"#utility.yul\":11436:11855   */\n      swap2\n      swap1\n      pop\n      jump\t// out\n        /* \"#utility.yul\":11861:12085   */\n    tag_250:\n        /* \"#utility.yul\":12001:12035   */\n      0x4f6e6c79206f776e65722063616e206578656375746520746869732066756e63\n        /* \"#utility.yul\":11997:11998   */\n      0x00\n        /* \"#utility.yul\":11989:11995   */\n      dup3\n        /* \"#utility.yul\":11985:11999   */\n      add\n        /* \"#utility.yul\":11978:12036   */\n      mstore\n        /* \"#utility.yul\":12070:12077   */\n      0x74696f6e2e000000000000000000000000000000000000000000000000000000\n        /* \"#utility.yul\":12065:12067   */\n      0x20\n        /* \"#utility.yul\":12057:12063   */\n      dup3\n        /* \"#utility.yul\":12053:12068   */\n      add\n        /* \"#utility.yul\":12046:12078   */\n      mstore\n        /* \"#utility.yul\":11861:12085   */\n      pop\n      jump\t// out\n        /* \"#utility.yul\":12091:12457   */\n    tag_251:\n        /* \"#utility.yul\":12233:12236   */\n      0x00\n        /* \"#utility.yul\":12254:12321   */\n      tag_372\n        /* \"#utility.yul\":12318:12320   */\n      0x25\n        /* \"#utility.yul\":12313:12316   */\n      dup4\n        /* \"#utility.yul\":12254:12321   */\n      tag_232\n      jump\t// in\n    tag_372:\n        /* \"#utility.yul\":12247:12321   */\n      swap2\n      pop\n        /* \"#utility.yul\":12330:12423   */\n      tag_373\n        /* \"#utility.yul\":12419:12422   */\n      dup3\n        /* \"#utility.yul\":12330:12423   */\n      tag_250\n      jump\t// in\n    tag_373:\n        /* \"#utility.yul\":12448:12450   */\n      0x40\n        /* \"#utility.yul\":12443:12446   */\n      dup3\n        /* \"#utility.yul\":12439:12451   */\n      add\n        /* \"#utility.yul\":12432:12451   */\n      swap1\n      pop\n        /* \"#utility.yul\":12091:12457   */\n      swap2\n      swap1\n      pop\n      jump\t// out\n        /* \"#utility.yul\":12463:12882   */\n    tag_139:\n        /* \"#utility.yul\":12629:12633   */\n      0x00\n        /* \"#utility.yul\":12667:12669   */\n      0x20\n        /* \"#utility.yul\":12656:12665   */\n      dup3\n        /* \"#utility.yul\":12652:12670   */\n      add\n        /* \"#utility.yul\":12644:12670   */\n      swap1\n      pop\n        /* \"#utility.yul\":12716:12725   */\n      dup2\n        /* \"#utility.yul\":12710:12714   */\n      dup2\n        /* \"#utility.yul\":12706:12726   */\n      sub\n        /* \"#utility.yul\":12702:12703   */\n      0x00\n        /* \"#utility.yul\":12691:12700   */\n      dup4\n        /* \"#utility.yul\":12687:12704   */\n      add\n        /* \"#utility.yul\":12680:12727   */\n      mstore\n        /* \"#utility.yul\":12744:12875   */\n      tag_375\n        /* \"#utility.yul\":12870:12874   */\n      dup2\n        /* \"#utility.yul\":12744:12875   */\n      tag_251\n      jump\t// in\n    tag_375:\n        /* \"#utility.yul\":12736:12875   */\n      swap1\n      pop\n        /* \"#utility.yul\":12463:12882   */\n      swap2\n      swap1\n      pop\n      jump\t// out\n        /* \"#utility.yul\":12888:13082   */\n    tag_156:\n        /* \"#utility.yul\":12928:12932   */\n      0x00\n        /* \"#utility.yul\":12948:12968   */\n      tag_377\n        /* \"#utility.yul\":12966:12967   */\n      dup3\n        /* \"#utility.yul\":12948:12968   */\n      tag_225\n      jump\t// in\n    tag_377:\n        /* \"#utility.yul\":12943:12968   */\n      swap2\n      pop\n        /* \"#utility.yul\":12982:13002   */\n      tag_378\n        /* \"#utility.yul\":13000:13001   */\n      dup4\n        /* \"#utility.yul\":12982:13002   */\n      tag_225\n      jump\t// in\n    tag_378:\n        /* \"#utility.yul\":12977:13002   */\n      swap3\n      pop\n        /* \"#utility.yul\":13026:13027   */\n      dup3\n        /* \"#utility.yul\":13023:13024   */\n      dup3\n        /* \"#utility.yul\":13019:13028   */\n      sub\n        /* \"#utility.yul\":13011:13028   */\n      swap1\n      pop\n        /* \"#utility.yul\":13050:13051   */\n      dup2\n        /* \"#utility.yul\":13044:13048   */\n      dup2\n        /* \"#utility.yul\":13041:13052   */\n      gt\n        /* \"#utility.yul\":13038:13075   */\n      iszero\n      tag_379\n      jumpi\n        /* \"#utility.yul\":13055:13073   */\n      tag_380\n      tag_235\n      jump\t// in\n    tag_380:\n        /* \"#utility.yul\":13038:13075   */\n    tag_379:\n        /* \"#utility.yul\":12888:13082   */\n      swap3\n      swap2\n      pop\n      pop\n      jump\t// out\n        /* \"#utility.yul\":13088:13193   */\n    tag_252:\n        /* \"#utility.yul\":13124:13131   */\n      0x00\n        /* \"#utility.yul\":13164:13186   */\n      0xffffffffffffffffffff\n        /* \"#utility.yul\":13157:13162   */\n      dup3\n        /* \"#utility.yul\":13153:13187   */\n      and\n        /* \"#utility.yul\":13142:13187   */\n      swap1\n      pop\n        /* \"#utility.yul\":13088:13193   */\n      swap2\n      swap1\n      pop\n      jump\t// out\n        /* \"#utility.yul\":13199:13319   */\n    tag_253:\n        /* \"#utility.yul\":13271:13294   */\n      tag_383\n        /* \"#utility.yul\":13288:13293   */\n      dup2\n        /* \"#utility.yul\":13271:13294   */\n      tag_252\n      jump\t// in\n    tag_383:\n        /* \"#utility.yul\":13264:13269   */\n      dup2\n        /* \"#utility.yul\":13261:13295   */\n      eq\n        /* \"#utility.yul\":13251:13313   */\n      tag_384\n      jumpi\n        /* \"#utility.yul\":13309:13310   */\n      0x00\n        /* \"#utility.yul\":13306:13307   */\n      dup1\n        /* \"#utility.yul\":13299:13311   */\n      revert\n        /* \"#utility.yul\":13251:13313   */\n    tag_384:\n        /* \"#utility.yul\":13199:13319   */\n      pop\n      jump\t// out\n        /* \"#utility.yul\":13325:13466   */\n    tag_254:\n        /* \"#utility.yul\":13381:13386   */\n      0x00\n        /* \"#utility.yul\":13412:13418   */\n      dup2\n        /* \"#utility.yul\":13406:13419   */\n      mload\n        /* \"#utility.yul\":13397:13419   */\n      swap1\n      pop\n        /* \"#utility.yul\":13428:13460   */\n      tag_386\n        /* \"#utility.yul\":13454:13459   */\n      dup2\n        /* \"#utility.yul\":13428:13460   */\n      tag_253\n      jump\t// in\n    tag_386:\n        /* \"#utility.yul\":13325:13466   */\n      swap3\n      swap2\n      pop\n      pop\n      jump\t// out\n        /* \"#utility.yul\":13472:13548   */\n    tag_255:\n        /* \"#utility.yul\":13508:13515   */\n      0x00\n        /* \"#utility.yul\":13537:13542   */\n      dup2\n        /* \"#utility.yul\":13526:13542   */\n      swap1\n      pop\n        /* \"#utility.yul\":13472:13548   */\n      swap2\n      swap1\n      pop\n      jump\t// out\n        /* \"#utility.yul\":13554:13674   */\n    tag_256:\n        /* \"#utility.yul\":13626:13649   */\n      tag_389\n        /* \"#utility.yul\":13643:13648   */\n      dup2\n        /* \"#utility.yul\":13626:13649   */\n      tag_255\n      jump\t// in\n    tag_389:\n        /* \"#utility.yul\":13619:13624   */\n      dup2\n        /* \"#utility.yul\":13616:13650   */\n      eq\n        /* \"#utility.yul\":13606:13668   */\n      tag_390\n      jumpi\n        /* \"#utility.yul\":13664:13665   */\n      0x00\n        /* \"#utility.yul\":13661:13662   */\n      dup1\n        /* \"#utility.yul\":13654:13666   */\n      revert\n        /* \"#utility.yul\":13606:13668   */\n    tag_390:\n        /* \"#utility.yul\":13554:13674   */\n      pop\n      jump\t// out\n        /* \"#utility.yul\":13680:13821   */\n    tag_257:\n        /* \"#utility.yul\":13736:13741   */\n      0x00\n        /* \"#utility.yul\":13767:13773   */\n      dup2\n        /* \"#utility.yul\":13761:13774   */\n      mload\n        /* \"#utility.yul\":13752:13774   */\n      swap1\n      pop\n        /* \"#utility.yul\":13783:13815   */\n      tag_392\n        /* \"#utility.yul\":13809:13814   */\n      dup2\n        /* \"#utility.yul\":13783:13815   */\n      tag_256\n      jump\t// in\n    tag_392:\n        /* \"#utility.yul\":13680:13821   */\n      swap3\n      swap2\n      pop\n      pop\n      jump\t// out\n        /* \"#utility.yul\":13827:13970   */\n    tag_258:\n        /* \"#utility.yul\":13884:13889   */\n      0x00\n        /* \"#utility.yul\":13915:13921   */\n      dup2\n        /* \"#utility.yul\":13909:13922   */\n      mload\n        /* \"#utility.yul\":13900:13922   */\n      swap1\n      pop\n        /* \"#utility.yul\":13931:13964   */\n      tag_394\n        /* \"#utility.yul\":13958:13963   */\n      dup2\n        /* \"#utility.yul\":13931:13964   */\n      tag_227\n      jump\t// in\n    tag_394:\n        /* \"#utility.yul\":13827:13970   */\n      swap3\n      swap2\n      pop\n      pop\n      jump\t// out\n        /* \"#utility.yul\":13976:14947   */\n    tag_169:\n        /* \"#utility.yul\":14079:14085   */\n      0x00\n        /* \"#utility.yul\":14087:14093   */\n      dup1\n        /* \"#utility.yul\":14095:14101   */\n      0x00\n        /* \"#utility.yul\":14103:14109   */\n      dup1\n        /* \"#utility.yul\":14111:14117   */\n      0x00\n        /* \"#utility.yul\":14160:14163   */\n      0xa0\n        /* \"#utility.yul\":14148:14157   */\n      dup7\n        /* \"#utility.yul\":14139:14146   */\n      dup9\n        /* \"#utility.yul\":14135:14158   */\n      sub\n        /* \"#utility.yul\":14131:14164   */\n      slt\n        /* \"#utility.yul\":14128:14248   */\n      iszero\n      tag_396\n      jumpi\n        /* \"#utility.yul\":14167:14246   */\n      tag_397\n      tag_219\n      jump\t// in\n    tag_397:\n        /* \"#utility.yul\":14128:14248   */\n    tag_396:\n        /* \"#utility.yul\":14287:14288   */\n      0x00\n        /* \"#utility.yul\":14312:14375   */\n      tag_398\n        /* \"#utility.yul\":14367:14374   */\n      dup9\n        /* \"#utility.yul\":14358:14364   */\n      dup3\n        /* \"#utility.yul\":14347:14356   */\n      dup10\n        /* \"#utility.yul\":14343:14365   */\n      add\n        /* \"#utility.yul\":14312:14375   */\n      tag_254\n      jump\t// in\n    tag_398:\n        /* \"#utility.yul\":14302:14375   */\n      swap6\n      pop\n        /* \"#utility.yul\":14258:14385   */\n      pop\n        /* \"#utility.yul\":14424:14426   */\n      0x20\n        /* \"#utility.yul\":14450:14513   */\n      tag_399\n        /* \"#utility.yul\":14505:14512   */\n      dup9\n        /* \"#utility.yul\":14496:14502   */\n      dup3\n        /* \"#utility.yul\":14485:14494   */\n      dup10\n        /* \"#utility.yul\":14481:14503   */\n      add\n        /* \"#utility.yul\":14450:14513   */\n      tag_257\n      jump\t// in\n    tag_399:\n        /* \"#utility.yul\":14440:14513   */\n      swap5\n      pop\n        /* \"#utility.yul\":14395:14523   */\n      pop\n        /* \"#utility.yul\":14562:14564   */\n      0x40\n        /* \"#utility.yul\":14588:14652   */\n      tag_400\n        /* \"#utility.yul\":14644:14651   */\n      dup9\n        /* \"#utility.yul\":14635:14641   */\n      dup3\n        /* \"#utility.yul\":14624:14633   */\n      dup10\n        /* \"#utility.yul\":14620:14642   */\n      add\n        /* \"#utility.yul\":14588:14652   */\n      tag_258\n      jump\t// in\n    tag_400:\n        /* \"#utility.yul\":14578:14652   */\n      swap4\n      pop\n        /* \"#utility.yul\":14533:14662   */\n      pop\n        /* \"#utility.yul\":14701:14703   */\n      0x60\n        /* \"#utility.yul\":14727:14791   */\n      tag_401\n        /* \"#utility.yul\":14783:14790   */\n      dup9\n        /* \"#utility.yul\":14774:14780   */\n      dup3\n        /* \"#utility.yul\":14763:14772   */\n      dup10\n        /* \"#utility.yul\":14759:14781   */\n      add\n        /* \"#utility.yul\":14727:14791   */\n      tag_258\n      jump\t// in\n    tag_401:\n        /* \"#utility.yul\":14717:14791   */\n      swap3\n      pop\n        /* \"#utility.yul\":14672:14801   */\n      pop\n        /* \"#utility.yul\":14840:14843   */\n      0x80\n        /* \"#utility.yul\":14867:14930   */\n      tag_402\n        /* \"#utility.yul\":14922:14929   */\n      dup9\n        /* \"#utility.yul\":14913:14919   */\n      dup3\n        /* \"#utility.yul\":14902:14911   */\n      dup10\n        /* \"#utility.yul\":14898:14920   */\n      add\n        /* \"#utility.yul\":14867:14930   */\n      tag_254\n      jump\t// in\n    tag_402:\n        /* \"#utility.yul\":14857:14930   */\n      swap2\n      pop\n        /* \"#utility.yul\":14811:14940   */\n      pop\n        /* \"#utility.yul\":13976:14947   */\n      swap3\n      swap6\n      pop\n      swap3\n      swap6\n      swap1\n      swap4\n      pop\n      jump\t// out\n        /* \"#utility.yul\":14953:15130   */\n    tag_259:\n        /* \"#utility.yul\":15093:15122   */\n      0x4e65676174697665207072696365206e6f7420616c6c6f7765642e0000000000\n        /* \"#utility.yul\":15089:15090   */\n      0x00\n        /* \"#utility.yul\":15081:15087   */\n      dup3\n        /* \"#utility.yul\":15077:15091   */\n      add\n        /* \"#utility.yul\":15070:15123   */\n      mstore\n        /* \"#utility.yul\":14953:15130   */\n      pop\n      jump\t// out\n        /* \"#utility.yul\":15136:15502   */\n    tag_260:\n        /* \"#utility.yul\":15278:15281   */\n      0x00\n        /* \"#utility.yul\":15299:15366   */\n      tag_405\n        /* \"#utility.yul\":15363:15365   */\n      0x1b\n        /* \"#utility.yul\":15358:15361   */\n      dup4\n        /* \"#utility.yul\":15299:15366   */\n      tag_232\n      jump\t// in\n    tag_405:\n        /* \"#utility.yul\":15292:15366   */\n      swap2\n      pop\n        /* \"#utility.yul\":15375:15468   */\n      tag_406\n        /* \"#utility.yul\":15464:15467   */\n      dup3\n        /* \"#utility.yul\":15375:15468   */\n      tag_259\n      jump\t// in\n    tag_406:\n        /* \"#utility.yul\":15493:15495   */\n      0x20\n        /* \"#utility.yul\":15488:15491   */\n      dup3\n        /* \"#utility.yul\":15484:15496   */\n      add\n        /* \"#utility.yul\":15477:15496   */\n      swap1\n      pop\n        /* \"#utility.yul\":15136:15502   */\n      swap2\n      swap1\n      pop\n      jump\t// out\n        /* \"#utility.yul\":15508:15927   */\n    tag_172:\n        /* \"#utility.yul\":15674:15678   */\n      0x00\n        /* \"#utility.yul\":15712:15714   */\n      0x20\n        /* \"#utility.yul\":15701:15710   */\n      dup3\n        /* \"#utility.yul\":15697:15715   */\n      add\n        /* \"#utility.yul\":15689:15715   */\n      swap1\n      pop\n        /* \"#utility.yul\":15761:15770   */\n      dup2\n        /* \"#utility.yul\":15755:15759   */\n      dup2\n        /* \"#utility.yul\":15751:15771   */\n      sub\n        /* \"#utility.yul\":15747:15748   */\n      0x00\n        /* \"#utility.yul\":15736:15745   */\n      dup4\n        /* \"#utility.yul\":15732:15749   */\n      add\n        /* \"#utility.yul\":15725:15772   */\n      mstore\n        /* \"#utility.yul\":15789:15920   */\n      tag_408\n        /* \"#utility.yul\":15915:15919   */\n      dup2\n        /* \"#utility.yul\":15789:15920   */\n      tag_260\n      jump\t// in\n    tag_408:\n        /* \"#utility.yul\":15781:15920   */\n      swap1\n      pop\n        /* \"#utility.yul\":15508:15927   */\n      swap2\n      swap1\n      pop\n      jump\t// out\n        /* \"#utility.yul\":15933:16176   */\n    tag_261:\n        /* \"#utility.yul\":16073:16107   */\n      0x43616e6e6f74206368616e6765207468652076616c7565206f66206d696e696d\n        /* \"#utility.yul\":16069:16070   */\n      0x00\n        /* \"#utility.yul\":16061:16067   */\n      dup3\n        /* \"#utility.yul\":16057:16071   */\n      add\n        /* \"#utility.yul\":16050:16108   */\n      mstore\n        /* \"#utility.yul\":16142:16168   */\n      0x756d55736420746f207468652073616d652076616c75652e0000000000000000\n        /* \"#utility.yul\":16137:16139   */\n      0x20\n        /* \"#utility.yul\":16129:16135   */\n      dup3\n        /* \"#utility.yul\":16125:16140   */\n      add\n        /* \"#utility.yul\":16118:16169   */\n      mstore\n        /* \"#utility.yul\":15933:16176   */\n      pop\n      jump\t// out\n        /* \"#utility.yul\":16182:16548   */\n    tag_262:\n        /* \"#utility.yul\":16324:16327   */\n      0x00\n        /* \"#utility.yul\":16345:16412   */\n      tag_411\n        /* \"#utility.yul\":16409:16411   */\n      0x38\n        /* \"#utility.yul\":16404:16407   */\n      dup4\n        /* \"#utility.yul\":16345:16412   */\n      tag_232\n      jump\t// in\n    tag_411:\n        /* \"#utility.yul\":16338:16412   */\n      swap2\n      pop\n        /* \"#utility.yul\":16421:16514   */\n      tag_412\n        /* \"#utility.yul\":16510:16513   */\n      dup3\n        /* \"#utility.yul\":16421:16514   */\n      tag_261\n      jump\t// in\n    tag_412:\n        /* \"#utility.yul\":16539:16541   */\n      0x40\n        /* \"#utility.yul\":16534:16537   */\n      dup3\n        /* \"#utility.yul\":16530:16542   */\n      add\n        /* \"#utility.yul\":16523:16542   */\n      swap1\n      pop\n        /* \"#utility.yul\":16182:16548   */\n      swap2\n      swap1\n      pop\n      jump\t// out\n        /* \"#utility.yul\":16554:16973   */\n    tag_182:\n        /* \"#utility.yul\":16720:16724   */\n      0x00\n        /* \"#utility.yul\":16758:16760   */\n      0x20\n        /* \"#utility.yul\":16747:16756   */\n      dup3\n        /* \"#utility.yul\":16743:16761   */\n      add\n        /* \"#utility.yul\":16735:16761   */\n      swap1\n      pop\n        /* \"#utility.yul\":16807:16816   */\n      dup2\n        /* \"#utility.yul\":16801:16805   */\n      dup2\n        /* \"#utility.yul\":16797:16817   */\n      sub\n        /* \"#utility.yul\":16793:16794   */\n      0x00\n        /* \"#utility.yul\":16782:16791   */\n      dup4\n        /* \"#utility.yul\":16778:16795   */\n      add\n        /* \"#utility.yul\":16771:16818   */\n      mstore\n        /* \"#utility.yul\":16835:16966   */\n      tag_414\n        /* \"#utility.yul\":16961:16965   */\n      dup2\n        /* \"#utility.yul\":16835:16966   */\n      tag_262\n      jump\t// in\n    tag_414:\n        /* \"#utility.yul\":16827:16966   */\n      swap1\n      pop\n        /* \"#utility.yul\":16554:16973   */\n      swap2\n      swap1\n      pop\n      jump\t// out\n        /* \"#utility.yul\":16979:17159   */\n    tag_189:\n        /* \"#utility.yul\":17027:17104   */\n      0x4e487b7100000000000000000000000000000000000000000000000000000000\n        /* \"#utility.yul\":17024:17025   */\n      0x00\n        /* \"#utility.yul\":17017:17105   */\n      mstore\n        /* \"#utility.yul\":17124:17128   */\n      0x32\n        /* \"#utility.yul\":17121:17122   */\n      0x04\n        /* \"#utility.yul\":17114:17129   */\n      mstore\n        /* \"#utility.yul\":17148:17152   */\n      0x24\n        /* \"#utility.yul\":17145:17146   */\n      0x00\n        /* \"#utility.yul\":17138:17153   */\n      revert\n        /* \"#utility.yul\":17165:17345   */\n    tag_198:\n        /* \"#utility.yul\":17213:17290   */\n      0x4e487b7100000000000000000000000000000000000000000000000000000000\n        /* \"#utility.yul\":17210:17211   */\n      0x00\n        /* \"#utility.yul\":17203:17291   */\n      mstore\n        /* \"#utility.yul\":17310:17314   */\n      0x31\n        /* \"#utility.yul\":17307:17308   */\n      0x04\n        /* \"#utility.yul\":17300:17315   */\n      mstore\n        /* \"#utility.yul\":17334:17338   */\n      0x24\n        /* \"#utility.yul\":17331:17332   */\n      0x00\n        /* \"#utility.yul\":17324:17339   */\n      revert\n        /* \"#utility.yul\":17351:17466   */\n    tag_263:\n        /* \"#utility.yul\":17436:17459   */\n      tag_418\n        /* \"#utility.yul\":17453:17458   */\n      dup2\n        /* \"#utility.yul\":17436:17459   */\n      tag_255\n      jump\t// in\n    tag_418:\n        /* \"#utility.yul\":17431:17434   */\n      dup3\n        /* \"#utility.yul\":17424:17460   */\n      mstore\n        /* \"#utility.yul\":17351:17466   */\n      pop\n      pop\n      jump\t// out\n        /* \"#utility.yul\":17472:17690   */\n    tag_212:\n        /* \"#utility.yul\":17563:17567   */\n      0x00\n        /* \"#utility.yul\":17601:17603   */\n      0x20\n        /* \"#utility.yul\":17590:17599   */\n      dup3\n        /* \"#utility.yul\":17586:17604   */\n      add\n        /* \"#utility.yul\":17578:17604   */\n      swap1\n      pop\n        /* \"#utility.yul\":17614:17683   */\n      tag_420\n        /* \"#utility.yul\":17680:17681   */\n      0x00\n        /* \"#utility.yul\":17669:17678   */\n      dup4\n        /* \"#utility.yul\":17665:17682   */\n      add\n        /* \"#utility.yul\":17656:17662   */\n      dup5\n        /* \"#utility.yul\":17614:17683   */\n      tag_263\n      jump\t// in\n    tag_420:\n        /* \"#utility.yul\":17472:17690   */\n      swap3\n      swap2\n      pop\n      pop\n      jump\t// out\n\n    auxdata: 0xa2646970667358221220a66f96acce8b82d2479bdae5a35e9ba9139143e47933e3eb97bc8e7ae8debf3364736f6c634300081a0033\n}\n",
				"bytecode": {
					"linkReferences": {},
					"object": "60a0604052348015600e575f80fd5b503373ffffffffffffffffffffffffffffffffffffffff1660808173ffffffffffffffffffffffffffffffffffffffff1681525050631dcd6500600181905550608051611e0b6100745f395f8181610afd01528181610f9a015261108a0152611e0b5ff3fe6080604052600436106100e0575f3560e01c806398d5fdca1161007e578063d78a29d211610058578063d78a29d214610287578063dba6335f146102af578063dc0d3dff146102d9578063f802457814610315576100ef565b806398d5fdca14610217578063b60d428814610241578063cc3b589e1461024b576100ef565b80633e9f607c116100ba5780633e9f607c14610187578063455fd623146101c35780635eb8d90b146101d957806371d2ee6c146101ef576100ef565b8063034855c7146100f9578063098de8201461013557806311ea94d61461015f576100ef565b366100ef576100ed610351565b005b6100f7610351565b005b348015610104575f80fd5b5061011f600480360381019061011a919061154a565b610550565b60405161012c919061158d565b60405180910390f35b348015610140575f80fd5b50610149610565565b604051610156919061158d565b60405180910390f35b34801561016a575f80fd5b506101856004803603810190610180919061154a565b61056b565b005b348015610192575f80fd5b506101ad60048036038101906101a891906115d0565b6108d0565b6040516101ba919061158d565b60405180910390f35b3480156101ce575f80fd5b506101d76108f8565b005b3480156101e4575f80fd5b506101ed610afb565b005b3480156101fa575f80fd5b506102156004803603810190610210919061160e565b610c43565b005b348015610222575f80fd5b5061022b610ea9565b604051610238919061158d565b60405180910390f35b610249610351565b005b348015610256575f80fd5b50610271600480360381019061026c919061154a565b610f83565b60405161027e919061158d565b60405180910390f35b348015610292575f80fd5b506102ad60048036038101906102a8919061160e565b610f98565b005b3480156102ba575f80fd5b506102c3611088565b6040516102d09190611648565b60405180910390f35b3480156102e4575f80fd5b506102ff60048036038101906102fa919061160e565b6110ac565b60405161030c9190611648565b60405180910390f35b348015610320575f80fd5b5061033b6004803603810190610336919061154a565b6110e7565b604051610348919061167b565b60405180910390f35b5f61035a610ea9565b90505f61036782346108d0565b90506001548110156103ae576040517f08c379a00000000000000000000000000000000000000000000000000000000081526004016103a5906116ee565b60405180910390fd5b60045f3373ffffffffffffffffffffffffffffffffffffffff1673ffffffffffffffffffffffffffffffffffffffff1681526020019081526020015f205f9054906101000a900460ff166104f95760028054905060035f3373ffffffffffffffffffffffffffffffffffffffff1673ffffffffffffffffffffffffffffffffffffffff1681526020019081526020015f2081905550600233908060018154018082558091505060019003905f5260205f20015f9091909190916101000a81548173ffffffffffffffffffffffffffffffffffffffff021916908373ffffffffffffffffffffffffffffffffffffffff160217905550600160045f3373ffffffffffffffffffffffffffffffffffffffff1673ffffffffffffffffffffffffffffffffffffffff1681526020019081526020015f205f6101000a81548160ff0219169083151502179055505b3460055f3373ffffffffffffffffffffffffffffffffffffffff1673ffffffffffffffffffffffffffffffffffffffff1681526020019081526020015f205f8282546105459190611739565b925050819055505050565b6005602052805f5260405f205f915090505481565b60015481565b5f15155f8054906101000a900460ff161515146105bd576040517f08c379a00000000000000000000000000000000000000000000000000000000081526004016105b4906117dc565b60405180910390fd5b60015f806101000a81548160ff0219169083151502179055505f73ffffffffffffffffffffffffffffffffffffffff168173ffffffffffffffffffffffffffffffffffffffff1603610644576040517f08c379a000000000000000000000000000000000000000000000000000000000815260040161063b9061186a565b60405180910390fd5b60045f3373ffffffffffffffffffffffffffffffffffffffff1673ffffffffffffffffffffffffffffffffffffffff1681526020019081526020015f205f9054906101000a900460ff166106cd576040517f08c379a00000000000000000000000000000000000000000000000000000000081526004016106c4906118d2565b60405180910390fd5b5f60055f3373ffffffffffffffffffffffffffffffffffffffff1673ffffffffffffffffffffffffffffffffffffffff1681526020019081526020015f20549050610716611104565b8060055f8473ffffffffffffffffffffffffffffffffffffffff1673ffffffffffffffffffffffffffffffffffffffff1681526020019081526020015f205f8282546107629190611739565b9250508190555060045f8373ffffffffffffffffffffffffffffffffffffffff1673ffffffffffffffffffffffffffffffffffffffff1681526020019081526020015f205f9054906101000a900460ff166108b45760028054905060035f8473ffffffffffffffffffffffffffffffffffffffff1673ffffffffffffffffffffffffffffffffffffffff1681526020019081526020015f2081905550600282908060018154018082558091505060019003905f5260205f20015f9091909190916101000a81548173ffffffffffffffffffffffffffffffffffffffff021916908373ffffffffffffffffffffffffffffffffffffffff160217905550600160045f8473ffffffffffffffffffffffffffffffffffffffff1673ffffffffffffffffffffffffffffffffffffffff1681526020019081526020015f205f6101000a81548160ff0219169083151502179055505b505f805f6101000a81548160ff02191690831515021790555050565b5f670de0b6b3a764000082846108e691906118f0565b6108f0919061195e565b905092915050565b5f15155f8054906101000a900460ff1615151461094a576040517f08c379a0000000000000000000000000000000000000000000000000000000008152600401610941906117dc565b60405180910390fd5b60015f806101000a81548160ff0219169083151502179055505f60055f3373ffffffffffffffffffffffffffffffffffffffff1673ffffffffffffffffffffffffffffffffffffffff1681526020019081526020015f205490505f81116109e6576040517f08c379a00000000000000000000000000000000000000000000000000000000081526004016109dd906119d8565b60405180910390fd5b5f60055f3373ffffffffffffffffffffffffffffffffffffffff1673ffffffffffffffffffffffffffffffffffffffff1681526020019081526020015f20819055505f3373ffffffffffffffffffffffffffffffffffffffff1682604051610a4d90611a23565b5f6040518083038185875af1925050503d805f8114610a87576040519150601f19603f3d011682016040523d82523d5f602084013e610a8c565b606091505b505090506001151581151514610ad7576040517f08c379a0000000000000000000000000000000000000000000000000000000008152600401610ace90611a81565b60405180910390fd5b610adf611104565b50505f805f6101000a81548160ff021916908315150217905550565b7f000000000000000000000000000000000000000000000000000000000000000073ffffffffffffffffffffffffffffffffffffffff163373ffffffffffffffffffffffffffffffffffffffff1614610b89576040517f08c379a0000000000000000000000000000000000000000000000000000000008152600401610b8090611b0f565b60405180910390fd5b5f3373ffffffffffffffffffffffffffffffffffffffff1647604051610bae90611a23565b5f6040518083038185875af1925050503d805f8114610be8576040519150601f19603f3d011682016040523d82523d5f602084013e610bed565b606091505b505090506001151581151514610c38576040517f08c379a0000000000000000000000000000000000000000000000000000000008152600401610c2f90611a81565b60405180910390fd5b610c40611363565b50565b5f15155f8054906101000a900460ff16151514610c95576040517f08c379a0000000000000000000000000000000000000000000000000000000008152600401610c8c906117dc565b60405180910390fd5b60015f806101000a81548160ff0219169083151502179055506001151560045f3373ffffffffffffffffffffffffffffffffffffffff1673ffffffffffffffffffffffffffffffffffffffff1681526020019081526020015f205f9054906101000a900460ff16151514610d3e576040517f08c379a0000000000000000000000000000000000000000000000000000000008152600401610d35906118d2565b60405180910390fd5b8060055f3373ffffffffffffffffffffffffffffffffffffffff1673ffffffffffffffffffffffffffffffffffffffff1681526020019081526020015f205f828254610d8a9190611b2d565b925050819055505f3373ffffffffffffffffffffffffffffffffffffffff1682604051610db690611a23565b5f6040518083038185875af1925050503d805f8114610df0576040519150601f19603f3d011682016040523d82523d5f602084013e610df5565b606091505b505090506001151581151514610e40576040517f08c379a0000000000000000000000000000000000000000000000000000000008152600401610e3790611a81565b60405180910390fd5b5f60055f3373ffffffffffffffffffffffffffffffffffffffff1673ffffffffffffffffffffffffffffffffffffffff1681526020019081526020015f205411610e8d57610e8c611104565b5b505f805f6101000a81548160ff02191690831515021790555050565b5f8073694aa1769357215de4fac081bf1f309adc32530673ffffffffffffffffffffffffffffffffffffffff1663feaf968c6040518163ffffffff1660e01b815260040160a060405180830381865afa158015610f08573d5f803e3d5ffd5b505050506040513d601f19601f82011682018060405250810190610f2c9190611be6565b5050509150505f8113610f74576040517f08c379a0000000000000000000000000000000000000000000000000000000008152600401610f6b90611ca7565b60405180910390fd5b610f7d81611465565b91505090565b6003602052805f5260405f205f915090505481565b7f000000000000000000000000000000000000000000000000000000000000000073ffffffffffffffffffffffffffffffffffffffff163373ffffffffffffffffffffffffffffffffffffffff1614611026576040517f08c379a000000000000000000000000000000000000000000000000000000000815260040161101d90611b0f565b60405180910390fd5b5f6305f5e1008261103791906118f0565b9050600154810361107d576040517f08c379a000000000000000000000000000000000000000000000000000000000815260040161107490611d35565b60405180910390fd5b806001819055505050565b7f000000000000000000000000000000000000000000000000000000000000000081565b600281815481106110bb575f80fd5b905f5260205f20015f915054906101000a900473ffffffffffffffffffffffffffffffffffffffff1681565b6004602052805f5260405f205f915054906101000a900460ff1681565b5f600260016002805490506111199190611b2d565b8154811061112a57611129611d53565b5b905f5260205f20015f9054906101000a900473ffffffffffffffffffffffffffffffffffffffff1690505f60035f3373ffffffffffffffffffffffffffffffffffffffff1673ffffffffffffffffffffffffffffffffffffffff1681526020019081526020015f2054905060016002805490506111a79190611b2d565b60035f3373ffffffffffffffffffffffffffffffffffffffff1673ffffffffffffffffffffffffffffffffffffffff1681526020019081526020015f2054146112875781600282815481106111ff576111fe611d53565b5b905f5260205f20015f6101000a81548173ffffffffffffffffffffffffffffffffffffffff021916908373ffffffffffffffffffffffffffffffffffffffff1602179055508060035f8473ffffffffffffffffffffffffffffffffffffffff1673ffffffffffffffffffffffffffffffffffffffff1681526020019081526020015f20819055505b600280548061129957611298611d80565b5b600190038181905f5260205f20015f6101000a81549073ffffffffffffffffffffffffffffffffffffffff0219169055905560035f3373ffffffffffffffffffffffffffffffffffffffff1673ffffffffffffffffffffffffffffffffffffffff1681526020019081526020015f205f90555f60045f3373ffffffffffffffffffffffffffffffffffffffff1673ffffffffffffffffffffffffffffffffffffffff1681526020019081526020015f205f6101000a81548160ff0219169083151502179055505050565b5f5b600280549050811015611455575f6002828154811061138757611386611d53565b5b905f5260205f20015f9054906101000a900473ffffffffffffffffffffffffffffffffffffffff1690505f60035f8373ffffffffffffffffffffffffffffffffffffffff1673ffffffffffffffffffffffffffffffffffffffff1681526020019081526020015f20819055505f60045f8373ffffffffffffffffffffffffffffffffffffffff1673ffffffffffffffffffffffffffffffffffffffff1681526020019081526020015f205f6101000a81548160ff021916908315150217905550508080600101915050611365565b5060025f61146391906114b3565b565b5f808212156114ab57816040517fa8ce44320000000000000000000000000000000000000000000000000000000081526004016114a29190611dbc565b60405180910390fd5b819050919050565b5080545f8255905f5260205f20908101906114ce91906114d1565b50565b5b808211156114e8575f815f9055506001016114d2565b5090565b5f80fd5b5f73ffffffffffffffffffffffffffffffffffffffff82169050919050565b5f611519826114f0565b9050919050565b6115298161150f565b8114611533575f80fd5b50565b5f8135905061154481611520565b92915050565b5f6020828403121561155f5761155e6114ec565b5b5f61156c84828501611536565b91505092915050565b5f819050919050565b61158781611575565b82525050565b5f6020820190506115a05f83018461157e565b92915050565b6115af81611575565b81146115b9575f80fd5b50565b5f813590506115ca816115a6565b92915050565b5f80604083850312156115e6576115e56114ec565b5b5f6115f3858286016115bc565b9250506020611604858286016115bc565b9150509250929050565b5f60208284031215611623576116226114ec565b5b5f611630848285016115bc565b91505092915050565b6116428161150f565b82525050565b5f60208201905061165b5f830184611639565b92915050565b5f8115159050919050565b61167581611661565b82525050565b5f60208201905061168e5f83018461166c565b92915050565b5f82825260208201905092915050565b7f6469646e27742073656e6420656e6f75676820555344000000000000000000005f82015250565b5f6116d8601683611694565b91506116e3826116a4565b602082019050919050565b5f6020820190508181035f830152611705816116cc565b9050919050565b7f4e487b71000000000000000000000000000000000000000000000000000000005f52601160045260245ffd5b5f61174382611575565b915061174e83611575565b92508282019050808211156117665761176561170c565b5b92915050565b7f4e6f2072652d656e7472616e637920616c6c6f7765642c20706c6561736520745f8201527f727920616761696e2e0000000000000000000000000000000000000000000000602082015250565b5f6117c6602983611694565b91506117d18261176c565b604082019050919050565b5f6020820190508181035f8301526117f3816117ba565b9050919050565b7f416464726573732063616e6e6f74206265206368616e67656420746f206120305f8201527f7830206e756c6c20616464726573732e00000000000000000000000000000000602082015250565b5f611854603083611694565b915061185f826117fa565b604082019050919050565b5f6020820190508181035f83015261188181611848565b9050919050565b7f57616c6c65742061646472657373206973206e6f7420612066756e6465722e005f82015250565b5f6118bc601f83611694565b91506118c782611888565b602082019050919050565b5f6020820190508181035f8301526118e9816118b0565b9050919050565b5f6118fa82611575565b915061190583611575565b925082820261191381611575565b9150828204841483151761192a5761192961170c565b5b5092915050565b7f4e487b71000000000000000000000000000000000000000000000000000000005f52601260045260245ffd5b5f61196882611575565b915061197383611575565b92508261198357611982611931565b5b828204905092915050565b7f496e73756666696369656e742062616c616e63650000000000000000000000005f82015250565b5f6119c2601483611694565b91506119cd8261198e565b602082019050919050565b5f6020820190508181035f8301526119ef816119b6565b9050919050565b5f81905092915050565b50565b5f611a0e5f836119f6565b9150611a1982611a00565b5f82019050919050565b5f611a2d82611a03565b9150819050919050565b7f5472616e73666572206661696c65642e000000000000000000000000000000005f82015250565b5f611a6b601083611694565b9150611a7682611a37565b602082019050919050565b5f6020820190508181035f830152611a9881611a5f565b9050919050565b7f4f6e6c79206f776e65722063616e206578656375746520746869732066756e635f8201527f74696f6e2e000000000000000000000000000000000000000000000000000000602082015250565b5f611af9602583611694565b9150611b0482611a9f565b604082019050919050565b5f6020820190508181035f830152611b2681611aed565b9050919050565b5f611b3782611575565b9150611b4283611575565b9250828203905081811115611b5a57611b5961170c565b5b92915050565b5f69ffffffffffffffffffff82169050919050565b611b7e81611b60565b8114611b88575f80fd5b50565b5f81519050611b9981611b75565b92915050565b5f819050919050565b611bb181611b9f565b8114611bbb575f80fd5b50565b5f81519050611bcc81611ba8565b92915050565b5f81519050611be0816115a6565b92915050565b5f805f805f60a08688031215611bff57611bfe6114ec565b5b5f611c0c88828901611b8b565b9550506020611c1d88828901611bbe565b9450506040611c2e88828901611bd2565b9350506060611c3f88828901611bd2565b9250506080611c5088828901611b8b565b9150509295509295909350565b7f4e65676174697665207072696365206e6f7420616c6c6f7765642e00000000005f82015250565b5f611c91601b83611694565b9150611c9c82611c5d565b602082019050919050565b5f6020820190508181035f830152611cbe81611c85565b9050919050565b7f43616e6e6f74206368616e6765207468652076616c7565206f66206d696e696d5f8201527f756d55736420746f207468652073616d652076616c75652e0000000000000000602082015250565b5f611d1f603883611694565b9150611d2a82611cc5565b604082019050919050565b5f6020820190508181035f830152611d4c81611d13565b9050919050565b7f4e487b71000000000000000000000000000000000000000000000000000000005f52603260045260245ffd5b7f4e487b71000000000000000000000000000000000000000000000000000000005f52603160045260245ffd5b611db681611b9f565b82525050565b5f602082019050611dcf5f830184611dad565b9291505056fea2646970667358221220a66f96acce8b82d2479bdae5a35e9ba9139143e47933e3eb97bc8e7ae8debf3364736f6c634300081a0033",
					"opcodes": "PUSH1 0xA0 PUSH1 0x40 MSTORE CALLVALUE DUP1 ISZERO PUSH1 0xE JUMPI PUSH0 DUP1 REVERT JUMPDEST POP CALLER PUSH20 0xFFFFFFFFFFFFFFFFFFFFFFFFFFFFFFFFFFFFFFFF AND PUSH1 0x80 DUP2 PUSH20 0xFFFFFFFFFFFFFFFFFFFFFFFFFFFFFFFFFFFFFFFF AND DUP2 MSTORE POP POP PUSH4 0x1DCD6500 PUSH1 0x1 DUP2 SWAP1 SSTORE POP PUSH1 0x80 MLOAD PUSH2 0x1E0B PUSH2 0x74 PUSH0 CODECOPY PUSH0 DUP2 DUP2 PUSH2 0xAFD ADD MSTORE DUP2 DUP2 PUSH2 0xF9A ADD MSTORE PUSH2 0x108A ADD MSTORE PUSH2 0x1E0B PUSH0 RETURN INVALID PUSH1 0x80 PUSH1 0x40 MSTORE PUSH1 0x4 CALLDATASIZE LT PUSH2 0xE0 JUMPI PUSH0 CALLDATALOAD PUSH1 0xE0 SHR DUP1 PUSH4 0x98D5FDCA GT PUSH2 0x7E JUMPI DUP1 PUSH4 0xD78A29D2 GT PUSH2 0x58 JUMPI DUP1 PUSH4 0xD78A29D2 EQ PUSH2 0x287 JUMPI DUP1 PUSH4 0xDBA6335F EQ PUSH2 0x2AF JUMPI DUP1 PUSH4 0xDC0D3DFF EQ PUSH2 0x2D9 JUMPI DUP1 PUSH4 0xF8024578 EQ PUSH2 0x315 JUMPI PUSH2 0xEF JUMP JUMPDEST DUP1 PUSH4 0x98D5FDCA EQ PUSH2 0x217 JUMPI DUP1 PUSH4 0xB60D4288 EQ PUSH2 0x241 JUMPI DUP1 PUSH4 0xCC3B589E EQ PUSH2 0x24B JUMPI PUSH2 0xEF JUMP JUMPDEST DUP1 PUSH4 0x3E9F607C GT PUSH2 0xBA JUMPI DUP1 PUSH4 0x3E9F607C EQ PUSH2 0x187 JUMPI DUP1 PUSH4 0x455FD623 EQ PUSH2 0x1C3 JUMPI DUP1 PUSH4 0x5EB8D90B EQ PUSH2 0x1D9 JUMPI DUP1 PUSH4 0x71D2EE6C EQ PUSH2 0x1EF JUMPI PUSH2 0xEF JUMP JUMPDEST DUP1 PUSH4 0x34855C7 EQ PUSH2 0xF9 JUMPI DUP1 PUSH4 0x98DE820 EQ PUSH2 0x135 JUMPI DUP1 PUSH4 0x11EA94D6 EQ PUSH2 0x15F JUMPI PUSH2 0xEF JUMP JUMPDEST CALLDATASIZE PUSH2 0xEF JUMPI PUSH2 0xED PUSH2 0x351 JUMP JUMPDEST STOP JUMPDEST PUSH2 0xF7 PUSH2 0x351 JUMP JUMPDEST STOP JUMPDEST CALLVALUE DUP1 ISZERO PUSH2 0x104 JUMPI PUSH0 DUP1 REVERT JUMPDEST POP PUSH2 0x11F PUSH1 0x4 DUP1 CALLDATASIZE SUB DUP2 ADD SWAP1 PUSH2 0x11A SWAP2 SWAP1 PUSH2 0x154A JUMP JUMPDEST PUSH2 0x550 JUMP JUMPDEST PUSH1 0x40 MLOAD PUSH2 0x12C SWAP2 SWAP1 PUSH2 0x158D JUMP JUMPDEST PUSH1 0x40 MLOAD DUP1 SWAP2 SUB SWAP1 RETURN JUMPDEST CALLVALUE DUP1 ISZERO PUSH2 0x140 JUMPI PUSH0 DUP1 REVERT JUMPDEST POP PUSH2 0x149 PUSH2 0x565 JUMP JUMPDEST PUSH1 0x40 MLOAD PUSH2 0x156 SWAP2 SWAP1 PUSH2 0x158D JUMP JUMPDEST PUSH1 0x40 MLOAD DUP1 SWAP2 SUB SWAP1 RETURN JUMPDEST CALLVALUE DUP1 ISZERO PUSH2 0x16A JUMPI PUSH0 DUP1 REVERT JUMPDEST POP PUSH2 0x185 PUSH1 0x4 DUP1 CALLDATASIZE SUB DUP2 ADD SWAP1 PUSH2 0x180 SWAP2 SWAP1 PUSH2 0x154A JUMP JUMPDEST PUSH2 0x56B JUMP JUMPDEST STOP JUMPDEST CALLVALUE DUP1 ISZERO PUSH2 0x192 JUMPI PUSH0 DUP1 REVERT JUMPDEST POP PUSH2 0x1AD PUSH1 0x4 DUP1 CALLDATASIZE SUB DUP2 ADD SWAP1 PUSH2 0x1A8 SWAP2 SWAP1 PUSH2 0x15D0 JUMP JUMPDEST PUSH2 0x8D0 JUMP JUMPDEST PUSH1 0x40 MLOAD PUSH2 0x1BA SWAP2 SWAP1 PUSH2 0x158D JUMP JUMPDEST PUSH1 0x40 MLOAD DUP1 SWAP2 SUB SWAP1 RETURN JUMPDEST CALLVALUE DUP1 ISZERO PUSH2 0x1CE JUMPI PUSH0 DUP1 REVERT JUMPDEST POP PUSH2 0x1D7 PUSH2 0x8F8 JUMP JUMPDEST STOP JUMPDEST CALLVALUE DUP1 ISZERO PUSH2 0x1E4 JUMPI PUSH0 DUP1 REVERT JUMPDEST POP PUSH2 0x1ED PUSH2 0xAFB JUMP JUMPDEST STOP JUMPDEST CALLVALUE DUP1 ISZERO PUSH2 0x1FA JUMPI PUSH0 DUP1 REVERT JUMPDEST POP PUSH2 0x215 PUSH1 0x4 DUP1 CALLDATASIZE SUB DUP2 ADD SWAP1 PUSH2 0x210 SWAP2 SWAP1 PUSH2 0x160E JUMP JUMPDEST PUSH2 0xC43 JUMP JUMPDEST STOP JUMPDEST CALLVALUE DUP1 ISZERO PUSH2 0x222 JUMPI PUSH0 DUP1 REVERT JUMPDEST POP PUSH2 0x22B PUSH2 0xEA9 JUMP JUMPDEST PUSH1 0x40 MLOAD PUSH2 0x238 SWAP2 SWAP1 PUSH2 0x158D JUMP JUMPDEST PUSH1 0x40 MLOAD DUP1 SWAP2 SUB SWAP1 RETURN JUMPDEST PUSH2 0x249 PUSH2 0x351 JUMP JUMPDEST STOP JUMPDEST CALLVALUE DUP1 ISZERO PUSH2 0x256 JUMPI PUSH0 DUP1 REVERT JUMPDEST POP PUSH2 0x271 PUSH1 0x4 DUP1 CALLDATASIZE SUB DUP2 ADD SWAP1 PUSH2 0x26C SWAP2 SWAP1 PUSH2 0x154A JUMP JUMPDEST PUSH2 0xF83 JUMP JUMPDEST PUSH1 0x40 MLOAD PUSH2 0x27E SWAP2 SWAP1 PUSH2 0x158D JUMP JUMPDEST PUSH1 0x40 MLOAD DUP1 SWAP2 SUB SWAP1 RETURN JUMPDEST CALLVALUE DUP1 ISZERO PUSH2 0x292 JUMPI PUSH0 DUP1 REVERT JUMPDEST POP PUSH2 0x2AD PUSH1 0x4 DUP1 CALLDATASIZE SUB DUP2 ADD SWAP1 PUSH2 0x2A8 SWAP2 SWAP1 PUSH2 0x160E JUMP JUMPDEST PUSH2 0xF98 JUMP JUMPDEST STOP JUMPDEST CALLVALUE DUP1 ISZERO PUSH2 0x2BA JUMPI PUSH0 DUP1 REVERT JUMPDEST POP PUSH2 0x2C3 PUSH2 0x1088 JUMP JUMPDEST PUSH1 0x40 MLOAD PUSH2 0x2D0 SWAP2 SWAP1 PUSH2 0x1648 JUMP JUMPDEST PUSH1 0x40 MLOAD DUP1 SWAP2 SUB SWAP1 RETURN JUMPDEST CALLVALUE DUP1 ISZERO PUSH2 0x2E4 JUMPI PUSH0 DUP1 REVERT JUMPDEST POP PUSH2 0x2FF PUSH1 0x4 DUP1 CALLDATASIZE SUB DUP2 ADD SWAP1 PUSH2 0x2FA SWAP2 SWAP1 PUSH2 0x160E JUMP JUMPDEST PUSH2 0x10AC JUMP JUMPDEST PUSH1 0x40 MLOAD PUSH2 0x30C SWAP2 SWAP1 PUSH2 0x1648 JUMP JUMPDEST PUSH1 0x40 MLOAD DUP1 SWAP2 SUB SWAP1 RETURN JUMPDEST CALLVALUE DUP1 ISZERO PUSH2 0x320 JUMPI PUSH0 DUP1 REVERT JUMPDEST POP PUSH2 0x33B PUSH1 0x4 DUP1 CALLDATASIZE SUB DUP2 ADD SWAP1 PUSH2 0x336 SWAP2 SWAP1 PUSH2 0x154A JUMP JUMPDEST PUSH2 0x10E7 JUMP JUMPDEST PUSH1 0x40 MLOAD PUSH2 0x348 SWAP2 SWAP1 PUSH2 0x167B JUMP JUMPDEST PUSH1 0x40 MLOAD DUP1 SWAP2 SUB SWAP1 RETURN JUMPDEST PUSH0 PUSH2 0x35A PUSH2 0xEA9 JUMP JUMPDEST SWAP1 POP PUSH0 PUSH2 0x367 DUP3 CALLVALUE PUSH2 0x8D0 JUMP JUMPDEST SWAP1 POP PUSH1 0x1 SLOAD DUP2 LT ISZERO PUSH2 0x3AE JUMPI PUSH1 0x40 MLOAD PUSH32 0x8C379A000000000000000000000000000000000000000000000000000000000 DUP2 MSTORE PUSH1 0x4 ADD PUSH2 0x3A5 SWAP1 PUSH2 0x16EE JUMP JUMPDEST PUSH1 0x40 MLOAD DUP1 SWAP2 SUB SWAP1 REVERT JUMPDEST PUSH1 0x4 PUSH0 CALLER PUSH20 0xFFFFFFFFFFFFFFFFFFFFFFFFFFFFFFFFFFFFFFFF AND PUSH20 0xFFFFFFFFFFFFFFFFFFFFFFFFFFFFFFFFFFFFFFFF AND DUP2 MSTORE PUSH1 0x20 ADD SWAP1 DUP2 MSTORE PUSH1 0x20 ADD PUSH0 KECCAK256 PUSH0 SWAP1 SLOAD SWAP1 PUSH2 0x100 EXP SWAP1 DIV PUSH1 0xFF AND PUSH2 0x4F9 JUMPI PUSH1 0x2 DUP1 SLOAD SWAP1 POP PUSH1 0x3 PUSH0 CALLER PUSH20 0xFFFFFFFFFFFFFFFFFFFFFFFFFFFFFFFFFFFFFFFF AND PUSH20 0xFFFFFFFFFFFFFFFFFFFFFFFFFFFFFFFFFFFFFFFF AND DUP2 MSTORE PUSH1 0x20 ADD SWAP1 DUP2 MSTORE PUSH1 0x20 ADD PUSH0 KECCAK256 DUP2 SWAP1 SSTORE POP PUSH1 0x2 CALLER SWAP1 DUP1 PUSH1 0x1 DUP2 SLOAD ADD DUP1 DUP3 SSTORE DUP1 SWAP2 POP POP PUSH1 0x1 SWAP1 SUB SWAP1 PUSH0 MSTORE PUSH1 0x20 PUSH0 KECCAK256 ADD PUSH0 SWAP1 SWAP2 SWAP1 SWAP2 SWAP1 SWAP2 PUSH2 0x100 EXP DUP2 SLOAD DUP2 PUSH20 0xFFFFFFFFFFFFFFFFFFFFFFFFFFFFFFFFFFFFFFFF MUL NOT AND SWAP1 DUP4 PUSH20 0xFFFFFFFFFFFFFFFFFFFFFFFFFFFFFFFFFFFFFFFF AND MUL OR SWAP1 SSTORE POP PUSH1 0x1 PUSH1 0x4 PUSH0 CALLER PUSH20 0xFFFFFFFFFFFFFFFFFFFFFFFFFFFFFFFFFFFFFFFF AND PUSH20 0xFFFFFFFFFFFFFFFFFFFFFFFFFFFFFFFFFFFFFFFF AND DUP2 MSTORE PUSH1 0x20 ADD SWAP1 DUP2 MSTORE PUSH1 0x20 ADD PUSH0 KECCAK256 PUSH0 PUSH2 0x100 EXP DUP2 SLOAD DUP2 PUSH1 0xFF MUL NOT AND SWAP1 DUP4 ISZERO ISZERO MUL OR SWAP1 SSTORE POP JUMPDEST CALLVALUE PUSH1 0x5 PUSH0 CALLER PUSH20 0xFFFFFFFFFFFFFFFFFFFFFFFFFFFFFFFFFFFFFFFF AND PUSH20 0xFFFFFFFFFFFFFFFFFFFFFFFFFFFFFFFFFFFFFFFF AND DUP2 MSTORE PUSH1 0x20 ADD SWAP1 DUP2 MSTORE PUSH1 0x20 ADD PUSH0 KECCAK256 PUSH0 DUP3 DUP3 SLOAD PUSH2 0x545 SWAP2 SWAP1 PUSH2 0x1739 JUMP JUMPDEST SWAP3 POP POP DUP2 SWAP1 SSTORE POP POP POP JUMP JUMPDEST PUSH1 0x5 PUSH1 0x20 MSTORE DUP1 PUSH0 MSTORE PUSH1 0x40 PUSH0 KECCAK256 PUSH0 SWAP2 POP SWAP1 POP SLOAD DUP2 JUMP JUMPDEST PUSH1 0x1 SLOAD DUP2 JUMP JUMPDEST PUSH0 ISZERO ISZERO PUSH0 DUP1 SLOAD SWAP1 PUSH2 0x100 EXP SWAP1 DIV PUSH1 0xFF AND ISZERO ISZERO EQ PUSH2 0x5BD JUMPI PUSH1 0x40 MLOAD PUSH32 0x8C379A000000000000000000000000000000000000000000000000000000000 DUP2 MSTORE PUSH1 0x4 ADD PUSH2 0x5B4 SWAP1 PUSH2 0x17DC JUMP JUMPDEST PUSH1 0x40 MLOAD DUP1 SWAP2 SUB SWAP1 REVERT JUMPDEST PUSH1 0x1 PUSH0 DUP1 PUSH2 0x100 EXP DUP2 SLOAD DUP2 PUSH1 0xFF MUL NOT AND SWAP1 DUP4 ISZERO ISZERO MUL OR SWAP1 SSTORE POP PUSH0 PUSH20 0xFFFFFFFFFFFFFFFFFFFFFFFFFFFFFFFFFFFFFFFF AND DUP2 PUSH20 0xFFFFFFFFFFFFFFFFFFFFFFFFFFFFFFFFFFFFFFFF AND SUB PUSH2 0x644 JUMPI PUSH1 0x40 MLOAD PUSH32 0x8C379A000000000000000000000000000000000000000000000000000000000 DUP2 MSTORE PUSH1 0x4 ADD PUSH2 0x63B SWAP1 PUSH2 0x186A JUMP JUMPDEST PUSH1 0x40 MLOAD DUP1 SWAP2 SUB SWAP1 REVERT JUMPDEST PUSH1 0x4 PUSH0 CALLER PUSH20 0xFFFFFFFFFFFFFFFFFFFFFFFFFFFFFFFFFFFFFFFF AND PUSH20 0xFFFFFFFFFFFFFFFFFFFFFFFFFFFFFFFFFFFFFFFF AND DUP2 MSTORE PUSH1 0x20 ADD SWAP1 DUP2 MSTORE PUSH1 0x20 ADD PUSH0 KECCAK256 PUSH0 SWAP1 SLOAD SWAP1 PUSH2 0x100 EXP SWAP1 DIV PUSH1 0xFF AND PUSH2 0x6CD JUMPI PUSH1 0x40 MLOAD PUSH32 0x8C379A000000000000000000000000000000000000000000000000000000000 DUP2 MSTORE PUSH1 0x4 ADD PUSH2 0x6C4 SWAP1 PUSH2 0x18D2 JUMP JUMPDEST PUSH1 0x40 MLOAD DUP1 SWAP2 SUB SWAP1 REVERT JUMPDEST PUSH0 PUSH1 0x5 PUSH0 CALLER PUSH20 0xFFFFFFFFFFFFFFFFFFFFFFFFFFFFFFFFFFFFFFFF AND PUSH20 0xFFFFFFFFFFFFFFFFFFFFFFFFFFFFFFFFFFFFFFFF AND DUP2 MSTORE PUSH1 0x20 ADD SWAP1 DUP2 MSTORE PUSH1 0x20 ADD PUSH0 KECCAK256 SLOAD SWAP1 POP PUSH2 0x716 PUSH2 0x1104 JUMP JUMPDEST DUP1 PUSH1 0x5 PUSH0 DUP5 PUSH20 0xFFFFFFFFFFFFFFFFFFFFFFFFFFFFFFFFFFFFFFFF AND PUSH20 0xFFFFFFFFFFFFFFFFFFFFFFFFFFFFFFFFFFFFFFFF AND DUP2 MSTORE PUSH1 0x20 ADD SWAP1 DUP2 MSTORE PUSH1 0x20 ADD PUSH0 KECCAK256 PUSH0 DUP3 DUP3 SLOAD PUSH2 0x762 SWAP2 SWAP1 PUSH2 0x1739 JUMP JUMPDEST SWAP3 POP POP DUP2 SWAP1 SSTORE POP PUSH1 0x4 PUSH0 DUP4 PUSH20 0xFFFFFFFFFFFFFFFFFFFFFFFFFFFFFFFFFFFFFFFF AND PUSH20 0xFFFFFFFFFFFFFFFFFFFFFFFFFFFFFFFFFFFFFFFF AND DUP2 MSTORE PUSH1 0x20 ADD SWAP1 DUP2 MSTORE PUSH1 0x20 ADD PUSH0 KECCAK256 PUSH0 SWAP1 SLOAD SWAP1 PUSH2 0x100 EXP SWAP1 DIV PUSH1 0xFF AND PUSH2 0x8B4 JUMPI PUSH1 0x2 DUP1 SLOAD SWAP1 POP PUSH1 0x3 PUSH0 DUP5 PUSH20 0xFFFFFFFFFFFFFFFFFFFFFFFFFFFFFFFFFFFFFFFF AND PUSH20 0xFFFFFFFFFFFFFFFFFFFFFFFFFFFFFFFFFFFFFFFF AND DUP2 MSTORE PUSH1 0x20 ADD SWAP1 DUP2 MSTORE PUSH1 0x20 ADD PUSH0 KECCAK256 DUP2 SWAP1 SSTORE POP PUSH1 0x2 DUP3 SWAP1 DUP1 PUSH1 0x1 DUP2 SLOAD ADD DUP1 DUP3 SSTORE DUP1 SWAP2 POP POP PUSH1 0x1 SWAP1 SUB SWAP1 PUSH0 MSTORE PUSH1 0x20 PUSH0 KECCAK256 ADD PUSH0 SWAP1 SWAP2 SWAP1 SWAP2 SWAP1 SWAP2 PUSH2 0x100 EXP DUP2 SLOAD DUP2 PUSH20 0xFFFFFFFFFFFFFFFFFFFFFFFFFFFFFFFFFFFFFFFF MUL NOT AND SWAP1 DUP4 PUSH20 0xFFFFFFFFFFFFFFFFFFFFFFFFFFFFFFFFFFFFFFFF AND MUL OR SWAP1 SSTORE POP PUSH1 0x1 PUSH1 0x4 PUSH0 DUP5 PUSH20 0xFFFFFFFFFFFFFFFFFFFFFFFFFFFFFFFFFFFFFFFF AND PUSH20 0xFFFFFFFFFFFFFFFFFFFFFFFFFFFFFFFFFFFFFFFF AND DUP2 MSTORE PUSH1 0x20 ADD SWAP1 DUP2 MSTORE PUSH1 0x20 ADD PUSH0 KECCAK256 PUSH0 PUSH2 0x100 EXP DUP2 SLOAD DUP2 PUSH1 0xFF MUL NOT AND SWAP1 DUP4 ISZERO ISZERO MUL OR SWAP1 SSTORE POP JUMPDEST POP PUSH0 DUP1 PUSH0 PUSH2 0x100 EXP DUP2 SLOAD DUP2 PUSH1 0xFF MUL NOT AND SWAP1 DUP4 ISZERO ISZERO MUL OR SWAP1 SSTORE POP POP JUMP JUMPDEST PUSH0 PUSH8 0xDE0B6B3A7640000 DUP3 DUP5 PUSH2 0x8E6 SWAP2 SWAP1 PUSH2 0x18F0 JUMP JUMPDEST PUSH2 0x8F0 SWAP2 SWAP1 PUSH2 0x195E JUMP JUMPDEST SWAP1 POP SWAP3 SWAP2 POP POP JUMP JUMPDEST PUSH0 ISZERO ISZERO PUSH0 DUP1 SLOAD SWAP1 PUSH2 0x100 EXP SWAP1 DIV PUSH1 0xFF AND ISZERO ISZERO EQ PUSH2 0x94A JUMPI PUSH1 0x40 MLOAD PUSH32 0x8C379A000000000000000000000000000000000000000000000000000000000 DUP2 MSTORE PUSH1 0x4 ADD PUSH2 0x941 SWAP1 PUSH2 0x17DC JUMP JUMPDEST PUSH1 0x40 MLOAD DUP1 SWAP2 SUB SWAP1 REVERT JUMPDEST PUSH1 0x1 PUSH0 DUP1 PUSH2 0x100 EXP DUP2 SLOAD DUP2 PUSH1 0xFF MUL NOT AND SWAP1 DUP4 ISZERO ISZERO MUL OR SWAP1 SSTORE POP PUSH0 PUSH1 0x5 PUSH0 CALLER PUSH20 0xFFFFFFFFFFFFFFFFFFFFFFFFFFFFFFFFFFFFFFFF AND PUSH20 0xFFFFFFFFFFFFFFFFFFFFFFFFFFFFFFFFFFFFFFFF AND DUP2 MSTORE PUSH1 0x20 ADD SWAP1 DUP2 MSTORE PUSH1 0x20 ADD PUSH0 KECCAK256 SLOAD SWAP1 POP PUSH0 DUP2 GT PUSH2 0x9E6 JUMPI PUSH1 0x40 MLOAD PUSH32 0x8C379A000000000000000000000000000000000000000000000000000000000 DUP2 MSTORE PUSH1 0x4 ADD PUSH2 0x9DD SWAP1 PUSH2 0x19D8 JUMP JUMPDEST PUSH1 0x40 MLOAD DUP1 SWAP2 SUB SWAP1 REVERT JUMPDEST PUSH0 PUSH1 0x5 PUSH0 CALLER PUSH20 0xFFFFFFFFFFFFFFFFFFFFFFFFFFFFFFFFFFFFFFFF AND PUSH20 0xFFFFFFFFFFFFFFFFFFFFFFFFFFFFFFFFFFFFFFFF AND DUP2 MSTORE PUSH1 0x20 ADD SWAP1 DUP2 MSTORE PUSH1 0x20 ADD PUSH0 KECCAK256 DUP2 SWAP1 SSTORE POP PUSH0 CALLER PUSH20 0xFFFFFFFFFFFFFFFFFFFFFFFFFFFFFFFFFFFFFFFF AND DUP3 PUSH1 0x40 MLOAD PUSH2 0xA4D SWAP1 PUSH2 0x1A23 JUMP JUMPDEST PUSH0 PUSH1 0x40 MLOAD DUP1 DUP4 SUB DUP2 DUP6 DUP8 GAS CALL SWAP3 POP POP POP RETURNDATASIZE DUP1 PUSH0 DUP2 EQ PUSH2 0xA87 JUMPI PUSH1 0x40 MLOAD SWAP2 POP PUSH1 0x1F NOT PUSH1 0x3F RETURNDATASIZE ADD AND DUP3 ADD PUSH1 0x40 MSTORE RETURNDATASIZE DUP3 MSTORE RETURNDATASIZE PUSH0 PUSH1 0x20 DUP5 ADD RETURNDATACOPY PUSH2 0xA8C JUMP JUMPDEST PUSH1 0x60 SWAP2 POP JUMPDEST POP POP SWAP1 POP PUSH1 0x1 ISZERO ISZERO DUP2 ISZERO ISZERO EQ PUSH2 0xAD7 JUMPI PUSH1 0x40 MLOAD PUSH32 0x8C379A000000000000000000000000000000000000000000000000000000000 DUP2 MSTORE PUSH1 0x4 ADD PUSH2 0xACE SWAP1 PUSH2 0x1A81 JUMP JUMPDEST PUSH1 0x40 MLOAD DUP1 SWAP2 SUB SWAP1 REVERT JUMPDEST PUSH2 0xADF PUSH2 0x1104 JUMP JUMPDEST POP POP PUSH0 DUP1 PUSH0 PUSH2 0x100 EXP DUP2 SLOAD DUP2 PUSH1 0xFF MUL NOT AND SWAP1 DUP4 ISZERO ISZERO MUL OR SWAP1 SSTORE POP JUMP JUMPDEST PUSH32 0x0 PUSH20 0xFFFFFFFFFFFFFFFFFFFFFFFFFFFFFFFFFFFFFFFF AND CALLER PUSH20 0xFFFFFFFFFFFFFFFFFFFFFFFFFFFFFFFFFFFFFFFF AND EQ PUSH2 0xB89 JUMPI PUSH1 0x40 MLOAD PUSH32 0x8C379A000000000000000000000000000000000000000000000000000000000 DUP2 MSTORE PUSH1 0x4 ADD PUSH2 0xB80 SWAP1 PUSH2 0x1B0F JUMP JUMPDEST PUSH1 0x40 MLOAD DUP1 SWAP2 SUB SWAP1 REVERT JUMPDEST PUSH0 CALLER PUSH20 0xFFFFFFFFFFFFFFFFFFFFFFFFFFFFFFFFFFFFFFFF AND SELFBALANCE PUSH1 0x40 MLOAD PUSH2 0xBAE SWAP1 PUSH2 0x1A23 JUMP JUMPDEST PUSH0 PUSH1 0x40 MLOAD DUP1 DUP4 SUB DUP2 DUP6 DUP8 GAS CALL SWAP3 POP POP POP RETURNDATASIZE DUP1 PUSH0 DUP2 EQ PUSH2 0xBE8 JUMPI PUSH1 0x40 MLOAD SWAP2 POP PUSH1 0x1F NOT PUSH1 0x3F RETURNDATASIZE ADD AND DUP3 ADD PUSH1 0x40 MSTORE RETURNDATASIZE DUP3 MSTORE RETURNDATASIZE PUSH0 PUSH1 0x20 DUP5 ADD RETURNDATACOPY PUSH2 0xBED JUMP JUMPDEST PUSH1 0x60 SWAP2 POP JUMPDEST POP POP SWAP1 POP PUSH1 0x1 ISZERO ISZERO DUP2 ISZERO ISZERO EQ PUSH2 0xC38 JUMPI PUSH1 0x40 MLOAD PUSH32 0x8C379A000000000000000000000000000000000000000000000000000000000 DUP2 MSTORE PUSH1 0x4 ADD PUSH2 0xC2F SWAP1 PUSH2 0x1A81 JUMP JUMPDEST PUSH1 0x40 MLOAD DUP1 SWAP2 SUB SWAP1 REVERT JUMPDEST PUSH2 0xC40 PUSH2 0x1363 JUMP JUMPDEST POP JUMP JUMPDEST PUSH0 ISZERO ISZERO PUSH0 DUP1 SLOAD SWAP1 PUSH2 0x100 EXP SWAP1 DIV PUSH1 0xFF AND ISZERO ISZERO EQ PUSH2 0xC95 JUMPI PUSH1 0x40 MLOAD PUSH32 0x8C379A000000000000000000000000000000000000000000000000000000000 DUP2 MSTORE PUSH1 0x4 ADD PUSH2 0xC8C SWAP1 PUSH2 0x17DC JUMP JUMPDEST PUSH1 0x40 MLOAD DUP1 SWAP2 SUB SWAP1 REVERT JUMPDEST PUSH1 0x1 PUSH0 DUP1 PUSH2 0x100 EXP DUP2 SLOAD DUP2 PUSH1 0xFF MUL NOT AND SWAP1 DUP4 ISZERO ISZERO MUL OR SWAP1 SSTORE POP PUSH1 0x1 ISZERO ISZERO PUSH1 0x4 PUSH0 CALLER PUSH20 0xFFFFFFFFFFFFFFFFFFFFFFFFFFFFFFFFFFFFFFFF AND PUSH20 0xFFFFFFFFFFFFFFFFFFFFFFFFFFFFFFFFFFFFFFFF AND DUP2 MSTORE PUSH1 0x20 ADD SWAP1 DUP2 MSTORE PUSH1 0x20 ADD PUSH0 KECCAK256 PUSH0 SWAP1 SLOAD SWAP1 PUSH2 0x100 EXP SWAP1 DIV PUSH1 0xFF AND ISZERO ISZERO EQ PUSH2 0xD3E JUMPI PUSH1 0x40 MLOAD PUSH32 0x8C379A000000000000000000000000000000000000000000000000000000000 DUP2 MSTORE PUSH1 0x4 ADD PUSH2 0xD35 SWAP1 PUSH2 0x18D2 JUMP JUMPDEST PUSH1 0x40 MLOAD DUP1 SWAP2 SUB SWAP1 REVERT JUMPDEST DUP1 PUSH1 0x5 PUSH0 CALLER PUSH20 0xFFFFFFFFFFFFFFFFFFFFFFFFFFFFFFFFFFFFFFFF AND PUSH20 0xFFFFFFFFFFFFFFFFFFFFFFFFFFFFFFFFFFFFFFFF AND DUP2 MSTORE PUSH1 0x20 ADD SWAP1 DUP2 MSTORE PUSH1 0x20 ADD PUSH0 KECCAK256 PUSH0 DUP3 DUP3 SLOAD PUSH2 0xD8A SWAP2 SWAP1 PUSH2 0x1B2D JUMP JUMPDEST SWAP3 POP POP DUP2 SWAP1 SSTORE POP PUSH0 CALLER PUSH20 0xFFFFFFFFFFFFFFFFFFFFFFFFFFFFFFFFFFFFFFFF AND DUP3 PUSH1 0x40 MLOAD PUSH2 0xDB6 SWAP1 PUSH2 0x1A23 JUMP JUMPDEST PUSH0 PUSH1 0x40 MLOAD DUP1 DUP4 SUB DUP2 DUP6 DUP8 GAS CALL SWAP3 POP POP POP RETURNDATASIZE DUP1 PUSH0 DUP2 EQ PUSH2 0xDF0 JUMPI PUSH1 0x40 MLOAD SWAP2 POP PUSH1 0x1F NOT PUSH1 0x3F RETURNDATASIZE ADD AND DUP3 ADD PUSH1 0x40 MSTORE RETURNDATASIZE DUP3 MSTORE RETURNDATASIZE PUSH0 PUSH1 0x20 DUP5 ADD RETURNDATACOPY PUSH2 0xDF5 JUMP JUMPDEST PUSH1 0x60 SWAP2 POP JUMPDEST POP POP SWAP1 POP PUSH1 0x1 ISZERO ISZERO DUP2 ISZERO ISZERO EQ PUSH2 0xE40 JUMPI PUSH1 0x40 MLOAD PUSH32 0x8C379A000000000000000000000000000000000000000000000000000000000 DUP2 MSTORE PUSH1 0x4 ADD PUSH2 0xE37 SWAP1 PUSH2 0x1A81 JUMP JUMPDEST PUSH1 0x40 MLOAD DUP1 SWAP2 SUB SWAP1 REVERT JUMPDEST PUSH0 PUSH1 0x5 PUSH0 CALLER PUSH20 0xFFFFFFFFFFFFFFFFFFFFFFFFFFFFFFFFFFFFFFFF AND PUSH20 0xFFFFFFFFFFFFFFFFFFFFFFFFFFFFFFFFFFFFFFFF AND DUP2 MSTORE PUSH1 0x20 ADD SWAP1 DUP2 MSTORE PUSH1 0x20 ADD PUSH0 KECCAK256 SLOAD GT PUSH2 0xE8D JUMPI PUSH2 0xE8C PUSH2 0x1104 JUMP JUMPDEST JUMPDEST POP PUSH0 DUP1 PUSH0 PUSH2 0x100 EXP DUP2 SLOAD DUP2 PUSH1 0xFF MUL NOT AND SWAP1 DUP4 ISZERO ISZERO MUL OR SWAP1 SSTORE POP POP JUMP JUMPDEST PUSH0 DUP1 PUSH20 0x694AA1769357215DE4FAC081BF1F309ADC325306 PUSH20 0xFFFFFFFFFFFFFFFFFFFFFFFFFFFFFFFFFFFFFFFF AND PUSH4 0xFEAF968C PUSH1 0x40 MLOAD DUP2 PUSH4 0xFFFFFFFF AND PUSH1 0xE0 SHL DUP2 MSTORE PUSH1 0x4 ADD PUSH1 0xA0 PUSH1 0x40 MLOAD DUP1 DUP4 SUB DUP2 DUP7 GAS STATICCALL ISZERO DUP1 ISZERO PUSH2 0xF08 JUMPI RETURNDATASIZE PUSH0 DUP1 RETURNDATACOPY RETURNDATASIZE PUSH0 REVERT JUMPDEST POP POP POP POP PUSH1 0x40 MLOAD RETURNDATASIZE PUSH1 0x1F NOT PUSH1 0x1F DUP3 ADD AND DUP3 ADD DUP1 PUSH1 0x40 MSTORE POP DUP2 ADD SWAP1 PUSH2 0xF2C SWAP2 SWAP1 PUSH2 0x1BE6 JUMP JUMPDEST POP POP POP SWAP2 POP POP PUSH0 DUP2 SGT PUSH2 0xF74 JUMPI PUSH1 0x40 MLOAD PUSH32 0x8C379A000000000000000000000000000000000000000000000000000000000 DUP2 MSTORE PUSH1 0x4 ADD PUSH2 0xF6B SWAP1 PUSH2 0x1CA7 JUMP JUMPDEST PUSH1 0x40 MLOAD DUP1 SWAP2 SUB SWAP1 REVERT JUMPDEST PUSH2 0xF7D DUP2 PUSH2 0x1465 JUMP JUMPDEST SWAP2 POP POP SWAP1 JUMP JUMPDEST PUSH1 0x3 PUSH1 0x20 MSTORE DUP1 PUSH0 MSTORE PUSH1 0x40 PUSH0 KECCAK256 PUSH0 SWAP2 POP SWAP1 POP SLOAD DUP2 JUMP JUMPDEST PUSH32 0x0 PUSH20 0xFFFFFFFFFFFFFFFFFFFFFFFFFFFFFFFFFFFFFFFF AND CALLER PUSH20 0xFFFFFFFFFFFFFFFFFFFFFFFFFFFFFFFFFFFFFFFF AND EQ PUSH2 0x1026 JUMPI PUSH1 0x40 MLOAD PUSH32 0x8C379A000000000000000000000000000000000000000000000000000000000 DUP2 MSTORE PUSH1 0x4 ADD PUSH2 0x101D SWAP1 PUSH2 0x1B0F JUMP JUMPDEST PUSH1 0x40 MLOAD DUP1 SWAP2 SUB SWAP1 REVERT JUMPDEST PUSH0 PUSH4 0x5F5E100 DUP3 PUSH2 0x1037 SWAP2 SWAP1 PUSH2 0x18F0 JUMP JUMPDEST SWAP1 POP PUSH1 0x1 SLOAD DUP2 SUB PUSH2 0x107D JUMPI PUSH1 0x40 MLOAD PUSH32 0x8C379A000000000000000000000000000000000000000000000000000000000 DUP2 MSTORE PUSH1 0x4 ADD PUSH2 0x1074 SWAP1 PUSH2 0x1D35 JUMP JUMPDEST PUSH1 0x40 MLOAD DUP1 SWAP2 SUB SWAP1 REVERT JUMPDEST DUP1 PUSH1 0x1 DUP2 SWAP1 SSTORE POP POP POP JUMP JUMPDEST PUSH32 0x0 DUP2 JUMP JUMPDEST PUSH1 0x2 DUP2 DUP2 SLOAD DUP2 LT PUSH2 0x10BB JUMPI PUSH0 DUP1 REVERT JUMPDEST SWAP1 PUSH0 MSTORE PUSH1 0x20 PUSH0 KECCAK256 ADD PUSH0 SWAP2 POP SLOAD SWAP1 PUSH2 0x100 EXP SWAP1 DIV PUSH20 0xFFFFFFFFFFFFFFFFFFFFFFFFFFFFFFFFFFFFFFFF AND DUP2 JUMP JUMPDEST PUSH1 0x4 PUSH1 0x20 MSTORE DUP1 PUSH0 MSTORE PUSH1 0x40 PUSH0 KECCAK256 PUSH0 SWAP2 POP SLOAD SWAP1 PUSH2 0x100 EXP SWAP1 DIV PUSH1 0xFF AND DUP2 JUMP JUMPDEST PUSH0 PUSH1 0x2 PUSH1 0x1 PUSH1 0x2 DUP1 SLOAD SWAP1 POP PUSH2 0x1119 SWAP2 SWAP1 PUSH2 0x1B2D JUMP JUMPDEST DUP2 SLOAD DUP2 LT PUSH2 0x112A JUMPI PUSH2 0x1129 PUSH2 0x1D53 JUMP JUMPDEST JUMPDEST SWAP1 PUSH0 MSTORE PUSH1 0x20 PUSH0 KECCAK256 ADD PUSH0 SWAP1 SLOAD SWAP1 PUSH2 0x100 EXP SWAP1 DIV PUSH20 0xFFFFFFFFFFFFFFFFFFFFFFFFFFFFFFFFFFFFFFFF AND SWAP1 POP PUSH0 PUSH1 0x3 PUSH0 CALLER PUSH20 0xFFFFFFFFFFFFFFFFFFFFFFFFFFFFFFFFFFFFFFFF AND PUSH20 0xFFFFFFFFFFFFFFFFFFFFFFFFFFFFFFFFFFFFFFFF AND DUP2 MSTORE PUSH1 0x20 ADD SWAP1 DUP2 MSTORE PUSH1 0x20 ADD PUSH0 KECCAK256 SLOAD SWAP1 POP PUSH1 0x1 PUSH1 0x2 DUP1 SLOAD SWAP1 POP PUSH2 0x11A7 SWAP2 SWAP1 PUSH2 0x1B2D JUMP JUMPDEST PUSH1 0x3 PUSH0 CALLER PUSH20 0xFFFFFFFFFFFFFFFFFFFFFFFFFFFFFFFFFFFFFFFF AND PUSH20 0xFFFFFFFFFFFFFFFFFFFFFFFFFFFFFFFFFFFFFFFF AND DUP2 MSTORE PUSH1 0x20 ADD SWAP1 DUP2 MSTORE PUSH1 0x20 ADD PUSH0 KECCAK256 SLOAD EQ PUSH2 0x1287 JUMPI DUP2 PUSH1 0x2 DUP3 DUP2 SLOAD DUP2 LT PUSH2 0x11FF JUMPI PUSH2 0x11FE PUSH2 0x1D53 JUMP JUMPDEST JUMPDEST SWAP1 PUSH0 MSTORE PUSH1 0x20 PUSH0 KECCAK256 ADD PUSH0 PUSH2 0x100 EXP DUP2 SLOAD DUP2 PUSH20 0xFFFFFFFFFFFFFFFFFFFFFFFFFFFFFFFFFFFFFFFF MUL NOT AND SWAP1 DUP4 PUSH20 0xFFFFFFFFFFFFFFFFFFFFFFFFFFFFFFFFFFFFFFFF AND MUL OR SWAP1 SSTORE POP DUP1 PUSH1 0x3 PUSH0 DUP5 PUSH20 0xFFFFFFFFFFFFFFFFFFFFFFFFFFFFFFFFFFFFFFFF AND PUSH20 0xFFFFFFFFFFFFFFFFFFFFFFFFFFFFFFFFFFFFFFFF AND DUP2 MSTORE PUSH1 0x20 ADD SWAP1 DUP2 MSTORE PUSH1 0x20 ADD PUSH0 KECCAK256 DUP2 SWAP1 SSTORE POP JUMPDEST PUSH1 0x2 DUP1 SLOAD DUP1 PUSH2 0x1299 JUMPI PUSH2 0x1298 PUSH2 0x1D80 JUMP JUMPDEST JUMPDEST PUSH1 0x1 SWAP1 SUB DUP2 DUP2 SWAP1 PUSH0 MSTORE PUSH1 0x20 PUSH0 KECCAK256 ADD PUSH0 PUSH2 0x100 EXP DUP2 SLOAD SWAP1 PUSH20 0xFFFFFFFFFFFFFFFFFFFFFFFFFFFFFFFFFFFFFFFF MUL NOT AND SWAP1 SSTORE SWAP1 SSTORE PUSH1 0x3 PUSH0 CALLER PUSH20 0xFFFFFFFFFFFFFFFFFFFFFFFFFFFFFFFFFFFFFFFF AND PUSH20 0xFFFFFFFFFFFFFFFFFFFFFFFFFFFFFFFFFFFFFFFF AND DUP2 MSTORE PUSH1 0x20 ADD SWAP1 DUP2 MSTORE PUSH1 0x20 ADD PUSH0 KECCAK256 PUSH0 SWAP1 SSTORE PUSH0 PUSH1 0x4 PUSH0 CALLER PUSH20 0xFFFFFFFFFFFFFFFFFFFFFFFFFFFFFFFFFFFFFFFF AND PUSH20 0xFFFFFFFFFFFFFFFFFFFFFFFFFFFFFFFFFFFFFFFF AND DUP2 MSTORE PUSH1 0x20 ADD SWAP1 DUP2 MSTORE PUSH1 0x20 ADD PUSH0 KECCAK256 PUSH0 PUSH2 0x100 EXP DUP2 SLOAD DUP2 PUSH1 0xFF MUL NOT AND SWAP1 DUP4 ISZERO ISZERO MUL OR SWAP1 SSTORE POP POP POP JUMP JUMPDEST PUSH0 JUMPDEST PUSH1 0x2 DUP1 SLOAD SWAP1 POP DUP2 LT ISZERO PUSH2 0x1455 JUMPI PUSH0 PUSH1 0x2 DUP3 DUP2 SLOAD DUP2 LT PUSH2 0x1387 JUMPI PUSH2 0x1386 PUSH2 0x1D53 JUMP JUMPDEST JUMPDEST SWAP1 PUSH0 MSTORE PUSH1 0x20 PUSH0 KECCAK256 ADD PUSH0 SWAP1 SLOAD SWAP1 PUSH2 0x100 EXP SWAP1 DIV PUSH20 0xFFFFFFFFFFFFFFFFFFFFFFFFFFFFFFFFFFFFFFFF AND SWAP1 POP PUSH0 PUSH1 0x3 PUSH0 DUP4 PUSH20 0xFFFFFFFFFFFFFFFFFFFFFFFFFFFFFFFFFFFFFFFF AND PUSH20 0xFFFFFFFFFFFFFFFFFFFFFFFFFFFFFFFFFFFFFFFF AND DUP2 MSTORE PUSH1 0x20 ADD SWAP1 DUP2 MSTORE PUSH1 0x20 ADD PUSH0 KECCAK256 DUP2 SWAP1 SSTORE POP PUSH0 PUSH1 0x4 PUSH0 DUP4 PUSH20 0xFFFFFFFFFFFFFFFFFFFFFFFFFFFFFFFFFFFFFFFF AND PUSH20 0xFFFFFFFFFFFFFFFFFFFFFFFFFFFFFFFFFFFFFFFF AND DUP2 MSTORE PUSH1 0x20 ADD SWAP1 DUP2 MSTORE PUSH1 0x20 ADD PUSH0 KECCAK256 PUSH0 PUSH2 0x100 EXP DUP2 SLOAD DUP2 PUSH1 0xFF MUL NOT AND SWAP1 DUP4 ISZERO ISZERO MUL OR SWAP1 SSTORE POP POP DUP1 DUP1 PUSH1 0x1 ADD SWAP2 POP POP PUSH2 0x1365 JUMP JUMPDEST POP PUSH1 0x2 PUSH0 PUSH2 0x1463 SWAP2 SWAP1 PUSH2 0x14B3 JUMP JUMPDEST JUMP JUMPDEST PUSH0 DUP1 DUP3 SLT ISZERO PUSH2 0x14AB JUMPI DUP2 PUSH1 0x40 MLOAD PUSH32 0xA8CE443200000000000000000000000000000000000000000000000000000000 DUP2 MSTORE PUSH1 0x4 ADD PUSH2 0x14A2 SWAP2 SWAP1 PUSH2 0x1DBC JUMP JUMPDEST PUSH1 0x40 MLOAD DUP1 SWAP2 SUB SWAP1 REVERT JUMPDEST DUP2 SWAP1 POP SWAP2 SWAP1 POP JUMP JUMPDEST POP DUP1 SLOAD PUSH0 DUP3 SSTORE SWAP1 PUSH0 MSTORE PUSH1 0x20 PUSH0 KECCAK256 SWAP1 DUP2 ADD SWAP1 PUSH2 0x14CE SWAP2 SWAP1 PUSH2 0x14D1 JUMP JUMPDEST POP JUMP JUMPDEST JUMPDEST DUP1 DUP3 GT ISZERO PUSH2 0x14E8 JUMPI PUSH0 DUP2 PUSH0 SWAP1 SSTORE POP PUSH1 0x1 ADD PUSH2 0x14D2 JUMP JUMPDEST POP SWAP1 JUMP JUMPDEST PUSH0 DUP1 REVERT JUMPDEST PUSH0 PUSH20 0xFFFFFFFFFFFFFFFFFFFFFFFFFFFFFFFFFFFFFFFF DUP3 AND SWAP1 POP SWAP2 SWAP1 POP JUMP JUMPDEST PUSH0 PUSH2 0x1519 DUP3 PUSH2 0x14F0 JUMP JUMPDEST SWAP1 POP SWAP2 SWAP1 POP JUMP JUMPDEST PUSH2 0x1529 DUP2 PUSH2 0x150F JUMP JUMPDEST DUP2 EQ PUSH2 0x1533 JUMPI PUSH0 DUP1 REVERT JUMPDEST POP JUMP JUMPDEST PUSH0 DUP2 CALLDATALOAD SWAP1 POP PUSH2 0x1544 DUP2 PUSH2 0x1520 JUMP JUMPDEST SWAP3 SWAP2 POP POP JUMP JUMPDEST PUSH0 PUSH1 0x20 DUP3 DUP5 SUB SLT ISZERO PUSH2 0x155F JUMPI PUSH2 0x155E PUSH2 0x14EC JUMP JUMPDEST JUMPDEST PUSH0 PUSH2 0x156C DUP5 DUP3 DUP6 ADD PUSH2 0x1536 JUMP JUMPDEST SWAP2 POP POP SWAP3 SWAP2 POP POP JUMP JUMPDEST PUSH0 DUP2 SWAP1 POP SWAP2 SWAP1 POP JUMP JUMPDEST PUSH2 0x1587 DUP2 PUSH2 0x1575 JUMP JUMPDEST DUP3 MSTORE POP POP JUMP JUMPDEST PUSH0 PUSH1 0x20 DUP3 ADD SWAP1 POP PUSH2 0x15A0 PUSH0 DUP4 ADD DUP5 PUSH2 0x157E JUMP JUMPDEST SWAP3 SWAP2 POP POP JUMP JUMPDEST PUSH2 0x15AF DUP2 PUSH2 0x1575 JUMP JUMPDEST DUP2 EQ PUSH2 0x15B9 JUMPI PUSH0 DUP1 REVERT JUMPDEST POP JUMP JUMPDEST PUSH0 DUP2 CALLDATALOAD SWAP1 POP PUSH2 0x15CA DUP2 PUSH2 0x15A6 JUMP JUMPDEST SWAP3 SWAP2 POP POP JUMP JUMPDEST PUSH0 DUP1 PUSH1 0x40 DUP4 DUP6 SUB SLT ISZERO PUSH2 0x15E6 JUMPI PUSH2 0x15E5 PUSH2 0x14EC JUMP JUMPDEST JUMPDEST PUSH0 PUSH2 0x15F3 DUP6 DUP3 DUP7 ADD PUSH2 0x15BC JUMP JUMPDEST SWAP3 POP POP PUSH1 0x20 PUSH2 0x1604 DUP6 DUP3 DUP7 ADD PUSH2 0x15BC JUMP JUMPDEST SWAP2 POP POP SWAP3 POP SWAP3 SWAP1 POP JUMP JUMPDEST PUSH0 PUSH1 0x20 DUP3 DUP5 SUB SLT ISZERO PUSH2 0x1623 JUMPI PUSH2 0x1622 PUSH2 0x14EC JUMP JUMPDEST JUMPDEST PUSH0 PUSH2 0x1630 DUP5 DUP3 DUP6 ADD PUSH2 0x15BC JUMP JUMPDEST SWAP2 POP POP SWAP3 SWAP2 POP POP JUMP JUMPDEST PUSH2 0x1642 DUP2 PUSH2 0x150F JUMP JUMPDEST DUP3 MSTORE POP POP JUMP JUMPDEST PUSH0 PUSH1 0x20 DUP3 ADD SWAP1 POP PUSH2 0x165B PUSH0 DUP4 ADD DUP5 PUSH2 0x1639 JUMP JUMPDEST SWAP3 SWAP2 POP POP JUMP JUMPDEST PUSH0 DUP2 ISZERO ISZERO SWAP1 POP SWAP2 SWAP1 POP JUMP JUMPDEST PUSH2 0x1675 DUP2 PUSH2 0x1661 JUMP JUMPDEST DUP3 MSTORE POP POP JUMP JUMPDEST PUSH0 PUSH1 0x20 DUP3 ADD SWAP1 POP PUSH2 0x168E PUSH0 DUP4 ADD DUP5 PUSH2 0x166C JUMP JUMPDEST SWAP3 SWAP2 POP POP JUMP JUMPDEST PUSH0 DUP3 DUP3 MSTORE PUSH1 0x20 DUP3 ADD SWAP1 POP SWAP3 SWAP2 POP POP JUMP JUMPDEST PUSH32 0x6469646E27742073656E6420656E6F7567682055534400000000000000000000 PUSH0 DUP3 ADD MSTORE POP JUMP JUMPDEST PUSH0 PUSH2 0x16D8 PUSH1 0x16 DUP4 PUSH2 0x1694 JUMP JUMPDEST SWAP2 POP PUSH2 0x16E3 DUP3 PUSH2 0x16A4 JUMP JUMPDEST PUSH1 0x20 DUP3 ADD SWAP1 POP SWAP2 SWAP1 POP JUMP JUMPDEST PUSH0 PUSH1 0x20 DUP3 ADD SWAP1 POP DUP2 DUP2 SUB PUSH0 DUP4 ADD MSTORE PUSH2 0x1705 DUP2 PUSH2 0x16CC JUMP JUMPDEST SWAP1 POP SWAP2 SWAP1 POP JUMP JUMPDEST PUSH32 0x4E487B7100000000000000000000000000000000000000000000000000000000 PUSH0 MSTORE PUSH1 0x11 PUSH1 0x4 MSTORE PUSH1 0x24 PUSH0 REVERT JUMPDEST PUSH0 PUSH2 0x1743 DUP3 PUSH2 0x1575 JUMP JUMPDEST SWAP2 POP PUSH2 0x174E DUP4 PUSH2 0x1575 JUMP JUMPDEST SWAP3 POP DUP3 DUP3 ADD SWAP1 POP DUP1 DUP3 GT ISZERO PUSH2 0x1766 JUMPI PUSH2 0x1765 PUSH2 0x170C JUMP JUMPDEST JUMPDEST SWAP3 SWAP2 POP POP JUMP JUMPDEST PUSH32 0x4E6F2072652D656E7472616E637920616C6C6F7765642C20706C656173652074 PUSH0 DUP3 ADD MSTORE PUSH32 0x727920616761696E2E0000000000000000000000000000000000000000000000 PUSH1 0x20 DUP3 ADD MSTORE POP JUMP JUMPDEST PUSH0 PUSH2 0x17C6 PUSH1 0x29 DUP4 PUSH2 0x1694 JUMP JUMPDEST SWAP2 POP PUSH2 0x17D1 DUP3 PUSH2 0x176C JUMP JUMPDEST PUSH1 0x40 DUP3 ADD SWAP1 POP SWAP2 SWAP1 POP JUMP JUMPDEST PUSH0 PUSH1 0x20 DUP3 ADD SWAP1 POP DUP2 DUP2 SUB PUSH0 DUP4 ADD MSTORE PUSH2 0x17F3 DUP2 PUSH2 0x17BA JUMP JUMPDEST SWAP1 POP SWAP2 SWAP1 POP JUMP JUMPDEST PUSH32 0x416464726573732063616E6E6F74206265206368616E67656420746F20612030 PUSH0 DUP3 ADD MSTORE PUSH32 0x7830206E756C6C20616464726573732E00000000000000000000000000000000 PUSH1 0x20 DUP3 ADD MSTORE POP JUMP JUMPDEST PUSH0 PUSH2 0x1854 PUSH1 0x30 DUP4 PUSH2 0x1694 JUMP JUMPDEST SWAP2 POP PUSH2 0x185F DUP3 PUSH2 0x17FA JUMP JUMPDEST PUSH1 0x40 DUP3 ADD SWAP1 POP SWAP2 SWAP1 POP JUMP JUMPDEST PUSH0 PUSH1 0x20 DUP3 ADD SWAP1 POP DUP2 DUP2 SUB PUSH0 DUP4 ADD MSTORE PUSH2 0x1881 DUP2 PUSH2 0x1848 JUMP JUMPDEST SWAP1 POP SWAP2 SWAP1 POP JUMP JUMPDEST PUSH32 0x57616C6C65742061646472657373206973206E6F7420612066756E6465722E00 PUSH0 DUP3 ADD MSTORE POP JUMP JUMPDEST PUSH0 PUSH2 0x18BC PUSH1 0x1F DUP4 PUSH2 0x1694 JUMP JUMPDEST SWAP2 POP PUSH2 0x18C7 DUP3 PUSH2 0x1888 JUMP JUMPDEST PUSH1 0x20 DUP3 ADD SWAP1 POP SWAP2 SWAP1 POP JUMP JUMPDEST PUSH0 PUSH1 0x20 DUP3 ADD SWAP1 POP DUP2 DUP2 SUB PUSH0 DUP4 ADD MSTORE PUSH2 0x18E9 DUP2 PUSH2 0x18B0 JUMP JUMPDEST SWAP1 POP SWAP2 SWAP1 POP JUMP JUMPDEST PUSH0 PUSH2 0x18FA DUP3 PUSH2 0x1575 JUMP JUMPDEST SWAP2 POP PUSH2 0x1905 DUP4 PUSH2 0x1575 JUMP JUMPDEST SWAP3 POP DUP3 DUP3 MUL PUSH2 0x1913 DUP2 PUSH2 0x1575 JUMP JUMPDEST SWAP2 POP DUP3 DUP3 DIV DUP5 EQ DUP4 ISZERO OR PUSH2 0x192A JUMPI PUSH2 0x1929 PUSH2 0x170C JUMP JUMPDEST JUMPDEST POP SWAP3 SWAP2 POP POP JUMP JUMPDEST PUSH32 0x4E487B7100000000000000000000000000000000000000000000000000000000 PUSH0 MSTORE PUSH1 0x12 PUSH1 0x4 MSTORE PUSH1 0x24 PUSH0 REVERT JUMPDEST PUSH0 PUSH2 0x1968 DUP3 PUSH2 0x1575 JUMP JUMPDEST SWAP2 POP PUSH2 0x1973 DUP4 PUSH2 0x1575 JUMP JUMPDEST SWAP3 POP DUP3 PUSH2 0x1983 JUMPI PUSH2 0x1982 PUSH2 0x1931 JUMP JUMPDEST JUMPDEST DUP3 DUP3 DIV SWAP1 POP SWAP3 SWAP2 POP POP JUMP JUMPDEST PUSH32 0x496E73756666696369656E742062616C616E6365000000000000000000000000 PUSH0 DUP3 ADD MSTORE POP JUMP JUMPDEST PUSH0 PUSH2 0x19C2 PUSH1 0x14 DUP4 PUSH2 0x1694 JUMP JUMPDEST SWAP2 POP PUSH2 0x19CD DUP3 PUSH2 0x198E JUMP JUMPDEST PUSH1 0x20 DUP3 ADD SWAP1 POP SWAP2 SWAP1 POP JUMP JUMPDEST PUSH0 PUSH1 0x20 DUP3 ADD SWAP1 POP DUP2 DUP2 SUB PUSH0 DUP4 ADD MSTORE PUSH2 0x19EF DUP2 PUSH2 0x19B6 JUMP JUMPDEST SWAP1 POP SWAP2 SWAP1 POP JUMP JUMPDEST PUSH0 DUP2 SWAP1 POP SWAP3 SWAP2 POP POP JUMP JUMPDEST POP JUMP JUMPDEST PUSH0 PUSH2 0x1A0E PUSH0 DUP4 PUSH2 0x19F6 JUMP JUMPDEST SWAP2 POP PUSH2 0x1A19 DUP3 PUSH2 0x1A00 JUMP JUMPDEST PUSH0 DUP3 ADD SWAP1 POP SWAP2 SWAP1 POP JUMP JUMPDEST PUSH0 PUSH2 0x1A2D DUP3 PUSH2 0x1A03 JUMP JUMPDEST SWAP2 POP DUP2 SWAP1 POP SWAP2 SWAP1 POP JUMP JUMPDEST PUSH32 0x5472616E73666572206661696C65642E00000000000000000000000000000000 PUSH0 DUP3 ADD MSTORE POP JUMP JUMPDEST PUSH0 PUSH2 0x1A6B PUSH1 0x10 DUP4 PUSH2 0x1694 JUMP JUMPDEST SWAP2 POP PUSH2 0x1A76 DUP3 PUSH2 0x1A37 JUMP JUMPDEST PUSH1 0x20 DUP3 ADD SWAP1 POP SWAP2 SWAP1 POP JUMP JUMPDEST PUSH0 PUSH1 0x20 DUP3 ADD SWAP1 POP DUP2 DUP2 SUB PUSH0 DUP4 ADD MSTORE PUSH2 0x1A98 DUP2 PUSH2 0x1A5F JUMP JUMPDEST SWAP1 POP SWAP2 SWAP1 POP JUMP JUMPDEST PUSH32 0x4F6E6C79206F776E65722063616E206578656375746520746869732066756E63 PUSH0 DUP3 ADD MSTORE PUSH32 0x74696F6E2E000000000000000000000000000000000000000000000000000000 PUSH1 0x20 DUP3 ADD MSTORE POP JUMP JUMPDEST PUSH0 PUSH2 0x1AF9 PUSH1 0x25 DUP4 PUSH2 0x1694 JUMP JUMPDEST SWAP2 POP PUSH2 0x1B04 DUP3 PUSH2 0x1A9F JUMP JUMPDEST PUSH1 0x40 DUP3 ADD SWAP1 POP SWAP2 SWAP1 POP JUMP JUMPDEST PUSH0 PUSH1 0x20 DUP3 ADD SWAP1 POP DUP2 DUP2 SUB PUSH0 DUP4 ADD MSTORE PUSH2 0x1B26 DUP2 PUSH2 0x1AED JUMP JUMPDEST SWAP1 POP SWAP2 SWAP1 POP JUMP JUMPDEST PUSH0 PUSH2 0x1B37 DUP3 PUSH2 0x1575 JUMP JUMPDEST SWAP2 POP PUSH2 0x1B42 DUP4 PUSH2 0x1575 JUMP JUMPDEST SWAP3 POP DUP3 DUP3 SUB SWAP1 POP DUP2 DUP2 GT ISZERO PUSH2 0x1B5A JUMPI PUSH2 0x1B59 PUSH2 0x170C JUMP JUMPDEST JUMPDEST SWAP3 SWAP2 POP POP JUMP JUMPDEST PUSH0 PUSH10 0xFFFFFFFFFFFFFFFFFFFF DUP3 AND SWAP1 POP SWAP2 SWAP1 POP JUMP JUMPDEST PUSH2 0x1B7E DUP2 PUSH2 0x1B60 JUMP JUMPDEST DUP2 EQ PUSH2 0x1B88 JUMPI PUSH0 DUP1 REVERT JUMPDEST POP JUMP JUMPDEST PUSH0 DUP2 MLOAD SWAP1 POP PUSH2 0x1B99 DUP2 PUSH2 0x1B75 JUMP JUMPDEST SWAP3 SWAP2 POP POP JUMP JUMPDEST PUSH0 DUP2 SWAP1 POP SWAP2 SWAP1 POP JUMP JUMPDEST PUSH2 0x1BB1 DUP2 PUSH2 0x1B9F JUMP JUMPDEST DUP2 EQ PUSH2 0x1BBB JUMPI PUSH0 DUP1 REVERT JUMPDEST POP JUMP JUMPDEST PUSH0 DUP2 MLOAD SWAP1 POP PUSH2 0x1BCC DUP2 PUSH2 0x1BA8 JUMP JUMPDEST SWAP3 SWAP2 POP POP JUMP JUMPDEST PUSH0 DUP2 MLOAD SWAP1 POP PUSH2 0x1BE0 DUP2 PUSH2 0x15A6 JUMP JUMPDEST SWAP3 SWAP2 POP POP JUMP JUMPDEST PUSH0 DUP1 PUSH0 DUP1 PUSH0 PUSH1 0xA0 DUP7 DUP9 SUB SLT ISZERO PUSH2 0x1BFF JUMPI PUSH2 0x1BFE PUSH2 0x14EC JUMP JUMPDEST JUMPDEST PUSH0 PUSH2 0x1C0C DUP9 DUP3 DUP10 ADD PUSH2 0x1B8B JUMP JUMPDEST SWAP6 POP POP PUSH1 0x20 PUSH2 0x1C1D DUP9 DUP3 DUP10 ADD PUSH2 0x1BBE JUMP JUMPDEST SWAP5 POP POP PUSH1 0x40 PUSH2 0x1C2E DUP9 DUP3 DUP10 ADD PUSH2 0x1BD2 JUMP JUMPDEST SWAP4 POP POP PUSH1 0x60 PUSH2 0x1C3F DUP9 DUP3 DUP10 ADD PUSH2 0x1BD2 JUMP JUMPDEST SWAP3 POP POP PUSH1 0x80 PUSH2 0x1C50 DUP9 DUP3 DUP10 ADD PUSH2 0x1B8B JUMP JUMPDEST SWAP2 POP POP SWAP3 SWAP6 POP SWAP3 SWAP6 SWAP1 SWAP4 POP JUMP JUMPDEST PUSH32 0x4E65676174697665207072696365206E6F7420616C6C6F7765642E0000000000 PUSH0 DUP3 ADD MSTORE POP JUMP JUMPDEST PUSH0 PUSH2 0x1C91 PUSH1 0x1B DUP4 PUSH2 0x1694 JUMP JUMPDEST SWAP2 POP PUSH2 0x1C9C DUP3 PUSH2 0x1C5D JUMP JUMPDEST PUSH1 0x20 DUP3 ADD SWAP1 POP SWAP2 SWAP1 POP JUMP JUMPDEST PUSH0 PUSH1 0x20 DUP3 ADD SWAP1 POP DUP2 DUP2 SUB PUSH0 DUP4 ADD MSTORE PUSH2 0x1CBE DUP2 PUSH2 0x1C85 JUMP JUMPDEST SWAP1 POP SWAP2 SWAP1 POP JUMP JUMPDEST PUSH32 0x43616E6E6F74206368616E6765207468652076616C7565206F66206D696E696D PUSH0 DUP3 ADD MSTORE PUSH32 0x756D55736420746F207468652073616D652076616C75652E0000000000000000 PUSH1 0x20 DUP3 ADD MSTORE POP JUMP JUMPDEST PUSH0 PUSH2 0x1D1F PUSH1 0x38 DUP4 PUSH2 0x1694 JUMP JUMPDEST SWAP2 POP PUSH2 0x1D2A DUP3 PUSH2 0x1CC5 JUMP JUMPDEST PUSH1 0x40 DUP3 ADD SWAP1 POP SWAP2 SWAP1 POP JUMP JUMPDEST PUSH0 PUSH1 0x20 DUP3 ADD SWAP1 POP DUP2 DUP2 SUB PUSH0 DUP4 ADD MSTORE PUSH2 0x1D4C DUP2 PUSH2 0x1D13 JUMP JUMPDEST SWAP1 POP SWAP2 SWAP1 POP JUMP JUMPDEST PUSH32 0x4E487B7100000000000000000000000000000000000000000000000000000000 PUSH0 MSTORE PUSH1 0x32 PUSH1 0x4 MSTORE PUSH1 0x24 PUSH0 REVERT JUMPDEST PUSH32 0x4E487B7100000000000000000000000000000000000000000000000000000000 PUSH0 MSTORE PUSH1 0x31 PUSH1 0x4 MSTORE PUSH1 0x24 PUSH0 REVERT JUMPDEST PUSH2 0x1DB6 DUP2 PUSH2 0x1B9F JUMP JUMPDEST DUP3 MSTORE POP POP JUMP JUMPDEST PUSH0 PUSH1 0x20 DUP3 ADD SWAP1 POP PUSH2 0x1DCF PUSH0 DUP4 ADD DUP5 PUSH2 0x1DAD JUMP JUMPDEST SWAP3 SWAP2 POP POP JUMP INVALID LOG2 PUSH5 0x6970667358 0x22 SLT KECCAK256 0xA6 PUSH16 0x96ACCE8B82D2479BDAE5A35E9BA91391 NUMBER 0xE4 PUSH26 0x33E3EB97BC8E7AE8DEBF3364736F6C634300081A003300000000 "
				},
				"gasEstimates": {
					"creation": {
						"codeDepositCost": "1538200",
						"executionCost": "infinite",
						"totalCost": "infinite"
					},
					"external": {
						"": "infinite",
						"addressIsActiveFunder(address)": "2921",
						"addressToAvailableAmount(address)": "2826",
						"addressToIndexInFundersArray(address)": "2869",
						"changeFunder(address)": "infinite",
						"changeMinimumUsd(uint256)": "infinite",
						"fund()": "infinite",
						"funders(uint256)": "5010",
						"getConversionRate(uint256,uint256)": "infinite",
						"getPrice()": "infinite",
						"i_owner()": "infinite",
						"minimumUsd()": "2471",
						"ownerWithdrawFunds()": "infinite",
						"partialWithdraw(uint256)": "infinite",
						"totalWithdraw()": "infinite"
					},
					"internal": {
						"cleanAfterOwnerWithdrawal()": "infinite",
						"cleanAfterUserWithdrawal()": "infinite"
					}
				},
				"methodIdentifiers": {
					"addressIsActiveFunder(address)": "f8024578",
					"addressToAvailableAmount(address)": "034855c7",
					"addressToIndexInFundersArray(address)": "cc3b589e",
					"changeFunder(address)": "11ea94d6",
					"changeMinimumUsd(uint256)": "d78a29d2",
					"fund()": "b60d4288",
					"funders(uint256)": "dc0d3dff",
					"getConversionRate(uint256,uint256)": "3e9f607c",
					"getPrice()": "98d5fdca",
					"i_owner()": "dba6335f",
					"minimumUsd()": "098de820",
					"ownerWithdrawFunds()": "5eb8d90b",
					"partialWithdraw(uint256)": "71d2ee6c",
					"totalWithdraw()": "455fd623"
				}
			},
			"storageLayout": {
				"storage": [
					{
						"astId": 55,
						"contract": "FundMe/contracts/FundMe.sol:FundMe",
						"label": "locked",
						"offset": 0,
						"slot": "0",
						"type": "t_bool"
					},
					{
						"astId": 59,
						"contract": "FundMe/contracts/FundMe.sol:FundMe",
						"label": "minimumUsd",
						"offset": 0,
						"slot": "1",
						"type": "t_uint256"
					},
					{
						"astId": 62,
						"contract": "FundMe/contracts/FundMe.sol:FundMe",
						"label": "funders",
						"offset": 0,
						"slot": "2",
						"type": "t_array(t_address)dyn_storage"
					},
					{
						"astId": 66,
						"contract": "FundMe/contracts/FundMe.sol:FundMe",
						"label": "addressToIndexInFundersArray",
						"offset": 0,
						"slot": "3",
						"type": "t_mapping(t_address,t_uint256)"
					},
					{
						"astId": 70,
						"contract": "FundMe/contracts/FundMe.sol:FundMe",
						"label": "addressIsActiveFunder",
						"offset": 0,
						"slot": "4",
						"type": "t_mapping(t_address,t_bool)"
					},
					{
						"astId": 74,
						"contract": "FundMe/contracts/FundMe.sol:FundMe",
						"label": "addressToAvailableAmount",
						"offset": 0,
						"slot": "5",
						"type": "t_mapping(t_address,t_uint256)"
					}
				],
				"types": {
					"t_address": {
						"encoding": "inplace",
						"label": "address",
						"numberOfBytes": "20"
					},
					"t_array(t_address)dyn_storage": {
						"base": "t_address",
						"encoding": "dynamic_array",
						"label": "address[]",
						"numberOfBytes": "32"
					},
					"t_bool": {
						"encoding": "inplace",
						"label": "bool",
						"numberOfBytes": "1"
					},
					"t_mapping(t_address,t_bool)": {
						"encoding": "mapping",
						"key": "t_address",
						"label": "mapping(address => bool)",
						"numberOfBytes": "32",
						"value": "t_bool"
					},
					"t_mapping(t_address,t_uint256)": {
						"encoding": "mapping",
						"key": "t_address",
						"label": "mapping(address => uint256)",
						"numberOfBytes": "32",
						"value": "t_uint256"
					},
					"t_uint256": {
						"encoding": "inplace",
						"label": "uint256",
						"numberOfBytes": "32"
					}
				}
			},
			"userdoc": {
				"kind": "user",
				"methods": {},
				"version": 1
			}
		}
	}
}