{
	"contracts/FundMe.sol": {
		"FundMe": {
			"abi": [
				{
					"inputs": [],
					"stateMutability": "nonpayable",
					"type": "constructor"
				},
				{
					"inputs": [
						{
							"internalType": "int256",
							"name": "value",
							"type": "int256"
						}
					],
					"name": "SafeCastOverflowedIntToUint",
					"type": "error"
				},
				{
					"inputs": [
						{
							"internalType": "address",
							"name": "",
							"type": "address"
						}
					],
					"name": "addressToAvailableAmount",
					"outputs": [
						{
							"internalType": "uint256",
							"name": "",
							"type": "uint256"
						}
					],
					"stateMutability": "view",
					"type": "function"
				},
				{
					"inputs": [
						{
							"internalType": "uint256",
							"name": "_newMinimumUsd",
							"type": "uint256"
						}
					],
					"name": "changeMinimumUsd",
					"outputs": [],
					"stateMutability": "nonpayable",
					"type": "function"
				},
				{
					"inputs": [],
					"name": "fund",
					"outputs": [],
					"stateMutability": "payable",
					"type": "function"
				},
				{
					"inputs": [
						{
							"internalType": "uint256",
							"name": "_price",
							"type": "uint256"
						},
						{
							"internalType": "uint256",
							"name": "_amountInWEI",
							"type": "uint256"
						}
					],
					"name": "getConversionRate",
					"outputs": [
						{
							"internalType": "uint256",
							"name": "",
							"type": "uint256"
						}
					],
					"stateMutability": "pure",
					"type": "function"
				},
				{
					"inputs": [],
					"name": "getPrice",
					"outputs": [
						{
							"internalType": "uint256",
							"name": "",
							"type": "uint256"
						}
					],
					"stateMutability": "view",
					"type": "function"
				},
				{
					"inputs": [],
					"name": "minimumUsd",
					"outputs": [
						{
							"internalType": "uint256",
							"name": "",
							"type": "uint256"
						}
					],
					"stateMutability": "view",
					"type": "function"
				},
				{
					"inputs": [],
					"name": "owner",
					"outputs": [
						{
							"internalType": "address",
							"name": "",
							"type": "address"
						}
					],
					"stateMutability": "view",
					"type": "function"
				},
				{
					"inputs": [
						{
							"internalType": "uint256",
							"name": "_amount",
							"type": "uint256"
						}
					],
					"name": "partialWithdraw",
					"outputs": [],
					"stateMutability": "nonpayable",
					"type": "function"
				},
				{
					"inputs": [],
					"name": "totalWithdraw",
					"outputs": [],
					"stateMutability": "nonpayable",
					"type": "function"
				}
			],
			"devdoc": {
				"errors": {
					"SafeCastOverflowedIntToUint(int256)": [
						{
							"details": "An int value doesn't fit in an uint of `bits` size."
						}
					]
				},
				"kind": "dev",
				"methods": {},
				"version": 1
			},
			"evm": {
				"assembly": "    /* \"contracts/FundMe.sol\":864:3799  contract FundMe {... */\n  mstore(0x40, 0x80)\n    /* \"contracts/FundMe.sol\":945:1117  constructor() {... */\n  callvalue\n  dup1\n  iszero\n  tag_1\n  jumpi\n  0x00\n  dup1\n  revert\ntag_1:\n  pop\n    /* \"contracts/FundMe.sol\":977:987  msg.sender */\n  caller\n    /* \"contracts/FundMe.sol\":969:974  owner */\n  0x00\n  dup1\n    /* \"contracts/FundMe.sol\":969:987  owner = msg.sender */\n  0x0100\n  exp\n  dup2\n  sload\n  dup2\n  0xffffffffffffffffffffffffffffffffffffffff\n  mul\n  not\n  and\n  swap1\n  dup4\n  0xffffffffffffffffffffffffffffffffffffffff\n  and\n  mul\n  or\n  swap1\n  sstore\n  pop\n    /* \"contracts/FundMe.sol\":1105:1110  5*1e8 */\n  0x1dcd6500\n    /* \"contracts/FundMe.sol\":1092:1102  minimumUsd */\n  0x01\n    /* \"contracts/FundMe.sol\":1092:1110  minimumUsd = 5*1e8 */\n  dup2\n  swap1\n  sstore\n  pop\n    /* \"contracts/FundMe.sol\":864:3799  contract FundMe {... */\n  dataSize(sub_0)\n  dup1\n  dataOffset(sub_0)\n  0x00\n  codecopy\n  0x00\n  return\nstop\n\nsub_0: assembly {\n        /* \"contracts/FundMe.sol\":864:3799  contract FundMe {... */\n      mstore(0x40, 0x80)\n      jumpi(tag_1, lt(calldatasize, 0x04))\n      shr(0xe0, calldataload(0x00))\n      dup1\n      0x71d2ee6c\n      gt\n      tag_11\n      jumpi\n      dup1\n      0x71d2ee6c\n      eq\n      tag_6\n      jumpi\n      dup1\n      0x8da5cb5b\n      eq\n      tag_7\n      jumpi\n      dup1\n      0x98d5fdca\n      eq\n      tag_8\n      jumpi\n      dup1\n      0xb60d4288\n      eq\n      tag_9\n      jumpi\n      dup1\n      0xd78a29d2\n      eq\n      tag_10\n      jumpi\n      jump(tag_1)\n    tag_11:\n      dup1\n      0x034855c7\n      eq\n      tag_2\n      jumpi\n      dup1\n      0x098de820\n      eq\n      tag_3\n      jumpi\n      dup1\n      0x3e9f607c\n      eq\n      tag_4\n      jumpi\n      dup1\n      0x455fd623\n      eq\n      tag_5\n      jumpi\n    tag_1:\n      0x00\n      dup1\n      revert\n        /* \"contracts/FundMe.sol\":1191:1251  mapping (address => uint256) public addressToAvailableAmount */\n    tag_2:\n      callvalue\n      dup1\n      iszero\n      tag_12\n      jumpi\n      0x00\n      dup1\n      revert\n    tag_12:\n      pop\n      tag_13\n      0x04\n      dup1\n      calldatasize\n      sub\n      dup2\n      add\n      swap1\n      tag_14\n      swap2\n      swap1\n      tag_15\n      jump\t// in\n    tag_14:\n      tag_16\n      jump\t// in\n    tag_13:\n      mload(0x40)\n      tag_17\n      swap2\n      swap1\n      tag_18\n      jump\t// in\n    tag_17:\n      mload(0x40)\n      dup1\n      swap2\n      sub\n      swap1\n      return\n        /* \"contracts/FundMe.sol\":913:938  uint256 public minimumUsd */\n    tag_3:\n      callvalue\n      dup1\n      iszero\n      tag_19\n      jumpi\n      0x00\n      dup1\n      revert\n    tag_19:\n      pop\n      tag_20\n      tag_21\n      jump\t// in\n    tag_20:\n      mload(0x40)\n      tag_22\n      swap2\n      swap1\n      tag_18\n      jump\t// in\n    tag_22:\n      mload(0x40)\n      dup1\n      swap2\n      sub\n      swap1\n      return\n        /* \"contracts/FundMe.sol\":3649:3796  function getConversionRate(uint256 _price, uint256 _amountInWEI) public pure returns (uint256) {... */\n    tag_4:\n      callvalue\n      dup1\n      iszero\n      tag_23\n      jumpi\n      0x00\n      dup1\n      revert\n    tag_23:\n      pop\n      tag_24\n      0x04\n      dup1\n      calldatasize\n      sub\n      dup2\n      add\n      swap1\n      tag_25\n      swap2\n      swap1\n      tag_26\n      jump\t// in\n    tag_25:\n      tag_27\n      jump\t// in\n    tag_24:\n      mload(0x40)\n      tag_28\n      swap2\n      swap1\n      tag_18\n      jump\t// in\n    tag_28:\n      mload(0x40)\n      dup1\n      swap2\n      sub\n      swap1\n      return\n        /* \"contracts/FundMe.sol\":2838:3163  function totalWithdraw() public {... */\n    tag_5:\n      callvalue\n      dup1\n      iszero\n      tag_29\n      jumpi\n      0x00\n      dup1\n      revert\n    tag_29:\n      pop\n      tag_30\n      tag_31\n      jump\t// in\n    tag_30:\n      stop\n        /* \"contracts/FundMe.sol\":2381:2737  function partialWithdraw(uint256 _amount) public {... */\n    tag_6:\n      callvalue\n      dup1\n      iszero\n      tag_32\n      jumpi\n      0x00\n      dup1\n      revert\n    tag_32:\n      pop\n      tag_33\n      0x04\n      dup1\n      calldatasize\n      sub\n      dup2\n      add\n      swap1\n      tag_34\n      swap2\n      swap1\n      tag_35\n      jump\t// in\n    tag_34:\n      tag_36\n      jump\t// in\n    tag_33:\n      stop\n        /* \"contracts/FundMe.sol\":887:907  address public owner */\n    tag_7:\n      callvalue\n      dup1\n      iszero\n      tag_37\n      jumpi\n      0x00\n      dup1\n      revert\n    tag_37:\n      pop\n      tag_38\n      tag_39\n      jump\t// in\n    tag_38:\n      mload(0x40)\n      tag_40\n      swap2\n      swap1\n      tag_41\n      jump\t// in\n    tag_40:\n      mload(0x40)\n      dup1\n      swap2\n      sub\n      swap1\n      return\n        /* \"contracts/FundMe.sol\":3280:3545  function getPrice() public view returns (uint256) {... */\n    tag_8:\n      callvalue\n      dup1\n      iszero\n      tag_42\n      jumpi\n      0x00\n      dup1\n      revert\n    tag_42:\n      pop\n      tag_43\n      tag_44\n      jump\t// in\n    tag_43:\n      mload(0x40)\n      tag_45\n      swap2\n      swap1\n      tag_18\n      jump\t// in\n    tag_45:\n      mload(0x40)\n      dup1\n      swap2\n      sub\n      swap1\n      return\n        /* \"contracts/FundMe.sol\":2001:2277  function fund() public payable {... */\n    tag_9:\n      tag_46\n      tag_47\n      jump\t// in\n    tag_46:\n      stop\n        /* \"contracts/FundMe.sol\":1351:1719  function changeMinimumUsd(uint256 _newMinimumUsd) public {... */\n    tag_10:\n      callvalue\n      dup1\n      iszero\n      tag_48\n      jumpi\n      0x00\n      dup1\n      revert\n    tag_48:\n      pop\n      tag_49\n      0x04\n      dup1\n      calldatasize\n      sub\n      dup2\n      add\n      swap1\n      tag_50\n      swap2\n      swap1\n      tag_35\n      jump\t// in\n    tag_50:\n      tag_51\n      jump\t// in\n    tag_49:\n      stop\n        /* \"contracts/FundMe.sol\":1191:1251  mapping (address => uint256) public addressToAvailableAmount */\n    tag_16:\n      mstore(0x20, 0x02)\n      dup1\n      0x00\n      mstore\n      keccak256(0x00, 0x40)\n      0x00\n      swap2\n      pop\n      swap1\n      pop\n      sload\n      dup2\n      jump\t// out\n        /* \"contracts/FundMe.sol\":913:938  uint256 public minimumUsd */\n    tag_21:\n      sload(0x01)\n      dup2\n      jump\t// out\n        /* \"contracts/FundMe.sol\":3649:3796  function getConversionRate(uint256 _price, uint256 _amountInWEI) public pure returns (uint256) {... */\n    tag_27:\n        /* \"contracts/FundMe.sol\":3735:3742  uint256 */\n      0x00\n        /* \"contracts/FundMe.sol\":3785:3789  1e18 */\n      0x0de0b6b3a7640000\n        /* \"contracts/FundMe.sol\":3771:3783  _amountInWEI */\n      dup3\n        /* \"contracts/FundMe.sol\":3762:3768  _price */\n      dup5\n        /* \"contracts/FundMe.sol\":3762:3783  _price * _amountInWEI */\n      tag_53\n      swap2\n      swap1\n      tag_54\n      jump\t// in\n    tag_53:\n        /* \"contracts/FundMe.sol\":3761:3789  (_price * _amountInWEI)/1e18 */\n      tag_55\n      swap2\n      swap1\n      tag_56\n      jump\t// in\n    tag_55:\n        /* \"contracts/FundMe.sol\":3754:3789  return (_price * _amountInWEI)/1e18 */\n      swap1\n      pop\n        /* \"contracts/FundMe.sol\":3649:3796  function getConversionRate(uint256 _price, uint256 _amountInWEI) public pure returns (uint256) {... */\n      swap3\n      swap2\n      pop\n      pop\n      jump\t// out\n        /* \"contracts/FundMe.sol\":2838:3163  function totalWithdraw() public {... */\n    tag_31:\n        /* \"contracts/FundMe.sol\":2880:2895  uint256 balance */\n      0x00\n        /* \"contracts/FundMe.sol\":2898:2922  addressToAvailableAmount */\n      0x02\n        /* \"contracts/FundMe.sol\":2898:2934  addressToAvailableAmount[msg.sender] */\n      0x00\n        /* \"contracts/FundMe.sol\":2923:2933  msg.sender */\n      caller\n        /* \"contracts/FundMe.sol\":2898:2934  addressToAvailableAmount[msg.sender] */\n      0xffffffffffffffffffffffffffffffffffffffff\n      and\n      0xffffffffffffffffffffffffffffffffffffffff\n      and\n      dup2\n      mstore\n      0x20\n      add\n      swap1\n      dup2\n      mstore\n      0x20\n      add\n      0x00\n      keccak256\n      sload\n        /* \"contracts/FundMe.sol\":2880:2934  uint256 balance = addressToAvailableAmount[msg.sender] */\n      swap1\n      pop\n        /* \"contracts/FundMe.sol\":2962:2963  0 */\n      0x00\n        /* \"contracts/FundMe.sol\":2952:2959  balance */\n      dup2\n        /* \"contracts/FundMe.sol\":2952:2963  balance > 0 */\n      gt\n        /* \"contracts/FundMe.sol\":2944:2988  require(balance > 0, \"Insufficient balance\") */\n      tag_58\n      jumpi\n      mload(0x40)\n      0x08c379a000000000000000000000000000000000000000000000000000000000\n      dup2\n      mstore\n      0x04\n      add\n      tag_59\n      swap1\n      tag_60\n      jump\t// in\n    tag_59:\n      mload(0x40)\n      dup1\n      swap2\n      sub\n      swap1\n      revert\n    tag_58:\n        /* \"contracts/FundMe.sol\":3037:3038  0 */\n      0x00\n        /* \"contracts/FundMe.sol\":2998:3022  addressToAvailableAmount */\n      0x02\n        /* \"contracts/FundMe.sol\":2998:3034  addressToAvailableAmount[msg.sender] */\n      0x00\n        /* \"contracts/FundMe.sol\":3023:3033  msg.sender */\n      caller\n        /* \"contracts/FundMe.sol\":2998:3034  addressToAvailableAmount[msg.sender] */\n      0xffffffffffffffffffffffffffffffffffffffff\n      and\n      0xffffffffffffffffffffffffffffffffffffffff\n      and\n      dup2\n      mstore\n      0x20\n      add\n      swap1\n      dup2\n      mstore\n      0x20\n      add\n      0x00\n      keccak256\n        /* \"contracts/FundMe.sol\":2998:3038  addressToAvailableAmount[msg.sender] = 0 */\n      dup2\n      swap1\n      sstore\n      pop\n        /* \"contracts/FundMe.sol\":3049:3061  bool success */\n      0x00\n        /* \"contracts/FundMe.sol\":3067:3077  msg.sender */\n      caller\n        /* \"contracts/FundMe.sol\":3067:3082  msg.sender.call */\n      0xffffffffffffffffffffffffffffffffffffffff\n      and\n        /* \"contracts/FundMe.sol\":3090:3097  balance */\n      dup3\n        /* \"contracts/FundMe.sol\":3067:3102  msg.sender.call{value: balance}(\"\") */\n      mload(0x40)\n      tag_61\n      swap1\n      tag_62\n      jump\t// in\n    tag_61:\n      0x00\n      mload(0x40)\n      dup1\n      dup4\n      sub\n      dup2\n      dup6\n      dup8\n      gas\n      call\n      swap3\n      pop\n      pop\n      pop\n      returndatasize\n      dup1\n      0x00\n      dup2\n      eq\n      tag_65\n      jumpi\n      mload(0x40)\n      swap2\n      pop\n      and(add(returndatasize, 0x3f), not(0x1f))\n      dup3\n      add\n      0x40\n      mstore\n      returndatasize\n      dup3\n      mstore\n      returndatasize\n      0x00\n      0x20\n      dup5\n      add\n      returndatacopy\n      jump(tag_64)\n    tag_65:\n      0x60\n      swap2\n      pop\n    tag_64:\n      pop\n        /* \"contracts/FundMe.sol\":3048:3102  (bool success, ) = msg.sender.call{value: balance}(\"\") */\n      pop\n      swap1\n      pop\n        /* \"contracts/FundMe.sol\":3131:3135  true */\n      0x01\n        /* \"contracts/FundMe.sol\":3120:3135  success == true */\n      iszero\n      iszero\n        /* \"contracts/FundMe.sol\":3120:3127  success */\n      dup2\n        /* \"contracts/FundMe.sol\":3120:3135  success == true */\n      iszero\n      iszero\n      eq\n        /* \"contracts/FundMe.sol\":3112:3156  require(success == true, \"Transfer failed.\") */\n      tag_66\n      jumpi\n      mload(0x40)\n      0x08c379a000000000000000000000000000000000000000000000000000000000\n      dup2\n      mstore\n      0x04\n      add\n      tag_67\n      swap1\n      tag_68\n      jump\t// in\n    tag_67:\n      mload(0x40)\n      dup1\n      swap2\n      sub\n      swap1\n      revert\n    tag_66:\n        /* \"contracts/FundMe.sol\":2870:3163  {... */\n      pop\n      pop\n        /* \"contracts/FundMe.sol\":2838:3163  function totalWithdraw() public {... */\n      jump\t// out\n        /* \"contracts/FundMe.sol\":2381:2737  function partialWithdraw(uint256 _amount) public {... */\n    tag_36:\n        /* \"contracts/FundMe.sol\":2440:2455  uint256 balance */\n      0x00\n        /* \"contracts/FundMe.sol\":2458:2482  addressToAvailableAmount */\n      0x02\n        /* \"contracts/FundMe.sol\":2458:2494  addressToAvailableAmount[msg.sender] */\n      0x00\n        /* \"contracts/FundMe.sol\":2483:2493  msg.sender */\n      caller\n        /* \"contracts/FundMe.sol\":2458:2494  addressToAvailableAmount[msg.sender] */\n      0xffffffffffffffffffffffffffffffffffffffff\n      and\n      0xffffffffffffffffffffffffffffffffffffffff\n      and\n      dup2\n      mstore\n      0x20\n      add\n      swap1\n      dup2\n      mstore\n      0x20\n      add\n      0x00\n      keccak256\n      sload\n        /* \"contracts/FundMe.sol\":2440:2494  uint256 balance = addressToAvailableAmount[msg.sender] */\n      swap1\n      pop\n        /* \"contracts/FundMe.sol\":2523:2530  _amount */\n      dup2\n        /* \"contracts/FundMe.sol\":2512:2519  balance */\n      dup2\n        /* \"contracts/FundMe.sol\":2512:2530  balance >= _amount */\n      lt\n      iszero\n        /* \"contracts/FundMe.sol\":2504:2555  require(balance >= _amount, \"Insufficient balance\") */\n      tag_70\n      jumpi\n      mload(0x40)\n      0x08c379a000000000000000000000000000000000000000000000000000000000\n      dup2\n      mstore\n      0x04\n      add\n      tag_71\n      swap1\n      tag_60\n      jump\t// in\n    tag_71:\n      mload(0x40)\n      dup1\n      swap2\n      sub\n      swap1\n      revert\n    tag_70:\n        /* \"contracts/FundMe.sol\":2605:2612  _amount */\n      dup2\n        /* \"contracts/FundMe.sol\":2565:2589  addressToAvailableAmount */\n      0x02\n        /* \"contracts/FundMe.sol\":2565:2601  addressToAvailableAmount[msg.sender] */\n      0x00\n        /* \"contracts/FundMe.sol\":2590:2600  msg.sender */\n      caller\n        /* \"contracts/FundMe.sol\":2565:2601  addressToAvailableAmount[msg.sender] */\n      0xffffffffffffffffffffffffffffffffffffffff\n      and\n      0xffffffffffffffffffffffffffffffffffffffff\n      and\n      dup2\n      mstore\n      0x20\n      add\n      swap1\n      dup2\n      mstore\n      0x20\n      add\n      0x00\n      keccak256\n      0x00\n        /* \"contracts/FundMe.sol\":2565:2612  addressToAvailableAmount[msg.sender] -= _amount */\n      dup3\n      dup3\n      sload\n      tag_72\n      swap2\n      swap1\n      tag_73\n      jump\t// in\n    tag_72:\n      swap3\n      pop\n      pop\n      dup2\n      swap1\n      sstore\n      pop\n        /* \"contracts/FundMe.sol\":2623:2635  bool success */\n      0x00\n        /* \"contracts/FundMe.sol\":2641:2651  msg.sender */\n      caller\n        /* \"contracts/FundMe.sol\":2641:2656  msg.sender.call */\n      0xffffffffffffffffffffffffffffffffffffffff\n      and\n        /* \"contracts/FundMe.sol\":2664:2671  _amount */\n      dup4\n        /* \"contracts/FundMe.sol\":2641:2676  msg.sender.call{value: _amount}(\"\") */\n      mload(0x40)\n      tag_74\n      swap1\n      tag_62\n      jump\t// in\n    tag_74:\n      0x00\n      mload(0x40)\n      dup1\n      dup4\n      sub\n      dup2\n      dup6\n      dup8\n      gas\n      call\n      swap3\n      pop\n      pop\n      pop\n      returndatasize\n      dup1\n      0x00\n      dup2\n      eq\n      tag_77\n      jumpi\n      mload(0x40)\n      swap2\n      pop\n      and(add(returndatasize, 0x3f), not(0x1f))\n      dup3\n      add\n      0x40\n      mstore\n      returndatasize\n      dup3\n      mstore\n      returndatasize\n      0x00\n      0x20\n      dup5\n      add\n      returndatacopy\n      jump(tag_76)\n    tag_77:\n      0x60\n      swap2\n      pop\n    tag_76:\n      pop\n        /* \"contracts/FundMe.sol\":2622:2676  (bool success, ) = msg.sender.call{value: _amount}(\"\") */\n      pop\n      swap1\n      pop\n        /* \"contracts/FundMe.sol\":2705:2709  true */\n      0x01\n        /* \"contracts/FundMe.sol\":2694:2709  success == true */\n      iszero\n      iszero\n        /* \"contracts/FundMe.sol\":2694:2701  success */\n      dup2\n        /* \"contracts/FundMe.sol\":2694:2709  success == true */\n      iszero\n      iszero\n      eq\n        /* \"contracts/FundMe.sol\":2686:2730  require(success == true, \"Transfer failed.\") */\n      tag_78\n      jumpi\n      mload(0x40)\n      0x08c379a000000000000000000000000000000000000000000000000000000000\n      dup2\n      mstore\n      0x04\n      add\n      tag_79\n      swap1\n      tag_68\n      jump\t// in\n    tag_79:\n      mload(0x40)\n      dup1\n      swap2\n      sub\n      swap1\n      revert\n    tag_78:\n        /* \"contracts/FundMe.sol\":2430:2737  {... */\n      pop\n      pop\n        /* \"contracts/FundMe.sol\":2381:2737  function partialWithdraw(uint256 _amount) public {... */\n      pop\n      jump\t// out\n        /* \"contracts/FundMe.sol\":887:907  address public owner */\n    tag_39:\n      0x00\n      dup1\n      sload\n      swap1\n      0x0100\n      exp\n      swap1\n      div\n      0xffffffffffffffffffffffffffffffffffffffff\n      and\n      dup2\n      jump\t// out\n        /* \"contracts/FundMe.sol\":3280:3545  function getPrice() public view returns (uint256) {... */\n    tag_44:\n        /* \"contracts/FundMe.sol\":3321:3328  uint256 */\n      0x00\n        /* \"contracts/FundMe.sol\":3342:3354  int256 price */\n      dup1\n        /* \"contracts/FundMe.sol\":3384:3426  0x694AA1769357215DE4FAC081bf1f309aDC325306 */\n      0x694aa1769357215de4fac081bf1f309adc325306\n        /* \"contracts/FundMe.sol\":3362:3443  AggregatorV3Interface(0x694AA1769357215DE4FAC081bf1f309aDC325306).latestRoundData */\n      0xffffffffffffffffffffffffffffffffffffffff\n      and\n      0xfeaf968c\n        /* \"contracts/FundMe.sol\":3362:3445  AggregatorV3Interface(0x694AA1769357215DE4FAC081bf1f309aDC325306).latestRoundData() */\n      mload(0x40)\n      dup2\n      0xffffffff\n      and\n      0xe0\n      shl\n      dup2\n      mstore\n      0x04\n      add\n      0xa0\n      mload(0x40)\n      dup1\n      dup4\n      sub\n      dup2\n      dup7\n      gas\n      staticcall\n      iszero\n      dup1\n      iszero\n      tag_82\n      jumpi\n      returndatasize\n      0x00\n      dup1\n      returndatacopy\n      revert(0x00, returndatasize)\n    tag_82:\n      pop\n      pop\n      pop\n      pop\n      mload(0x40)\n      returndatasize\n      not(0x1f)\n      0x1f\n      dup3\n      add\n      and\n      dup3\n      add\n      dup1\n      0x40\n      mstore\n      pop\n      dup2\n      add\n      swap1\n      tag_83\n      swap2\n      swap1\n      tag_84\n      jump\t// in\n    tag_83:\n        /* \"contracts/FundMe.sol\":3340:3445  (,int256 price ,,,) = AggregatorV3Interface(0x694AA1769357215DE4FAC081bf1f309aDC325306).latestRoundData() */\n      pop\n      pop\n      pop\n      swap2\n      pop\n      pop\n        /* \"contracts/FundMe.sol\":3471:3472  0 */\n      0x00\n        /* \"contracts/FundMe.sol\":3463:3468  price */\n      dup2\n        /* \"contracts/FundMe.sol\":3463:3472  price > 0 */\n      sgt\n        /* \"contracts/FundMe.sol\":3455:3504  require(price > 0, \"Negative price not allowed.\") */\n      tag_85\n      jumpi\n      mload(0x40)\n      0x08c379a000000000000000000000000000000000000000000000000000000000\n      dup2\n      mstore\n      0x04\n      add\n      tag_86\n      swap1\n      tag_87\n      jump\t// in\n    tag_86:\n      mload(0x40)\n      dup1\n      swap2\n      sub\n      swap1\n      revert\n    tag_85:\n        /* \"contracts/FundMe.sol\":3521:3538  price.toUint256() */\n      tag_88\n        /* \"contracts/FundMe.sol\":3521:3526  price */\n      dup2\n        /* \"contracts/FundMe.sol\":3521:3536  price.toUint256 */\n      tag_89\n        /* \"contracts/FundMe.sol\":3521:3538  price.toUint256() */\n      jump\t// in\n    tag_88:\n        /* \"contracts/FundMe.sol\":3514:3538  return price.toUint256() */\n      swap2\n      pop\n      pop\n        /* \"contracts/FundMe.sol\":3280:3545  function getPrice() public view returns (uint256) {... */\n      swap1\n      jump\t// out\n        /* \"contracts/FundMe.sol\":2001:2277  function fund() public payable {... */\n    tag_47:\n        /* \"contracts/FundMe.sol\":2042:2055  uint256 price */\n      0x00\n        /* \"contracts/FundMe.sol\":2058:2068  getPrice() */\n      tag_91\n        /* \"contracts/FundMe.sol\":2058:2066  getPrice */\n      tag_44\n        /* \"contracts/FundMe.sol\":2058:2068  getPrice() */\n      jump\t// in\n    tag_91:\n        /* \"contracts/FundMe.sol\":2042:2068  uint256 price = getPrice() */\n      swap1\n      pop\n        /* \"contracts/FundMe.sol\":2078:2100  uint256 conversionRate */\n      0x00\n        /* \"contracts/FundMe.sol\":2103:2138  getConversionRate(price, msg.value) */\n      tag_92\n        /* \"contracts/FundMe.sol\":2121:2126  price */\n      dup3\n        /* \"contracts/FundMe.sol\":2128:2137  msg.value */\n      callvalue\n        /* \"contracts/FundMe.sol\":2103:2120  getConversionRate */\n      tag_27\n        /* \"contracts/FundMe.sol\":2103:2138  getConversionRate(price, msg.value) */\n      jump\t// in\n    tag_92:\n        /* \"contracts/FundMe.sol\":2078:2138  uint256 conversionRate = getConversionRate(price, msg.value) */\n      swap1\n      pop\n        /* \"contracts/FundMe.sol\":2174:2184  minimumUsd */\n      sload(0x01)\n        /* \"contracts/FundMe.sol\":2156:2170  conversionRate */\n      dup2\n        /* \"contracts/FundMe.sol\":2156:2184  conversionRate >= minimumUsd */\n      lt\n      iszero\n        /* \"contracts/FundMe.sol\":2148:2211  require(conversionRate >= minimumUsd, \"didn't send enough USD\") */\n      tag_93\n      jumpi\n      mload(0x40)\n      0x08c379a000000000000000000000000000000000000000000000000000000000\n      dup2\n      mstore\n      0x04\n      add\n      tag_94\n      swap1\n      tag_95\n      jump\t// in\n    tag_94:\n      mload(0x40)\n      dup1\n      swap2\n      sub\n      swap1\n      revert\n    tag_93:\n        /* \"contracts/FundMe.sol\":2261:2270  msg.value */\n      callvalue\n        /* \"contracts/FundMe.sol\":2221:2245  addressToAvailableAmount */\n      0x02\n        /* \"contracts/FundMe.sol\":2221:2257  addressToAvailableAmount[msg.sender] */\n      0x00\n        /* \"contracts/FundMe.sol\":2246:2256  msg.sender */\n      caller\n        /* \"contracts/FundMe.sol\":2221:2257  addressToAvailableAmount[msg.sender] */\n      0xffffffffffffffffffffffffffffffffffffffff\n      and\n      0xffffffffffffffffffffffffffffffffffffffff\n      and\n      dup2\n      mstore\n      0x20\n      add\n      swap1\n      dup2\n      mstore\n      0x20\n      add\n      0x00\n      keccak256\n      0x00\n        /* \"contracts/FundMe.sol\":2221:2270  addressToAvailableAmount[msg.sender] += msg.value */\n      dup3\n      dup3\n      sload\n      tag_96\n      swap2\n      swap1\n      tag_97\n      jump\t// in\n    tag_96:\n      swap3\n      pop\n      pop\n      dup2\n      swap1\n      sstore\n      pop\n        /* \"contracts/FundMe.sol\":2032:2277  {... */\n      pop\n      pop\n        /* \"contracts/FundMe.sol\":2001:2277  function fund() public payable {... */\n      jump\t// out\n        /* \"contracts/FundMe.sol\":1351:1719  function changeMinimumUsd(uint256 _newMinimumUsd) public {... */\n    tag_51:\n        /* \"contracts/FundMe.sol\":1440:1445  owner */\n      0x00\n      dup1\n      sload\n      swap1\n      0x0100\n      exp\n      swap1\n      div\n      0xffffffffffffffffffffffffffffffffffffffff\n      and\n        /* \"contracts/FundMe.sol\":1426:1445  msg.sender == owner */\n      0xffffffffffffffffffffffffffffffffffffffff\n      and\n        /* \"contracts/FundMe.sol\":1426:1436  msg.sender */\n      caller\n        /* \"contracts/FundMe.sol\":1426:1445  msg.sender == owner */\n      0xffffffffffffffffffffffffffffffffffffffff\n      and\n      eq\n        /* \"contracts/FundMe.sol\":1418:1518  require(msg.sender == owner, \"Only the owner of the contract can change the minimum amount of USD.\") */\n      tag_99\n      jumpi\n      mload(0x40)\n      0x08c379a000000000000000000000000000000000000000000000000000000000\n      dup2\n      mstore\n      0x04\n      add\n      tag_100\n      swap1\n      tag_101\n      jump\t// in\n    tag_100:\n      mload(0x40)\n      dup1\n      swap2\n      sub\n      swap1\n      revert\n    tag_99:\n        /* \"contracts/FundMe.sol\":1528:1549  uint256 newMinimumUsd */\n      0x00\n        /* \"contracts/FundMe.sol\":1567:1570  1e8 */\n      0x05f5e100\n        /* \"contracts/FundMe.sol\":1552:1566  _newMinimumUsd */\n      dup3\n        /* \"contracts/FundMe.sol\":1552:1570  _newMinimumUsd*1e8 */\n      tag_102\n      swap2\n      swap1\n      tag_54\n      jump\t// in\n    tag_102:\n        /* \"contracts/FundMe.sol\":1528:1570  uint256 newMinimumUsd = _newMinimumUsd*1e8 */\n      swap1\n      pop\n        /* \"contracts/FundMe.sol\":1605:1615  minimumUsd */\n      sload(0x01)\n        /* \"contracts/FundMe.sol\":1588:1601  newMinimumUsd */\n      dup2\n        /* \"contracts/FundMe.sol\":1588:1615  newMinimumUsd != minimumUsd */\n      sub\n        /* \"contracts/FundMe.sol\":1580:1676  require(newMinimumUsd != minimumUsd, \"Cannot change the value of minimumUsd to the same value.\") */\n      tag_103\n      jumpi\n      mload(0x40)\n      0x08c379a000000000000000000000000000000000000000000000000000000000\n      dup2\n      mstore\n      0x04\n      add\n      tag_104\n      swap1\n      tag_105\n      jump\t// in\n    tag_104:\n      mload(0x40)\n      dup1\n      swap2\n      sub\n      swap1\n      revert\n    tag_103:\n        /* \"contracts/FundMe.sol\":1699:1712  newMinimumUsd */\n      dup1\n        /* \"contracts/FundMe.sol\":1686:1696  minimumUsd */\n      0x01\n        /* \"contracts/FundMe.sol\":1686:1712  minimumUsd = newMinimumUsd */\n      dup2\n      swap1\n      sstore\n      pop\n        /* \"contracts/FundMe.sol\":1408:1719  {... */\n      pop\n        /* \"contracts/FundMe.sol\":1351:1719  function changeMinimumUsd(uint256 _newMinimumUsd) public {... */\n      pop\n      jump\t// out\n        /* \"contracts/SafeCast.sol\":17171:17364  function toUint256(int256 value) internal pure returns (uint256) {... */\n    tag_89:\n        /* \"contracts/SafeCast.sol\":17227:17234  uint256 */\n      0x00\n        /* \"contracts/SafeCast.sol\":17258:17259  0 */\n      dup1\n        /* \"contracts/SafeCast.sol\":17250:17255  value */\n      dup3\n        /* \"contracts/SafeCast.sol\":17250:17259  value < 0 */\n      slt\n        /* \"contracts/SafeCast.sol\":17246:17327  if (value < 0) {... */\n      iszero\n      tag_107\n      jumpi\n        /* \"contracts/SafeCast.sol\":17310:17315  value */\n      dup2\n        /* \"contracts/SafeCast.sol\":17282:17316  SafeCastOverflowedIntToUint(value) */\n      mload(0x40)\n      0xa8ce443200000000000000000000000000000000000000000000000000000000\n      dup2\n      mstore\n      0x04\n      add\n      tag_108\n      swap2\n      swap1\n      tag_109\n      jump\t// in\n    tag_108:\n      mload(0x40)\n      dup1\n      swap2\n      sub\n      swap1\n      revert\n        /* \"contracts/SafeCast.sol\":17246:17327  if (value < 0) {... */\n    tag_107:\n        /* \"contracts/SafeCast.sol\":17351:17356  value */\n      dup2\n        /* \"contracts/SafeCast.sol\":17336:17357  return uint256(value) */\n      swap1\n      pop\n        /* \"contracts/SafeCast.sol\":17171:17364  function toUint256(int256 value) internal pure returns (uint256) {... */\n      swap2\n      swap1\n      pop\n      jump\t// out\n        /* \"#utility.yul\":88:205   */\n    tag_111:\n        /* \"#utility.yul\":197:198   */\n      0x00\n        /* \"#utility.yul\":194:195   */\n      dup1\n        /* \"#utility.yul\":187:199   */\n      revert\n        /* \"#utility.yul\":334:460   */\n    tag_113:\n        /* \"#utility.yul\":371:378   */\n      0x00\n        /* \"#utility.yul\":411:453   */\n      0xffffffffffffffffffffffffffffffffffffffff\n        /* \"#utility.yul\":404:409   */\n      dup3\n        /* \"#utility.yul\":400:454   */\n      and\n        /* \"#utility.yul\":389:454   */\n      swap1\n      pop\n        /* \"#utility.yul\":334:460   */\n      swap2\n      swap1\n      pop\n      jump\t// out\n        /* \"#utility.yul\":466:562   */\n    tag_114:\n        /* \"#utility.yul\":503:510   */\n      0x00\n        /* \"#utility.yul\":532:556   */\n      tag_154\n        /* \"#utility.yul\":550:555   */\n      dup3\n        /* \"#utility.yul\":532:556   */\n      tag_113\n      jump\t// in\n    tag_154:\n        /* \"#utility.yul\":521:556   */\n      swap1\n      pop\n        /* \"#utility.yul\":466:562   */\n      swap2\n      swap1\n      pop\n      jump\t// out\n        /* \"#utility.yul\":568:690   */\n    tag_115:\n        /* \"#utility.yul\":641:665   */\n      tag_156\n        /* \"#utility.yul\":659:664   */\n      dup2\n        /* \"#utility.yul\":641:665   */\n      tag_114\n      jump\t// in\n    tag_156:\n        /* \"#utility.yul\":634:639   */\n      dup2\n        /* \"#utility.yul\":631:666   */\n      eq\n        /* \"#utility.yul\":621:684   */\n      tag_157\n      jumpi\n        /* \"#utility.yul\":680:681   */\n      0x00\n        /* \"#utility.yul\":677:678   */\n      dup1\n        /* \"#utility.yul\":670:682   */\n      revert\n        /* \"#utility.yul\":621:684   */\n    tag_157:\n        /* \"#utility.yul\":568:690   */\n      pop\n      jump\t// out\n        /* \"#utility.yul\":696:835   */\n    tag_116:\n        /* \"#utility.yul\":742:747   */\n      0x00\n        /* \"#utility.yul\":780:786   */\n      dup2\n        /* \"#utility.yul\":767:787   */\n      calldataload\n        /* \"#utility.yul\":758:787   */\n      swap1\n      pop\n        /* \"#utility.yul\":796:829   */\n      tag_159\n        /* \"#utility.yul\":823:828   */\n      dup2\n        /* \"#utility.yul\":796:829   */\n      tag_115\n      jump\t// in\n    tag_159:\n        /* \"#utility.yul\":696:835   */\n      swap3\n      swap2\n      pop\n      pop\n      jump\t// out\n        /* \"#utility.yul\":841:1170   */\n    tag_15:\n        /* \"#utility.yul\":900:906   */\n      0x00\n        /* \"#utility.yul\":949:951   */\n      0x20\n        /* \"#utility.yul\":937:946   */\n      dup3\n        /* \"#utility.yul\":928:935   */\n      dup5\n        /* \"#utility.yul\":924:947   */\n      sub\n        /* \"#utility.yul\":920:952   */\n      slt\n        /* \"#utility.yul\":917:1036   */\n      iszero\n      tag_161\n      jumpi\n        /* \"#utility.yul\":955:1034   */\n      tag_162\n      tag_111\n      jump\t// in\n    tag_162:\n        /* \"#utility.yul\":917:1036   */\n    tag_161:\n        /* \"#utility.yul\":1075:1076   */\n      0x00\n        /* \"#utility.yul\":1100:1153   */\n      tag_163\n        /* \"#utility.yul\":1145:1152   */\n      dup5\n        /* \"#utility.yul\":1136:1142   */\n      dup3\n        /* \"#utility.yul\":1125:1134   */\n      dup6\n        /* \"#utility.yul\":1121:1143   */\n      add\n        /* \"#utility.yul\":1100:1153   */\n      tag_116\n      jump\t// in\n    tag_163:\n        /* \"#utility.yul\":1090:1153   */\n      swap2\n      pop\n        /* \"#utility.yul\":1046:1163   */\n      pop\n        /* \"#utility.yul\":841:1170   */\n      swap3\n      swap2\n      pop\n      pop\n      jump\t// out\n        /* \"#utility.yul\":1176:1253   */\n    tag_117:\n        /* \"#utility.yul\":1213:1220   */\n      0x00\n        /* \"#utility.yul\":1242:1247   */\n      dup2\n        /* \"#utility.yul\":1231:1247   */\n      swap1\n      pop\n        /* \"#utility.yul\":1176:1253   */\n      swap2\n      swap1\n      pop\n      jump\t// out\n        /* \"#utility.yul\":1259:1377   */\n    tag_118:\n        /* \"#utility.yul\":1346:1370   */\n      tag_166\n        /* \"#utility.yul\":1364:1369   */\n      dup2\n        /* \"#utility.yul\":1346:1370   */\n      tag_117\n      jump\t// in\n    tag_166:\n        /* \"#utility.yul\":1341:1344   */\n      dup3\n        /* \"#utility.yul\":1334:1371   */\n      mstore\n        /* \"#utility.yul\":1259:1377   */\n      pop\n      pop\n      jump\t// out\n        /* \"#utility.yul\":1383:1605   */\n    tag_18:\n        /* \"#utility.yul\":1476:1480   */\n      0x00\n        /* \"#utility.yul\":1514:1516   */\n      0x20\n        /* \"#utility.yul\":1503:1512   */\n      dup3\n        /* \"#utility.yul\":1499:1517   */\n      add\n        /* \"#utility.yul\":1491:1517   */\n      swap1\n      pop\n        /* \"#utility.yul\":1527:1598   */\n      tag_168\n        /* \"#utility.yul\":1595:1596   */\n      0x00\n        /* \"#utility.yul\":1584:1593   */\n      dup4\n        /* \"#utility.yul\":1580:1597   */\n      add\n        /* \"#utility.yul\":1571:1577   */\n      dup5\n        /* \"#utility.yul\":1527:1598   */\n      tag_118\n      jump\t// in\n    tag_168:\n        /* \"#utility.yul\":1383:1605   */\n      swap3\n      swap2\n      pop\n      pop\n      jump\t// out\n        /* \"#utility.yul\":1611:1733   */\n    tag_119:\n        /* \"#utility.yul\":1684:1708   */\n      tag_170\n        /* \"#utility.yul\":1702:1707   */\n      dup2\n        /* \"#utility.yul\":1684:1708   */\n      tag_117\n      jump\t// in\n    tag_170:\n        /* \"#utility.yul\":1677:1682   */\n      dup2\n        /* \"#utility.yul\":1674:1709   */\n      eq\n        /* \"#utility.yul\":1664:1727   */\n      tag_171\n      jumpi\n        /* \"#utility.yul\":1723:1724   */\n      0x00\n        /* \"#utility.yul\":1720:1721   */\n      dup1\n        /* \"#utility.yul\":1713:1725   */\n      revert\n        /* \"#utility.yul\":1664:1727   */\n    tag_171:\n        /* \"#utility.yul\":1611:1733   */\n      pop\n      jump\t// out\n        /* \"#utility.yul\":1739:1878   */\n    tag_120:\n        /* \"#utility.yul\":1785:1790   */\n      0x00\n        /* \"#utility.yul\":1823:1829   */\n      dup2\n        /* \"#utility.yul\":1810:1830   */\n      calldataload\n        /* \"#utility.yul\":1801:1830   */\n      swap1\n      pop\n        /* \"#utility.yul\":1839:1872   */\n      tag_173\n        /* \"#utility.yul\":1866:1871   */\n      dup2\n        /* \"#utility.yul\":1839:1872   */\n      tag_119\n      jump\t// in\n    tag_173:\n        /* \"#utility.yul\":1739:1878   */\n      swap3\n      swap2\n      pop\n      pop\n      jump\t// out\n        /* \"#utility.yul\":1884:2358   */\n    tag_26:\n        /* \"#utility.yul\":1952:1958   */\n      0x00\n        /* \"#utility.yul\":1960:1966   */\n      dup1\n        /* \"#utility.yul\":2009:2011   */\n      0x40\n        /* \"#utility.yul\":1997:2006   */\n      dup4\n        /* \"#utility.yul\":1988:1995   */\n      dup6\n        /* \"#utility.yul\":1984:2007   */\n      sub\n        /* \"#utility.yul\":1980:2012   */\n      slt\n        /* \"#utility.yul\":1977:2096   */\n      iszero\n      tag_175\n      jumpi\n        /* \"#utility.yul\":2015:2094   */\n      tag_176\n      tag_111\n      jump\t// in\n    tag_176:\n        /* \"#utility.yul\":1977:2096   */\n    tag_175:\n        /* \"#utility.yul\":2135:2136   */\n      0x00\n        /* \"#utility.yul\":2160:2213   */\n      tag_177\n        /* \"#utility.yul\":2205:2212   */\n      dup6\n        /* \"#utility.yul\":2196:2202   */\n      dup3\n        /* \"#utility.yul\":2185:2194   */\n      dup7\n        /* \"#utility.yul\":2181:2203   */\n      add\n        /* \"#utility.yul\":2160:2213   */\n      tag_120\n      jump\t// in\n    tag_177:\n        /* \"#utility.yul\":2150:2213   */\n      swap3\n      pop\n        /* \"#utility.yul\":2106:2223   */\n      pop\n        /* \"#utility.yul\":2262:2264   */\n      0x20\n        /* \"#utility.yul\":2288:2341   */\n      tag_178\n        /* \"#utility.yul\":2333:2340   */\n      dup6\n        /* \"#utility.yul\":2324:2330   */\n      dup3\n        /* \"#utility.yul\":2313:2322   */\n      dup7\n        /* \"#utility.yul\":2309:2331   */\n      add\n        /* \"#utility.yul\":2288:2341   */\n      tag_120\n      jump\t// in\n    tag_178:\n        /* \"#utility.yul\":2278:2341   */\n      swap2\n      pop\n        /* \"#utility.yul\":2233:2351   */\n      pop\n        /* \"#utility.yul\":1884:2358   */\n      swap3\n      pop\n      swap3\n      swap1\n      pop\n      jump\t// out\n        /* \"#utility.yul\":2364:2693   */\n    tag_35:\n        /* \"#utility.yul\":2423:2429   */\n      0x00\n        /* \"#utility.yul\":2472:2474   */\n      0x20\n        /* \"#utility.yul\":2460:2469   */\n      dup3\n        /* \"#utility.yul\":2451:2458   */\n      dup5\n        /* \"#utility.yul\":2447:2470   */\n      sub\n        /* \"#utility.yul\":2443:2475   */\n      slt\n        /* \"#utility.yul\":2440:2559   */\n      iszero\n      tag_180\n      jumpi\n        /* \"#utility.yul\":2478:2557   */\n      tag_181\n      tag_111\n      jump\t// in\n    tag_181:\n        /* \"#utility.yul\":2440:2559   */\n    tag_180:\n        /* \"#utility.yul\":2598:2599   */\n      0x00\n        /* \"#utility.yul\":2623:2676   */\n      tag_182\n        /* \"#utility.yul\":2668:2675   */\n      dup5\n        /* \"#utility.yul\":2659:2665   */\n      dup3\n        /* \"#utility.yul\":2648:2657   */\n      dup6\n        /* \"#utility.yul\":2644:2666   */\n      add\n        /* \"#utility.yul\":2623:2676   */\n      tag_120\n      jump\t// in\n    tag_182:\n        /* \"#utility.yul\":2613:2676   */\n      swap2\n      pop\n        /* \"#utility.yul\":2569:2686   */\n      pop\n        /* \"#utility.yul\":2364:2693   */\n      swap3\n      swap2\n      pop\n      pop\n      jump\t// out\n        /* \"#utility.yul\":2699:2817   */\n    tag_121:\n        /* \"#utility.yul\":2786:2810   */\n      tag_184\n        /* \"#utility.yul\":2804:2809   */\n      dup2\n        /* \"#utility.yul\":2786:2810   */\n      tag_114\n      jump\t// in\n    tag_184:\n        /* \"#utility.yul\":2781:2784   */\n      dup3\n        /* \"#utility.yul\":2774:2811   */\n      mstore\n        /* \"#utility.yul\":2699:2817   */\n      pop\n      pop\n      jump\t// out\n        /* \"#utility.yul\":2823:3045   */\n    tag_41:\n        /* \"#utility.yul\":2916:2920   */\n      0x00\n        /* \"#utility.yul\":2954:2956   */\n      0x20\n        /* \"#utility.yul\":2943:2952   */\n      dup3\n        /* \"#utility.yul\":2939:2957   */\n      add\n        /* \"#utility.yul\":2931:2957   */\n      swap1\n      pop\n        /* \"#utility.yul\":2967:3038   */\n      tag_186\n        /* \"#utility.yul\":3035:3036   */\n      0x00\n        /* \"#utility.yul\":3024:3033   */\n      dup4\n        /* \"#utility.yul\":3020:3037   */\n      add\n        /* \"#utility.yul\":3011:3017   */\n      dup5\n        /* \"#utility.yul\":2967:3038   */\n      tag_121\n      jump\t// in\n    tag_186:\n        /* \"#utility.yul\":2823:3045   */\n      swap3\n      swap2\n      pop\n      pop\n      jump\t// out\n        /* \"#utility.yul\":3051:3231   */\n    tag_122:\n        /* \"#utility.yul\":3099:3176   */\n      0x4e487b7100000000000000000000000000000000000000000000000000000000\n        /* \"#utility.yul\":3096:3097   */\n      0x00\n        /* \"#utility.yul\":3089:3177   */\n      mstore\n        /* \"#utility.yul\":3196:3200   */\n      0x11\n        /* \"#utility.yul\":3193:3194   */\n      0x04\n        /* \"#utility.yul\":3186:3201   */\n      mstore\n        /* \"#utility.yul\":3220:3224   */\n      0x24\n        /* \"#utility.yul\":3217:3218   */\n      0x00\n        /* \"#utility.yul\":3210:3225   */\n      revert\n        /* \"#utility.yul\":3237:3647   */\n    tag_54:\n        /* \"#utility.yul\":3277:3284   */\n      0x00\n        /* \"#utility.yul\":3300:3320   */\n      tag_189\n        /* \"#utility.yul\":3318:3319   */\n      dup3\n        /* \"#utility.yul\":3300:3320   */\n      tag_117\n      jump\t// in\n    tag_189:\n        /* \"#utility.yul\":3295:3320   */\n      swap2\n      pop\n        /* \"#utility.yul\":3334:3354   */\n      tag_190\n        /* \"#utility.yul\":3352:3353   */\n      dup4\n        /* \"#utility.yul\":3334:3354   */\n      tag_117\n      jump\t// in\n    tag_190:\n        /* \"#utility.yul\":3329:3354   */\n      swap3\n      pop\n        /* \"#utility.yul\":3389:3390   */\n      dup3\n        /* \"#utility.yul\":3386:3387   */\n      dup3\n        /* \"#utility.yul\":3382:3391   */\n      mul\n        /* \"#utility.yul\":3411:3441   */\n      tag_191\n        /* \"#utility.yul\":3429:3440   */\n      dup2\n        /* \"#utility.yul\":3411:3441   */\n      tag_117\n      jump\t// in\n    tag_191:\n        /* \"#utility.yul\":3400:3441   */\n      swap2\n      pop\n        /* \"#utility.yul\":3590:3591   */\n      dup3\n        /* \"#utility.yul\":3581:3588   */\n      dup3\n        /* \"#utility.yul\":3577:3592   */\n      div\n        /* \"#utility.yul\":3574:3575   */\n      dup5\n        /* \"#utility.yul\":3571:3593   */\n      eq\n        /* \"#utility.yul\":3551:3552   */\n      dup4\n        /* \"#utility.yul\":3544:3553   */\n      iszero\n        /* \"#utility.yul\":3524:3607   */\n      or\n        /* \"#utility.yul\":3501:3640   */\n      tag_192\n      jumpi\n        /* \"#utility.yul\":3620:3638   */\n      tag_193\n      tag_122\n      jump\t// in\n    tag_193:\n        /* \"#utility.yul\":3501:3640   */\n    tag_192:\n        /* \"#utility.yul\":3285:3647   */\n      pop\n        /* \"#utility.yul\":3237:3647   */\n      swap3\n      swap2\n      pop\n      pop\n      jump\t// out\n        /* \"#utility.yul\":3653:3833   */\n    tag_123:\n        /* \"#utility.yul\":3701:3778   */\n      0x4e487b7100000000000000000000000000000000000000000000000000000000\n        /* \"#utility.yul\":3698:3699   */\n      0x00\n        /* \"#utility.yul\":3691:3779   */\n      mstore\n        /* \"#utility.yul\":3798:3802   */\n      0x12\n        /* \"#utility.yul\":3795:3796   */\n      0x04\n        /* \"#utility.yul\":3788:3803   */\n      mstore\n        /* \"#utility.yul\":3822:3826   */\n      0x24\n        /* \"#utility.yul\":3819:3820   */\n      0x00\n        /* \"#utility.yul\":3812:3827   */\n      revert\n        /* \"#utility.yul\":3839:4024   */\n    tag_56:\n        /* \"#utility.yul\":3879:3880   */\n      0x00\n        /* \"#utility.yul\":3896:3916   */\n      tag_196\n        /* \"#utility.yul\":3914:3915   */\n      dup3\n        /* \"#utility.yul\":3896:3916   */\n      tag_117\n      jump\t// in\n    tag_196:\n        /* \"#utility.yul\":3891:3916   */\n      swap2\n      pop\n        /* \"#utility.yul\":3930:3950   */\n      tag_197\n        /* \"#utility.yul\":3948:3949   */\n      dup4\n        /* \"#utility.yul\":3930:3950   */\n      tag_117\n      jump\t// in\n    tag_197:\n        /* \"#utility.yul\":3925:3950   */\n      swap3\n      pop\n        /* \"#utility.yul\":3969:3970   */\n      dup3\n        /* \"#utility.yul\":3959:3994   */\n      tag_198\n      jumpi\n        /* \"#utility.yul\":3974:3992   */\n      tag_199\n      tag_123\n      jump\t// in\n    tag_199:\n        /* \"#utility.yul\":3959:3994   */\n    tag_198:\n        /* \"#utility.yul\":4016:4017   */\n      dup3\n        /* \"#utility.yul\":4013:4014   */\n      dup3\n        /* \"#utility.yul\":4009:4018   */\n      div\n        /* \"#utility.yul\":4004:4018   */\n      swap1\n      pop\n        /* \"#utility.yul\":3839:4024   */\n      swap3\n      swap2\n      pop\n      pop\n      jump\t// out\n        /* \"#utility.yul\":4030:4199   */\n    tag_124:\n        /* \"#utility.yul\":4114:4125   */\n      0x00\n        /* \"#utility.yul\":4148:4154   */\n      dup3\n        /* \"#utility.yul\":4143:4146   */\n      dup3\n        /* \"#utility.yul\":4136:4155   */\n      mstore\n        /* \"#utility.yul\":4188:4192   */\n      0x20\n        /* \"#utility.yul\":4183:4186   */\n      dup3\n        /* \"#utility.yul\":4179:4193   */\n      add\n        /* \"#utility.yul\":4164:4193   */\n      swap1\n      pop\n        /* \"#utility.yul\":4030:4199   */\n      swap3\n      swap2\n      pop\n      pop\n      jump\t// out\n        /* \"#utility.yul\":4205:4375   */\n    tag_125:\n        /* \"#utility.yul\":4345:4367   */\n      0x496e73756666696369656e742062616c616e6365000000000000000000000000\n        /* \"#utility.yul\":4341:4342   */\n      0x00\n        /* \"#utility.yul\":4333:4339   */\n      dup3\n        /* \"#utility.yul\":4329:4343   */\n      add\n        /* \"#utility.yul\":4322:4368   */\n      mstore\n        /* \"#utility.yul\":4205:4375   */\n      pop\n      jump\t// out\n        /* \"#utility.yul\":4381:4747   */\n    tag_126:\n        /* \"#utility.yul\":4523:4526   */\n      0x00\n        /* \"#utility.yul\":4544:4611   */\n      tag_203\n        /* \"#utility.yul\":4608:4610   */\n      0x14\n        /* \"#utility.yul\":4603:4606   */\n      dup4\n        /* \"#utility.yul\":4544:4611   */\n      tag_124\n      jump\t// in\n    tag_203:\n        /* \"#utility.yul\":4537:4611   */\n      swap2\n      pop\n        /* \"#utility.yul\":4620:4713   */\n      tag_204\n        /* \"#utility.yul\":4709:4712   */\n      dup3\n        /* \"#utility.yul\":4620:4713   */\n      tag_125\n      jump\t// in\n    tag_204:\n        /* \"#utility.yul\":4738:4740   */\n      0x20\n        /* \"#utility.yul\":4733:4736   */\n      dup3\n        /* \"#utility.yul\":4729:4741   */\n      add\n        /* \"#utility.yul\":4722:4741   */\n      swap1\n      pop\n        /* \"#utility.yul\":4381:4747   */\n      swap2\n      swap1\n      pop\n      jump\t// out\n        /* \"#utility.yul\":4753:5172   */\n    tag_60:\n        /* \"#utility.yul\":4919:4923   */\n      0x00\n        /* \"#utility.yul\":4957:4959   */\n      0x20\n        /* \"#utility.yul\":4946:4955   */\n      dup3\n        /* \"#utility.yul\":4942:4960   */\n      add\n        /* \"#utility.yul\":4934:4960   */\n      swap1\n      pop\n        /* \"#utility.yul\":5006:5015   */\n      dup2\n        /* \"#utility.yul\":5000:5004   */\n      dup2\n        /* \"#utility.yul\":4996:5016   */\n      sub\n        /* \"#utility.yul\":4992:4993   */\n      0x00\n        /* \"#utility.yul\":4981:4990   */\n      dup4\n        /* \"#utility.yul\":4977:4994   */\n      add\n        /* \"#utility.yul\":4970:5017   */\n      mstore\n        /* \"#utility.yul\":5034:5165   */\n      tag_206\n        /* \"#utility.yul\":5160:5164   */\n      dup2\n        /* \"#utility.yul\":5034:5165   */\n      tag_126\n      jump\t// in\n    tag_206:\n        /* \"#utility.yul\":5026:5165   */\n      swap1\n      pop\n        /* \"#utility.yul\":4753:5172   */\n      swap2\n      swap1\n      pop\n      jump\t// out\n        /* \"#utility.yul\":5178:5325   */\n    tag_127:\n        /* \"#utility.yul\":5279:5290   */\n      0x00\n        /* \"#utility.yul\":5316:5319   */\n      dup2\n        /* \"#utility.yul\":5301:5319   */\n      swap1\n      pop\n        /* \"#utility.yul\":5178:5325   */\n      swap3\n      swap2\n      pop\n      pop\n      jump\t// out\n        /* \"#utility.yul\":5331:5445   */\n    tag_128:\n      pop\n      jump\t// out\n        /* \"#utility.yul\":5451:5849   */\n    tag_129:\n        /* \"#utility.yul\":5610:5613   */\n      0x00\n        /* \"#utility.yul\":5631:5714   */\n      tag_210\n        /* \"#utility.yul\":5712:5713   */\n      0x00\n        /* \"#utility.yul\":5707:5710   */\n      dup4\n        /* \"#utility.yul\":5631:5714   */\n      tag_127\n      jump\t// in\n    tag_210:\n        /* \"#utility.yul\":5624:5714   */\n      swap2\n      pop\n        /* \"#utility.yul\":5723:5816   */\n      tag_211\n        /* \"#utility.yul\":5812:5815   */\n      dup3\n        /* \"#utility.yul\":5723:5816   */\n      tag_128\n      jump\t// in\n    tag_211:\n        /* \"#utility.yul\":5841:5842   */\n      0x00\n        /* \"#utility.yul\":5836:5839   */\n      dup3\n        /* \"#utility.yul\":5832:5843   */\n      add\n        /* \"#utility.yul\":5825:5843   */\n      swap1\n      pop\n        /* \"#utility.yul\":5451:5849   */\n      swap2\n      swap1\n      pop\n      jump\t// out\n        /* \"#utility.yul\":5855:6234   */\n    tag_62:\n        /* \"#utility.yul\":6039:6042   */\n      0x00\n        /* \"#utility.yul\":6061:6208   */\n      tag_213\n        /* \"#utility.yul\":6204:6207   */\n      dup3\n        /* \"#utility.yul\":6061:6208   */\n      tag_129\n      jump\t// in\n    tag_213:\n        /* \"#utility.yul\":6054:6208   */\n      swap2\n      pop\n        /* \"#utility.yul\":6225:6228   */\n      dup2\n        /* \"#utility.yul\":6218:6228   */\n      swap1\n      pop\n        /* \"#utility.yul\":5855:6234   */\n      swap2\n      swap1\n      pop\n      jump\t// out\n        /* \"#utility.yul\":6240:6406   */\n    tag_130:\n        /* \"#utility.yul\":6380:6398   */\n      0x5472616e73666572206661696c65642e00000000000000000000000000000000\n        /* \"#utility.yul\":6376:6377   */\n      0x00\n        /* \"#utility.yul\":6368:6374   */\n      dup3\n        /* \"#utility.yul\":6364:6378   */\n      add\n        /* \"#utility.yul\":6357:6399   */\n      mstore\n        /* \"#utility.yul\":6240:6406   */\n      pop\n      jump\t// out\n        /* \"#utility.yul\":6412:6778   */\n    tag_131:\n        /* \"#utility.yul\":6554:6557   */\n      0x00\n        /* \"#utility.yul\":6575:6642   */\n      tag_216\n        /* \"#utility.yul\":6639:6641   */\n      0x10\n        /* \"#utility.yul\":6634:6637   */\n      dup4\n        /* \"#utility.yul\":6575:6642   */\n      tag_124\n      jump\t// in\n    tag_216:\n        /* \"#utility.yul\":6568:6642   */\n      swap2\n      pop\n        /* \"#utility.yul\":6651:6744   */\n      tag_217\n        /* \"#utility.yul\":6740:6743   */\n      dup3\n        /* \"#utility.yul\":6651:6744   */\n      tag_130\n      jump\t// in\n    tag_217:\n        /* \"#utility.yul\":6769:6771   */\n      0x20\n        /* \"#utility.yul\":6764:6767   */\n      dup3\n        /* \"#utility.yul\":6760:6772   */\n      add\n        /* \"#utility.yul\":6753:6772   */\n      swap1\n      pop\n        /* \"#utility.yul\":6412:6778   */\n      swap2\n      swap1\n      pop\n      jump\t// out\n        /* \"#utility.yul\":6784:7203   */\n    tag_68:\n        /* \"#utility.yul\":6950:6954   */\n      0x00\n        /* \"#utility.yul\":6988:6990   */\n      0x20\n        /* \"#utility.yul\":6977:6986   */\n      dup3\n        /* \"#utility.yul\":6973:6991   */\n      add\n        /* \"#utility.yul\":6965:6991   */\n      swap1\n      pop\n        /* \"#utility.yul\":7037:7046   */\n      dup2\n        /* \"#utility.yul\":7031:7035   */\n      dup2\n        /* \"#utility.yul\":7027:7047   */\n      sub\n        /* \"#utility.yul\":7023:7024   */\n      0x00\n        /* \"#utility.yul\":7012:7021   */\n      dup4\n        /* \"#utility.yul\":7008:7025   */\n      add\n        /* \"#utility.yul\":7001:7048   */\n      mstore\n        /* \"#utility.yul\":7065:7196   */\n      tag_219\n        /* \"#utility.yul\":7191:7195   */\n      dup2\n        /* \"#utility.yul\":7065:7196   */\n      tag_131\n      jump\t// in\n    tag_219:\n        /* \"#utility.yul\":7057:7196   */\n      swap1\n      pop\n        /* \"#utility.yul\":6784:7203   */\n      swap2\n      swap1\n      pop\n      jump\t// out\n        /* \"#utility.yul\":7209:7403   */\n    tag_73:\n        /* \"#utility.yul\":7249:7253   */\n      0x00\n        /* \"#utility.yul\":7269:7289   */\n      tag_221\n        /* \"#utility.yul\":7287:7288   */\n      dup3\n        /* \"#utility.yul\":7269:7289   */\n      tag_117\n      jump\t// in\n    tag_221:\n        /* \"#utility.yul\":7264:7289   */\n      swap2\n      pop\n        /* \"#utility.yul\":7303:7323   */\n      tag_222\n        /* \"#utility.yul\":7321:7322   */\n      dup4\n        /* \"#utility.yul\":7303:7323   */\n      tag_117\n      jump\t// in\n    tag_222:\n        /* \"#utility.yul\":7298:7323   */\n      swap3\n      pop\n        /* \"#utility.yul\":7347:7348   */\n      dup3\n        /* \"#utility.yul\":7344:7345   */\n      dup3\n        /* \"#utility.yul\":7340:7349   */\n      sub\n        /* \"#utility.yul\":7332:7349   */\n      swap1\n      pop\n        /* \"#utility.yul\":7371:7372   */\n      dup2\n        /* \"#utility.yul\":7365:7369   */\n      dup2\n        /* \"#utility.yul\":7362:7373   */\n      gt\n        /* \"#utility.yul\":7359:7396   */\n      iszero\n      tag_223\n      jumpi\n        /* \"#utility.yul\":7376:7394   */\n      tag_224\n      tag_122\n      jump\t// in\n    tag_224:\n        /* \"#utility.yul\":7359:7396   */\n    tag_223:\n        /* \"#utility.yul\":7209:7403   */\n      swap3\n      swap2\n      pop\n      pop\n      jump\t// out\n        /* \"#utility.yul\":7409:7514   */\n    tag_132:\n        /* \"#utility.yul\":7445:7452   */\n      0x00\n        /* \"#utility.yul\":7485:7507   */\n      0xffffffffffffffffffff\n        /* \"#utility.yul\":7478:7483   */\n      dup3\n        /* \"#utility.yul\":7474:7508   */\n      and\n        /* \"#utility.yul\":7463:7508   */\n      swap1\n      pop\n        /* \"#utility.yul\":7409:7514   */\n      swap2\n      swap1\n      pop\n      jump\t// out\n        /* \"#utility.yul\":7520:7640   */\n    tag_133:\n        /* \"#utility.yul\":7592:7615   */\n      tag_227\n        /* \"#utility.yul\":7609:7614   */\n      dup2\n        /* \"#utility.yul\":7592:7615   */\n      tag_132\n      jump\t// in\n    tag_227:\n        /* \"#utility.yul\":7585:7590   */\n      dup2\n        /* \"#utility.yul\":7582:7616   */\n      eq\n        /* \"#utility.yul\":7572:7634   */\n      tag_228\n      jumpi\n        /* \"#utility.yul\":7630:7631   */\n      0x00\n        /* \"#utility.yul\":7627:7628   */\n      dup1\n        /* \"#utility.yul\":7620:7632   */\n      revert\n        /* \"#utility.yul\":7572:7634   */\n    tag_228:\n        /* \"#utility.yul\":7520:7640   */\n      pop\n      jump\t// out\n        /* \"#utility.yul\":7646:7787   */\n    tag_134:\n        /* \"#utility.yul\":7702:7707   */\n      0x00\n        /* \"#utility.yul\":7733:7739   */\n      dup2\n        /* \"#utility.yul\":7727:7740   */\n      mload\n        /* \"#utility.yul\":7718:7740   */\n      swap1\n      pop\n        /* \"#utility.yul\":7749:7781   */\n      tag_230\n        /* \"#utility.yul\":7775:7780   */\n      dup2\n        /* \"#utility.yul\":7749:7781   */\n      tag_133\n      jump\t// in\n    tag_230:\n        /* \"#utility.yul\":7646:7787   */\n      swap3\n      swap2\n      pop\n      pop\n      jump\t// out\n        /* \"#utility.yul\":7793:7869   */\n    tag_135:\n        /* \"#utility.yul\":7829:7836   */\n      0x00\n        /* \"#utility.yul\":7858:7863   */\n      dup2\n        /* \"#utility.yul\":7847:7863   */\n      swap1\n      pop\n        /* \"#utility.yul\":7793:7869   */\n      swap2\n      swap1\n      pop\n      jump\t// out\n        /* \"#utility.yul\":7875:7995   */\n    tag_136:\n        /* \"#utility.yul\":7947:7970   */\n      tag_233\n        /* \"#utility.yul\":7964:7969   */\n      dup2\n        /* \"#utility.yul\":7947:7970   */\n      tag_135\n      jump\t// in\n    tag_233:\n        /* \"#utility.yul\":7940:7945   */\n      dup2\n        /* \"#utility.yul\":7937:7971   */\n      eq\n        /* \"#utility.yul\":7927:7989   */\n      tag_234\n      jumpi\n        /* \"#utility.yul\":7985:7986   */\n      0x00\n        /* \"#utility.yul\":7982:7983   */\n      dup1\n        /* \"#utility.yul\":7975:7987   */\n      revert\n        /* \"#utility.yul\":7927:7989   */\n    tag_234:\n        /* \"#utility.yul\":7875:7995   */\n      pop\n      jump\t// out\n        /* \"#utility.yul\":8001:8142   */\n    tag_137:\n        /* \"#utility.yul\":8057:8062   */\n      0x00\n        /* \"#utility.yul\":8088:8094   */\n      dup2\n        /* \"#utility.yul\":8082:8095   */\n      mload\n        /* \"#utility.yul\":8073:8095   */\n      swap1\n      pop\n        /* \"#utility.yul\":8104:8136   */\n      tag_236\n        /* \"#utility.yul\":8130:8135   */\n      dup2\n        /* \"#utility.yul\":8104:8136   */\n      tag_136\n      jump\t// in\n    tag_236:\n        /* \"#utility.yul\":8001:8142   */\n      swap3\n      swap2\n      pop\n      pop\n      jump\t// out\n        /* \"#utility.yul\":8148:8291   */\n    tag_138:\n        /* \"#utility.yul\":8205:8210   */\n      0x00\n        /* \"#utility.yul\":8236:8242   */\n      dup2\n        /* \"#utility.yul\":8230:8243   */\n      mload\n        /* \"#utility.yul\":8221:8243   */\n      swap1\n      pop\n        /* \"#utility.yul\":8252:8285   */\n      tag_238\n        /* \"#utility.yul\":8279:8284   */\n      dup2\n        /* \"#utility.yul\":8252:8285   */\n      tag_119\n      jump\t// in\n    tag_238:\n        /* \"#utility.yul\":8148:8291   */\n      swap3\n      swap2\n      pop\n      pop\n      jump\t// out\n        /* \"#utility.yul\":8297:9268   */\n    tag_84:\n        /* \"#utility.yul\":8400:8406   */\n      0x00\n        /* \"#utility.yul\":8408:8414   */\n      dup1\n        /* \"#utility.yul\":8416:8422   */\n      0x00\n        /* \"#utility.yul\":8424:8430   */\n      dup1\n        /* \"#utility.yul\":8432:8438   */\n      0x00\n        /* \"#utility.yul\":8481:8484   */\n      0xa0\n        /* \"#utility.yul\":8469:8478   */\n      dup7\n        /* \"#utility.yul\":8460:8467   */\n      dup9\n        /* \"#utility.yul\":8456:8479   */\n      sub\n        /* \"#utility.yul\":8452:8485   */\n      slt\n        /* \"#utility.yul\":8449:8569   */\n      iszero\n      tag_240\n      jumpi\n        /* \"#utility.yul\":8488:8567   */\n      tag_241\n      tag_111\n      jump\t// in\n    tag_241:\n        /* \"#utility.yul\":8449:8569   */\n    tag_240:\n        /* \"#utility.yul\":8608:8609   */\n      0x00\n        /* \"#utility.yul\":8633:8696   */\n      tag_242\n        /* \"#utility.yul\":8688:8695   */\n      dup9\n        /* \"#utility.yul\":8679:8685   */\n      dup3\n        /* \"#utility.yul\":8668:8677   */\n      dup10\n        /* \"#utility.yul\":8664:8686   */\n      add\n        /* \"#utility.yul\":8633:8696   */\n      tag_134\n      jump\t// in\n    tag_242:\n        /* \"#utility.yul\":8623:8696   */\n      swap6\n      pop\n        /* \"#utility.yul\":8579:8706   */\n      pop\n        /* \"#utility.yul\":8745:8747   */\n      0x20\n        /* \"#utility.yul\":8771:8834   */\n      tag_243\n        /* \"#utility.yul\":8826:8833   */\n      dup9\n        /* \"#utility.yul\":8817:8823   */\n      dup3\n        /* \"#utility.yul\":8806:8815   */\n      dup10\n        /* \"#utility.yul\":8802:8824   */\n      add\n        /* \"#utility.yul\":8771:8834   */\n      tag_137\n      jump\t// in\n    tag_243:\n        /* \"#utility.yul\":8761:8834   */\n      swap5\n      pop\n        /* \"#utility.yul\":8716:8844   */\n      pop\n        /* \"#utility.yul\":8883:8885   */\n      0x40\n        /* \"#utility.yul\":8909:8973   */\n      tag_244\n        /* \"#utility.yul\":8965:8972   */\n      dup9\n        /* \"#utility.yul\":8956:8962   */\n      dup3\n        /* \"#utility.yul\":8945:8954   */\n      dup10\n        /* \"#utility.yul\":8941:8963   */\n      add\n        /* \"#utility.yul\":8909:8973   */\n      tag_138\n      jump\t// in\n    tag_244:\n        /* \"#utility.yul\":8899:8973   */\n      swap4\n      pop\n        /* \"#utility.yul\":8854:8983   */\n      pop\n        /* \"#utility.yul\":9022:9024   */\n      0x60\n        /* \"#utility.yul\":9048:9112   */\n      tag_245\n        /* \"#utility.yul\":9104:9111   */\n      dup9\n        /* \"#utility.yul\":9095:9101   */\n      dup3\n        /* \"#utility.yul\":9084:9093   */\n      dup10\n        /* \"#utility.yul\":9080:9102   */\n      add\n        /* \"#utility.yul\":9048:9112   */\n      tag_138\n      jump\t// in\n    tag_245:\n        /* \"#utility.yul\":9038:9112   */\n      swap3\n      pop\n        /* \"#utility.yul\":8993:9122   */\n      pop\n        /* \"#utility.yul\":9161:9164   */\n      0x80\n        /* \"#utility.yul\":9188:9251   */\n      tag_246\n        /* \"#utility.yul\":9243:9250   */\n      dup9\n        /* \"#utility.yul\":9234:9240   */\n      dup3\n        /* \"#utility.yul\":9223:9232   */\n      dup10\n        /* \"#utility.yul\":9219:9241   */\n      add\n        /* \"#utility.yul\":9188:9251   */\n      tag_134\n      jump\t// in\n    tag_246:\n        /* \"#utility.yul\":9178:9251   */\n      swap2\n      pop\n        /* \"#utility.yul\":9132:9261   */\n      pop\n        /* \"#utility.yul\":8297:9268   */\n      swap3\n      swap6\n      pop\n      swap3\n      swap6\n      swap1\n      swap4\n      pop\n      jump\t// out\n        /* \"#utility.yul\":9274:9451   */\n    tag_139:\n        /* \"#utility.yul\":9414:9443   */\n      0x4e65676174697665207072696365206e6f7420616c6c6f7765642e0000000000\n        /* \"#utility.yul\":9410:9411   */\n      0x00\n        /* \"#utility.yul\":9402:9408   */\n      dup3\n        /* \"#utility.yul\":9398:9412   */\n      add\n        /* \"#utility.yul\":9391:9444   */\n      mstore\n        /* \"#utility.yul\":9274:9451   */\n      pop\n      jump\t// out\n        /* \"#utility.yul\":9457:9823   */\n    tag_140:\n        /* \"#utility.yul\":9599:9602   */\n      0x00\n        /* \"#utility.yul\":9620:9687   */\n      tag_249\n        /* \"#utility.yul\":9684:9686   */\n      0x1b\n        /* \"#utility.yul\":9679:9682   */\n      dup4\n        /* \"#utility.yul\":9620:9687   */\n      tag_124\n      jump\t// in\n    tag_249:\n        /* \"#utility.yul\":9613:9687   */\n      swap2\n      pop\n        /* \"#utility.yul\":9696:9789   */\n      tag_250\n        /* \"#utility.yul\":9785:9788   */\n      dup3\n        /* \"#utility.yul\":9696:9789   */\n      tag_139\n      jump\t// in\n    tag_250:\n        /* \"#utility.yul\":9814:9816   */\n      0x20\n        /* \"#utility.yul\":9809:9812   */\n      dup3\n        /* \"#utility.yul\":9805:9817   */\n      add\n        /* \"#utility.yul\":9798:9817   */\n      swap1\n      pop\n        /* \"#utility.yul\":9457:9823   */\n      swap2\n      swap1\n      pop\n      jump\t// out\n        /* \"#utility.yul\":9829:10248   */\n    tag_87:\n        /* \"#utility.yul\":9995:9999   */\n      0x00\n        /* \"#utility.yul\":10033:10035   */\n      0x20\n        /* \"#utility.yul\":10022:10031   */\n      dup3\n        /* \"#utility.yul\":10018:10036   */\n      add\n        /* \"#utility.yul\":10010:10036   */\n      swap1\n      pop\n        /* \"#utility.yul\":10082:10091   */\n      dup2\n        /* \"#utility.yul\":10076:10080   */\n      dup2\n        /* \"#utility.yul\":10072:10092   */\n      sub\n        /* \"#utility.yul\":10068:10069   */\n      0x00\n        /* \"#utility.yul\":10057:10066   */\n      dup4\n        /* \"#utility.yul\":10053:10070   */\n      add\n        /* \"#utility.yul\":10046:10093   */\n      mstore\n        /* \"#utility.yul\":10110:10241   */\n      tag_252\n        /* \"#utility.yul\":10236:10240   */\n      dup2\n        /* \"#utility.yul\":10110:10241   */\n      tag_140\n      jump\t// in\n    tag_252:\n        /* \"#utility.yul\":10102:10241   */\n      swap1\n      pop\n        /* \"#utility.yul\":9829:10248   */\n      swap2\n      swap1\n      pop\n      jump\t// out\n        /* \"#utility.yul\":10254:10426   */\n    tag_141:\n        /* \"#utility.yul\":10394:10418   */\n      0x6469646e27742073656e6420656e6f7567682055534400000000000000000000\n        /* \"#utility.yul\":10390:10391   */\n      0x00\n        /* \"#utility.yul\":10382:10388   */\n      dup3\n        /* \"#utility.yul\":10378:10392   */\n      add\n        /* \"#utility.yul\":10371:10419   */\n      mstore\n        /* \"#utility.yul\":10254:10426   */\n      pop\n      jump\t// out\n        /* \"#utility.yul\":10432:10798   */\n    tag_142:\n        /* \"#utility.yul\":10574:10577   */\n      0x00\n        /* \"#utility.yul\":10595:10662   */\n      tag_255\n        /* \"#utility.yul\":10659:10661   */\n      0x16\n        /* \"#utility.yul\":10654:10657   */\n      dup4\n        /* \"#utility.yul\":10595:10662   */\n      tag_124\n      jump\t// in\n    tag_255:\n        /* \"#utility.yul\":10588:10662   */\n      swap2\n      pop\n        /* \"#utility.yul\":10671:10764   */\n      tag_256\n        /* \"#utility.yul\":10760:10763   */\n      dup3\n        /* \"#utility.yul\":10671:10764   */\n      tag_141\n      jump\t// in\n    tag_256:\n        /* \"#utility.yul\":10789:10791   */\n      0x20\n        /* \"#utility.yul\":10784:10787   */\n      dup3\n        /* \"#utility.yul\":10780:10792   */\n      add\n        /* \"#utility.yul\":10773:10792   */\n      swap1\n      pop\n        /* \"#utility.yul\":10432:10798   */\n      swap2\n      swap1\n      pop\n      jump\t// out\n        /* \"#utility.yul\":10804:11223   */\n    tag_95:\n        /* \"#utility.yul\":10970:10974   */\n      0x00\n        /* \"#utility.yul\":11008:11010   */\n      0x20\n        /* \"#utility.yul\":10997:11006   */\n      dup3\n        /* \"#utility.yul\":10993:11011   */\n      add\n        /* \"#utility.yul\":10985:11011   */\n      swap1\n      pop\n        /* \"#utility.yul\":11057:11066   */\n      dup2\n        /* \"#utility.yul\":11051:11055   */\n      dup2\n        /* \"#utility.yul\":11047:11067   */\n      sub\n        /* \"#utility.yul\":11043:11044   */\n      0x00\n        /* \"#utility.yul\":11032:11041   */\n      dup4\n        /* \"#utility.yul\":11028:11045   */\n      add\n        /* \"#utility.yul\":11021:11068   */\n      mstore\n        /* \"#utility.yul\":11085:11216   */\n      tag_258\n        /* \"#utility.yul\":11211:11215   */\n      dup2\n        /* \"#utility.yul\":11085:11216   */\n      tag_142\n      jump\t// in\n    tag_258:\n        /* \"#utility.yul\":11077:11216   */\n      swap1\n      pop\n        /* \"#utility.yul\":10804:11223   */\n      swap2\n      swap1\n      pop\n      jump\t// out\n        /* \"#utility.yul\":11229:11420   */\n    tag_97:\n        /* \"#utility.yul\":11269:11272   */\n      0x00\n        /* \"#utility.yul\":11288:11308   */\n      tag_260\n        /* \"#utility.yul\":11306:11307   */\n      dup3\n        /* \"#utility.yul\":11288:11308   */\n      tag_117\n      jump\t// in\n    tag_260:\n        /* \"#utility.yul\":11283:11308   */\n      swap2\n      pop\n        /* \"#utility.yul\":11322:11342   */\n      tag_261\n        /* \"#utility.yul\":11340:11341   */\n      dup4\n        /* \"#utility.yul\":11322:11342   */\n      tag_117\n      jump\t// in\n    tag_261:\n        /* \"#utility.yul\":11317:11342   */\n      swap3\n      pop\n        /* \"#utility.yul\":11365:11366   */\n      dup3\n        /* \"#utility.yul\":11362:11363   */\n      dup3\n        /* \"#utility.yul\":11358:11367   */\n      add\n        /* \"#utility.yul\":11351:11367   */\n      swap1\n      pop\n        /* \"#utility.yul\":11386:11389   */\n      dup1\n        /* \"#utility.yul\":11383:11384   */\n      dup3\n        /* \"#utility.yul\":11380:11390   */\n      gt\n        /* \"#utility.yul\":11377:11413   */\n      iszero\n      tag_262\n      jumpi\n        /* \"#utility.yul\":11393:11411   */\n      tag_263\n      tag_122\n      jump\t// in\n    tag_263:\n        /* \"#utility.yul\":11377:11413   */\n    tag_262:\n        /* \"#utility.yul\":11229:11420   */\n      swap3\n      swap2\n      pop\n      pop\n      jump\t// out\n        /* \"#utility.yul\":11426:11718   */\n    tag_143:\n        /* \"#utility.yul\":11566:11600   */\n      0x4f6e6c7920746865206f776e6572206f662074686520636f6e74726163742063\n        /* \"#utility.yul\":11562:11563   */\n      0x00\n        /* \"#utility.yul\":11554:11560   */\n      dup3\n        /* \"#utility.yul\":11550:11564   */\n      add\n        /* \"#utility.yul\":11543:11601   */\n      mstore\n        /* \"#utility.yul\":11635:11669   */\n      0x616e206368616e676520746865206d696e696d756d20616d6f756e74206f6620\n        /* \"#utility.yul\":11630:11632   */\n      0x20\n        /* \"#utility.yul\":11622:11628   */\n      dup3\n        /* \"#utility.yul\":11618:11633   */\n      add\n        /* \"#utility.yul\":11611:11670   */\n      mstore\n        /* \"#utility.yul\":11704:11710   */\n      0x5553442e00000000000000000000000000000000000000000000000000000000\n        /* \"#utility.yul\":11699:11701   */\n      0x40\n        /* \"#utility.yul\":11691:11697   */\n      dup3\n        /* \"#utility.yul\":11687:11702   */\n      add\n        /* \"#utility.yul\":11680:11711   */\n      mstore\n        /* \"#utility.yul\":11426:11718   */\n      pop\n      jump\t// out\n        /* \"#utility.yul\":11724:12090   */\n    tag_144:\n        /* \"#utility.yul\":11866:11869   */\n      0x00\n        /* \"#utility.yul\":11887:11954   */\n      tag_266\n        /* \"#utility.yul\":11951:11953   */\n      0x44\n        /* \"#utility.yul\":11946:11949   */\n      dup4\n        /* \"#utility.yul\":11887:11954   */\n      tag_124\n      jump\t// in\n    tag_266:\n        /* \"#utility.yul\":11880:11954   */\n      swap2\n      pop\n        /* \"#utility.yul\":11963:12056   */\n      tag_267\n        /* \"#utility.yul\":12052:12055   */\n      dup3\n        /* \"#utility.yul\":11963:12056   */\n      tag_143\n      jump\t// in\n    tag_267:\n        /* \"#utility.yul\":12081:12083   */\n      0x60\n        /* \"#utility.yul\":12076:12079   */\n      dup3\n        /* \"#utility.yul\":12072:12084   */\n      add\n        /* \"#utility.yul\":12065:12084   */\n      swap1\n      pop\n        /* \"#utility.yul\":11724:12090   */\n      swap2\n      swap1\n      pop\n      jump\t// out\n        /* \"#utility.yul\":12096:12515   */\n    tag_101:\n        /* \"#utility.yul\":12262:12266   */\n      0x00\n        /* \"#utility.yul\":12300:12302   */\n      0x20\n        /* \"#utility.yul\":12289:12298   */\n      dup3\n        /* \"#utility.yul\":12285:12303   */\n      add\n        /* \"#utility.yul\":12277:12303   */\n      swap1\n      pop\n        /* \"#utility.yul\":12349:12358   */\n      dup2\n        /* \"#utility.yul\":12343:12347   */\n      dup2\n        /* \"#utility.yul\":12339:12359   */\n      sub\n        /* \"#utility.yul\":12335:12336   */\n      0x00\n        /* \"#utility.yul\":12324:12333   */\n      dup4\n        /* \"#utility.yul\":12320:12337   */\n      add\n        /* \"#utility.yul\":12313:12360   */\n      mstore\n        /* \"#utility.yul\":12377:12508   */\n      tag_269\n        /* \"#utility.yul\":12503:12507   */\n      dup2\n        /* \"#utility.yul\":12377:12508   */\n      tag_144\n      jump\t// in\n    tag_269:\n        /* \"#utility.yul\":12369:12508   */\n      swap1\n      pop\n        /* \"#utility.yul\":12096:12515   */\n      swap2\n      swap1\n      pop\n      jump\t// out\n        /* \"#utility.yul\":12521:12764   */\n    tag_145:\n        /* \"#utility.yul\":12661:12695   */\n      0x43616e6e6f74206368616e6765207468652076616c7565206f66206d696e696d\n        /* \"#utility.yul\":12657:12658   */\n      0x00\n        /* \"#utility.yul\":12649:12655   */\n      dup3\n        /* \"#utility.yul\":12645:12659   */\n      add\n        /* \"#utility.yul\":12638:12696   */\n      mstore\n        /* \"#utility.yul\":12730:12756   */\n      0x756d55736420746f207468652073616d652076616c75652e0000000000000000\n        /* \"#utility.yul\":12725:12727   */\n      0x20\n        /* \"#utility.yul\":12717:12723   */\n      dup3\n        /* \"#utility.yul\":12713:12728   */\n      add\n        /* \"#utility.yul\":12706:12757   */\n      mstore\n        /* \"#utility.yul\":12521:12764   */\n      pop\n      jump\t// out\n        /* \"#utility.yul\":12770:13136   */\n    tag_146:\n        /* \"#utility.yul\":12912:12915   */\n      0x00\n        /* \"#utility.yul\":12933:13000   */\n      tag_272\n        /* \"#utility.yul\":12997:12999   */\n      0x38\n        /* \"#utility.yul\":12992:12995   */\n      dup4\n        /* \"#utility.yul\":12933:13000   */\n      tag_124\n      jump\t// in\n    tag_272:\n        /* \"#utility.yul\":12926:13000   */\n      swap2\n      pop\n        /* \"#utility.yul\":13009:13102   */\n      tag_273\n        /* \"#utility.yul\":13098:13101   */\n      dup3\n        /* \"#utility.yul\":13009:13102   */\n      tag_145\n      jump\t// in\n    tag_273:\n        /* \"#utility.yul\":13127:13129   */\n      0x40\n        /* \"#utility.yul\":13122:13125   */\n      dup3\n        /* \"#utility.yul\":13118:13130   */\n      add\n        /* \"#utility.yul\":13111:13130   */\n      swap1\n      pop\n        /* \"#utility.yul\":12770:13136   */\n      swap2\n      swap1\n      pop\n      jump\t// out\n        /* \"#utility.yul\":13142:13561   */\n    tag_105:\n        /* \"#utility.yul\":13308:13312   */\n      0x00\n        /* \"#utility.yul\":13346:13348   */\n      0x20\n        /* \"#utility.yul\":13335:13344   */\n      dup3\n        /* \"#utility.yul\":13331:13349   */\n      add\n        /* \"#utility.yul\":13323:13349   */\n      swap1\n      pop\n        /* \"#utility.yul\":13395:13404   */\n      dup2\n        /* \"#utility.yul\":13389:13393   */\n      dup2\n        /* \"#utility.yul\":13385:13405   */\n      sub\n        /* \"#utility.yul\":13381:13382   */\n      0x00\n        /* \"#utility.yul\":13370:13379   */\n      dup4\n        /* \"#utility.yul\":13366:13383   */\n      add\n        /* \"#utility.yul\":13359:13406   */\n      mstore\n        /* \"#utility.yul\":13423:13554   */\n      tag_275\n        /* \"#utility.yul\":13549:13553   */\n      dup2\n        /* \"#utility.yul\":13423:13554   */\n      tag_146\n      jump\t// in\n    tag_275:\n        /* \"#utility.yul\":13415:13554   */\n      swap1\n      pop\n        /* \"#utility.yul\":13142:13561   */\n      swap2\n      swap1\n      pop\n      jump\t// out\n        /* \"#utility.yul\":13567:13682   */\n    tag_147:\n        /* \"#utility.yul\":13652:13675   */\n      tag_277\n        /* \"#utility.yul\":13669:13674   */\n      dup2\n        /* \"#utility.yul\":13652:13675   */\n      tag_135\n      jump\t// in\n    tag_277:\n        /* \"#utility.yul\":13647:13650   */\n      dup3\n        /* \"#utility.yul\":13640:13676   */\n      mstore\n        /* \"#utility.yul\":13567:13682   */\n      pop\n      pop\n      jump\t// out\n        /* \"#utility.yul\":13688:13906   */\n    tag_109:\n        /* \"#utility.yul\":13779:13783   */\n      0x00\n        /* \"#utility.yul\":13817:13819   */\n      0x20\n        /* \"#utility.yul\":13806:13815   */\n      dup3\n        /* \"#utility.yul\":13802:13820   */\n      add\n        /* \"#utility.yul\":13794:13820   */\n      swap1\n      pop\n        /* \"#utility.yul\":13830:13899   */\n      tag_279\n        /* \"#utility.yul\":13896:13897   */\n      0x00\n        /* \"#utility.yul\":13885:13894   */\n      dup4\n        /* \"#utility.yul\":13881:13898   */\n      add\n        /* \"#utility.yul\":13872:13878   */\n      dup5\n        /* \"#utility.yul\":13830:13899   */\n      tag_147\n      jump\t// in\n    tag_279:\n        /* \"#utility.yul\":13688:13906   */\n      swap3\n      swap2\n      pop\n      pop\n      jump\t// out\n\n    auxdata: 0xa2646970667358221220eceb3b6be39443bc02f51438c2abc6d8e7382d3c3ba72841038c76ea21f9103564736f6c634300081a0033\n}\n",
				"bytecode": {
					"linkReferences": {},
					"object": "6080604052348015600e575f80fd5b50335f806101000a81548173ffffffffffffffffffffffffffffffffffffffff021916908373ffffffffffffffffffffffffffffffffffffffff160217905550631dcd6500600181905550610f57806100665f395ff3fe608060405260043610610085575f3560e01c806371d2ee6c1161005857806371d2ee6c146101415780638da5cb5b1461016957806398d5fdca14610193578063b60d4288146101bd578063d78a29d2146101c757610085565b8063034855c714610089578063098de820146100c55780633e9f607c146100ef578063455fd6231461012b575b5f80fd5b348015610094575f80fd5b506100af60048036038101906100aa9190610881565b6101ef565b6040516100bc91906108c4565b60405180910390f35b3480156100d0575f80fd5b506100d9610204565b6040516100e691906108c4565b60405180910390f35b3480156100fa575f80fd5b5061011560048036038101906101109190610907565b61020a565b60405161012291906108c4565b60405180910390f35b348015610136575f80fd5b5061013f610232565b005b34801561014c575f80fd5b5061016760048036038101906101629190610945565b6103aa565b005b348015610174575f80fd5b5061017d610535565b60405161018a919061097f565b60405180910390f35b34801561019e575f80fd5b506101a7610558565b6040516101b491906108c4565b60405180910390f35b6101c5610632565b005b3480156101d2575f80fd5b506101ed60048036038101906101e89190610945565b6106e6565b005b6002602052805f5260405f205f915090505481565b60015481565b5f670de0b6b3a7640000828461022091906109c5565b61022a9190610a33565b905092915050565b5f60025f3373ffffffffffffffffffffffffffffffffffffffff1673ffffffffffffffffffffffffffffffffffffffff1681526020019081526020015f205490505f81116102b5576040517f08c379a00000000000000000000000000000000000000000000000000000000081526004016102ac90610abd565b60405180910390fd5b5f60025f3373ffffffffffffffffffffffffffffffffffffffff1673ffffffffffffffffffffffffffffffffffffffff1681526020019081526020015f20819055505f3373ffffffffffffffffffffffffffffffffffffffff168260405161031c90610b08565b5f6040518083038185875af1925050503d805f8114610356576040519150601f19603f3d011682016040523d82523d5f602084013e61035b565b606091505b5050905060011515811515146103a6576040517f08c379a000000000000000000000000000000000000000000000000000000000815260040161039d90610b66565b60405180910390fd5b5050565b5f60025f3373ffffffffffffffffffffffffffffffffffffffff1673ffffffffffffffffffffffffffffffffffffffff1681526020019081526020015f205490508181101561042e576040517f08c379a000000000000000000000000000000000000000000000000000000000815260040161042590610abd565b60405180910390fd5b8160025f3373ffffffffffffffffffffffffffffffffffffffff1673ffffffffffffffffffffffffffffffffffffffff1681526020019081526020015f205f82825461047a9190610b84565b925050819055505f3373ffffffffffffffffffffffffffffffffffffffff16836040516104a690610b08565b5f6040518083038185875af1925050503d805f81146104e0576040519150601f19603f3d011682016040523d82523d5f602084013e6104e5565b606091505b505090506001151581151514610530576040517f08c379a000000000000000000000000000000000000000000000000000000000815260040161052790610b66565b60405180910390fd5b505050565b5f8054906101000a900473ffffffffffffffffffffffffffffffffffffffff1681565b5f8073694aa1769357215de4fac081bf1f309adc32530673ffffffffffffffffffffffffffffffffffffffff1663feaf968c6040518163ffffffff1660e01b815260040160a060405180830381865afa1580156105b7573d5f803e3d5ffd5b505050506040513d601f19601f820116820180604052508101906105db9190610c3d565b5050509150505f8113610623576040517f08c379a000000000000000000000000000000000000000000000000000000000815260040161061a90610cfe565b60405180910390fd5b61062c816107d5565b91505090565b5f61063b610558565b90505f610648823461020a565b905060015481101561068f576040517f08c379a000000000000000000000000000000000000000000000000000000000815260040161068690610d66565b60405180910390fd5b3460025f3373ffffffffffffffffffffffffffffffffffffffff1673ffffffffffffffffffffffffffffffffffffffff1681526020019081526020015f205f8282546106db9190610d84565b925050819055505050565b5f8054906101000a900473ffffffffffffffffffffffffffffffffffffffff1673ffffffffffffffffffffffffffffffffffffffff163373ffffffffffffffffffffffffffffffffffffffff1614610773576040517f08c379a000000000000000000000000000000000000000000000000000000000815260040161076a90610e4d565b60405180910390fd5b5f6305f5e1008261078491906109c5565b905060015481036107ca576040517f08c379a00000000000000000000000000000000000000000000000000000000081526004016107c190610edb565b60405180910390fd5b806001819055505050565b5f8082121561081b57816040517fa8ce44320000000000000000000000000000000000000000000000000000000081526004016108129190610f08565b60405180910390fd5b819050919050565b5f80fd5b5f73ffffffffffffffffffffffffffffffffffffffff82169050919050565b5f61085082610827565b9050919050565b61086081610846565b811461086a575f80fd5b50565b5f8135905061087b81610857565b92915050565b5f6020828403121561089657610895610823565b5b5f6108a38482850161086d565b91505092915050565b5f819050919050565b6108be816108ac565b82525050565b5f6020820190506108d75f8301846108b5565b92915050565b6108e6816108ac565b81146108f0575f80fd5b50565b5f81359050610901816108dd565b92915050565b5f806040838503121561091d5761091c610823565b5b5f61092a858286016108f3565b925050602061093b858286016108f3565b9150509250929050565b5f6020828403121561095a57610959610823565b5b5f610967848285016108f3565b91505092915050565b61097981610846565b82525050565b5f6020820190506109925f830184610970565b92915050565b7f4e487b71000000000000000000000000000000000000000000000000000000005f52601160045260245ffd5b5f6109cf826108ac565b91506109da836108ac565b92508282026109e8816108ac565b915082820484148315176109ff576109fe610998565b5b5092915050565b7f4e487b71000000000000000000000000000000000000000000000000000000005f52601260045260245ffd5b5f610a3d826108ac565b9150610a48836108ac565b925082610a5857610a57610a06565b5b828204905092915050565b5f82825260208201905092915050565b7f496e73756666696369656e742062616c616e63650000000000000000000000005f82015250565b5f610aa7601483610a63565b9150610ab282610a73565b602082019050919050565b5f6020820190508181035f830152610ad481610a9b565b9050919050565b5f81905092915050565b50565b5f610af35f83610adb565b9150610afe82610ae5565b5f82019050919050565b5f610b1282610ae8565b9150819050919050565b7f5472616e73666572206661696c65642e000000000000000000000000000000005f82015250565b5f610b50601083610a63565b9150610b5b82610b1c565b602082019050919050565b5f6020820190508181035f830152610b7d81610b44565b9050919050565b5f610b8e826108ac565b9150610b99836108ac565b9250828203905081811115610bb157610bb0610998565b5b92915050565b5f69ffffffffffffffffffff82169050919050565b610bd581610bb7565b8114610bdf575f80fd5b50565b5f81519050610bf081610bcc565b92915050565b5f819050919050565b610c0881610bf6565b8114610c12575f80fd5b50565b5f81519050610c2381610bff565b92915050565b5f81519050610c37816108dd565b92915050565b5f805f805f60a08688031215610c5657610c55610823565b5b5f610c6388828901610be2565b9550506020610c7488828901610c15565b9450506040610c8588828901610c29565b9350506060610c9688828901610c29565b9250506080610ca788828901610be2565b9150509295509295909350565b7f4e65676174697665207072696365206e6f7420616c6c6f7765642e00000000005f82015250565b5f610ce8601b83610a63565b9150610cf382610cb4565b602082019050919050565b5f6020820190508181035f830152610d1581610cdc565b9050919050565b7f6469646e27742073656e6420656e6f75676820555344000000000000000000005f82015250565b5f610d50601683610a63565b9150610d5b82610d1c565b602082019050919050565b5f6020820190508181035f830152610d7d81610d44565b9050919050565b5f610d8e826108ac565b9150610d99836108ac565b9250828201905080821115610db157610db0610998565b5b92915050565b7f4f6e6c7920746865206f776e6572206f662074686520636f6e747261637420635f8201527f616e206368616e676520746865206d696e696d756d20616d6f756e74206f662060208201527f5553442e00000000000000000000000000000000000000000000000000000000604082015250565b5f610e37604483610a63565b9150610e4282610db7565b606082019050919050565b5f6020820190508181035f830152610e6481610e2b565b9050919050565b7f43616e6e6f74206368616e6765207468652076616c7565206f66206d696e696d5f8201527f756d55736420746f207468652073616d652076616c75652e0000000000000000602082015250565b5f610ec5603883610a63565b9150610ed082610e6b565b604082019050919050565b5f6020820190508181035f830152610ef281610eb9565b9050919050565b610f0281610bf6565b82525050565b5f602082019050610f1b5f830184610ef9565b9291505056fea2646970667358221220eceb3b6be39443bc02f51438c2abc6d8e7382d3c3ba72841038c76ea21f9103564736f6c634300081a0033",
					"opcodes": "PUSH1 0x80 PUSH1 0x40 MSTORE CALLVALUE DUP1 ISZERO PUSH1 0xE JUMPI PUSH0 DUP1 REVERT JUMPDEST POP CALLER PUSH0 DUP1 PUSH2 0x100 EXP DUP2 SLOAD DUP2 PUSH20 0xFFFFFFFFFFFFFFFFFFFFFFFFFFFFFFFFFFFFFFFF MUL NOT AND SWAP1 DUP4 PUSH20 0xFFFFFFFFFFFFFFFFFFFFFFFFFFFFFFFFFFFFFFFF AND MUL OR SWAP1 SSTORE POP PUSH4 0x1DCD6500 PUSH1 0x1 DUP2 SWAP1 SSTORE POP PUSH2 0xF57 DUP1 PUSH2 0x66 PUSH0 CODECOPY PUSH0 RETURN INVALID PUSH1 0x80 PUSH1 0x40 MSTORE PUSH1 0x4 CALLDATASIZE LT PUSH2 0x85 JUMPI PUSH0 CALLDATALOAD PUSH1 0xE0 SHR DUP1 PUSH4 0x71D2EE6C GT PUSH2 0x58 JUMPI DUP1 PUSH4 0x71D2EE6C EQ PUSH2 0x141 JUMPI DUP1 PUSH4 0x8DA5CB5B EQ PUSH2 0x169 JUMPI DUP1 PUSH4 0x98D5FDCA EQ PUSH2 0x193 JUMPI DUP1 PUSH4 0xB60D4288 EQ PUSH2 0x1BD JUMPI DUP1 PUSH4 0xD78A29D2 EQ PUSH2 0x1C7 JUMPI PUSH2 0x85 JUMP JUMPDEST DUP1 PUSH4 0x34855C7 EQ PUSH2 0x89 JUMPI DUP1 PUSH4 0x98DE820 EQ PUSH2 0xC5 JUMPI DUP1 PUSH4 0x3E9F607C EQ PUSH2 0xEF JUMPI DUP1 PUSH4 0x455FD623 EQ PUSH2 0x12B JUMPI JUMPDEST PUSH0 DUP1 REVERT JUMPDEST CALLVALUE DUP1 ISZERO PUSH2 0x94 JUMPI PUSH0 DUP1 REVERT JUMPDEST POP PUSH2 0xAF PUSH1 0x4 DUP1 CALLDATASIZE SUB DUP2 ADD SWAP1 PUSH2 0xAA SWAP2 SWAP1 PUSH2 0x881 JUMP JUMPDEST PUSH2 0x1EF JUMP JUMPDEST PUSH1 0x40 MLOAD PUSH2 0xBC SWAP2 SWAP1 PUSH2 0x8C4 JUMP JUMPDEST PUSH1 0x40 MLOAD DUP1 SWAP2 SUB SWAP1 RETURN JUMPDEST CALLVALUE DUP1 ISZERO PUSH2 0xD0 JUMPI PUSH0 DUP1 REVERT JUMPDEST POP PUSH2 0xD9 PUSH2 0x204 JUMP JUMPDEST PUSH1 0x40 MLOAD PUSH2 0xE6 SWAP2 SWAP1 PUSH2 0x8C4 JUMP JUMPDEST PUSH1 0x40 MLOAD DUP1 SWAP2 SUB SWAP1 RETURN JUMPDEST CALLVALUE DUP1 ISZERO PUSH2 0xFA JUMPI PUSH0 DUP1 REVERT JUMPDEST POP PUSH2 0x115 PUSH1 0x4 DUP1 CALLDATASIZE SUB DUP2 ADD SWAP1 PUSH2 0x110 SWAP2 SWAP1 PUSH2 0x907 JUMP JUMPDEST PUSH2 0x20A JUMP JUMPDEST PUSH1 0x40 MLOAD PUSH2 0x122 SWAP2 SWAP1 PUSH2 0x8C4 JUMP JUMPDEST PUSH1 0x40 MLOAD DUP1 SWAP2 SUB SWAP1 RETURN JUMPDEST CALLVALUE DUP1 ISZERO PUSH2 0x136 JUMPI PUSH0 DUP1 REVERT JUMPDEST POP PUSH2 0x13F PUSH2 0x232 JUMP JUMPDEST STOP JUMPDEST CALLVALUE DUP1 ISZERO PUSH2 0x14C JUMPI PUSH0 DUP1 REVERT JUMPDEST POP PUSH2 0x167 PUSH1 0x4 DUP1 CALLDATASIZE SUB DUP2 ADD SWAP1 PUSH2 0x162 SWAP2 SWAP1 PUSH2 0x945 JUMP JUMPDEST PUSH2 0x3AA JUMP JUMPDEST STOP JUMPDEST CALLVALUE DUP1 ISZERO PUSH2 0x174 JUMPI PUSH0 DUP1 REVERT JUMPDEST POP PUSH2 0x17D PUSH2 0x535 JUMP JUMPDEST PUSH1 0x40 MLOAD PUSH2 0x18A SWAP2 SWAP1 PUSH2 0x97F JUMP JUMPDEST PUSH1 0x40 MLOAD DUP1 SWAP2 SUB SWAP1 RETURN JUMPDEST CALLVALUE DUP1 ISZERO PUSH2 0x19E JUMPI PUSH0 DUP1 REVERT JUMPDEST POP PUSH2 0x1A7 PUSH2 0x558 JUMP JUMPDEST PUSH1 0x40 MLOAD PUSH2 0x1B4 SWAP2 SWAP1 PUSH2 0x8C4 JUMP JUMPDEST PUSH1 0x40 MLOAD DUP1 SWAP2 SUB SWAP1 RETURN JUMPDEST PUSH2 0x1C5 PUSH2 0x632 JUMP JUMPDEST STOP JUMPDEST CALLVALUE DUP1 ISZERO PUSH2 0x1D2 JUMPI PUSH0 DUP1 REVERT JUMPDEST POP PUSH2 0x1ED PUSH1 0x4 DUP1 CALLDATASIZE SUB DUP2 ADD SWAP1 PUSH2 0x1E8 SWAP2 SWAP1 PUSH2 0x945 JUMP JUMPDEST PUSH2 0x6E6 JUMP JUMPDEST STOP JUMPDEST PUSH1 0x2 PUSH1 0x20 MSTORE DUP1 PUSH0 MSTORE PUSH1 0x40 PUSH0 KECCAK256 PUSH0 SWAP2 POP SWAP1 POP SLOAD DUP2 JUMP JUMPDEST PUSH1 0x1 SLOAD DUP2 JUMP JUMPDEST PUSH0 PUSH8 0xDE0B6B3A7640000 DUP3 DUP5 PUSH2 0x220 SWAP2 SWAP1 PUSH2 0x9C5 JUMP JUMPDEST PUSH2 0x22A SWAP2 SWAP1 PUSH2 0xA33 JUMP JUMPDEST SWAP1 POP SWAP3 SWAP2 POP POP JUMP JUMPDEST PUSH0 PUSH1 0x2 PUSH0 CALLER PUSH20 0xFFFFFFFFFFFFFFFFFFFFFFFFFFFFFFFFFFFFFFFF AND PUSH20 0xFFFFFFFFFFFFFFFFFFFFFFFFFFFFFFFFFFFFFFFF AND DUP2 MSTORE PUSH1 0x20 ADD SWAP1 DUP2 MSTORE PUSH1 0x20 ADD PUSH0 KECCAK256 SLOAD SWAP1 POP PUSH0 DUP2 GT PUSH2 0x2B5 JUMPI PUSH1 0x40 MLOAD PUSH32 0x8C379A000000000000000000000000000000000000000000000000000000000 DUP2 MSTORE PUSH1 0x4 ADD PUSH2 0x2AC SWAP1 PUSH2 0xABD JUMP JUMPDEST PUSH1 0x40 MLOAD DUP1 SWAP2 SUB SWAP1 REVERT JUMPDEST PUSH0 PUSH1 0x2 PUSH0 CALLER PUSH20 0xFFFFFFFFFFFFFFFFFFFFFFFFFFFFFFFFFFFFFFFF AND PUSH20 0xFFFFFFFFFFFFFFFFFFFFFFFFFFFFFFFFFFFFFFFF AND DUP2 MSTORE PUSH1 0x20 ADD SWAP1 DUP2 MSTORE PUSH1 0x20 ADD PUSH0 KECCAK256 DUP2 SWAP1 SSTORE POP PUSH0 CALLER PUSH20 0xFFFFFFFFFFFFFFFFFFFFFFFFFFFFFFFFFFFFFFFF AND DUP3 PUSH1 0x40 MLOAD PUSH2 0x31C SWAP1 PUSH2 0xB08 JUMP JUMPDEST PUSH0 PUSH1 0x40 MLOAD DUP1 DUP4 SUB DUP2 DUP6 DUP8 GAS CALL SWAP3 POP POP POP RETURNDATASIZE DUP1 PUSH0 DUP2 EQ PUSH2 0x356 JUMPI PUSH1 0x40 MLOAD SWAP2 POP PUSH1 0x1F NOT PUSH1 0x3F RETURNDATASIZE ADD AND DUP3 ADD PUSH1 0x40 MSTORE RETURNDATASIZE DUP3 MSTORE RETURNDATASIZE PUSH0 PUSH1 0x20 DUP5 ADD RETURNDATACOPY PUSH2 0x35B JUMP JUMPDEST PUSH1 0x60 SWAP2 POP JUMPDEST POP POP SWAP1 POP PUSH1 0x1 ISZERO ISZERO DUP2 ISZERO ISZERO EQ PUSH2 0x3A6 JUMPI PUSH1 0x40 MLOAD PUSH32 0x8C379A000000000000000000000000000000000000000000000000000000000 DUP2 MSTORE PUSH1 0x4 ADD PUSH2 0x39D SWAP1 PUSH2 0xB66 JUMP JUMPDEST PUSH1 0x40 MLOAD DUP1 SWAP2 SUB SWAP1 REVERT JUMPDEST POP POP JUMP JUMPDEST PUSH0 PUSH1 0x2 PUSH0 CALLER PUSH20 0xFFFFFFFFFFFFFFFFFFFFFFFFFFFFFFFFFFFFFFFF AND PUSH20 0xFFFFFFFFFFFFFFFFFFFFFFFFFFFFFFFFFFFFFFFF AND DUP2 MSTORE PUSH1 0x20 ADD SWAP1 DUP2 MSTORE PUSH1 0x20 ADD PUSH0 KECCAK256 SLOAD SWAP1 POP DUP2 DUP2 LT ISZERO PUSH2 0x42E JUMPI PUSH1 0x40 MLOAD PUSH32 0x8C379A000000000000000000000000000000000000000000000000000000000 DUP2 MSTORE PUSH1 0x4 ADD PUSH2 0x425 SWAP1 PUSH2 0xABD JUMP JUMPDEST PUSH1 0x40 MLOAD DUP1 SWAP2 SUB SWAP1 REVERT JUMPDEST DUP2 PUSH1 0x2 PUSH0 CALLER PUSH20 0xFFFFFFFFFFFFFFFFFFFFFFFFFFFFFFFFFFFFFFFF AND PUSH20 0xFFFFFFFFFFFFFFFFFFFFFFFFFFFFFFFFFFFFFFFF AND DUP2 MSTORE PUSH1 0x20 ADD SWAP1 DUP2 MSTORE PUSH1 0x20 ADD PUSH0 KECCAK256 PUSH0 DUP3 DUP3 SLOAD PUSH2 0x47A SWAP2 SWAP1 PUSH2 0xB84 JUMP JUMPDEST SWAP3 POP POP DUP2 SWAP1 SSTORE POP PUSH0 CALLER PUSH20 0xFFFFFFFFFFFFFFFFFFFFFFFFFFFFFFFFFFFFFFFF AND DUP4 PUSH1 0x40 MLOAD PUSH2 0x4A6 SWAP1 PUSH2 0xB08 JUMP JUMPDEST PUSH0 PUSH1 0x40 MLOAD DUP1 DUP4 SUB DUP2 DUP6 DUP8 GAS CALL SWAP3 POP POP POP RETURNDATASIZE DUP1 PUSH0 DUP2 EQ PUSH2 0x4E0 JUMPI PUSH1 0x40 MLOAD SWAP2 POP PUSH1 0x1F NOT PUSH1 0x3F RETURNDATASIZE ADD AND DUP3 ADD PUSH1 0x40 MSTORE RETURNDATASIZE DUP3 MSTORE RETURNDATASIZE PUSH0 PUSH1 0x20 DUP5 ADD RETURNDATACOPY PUSH2 0x4E5 JUMP JUMPDEST PUSH1 0x60 SWAP2 POP JUMPDEST POP POP SWAP1 POP PUSH1 0x1 ISZERO ISZERO DUP2 ISZERO ISZERO EQ PUSH2 0x530 JUMPI PUSH1 0x40 MLOAD PUSH32 0x8C379A000000000000000000000000000000000000000000000000000000000 DUP2 MSTORE PUSH1 0x4 ADD PUSH2 0x527 SWAP1 PUSH2 0xB66 JUMP JUMPDEST PUSH1 0x40 MLOAD DUP1 SWAP2 SUB SWAP1 REVERT JUMPDEST POP POP POP JUMP JUMPDEST PUSH0 DUP1 SLOAD SWAP1 PUSH2 0x100 EXP SWAP1 DIV PUSH20 0xFFFFFFFFFFFFFFFFFFFFFFFFFFFFFFFFFFFFFFFF AND DUP2 JUMP JUMPDEST PUSH0 DUP1 PUSH20 0x694AA1769357215DE4FAC081BF1F309ADC325306 PUSH20 0xFFFFFFFFFFFFFFFFFFFFFFFFFFFFFFFFFFFFFFFF AND PUSH4 0xFEAF968C PUSH1 0x40 MLOAD DUP2 PUSH4 0xFFFFFFFF AND PUSH1 0xE0 SHL DUP2 MSTORE PUSH1 0x4 ADD PUSH1 0xA0 PUSH1 0x40 MLOAD DUP1 DUP4 SUB DUP2 DUP7 GAS STATICCALL ISZERO DUP1 ISZERO PUSH2 0x5B7 JUMPI RETURNDATASIZE PUSH0 DUP1 RETURNDATACOPY RETURNDATASIZE PUSH0 REVERT JUMPDEST POP POP POP POP PUSH1 0x40 MLOAD RETURNDATASIZE PUSH1 0x1F NOT PUSH1 0x1F DUP3 ADD AND DUP3 ADD DUP1 PUSH1 0x40 MSTORE POP DUP2 ADD SWAP1 PUSH2 0x5DB SWAP2 SWAP1 PUSH2 0xC3D JUMP JUMPDEST POP POP POP SWAP2 POP POP PUSH0 DUP2 SGT PUSH2 0x623 JUMPI PUSH1 0x40 MLOAD PUSH32 0x8C379A000000000000000000000000000000000000000000000000000000000 DUP2 MSTORE PUSH1 0x4 ADD PUSH2 0x61A SWAP1 PUSH2 0xCFE JUMP JUMPDEST PUSH1 0x40 MLOAD DUP1 SWAP2 SUB SWAP1 REVERT JUMPDEST PUSH2 0x62C DUP2 PUSH2 0x7D5 JUMP JUMPDEST SWAP2 POP POP SWAP1 JUMP JUMPDEST PUSH0 PUSH2 0x63B PUSH2 0x558 JUMP JUMPDEST SWAP1 POP PUSH0 PUSH2 0x648 DUP3 CALLVALUE PUSH2 0x20A JUMP JUMPDEST SWAP1 POP PUSH1 0x1 SLOAD DUP2 LT ISZERO PUSH2 0x68F JUMPI PUSH1 0x40 MLOAD PUSH32 0x8C379A000000000000000000000000000000000000000000000000000000000 DUP2 MSTORE PUSH1 0x4 ADD PUSH2 0x686 SWAP1 PUSH2 0xD66 JUMP JUMPDEST PUSH1 0x40 MLOAD DUP1 SWAP2 SUB SWAP1 REVERT JUMPDEST CALLVALUE PUSH1 0x2 PUSH0 CALLER PUSH20 0xFFFFFFFFFFFFFFFFFFFFFFFFFFFFFFFFFFFFFFFF AND PUSH20 0xFFFFFFFFFFFFFFFFFFFFFFFFFFFFFFFFFFFFFFFF AND DUP2 MSTORE PUSH1 0x20 ADD SWAP1 DUP2 MSTORE PUSH1 0x20 ADD PUSH0 KECCAK256 PUSH0 DUP3 DUP3 SLOAD PUSH2 0x6DB SWAP2 SWAP1 PUSH2 0xD84 JUMP JUMPDEST SWAP3 POP POP DUP2 SWAP1 SSTORE POP POP POP JUMP JUMPDEST PUSH0 DUP1 SLOAD SWAP1 PUSH2 0x100 EXP SWAP1 DIV PUSH20 0xFFFFFFFFFFFFFFFFFFFFFFFFFFFFFFFFFFFFFFFF AND PUSH20 0xFFFFFFFFFFFFFFFFFFFFFFFFFFFFFFFFFFFFFFFF AND CALLER PUSH20 0xFFFFFFFFFFFFFFFFFFFFFFFFFFFFFFFFFFFFFFFF AND EQ PUSH2 0x773 JUMPI PUSH1 0x40 MLOAD PUSH32 0x8C379A000000000000000000000000000000000000000000000000000000000 DUP2 MSTORE PUSH1 0x4 ADD PUSH2 0x76A SWAP1 PUSH2 0xE4D JUMP JUMPDEST PUSH1 0x40 MLOAD DUP1 SWAP2 SUB SWAP1 REVERT JUMPDEST PUSH0 PUSH4 0x5F5E100 DUP3 PUSH2 0x784 SWAP2 SWAP1 PUSH2 0x9C5 JUMP JUMPDEST SWAP1 POP PUSH1 0x1 SLOAD DUP2 SUB PUSH2 0x7CA JUMPI PUSH1 0x40 MLOAD PUSH32 0x8C379A000000000000000000000000000000000000000000000000000000000 DUP2 MSTORE PUSH1 0x4 ADD PUSH2 0x7C1 SWAP1 PUSH2 0xEDB JUMP JUMPDEST PUSH1 0x40 MLOAD DUP1 SWAP2 SUB SWAP1 REVERT JUMPDEST DUP1 PUSH1 0x1 DUP2 SWAP1 SSTORE POP POP POP JUMP JUMPDEST PUSH0 DUP1 DUP3 SLT ISZERO PUSH2 0x81B JUMPI DUP2 PUSH1 0x40 MLOAD PUSH32 0xA8CE443200000000000000000000000000000000000000000000000000000000 DUP2 MSTORE PUSH1 0x4 ADD PUSH2 0x812 SWAP2 SWAP1 PUSH2 0xF08 JUMP JUMPDEST PUSH1 0x40 MLOAD DUP1 SWAP2 SUB SWAP1 REVERT JUMPDEST DUP2 SWAP1 POP SWAP2 SWAP1 POP JUMP JUMPDEST PUSH0 DUP1 REVERT JUMPDEST PUSH0 PUSH20 0xFFFFFFFFFFFFFFFFFFFFFFFFFFFFFFFFFFFFFFFF DUP3 AND SWAP1 POP SWAP2 SWAP1 POP JUMP JUMPDEST PUSH0 PUSH2 0x850 DUP3 PUSH2 0x827 JUMP JUMPDEST SWAP1 POP SWAP2 SWAP1 POP JUMP JUMPDEST PUSH2 0x860 DUP2 PUSH2 0x846 JUMP JUMPDEST DUP2 EQ PUSH2 0x86A JUMPI PUSH0 DUP1 REVERT JUMPDEST POP JUMP JUMPDEST PUSH0 DUP2 CALLDATALOAD SWAP1 POP PUSH2 0x87B DUP2 PUSH2 0x857 JUMP JUMPDEST SWAP3 SWAP2 POP POP JUMP JUMPDEST PUSH0 PUSH1 0x20 DUP3 DUP5 SUB SLT ISZERO PUSH2 0x896 JUMPI PUSH2 0x895 PUSH2 0x823 JUMP JUMPDEST JUMPDEST PUSH0 PUSH2 0x8A3 DUP5 DUP3 DUP6 ADD PUSH2 0x86D JUMP JUMPDEST SWAP2 POP POP SWAP3 SWAP2 POP POP JUMP JUMPDEST PUSH0 DUP2 SWAP1 POP SWAP2 SWAP1 POP JUMP JUMPDEST PUSH2 0x8BE DUP2 PUSH2 0x8AC JUMP JUMPDEST DUP3 MSTORE POP POP JUMP JUMPDEST PUSH0 PUSH1 0x20 DUP3 ADD SWAP1 POP PUSH2 0x8D7 PUSH0 DUP4 ADD DUP5 PUSH2 0x8B5 JUMP JUMPDEST SWAP3 SWAP2 POP POP JUMP JUMPDEST PUSH2 0x8E6 DUP2 PUSH2 0x8AC JUMP JUMPDEST DUP2 EQ PUSH2 0x8F0 JUMPI PUSH0 DUP1 REVERT JUMPDEST POP JUMP JUMPDEST PUSH0 DUP2 CALLDATALOAD SWAP1 POP PUSH2 0x901 DUP2 PUSH2 0x8DD JUMP JUMPDEST SWAP3 SWAP2 POP POP JUMP JUMPDEST PUSH0 DUP1 PUSH1 0x40 DUP4 DUP6 SUB SLT ISZERO PUSH2 0x91D JUMPI PUSH2 0x91C PUSH2 0x823 JUMP JUMPDEST JUMPDEST PUSH0 PUSH2 0x92A DUP6 DUP3 DUP7 ADD PUSH2 0x8F3 JUMP JUMPDEST SWAP3 POP POP PUSH1 0x20 PUSH2 0x93B DUP6 DUP3 DUP7 ADD PUSH2 0x8F3 JUMP JUMPDEST SWAP2 POP POP SWAP3 POP SWAP3 SWAP1 POP JUMP JUMPDEST PUSH0 PUSH1 0x20 DUP3 DUP5 SUB SLT ISZERO PUSH2 0x95A JUMPI PUSH2 0x959 PUSH2 0x823 JUMP JUMPDEST JUMPDEST PUSH0 PUSH2 0x967 DUP5 DUP3 DUP6 ADD PUSH2 0x8F3 JUMP JUMPDEST SWAP2 POP POP SWAP3 SWAP2 POP POP JUMP JUMPDEST PUSH2 0x979 DUP2 PUSH2 0x846 JUMP JUMPDEST DUP3 MSTORE POP POP JUMP JUMPDEST PUSH0 PUSH1 0x20 DUP3 ADD SWAP1 POP PUSH2 0x992 PUSH0 DUP4 ADD DUP5 PUSH2 0x970 JUMP JUMPDEST SWAP3 SWAP2 POP POP JUMP JUMPDEST PUSH32 0x4E487B7100000000000000000000000000000000000000000000000000000000 PUSH0 MSTORE PUSH1 0x11 PUSH1 0x4 MSTORE PUSH1 0x24 PUSH0 REVERT JUMPDEST PUSH0 PUSH2 0x9CF DUP3 PUSH2 0x8AC JUMP JUMPDEST SWAP2 POP PUSH2 0x9DA DUP4 PUSH2 0x8AC JUMP JUMPDEST SWAP3 POP DUP3 DUP3 MUL PUSH2 0x9E8 DUP2 PUSH2 0x8AC JUMP JUMPDEST SWAP2 POP DUP3 DUP3 DIV DUP5 EQ DUP4 ISZERO OR PUSH2 0x9FF JUMPI PUSH2 0x9FE PUSH2 0x998 JUMP JUMPDEST JUMPDEST POP SWAP3 SWAP2 POP POP JUMP JUMPDEST PUSH32 0x4E487B7100000000000000000000000000000000000000000000000000000000 PUSH0 MSTORE PUSH1 0x12 PUSH1 0x4 MSTORE PUSH1 0x24 PUSH0 REVERT JUMPDEST PUSH0 PUSH2 0xA3D DUP3 PUSH2 0x8AC JUMP JUMPDEST SWAP2 POP PUSH2 0xA48 DUP4 PUSH2 0x8AC JUMP JUMPDEST SWAP3 POP DUP3 PUSH2 0xA58 JUMPI PUSH2 0xA57 PUSH2 0xA06 JUMP JUMPDEST JUMPDEST DUP3 DUP3 DIV SWAP1 POP SWAP3 SWAP2 POP POP JUMP JUMPDEST PUSH0 DUP3 DUP3 MSTORE PUSH1 0x20 DUP3 ADD SWAP1 POP SWAP3 SWAP2 POP POP JUMP JUMPDEST PUSH32 0x496E73756666696369656E742062616C616E6365000000000000000000000000 PUSH0 DUP3 ADD MSTORE POP JUMP JUMPDEST PUSH0 PUSH2 0xAA7 PUSH1 0x14 DUP4 PUSH2 0xA63 JUMP JUMPDEST SWAP2 POP PUSH2 0xAB2 DUP3 PUSH2 0xA73 JUMP JUMPDEST PUSH1 0x20 DUP3 ADD SWAP1 POP SWAP2 SWAP1 POP JUMP JUMPDEST PUSH0 PUSH1 0x20 DUP3 ADD SWAP1 POP DUP2 DUP2 SUB PUSH0 DUP4 ADD MSTORE PUSH2 0xAD4 DUP2 PUSH2 0xA9B JUMP JUMPDEST SWAP1 POP SWAP2 SWAP1 POP JUMP JUMPDEST PUSH0 DUP2 SWAP1 POP SWAP3 SWAP2 POP POP JUMP JUMPDEST POP JUMP JUMPDEST PUSH0 PUSH2 0xAF3 PUSH0 DUP4 PUSH2 0xADB JUMP JUMPDEST SWAP2 POP PUSH2 0xAFE DUP3 PUSH2 0xAE5 JUMP JUMPDEST PUSH0 DUP3 ADD SWAP1 POP SWAP2 SWAP1 POP JUMP JUMPDEST PUSH0 PUSH2 0xB12 DUP3 PUSH2 0xAE8 JUMP JUMPDEST SWAP2 POP DUP2 SWAP1 POP SWAP2 SWAP1 POP JUMP JUMPDEST PUSH32 0x5472616E73666572206661696C65642E00000000000000000000000000000000 PUSH0 DUP3 ADD MSTORE POP JUMP JUMPDEST PUSH0 PUSH2 0xB50 PUSH1 0x10 DUP4 PUSH2 0xA63 JUMP JUMPDEST SWAP2 POP PUSH2 0xB5B DUP3 PUSH2 0xB1C JUMP JUMPDEST PUSH1 0x20 DUP3 ADD SWAP1 POP SWAP2 SWAP1 POP JUMP JUMPDEST PUSH0 PUSH1 0x20 DUP3 ADD SWAP1 POP DUP2 DUP2 SUB PUSH0 DUP4 ADD MSTORE PUSH2 0xB7D DUP2 PUSH2 0xB44 JUMP JUMPDEST SWAP1 POP SWAP2 SWAP1 POP JUMP JUMPDEST PUSH0 PUSH2 0xB8E DUP3 PUSH2 0x8AC JUMP JUMPDEST SWAP2 POP PUSH2 0xB99 DUP4 PUSH2 0x8AC JUMP JUMPDEST SWAP3 POP DUP3 DUP3 SUB SWAP1 POP DUP2 DUP2 GT ISZERO PUSH2 0xBB1 JUMPI PUSH2 0xBB0 PUSH2 0x998 JUMP JUMPDEST JUMPDEST SWAP3 SWAP2 POP POP JUMP JUMPDEST PUSH0 PUSH10 0xFFFFFFFFFFFFFFFFFFFF DUP3 AND SWAP1 POP SWAP2 SWAP1 POP JUMP JUMPDEST PUSH2 0xBD5 DUP2 PUSH2 0xBB7 JUMP JUMPDEST DUP2 EQ PUSH2 0xBDF JUMPI PUSH0 DUP1 REVERT JUMPDEST POP JUMP JUMPDEST PUSH0 DUP2 MLOAD SWAP1 POP PUSH2 0xBF0 DUP2 PUSH2 0xBCC JUMP JUMPDEST SWAP3 SWAP2 POP POP JUMP JUMPDEST PUSH0 DUP2 SWAP1 POP SWAP2 SWAP1 POP JUMP JUMPDEST PUSH2 0xC08 DUP2 PUSH2 0xBF6 JUMP JUMPDEST DUP2 EQ PUSH2 0xC12 JUMPI PUSH0 DUP1 REVERT JUMPDEST POP JUMP JUMPDEST PUSH0 DUP2 MLOAD SWAP1 POP PUSH2 0xC23 DUP2 PUSH2 0xBFF JUMP JUMPDEST SWAP3 SWAP2 POP POP JUMP JUMPDEST PUSH0 DUP2 MLOAD SWAP1 POP PUSH2 0xC37 DUP2 PUSH2 0x8DD JUMP JUMPDEST SWAP3 SWAP2 POP POP JUMP JUMPDEST PUSH0 DUP1 PUSH0 DUP1 PUSH0 PUSH1 0xA0 DUP7 DUP9 SUB SLT ISZERO PUSH2 0xC56 JUMPI PUSH2 0xC55 PUSH2 0x823 JUMP JUMPDEST JUMPDEST PUSH0 PUSH2 0xC63 DUP9 DUP3 DUP10 ADD PUSH2 0xBE2 JUMP JUMPDEST SWAP6 POP POP PUSH1 0x20 PUSH2 0xC74 DUP9 DUP3 DUP10 ADD PUSH2 0xC15 JUMP JUMPDEST SWAP5 POP POP PUSH1 0x40 PUSH2 0xC85 DUP9 DUP3 DUP10 ADD PUSH2 0xC29 JUMP JUMPDEST SWAP4 POP POP PUSH1 0x60 PUSH2 0xC96 DUP9 DUP3 DUP10 ADD PUSH2 0xC29 JUMP JUMPDEST SWAP3 POP POP PUSH1 0x80 PUSH2 0xCA7 DUP9 DUP3 DUP10 ADD PUSH2 0xBE2 JUMP JUMPDEST SWAP2 POP POP SWAP3 SWAP6 POP SWAP3 SWAP6 SWAP1 SWAP4 POP JUMP JUMPDEST PUSH32 0x4E65676174697665207072696365206E6F7420616C6C6F7765642E0000000000 PUSH0 DUP3 ADD MSTORE POP JUMP JUMPDEST PUSH0 PUSH2 0xCE8 PUSH1 0x1B DUP4 PUSH2 0xA63 JUMP JUMPDEST SWAP2 POP PUSH2 0xCF3 DUP3 PUSH2 0xCB4 JUMP JUMPDEST PUSH1 0x20 DUP3 ADD SWAP1 POP SWAP2 SWAP1 POP JUMP JUMPDEST PUSH0 PUSH1 0x20 DUP3 ADD SWAP1 POP DUP2 DUP2 SUB PUSH0 DUP4 ADD MSTORE PUSH2 0xD15 DUP2 PUSH2 0xCDC JUMP JUMPDEST SWAP1 POP SWAP2 SWAP1 POP JUMP JUMPDEST PUSH32 0x6469646E27742073656E6420656E6F7567682055534400000000000000000000 PUSH0 DUP3 ADD MSTORE POP JUMP JUMPDEST PUSH0 PUSH2 0xD50 PUSH1 0x16 DUP4 PUSH2 0xA63 JUMP JUMPDEST SWAP2 POP PUSH2 0xD5B DUP3 PUSH2 0xD1C JUMP JUMPDEST PUSH1 0x20 DUP3 ADD SWAP1 POP SWAP2 SWAP1 POP JUMP JUMPDEST PUSH0 PUSH1 0x20 DUP3 ADD SWAP1 POP DUP2 DUP2 SUB PUSH0 DUP4 ADD MSTORE PUSH2 0xD7D DUP2 PUSH2 0xD44 JUMP JUMPDEST SWAP1 POP SWAP2 SWAP1 POP JUMP JUMPDEST PUSH0 PUSH2 0xD8E DUP3 PUSH2 0x8AC JUMP JUMPDEST SWAP2 POP PUSH2 0xD99 DUP4 PUSH2 0x8AC JUMP JUMPDEST SWAP3 POP DUP3 DUP3 ADD SWAP1 POP DUP1 DUP3 GT ISZERO PUSH2 0xDB1 JUMPI PUSH2 0xDB0 PUSH2 0x998 JUMP JUMPDEST JUMPDEST SWAP3 SWAP2 POP POP JUMP JUMPDEST PUSH32 0x4F6E6C7920746865206F776E6572206F662074686520636F6E74726163742063 PUSH0 DUP3 ADD MSTORE PUSH32 0x616E206368616E676520746865206D696E696D756D20616D6F756E74206F6620 PUSH1 0x20 DUP3 ADD MSTORE PUSH32 0x5553442E00000000000000000000000000000000000000000000000000000000 PUSH1 0x40 DUP3 ADD MSTORE POP JUMP JUMPDEST PUSH0 PUSH2 0xE37 PUSH1 0x44 DUP4 PUSH2 0xA63 JUMP JUMPDEST SWAP2 POP PUSH2 0xE42 DUP3 PUSH2 0xDB7 JUMP JUMPDEST PUSH1 0x60 DUP3 ADD SWAP1 POP SWAP2 SWAP1 POP JUMP JUMPDEST PUSH0 PUSH1 0x20 DUP3 ADD SWAP1 POP DUP2 DUP2 SUB PUSH0 DUP4 ADD MSTORE PUSH2 0xE64 DUP2 PUSH2 0xE2B JUMP JUMPDEST SWAP1 POP SWAP2 SWAP1 POP JUMP JUMPDEST PUSH32 0x43616E6E6F74206368616E6765207468652076616C7565206F66206D696E696D PUSH0 DUP3 ADD MSTORE PUSH32 0x756D55736420746F207468652073616D652076616C75652E0000000000000000 PUSH1 0x20 DUP3 ADD MSTORE POP JUMP JUMPDEST PUSH0 PUSH2 0xEC5 PUSH1 0x38 DUP4 PUSH2 0xA63 JUMP JUMPDEST SWAP2 POP PUSH2 0xED0 DUP3 PUSH2 0xE6B JUMP JUMPDEST PUSH1 0x40 DUP3 ADD SWAP1 POP SWAP2 SWAP1 POP JUMP JUMPDEST PUSH0 PUSH1 0x20 DUP3 ADD SWAP1 POP DUP2 DUP2 SUB PUSH0 DUP4 ADD MSTORE PUSH2 0xEF2 DUP2 PUSH2 0xEB9 JUMP JUMPDEST SWAP1 POP SWAP2 SWAP1 POP JUMP JUMPDEST PUSH2 0xF02 DUP2 PUSH2 0xBF6 JUMP JUMPDEST DUP3 MSTORE POP POP JUMP JUMPDEST PUSH0 PUSH1 0x20 DUP3 ADD SWAP1 POP PUSH2 0xF1B PUSH0 DUP4 ADD DUP5 PUSH2 0xEF9 JUMP JUMPDEST SWAP3 SWAP2 POP POP JUMP INVALID LOG2 PUSH5 0x6970667358 0x22 SLT KECCAK256 0xEC 0xEB EXTCODESIZE PUSH12 0xE39443BC02F51438C2ABC6D8 0xE7 CODESIZE 0x2D EXTCODECOPY EXTCODESIZE 0xA7 0x28 COINBASE SUB DUP13 PUSH23 0xEA21F9103564736F6C634300081A003300000000000000 "
				},
				"gasEstimates": {
					"creation": {
						"codeDepositCost": "785400",
						"executionCost": "47195",
						"totalCost": "832595"
					},
					"external": {
						"addressToAvailableAmount(address)": "2803",
						"changeMinimumUsd(uint256)": "infinite",
						"fund()": "infinite",
						"getConversionRate(uint256,uint256)": "infinite",
						"getPrice()": "infinite",
						"minimumUsd()": "2448",
						"owner()": "2527",
						"partialWithdraw(uint256)": "infinite",
						"totalWithdraw()": "infinite"
					}
				},
				"methodIdentifiers": {
					"addressToAvailableAmount(address)": "034855c7",
					"changeMinimumUsd(uint256)": "d78a29d2",
					"fund()": "b60d4288",
					"getConversionRate(uint256,uint256)": "3e9f607c",
					"getPrice()": "98d5fdca",
					"minimumUsd()": "098de820",
					"owner()": "8da5cb5b",
					"partialWithdraw(uint256)": "71d2ee6c",
					"totalWithdraw()": "455fd623"
				}
			},
			"storageLayout": {
				"storage": [
					{
						"astId": 51,
						"contract": "contracts/FundMe.sol:FundMe",
						"label": "owner",
						"offset": 0,
						"slot": "0",
						"type": "t_address"
					},
					{
						"astId": 53,
						"contract": "contracts/FundMe.sol:FundMe",
						"label": "minimumUsd",
						"offset": 0,
						"slot": "1",
						"type": "t_uint256"
					},
					{
						"astId": 72,
						"contract": "contracts/FundMe.sol:FundMe",
						"label": "addressToAvailableAmount",
						"offset": 0,
						"slot": "2",
						"type": "t_mapping(t_address,t_uint256)"
					}
				],
				"types": {
					"t_address": {
						"encoding": "inplace",
						"label": "address",
						"numberOfBytes": "20"
					},
					"t_mapping(t_address,t_uint256)": {
						"encoding": "mapping",
						"key": "t_address",
						"label": "mapping(address => uint256)",
						"numberOfBytes": "32",
						"value": "t_uint256"
					},
					"t_uint256": {
						"encoding": "inplace",
						"label": "uint256",
						"numberOfBytes": "32"
					}
				}
			},
			"userdoc": {
				"kind": "user",
				"methods": {},
				"version": 1
			}
		}
	}
}